:10583100526563696265207472616D612070746F75
:105841003A00200D0A006C6F6E67697475642064FC
:0C58510065206C61207472616D613A008A
:104288004101420A4101430041014E0041014400FD
:1042980041014C0041014A004101570049013900E0
:1042A800000000000000000041014D0641015403D8
:0642B800410153F2C109AF
:03000B00025AABEB
:105AAB00C0E0C083C082900142E014F0A3E004F098
:095ABB00C28DD082D083D0E0320C
:105B6E00E58954F04401F589E4F58CF58AD28C224E
:055C2A00C28DD2A92289
:035C3800C2A922DC
:0B5BCB00125951EFF47002EEF460F587
:015BD60022AC
:055657009000B1EFF02E
:10565C009000B1E0FF125788EF3395E04F6024E4DF
:10566C009000B2F0A3F0C39000B3E094E89000B2C5
:10567C00E0940350DBA3E004F070EB9000B2E00484
:08568C00F080E39000B1E0FFA3
:0156940022F3
:105B7E00125C2F125BF3125BD7C283D287C29722BD
:104C9B00E4FDFC7FA81257C3900155E4F0A3EFF09D
:104CAB007D027C007FA81257C3900151E4F0A3EF63
:104CBB00F07D047C007FA81257C390014FE4F0A352
:104CCB00EFF07D067C007FA81257C3900148E4F0FB
:104CDB00A3EFF07D087C007FA81257C3900146EF2D
:104CEB00F07D0A7C007FA81257C3900145EFF07D41
:104CFB000C7C007FA81257C390014BEFF07D0E7C0C
:0C4D0B00007FA81257C3900147EFF02270
:103AF100125B6E125C2A1258891258DB125B7ED25D
:103B0100AF125A03125A917F611250F0125BFA20E0
:103B110091031224A2124C9B9001427403F0208065
:103B21003F7B017A0079001245A490000DEFF0125D
:103B31005BEA7B017A00790090000DE0FD1243D72A
:103B41007B017A00790090000DE0FD900041740145
:103B5100F0124D8A7B017A017939125695125BEA8E
:103B6100121EE720B35C7B017A01791112450C909A
:103B7100000DEFF07BFF7A5879311256957B017A6F
:103B810001791190000DE0FD9000417401F0124D9A
:103B91008A7BFF7A5879431256957BFF7A58794789
:103BA10012569590000DE0FF1254457BFF7A58792B
:103BB100431256957B017A01791190000DE0FD12B7
:083BC1001BD0124D17023B1F3F
:08000300D294125C3BC294226E
:0555D900900045EFF019
:1055DE00E4A3F0A3F0900045E0FFA2E713F030D76C
:1055EE0004D2958002C295120003900047E004F0A9
:1055FE007006900046E004F0C3900047E0940890D7
:09560E000046E06480948040CC69
:015617002270
:0A463900EBF0A3EAF0A3E9F07F8D97
:05464300900042EFF0C1
:10464800D2967F037E00125B02900042E0FF125573
:10465800D9E4900043F0A3F0900043E0FCA3E0FD10
:10466800C39408EC64809480504F3095169001698B
:10467800E04480F0ED9406EC648094805005E0FFFF
:10468800C313F0209520900169E0547FF0D3900087
:1046980044E09406900043E06480948050089001C0
:1046A80069E0FFC313F0120003900044E004F070C7
:1046B800A7900043E004F0809FC296900169E0FF54
:0146C80022CF
:1058B300900020EFF0A3EDF0D2967F037E00125B01
:1058C30002900020E0FF1255D9900021E0FF9000E4
:0858D30020F01255D9C2962203
:1055170090001EE475F00112137F90001EE475F0F1
:105527000112137F90001EE475F00112137F9000A3
:105537001DE0FBA3E0FAA3E0F9121305FF900001B9
:0455470012131EFD20
:0C554B00EF540FC454F0FFED540F4FFF5D
:015557002231
:1047590090001DEBF0A3EAF0A3E9F0125535AD077F
:104769007F861258B3125517AD077F881258B39038
:10477900001EE475F00112137F90001EE475F0012C
:1047890012137F125517AD077F8C1258B3125517A4
:10479900AD077F841258B3125517AD077F8212589F
:1047A900B3125517AD077F801258B390001EE475F8
:1047B900F00112137F90001EE475F00112137F902F
:1047C900001EE475F00112137F90001DE0FBA3E0C9
:0F47D900FAA3E0F9121305540FFD7F8A0258B3BB
:105A3C00AE07EEC4540F540FFE6012EF540FFFE488
:0D5A4C00FDEDC39E5007740A2FFF0D80F47E
:015A5900222A
:10505000E4FFFE90001DEDF090001DE0C394647429
:105060008094804007E0249CF00F80ECEF443012E5
:10507000134B740129F9E43AFA90001DE0C3940A35
:10508000748094804007E024F6F00E80ECEE44300B
:1050900012134B740129F9E43AFA90001DE04430F0
:0350A00002134BAD
:0E21D20090001DEBF0A3EAF0A3E9F0A3EDF0FE
:1021E000E4900022F0A3F0900025F0A3F0A3F0A368
:1021F000F0900024EDF054F0F0E0FFC4540FF090A4
:10220000002D1213DB404000007F007E007D807CAB
:1022100041122AD1C004C005C006C007900024E0C6
:10222000FCE4120E17D003D002D001D000120D072B
:10223000C004C005C006C007900022E0FCA3E0FD7A
:10224000E4120E12D003D002D001D000120C1612EC
:102250000E4B900022EEF0A3EFF0900020E09000F3
:1022600024F0540FF090002D1213DB400000007F8B
:10227000007E007D807C41122AD1C004C005C006CA
:10228000C007900024E0FCE4120E17D003D002D067
:1022900001D000120D07C004C005C006C0079000A1
:1022A00022E0FCA3E0FDE4120E12D003D002D00124
:1022B000D000120C16120E4B900022EEF0A3EFF09D
:1022C000900021E0900024F054F0F0E0FFC4540F9F
:1022D000F090002D1213DB3F8000007F007E007D18
:1022E000807C41122AD1C004C005C006C0079000FE
:1022F00024E0FCE4120E17D003D002D001D000126B
:102300000D07C004C005C006C007900022E0FCA372
:10231000E0FDE4120E12D003D002D001D000120C66
:1023200016120E4B900022EEF0A3EFF0900021E089
:10233000900024F0540FF090002D1213DB000000E9
:10234000007F007E007D807C41122AD1C004C00540
:10235000C006C007900024E0FCE4120E17D003D0A2
:1023600002D001D000120D07C004C005C006C0078E
:10237000900022E0FCA3E0FDE4120E12D003D00294
:10238000D001D000120C16120E4B900022EEF0A3DA
:10239000EFF0C3EF9410EE9427401074F02FFF7409
:1023A000D83EFE900025E004F080E7900025E04450
:1023B00030FD90001DE0FBA3E0FAA3E0F9ED12135D
:1023C0004B90001EE475F00112137FC3EF94E8EE0A
:1023D0009403401074182FFF74FC3EFE900026E01A
:1023E00004F080E7900026E04430FD90001DE0FB03
:1023F000A3E0FAA3E0F9ED12134B90001EE475F090
:102400000112137FC3EF9464EE94004010749C2F6C
:10241000FF74FF3EFE900027E004F080E790002765
:10242000E04430FD90001DE0FBA3E0FAA3E0F9EDED
:1024300012134B90001EE475F00112137FC3EF944A
:102440000AEE9400401074F62FFF74FF3EFE9000D9
:1024500028E004F080E7900028E04430FD90001D63
:10246000E0FBA3E0FAA3E0F9ED12134B90001EE4A9
:1024700075F00112137FEF4430FF90001DE0FBA3C5
:10248000E0FAA3E0F9EF12134B90001EE475F0019F
:1024900012137F90001DE0FBA3E0FAA3E0F9E40231
:0224A000134BDC
:0328F90090003F0D
:1028FC00124639EF54F0C4540F4430FE90003FE0C0
:10290C00FBA3E0FAA3E0F9EE12134B900040E47540
:10291C00F00112137FEF540F4430FF90003FE0FBA7
:10292C00A3E0FAA3E0F9EF12134B900040E475F02A
:10293C000112137F7F89124643EF54F0C4540F44A5
:10294C0030FE90003FE0FBA3E0FAA3E0F9EE121397
:10295C004B900040E475F00112137FEF540F44309C
:10296C00FF90003FE0FBA3E0FAA3E0F9EF12134B5A
:10297C00900040E475F00112137F7F87124643EFFD
:10298C0054F0C4540F4430FE90003FE0FBA3E0FA37
:10299C00A3E0F9EE12134B900040E475F001121312
:1029AC007FEF540F4430FF90003FE0FBA3E0FAA30D
:1029BC00E0F9EF12134B900040E475F00112137F15
:1029CC007F85124643EF54F0C4540F4430FE900000
:1029DC003FE0FBA3E0FAA3E0F9EE12134B900040AA
:1029EC00E475F00112137FEF540F4430FF90003F59
:1029FC00E0FBA3E0FAA3E0F9EF12134B900040E4E4
:102A0C0075F00112137F7F83124643EF54F0C454C8
:102A1C000F4430FE90003FE0FBA3E0FAA3E0F9EE98
:102A2C0012134B900040E475F00112137FEF540F1A
:102A3C004430FF90003FE0FBA3E0FAA3E0F9EF1273
:102A4C00134B900040E475F00112137F7F81124606
:102A5C0043EF54F0C4540F4430FE90003FE0FBA30E
:102A6C00E0FAA3E0F9EE12134B900040E475F0018C
:102A7C0012137FEF540F4430FF90003FE0FBA3E0B4
:102A8C00FAA3E0F9EF12134B900040E475F0011239
:102A9C00137F7F8B124643EF540F4430FF90003F5F
:102AAC00E0FBA3E0FAA3E0F9EF12134B900040E433
:102ABC0075F00112137F90003FE0FBA3E0FAA3E056
:052ACC00F9E402134BC8
:103D640090002A12463990002AE0FBA3E0FAA3E06F
:103D7400F9EF12134B90002BE475F00112137F7FBF
:103D84008912464390002AE0FBA3E0FAA3E0F9EF8E
:103D940012134B90002BE475F00112137F7F8712EE
:103DA400464390002AE0FBA3E0FAA3E0F9EF1213E4
:103DB4004B90002BE475F00112137F7F851246436C
:103DC40090002AE0FBA3E0FAA3E0F9EF12134B9072
:103DD400002BE475F00112137F7F83124643900099
:103DE4002AE0FBA3E0FAA3E0F9EF12134B90002BB7
:103DF400E475F00112137F7F8112464390002AE09C
:103E0400FBA3E0FAA3E0F9EF12134B90002BE47547
:103E1400F00112137F90002AE0FBA3E0FAA3E0F97B
:043E2400E402134B56
:075BF300C294C296D2952274
:105B0200E4FDFCC3ED9FEC9E50070DBD00010C802F
:015B1200F2A0
:015B1300226F
:045A7600AB07AA06CA
:105A7A00900000C3E5829BE5839A500A7F967E00D8
:065A8A00125B02A380ED97
:015A900022F3
:015C3B002246
:0359BD0012599BE1
:1059C000D20AD293D292E4FFFE209205C20AC29379
:0C59D000220FBF00010EBE04F0BF4CED22
:0159DC0022A8
:0359DD0012599BC1
:1059E000D293D292D20AE4FFFE209205C20AC29359
:0C59F000220FBF00010EBE02F0BF8AEDC6
:0159FC002288
:065C2400D29300C293229E
:10599B00E4FEEEC39408748094805015EF25E0FF6D
:1059AB0030D704D2928002C292D293125C240E8022
:0159BB00E10A
:0159BC0022C8
:085B1400ECFD7C00C293C2927B
:0A5B1C00D292D29300C292C29322EB
:095BE100C293C292D293D2922227
:1050A300E4FBEBFDC39408748094805038C29330C2
:1050B3009216900164E04401F0ED940674809480AC
:1050C3005006E025E0F0D293209217900164E0545B
:1050D300FEF0EBD39406748094805006E025E0F054
:0C50E300D2930B80BDC293900164E0FFEB
:0150EF00229E
:02561800AA07DF
:10561A00AF05A907125B14AF021259BDAF051259A3
:10562A00BDAF0112599B1259C0AF0312599B1259AF
:10563A00C0125BE17F0D7E00125A76D293D2927F1E
:0D564A00627E00125B027F627E00025B0246
:0257C300AB0732
:1057C500AF05AA07125B14AF031259DDAF051259D5
:1057D500DDAF0212599B1259E0125B1CEB04FF125C
:1057E500599B1259C0C2931250A3125BE1D293D2B6
:0657F50092900164E0FF48
:0157FB00228B
:104FA10090007DEEF0A3EFF0A3EBF0A3EAF0A3E90C
:014FB100F00F
:104FB20090007DE0FCA3E0FD7FA81257C390007F24
:104FC200E0FBA3E0FAA3E0F9EF12134B90007FE0BD
:104FD200FBA3E0FAA3E0F9121305FF90007EE004C0
:104FE200F0700690007DE004F0900080E475F0011E
:064FF20012137FEF70BAFC
:014FF8002296
:1048740090007DEFF0A3ECF0A3EDF0A3EBF0A3EA3E
:10488400F0A3E9F0900080E0FBA3E0FAA3E0F912C2
:104894001305603CB40D04E412134B90007DE0FF5B
:1048A400A3E0FCA3E0FDA3E0FBA3E0FAA3E0F9127C
:1048B4001305FB12561890007FE004F07006900078
:1048C4007EE004F0900081E475F00112137F80B45F
:1048D400900080E0FBA3E0FAA3E0F9E412134B900C
:1048E400007DE0FFA3E0FCA3E0FDA3E0FBA3E0FA6E
:0A48F400A3E0F9121305FB025618A9
:1043370053656E736F726573204175746F207920B2
:1043470073656E736F72312061637469766F732E54
:104357000053656E736F722061637469766F2073A3
:10436700656E736F7231202E0044657465637461E6
:10437700646F2E2053656E736F72204175746F2EB4
:104387000053656E736F726573206E6F206465747A
:1043970065637461646F73005665686963756C6FF4
:1043A700204573706572616E646F2053616C69722A
:1043B7002E005665686963756C6F2053616C69657B
:1043C7006E646F2E20556E206D6F6D656E746F0075
:075BFA00C2B5C2B6C2B7221A
:075C0100C2B5D2B6C2B72202
:075C0800C2B5C2B6D2B722FB
:075C0F00D2B5C2B6D2B722E4
:075C1600C2B5D2B6D2B722DD
:075C1D00D2B5D2B6D2B722C6
:105A1D00E4FF7DF47C01309115EFFB3395E04B7085
:0E5A2D000DED1D70011CED4C70EC7F0180E84A
:015A3B002248
:105B26007F31125C163091010F125C1D3091020F0D
:015B36000F5F
:015B3700224B
:104DFD00125C0830915D125A1DEF3395E0FEEF64A1
:104E0D00014E7047125C0F209123125C017BFF2035
:104E1D00910D7A437937125695E490014A80227AA2
:104E2D0043795812569590014A74018014125C0111
:104E3D007BFF2091107A43797012569590014A7438
:104E4D0001F07FFF227A437988800E7BFF7A4379C8
:0F4E5D009F80067BFF7A4379B91256957F00221A
:104D1700125BFA20916190000EE07014A3E070100E
:104D270030B35404F012585D90000E7401F08047C0
:104D370090000EE064017014A3E0701030B33804E3
:104D4700F012323F90000E7402F0802B90000EE0BC
:104D570064027023A3E0701F30B31C04F07D667CEF
:104D6700007FA81257C3BF53047F5380027F4E12A0
:104D770048FEE490000EF0125BFA309105E49000D3
:024D87000FF02B
:014D89002207
:0B45A40090000EEBF0A3EAF0A3E9F09A
:1045AF00E4900012F0A3740CF0900145E0640170E8
:1045BF0073900011F0900013E0FF900011E0C39F83
:1045CF005053E4FFFEFD30801DED701A0FBF000148
:1045DF000ED3EF9430EE947540EC7D01900013E014
:1045EF00900011F080E0ED6401602A12498690007E
:1045FF000EE0FBA3E0FAA3E0F9EF12134B90000FCC
:10460F00E475F00112137F900012E004F090001196
:10461F00E004F080A090000EE0FBA3E0FAA3E0F925
:09462F00E412134B900012E0FFAD
:01463800225F
:0B43D70090000EEBF0A3EAF0A3E9F069
:1043E200E4FF7E0290000212131E6403701C900010
:1043F2000EE0FBA3E0FAA3E0F990000112131EB451
:104402005008D297E4900143F02290000EE0FBA303
:10441200E0FAA3E0F990000112131E643C70509080
:10442200000EE0FBA3E0FAA3E0F98E82758300128E
:10443200131EFD74392FF582E43401F583EDF00E7D
:104442000F8E8275830012131E640370D290000EC9
:10445200E0FBA3E0FAA3E0F98E82758300E4121375
:0F4462005D74382FF582E43401F583E4F0D2095C
:014471002228
:0E55580090003FEBF0A3EAF0A3E9F0A3EDF022
:10556600E4A3F0900042E0FFA3E0C39F5024900024
:105576003FE0FBA3E0FAA3E0F9121305FF1250F097
:10558600900040E475F00112137F900043E004F0B0
:0255960080D1C2
:0155980022F0
:0B3BC90090001DEBF0A3EAF0A3E9F070
:103BD40090003E7403F090002014F0125B269000D5
:103BE40021EFF0A37453F090014AE090003E60137B
:103BF400E0FF04F074202FF582E43400F583744D63
:103C0400F08011E0FF04F074202FF582E43400F515
:103C1400837443F090003E7404F090001DE0FBA315
:103C2400E0FAA3E0F9121305FF602190003EE024BE
:103C340020F582E43400F583EFF090001EE475F083
:103C44000112137F90003EE004F080CE90003EE02D
:103C5400FF04F074202FF582E43400F583743AF005
:103C640090003EE02420F9E43400FA7B011228F9A4
:103C740090003EE0FF242AF582E43400F583743A90
:103C8400F0742B2FF582E43400F5837403F07B0188
:0B3C94007A007920EF240CFD02555847
:0E384B00900014EBF0A3EAF0A3E9F0A3EDF077
:10385900A37402F0125B26900019EFF0A37453F0E1
:10386900E4A3F0900017E0900037F0E4A3F07B01A7
:1038790090005604F0A37400F0A37437F07A00792D
:1038890018124E6C900014E0F9A3E0FAA3E090003E
:1038990056C9F0A3EAF0A3E9F07B017A007918127E
:1038A9004E6C900037743AF0E4A3F07B0190005617
:1038B90004F0A37400F0A37437F07A007918124E5B
:1038C9006C7B017A00791812000E900036EFF02413
:1038D90018F9E43400FA7B011228F9900036E0FF68
:1038E9002422F582E43400F583743AF074232FF529
:1038F90082E43400F5837403F074242FF582E434F0
:1039090000F583E4F074252FF582E43400F583E4AF
:10391900F07B017A00791812000E900036EFF0FD65
:093929007B017A0079180255585F
:045C3400256C750066
:105B8E0090000AE412135D7D007C057FA802487424
:105A5A007B017A00795A7F007E05124FA17B017A79
:0C5A6A0000795A12334F9000560213CFFF
:1056D3009000567409F0E4A3F0900057E0FFC394E0
:1056E3000A748094805025900056E0C39FFFE49491
:1056F30000FE8F82F58312131E6430700F8F828E2B
:0C5703008312135D900057E004F080CD8D
:01570F002277
:0B571000900053EBF0A3EAF0A3E9F0D7
:10571B00125A5A90008474FFF0A3745CF0A3743493
:10572B00F0A31213CF900053E0FBA3E0FAA3E0F930
:10573B001217B2900053E0FBA3E0FAA3E0F9025674
:01574B00D38A
:102EBD004552524F523A2056414C4944414E444F8F
:102ECD0020504C4143412E2E2E20004552524F5240
:102EDD003A204C4F4F50312053494E2050524553BC
:102EED00454E434941205645484943554C41522092
:102EFD00004552524F523A205441524A45544120B6
:102F0D00494E56414C49444120005441524A455482
:102F1D0041204E4F2045532044454C2050415251A5
:102F2D002E20005441524A4554412053494E2046CB
:102F3D004F524D41544F20005441524A4554412067
:102F4D004E4F205245474953545241205041474F0F
:102F5D002000455843454445205449454D504F2088
:102F6D004445204752414349412000465545524171
:102F7D00204445204C494E45412000414345525186
:102F8D005545205355205449434B45542000475235
:102F9D00414349415320004552524F523A20534923
:102FAD004E20494E475245534F20005449434B45FF
:102FBD0054204E6F2E0057494547414E442000AADC
:102FCD00802807200000000000140000AA801801CE
:0E2FDD000200AA8018020200AA801801020059
:09590300900052E025E0FFE4FDF4
:05590C00900059EDF0D0
:1059110012565790005AEFF0900059E0600AE4FFE8
:0859210012565790005AEFF0F6
:01592900225B
:0E574C00900053EBF0A3EAF0A3E9F0A3EDF018
:10575A00E4A3F0900053E0FBA3E0FAA3E0F9900081
:10576A0057E0F58275830012131EFF6010900056F1
:0D577A00E0FD12590C900057E004F080D6BD
:0157870022FF
:0E548C00900053EBF0A3EAF0A3E9F0A3EDF0DB
:10549A00E4900058F0900056E0FF900058E0FEC3F8
:1054AA009F5024900053E0FBA3E0FAA3E0F98E8218
:1054BA0075830012131EFF900057E0FD12590C90DD
:0754CA000058E004F080CE61
:0154D10022B8
:1057FC00781D7C007D017BFF7A2F79CC7E007F0D9C
:10580C001212DFC2877B017A007922123D64C29C9E
:10581C007B017A00791DE4900057F07D0D12548CB9
:04582C00D29CD287B1
:015830002255
:0526D30090001DEFF076
:1026D80078467C007D017BFF7A2F79D97E007F06C2
:1026E8001212DF784C7C007D017BFF7A2F79DF7E28
:1026F800007F061212DFC2877B017A007946E4FD6B
:1027080012574C90001DE012142C273A50281AB684
:1027180027BADF275AE0277AE1279AE52877E627BC
:10272800DAE727FAE8289BFA2839FE2858FF00003C
:1027380028F67BFF7A2E79BD12000E900052EFF03A
:10274800E4FDFF12590C1259037BFF7A2E79BD0262
:1027580028947BFF7A2E79D812000E900052EFF061
:10276800E4FDFF12590C1259037BFF7A2E79D80227
:1027780028947BFF7A2E79FE12000E900052EFF01B
:10278800E4FDFF12590C1259037BFF7A2E79FE02E1
:1027980028947BFF7A2F791712000E900052EFF0E1
:1027A800E4FDFF12590C1259037BFF7A2F791702A7
:1027B80028947BFF7A2F793012000E900052EFF0A8
:1027C800E4FDFF12590C1259037BFF7A2F7930026E
:1027D80028947BFF7A2F794512000E900052EFF073
:1027E800E4FDFF12590C1259037BFF7A2F79450239
:1027F80028947BFF7A2F795F12000E900052EFF039
:10280800E4FDFF12590C1259037BFF7A2F795F02FE
:1028180028947BFF7A2F797812000E900052EFF0FF
:10282800E4FDFF12590C1259037BFF7A2F79788047
:102838005B7BFF7A2F798812000E900052EFF0E44C
:10284800FDFF12590C1259037BFF7A2F7988803CBF
:102858007BFF7A2F799B12000E900052EFF0E4FD77
:10286800FF12590C1259037BFF7A2F799B801D7B2D
:10287800FF7A2F79A412000E900052EFF0E4FDFFCA
:1028880012590C1259037BFF7A2F79A47D01125734
:102898004C805B7B017A00791E125710782D7C00E2
:1028A8007D017BFF7A2F79B81216B9900056740112
:1028B800F0A37400F0A3741EF07B017A00792D1246
:1028C8004E6C7B017A00792D12000EEF04900052B5
:1028D800F0E4FDFF12590C1259037B017A00792D9F
:1028E800900052E0FD9000577401F012548CD2878A
:0128F80022BD
:0E4B170090001DEFF0A3EBF0A3EAF0A3E9F08D
:104B250078217C007D017BFF7A2F79E57E007F0669
:104B35001212DFC28790001DE0245070557B017A68
:104B4500007921E4FD12574C7BFF7A2F79C31200BF
:104B55000E900027EFF090001EE0FBA3E0FAA3E023
:104B6500F912000E900027E02F04F0E4FDFF125922
:104B75000C9000271259067BFF7A2F79C37D01120D
:104B8500574C90001EE0FBA3E0FAA3E0F97D01126B
:044B9500574CD28720
:014B990022F9
:100026000D0A0A25733E20002563002564000D0A8B
:100036000A2041435455414C2049445F434C4945AD
:100046004E54453D25730D0A0A000D0A0A204449FF
:1000560047495445205355204E5545564F2049444F
:100066005F434C49454E54453D000D0A0A20444124
:10007600544F204D4F444946494341444F2049443B
:100086005F434C49454E54453D25730D0A0A000D04
:100096000A0A2041435455414C20434F445F504186
:1000A600524B3D25730D0A0A000D0A0A20444947A2
:1000B600495445205355204E5545564F20434F44ED
:1000C6005F5041524B3D000D0A0A204441544F20D7
:1000D6004D4F444946494341444F20434F445F50A6
:1000E60041524B3D25730D0A0A000D0A0A20414371
:1000F6005455414C205449454D504F5F475241435A
:1001060049413D25730D0A0A000D0A0A2044494754
:10011600495445205355204E5545564F2054494580
:100126004D504F5F4752414349413D000D0A0A2059
:100136004441544F204D4F444946494341444F2082
:100146005449454D504F5F4752414349413D257300
:100156000D0A0A000D0A0A2041435455414C20530A
:10016600494E5F434F42524F20494E484142494C07
:10017600495441444F3D25730D0A0A000D0A0A20D1
:1001860041435455414C2053494E5F434F42524FD1
:10019600204752415449533D25730D0A0A000D0A62
:1001A6000A2041435455414C2053494E5F434F4228
:1001B600524F2047524154495320592053414C49EC
:1001C600444120454C204D49534D4F204449413D23
:1001D60025730D0A0A000D0A0A2044494749544569
:1001E600205355204E5545564F2053494E5F434F99
:1001F60042524F3D000D0A0A2041435455414C20BE
:10020600444542554720494E484142494C4954418C
:10021600444F3D25730D0A0A000D0A0A2041435436
:1002260055414C20444542554720484142494C4996
:100236005441444F3D25730D0A0A000D0A0A204415
:10024600494749544520454C204E5545564F204573
:10025600535441444F2044452044454255473D00B0
:100266000D0A0A2041435455414C205553455F4CD5
:10027600505220494E484142494C495441444F3D11
:1002860025730D0A0A000D0A0A2041435455414CB4
:10029600205553455F4C505220484142494C4954E1
:1002A60041444F3D25730D0A0A000D0A0A204449B0
:1002B6004749544520454C204E5545564F204553F9
:1002C6005441444F204445205553455F4C50523DC0
:1002D600000D0A0A2041435455414C20434F4D50CE
:1002E60041524143494F4E204143544956412049CA
:1002F6004E484142494C495441444F3D25730D0AED
:100306000A000D0A0A2041435455414C20434F4DE3
:100316005041524143494F4E204143544956412092
:1003260020484142494C495441444F3D25730D0AEA
:100336000A000D0A0A2044494749544520454C20E5
:100346004E5545564F2045535441444F2044452071
:10035600434F4D5041524143494F4E20414354492A
:100366005641203D000D0A0A2041435455414C2078
:10037600434F4D5041524143494F4E20414354490A
:1003860056412020494E484142494C495441444F28
:100396003D25730D0A0A000D0A0A204143545541B2
:1003A6004C20434F4449474F204445204241525236
:1003B6004153204143544956303D25730D0A0A00E6
:1003C6000D0A0A2041435455414C20434F444947A6
:1003D6004F2051522041435449564F3D25730D0A33
:1003E6000A000D0A0A2044494749544520454C2035
:1003F6004E5545564F2045535441444F20444520C1
:10040600434F4449474F205152204F20434F4449C0
:10041600474F204445204241525241533D000D0A68
:100426000A2044696769746520656C206E6F6D6289
:1004360072652064656C20636C69656E7465200066
:100446000D0A0A20746578746F20677261626164B0
:100456006F3D25730D0A0A000D0A0A204469676973
:10046600746520656C206E756D65726F20646520FD
:100476004E697420000D0A0A204E49543A2025730D
:100486000D0A0A000D0A0A20446967697465206529
:100496006C204E6F6D6272652064656C20506172CF
:1004A600717565616465726F20000D0A0A204E6FD2
:1004B6006D6272653A2025730D0A0A000D0A0A203C
:1004C600446967697465206C612064697265636359
:1004D600696F6E2064656C2065737461626C656318
:1004E600696D69656E746F20000D0A0A2044697291
:1004F600656363696F6E3A2025730D0A0A000D0A5B
:100506000A2044696769746520656C206D736A31D9
:100516002064656C2065737461626C6563696D69DE
:10052600656E746F20000D0A0A206D736A313A20D9
:1005360025730D0A0A000D0A0A2044696769746565
:1005460020656C206D736A322064656C2065737457
:1005560061626C6563696D69656E746F20000D0A72
:100566000A2044696769746520656C206D736A3377
:100576002064656C2065737461626C6563696D697E
:10058600656E746F20000D0A0A206D736A333A2077
:1005960025730D0A0A000D0A0A2044696769746505
:1005A60020656C206D736A342064656C20657374F5
:1005B60061626C6563696D69656E746F20000D0A12
:1005C6000A206D736A343A2025730D0A0A000D0A53
:1005D6000A2044696769746520656C206D736A3505
:1005E6002064656C2065737461626C6563696D690E
:1005F600656E746F20000D0A0A206D736A353A2005
:1006060025730D0A0A000D0A0A2044696769746594
:1006160020656C206D736A362064656C2065737482
:1006260061626C6563696D69656E746F20000D0AA1
:100636000A206D736A363A2025730D0A0A000D0AE0
:100646000A2044696769746520656C206D736A3792
:100656002064656C2065737461626C6563696D699D
:10066600656E746F20000D0A0A206D736A373A2092
:1006760025730D0A0A000D0A2049445F434C49457B
:100686004E5445202020202D2D2D20636D642030D2
:10069600204964656E746966696361646F7220647B
:1006A600656C20636C69656E7465206D6178696D33
:1006B6006F20323535000D0A20434F445F504152BA
:1006C6004B2020202020202D2D2D20636D642031ED
:1006D60020456C206E756D65726F2064656C2070A8
:1006E6006172717565616465726F206D6178696D9F
:1006F6006F20323535000D0A20545F475241434979
:10070600412020202020202D2D2D20636D642032B5
:10071600205469656D706F2073696E20636F627215
:100726006F2030302C20206D6178696D6F20323556
:1007360035000D0A2053494E5F434F42524F202049
:100746002020202D2D2D20636D64203320496E68D6
:100756006162696C697461646F3D20302C20477258
:10076600617469733D2031202C204772617469736E
:1007760020792073616C69646120656C206D6973F2
:100786006D6F206469613D2032000D0A20444542A8
:1007960055472020202020202020202D2D2D20638D
:1007A6006D64203420486162696C69746172203D11
:1007B60020312C20496E686162696C69746172200F
:1007C6003D2030000D0A205553455F4C50522020E5
:1007D60020202020202D2D2D20636D64203548619A
:1007E60062696C69746172203D20312C20496E6803
:1007F6006162696C69746172203D2030000D0A20C7
:10080600434F4D5041524143494F4E5F4143544936
:100816005641202D2D2D636D642036204861626976
:100826006C69746172203D20312C20496E686162CA
:10083600696C69746172203D2030000D0A205152A6
:100846005F434F445F424152524153202D2D2D6349
:100856006D64203720486162696C69746172205149
:1008660052203D20312C20486162696C69746172A6
:1008760020434F445F424152524153203D203000B5
:100886000D0A20434C49454E544520202020202067
:10089600202D2D2D636D642038204E6F6D6272659C
:1008A6002064656C20636C69656E7465000D0A20B2
:1008B6004E495420202020202020202020202D2D8D
:1008C6002D20636D642039204E756D65726F20642E
:1008D600656C206E6974000D0A204E4F4D5F5041C5
:1008E60052512020202020202D2D2D20636D6420A4
:1008F6003130204E6F6D6272652064656C207061C8
:1009060072717565616465726F000D0A2044495203
:10091600454343494F4E20202020202D2D2D206376
:100926006D64203131204E6F6D6272652064656C96
:1009360020706172717565616465726F000D0A20C1
:100946004D534A5F312020202020202020202D2DAD
:100956002D20636D64203132206D736A206465201A
:10096600696E666F726D6163696F6E2064656C2077
:10097600706172717565616465726F000D0A204D54
:10098600534A5F322020202020202020202D2D2D8C
:1009960020636D64203133206D736A20646520699D
:1009A6006E666F726D6163696F6E2064656C207030
:1009B6006172717565616465726F000D0A204D5331
:1009C6004A5F332020202020202020202D2D2D207E
:1009D600636D64203134206D736A20646520696E0E
:1009E600666F726D6163696F6E2064656C207061FD
:1009F60072717565616465726F000D0A204D534A08
:100A06005F342020202020202020202D2D2D206323
:100A16006D64203135206D736A20646520696E66C9
:100A26006F726D6163696F6E2064656C20706172B0
:100A3600717565616465726F000D0A204D534A5FDA
:100A4600352020202020202020202D2D2D20636DD4
:100A560064203136206D736A20646520696E666F86
:100A6600726D6163696F6E2064656C20706172716E
:100A76007565616465726F000D0A204D534A5F36D5
:100A86002020202020202020202D2D2D20636D6465
:100A9600203137206D736A20646520696E666F7237
:100AA6006D6163696F6E2064656C2070617271752B
:100AB60065616465726F000D0A204D534A5F3720E9
:100AC60020202020202020202D2D2D20636D642025
:100AD6003138206D736A20646520696E666F726DA9
:100AE6006163696F6E2064656C20706172717565F3
:100AF600616465726F000D0A2041595544412020FA
:100B0600202020202020202D2D2D20636D642031D3
:100B160039204D756573747261206C6F7320636F35
:100B26006D616E646F73000D0A2053414C4952206B
:100B360020202020202020202D2D2D20636D6420B4
:100B460032302053616C69722064652070726F6761
:100B560072616D6163696F6E000D0A0A5369737481
:100B6600656D612064652050726F6772616D6163A7
:100B7600696F6E205665726966696361646F720D8E
:100B86000A0D0A000D0A0A2F3E5573756172696FC8
:100B96003A000D0A0A206461746F732064656C2044
:100BA6006275666665722072782025730D0A0A00E2
:100BB6000D0A0A206461746F732064656C20627587
:100BC600666665722074782025730D0A0A000D0A80
:100BD6000A2F3E50617373776F72643A0031323375
:100BE600343536000D0A436F6D616E646F206E6F8B
:100BF60020657869737465202725732700200D0A00
:090C060000200D0A00220D0A0075
:1042BE005400BE2F000000000000000000000000AF
:1042CE00000000000000004900B561646D696E00D9
:1042DE00000000603F00D2300000310000320000CC
:1042EE00330000340000350000360000370000387F
:1042FE0000003900003130003131003132003133ED
:10430E00003134003135003136003137003138009C
:06431E00313900323000CD
:0B4F3F0090003FEBF0A3EAF0A3E9F0C4
:104F4A00E4900045F0900045E0FFC3941574809406
:104F5A00805041EF75F003A424D2F9740035F0FAB9
:104F6A007B0178427C007D011216B978427C007D73
:104F7A000190003FE0FBA3E0FAA3E0F91215D0EF9D
:104F8A003395E04F7006900045E0FF22900045E01F
:064F9A0004F080B17FFF6E
:014FA00022EE
:0B54D20090000EE0FBA3E0FAA3E0F95D
:0B54DD0090003FEBF0A3EAF0A3E9F021
:1054E80078427C007D017B017A0079B51216B97883
:1054F800427C007D0190003FE0FBA3E0FAA3E0F9C5
:0E5508001215D0EF3395E04F7002FF227FFFA7
:015516002272
:065599007B017A00792B72
:0B559F0090003FEBF0A3EAF0A3E9F05E
:1055AA0078427C007D017BFF7A0C79037E007F04C0
:1055BA001212DF90004D7401F0A37400F0A374423C
:0F55CA00F090003FE0FBA3E0FAA3E0F9023932D2
:1046C900E0FBA3E0FAA3E02FF9EA3EFAE92401F9B5
:0346D900E43AFAC6
:0B46DC0090003FEBF0A3EAF0A3E9F030
:1046E70078427C007D017BFF7A0C79077E007F048E
:1046F7001212DF78467C007D017BFF7A0C790B7EF6
:10470700007F041212DF90003FE0FBA3E0FAA3E072
:10471700F9121305FFB4200C900040E475F0011264
:10472700137F80E2EF90004DB4220D7401F0A37463
:1047370000F0A37446F080167401F0A37400F0A390
:104747007442F090003FE0FBA3E0FAA3E0F91239CE
:01475700322F
:01475800223E
:105AC4009000847401F0A37400F0A374BEF07BFF13
:075AD4007A0079260217B8E1
:084C1B007A00792B7B01E4FD16
:0E4C230090007DEBF0A3EAF0A3E9F0A3EDF022
:104C3100125BCB90007DE0FBA3E0FAA3E0F9EF1259
:104C4100134B900080E0701D90007DE0FBA3E0FA23
:104C5100A3E0F9121305900084F07BFF7A00792E0E
:104C61001217B880057F2A12565790007DE0FBA3EA
:104C7100E0FAA3E0F9121305FF7E0090007EE475CF
:104C8100F00112137F90007DE0FBA3E0FAA3E0F9AD
:094C9100E412134BEF640D70975F
:014C9A0022F7
:10411E00E4FDFC7FA81257C37E00900049EEF0A389
:10412E00EFF090008474FFF0A37400F0A37431F0EC
:10413E00A3EEF0A3EFF07B017A00793F1217B29055
:10414E0000847401F0A37400F0A3743FF07BFF7A37
:10415E000079341217B87BFF7A0079501217B87AAB
:10416E0000793F124C1F7B017A00793F123A16906C
:10417E000049EEF0A3EFF0FBE4FDFC7FA812561809
:10418E00E4FDFC7FA81257C37E00900049EEF0A319
:10419E00EFF090008474FFF0A37400F0A37431F07C
:1041AE00A3EEF0A3EFF07B017A00793F1217B290E5
:1041BE0000847401F0A37400F0A3743FF07BFF7AC7
:0641CE000079700217B831
:103EE7007D027C007FA81257C37E00900049EEF048
:103EF700A3EFF090008474FFF0A37400F0A3743173
:103F0700F0A3EEF0A3EFF07B017A00793F1217B22E
:103F17009000847401F0A37400F0A3743FF07BFF5A
:103F27007A0079951217B87BFF7A0079AF1217B824
:103F37007B017A00793FE4FD124C237B017A0079FB
:103F47003F123A16900049EEF0A3EFF0FB7D027C9A
:103F5700007FA81256187D027C007FA81257C37EE7
:103F670000900049EEF0A3EFF090008474FFF0A3F7
:103F77007400F0A37431F0A3EEF0A3EFF07B017AA5
:103F870000793F1217B29000847401F0A37400F017
:0D3F9700A3743FF07BFF7A0079CD0217B8CC
:103FA4007D047C007FA81257C37E00900049EEF088
:103FB400A3EFF090008474FFF0A37400F0A37431B5
:103FC400F0A3EEF0A3EFF07B017A00793F1217B271
:103FD4009000847401F0A37400F0A3743FF07BFF9D
:103FE4007A0079F01217B87BFF7A01790F1217B8AB
:103FF4007B017A00793FE4FD124C237B017A00793E
:104004003F123A16900049EEF0A3EFF0FB7D047CDA
:10401400007FA81256187D047C007FA81257C37E27
:1040240000900049EEF0A3EFF090008474FFF0A339
:104034007400F0A37431F0A3EEF0A3EFF07B017AE7
:1040440000793F1217B29000847401F0A37400F059
:0D405400A3743FF07BFF7A0179320217B8A8
:102D7F007D067C007FA81257C37E00900049EEF0BD
:102D8F00A3EFF090008474FFF0A37400F0A37431EC
:102D9F00F0A3EEF0A3EFF07B017A00793F1217B2A8
:102DAF00900049E07002A3E0701590008404F0A336
:102DBF007400F0A3743FF07BFF7A01795A8035904D
:102DCF000049E07004A3E06401701590008404F0E2
:102DDF00A37400F0A3743FF07BFF7A017982801413
:102DEF009000847401F0A37400F0A3743FF07BFF94
:102DFF007A0179A41217B87BFF7A0179DC1217B820
:102E0F007B017A00793FE4FD124C237B017A007934
:102E1F003F123A16900049EEF0A3EFF0FB7D067CCF
:102E2F00007FA81256187D067C007FA81257C37E1C
:102E3F0000900049EEF0A3EFF090008474FFF0A330
:102E4F007400F0A37431F0A3EEF0A3EFF07B017ADE
:102E5F0000793F1217B2900049E07002A3E070159D
:102E6F0090008404F0A37400F0A3743FF07BFF7A0A
:102E7F0001795A8035900049E07004A3E064017035
:102E8F001590008404F0A37400F0A3743FF07BFF4F
:102E9F007A01798280149000847401F0A37400F099
:0D2EAF00A3743FF07BFF7A0179A41217B8DD
:012EBC0022F3
:10345B007D087C007FA81257C37E00900049EEF0D8
:10346B00A3EFF090008474FFF0A37400F0A3743109
:10347B00F0A3EEF0A3EFF07B017A00793F1217B2C5
:10348B00900049E07002A3E0701590008404F0A353
:10349B007400F0A3743FF07BFF7A0179FB801490EA
:1034AB0000847401F0A37400F0A3743FF07BFF7AE7
:1034BB0002791F1217B87BFF7A0279411217B87B7A
:1034CB00017A00793FE4FD124C237B017A00793FAE
:1034DB00123A16900049EEF0A3EFF0FB7D087C004A
:1034EB007FA81256187D087C007FA81257C37E0058
:1034FB00900049EEF0A3EFF090008474FFF0A374FA
:10350B0000F0A37431F0A3EEF0A3EFF07B017A008F
:10351B00793F1217B2900049E07002A3E07015904A
:10352B00008404F0A37400F0A3743FF07BFF7A01D6
:10353B0079FB80149000847401F0A37400F0A374E1
:0B354B003FF07BFF7A02791F1217B8D7
:013556002252
:103557007D0A7C007FA81257C37E00900049EEF0D9
:10356700A3EFF090008474FFF0A37400F0A374310C
:10357700F0A3EEF0A3EFF07B017A00793F1217B2C8
:10358700900049E07002A3E0701590008404F0A356
:103597007400F0A3743FF07BFF7A02796680149081
:1035A70000847401F0A37400F0A3743FF07BFF7AEA
:1035B70002798C1217B87BFF7A0279B01217B87BA1
:1035C700017A00793FE4FD124C237B017A00793FB1
:1035D700123A16900049EEF0A3EFF0FB7D0A7C004B
:1035E7007FA81256187D0A7C007FA81257C37E0059
:1035F700900049EEF0A3EFF090008474FFF0A374FD
:1036070000F0A37431F0A3EEF0A3EFF07B017A0092
:10361700793F1217B2900049E07002A3E07015904D
:10362700008404F0A37400F0A3743FF07BFF7A02D8
:10363700796680149000847401F0A37400F0A37479
:0B3647003FF07BFF7A02798C1217B86D
:013652002255
:103653007D0C7C007FA81257C37E00900049EEF0DA
:10366300A3EFF090008474FFF0A37400F0A374310F
:10367300F0A3EEF0A3EFF07B017A00793F1217B2CB
:10368300900049E07002A3E0701590008404F0A359
:103693007400F0A3743FF07BFF7A0279D780149013
:1036A30000847401F0A37400F0A3743FF07BFF7AED
:1036B3000379081217B87BFF7A0379381217B87B9E
:1036C300017A00793FE4FD124C237B017A00793FB4
:1036D300123A16900049EEF0A3EFF0FB7D0C7C004C
:1036E3007FA81256187D0C7C007FA81257C37E005A
:1036F300900049EEF0A3EFF090008474FFF0A37400
:1037030000F0A37431F0A3EEF0A3EFF07B017A0095
:10371300793F1217B2900049E07002A3E070159050
:10372300008404F0A37400F0A3743FF07BFF7A03DA
:10373300796B80149000847401F0A37400F0A37477
:0B3743003FF07BFF7A0379081217B8F3
:01374E002258
:10374F007D0E7C007FA81257C37E00900049EEF0DB
:10375F00A3EFF090008474FFF0A37400F0A3743112
:10376F00F0A3EEF0A3EFF07B017A00793F1217B2CE
:10377F00900049E07002A3E0701590008404F0A35C
:10378F007400F0A3743FF07BFF7A03799D8014904F
:10379F0000847401F0A37400F0A3743FF07BFF7AF0
:1037AF000379C61217B87BFF7A0379E81217B87B33
:1037BF00017A00793FE4FD124C237B017A00793FB7
:1037CF00123A16900049EEF0A3EFF0FB7D0E7C004D
:1037DF007FA81256187D0E7C007FA81257C37E005B
:1037EF00900049EEF0A3EFF090008474FFF0A37403
:1037FF0000F0A37431F0A3EEF0A3EFF07B017A0099
:10380F00793F1217B2900049E07002A3E070159053
:10381F00008404F0A37400F0A3743FF07BFF7A03DD
:10382F00799D80149000847401F0A37400F0A37448
:0B383F003FF07BFF7A0379C61217B838
:01384A00225B
:105138007BFF7A0479241217B87B017A00793FE45F
:10514800FD124C237B017A00793F7D107C007FA8FB
:105158001248747B017A00793F7F107E00124FA1BC
:105168009000847401F0A37400F0A3743FF07BFFF7
:075178007A0479460217B822
:10517F007BFF7A04795E1217B87B017A00793FE4DE
:10518F00FD124C237B017A00793F7D407C007FA884
:10519F001248747B017A00793F7F407E00124FA145
:1051AF009000847401F0A37400F0A3743FF07BFFB0
:0751BF007A04797B0217B8A6
:1051C6007BFF7A04798A1217B87B017A00793FE46B
:1051D600FD124C237B017A00793F7D507C007FA82D
:1051E6001248747B017A00793F7F507E00124FA1EE
:1051F6009000847401F0A37400F0A3743FF07BFF69
:075206007A0479B00217B829
:10520D007BFF7A0479C21217B87B017A00793FE4EB
:10521D00FD124C237B017A00793F7D807C007FA8B5
:10522D001248747B017A00793F7F807E00124FA176
:10523D009000847401F0A37400F0A3743FF07BFF21
:07524D007A0479EF0217B8A3
:105254007BFF7A0579041217B87B017A00793FE461
:10526400FD124C237B017A00793F7DB07C007FA83E
:105274001248747B017A00793F7FB07E00124FA1FF
:105284009000847401F0A37400F0A3743FF07BFFDA
:075294007A05792C0217B81E
:10529B007BFF7A05793C1217B87B017A00793FE4E2
:1052AB00FD124C237B017A00793F7DF17C007FA8B6
:1052BB001248747B017A00793F7FF17E00124FA177
:1052CB009000847401F0A37400F0A3743FF07BFF93
:0752DB007A05792C0217B8D7
:1052E2007BFF7A0579641217B87B017A00793FE473
:1052F200FD124C237B017A00793F7D327C017FA82D
:105302001248747B017A00793F7F327E01124FA1ED
:105312009000847401F0A37400F0A3743FF07BFF4B
:075322007A05798C0217B82F
:105329007BFF7A05799C1217B87B017A00793FE4F3
:10533900FD124C237B017A00793F7D737C017FA8A4
:105349001248747B017A00793F7F737E01124FA165
:105359009000847401F0A37400F0A3743FF07BFF04
:075369007A0579C40217B8B0
:105370007BFF7A0579D41217B87B017A00793FE474
:10538000FD124C237B017A00793F7DB47C017FA81C
:105390001248747B017A00793F7FB47E01124FA1DD
:1053A0009000847401F0A37400F0A3743FF07BFFBD
:0753B0007A0579FC0217B831
:1053B7007BFF7A06790C1217B87B017A00793FE4F4
:1053C700FD124C237B017A00793F7DF57C017FA894
:1053D7001248747B017A00793F7FF57E01124FA155
:1053E7009000847401F0A37400F0A3743FF07BFF76
:0753F7007A0679340217B8B1
:1053FE007BFF7A0679441217B87B017A00793FE475
:10540E00FD124C237B017A00793F7D367C027FA80A
:10541E001248747B017A00793F7F367E02124FA1CB
:10542E009000847401F0A37400F0A3743FF07BFF2E
:07543E007A06796C0217B831
:104061007BFF7A06797C1217B87BFF7A0679BC123E
:1040710017B87BFF7A0679FC1217B87BFF7A0779AC
:10408100381217B87BFF7A0779901217B87BFF7A3D
:104091000779CA1217B87BFF7A0879031217B87B20
:1040A100FF7A0879411217B87BFF7A0879861217CF
:1040B100B87BFF7A0879B31217B87BFF7A0879DDEC
:1040C1001217B87BFF7A0979101217B87BFF7A09AA
:1040D10079431217B87BFF7A0979821217B87BFFEF
:1040E1007A0979C11217B87BFF7A0A79001217B8D9
:1040F1007BFF7A0A793F1217B87BFF7A0A797E1221
:1041010017B87BFF7A0A79BD1217B87BFF7A0A7953
:0D411100FC1217B87BFF7A0B792D0217B84E
:1024A2007BFF7A0B795F1217B87BFF7A0B798A125E
:1024B20017B8125BBD124C1B12559990000EEBF02F
:1024C200A3EAF0A3E9F0900084E4F0A37400F0A37F
:1024D2007422F07BFF7A0B79981217B8900084E48B
:1024E200F0A37400F0A374A2F07BFF7A0B79B6120A
:1024F20017B81254D2EF70B17BFF7A0B79D412174E
:10250200B87B017A00792B7D01124C2312559990E8
:10251200000EEBF0A3EAF0A3E9F078B57C007D01B0
:102522007BFF7A0B79E31216B91254D2EF70C9020B
:1025320026AB125AC4124C1B12559990000EEBF0A6
:10254200A3EAF0A3E9F012000E90000E1246C99021
:102552000011EBF0A3EAF0A3E9F012000E900011D3
:102562001246C9900014EBF0A3EAF0A3E9F0900040
:1025720011E0FBA3E0FAA3E0F9EA494B601712135A
:1025820005B42F1178177C007D01900011A3A3E000
:102592001216B9803D900011E0FBA3E0FAA3E0F926
:1025A200EA494B602D78177C007D017B017A007926
:1025B200BE1216B9900011E0F9A3E0FAA3E0900070
:1025C20056C9F0A3EAF0A3E9F07B017A0079171269
:1025D2004E6C90000EE0FBA3E0FAA3E0F9EA494B4F
:1025E2007003022534124F3FEFB415004003022658
:1025F200B19025FAF828287302263902263F0226CE
:102602004502264B02265102265702265D02266308
:1026120002266902266F02267502267B02268102A5
:10262200268702268D02269302269902269F0226DB
:10263200A50226AB0226D212411E022534123EE723
:10264200022534123FA4022534122D7F02253412B2
:10265200345B0225341235570225341236530225D3
:102662003412374F02253412513802253412517F69
:102672000225341251C602253412520D022534129B
:10268200525402253412529B0225341252E2022580
:10269200341253290225341253700225341253B7CF
:1026A2000225341253FE0225341240610225349071
:1026B200000EE0F9A3E0FAA3E0900084C9F0A3EAD7
:1026C200F0A3E9F07BFF7A0B79EA1217B8022534FE
:0126D20022E5
:105B9E002D30732D002D31313131312E0025640021
:0B450C0090000EEBF0A3EAF0A3E9F032
:104517009000137401F0A374F4F0125C38E4900077
:1045270012F0C286900011F0C2B2900013E0FEA311
:10453700E0FF20B35B900011E07055900013E0FEA0
:10454700A3E0FFEF1F70011EEF4E700590001104EE
:10455700F030B406900011E060E920B43390001108
:10456700E0702D90000EE0FBA3E0FAA3E0F9E5A0D0
:1045770012134B900012E004F090000FE475F00165
:1045870012137F900013E0FEA3E0FF30B4FD80A27A
:0C459700D2B2D286125C2A900012E0FF23
:0145A30022F5
:0E41D40090003DEBF0A3EAF0A3E9F0A3EDF0BC
:1041E200900046F0D2B2D2B4C286E4900045F0C24A
:1041F200B29000411213DB00004E2030B349900010
:1042020045E07043C2B2D2B4900041E0FCA3E0FDAD
:10421200A3E0FEA3E0FFEF24FFFFEE34FFFEED3448
:10422200FFFDEC34FFFC9000411213CF900041E0FF
:10423200FCA3E0FDA3E0FEA3E0FFEC4D4E4F70BBFC
:10424200A304F0C28280B4900045E0702920B32616
:1042520090003DE0FBA3E0FAA3E0F9121305F5A0FC
:10426200125B3890003EE475F00112137F9000401B
:10427200E014F0E070DA75A0FFD2B2D2B4D2867F39
:06428200627E00025B02F7
:102C3700900017EDF0900014EBF0A3EAF0A3E9F091
:102C470090003C7402F090001EF0A37473F0E4A3AC
:102C5700F012000E90003CEFF0900014E0F9A3E0B2
:102C6700FAA3E0900040C9F0A3EAF0A3E9F0A3E4D7
:102C7700F0A3EFF07B017A00791E123C9F9000567B
:102C870074FFF0A3745BF0A3749EF07B017A007964
:102C97001E124E6C7F8D124643125A3CEF24309021
:102CA7000018F07F89124643125A3CEF24309000F7
:102CB70019F07F87124643125A3CEF243090001ACE
:102CC700F07F85124643125A3CEF243090001BF0E8
:102CD7007F83124643125A3CEF243090001CF0E4E5
:102CE700A3F07B0190005604F0A37400F0A37418BE
:102CF700F07A00791E124E6C90005674FFF0A374A0
:102D07005BF0A374A3F07B017A00791E124E6C90DE
:102D17000017E0A3F0E4A3F07B0190005604F0A3B2
:102D27007400F0A37418F07A00791E124E6C7B01C0
:102D37007A00791E12000E90003CEFF0E0241EF599
:102D470082E43400F5837403F0C2B230B3FD7B0133
:102D57007A00791E90003CE004FD1241D4125BEA30
:102D67007B017A00791E90003CE004FD90004174DD
:082D770001F0124D8A025BEA33
:105B3800C2B47F287E00125B02D2B47F287E0002A6
:025B48005B02FE
:0648FE0090001DEFF0FB2D
:10490400D2B4C286E4A3F0A31213DB00003A988B5E
:10491400A0C2B230B34390001EE0703DA3E0FCA3FC
:10492400E0FDA3E0FEA3E0FFEF24FFFFEE34FFFE73
:10493400ED34FFFDEC34FFFC90001F1213CF900008
:104944001FE0FCA3E0FDA3E0FEA3E0FFEC4D4E4F0F
:1049540070C190001E04F080BA90001EE0700C201C
:10496400B30990001DE0F5A0125B38D2B2D2B4D2E4
:104974008675A0FF7F627E00125B027F627E00026A
:024984005B02D4
:0A5BD700D2B4D2B2D28675A0FF222C
:10585D009000107402F0A37469F07B017A00791244
:10586D00123D647F8B124643900018EFF0A3740332
:0C587D00F07B017A0079107D0A0241D412
:10323F00E4900020F09000107402F0A37444F0901A
:10324F00008474FFF0A3745BF0A374ABF09001558E
:10325F00E0FFA3E0900087CFF0A3EFF07B017A00AF
:10326F00791B1217B290001F7402F0900020E02417
:10327F001BF582E43400F583E0FF601790001FE038
:10328F002410F582E43400F583EFF0900020E00481
:10329F00F0801890001FE02410F582E43400F583CD
:1032AF00743BF090001FE004F0800890001FE004D2
:1032BF00F080B890008474FFF0A3745BF0A374AB3C
:1032CF00F0900151E0FFA3E0900087CFF0A3EFF063
:1032DF007B017A00791B1217B2E4900020F0900066
:1032EF0020E0241BF582E43400F583E0FF601790A3
:1032FF00001FE02410F582E43400F583EFF0900016
:10330F0020E004F0801890001FE02410F582E434D0
:10331F0000F583743BF090001FE004F080089000EC
:10332F001FE004F080B890001FE0FD2410F582E448
:10333F003400F5837403F07B017A0079100241D4D5
:104FF9004461746F73204D462072657370756573D3
:1050090074613A20004461746F73204D4620456EE7
:10501900766961646F733A20002F2A2D2D2D2D2D6D
:105029002D2D2D2D2D2D2D2D2D2D2D2D2D2D2D2DA7
:105039002D2D2D2D2D2D2D2D2D2D2D2D2D2D2D2D97
:075049002D2D2A2F0D0A0096
:0659FD00AE07EEC313FE2D
:105A0300E4FFEFD3940774809480500D00000000EE
:095A13000000000000000F80E912
:015A1C002267
:105A9100E4FFEFD3940474809480500D0000000063
:095AA1000000000000000F80E984
:015AAA0022D9
:0250F000AE0709
:1050F200C2AFC290125A030000AD06EE5401FE7018
:1051020004C2908002D290125A037C01ECD394071D
:10511200748094805015EDC313FD5401FE7004C2D7
:10512200908002D290125A030C80E1D290125A035C
:05513200125A03D2AF88
:015137002255
:02544500AB07B3
:10544700900146E06401703CEB54F0C4540FFFD365
:10545700940974809480400674372FFF8004743059
:105467002FFF1250F0EB540FFFD3940974809480F0
:10547700400674372FFF800474302FFF1250F07FDF
:04548700201250F0AF
:01548B0022FE
:0E4D8A0090003DEBF0A3EAF0A3E9F0A3EDF0FA
:104D9800900146E06401705C900041E0FF3395E0CB
:104DA800FEEF4E7BFF60067A4F79F980047A5079DE
:104DB8000E125695E4900042F0900040E0FF9000FB
:104DC80042E0C39F502490003DE0FBA3E0FAA3E03B
:104DD800F9121305FF12544590003EE475F00112D4
:104DE800137F900042E004F080CF7F0D1250F07FD7
:044DF8000A1250F05B
:014DFC002294
:0B569500900043EBF0A3EAF0A3E9F063
:1056A000E4A3F0900146E064017027900046F0907A
:1056B0000043E0FBA3E0FAA3E0F9A3E0F5827583E1
:1056C0000012131EFF600B1250F0900046E004F031
:0256D00080DD7B
:0156D20022B5
:095BEA007BFF7A507922025695E6
:104986007EFF125A91125A03208005747FFF80041D
:10499600EE4480FF1259FDEE208005547FFF800310
:1049A6004480FF1259FDEE208005547FFF800344AA
:1049B60080FF1259FDEE208005547FFF800344805E
:1049C600FF1259FDEE208005547FFF80034480FFCF
:1049D6001259FDEE208005547FFF80034480FF12AC
:1049E60059FDEE208005547FFF80034480FF125955
:1049F600FDEE208005547FFF80034480FFAE071242
:074A06005A033080FDAF06EA
:014A0D002286
:055C2F00D290D280229A
:0E432400010B00010C00010900010A00C10B91
:03002300024A0E80
:104A0E00C0E0C083C082C0D075D000C000C006C058
:014A1E000790
:104A1F00309845C298859908C3E509950AFFE49433
:104A2F0000FEEF54804E7018E509547F2422F8A63B
:104A3F0008050974222509F87600900144E004F076
:104A4F00E508B424089001577402F0800BE508B410
:104A5F003C069001577401F030991AC299E50B6525
:104A6F000C6010E50C540124A2F8E6F599050CC270
:054A7F000B8002D20BC8
:0F4A8400D007D006D000D0D0D082D083D0E0327F
:10588900D310AF01C3C0D01258DBE4F50BF50CF50A
:1058990009F50AC29FD29EC29DD29CC298C299D2D2
:0A58A9000BD2ACD2BCD0D092AF22DB
:1058DB00D310AF01C3C0D0C299E4F50BF50CC28E47
:1058EB00C2AB43878053890F438920758DF4758B29
:0858FB00F4D28ED0D092AF224E
:10578800D310AF01C3C0D09000B4EFF0125B5CC37C
:10579800EF94027480948040047FFF80199000B4D5
:1057A800E0FFE50B540124A2F8A607050B300B0413
:0B57B800C20BD2997F00D0D092AF222C
:10595100D310AF01C3C0D0125B4AEF70067EFF7F48
:10596100FF800EAF0A050AEF547F2422F8E6FF7E7E
:0659710000D0D092AF222D
:105B4A00D310AF01C3C0D0C3E509950AFFD0D092E4
:025B5A00AF2278
:105B5C00D310AF01C3C0D0C3E50B950CFFD0D092CE
:025B6C00AF2266
:0E5BBD00E4F50BF50CF509F50AC298C2992221
:10592A004C4956450A006F70656E20626172727248
:10593A006572610A00477261626163696F6E205322
:07594A00657269653A200057
:0E1BD00090000EEBF0A3EAF0A3E9F0A3EDF015
:101BDE006419704490000EE0FBA3E0FAA3E0F91242
:101BEE0013056402703290000212131E64487028AE
:101BFE00900011E07E0024FFF582EE34FFF5831293
:101C0E00131E6403701290000EA3A3E02403F9E4E4
:101C1E003AFA1247590257FC90000EE0FBA3E0FA85
:101C2E00A3E0F912130564B67033900143E0C39438
:101C3E00147480948040107FB61226D3C282E49032
:101C4E000143F0C297C283900146E06003021EE694
:101C5E00900145E064016003021EE6803E90000E96
:101C6E00E0FBA3E0FAA3E0F912130564AA7040901A
:101C7E000143E0C39414748094805003021EE6E482
:101C8E00F0C297D282C283900146E06003021EE644
:101C9E00900145E064016003021EE690014604F0E7
:101CAE007BFF7A59792A125695E4900146F02290DC
:101CBE000011E0FF6413703290000EE0FBA3E0FA17
:101CCE00A3E0F91213056402702090000112131E96
:101CDE00B44F177E0074FF2FF582EE34FFF583129A
:101CEE00131E640370047FFE8071900011E0FF6488
:101CFE0013704C90000EE0FBA3E0FAA3E0F9121370
:101D0E00056402703A90000112131E64567030FE84
:101D1E0074FF2FF582EE34FFF58312131E640370E9
:101D2E001E7BFF7A597930125695E4900011F0D24D
:101D3E0097900143740AF07FA11248FE021EDA90BA
:101D4E000011E06401701790000EE0FBA3E0FAA30F
:101D5E00E0F912130564A170057FE70226D3900007
:101D6E0011E0FF64066003021E6C90000EE0FBA300
:101D7E00E0FAA3E0F912130564026003021E6C90F0
:101D8E00000112131E64576003021E6CFE74FF2FB7
:101D9E00F582EE34FFF58312131E64036003021EF8
:101DAE006C900145E06401705F90000EA3A390005B
:101DBE000212131EFD7B017A007912125050900010
:101DCE00157420F090000EE0FBA3E0FAA3E0F9906A
:101DDE00000312131EFD90000EA3A3900004121315
:101DEE001E900021F07B017A0079161221D27B0120
:101DFE007A0079127FB0124B17124DFDEF60FA7B0D
:101E0E00017A007912023BC990000EE0FBA3E0FAC2
:101E1E00A3E0F990000212131EFD7B017A007912E5
:101E2E001250509000157420F090000EE0FBA3E0CD
:101E3E00FAA3E0F990000312131EFD90000EA3A367
:101E4E0090000412131E900021F07B017A00791687
:101E5E001221D27B017A0079127FB0024B179000CB
:101E6E0011E0FF640C705390000EE0FBA3E0FAA3A8
:101E7E00E0F912130564027041FE74FF2FF582EE35
:101E8E0034FFF58312131E6403702F90000EA3A36C
:101E9E00E02401F9E43AFA125B8E7BFF7A59793F1E
:101EAE0012569590000EE0FBA3E0FAA3E0F9A3E032
:101EBE00FD9000417401F0024D8A90000EE0FBA3EC
:101ECE00E0FAA3E0F912130564AB700C90014274B2
:081EDE0037F090014C7404F090
:011EE60022D9
:102FEB000D0A5665686963756C6F20656E20656C9C
:102FFB00206C6F6F700D0A005665686963756C6F96
:10300B00206E6F20656E20656C206C6F6F700D0AE3
:10301B000D0A007472616D612064656C206C6563D0
:10302B00746F7220646174616C6F67696320636F86
:10303B0064205152000D0A007472616D6120646549
:10304B006C206C6563746F7220646174616C6F6764
:10305B00696320636F6420626172726173007472C2
:10306B00616D612064656C206C6563746F722064A4
:10307B006174616C6F676963206E6F206573746137
:10308B0020636F6D706C6574610D0A00636F642053
:10309B0062617272617300636F6420515220720A15
:1030AB0000436172726F007469706F2064652076E3
:1030BB0065686963756C6F3A20006C6F6E67697435
:1030CB007564206465206C61207472616D613A20B7
:1030DB000D0A0066696E206465206C6563747572F9
:1030EB0061206465207472616D610D0A0052454563
:1030FB004E564941205452414D412050544F20507F
:0B310B004152414C454C4F0D0A200082
:0443320041015800ED
:10597700E4FF121305FDC3943074809480400AD36A
:10598700ED943974809480400A740129F9E43AFA55
:035997000F80DF9F
:01599A0022EA
:105AEF00E4FF1213056D600A740129F9E43AFA0F05
:025AFF0080F035
:015B01002281
:101EE70090014CE014606514700302201414700311
:101EF7000220491470030221781470030221A624DA
:101F07000560030221A0900142E064016003022101
:101F1700D1C297124DFDEF60227BFF7A2F79EB122A
:101F270056957FFE1226D3900158E0700B7FA012C2
:101F370048FE9001587401F002216B7BFF7A3079DB
:101F470003125695E4900158F002200B900142E0ED
:101F570064016009900157E070030221D190015795
:101F6700E0640170227BFF7A30791E1256957B0060
:101F77007A0079221256957BFF7A3079401256956E
:101F870090014C7403F022900157E064027060786E
:101F9700597C017D01FB7A0079221216B97B007A00
:101FA70000792212000E90000EEFF0E0FF2458F5A2
:101FB70082E43401F583E4F0D3EF940A74809480CB
:101FC700400B125BBD7FFE1226D302216B7BFF7A8B
:101FD7003079431256957B017A0179591256957BD0
:101FE700FF7A30794012569590014C7402F0221214
:101FF7005BBDE4900158F0900157F07BFF7A307990
:10200700691256959001427403F00221A07BFF7A72
:10201700307997125695E4900157F0900010744369
:10202700F07B017A017959FD122C37900145E06068
:102037000E7B017A017959900010E0FD12384B02AE
:1020470021C5C2AC7BFF7A3079A2125695E4900184
:1020570057F0FB7A00792212597790000EEFF0249F
:1020670022F9E4FA7D3E125AEF90000FEFF090004C
:102077001774FFF0A37430F0A374ACF07A007922E0
:10208700123E28900011EBF0A3EAF0A3E9F04A9082
:10209700001060057443F08003744DF07BFF7A30C5
:1020A70079B2125695900010E0FF1254457BFF7AE3
:1020B7003079401256957BFF7A3079C51256959044
:1020C700000EE0FF1254457BFF7A30794012569597
:1020D70090000FE0FF1254457BFF7A30794012568B
:1020E70095E4900159F090000EE0FF640C706B745A
:1020F700222FF9E4FB900017F0A3CBF0A3E9F090AF
:10210700000FE0FF90001AE4F0A3EFF07B017A01E3
:102117007959124ED790000FE02459F582E4340123
:10212700F583E4F07B017A0179591256957BFF7AA2
:102137003079401256957B017A017959900010E069
:10214700FD122C37900145E0600E7B017A01795929
:10215700900010E0FD12384B8064D2AC125BBD7F5B
:10216700FE1226D390014274C8F090014C7401F01E
:1021770022900142E064017051D2AC7BFF7A307942
:10218700DE1256957FFF1226D39001427403F01298
:102197005BBDE4900158F08001E490014CF022907F
:1021A7000142E0640170237BFF7A3079F81256957B
:1021B7007B017A017959900010E0FD122C379001CC
:0A21C700427437F090014C7404F0EC
:0121D10022EB
:100C0F00020EB7E86480F8E933E83360110460F04E
:100C1F00ED33EC337009E8FCE9FDEAFEEBFF22044B
:100C2F0060DED3EB9FEA9EE99DE8C2E78CF0C2F746
:100C3F0095F0400CE8CCF8E9CDF9EACEFAEBCFFB12
:100C4F00120E8285D0F05804700320D5B3E80470DB
:100C5F00075002B2D5020EC192D5EC0460F7E4CC76
:100C6F00C0E0C398F8603B94186008400DD0E0FBDB
:100C7F00020E99E4FBFAC9FC8028E830E406E4C9C7
:100C8F00FBE4CAFCE830E305E4C9CACBFCE854072F
:100C9F006010F8C3E913F9EA13FAEB13FBEC13FC3A
:100CAF00D8F130F52FC3E49CFCEF9BFFEE9AFEEDDD
:100CBF0099FDD0E0FBEF4E4D4C701222DB03020E7C
:100CCF00BEEC2CFCEF33FFEE33FEED33FDED30E7E2
:100CDF00EB020E99EF2BFFEE3AFEED39FDD0E0FB64
:100CEF0050130BBB0003020EC1ED13FDEE13FEEF0D
:080CFF0013FFEC13FC020E9937
:100D0700EC4D6011E8497017ED33EC3304600DE4E6
:100D1700FCFFFEFD22E933E8330470F8020EB71238
:100D27000E8258046009E4CC248150062850090239
:100D37000EC1284003020EBEC0E0EB4A7044B980E2
:100D470006D0E0FB020EADEF4E701CBD8008EBFF36
:100D5700EAFEE9FD80EBE98DF0A4FEE5F0020DF077
:100D6700E9CDF9EAFEEBFFEF89F0A4FCE5F0CE89C7
:100D7700F0A42EFFE435F0CD89F0A42DFEE435F084
:100D87008067EF4E7005BD80D780C3EF8BF0A4ACB2
:100D9700F0EE8BF0A42CFCE435F0F8EF8AF0A42CED
:100DA700E5F038FCE433CB8DF0A42CFCE5F03BF800
:100DB700EE8AF0A42CFCE5F038F8E433CF89F0A4F0
:100DC7002CFCE5F038CF3400CE89F0A42FFFE5F0F6
:100DD7003EFEE433C98DF0A42EFEE5F039CD8AF04E
:100DE700A42FFFE5F03EFEE43DFD33D0E0FB5007C6
:100DF7000BBB000F020EC1EC2CFCEF33FFEE33FEF2
:060E0700ED33FD020E991F
:100E0D0075F020800E75F010800575F0087D007E60
:100E1D00007F003392D530D503121395EC3340107B
:100E2D00EF33FFEE33FEED33FDEC33FCD5F0ED2269
:0E0E3D00E5F0247EA2D513CC92E7CDCEFF22A5
:100E4B00EDD2E7CD33EC3392D524814006E4FFFE9F
:100E5B00FDFC22FCE4CFCECDCC24E0501174FF80FE
:100E6B00EDC3CC13CCCD13CDCE13CECF13CF04709B
:070E7B00F030D5DE021395F3
:10174D00E50D2484F582E43400F583E0050D229047
:10175D000081300703900084E475F00112140C022F
:10176D0013052000E97F2ED2008018EF540F24902E
:10177D00D43440D4FF30040BEF24BFB41A0050030F
:10178D002461FFE50E6002150E0511E511700205CD
:10179D001030070E900081E475F00112140CEF0269
:1017AD00134B0256577403D2078003E4C207F50D9D
:1017BD00900081121423E4F50EF510F511E50E607D
:1017CD00077F2012179080F5750FFFC201C200C26E
:1017DD0002C203C205C206C20812175CFF700D30AB
:1017ED0007057F001217A1AF11AE1022B4255FC2FD
:1017FD00D5C20412175CFF24D0B40A00501A75F03C
:10180D000A780E30D50508B6FF0106C6A426F620C7
:10181D00D5047002D20380D924CFB41A00EF50043E
:10182D00C2E5D204021A93D20180C6D20080C0D282
:10183D000280BCD2D580BAD20580B47F2012179019
:10184D002002077401B50E0040F112174DFF12175B
:10185D00900217CAD208D206809512174DFB1217A7
:10186D004DFA12174DF94A4B700679917A1B7BFF91
:10187D0020022EE50E602A7E008E827583001213E3
:10188D001E60060EEE650F70F0C2D5EBC0E0EAC02B
:10189D00E0E9C0E0EE121AF4D0E0F9D0E0FAD0E0C1
:1018AD00FB121305FF60AAEBC0E0EAC0E0E9C0E05F
:1018BD00121790D0E02401F9D0E03400FAD0E0FB0B
:1018CD00E50F0460DCD50FD98087D20280A2121AF1
:1018DD00D660F7E50F700104120F70A90F600DE5CA
:1018ED000F600914F50F121B7EEF60F3EA30E7026B
:1018FD00F404C3995079EAF4250F0430E701E404A8
:10190D00F50F800D121AD660C1EA050F250F120FC3
:10191D0070EA9000B0F030E701E4250F04D50F0414
:10192D0020050114121AF4E4C0E0121B7E9000B0E1
:10193D00E0601320E70714F0121778802204F0D02E
:10194D00E014C0E07F00121778E50F600712176FE3
:10195D00150F800B30050312176FD0E00217CAD098
:10196D00E00480C4121AD6609EE50F04120F709029
:10197D0000B0EAF0E50F2005026001042404121AFC
:01198D00F465
:10198E0074FF04C0E0121B7E121778E50F200502CB
:10199E00600312176FD0E0B50FE87F4512178290E3
:1019AE0000B0E07F2B30E7047F2DF404C0E0121767
:1019BE0090D0E075F00A84C0F0121779D0E01217BB
:1019CE00790217CA791080027908C206C208800807
:1019DE00D2D5790A8004790AC2D5E50F047002F5D2
:1019EE000FE4FAFDFEFF12174DFC7B0820011312C7
:1019FE00174DFD7B1030000A12174DFE12174DFFCA
:101A0E007B20EC3382D592D55013C3E43000069F71
:101A1E00FFE49EFEE42001039DFDE49CFCE4CBF874
:101A2E00C201EC700CCFCECDCCE824F8F870F38068
:101A3E0017C3EF33FFEE33FEED33FDEC33FCEB3328
:101A4E00FB994002FB0FD8E9EB300105F8D0E0C45A
:101A5E0048B201C0E00AEC4D4E4F78207B0070C2B8
:101A6E00EAB50F0040BCC0E0121AF6D0F0D0E0206C
:101A7E000104C4C0E0C4B201C0F0121779D0F0D591
:101A8E00F0EB0217CA12142C18675319D2581838D3
:101A9E004C18344219D64F19DE4419DE49184D43FD
:101AAE0019E45519114619714518DB471BB1501829
:101ABE003C2D18402E18632B1844231861201B9AB6
:101ACE002A17FC480000185BE50FB4FF03750F06DC
:101ADE0012174DFC12174DFD12174DFE12174DFF2A
:101AEE009000A9020FAD790AA2D520031430050982
:101AFE00B910020404B9080104A2D520060250014F
:101B0E00042002689202B50E005034C0E07F2030EF
:101B1E0003197F30A20272067205500F121B4DC2BE
:101B2E0002C206C205C2087F30800F300503E9C02D
:101B3E00E0121790300503D0E0F9D0E0B50ECC30AE
:101B4E0005177F30B9100C1217907F583004077F9D
:101B5E00788003B908031217903002057F2D021703
:101B6E00907F202008F87F2B2006F322920280CF50
:101B7E007F00B40700500B24A9F582E43400F583EE
:101B8E00E0FF22286E756C6C2900D20112174D30C1
:101B9E0001F8C201780E30D50108F60217FC2D505F
:101BAE0043495812174D2403B405004001E4901B1D
:101BBE00AC93121781743A121781D203750E040278
:021BCE0019D22A
:102AD1009000291213CFE4FFFE7D807C3F900029F6
:102AE100E0F8A3E0F9A3E0FAA3E0FB120EE670061A
:102AF100900029022C2B900029E0FCA3E0FDA3E02B
:102B0100FEA3E0FF120ECCFBA3E0FCA3E0FDA3E0DB
:102B1100FEA3E0FF120ECCFFB40108E4FFFE7D80AE
:102B21007C3F22EF64046029EB64046024EBB40170
:102B310030E4FFFEFDFC90002DE0F8A3E0F9A3E0F6
:102B4100FAA3E0FB120EE660084006E4FFFEFDFC7E
:102B51002290002D1213DBFFFFFFFF90002D022CAE
:102B61002BE4900031F0A3F0FFFEFDFC900029E082
:102B7100F8A3E0F9A3E0FAA3E0FB120EE6505F90A0
:102B8100002DE0FCA3E0FDA3E0FEA3E0FF120E4B4D
:102B9100900031EEF0A3EFF0FDCCEECCEC120E1272
:102BA100C8ECC8C9EDC9CAEECACBEFCB90002DE085
:102BB100FCA3E0FDA3E0FEA3E0FF120C12E4FBFA8C
:102BC100F9F8120EE6708A900029E0FCA3E0FDA35B
:102BD100E0FEA3E0FF120F5F9000291213CF9000D7
:102BE10029E0FCA3E0FDA3E0FEA3E0FF12314A903F
:102BF100002DE0F8A3E0F9A3E0FAA3E0FB120D0732
:102C01001244AA90002D1213CF900032E030E01749
:102C110090002DE0FCA3E0FDA3E0FEA3E0FF120F76
:102C21005F90002D1213CF90002DE0FCA3E0FDA3D7
:062C3100E0FEA3E0FF221B
:100E8200E9D2E7C933E833F892D5EDD2E7CD33ECB6
:070E920033FC5002B2D5222F
:100E9900EC30E7100FBF000C0EBE00080DBD0004BA
:100EA9000BEB6014A2D5EB13FCED92E7FD2274FF66
:100EB900FCFDFEFF22E480F8A2D574FF13FC7D80BF
:030EC900E480EFD3
:100ECC00ED33EC33601004700FED547F7005740239
:0A0EDC0092E0227404220422E422B2
:100EE60074F8CC6480CCC86480C8F58204604FC3B3
:100EF600EB9FF5F0EA9E42F0E99D42F0E89C45F052
:100F0600603C501DE5825FFFE582D313CB5BCBF4DB
:100F16002B5582FB50280ABA002409B90020088004
:100F26001DE5825BFBE582D313CF5FCFF4C3132F9E
:100F36005582FF50090EBE00050DBD00010CC3EB26
:100F46009FF5F0EA9E42F0E99D42F0E89C45F0608C
:090F560007CC4820E701B3EC22AE
:100F5F00ED33EC33600A047003BD8004ECB2E7FCA0
:010F6F00225F
:100F7000F920E73624F950037907E4F42402FBE56D
:100F800082158270021583DBF6E024FB501BE960BA
:100F900014E4F0E582158270021583E004F0B40ACF
:0D0FA00008E4F0D9EE7401F00A22C2D52257
:100FAD00ED33EC3392D5FA602AB4FF33EDC2E77B13
:100FBD00FF60067A0F79D2E4227A0F79DB20D5040F
:100FCD007A0F79D6224E614E002B494E46002D499F
:100FDD004E4600E47A08F0A3DAFC7B00740722C0C9
:100FED0083C082ECC0E0EDC0E0EEC0E0EFC0E0EA0F
:100FFD0075F010A4CAABF075F04DA42BFBE435F0E1
:10100D00FCEA2410FAEB34C5FBEC34D9FCEDC2E755
:10101D00FF75F056A4F42411C5F0F434C58FF0A477
:10102D002AE5F03BE43CF020E714121182D0E0FFFA
:10103D00D0E0FED0E0FDD0E0FC1210B58014F40439
:10104D00121182D0E0FFD0E0FED0E0FDD0E0FC1226
:10105D000D07D082D083E0FAEDD2E7CD33EC332407
:10106D0082FBE4C3CF33CFCE33CECD33CD33DBF3E1
:10107D007B0775F00A846004F0A31B0AE5F0F0A36A
:10108D008FF0740AA4FFACF08EF0740AA42CFEACA1
:10109D00F050010C8DF0740AA42CFDE435F0F0A392
:0510AD00DBDE740722E8
:1044720033DA929E35B16011377FE5FE39218489A6
:104482003AAEC3FF3C1D955B3D6358473E75FDF058
:104492003F3172183F800000C2D5020EC1020EB732
:1044A200BD80FA50F3020EBEED33EC330460F17BB3
:1044B2003B7AAA79B8783F120D07ED33EC3392D5E7
:1044C200247B5011A2D570DB500BED4480240450A4
:1044D20004A2D580CEEFFBEEFAEDF9ECF8120E4B0A
:1044E200EFF582F404FC120E17120C16C0829044EF
:1044F2007274091211D1ED33CC33D0F092D525F07C
:0A450200A2D57001C313CC13FD22F3
:103116003E9248DA3ECCCCCD3F2AAAAB4000000016
:103126003F8000003F9837F03FB504F33FD744FC9B
:103136003E3172173EB172173F0515913EDE5BD9DF
:10314600D2008002C200EDD2E7F8CD33EC33047032
:103156000BBD800592D5020EC1020EB740FBD314FB
:1031660060F2F5F07C3FEE7A00C39496C8948B40EB
:10317600230AC89469C8941A401A0AC89468C8945D
:103186001F40110AC8945AC89425400805F07A00D1
:10319600CDC2E7CDC0F09000331213CFEA2323C08F
:1031A600E02426F582E43431F5831213BF120C169F
:1031B600ECC0E0EDC0E0EEC0E0EFC0E01213A3907B
:1031C60000331213B3120C12D0E0FBD0E0FAD0E0B9
:1031D600F9D0E0B2E7F81210B59000331213CF9091
:1031E600311674031211C29000331213B3120D0775
:1031F600D0E0600F2432F582E43431F5831213BF38
:10320600120C169000331213CFD0E0C3947FFDE466
:103216009400FC120E127B187A727931783F120DE7
:10322600079000331213B3120C1630000B7BD97AB9
:093236005B79DE783E120D0722DF
:1010B200020EC1EC5D046005E859047003020EB72C
:1010C200120E82580460F6EC4860F2EC7004FDFEE9
:1010D200FF22C860DB2481C85009C3986002500611
:1010E200020EBE9850CAF582E9294B4A7005AB82BE
:1010F200020EAD75F0007C1A7880C3EF9BEE9AED7C
:1011020099400DC3EF9BFFEE9AFEED99FDE842F088
:10111200DC23ACF0D0E0FFD0E0FED0E0FDAB8220DB
:10112200E7101BEB60BAEC2CFCEF33FFEE33FEED65
:1011320033FD020E99E803F830E705C0F075F000C0
:10114200EF2FFFEE33FEED33FD40B830E7C280AA49
:101152003F8000004120000042C80000447A0000A5
:10116200461C400047C35000497424004B18968027
:101172004CBEBC205A0E1BCA6753C21C749DC5AE1E
:10118200FB60065407601C23231211B0EB54386035
:101192000912119C1211AB120D07ECF8EDF9EEFADF
:1011A200EFCB22EB1211AB80F1543803241C9011C7
:1011B20052FE93FC0EEE93FD0EEE930ECE93FF22A3
:1011C200C0E0EFFBEEFAEDF9ECF8120D07D0E0F516
:1011D200F0EFFBEEFAEDF9ECF81213A3A3A3A3A32D
:1011E200E8C0E0E9C0E0EAC0E0EBC0E0C0F0120D08
:1011F200071213BFA3A3A3A3120C16D0F0D0E0FBD7
:0D120200D0E0FAD0E0F9D0E0F8D5F0D42229
:030000000247E8CC
:0C47E800787FE4F6D8FD7581AB02482F05
:10120F00E709F608DFFA8046E709F208DFFA803EC1
:10121F0088828C83E709F0A3DFFA8032E309F608AE
:10122F00DFFA8078E309F208DFFA807088828C8316
:10123F00E309F0A3DFFA806489828A83E0A3F608CA
:10124F00DFFA805889828A83E0A3F208DFFA804CA4
:10125F0080D280FA80C680D4806980F2803380107B
:10126F0080A680EA809A80A880DA80E280CA8033E4
:10127F0089828A83ECFAE493A3C8C582C8CCC5835C
:10128F00CCF0A3C8C582C8CCC583CCDFE9DEE7802C
:10129F000D89828A83E493A3F608DFF9ECFAA9F0AB
:1012AF00EDFB2289828A83ECFAE0A3C8C582C8CC01
:1012BF00C583CCF0A3C8C582C8CCC583CCDFEADE1A
:1012CF00E880DB89828A83E493A3F208DFF980CC7C
:1012DF0088F0EF60010E4E60C388F0ED2402B40475
:1012EF000050B9F582EB2402B4040050AF2323451C
:0612FF00822390125F73D0
:10130500BB010689828A83E0225002E722BBFE02E6
:09131500E32289828A83E4932219
:10131E00BB010CE58229F582E5833AF583E0225084
:10132E0006E92582F8E622BBFE06E92582F8E222CE
:0D133E00E58229F582E5833AF583E49322E8
:10134B00BB010689828A83F0225002F722BBFE0181
:02135B00F3227B
:10135D00F8BB010DE58229F582E5833AF583E8F0C6
:10136D00225006E92582C8F622BBFE05E92582C872
:02137D00F2225A
:10137F00C5F0F8A3E028F0C5F0F8E58215827002F9
:06138F001583E038F02296
:0E139500C3E49FFFE49EFEE49DFDE49CFC2269
:1013A300E493FC740193FD740293FE740393FF2290
:0C13B300E0F8A3E0F9A3E0FAA3E0FB22BD
:1013BF00E493F8740193F9740293FA740393FB2284
:0C13CF00ECF0A3EDF0A3EEF0A3EFF02291
:1013DB00A8828583F0D083D0821213F21213F212FB
:1013EB0013F21213F2E473E493A3C583C5F0C58320
:1013FB00C8C582C8F0A3C583C5F0C583C8C582C85C
:01140B0022BE
:10140C00F8E0FBA3A3E0F925F0F0E5821582700269
:07141C001583E0FA38F0220D
:09142300EBF0A3EAF0A3E9F022CA
:10142C00D083D082F8E4937012740193700DA3A34F
:10143C0093F8740193F5828883E473740293686063
:06144C00EFA3A3A380DF63
:104E6C00900053EBF0A3EAF0A3E9F0900059EBF0BB
:104E7C00A3EAF0A3E9F0900053E0FBA3E475F00182
:104E8C001216E8A9F0FA12130570EB90005474FF97
:104E9C00F5F012137F900056E0FBA3E475F00112BD
:104EAC0016E8A9F0FA121305FF900053E0FBA3E4F7
:104EBC0075F0011216E8A9F0FAEF12134B70D690A8
:0B4ECC000059E0FBA3E0FAA3E0F9228C
:103C9F0090003DEBF0A3EAF0A3E9F0E4900045F0CB
:103CAF00A3F0D3900044E09400900043E06480942C
:103CBF00805003023D5890003DE0FBA3E0FAA3E0E3
:103CCF00F9900045E0FEA3E0F5828E8312131E608B
:103CDF0010900046E004F070DD900045E004F080A5
:103CEF00D5900040E0FBA3E0FAA3E0F912130560C2
:103CFF003E900040A3E475F0011216E8A9F0FA1205
:103D0F001305FF90003DE0FBA3E0FAA3E0F990005C
:103D1F0045E475F0011216E885F082F583EF121372
:103D2F005D90004374FFF5F012137F45F070B29071
:103D3F00003DE0FBA3E0FAA3E0F9900045E0FEA30D
:103D4F00E0F5828E83E412135D90003DE0FBA3E06B
:053D5F00FAA3E0F922C7
:10145200E3F5F009E208B5F06D606B80F3E3F5F0B7
:1014620009E608B5F060605E80F387F009E608B52A
:10147200F054605280F487F009E208B5F048604603
:1014820080F488828C8387F009E0A3B5F038603657
:1014920080F488828C8387F009E493A3B5F02760F7
:1014A2002580F388828C83E3F5F009E0A3B5F0167A
:1014B200601480F388828C83E3F5F009E493A3B58A
:1014C200F004600280F202157D808580E7808E80C4
:1014D200D2803C8015806C807E809B80B5808B8022
:1014E200A1804F8070803A02158989828A83ECFA42
:1014F200E493F5F0A3C8C582C8CCC583CCE493A31A
:10150200C8C582C8CCC583CCB5F070606E80E18955
:10151200828A83E493F5F0A3E208B5F05E605C8012
:10152200F289828A83E0F5F0A3E608B5F04D604BBC
:1015320080F389828A83E0F5F0A3E208B5F03C608B
:101542003A80F389828A83E493F5F0A3E608B5F042
:101552002A602880F2805389828A83ECFAE493F528
:10156200F0A3C8C582C8CCC583CCE0A3C8C582C8D5
:10157200CCC583CCB5F004600280E27FFFB5F002F7
:101582000F2240027F012289828A83ECFAE0F5F081
:10159200A3C8C582C8CCC583CCE0A3C8C582C8CCC9
:1015A200C583CCB5F0D560D380E389828A83ECFA17
:1015B200E0F5F0A3C8C582C8CCC583CCE493A3C828
:1015C200C582C8CCC583CCB5F0B160AF80E288F0EB
:1015D200ED2402B4040050A3F582EB2402B404000B
:0B15E200509923234582239014CB7303
:1015ED00E709F60870FA8046E709F20870FA803EBE
:1015FD0088828C83E709F0A370FA807EE309F608F0
:10160D0070FA8076E309F20870FA806E88828C8316
:10161D00E309F0A370FA806289828A83E0A3F60859
:10162D0070FA805689828A83E0A3F20870FA804AA4
:10163D0080D280FA80C680D4806580F2803180109F
:10164D0080A680EA809A80A880DA80E280CA803104
:10165D0089828A83ECFAE493A3C8C582C8CCC5837A
:10166D00CCF0A3C8C582C8CCC583CC70E9800D89E8
:10167D00828A83E493A3F60870F9ECFAA9F0EDFBE6
:10168D002289828A83ECFAE0A3C8C582C8CCC583BF
:10169D00CCF0A3C8C582C8CCC583CC70EA80DD89E7
:1016AD00828A83E493A3F20870F980CE88F0ED244A
:1016BD0002B4040050C4F582EB2402B4040050BA05
:0916CD00232345822390163D738E
:104ED700900014EBF0A3EAF0A3E9F0E490001CF0D3
:104EE700A3F090001A74FFF5F01216E845F0603C45
:104EF700900017E0FBA3E0FAA3E0F9121305FF9077
:104F07000014E0FBA3E0FAA3E0F990001CE475F0BD
:104F1700011216E885F082F583EF12135DEF60C288
:104F2700900018E475F00112137F80B6900014E02A
:084F3700FBA3E0FAA3E0F9225C
:10000E00E4FFFE121305600C0FEF70010E09E9708C
:05001E00F20A80EF2250
:103E2800900014EBF0A3EAF0A3E9F0A3E0FBA3E011
:103E3800FAA3E0F91213057003023ED4900014E0CF
:103E4800FBA3E0FAA3E0F91213057003023EE09029
:103E58000017E0F9A3E0FAA3E0A3C9F0A3EAF0A3EE
:103E6800E9F0900014A3E0FAA3E0F990001DEBF04C
:103E7800A3EAF0A3E9F090001AE0FBA3E0FAA3E0BC
:103E8800F9121305FF602690001DE0FBA3E0FAA3DA
:103E9800E0F91213056F701590001B75F0011213ED
:103EA8007F90001EE475F00112137F80C990001AFC
:103EB800E0FBA3E0FAA3E0F91213057002800D906D
:103EC8000015E475F00112137F023E44900014E0DF
:0F3ED800FBA3E0FAA3E0F9227B007A0079002235
:1039320090004AEBF0A3EAF0A3E9F090004AE0FB22
:10394200A3E0FAA3E04A4B7015900166E0F9A3E008
:10395200FAA3E090004AC9F0A3EAF0A3E9F09000CC
:103962004AE0FBA3E0FAA3E04A4B7004FBFAF92217
:1039720090004DE0F9A3E0FAA3E0900053C9F0A350
:10398200EAF0A3E9F090004AE0FBA3E0FAA3E0F931
:10399200124A9390004BEE8FF012137F90004AE090
:1039A200FBA3E0FAA3E0F91213057012F990016685
:1039B200C9F0A3F0A3E9F07B007A0079002290001D
:1039C2004DE0F9A3E0FAA3E0900053C9F0A3EAF0B6
:1039D200A3E9F090004AE0FBA3E0FAA3E0F9124B5E
:1039E2009A900166EBF0A3EAF0A3E9F04A4B601863
:1039F200900166E0FBA3E0FAA3E0F9E412134B9016
:103A0200016775F00112137F90004AE0FBA3E0FA10
:043A1200A3E0F92212
:10334F00900064EBF0A3EAF0A3E9F0900064E0FBD7
