:03651400200A005A
:104846004101450A4101460041015200410147002C
:104856004101500041014E0041015B0049013C000D
:10486600000000000000000041015106410158030C
:06487600410157F2C109E7
:03000B000263830A
:10638300C0E0C083C082900145E014F0A3E004F0B4
:09639300C28DD082D083D0E0322B
:10644B00E58954F04401F589E4F58CF58AD28C2268
:05650700C28DD2A922A3
:03651100C2A922FA
:0B64A8001261EBEFF47002EEF460F5FF
:0164B30022C6
:055F56009000B1EFF026
:105F5B009000B1E0FF1260C4EF3395E04F6024E492
:105F6B009000B2F0A3F0C39000B3E094E89000B2BD
:105F7B00E0940350DBA3E004F070EB9000B2E0047C
:085F8B00F080E39000B1E0FF9B
:015F930022EB
:10645B0012650C1264D01264B4C283D287C2972225
:1050EB00E4FDFC7FA81260FF900159E4F0A3EFF000
:1050FB007D027C007FA81260FF900155E4F0A3EFC6
:10510B00F07D047C007FA81260FF900153E4F0A3B4
:10511B00EFF07D067C007FA81260FF90014CE4F05D
:10512B00A3EFF07D087C007FA81260FF900149EF90
:10513B00F07D0A7C007FA81260FF900148EFF07DA4
:10514B000C7C007FA81260FF90014FEFF07D0E7C6E
:10515B00007FA81260FF90014BEFF07D0B7C007F6E
:0A516B00A81260FF90014AEFF02245
:10478A0012644B126507126199125FD212645BD2EE
:10479A00AF1262BE1263697F611259B01264D720E8
:1047AA009103122A4E1250EB12604C900145740389
:1047BA00F020803F7B017A007900124E1B90000D99
:1047CA00EFF01264C77B017A00790090000DE0FDDA
:1047DA00124C4F7B017A00790090000DE0FD9000A9
:1047EA004C7401F01255FB7B017A01793C125F94FB
:1047FA001264C7121CF020B33D7B017A01791412AE
:10480A004D8490000DEFF0FD7B017A017914900040
:10481A004C7401F01255FB90000DE0FF125D057B10
:10482A00FF7A657914125F947B017A0179149000FA
:0C483A000DE0FD12215B1255190247BB76
:08000300D294126517C2942289
:055E990090004CEFF049
:105E9E00E4A3F0A3F090004CE0FFA2E713F030D79C
:105EAE0004D2958002C29512000390004EE004F0D9
:105EBE00700690004DE004F0C390004EE094089000
:095ECE00004DE06480948040CC9A
:015ED70022A8
:0A4EB000EBF0A3EAF0A3E9F07F8D18
:054EBA00900049EFF03B
:104EBF00D2967F037E001263DF900049E0FF125EFF
:104ECF0099E490004AF0A3F090004AE0FCA3E0FDC3
:104EDF00C39408EC64809480504F30951690017AFB
:104EEF00E04480F0ED9406EC648094805005E0FF80
:104EFF00C313F020952090017AE0547FF0D39000F7
:104F0F004BE0940690004AE0648094805008900132
:104F1F007AE0FFC313F012000390004BE004F0702F
:104F2F00A790004AE004F0809FC29690017AE0FFBC
:014F3F00224F
:1061C300900020EFF0A3EDF0D2967F037E001263E0
:1061D300DF900020E0FF125E99900021E0FF900025
:0861E30020F0125E99C2962221
:105DD70090001EE475F0011214DC90001EE475F0CB
:105DE700011214DC90001EE475F0011214DC90001F
:105DF7001DE0FBA3E0FAA3E0F9121450FF900001A5
:045E0700121469FD0B
:0C5E0B00EF540FC454F0FFED540F4FFF94
:015E17002268
:104FD00090001DEBF0A3EAF0A3E9F0125DF5AD0738
:104FE0007F861261C3125DD7AD077F881261C390BF
:104FF000001EE475F0011214DC90001EE475F0014F
:105000001214DC125DD7AD077F8C1261C3125DD71D
:10501000AD077F841261C3125DD7AD077F82126135
:10502000C3125DD7AD077F801261C390001EE47587
:10503000F0011214DC90001EE475F0011214DC90F3
:10504000001EE475F0011214DC90001DE0FBA3E0EB
:0F505000FAA3E0F9121450540FFD7F8A0261C3D6
:1062F700AE07EEC4540F540FFE6012EF540FFFE4C5
:0D630700FDEDC39E5007740A2FFF0D80F4BA
:016314002266
:10625700E4FEFDFCECC39F500B0DED640A7002FDDC
:106267000E0C80F0EEC454F054F0FEED540F4EFFC8
:016277002204
:10591000E4FFFE90001DEDF090001DE0C394647460
:105920008094804007E0249CF00F80ECEF4430121C
:105930001496740129F9E43AFA90001DE0C3940A20
:10594000748094804007E024F6F00E80ECEE443042
:10595000121496740129F9E43AFA90001DE04430DB
:0359600002149698
:0E25000090001DEBF0A3EAF0A3E9F0A3EDF0CC
:10250E00E4900022F0A3F0900025F0A3F0A3F0A336
:10251E00F0900024EDF054F0F0E0FFC4540FF09072
:10252E00002D12155C404000007F007E007D807CF7
:10253E0041122E60C004C005C006C007900024E002
:10254E00FCE4120F62D003D002D001D000120E5262
:10255E00C004C005C006C007900022E0FCA3E0FD49
:10256E00E4120F5DD003D002D001D000120D611223
:10257E000F96900022EEF0A3EFF0900020E0900076
:10258E0024F0540FF090002D12155C400000007FD7
:10259E00007E007D807C41122E60C004C005C00606
:1025AE00C007900024E0FCE4120F62D003D002D0EA
:1025BE0001D000120E52C004C005C006C007900024
:1025CE0022E0FCA3E0FDE4120F5DD003D002D001A7
:1025DE00D000120D61120F96900022EEF0A3EFF0D4
:1025EE00900021E0900024F054F0F0E0FFC4540F6E
:1025FE00F090002D12155C3F8000007F007E007D64
:10260E00807C41122E60C004C005C006C007900039
:10261E0024E0FCE4120F62D003D002D001D00012ED
:10262E000E52C004C005C006C007900022E0FCA3F5
:10263E00E0FDE4120F5DD003D002D001D000120DE8
:10264E0061120F96900022EEF0A3EFF0900021E0C1
:10265E00900024F0540FF090002D12155C00000035
:10266E00007F007E007D807C41122E60C004C0057C
:10267E00C006C007900024E0FCE4120F62D003D025
:10268E0002D001D000120E52C004C005C006C00711
:10269E00900022E0FCA3E0FDE4120F5DD003D00217
:1026AE00D001D000120D61120F96900022EEF0A311
:1026BE00EFF0C3EF9410EE9427401074F02FFF74D8
:1026CE00D83EFE900025E004F080E7900025E0441F
:1026DE0030FD90001DE0FBA3E0FAA3E0F9ED12142B
:1026EE009690001EE475F0011214DCC3EF94E8EE30
:1026FE009403401074182FFF74FC3EFE900026E0E9
:10270E0004F080E7900026E04430FD90001DE0FBD1
:10271E00A3E0FAA3E0F9ED12149690001EE475F012
:10272E00011214DCC3EF9464EE94004010749C2FDD
:10273E00FF74FF3EFE900027E004F080E790002734
:10274E00E04430FD90001DE0FBA3E0FAA3E0F9EDBC
:10275E0012149690001EE475F0011214DCC3EF946F
:10276E000AEE9400401074F62FFF74FF3EFE9000A8
:10277E0028E004F080E7900028E04430FD90001D32
:10278E00E0FBA3E0FAA3E0F9ED12149690001EE42C
:10279E0075F0011214DCEF4430FF90001DE0FBA336
:1027AE00E0FAA3E0F9EF12149690001EE475F00122
:1027BE001214DC90001DE0FBA3E0FAA3E0F9E402A2
:0227CE0014965F
:032C880090004673
:102C8B00124EB0EF54F0C4540F4430FE900046E0A7
:102C9B00FBA3E0FAA3E0F9EE121496900047E4755B
:102CAB00F0011214DCEF540F4430FF900046E0FBB0
:102CBB00A3E0FAA3E0F9EF121496900047E475F045
:102CCB00011214DC7F89124EBAEF54F0C4540F4436
:102CDB0030FE900046E0FBA3E0FAA3E0F9EE1214FD
:102CEB0096900047E475F0011214DCEF540F44305A
:102CFB00FF900046E0FBA3E0FAA3E0F9EF12149675
:102D0B00900047E475F0011214DC7F87124EBAEF86
:102D1B0054F0C4540F4430FE900046E0FBA3E0FA9D
:102D2B00A3E0F9EE121496900047E475F00112142B
:102D3B00DCEF540F4430FF900046E0FBA3E0FAA316
:102D4B00E0F9EF121496900047E475F0011214DCD1
:102D5B007F85124EBAEF54F0C4540F4430FE9000EE
:102D6B0046E0FBA3E0FAA3E0F9EE121496900047BD
:102D7B00E475F0011214DCEF540F4430FF90004661
:102D8B00E0FBA3E0FAA3E0F9EF121496900047E4FE
:102D9B0075F0011214DC7F83124EBAEF54F0C45459
:102DAB000F4430FE900046E0FBA3E0FAA3E0F9EEFF
:102DBB00121496900047E475F0011214DCEF540FD7
:102DCB004430FF900046E0FBA3E0FAA3E0F9EF12DA
:102DDB001496900047E475F0011214DC7F81124EBB
:102DEB00BAEF54F0C4540F4430FE900046E0FBA3FE
:102DFB00E0FAA3E0F9EE121496900047E475F001A7
:102E0B001214DCEF540F4430FF900046E0FBA3E0BC
:102E1B00FAA3E0F9EF121496900047E475F0011253
:102E2B0014DC7F8B124EBAEF540F4430FF900046E8
:102E3B00E0FBA3E0FAA3E0F9EF121496900047E44D
:102E4B0075F0011214DC900046E0FBA3E0FAA3E05E
:052E5B00F9E4021496E9
:104A6700900031124EB01262F7900031E0FBA3E0E4
:104A7700FAA3E0F9EF121496900032E475F00112F0
:104A870014DC7F89124EBA1262F7900031E0FBA363
:104A9700E0FAA3E0F9EF121496900032E475F00102
:104AA7001214DC7F87124EBA1262F7900031E0FBD6
:104AB700A3E0FAA3E0F9EF121496900032E475F040
:104AC700011214DC7F85124EBA1262F7900031E0B2
:104AD700FBA3E0FAA3E0F9EF121496900032E47515
:104AE700F0011214DC7F83124EBA1262F790003184
:104AF700E0FBA3E0FAA3E0F9EF121496900032E48A
:064B070075F0010214DC50
:10448D0090002A124EB090002AE0FBA3E0FAA3E0C0
:10449D00F9EF12149690002BE475F0011214DC7FE5
:1044AD0089124EBA90002AE0FBA3E0FAA3E0F9EFDF
:1044BD0012149690002BE475F0011214DC7F871214
:1044CD004EBA90002AE0FBA3E0FAA3E0F9EF121434
:1044DD009690002BE475F0011214DC7F85124EBA14
:1044ED0090002AE0FBA3E0FAA3E0F9EF12149690F6
:1044FD00002BE475F0011214DC7F83124EBA90008C
:10450D002AE0FBA3E0FAA3E0F9EF12149690002B3A
:10451D00E475F0011214DC7F81124EBA90002AE08E
:10452D00FBA3E0FAA3E0F9EF12149690002BE475CB
:10453D00F0011214DC90002AE0FBA3E0FAA3E0F9ED
:04454D00E4021496DA
:0764D000C294C296D295228E
:1063DF00E4FDFCC3ED9FEC9E50070DBD00010C804A
:0163EF00F2BB
:0163F000228A
:04633300AB07AA0604
:10633700900000C3E5829BE5839A500A7F967E0012
:066347001263DFA380EDEC
:01634D00222D
:016517002261
:036278001262357A
:10627B00D20AD293D292E4FFFE209205C20AC293B5
:0C628B00220FBF00010EBE04F0BF4CED5E
:0162970022E4
:036298001262355A
:10629B00D293D292D20AE4FFFE209205C20AC29395
:0C62AB00220FBF00010EBE02F0BF8AED02
:0162B70022C4
:06650100D29300C29322B8
:10623500E4FEEEC39408748094805015EF25E0FFCA
:1062450030D704D2928002C292D2931265010E8099
:01625500E167
:016256002225
:0863F100ECFD7C00C293C29296
:0A63F900D292D29300C292C2932206
:0964BE00C293C292D293D2922241
:10596300E4FBEBFDC39408748094805038C29330F9
:105973009216900175E04401F0ED940674809480D2
:105983005006E025E0F0D293209217900175E05481
:10599300FEF0EBD39406748094805006E025E0F08B
:0C59A300D2930B80BDC293900175E0FF11
:0159AF0022D5
:025ED800AA0717
:105EDA00AF05A9071263F1AF02126278AF05126229
:105EEA0078AF0112623512627BAF03126235126219
:105EFA007B1264BE7F0D7E00126333D293D2927FEF
:0D5F0A00627E001263DF7F627E000263DFB3
:0260FF00AB07ED
:10610100AF05AA071263F1AF03126298AF051262DD
:1061110098AF0212623512629B1263F9EB04FF120F
:10612100623512627BC2931259631264BED293D25A
:0661310092900175E0FFF1
:016137002245
:1058610090007DEEF0A3EFF0A3EBF0A3EAF0A3E943
:01587100F046
:1058720090007DE0FCA3E0FD7FA81260FF90007F16
:10588200E0FBA3E0FAA3E0F9EF12149690007FE0A8
:10589200FBA3E0FAA3E0F9121450FF90007EE004AB
:1058A200F0700690007DE004F0900080E475F00155
:0658B2001214DCEF70BAD5
:0158B80022CD
:1051750090007DEFF0A3ECF0A3EDF0A3EBF0A3EA34
:10518500F0A3E9F0900080E0FBA3E0FAA3E0F912B8
:105195001450603CB40D04E412149690007DE0FFB9
:1051A500A3E0FCA3E0FDA3E0FBA3E0FAA3E0F91272
:1051B5001450FB125ED890007FE004F0700690005A
:1051C5007EE004F0900081E475F0011214DC80B4F7
:1051D500900080E0FBA3E0FAA3E0F9E412149690B6
:1051E500007DE0FFA3E0FCA3E0FDA3E0FBA3E0FA64
:0A51F500A3E0F9121450FB025ED88B
:10601000E4FF7B017A00791D122C8890001DE0249A
:10602000D064027026A3E024D0C3940274809480CC
:106030004019A3E024D0FF700FA3E024D0C3940341
:0B6040007480948040058000125F1700
:01604B002232
:105F170090002874FFF0E4A3F0A3F0900029E0FCC0
:105F2700A3E0FDC39450EC9403501A900028E0FBC3
:105F37007FA8125ED890002AE004F070DE90002956
:0F5F4700E004F080D6E4FBFD7C087FA8025ED862
:10604C00E4FB7D997C087FA8125ED890000E740941
:10605C00F0A3E4F090000EE0FCA3E0FDC394FFEC91
:10606C00940A5017E4FB7FA8125ED890000FE0044E
:0B607C00F070E190000EE004F080D90D
:0160870022F6
:104BAF0053656E736F726573204175746F20792032
:104BBF0073656E736F72312061637469766F732ED4
:104BCF000053656E736F722061637469766F207323
:104BDF00656E736F7231202E004465746563746166
:104BEF00646F2E2053656E736F72204175746F2E34
:104BFF000053656E736F726573206E6F20646574FA
:104C0F0065637461646F73005665686963756C6F73
:104C1F00204573706572616E646F2053616C6972A9
:104C2F002E005665686963756C6F2053616C6965FA
:104C3F006E646F2E20556E206D6F6D656E746F00F4
:0764D700C2B5C2B6C2B72234
:0764DE00C2B5D2B6C2B7221D
:0764E500C2B5C2B6D2B72216
:0764EC00D2B5C2B6D2B722FF
:0764F300C2B5D2B6D2B722F8
:0764FA00D2B5D2B6D2B722E1
:1062D800E4FF7DF47C01309115EFFB3395E04B70C2
:0E62E8000DED1D70011CED4C70EC7F0180E887
:0162F6002285
:106403007F311264F33091010F1264FA3091020F5D
:016413000F79
:016414002265
:10558C001264E530915D1262D8EF3395E0FEEF6462
:10559C00014E70471264EC2091231264DE7BFF20D5
:1055AC00910D7A4B79AF125F94E490014E80227A80
:1055BC004B79D0125F9490014E740180141264DE0A
:1055CC007BFF2091107A4B79E8125F9490014E7416
:1055DC0001F07FFF227A4C7900800E7BFF7A4C79A8
:0F55EC001780067BFF7A4C7931125F947F002283
:105519001264D720916190000EE07014A3E070101E
:1055290030B35404F012616D90000E7401F080479D
:1055390090000EE064017014A3E0701030B33804D9
:10554900F01235B590000E7402F0802B90000EE039
:1055590064027023A3E0701F30B31C04F07D667CE5
:10556900007FA81260FFBF53047F5380027F4E1251
:1055790051FFE490000EF01264D7309105E49000D9
:025589000FF021
:01558B0022FD
:0B4E1B0090000EEBF0A3EAF0A3E9F01A
:104E2600E4900012F0A3740CF0900148E064017065
:104E360073900011F0900013E0FF900011E0C39F03
:104E46005053E4FFFEFD30801DED701A0FBF0001C8
:104E56000ED3EF9430EE947540EC7D01900013E094
:104E6600900011F080E0ED6401602A1252879000F4
:104E76000EE0FBA3E0FAA3E0F9EF12149690000F00
:104E8600E475F0011214DC900012E004F0900011B9
:104E9600E004F080A090000EE0FBA3E0FAA3E0F9A6
:094EA600E4121496900012E0FFE2
:014EAF0022E0
:0B4C4F0090000EEBF0A3EAF0A3E9F0E8
:104C5A00E4FF7E029000021214696403701C900043
:104C6A000EE0FBA3E0FAA3E0F9900001121469B484
:104C7A005008D297E4900146F02290000EE0FBA380
:104C8A00E0FAA3E0F9900001121469643C705090B4
:104C9A00000EE0FBA3E0FAA3E0F98E82758300120E
:104CAA001469FD743C2FF582E43401F583EDF00EAE
:104CBA000F8E82758300121469640370D290000EFD
:104CCA00E0FBA3E0FAA3E0F98E82758300E41214F4
:0F4CDA00A8743B2FF582E43401F583E4F0D2098E
:014CE90022A8
:0E5E1800900046EBF0A3EAF0A3E9F0A3EDF052
:105E2600E4A3F0900049E0FFA3E0C39F5024900054
:105E360046E0FBA3E0FAA3E0F9121450FF1259B0B2
:105E4600900047E475F0011214DC90004AE004F07B
:025E560080D1F9
:015E58002227
:0B41570090001DEBF0A3EAF0A3E9F0DC
:1041620090003E7403F090002014F012640390005B
:1041720021EFF0A37453F090014EE090003E6013E3
:10418200E0FF04F074202FF582E43400F583744DCF
:10419200F08011E0FF04F074202FF582E43400F582
:1041A200837443F090003E7404F090001DE0FBA382
:1041B200E0FAA3E0F9121450FF602190003EE024DF
:1041C20020F582E43400F583EFF090001EE475F0F0
:1041D200011214DC90003EE004F080CE90003EE03C
:1041E200FF04F074202FF582E43400F583743AF072
:1041F20090003EE02420F9E43400FA7B01122C887E
:1042020090003EE0FF242AF582E43400F583743AFC
:10421200F0742B2FF582E43400F5837403F07B01F4
:0B4222007A007920EF240CFD025E18EA
:0E3EB10090001FEBF0A3EAF0A3E9F0A3EDF000
:103EBF00A37402F0126403900024EFF0A37453F084
:103ECF00E4A3F0900022E0900042F0E4A3F07B0125
:103EDF0090005304F0A37400F0A37442F07A0079B9
:103EEF002312566990001FE0F9A3E0FAA3E09000B7
:103EFF0053C9F0A3EAF0A3E9F07B017A007923120A
:103F0F005669900042743AF0E4A3F07B019000539D
:103F1F0004F0A37400F0A37442F07A0079231256D0
:103F2F00697B017A00792312000E900041EFF02493
:103F3F0023F9E43400FA7B01122C88900041E0FF52
:103F4F00242DF582E43400F583743AF0742E2FF5A6
:103F5F0082E43400F5837403F0742F2FF582E43478
:103F6F0000F583E4F074302FF582E43400F583E438
:103F7F00F07B017A00792312000E900041EFF0FDE3
:093F8F007B017A007923025E181F
:10646B0090000AE41214A87D007C057FA8025175E8
:1034A300613B38353B4143455251554520535520E7
:1034B3005449434B45540A0000613B38393B47525A
:1034C3004143494153202E2E2E2E2E200A00006107
:1034D3003B39373B4E6F2054494B4554204E4F20C8
:1034E3005245474953545241444F200A0000613B1F
:1034F30038383B45584345444520484F524152498B
:103503004F2E2E2E0A0000613B39353B554E204D80
:103513004F4D454E544F202E2E2E2E200A00006173
:103523003B39363B53494E2050524553454E434950
:1035330041205645484943554C41522E2E2E2E20AC
:103543000A0000613B39303B4E4F205245474953F7
:10355300545241205041474F2E2E2E2E200A000058
:10356300613B39303B444952494A4153452041204C
:1035730043414A410A000057494547414E44200010
:10358300613B39323B4752414349415320000A00D2
:1035930000613B39383B57494547414E442000AA17
:1035A300802807200000000000140000AA801801F2
:0235B300020014
:05631500900055EDF0C1
:10631A00125F56900056EFF0900055E0600AE4FFD5
:08632A00125F56900056EFF0DF
:016332002248
:0E608800900050EBF0A3EAF0A3E9F0A3EDF0D6
:10609600E4A3F0900050E0FBA3E0FAA3E0F990003F
:1060A60054E0F582758300121469FF601090005366
:0D60B600E0FD126315900054E004F080D668
:0160C30022BA
:0E5D4C0090002AEBF0A3EAF0A3E9F0A3EDF03B
:105D5A00E490002FF090002DE0FF90002FE0FEC3AA
:105D6A009F502490002AE0FBA3E0FAA3E0F98E8278
:105D7A00758300121469FF90002EE0FD12631590DE
:075D8A00002FE004F080CEC1
:015D910022EF
:10613800781D7C007D017BFF7A3579A27E007F0D7A
:1061480012142AC2877B017A00792212448DC29CDC
:106158007B017A00791DE490002EF07D0D125D4CD4
:04616800D29CD2876C
:01616C002210
:0958030012183A7B017A00791FAA
:0B580C00900050EBF0A3EAF0A3E9F0DD
:1058170012000E900054EFF0E4900053F090005403
:10582700E0FF900053E0FEC39F502E900050E0FB36
:10583700A3E0FAA3E0F98E82758300121469FF12C0
:105847005F56E4FFEFC394C87480948050030F80C1
:09585700F3900053E004F080C45A
:015860002225
:104B0D00C28790014AE07003D28722C287EF24FC4E
:104B1D00603724FD604124FE604C24AF6072247A1E
:104B2D00605224F9605C24E86011047072781F7C77
:104B3D00007D017BFF7A3479A38061781F7C007D35
:104B4D00017BFF7A3479BC8053781F7C007D017B1B
:104B5D00FF7A3479D28045781F7C007D017BFF7A06
:104B6D003479F1125803781F7C007D017BFF7A3573
:104B7D00790A8028781F7C007D017BFF7A357922A8
:104B8D00801A781F7C007D017BFF7A357946800C79
:104B9D00781F7C007D017BFF7A357963125803D233
:014BAD008780
:014BAE0022E4
:0E324C0090001DEFF0A3EBF0A3EAF0A3E9F071
:10325A0078217C007D017BFF7A3579AF7E007F067D
:10326A0012142AC28790014AE0706690001DE02479
:10327A0050705B7B017A007921E4FD1260887BFF44
:10328A007A35797A12000E90004FEFF090001EE026
:10329A00FBA3E0FAA3E0F912000E90004FE02F041E
:1032AA00F0E4FDFF12631590004FE025E0FFE4FD16
:1032BA001263157BFF7A35797A7D01126088900056
:1032CA001EE0FBA3E0FAA3E0F97D01126088D28731
:1032DA0022C28790001DE02450604524B160030299
:1032EA00337778277C007D017BFF7A357983121842
:1032FA003A90001EE0FBA3E0FAA3E0F912000E9058
:10330A00004FEFF024FFFFE434FFFE90001EE0FBC5
:10331A00A3E0FAA3E0F98F828E83E41214A8800F47
:10332A0078277C007D017BFF7A35799412183A90D0
:10333A00001EE0F9A3E0FAA3E0900053C9F0A3EA63
:10334A00F0A3E9F07B017A007927125669900053BD
:10335A0074FFF0A37435F0A37491F07B017A0079BD
:0F336A00271256697B017A00792712580CD287F7
:013379002231
:100026000D0A0A25733E20002563002564000D0A8B
:100036000A2041435455414C2049445F434C4945AD
:100046004E54453D25730D0A0A000D0A0A204449FF
:1000560047495445205355204E5545564F2049444F
:100066005F434C49454E54453D000D0A0A20444124
:10007600544F204D4F444946494341444F2049443B
:100086005F434C49454E54453D25730D0A0A000D04
:100096000A0A2041435455414C20434F445F504186
:1000A600524B3D25730D0A0A000D0A0A20444947A2
:1000B600495445205355204E5545564F20434F44ED
:1000C6005F5041524B3D000D0A0A204441544F20D7
:1000D6004D4F444946494341444F20434F445F50A6
:1000E60041524B3D25730D0A0A000D0A0A20414371
:1000F6005455414C205449454D504F5F475241435A
:1001060049413D25730D0A0A000D0A0A2044494754
:10011600495445205355204E5545564F2054494580
:100126004D504F5F4752414349413D000D0A0A2059
:100136004441544F204D4F444946494341444F2082
:100146005449454D504F5F4752414349413D257300
:100156000D0A0A000D0A0A2041435455414C20530A
:10016600494E5F434F42524F20494E484142494C07
:10017600495441444F3D25730D0A0A000D0A0A20D1
:1001860041435455414C2053494E5F434F42524FD1
:10019600204752415449533D25730D0A0A000D0A62
:1001A6000A2041435455414C2053494E5F434F4228
:1001B600524F2047524154495320592053414C49EC
:1001C600444120454C204D49534D4F204449413D23
:1001D60025730D0A0A000D0A0A2044494749544569
:1001E600205355204E5545564F2053494E5F434F99
:1001F60042524F3D000D0A0A2041435455414C20BE
:10020600444542554720494E484142494C4954418C
:10021600444F3D25730D0A0A000D0A0A2041435436
:1002260055414C20444542554720484142494C4996
:100236005441444F3D25730D0A0A000D0A0A204415
:10024600494749544520454C204E5545564F204573
:10025600535441444F2044452044454255473D00B0
:100266000D0A0A2041435455414C205553455F4CD5
:10027600505220494E484142494C495441444F3D11
:1002860025730D0A0A000D0A0A2041435455414CB4
:10029600205553455F4C505220484142494C4954E1
:1002A60041444F3D25730D0A0A000D0A0A204449B0
:1002B6004749544520454C204E5545564F204553F9
:1002C6005441444F204445205553455F4C50523DC0
:1002D600000D0A0A2050414E54414C4C41204C43DB
:1002E6004420484142494C49544144413D25730DFF
:1002F6000A0A000D0A0A2050414E54414C4C412036
:100306005241535042455252592020484142494C8D
:1003160049544144413D25730D0A0A000D0A0A203D
:1003260044494749544520454C204E5545564F2093
:1003360045535441444F204445204C412050414EA2
:1003460054414C4C41203D000D0A0A20414354556E
:10035600414C20434F4D5041524143494F4E20415D
:1003660043544956412020484142494C495441444E
:10037600413D25730D0A0A000D0A0A2041435455D2
:10038600414C20434F4D5041524143494F4E20412D
:10039600435449564120494E484142494C495441EB
:1003A600444F3D25730D0A0A000D0A0A20414354A5
:1003B60055414C20434F4D5041524143494F4E20E9
:1003C6004143544956412020484142494C495441F1
:1003D600444F3D25730D0A0A000D0A0A2044494779
:1003E60049544520454C204E5545564F20455354BB
:1003F60041444F20444520434F4D504152414349CB
:100406004F4E20414354495641203D000D0A0A20D3
:1004160041435455414C20434F4D5041524143496D
:100426004F4E204143544956412020494E484142AF
:10043600494C495441444F3D25730D0A0A000D0AA3
:100446000A2041435455414C20434F4449474F20CD
:10045600444520424152524153204143544956306B
:100466003D25730D0A0A000D0A0A204143545541E1
:100476004C20434F4449474F205152204143544951
:10048600564F3D25730D0A0A000D0A0A20444947B6
:1004960049544520454C204E5545564F204553540A
:1004A60041444F20444520434F4449474F20515231
:1004B600204F20434F4449474F2044452042415254
:1004C6005241533D000D0A0A20446967697465204C
:1004D600656C206E6F6D6272652064656C20636C5E
:1004E60069656E746520000D0A0A20746578746F5C
:1004F600206772616261646F3D25730D0A0A000D03
:100506000A0A2044696769746520656C206E756DFA
:1005160065726F206465204E697420000D0A0A20FA
:100526004E49543A2025730D0A0A000D0A0A204442
:10053600696769746520656C204E6F6D627265200F
:1005460064656C20506172717565616465726F20B7
:10055600000D0A0A204E6F6D6272653A2025730DF2
:100566000A0A000D0A0A20446967697465206C61ED
:1005760020646972656363696F6E2064656C2065CB
:10058600737461626C6563696D69656E746F200072
:100596000D0A0A20446972656363696F6E3A202505
:1005A600730D0A0A000D0A0A2044696769746520FA
:1005B600656C206D736A312064656C2065737461A7
:1005C600626C6563696D69656E746F20000D0A0A59
:1005D600206D736A313A2025730D0A0A000D0A0A46
:1005E6002044696769746520656C206D736A3220E2
:1005F60064656C2065737461626C6563696D6965B9
:100606006E746F20000D0A0A2044696769746520BC
:10061600656C206D736A332064656C206573746144
:10062600626C6563696D69656E746F20000D0A0AF8
:10063600206D736A333A2025730D0A0A000D0A0AE3
:100646002044696769746520656C206D736A34207F
:1006560064656C2065737461626C6563696D696558
:100666006E746F20000D0A0A206D736A343A2025D5
:10067600730D0A0A000D0A0A204469676974652029
:10068600656C206D736A352064656C2065737461D2
:10069600626C6563696D69656E746F20000D0A0A88
:1006A600206D736A353A2025730D0A0A000D0A0A71
:1006B6002044696769746520656C206D736A36200D
:1006C60064656C2065737461626C6563696D6965E8
:1006D6006E746F20000D0A0A206D736A363A202563
:1006E600730D0A0A000D0A0A2044696769746520B9
:1006F600656C206D736A372064656C206573746160
:10070600626C6563696D69656E746F20000D0A0A17
:10071600206D736A373A2025730D0A0A000D0A20E8
:1007260049445F434C49454E544520202020090941
:10073600092D2D2D20636D642030204964656E746B
:100746006966696361646F722064656C20636C69B5
:10075600656E7465206D6178696D6F203235350080
:100766000D0A20434F445F5041524B202020202049
:10077600200909092D2D2D20636D64203120456C3B
:10078600206E756D65726F2064656C207061727184
:100796007565616465726F206D6178696D6F203271
:1007A6003535000D0A20545F475241434941202008
:1007B600202020200909092D2D2D20636D6420326B
:1007C600205469656D706F2073696E20636F627265
:1007D6006F2030302C20206D6178696D6F203235A6
:1007E60035000D0A2053494E5F434F42524F202099
:1007F6002020090909092D2D2D20636D6420332041
:10080600496E686162696C697461646F3D20302C61
:10081600204772617469733D2031202C2047726134
:1008260074697320792073616C69646120656C203A
:100836006D69736D6F206469613D2032000D0A2079
:100846004445425547202020202020202020090909
:10085600092D2D2D20636D64203420486162696C5A
:1008660069746172203D20312C20496E686162698D
:100876006C69746172203D2030000D0A2055534585
:100886005F4C5052202020202020200909092D2DC0
:100896002D20636D64203520486162696C6974613E
:1008A60072203D20312C20496E686162696C697442
:1008B6006172203D2030000D0A205449504F5F5090
:1008C600414E54414C4C41202020202020092D2D02
:1008D6002D20636D6420362050414E54414C4C41CE
:1008E600204C4344203D302050414E54414C4C4115
:1008F600205241535042455252493D31000D0A2083
:10090600434F4D5041524143494F4E5F4143544935
:10091600564120092D2D2D20636D64203720486116
:1009260062696C69746172203D20312C20496E68C1
:100936006162696C69746172203D2030000D0A2085
:1009460051525F434F445F4241525241532009097D
:10095600092D2D2D20636D64203820486162696C55
:1009660069746172205152203D20312C2048616209
:10097600696C6974617220434F445F42415252412F
:1009860053203D2030000D0A20434C49454E544526
:10099600202020202020200909092D2D2D20636DDF
:1009A600642039204E6F6D6272652064656C206329
:1009B6006C69656E7465000D0A204E49542020202E
:1009C600202020202020202009202020202D2D2D11
:1009D60020636D64203130204E756D65726F206422
:1009E600656C206E6974000D0A204E4F4D5F5041B4
:1009F600525120202020202009202020202D2D2D7E
:100A060020636D64203131204E6F6D627265206403
:100A1600656C20706172717565616465726F000D39
:100A26000A20444952454343494F4E20202020097D
:100A36002020202020202D2D2D20636D6420313292
:100A4600204E6F6D6272652064656C2070617271F4
:100A56007565616465726F000D0A204D534A5F31FA
:100A660020202020202020202009202020202D2D7D
:100A76002D20636D64203133206D736A20646520F8
:100A8600696E666F726D6163696F6E2064656C2056
:100A9600706172717565616465726F000D0A204D33
:100AA600534A5F32202020202020202020092020A9
:100AB60020202D2D2D20636D64203134206D736A26
:100AC60020646520696E666F726D6163696F6E2062
:100AD60064656C20706172717565616465726F0022
:100AE6000D0A204D534A5F3320202020202020204D
:100AF6002009202020202D2D2D20636D64203135E6
:100B0600206D736A20646520696E666F726D61631D
:100B1600696F6E2064656C207061727175656164C1
:100B260065726F000D0A204D534A5F342020202045
:100B360020202020092020202020202D2D2D20635C
:100B46006D64203136206D736A20646520696E6697
:100B56006F726D6163696F6E2064656C207061727F
:100B6600717565616465726F000D0A204D534A5FA9
:100B76003520202020202020200920202020202071
:100B86002D2D2D20636D64203137206D736A20640E
:100B96006520696E666F726D6163696F6E2064654C
:100BA6006C20706172717565616465726F000D0A03
:100BB600204D534A5F362020202020202020092067
:100BC60020202020202D2D2D20636D6420313820FB
:100BD6006D736A20646520696E666F726D61636904
:100BE6006F6E2064656C20706172717565616465F5
:100BF600726F000D0A204D534A5F372020202020B7
:100C06002020202009202020202D2D2D20636D64FA
:100C1600203139206D736A20646520696E666F72B3
:100C26006D6163696F6E2064656C207061727175A9
:100C360065616465726F000D0A2041595544412073
:100C4600202020202020202009202020202D2D2D8E
:100C560020636D64203230204D7565737472612097
:100C66006C6F7320636F6D616E646F73000D0A2085
:100C760053414C49522020202020202020200920AA
:100C86002020202D2D2D20636D64203231205361CC
:100C96006C69722064652070726F6772616D616342
:100CA600696F6E000D0A0A53697374656D6120647D
:100CB600652050726F6772616D6163696F6E205651
:100CC60065726966696361646F720D0A0D0A000DCB
:100CD6000A0A2F3E5573756172696F3A000D0A0A4A
:100CE600206461746F732064656C20627566666546
:100CF600722072782025730D0A0A000D0A0A2064F4
:100D060061746F732064656C206275666665722017
:100D160074782025730D0A0A000D0A0A2F3E5061C9
:100D26007373776F72643A00313233343536000D9F
:100D36000A436F6D616E646F206E6F20657869730C
:100D46007465202725732700200D0A00200D0A0050
:040D5600220D0A0060
:10487C005400BE2F000000000000000000000000EB
:10488C00000000000000004900B561646D696E0015
:10489C00000000604200D230000031000032000005
:1048AC0033000034000035000036000037000038BB
:1048BC000000390000313000313100313200313329
:1048CC0000313400313500313600313700313800D9
:0948DC00313900323000323100A4
:0B57A10090003FEBF0A3EAF0A3E9F05A
:1057AC00E4900045F0900045E0FFC394167480949B
:1057BC00805041EF75F003A424D2F9740035F0FA4F
:1057CC007B0178427C007D0112183A78427C007D86
:1057DC000190003FE0FBA3E0FAA3E0F9121751EFB0
:1057EC003395E04F7006900045E0FF22900045E0B5
:0657FC0004F080B17FFF04
:015802002283
:0B5D920090000EE0FBA3E0FAA3E0F994
:0B5D9D0090003FEBF0A3EAF0A3E9F058
:105DA80078427C007D017B017A0079B512183A7837
:105DB800427C007D0190003FE0FBA3E0FAA3E0F9FC
:0E5DC800121751EF3395E04F7002FF227FFF5C
:015DD60022AA
:065E59007B017A00792BA9
:0B5E5F0090003FEBF0A3EAF0A3E9F095
:105E6A0078427C007D017BFF7A0D794E7E007F04AB
:105E7A0012142A90004D7401F0A37400F0A3744226
:0F5E8A00F090003FE0FBA3E0FAA3E0F9023F989D
:104F4000E0FBA3E0FAA3E02FF9EA3EFAE92401F935
:034F5000E43AFA46
:0B4F530090003FEBF0A3EAF0A3E9F0B0
:104F5E0078427C007D017BFF7A0D79527E007F04C2
:104F6E0012142A78467C007D017BFF7A0D79567EDD
:104F7E00007F0412142A90003FE0FBA3E0FAA3E0A6
:104F8E00F9121450FFB4200C900040E475F0011299
:104F9E0014DC80E2EF90004DB4220D7401F0A37486
:104FAE0000F0A37446F080167401F0A37400F0A311
:104FBE007442F090003FE0FBA3E0FAA3E0F9123F49
:014FCE00984A
:014FCF0022BF
:1063B4009000847401F0A37400F0A374BEF07BFF1A
:0763C4007A0079260218D8C7
:085499007A00792B7B01E4FD90
:0E54A10090007DEBF0A3EAF0A3E9F0A3EDF09C
:1054AF001264A890007DE0FBA3E0FAA3E0F9EF12ED
:1054BF001496900080E0701D90007DE0FBA3E0FA51
:1054CF00A3E0F9121450900084F07BFF7A00792E3C
:1054DF001218D880057F2A125F5690007DE0FBA33B
:1054EF00E0FAA3E0F9121450FF7E0090007EE475FD
:1054FF00F0011214DC90007DE0FBA3E0FAA3E0F9C9
:09550F00E4121496EF640D70978C
:015518002270
:1048FD00E4FDFC7FA81260FF7E00900049EEF0A35E
:10490D00EFF090008474FFF0A37400F0A37431F005
:10491D00A3EEF0A3EFF07B017A00793F1218D2904D
:10492D0000847401F0A37400F0A3743FF07BFF7A50
:10493D000079341218D87BFF7A0079501218D87A82
:10494D0000793F12549D7B017A00793F12407C9093
:10495D000049EEF0A3EFF0FBE4FDFC7FA8125ED85A
:10496D00E4FDFC7FA81260FF7E00900049EEF0A3ED
:10497D00EFF090008474FFF0A37400F0A37431F095
:10498D00A3EEF0A3EFF07B017A00793F1218D290DD
:10499D0000847401F0A37400F0A3743FF07BFF7AE0
:0649AD000079700218D829
:104610007D027C007FA81260FF7E00900049EEF0D2
:10462000A3EFF090008474FFF0A37400F0A3743142
:10463000F0A3EEF0A3EFF07B017A00793F1218D2DD
:104640009000847401F0A37400F0A3743FF07BFF2A
:104650007A0079951218D87BFF7A0079AF1218D8B2
:104660007B017A00793FE4FD1254A17B017A007945
:104670003F12407C900049EEF0A3EFF0FB7D027CFE
:10468000007FA8125ED87D027C007FA81260FF7EAA
:1046900000900049EEF0A3EFF090008474FFF0A3C7
:1046A0007400F0A37431F0A3EEF0A3EFF07B017A75
:1046B00000793F1218D29000847401F0A37400F0C6
:0D46C000A3743FF07BFF7A0079CD0218D87B
:1046CD007D047C007FA81260FF7E00900049EEF013
:1046DD00A3EFF090008474FFF0A37400F0A3743185
:1046ED00F0A3EEF0A3EFF07B017A00793F1218D220
:1046FD009000847401F0A37400F0A3743FF07BFF6D
:10470D007A0079F01218D87BFF7A01790F1218D838
:10471D007B017A00793FE4FD1254A17B017A007987
:10472D003F12407C900049EEF0A3EFF0FB7D047C3E
:10473D00007FA8125ED87D047C007FA81260FF7EEA
:10474D0000900049EEF0A3EFF090008474FFF0A309
:10475D007400F0A37431F0A3EEF0A3EFF07B017AB7
:10476D0000793F1218D29000847401F0A37400F008
:0D477D00A3743FF07BFF7A0179320218D857
:10310E007D067C007FA81260FF7E00900049EEF0E5
:10311E00A3EFF090008474FFF0A37400F0A3743159
:10312E00F0A3EEF0A3EFF07B017A00793F1218D2F4
:10313E00900049E07002A3E0701590008404F0A3A3
:10314E007400F0A3743FF07BFF7A01795A803590BA
:10315E000049E07004A3E06401701590008404F04F
:10316E00A37400F0A3743FF07BFF7A017982801480
:10317E009000847401F0A37400F0A3743FF07BFF01
:10318E007A0179A41218D87BFF7A0179DC1218D84B
:10319E007B017A00793FE4FD1254A17B017A00791C
:1031AE003F12407C900049EEF0A3EFF0FB7D067CD1
:1031BE00007FA8125ED87D067C007FA81260FF7E7D
:1031CE0000900049EEF0A3EFF090008474FFF0A39E
:1031DE007400F0A37431F0A3EEF0A3EFF07B017A4C
:1031EE0000793F1218D2900049E07002A3E07015EA
:1031FE0090008404F0A37400F0A3743FF07BFF7A78
:10320E0001795A8035900049E07004A3E0640170A2
:10321E001590008404F0A37400F0A3743FF07BFFBC
:10322E007A01798280149000847401F0A37400F006
:0D323E00A3743FF07BFF7A0179A41218D829
:01324B002260
:1038DC007D087C007FA81260FF7E00900049EEF00E
:1038EC00A3EFF090008474FFF0A37400F0A3743184
:1038FC00F0A3EEF0A3EFF07B017A00793F1218D21F
:10390C00900049E07002A3E0701590008404F0A3CD
:10391C007400F0A3743FF07BFF7A0179FB80149064
:10392C0000847401F0A37400F0A3743FF07BFF7A61
:10393C0002791F1218D87BFF7A0279411218D87BB2
:10394C00017A00793FE4FD1254A17B017A00793FA2
:10395C0012407C900049EEF0A3EFF0FB7D087C0058
:10396C007FA8125ED87D087C007FA81260FF7E00C5
:10397C00900049EEF0A3EFF090008474FFF0A37474
:10398C0000F0A37431F0A3EEF0A3EFF07B017A000A
:10399C00793F1218D2900049E07002A3E0701590A4
:1039AC00008404F0A37400F0A3743FF07BFF7A0151
:1039BC0079FB80149000847401F0A37400F0A3745C
:0B39CC003FF07BFF7A02791F1218D831
:0139D70022CD
:1039D8007D0A7C007FA81260FF7E00900049EEF00F
:1039E800A3EFF090008474FFF0A37400F0A3743187
:1039F800F0A3EEF0A3EFF07B017A00793F1218D222
:103A0800900049E07002A3E0701590008404F0A3D0
:103A18007400F0A3743FF07BFF7A027966801490FB
:103A280000847401F0A37400F0A3743FF07BFF7A64
:103A380002798C1218D87BFF7A0279B01218D87BD9
:103A4800017A00793FE4FD1254A17B017A00793FA5
:103A580012407C900049EEF0A3EFF0FB7D0A7C0059
:103A68007FA8125ED87D0A7C007FA81260FF7E00C6
:103A7800900049EEF0A3EFF090008474FFF0A37477
:103A880000F0A37431F0A3EEF0A3EFF07B017A000D
:103A9800793F1218D2900049E07002A3E0701590A7
:103AA800008404F0A37400F0A3743FF07BFF7A0253
:103AB800796680149000847401F0A37400F0A374F4
:0B3AC8003FF07BFF7A02798C1218D8C7
:013AD30022D0
:103AD4007D0B7C007FA81260FF7E00900049EEF011
:103AE400A3EFF090008474FFF0A37400F0A374318A
:103AF400F0A3EEF0A3EFF07B017A00793F1218D225
:103B0400900049E07002A3E0701590008404F0A3D3
:103B14007400F0A3743FF07BFF7A0279D78014908D
:103B240000847401F0A37400F0A3743FF07BFF7A67
:103B34000279F91218D87BFF7A0379221218D87BFC
:103B4400017A00793FE4FD1254A17B017A00793FA8
:103B540012407C900049EEF0A3EFF0FB7D0B7C005B
:103B64007FA8125ED87D0B7C007FA81260FF7E00C8
:103B7400900049EEF0A3EFF090008474FFF0A3747A
:103B840000F0A37431F0A3EEF0A3EFF07B017A0010
:103B9400793F1218D2900049E07002A3E0701590AA
:103BA400008404F0A37400F0A3743FF07BFF7A0256
:103BB40079D780149000847401F0A37400F0A37486
:0B3BC4003FF07BFF7A03794E1218D807
:013BCF0022D3
:103BD0007D0C7C007FA81260FF7E00900049EEF013
:103BE000A3EFF090008474FFF0A37400F0A374318D
:103BF000F0A3EEF0A3EFF07B017A00793F1218D228
:103C0000900049E07002A3E0701590008404F0A3D6
:103C10007400F0A3743FF07BFF7A03797E801490E8
:103C200000847401F0A37400F0A3743FF07BFF7A6A
:103C30000379AF1218D87BFF7A0379DF1218D87B8B
:103C4000017A00793FE4FD1254A17B017A00793FAB
:103C500012407C900049EEF0A3EFF0FB7D0C7C005D
:103C60007FA8125ED87D0C7C007FA81260FF7E00CA
:103C7000900049EEF0A3EFF090008474FFF0A3747D
:103C800000F0A37431F0A3EEF0A3EFF07B017A0013
:103C9000793F1218D2900049E07002A3E0701590AD
:103CA000008404F0A37400F0A3743FF07BFF7A0457
:103CB000791280149000847401F0A37400F0A3744E
:0B3CC0003FF07BFF7A0379AF1218D8A9
:013CCB0022D6
:103CCC007D0E7C007FA81260FF7E00900049EEF014
:103CDC00A3EFF090008474FFF0A37400F0A3743190
:103CEC00F0A3EEF0A3EFF07B017A00793F1218D22B
:103CFC00900049E07002A3E0701590008404F0A3DA
:103D0C007400F0A3743FF07BFF7A04794480149024
:103D1C0000847401F0A37400F0A3743FF07BFF7A6D
:103D2C0004796D1218D87BFF7A04798F1218D87B1E
:103D3C00017A00793FE4FD1254A17B017A00793FAE
:103D4C0012407C900049EEF0A3EFF0FB7D0E7C005E
:103D5C007FA8125ED87D0E7C007FA81260FF7E00CB
:103D6C00900049EEF0A3EFF090008474FFF0A37480
:103D7C0000F0A37431F0A3EEF0A3EFF07B017A0016
:103D8C00793F1218D2900049E07002A3E0701590B0
:103D9C00008404F0A37400F0A3743FF07BFF7A045A
:103DAC00794480149000847401F0A37400F0A3741F
:0B3DBC003FF07BFF7A04796D1218D8ED
:013DC70022D9
:1059F8007BFF7A0479CB1218D87B017A00793FE4CF
:105A0800FD1254A17B017A00793F7D107C007FA8AC
:105A18001251757B017A00793F7F107E0012586120
:105A28009000847401F0A37400F0A3743FF07BFF2E
:075A38007A0479ED0218D891
:105A3F007BFF7A0579051218D87B017A00793FE44C
:105A4F00FD1254A17B017A00793F7D407C007FA835
:105A5F001251757B017A00793F7F407E00125861A9
:105A6F009000847401F0A37400F0A3743FF07BFFE7
:075A7F007A0579220218D814
:105A86007BFF7A0579311218D87B017A00793FE4D9
:105A9600FD1254A17B017A00793F7D507C007FA8DE
:105AA6001251757B017A00793F7F507E0012586152
:105AB6009000847401F0A37400F0A3743FF07BFFA0
:075AC6007A0579570218D898
:105ACD007BFF7A0579691218D87B017A00793FE45A
:105ADD00FD1254A17B017A00793F7D807C007FA867
:105AED001251757B017A00793F7F807E00125861DB
:105AFD009000847401F0A37400F0A3743FF07BFF59
:075B0D007A0579960218D811
:105B14007BFF7A0579AB1218D87B017A00793FE4D0
:105B2400FD1254A17B017A00793F7DB07C007FA8EF
:105B34001251757B017A00793F7FB07E0012586163
:105B44009000847401F0A37400F0A3743FF07BFF11
:075B54007A0579D30218D88D
:105B5B007BFF7A0579E31218D87B017A00793FE451
:105B6B00FD1254A17B017A00793F7DF17C007FA867
:105B7B001251757B017A00793F7FF17E00125861DB
:105B8B009000847401F0A37400F0A3743FF07BFFCA
:075B9B007A0579D30218D846
:105BA2007BFF7A06790B1218D87B017A00793FE4E1
:105BB200FD1254A17B017A00793F7D327C017FA8DE
:105BC2001251757B017A00793F7F327E0112586152
:105BD2009000847401F0A37400F0A3743FF07BFF83
:075BE2007A0679330218D89E
:105BE9007BFF7A0679431218D87B017A00793FE462
:105BF900FD1254A17B017A00793F7D737C017FA856
:105C09001251757B017A00793F7F737E01125861C9
:105C19009000847401F0A37400F0A3743FF07BFF3B
:075C29007A06796B0218D81E
:105C30007BFF7A06797B1218D87B017A00793FE4E2
:105C4000FD1254A17B017A00793F7DB47C017FA8CD
:105C50001251757B017A00793F7FB47E0112586141
:105C60009000847401F0A37400F0A3743FF07BFFF4
:075C70007A0679A30218D89F
:105C77007BFF7A0679B31218D87B017A00793FE463
:105C8700FD1254A17B017A00793F7DF57C017FA845
:105C97001251757B017A00793F7FF57E01125861B9
:105CA7009000847401F0A37400F0A3743FF07BFFAD
:075CB7007A0679DB0218D820
:105CBE007BFF7A0679EB1218D87B017A00793FE4E4
:105CCE00FD1254A17B017A00793F7D367C027FA8BC
:105CDE001251757B017A00793F7F367E0212586130
:105CEE009000847401F0A37400F0A3743FF07BFF66
:075CFE007A0779130218D8A0
:104302007BFF7A0779231218D87BFF7A0779661226
:1043120018D87BFF7A0779A91218D87BFF7A077918
:10432200E81218D87BFF7A0879431218D87BFF7AF3
:104332000879801218D87BFF7A0879BD1218D87BC9
:10434200FF7A0979031218D87BFF7A097943121888
:10435200D87BFF7A09798C1218D87BFF7A0979BD4C
:104362001218D87BFF7A0979ED1218D87BFF7A0AE6
:1043720079251218D87BFF7A0A795E1218D87BFF4A
:104382007A0A79A21218D87BFF7A0A79E61218D82B
:104392007BFF7A0B792A1218D87BFF7A0B796F127E
:1043A20018D87BFF7A0B79B41218D87BFF7A0B7975
:1043B200F91218D87BFF7A0C793D1218D87BFF7A54
:0643C2000C79730218D80B
:102A4E007BFF7A0C79AA1218D87BFF7A0C79D512F3
:102A5E0018D812649A125499125E5990000EEBF027
:102A6E00A3EAF0A3E9F0900084E4F0A37400F0A3CD
:102A7E007422F07BFF7A0C79E31218D8900084E46C
:102A8E00F0A37400F0A374A2F07BFF7A0D7901120B
:102A9E0018D8125D92EF70B17BFF7A0D791F121864
:102AAE00D87B017A00792B7D011254A1125E5990C8
:102ABE00000EEBF0A3EAF0A3E9F078B57C007D01FF
:102ACE007BFF7A0D792E12183A125D92EF70C902C1
:102ADE002C601263B4125499125E5990000EEBF0F2
:102AEE00A3EAF0A3E9F012000E90000E124F4090F0
:102AFE000011EBF0A3EAF0A3E9F012000E90001122
:102B0E00124F40900014EBF0A3EAF0A3E9F090000E
:102B1E0011E0FBA3E0FAA3E0F9EA494B60171214A7
:102B2E0050B42F1178177C007D01900011A3A3E003
:102B3E0012183A803D900011E0FBA3E0FAA3E0F9F1
:102B4E00EA494B602D78177C007D017B017A007974
:102B5E00BE12183A900011E0F9A3E0FAA3E090003B
:102B6E0053C9F0A3EAF0A3E9F07B017A00791712BA
:102B7E00566990000EE0FBA3E0FAA3E0F9EA494B98
:102B8E007003022AE01257A1EFB416004003022C84
:102B9E0066902BA6F8282873022BE8022BEE022B48
:102BAE00F4022BFA022C00022C06022C0C022C1220
:102BBE00022C18022C1E022C24022C2A022C30026B
:102BCE002C36022C3C022C42022C48022C4E022C9B
:102BDE0054022C5A022C60022C871248FD022AE065
:102BEE00124610022AE01246CD022AE012310E02DF
:102BFE002AE01238DC022AE01239D8022AE0123A10
:102C0E00D4022AE0123BD0022AE0123CCC022AE087
:102C1E001259F8022AE0125A3F022AE0125A86028C
:102C2E002AE0125ACD022AE0125B14022AE0125B4D
:102C3E005B022AE0125BA2022AE0125BE9022AE0A2
:102C4E00125C30022AE0125C77022AE0125CBE02AD
:102C5E002AE0124302022AE090000EE0F9A3E0FA05
:102C6E00A3E0900084C9F0A3EAF0A3E9F07BFF7A19
:092C7E000D79351218D8022AE084
:012C8700222A
:10647B002D30732D002D31313131312E002564003B
:0B4D840090000EEBF0A3EAF0A3E9F0B2
:104D8F00900013E4F0A37498F0126511E4900012F0
:104D9F00F0C286900011F0C2B2900013E0FEA3E0C3
:104DAF00FF20B35B900011E07055900013E0FEA35D
:104DBF00E0FFEF1F70011EEF4E700590001104F021
:104DCF0030B406900011E060E920B433900011E098
:104DDF00702D90000EE0FBA3E0FAA3E0F9E5A0121E
:104DEF001496900012E004F090000FE475F0011299
:104DFF0014DC900013E0FEA3E0FF30B4FD80A2D2DC
:0B4E0F00B2D286126507900012E0FF8F
:014E1A002275
:0E49B300900048EBF0A3EAF0A3E9F0A3EDF0CA
:1049C100900051F0D2B2D2B4C286E4900050F0C24D
:1049D100B290004C12155C00004E2030B34990009B
:1049E10050E07043C2B2D2B490004CE0FCA3E0FDB1
:1049F100A3E0FEA3E0FFEF24FFFFEE34FFFEED3462
:104A0100FFFDEC34FFFC90004C12155090004CE07F
:104A1100FCA3E0FDA3E0FEA3E0FFEC4D4E4F70BB15
:104A2100A304F0C28280B4900050E0702920B32624
:104A3100900048E0FBA3E0FAA3E0F9121450F5A0BE
:104A4100126415900049E475F0011214DC90004BDA
:104A5100E014F0E070DA75A0FFD2B2D2B4D2867F52
:064A6100627E000263DF2B
:102FC600900022EDF090001FEBF0A3EAF0A3E9F0E9
:102FD6009000477402F0900029F0A37473F0E4A304
:102FE600F012000E900047EFF090001FE0F9A3E00A
:102FF600FAA3E090004BC9F0A3EAF0A3E9F0A3E43A
:10300600F0A3EFF07B017A0079291243C8900053B0
:1030160074FFF0A37464F0A3747BF07B017A0079EB
:10302600291256697F8D124EBA1262F7EF2430903C
:103036000023F07F89124EBA1262F7EF2430900017
:1030460024F07F87124EBA1262F7EF2430900025E3
:10305600F07F85124EBA1262F7EF2430900026F008
:103066007F83124EBA1262F7EF2430900027F0E405
:10307600A3F07B0190005304F0A37400F0A3742323
:10308600F07A00792912566990005374FFF0A37400
:1030960064F0A37480F07B017A0079291256699056
:1030A6000022E0A3F0E4A3F07B0190005304F0A318
:1030B6007400F0A37423F07A0079291256697B0113
:1030C6007A00792912000E900047EFF0E02429F5E6
:1030D60082E43400F5837403F0C2B230B3FD7B01A1
:1030E6007A007929900047E004FD1249B31264C7BB
:1030F6007B017A007929900047E004FD90004C742A
:0831060001F01255FB0264C741
:10641500C2B47F287E001263DFD2B47F287E0002DB
:0264250063DF33
:0651FF0090001FEFF0FB21
:10520500D2B4C286E4A3F0A312155C00003A988BD1
:10521500A0C2B230B343900020E0703DA3E0FCA3F0
:10522500E0FDA3E0FEA3E0FFEF24FFFFEE34FFFE69
:10523500ED34FFFDEC34FFFC900021121550900079
:1052450021E0FCA3E0FDA3E0FEA3E0FFEC4D4E4F03
:1052550070C190002004F080BA900020E0700C200E
:10526500B30990001FE0F5A0126415D2B2D2B4D2F2
:105275008675A0FF7F627E001263DF7F627E00027B
:0252850063DFE5
:0A64B400D2B4D2B2D28675A0FF2246
:10616D009000107402F0A37469F07B017A0079122B
:10617D0012448D7F8B124EBA900018EFF0A374036A
:0C618D00F07B017A0079107D0A0249B312
:1035B500E4900020F09000107402F0A37444F090A1
:1035C500008474FFF0A37464F0A37488F09001592B
:1035D500E0FFA3E0900087CFF0A3EFF07B017A0036
:1035E500791B1218D290001F7402F0900020E0247D
:1035F5001BF582E43400F583E0FF601790001FE0BF
:103605002410F582E43400F583EFF0900020E00407
:10361500F0801890001FE02410F582E43400F58353
:10362500743BF090001FE004F0800890001FE00458
:10363500F080B890008474FFF0A37464F0A37488DC
:10364500F0900155E0FFA3E0900087CFF0A3EFF0E5
:103655007B017A00791B1218D2E4900020F09000CB
:1036650020E0241BF582E43400F583E0FF60179029
:10367500001FE02410F582E43400F583EFF090009C
:1036850020E004F0801890001FE02410F582E43457
:1036950000F583743BF090001FE004F08008900073
:1036A5001FE004F080B890001FE0FD2410F582E4CF
:1036B5003400F5837403F07B017A0079100249B375
:1058B9004461746F73204D4620726573707565730A
:1058C90074613A20004461746F73204D4620456E1F
:1058D900766961646F733A20002F2A2D2D2D2D2DA5
:1058E9002D2D2D2D2D2D2D2D2D2D2D2D2D2D2D2DDF
:1058F9002D2D2D2D2D2D2D2D2D2D2D2D2D2D2D2DCF
:075909002D2D2A2F0D0A00CD
:0662B800AE07EEC313FE69
:1062BE00E4FFEFD3940774809480500D000000002B
:0962CE000000000000000F80E94F
:0162D70022A4
:10636900E4FFEFD3940474809480500D0000000082
:096379000000000000000F80E9A3
:0163820022F8
:0259B000AE0740
:1059B200C2AFC2901262BE0000AD06EE5401FE708C
:1059C20004C2908002D2901262BE7C01ECD3940792
:1059D200748094805015EDC313FD5401FE7004C20F
:1059E200908002D2901262BE0C80E1D2901262BE0E
:0559F2001262BED2AFFD
:0159F700228D
:025D0500AB07EA
:105D0700900149E06401703CEB54F0C4540FFFD399
:105D1700940974809480400674372FFF8004743090
:105D27002FFF1259B0EB540FFFD39409748094805E
:105D3700400674372FFF800474302FFF1259B07F4D
:045D4700201259B01D
:015D4B002235
:06573C009000311215502F
:10574200900031E0FCA3E0FDA3E0FEA3E0FF7818A7
:10575200121511AB07900031E0FCA3E0FDA3E0FEBF
:10576200A3E0FF7810121511A3EFF0900031E0FCD6
:10577200A3E0FDA3E0FEA3E0FF7808121511A9073C
:10578200900031A3A3A3E0FAAF03125D05900035A8
:0F579200E0FF125D05AF01125D05AF02025D057C
:0E55FB00900048EBF0A3EAF0A3E9F0A3EDF076
:10560900900149E06401705790004CE0FF3395E048
:10561900FEEF4E7BFF60067A5879B980047A587993
:10562900CE125F94E490004DF090004BE0FF9000A3
:105639004DE0C39F5024900048E0FBA3E0FAA3E0AB
:10564900F9121450FF125D05900049E475F001123A
:0F56590014DC90004DE004F080CF7F0A1259B0AE
:01566800221F
:0B5F940090004EEBF0A3EAF0A3E9F050
:105F9F00E4A3F0900149E064017027900051F09064
:105FAF00004EE0FBA3E0FAA3E0F9A3E0F5827583CE
:105FBF0000121469FF600B1259B0900051E004F009
:025FCF0080DD73
:015FD10022AD
:0964C7007BFF7A5879E2025F9430
:105287007EFF1263691262BE208005747FFF80046F
:10529700EE4480FF1262B8EE208005547FFF800342
:1052A7004480FF1262B8EE208005547FFF800344DC
:1052B70080FF1262B8EE208005547FFF8003448090
:1052C700FF1262B8EE208005547FFF80034480FF01
:1052D7001262B8EE208005547FFF80034480FF12DE
:1052E70062B8EE208005547FFF80034480FF12627E
:1052F700B8EE208005547FFF80034480FFAE07127D
:0753070062BE3080FDAF061D
:01530E00227C
:05650C00D290D28022B4
:0E48E500010B00010C00010900010A00C10BCB
:0300230002530F76
:10530F00C0E0C083C082C0D075D000C000C006C04E
:01531F000786
:10532000309845C298859908C3E509950AFFE49429
:1053300000FEEF54804E7018E509547F2422F8A631
:1053400008050974222509F87600900147E004F069
:10535000E508B4240890015B7402F0800BE508B402
:105360003C0690015B7401F030991AC299E50B6517
:105370000C6010E50C540124A2F8E6F599050CC266
:055380000B8002D20BBE
:0F538500D007D006D000D0D0D082D083D0E03275
:10619900D310AF01C3C0D0125FD2E4F50BF50CF5F3
:1061A90009F50AC29FD29EC29DD29CC298C299D2B9
:0A61B9000BD2ACD2BCD0D092AF22C2
:075FD200D310AF01C3C0D0E2
:105FD9007D007C087FA81260FFC299E4F50BF50CDF
:105FE900C28EC2AB43878053890F438920EF600A71
:105FF900758DF4758BF4D28E8008758D01758B01C2
:02600900D28E35
:05600B00D0D092AF228D
:1060C400D310AF01C3C0D09000B4EFF0126439C351
:1060D400EF94027480948040047FFF80199000B490
:1060E400E0FFE50B540124A2F8A607050B300B04CE
:0B60F400C20BD2997F00D0D092AF22E7
:1061EB00D310AF01C3C0D0126427EF70067EFF7FC0
:1061FB00FF800EAF0A050AEF547F2422F8E6FF7EDC
:06620B0000D0D092AF228A
:10642700D310AF01C3C0D0C3E509950AFFD0D092FE
:02643700AF2292
:10643900D310AF01C3C0D0C3E50B950CFFD0D092E8
:02644900AF2280
:0E649A00E4F50BF50CF509F50AC298C299223B
:10639C004C4956450A00477261626163696F6E2011
:0863AC0053657269653A200097
:0E215B0090000EEBF0A3EAF0A3E9F0A3EDF084
:102169006419704490000EE0FBA3E0FAA3E0F912B1
:102179001450640270329000021214696448702885
:10218900900011E07E0024FFF582EE34FFF5831202
:1021990014696403701290000EA3A3E02403F9E408
:1021A9003AFA124FD002613890000EE0FBA3E0FA30
:1021B900A3E0F912145064B67033900146E0C39459
:1021C900147480948040107FB6124B0DC282E49043
:1021D9000146F0C297C283900149E060030224FFDF
:1021E900900148E0640160030224FF803E90000EE4
:1021F900E0FBA3E0FAA3E0F912145064AA7040903E
:102209000146E0C394147480948050030224FFE4CF
:10221900F0C297D282C283900149E060030224FF91
:10222900900148E0640160030224FF90014904F031
:102239007BFF7A63799C125F94E4900149F02290C4
:102249000011E06401701790000EE0FBA3E0FAA30F
:10225900E0F9121450640170057FFF02236D9000AC
:1022690011E06401701790000EE0FBA3E0FAA3E00F
:10227900F9121450640270057FFE02236D9000115B
:10228900E06401701790000EE0FBA3E0FAA3E0F907
:10229900121450640470057F0402236D900011E04C
:1022A9006401701790000EE0FBA3E0FAA3E0F912B5
:1022B9001450640770057F0702236D900011E064D4
:1022C90001701790000EE0FBA3E0FAA3E0F91214E5
:1022D90050640970057F0902236D900011E06401C3
:1022E900701690000EE0FBA3E0FAA3E0F912145077
:1022F90064E770047FE7806C900011E0FF6403706D
:102309002A90000EE0FBA3E0FAA3E0F99000011285
:10231900146964557015FE74FF2FF582EE34FFF5CC
:102329008312146964037003026010900011E0FFC6
:102339006413703390000EE0FBA3E0FAA3E0F912F6
:10234900145064027021900001121469B44F187E70
:102359000074FF2FF582EE34FFF5831214696403CC
:1023690070057FFE024B0D900011E0FF641370565B
:1023790090000EE0FBA3E0FAA3E0F9121450640206
:1023890070449000011214696456703AEF24FFFFFB
:10239900E434FFFE8F82F583121469640370278F7A
:1023A900828E83E41214A8E92402F9E43AFA7FFF41
:1023B90012324CE4900011F0900146740AF07FA1AA
:1023C9001251FF0224F3900011E0FF64066003023A
:1023D900248090000EE0FBA3E0FAA3E0F912145068
:1023E900640260030224809000011214696457603A
:1023F90003022480FE74FF2FF582EE34FFF5831269
:1024090014696403707190000EA3A3900002121462
:1024190069FD7B017A007912125910900015742018
:10242900F090000EE0FBA3E0FAA3E0F9900003129C
:102439001469FD90000EA3A3900004121469900082
:1024490021F07B017A007916122500900148E06499
:1024590001701912558CEFF460077FE0124B0D8063
:102469000B7B017A00791212415780007B017A00B7
:1024790079127FB002324C900011E0FF640C705366
:1024890090000EE0FBA3E0FAA3E0F91214506402F5
:102499007041FE74FF2FF582EE34FFF58312146943
:1024A9006403702F90000EA3A3E02401F9E43AFA23
:1024B90012646B7BFF7A6379A2125F9490000EE03D
:1024C900FBA3E0FAA3E0F9A3E0FD90004C7401F04E
:1024D9000255FB90000EE0FBA3E0FAA3E0F9121409
:1024E9005064AB70117FFF124B0D9001457437F0AA
:0624F9009001507404F094
:0124FF0022BA
:1027D000466563686120696E6963696F3A20000A23
:1027E0000046656368612066696E3A2000456C208A
:1027F0007469636B6574206E6F2065732064656C0B
:10280000206469612000484F52412041484F5241A5
:102810003A2000484F52412044454C205449434BF4
:1028200045543A2000444553505545532044454CA7
:1028300020484F524152494F2050524F4752414D2C
:1028400041444F0D0A00454E20484F524152494FD6
:102850002050524F4752414D41444F0D0A005345BD
:1028600054207469636B65745F6D656D6F72696127
:10287000206772616261646F3A2000536574204E74
:10288000756D65726F206465207469636B65742073
:102890006772616261646F733A200061646472659B
:1028A00073207469636B657420656570726F6D3A2F
:1028B00020007469636B65745F6D656D6F7269612B
:1028C0003A20006F6B206573746120656E206D6522
:1028D0006D6F7269612020000D0A56656869637525
:1028E0006C6F20656E20656C206C6F6F700D0A0038
:1028F0005665686963756C6F206E6F20656E206524
:102900006C206C6F6F700D0A0D0A007472616D613E
:102910002064656C206C6563746F722064617461FF
:102920006C6F67696320636F64205152000D0A0069
:102930007472616D612064656C206C6563746F7284
:1029400020646174616C6F67696320636F642062E7
:102950006172726173007472616D612064656C20D4
:102960006C6563746F7220646174616C6F67696316
:10297000206E6F206573746120636F6D706C657479
:10298000610D0A00636F642062617272617300639B
:102990006F6420515220720A00436172726F00749A
:1029A00069706F206465207665686963756C6F3A3D
:1029B00020006C6F6E6769747564206465206C61BB
:1029C000207472616D61207469636B65743A200ACA
:1029D000006C6F6E6769747564206465206C61209B
:1029E0007472616D612066656368613A200A004611
:1029F000656368612064652073616C6964613A2075
:102A00000079612073616C696F20656C2074696363
:102A10006B657420200066696E206465206C6563B8
:102A200074757261206465207472616D610D0A00B5
:102A30005245454E564941205452414D4120505433
:0E2A40004F20504152414C454C4F0D0A200092
:0948F300420172090041015D005F
:10621100E4FF121450FDC3943074809480400AD37B
:10622100ED943974809480400A740129F9E43AFAB2
:036231000F80DFFC
:016234002247
:08634E00F02422F9E4FA7D3E7F
:10635600E4FF1214506D600A740129F9E43AFA0F49
:0263660080F0C5
:016368002212
:0B37D30090001FEBF0A3EAF0A3E9F068
:1037DE007B017A00792A124A6790002AE0FF7E0068
:1037EE007C017D6D1214CAAC06AD07A3E075F01E08
:1037FE00A42DFFEC35F0FEA3E07C002FFFEC3EFE87
:10380E00E4FD90002212155090001FE0FBA3E0FA99
:10381E00A3E0F990000112146975F01EA4FDACF03E
:10382E00C004C005121450FF7E007C017D6D121481
:10383E00CAD0E02FFFD0E03EFE9000021214691CA9
:10384E002FFFEC3EFEE4FD9000261215507BFF7A12
:10385E002779D0125F94900022E0FCA3E0FDA3E054
:10386E00FEA3E0FF12573C7BFF7A2779DF125F94AD
:10387E007BFF7A2779E1125F94900026E0FCA3E0AB
:10388E00FDA3E0FEA3E0FF12573C7BFF7A2779DF12
:10389E00125F94900022E0FCA3E0FDA3E0FEA3E003
:1038AE00FFA3E0F8A3E0F9A3E0FAA3E0FBC312152F
:1038BE0000700790003004F0800E7BFF7A2779EDC0
:0D38CE00125F94E4900030F0900030E0FFB5
:0138DB0022CA
:0B36C50090001FEBF0A3EAF0A3E9F077
:1036D0007BFF7A287906125F947F85124EBA125DBD
:1036E000057F83124EBA125D057BFF7A2779DF12C0
:1036F0005F947F85124EBAEF3395E0FE7C007D3CEF
:103700001214CAC006C0077F83124EBAEFFD33956C
:10371000E0FCD0E02DFED0E03C900023F0A3CEF002
:103720007BFF7A287913125F9490001FE0FBA3E0DF
:10373000FAA3E0F9900003121469FF126257125DB8
:103740000590001FE0FBA3E0FAA3E0F9900004124B
:103750001469FF126257125D057BFF7A2779DF1229
:103760005F9490001FE0FBA3E0FAA3E0F990000350
:10377000121469FF126257EF75F03CA4FFAEF0C05F
:1037800006C00790001FE0FBA3E0FAA3E0F9900059
:1037900004121469FF126257EFFDD0E02DFFD0E054
:1037A0003400FED3900024E09F900023E09E7BFF36
:1037B000400E7A287925125F94E4900022F0800D63
:1037C0007A287946125F949000227401F0900022CA
:0237D000E0FF18
:0137D20022D4
:0B3DC80090001FEBF0A3EAF0A3E9F06D
:103DD3007D997C087FA81260FF900022EFF0D394B6
:103DE30019748094804003023E77900053E4F0A35B
:103DF300F0A3740DF090001FE0FBA3E0FAA3E0F939
:103E0300125669900022E075F00FA4FF900173E051
:103E13002FFD900172E035F0FC90001FE0FBA3E062
:103E2300FAA3E0F97FA81251757BFF7A28795E1215
:103E33005F9490001FE0FBA3E0FAA3E0F9125F9404
:103E43007BFF7A2779DF125F94900022E004F0E091
:103E5300FB7D997C087FA8125ED87BFF7A28797B4B
:103E6300125F94900022E0FF125D057BFF7A2779B1
:103E7300DF025F94E4900022F0E075F00FA4FF905E
:103E83000173E02FFD900172E035F0FC90001FE01C
:103E9300FBA3E0FAA3E0F97FA8125175900022E09A
:0D3EA30004F0E0FB7D997C087FA8125ED83A
:013EB00022EF
:0B422D0090001FEBF0A3EAF0A3E9F003
:104238007D997C087FA81260FF90002CEFF0D39442
:10424800197480948040030242FFE490015CF0906E
:10425800002CE0FF90015CE0F9C39F40030242FF9D
:10426800E975F00FA4FFAEF090002DEEF0A3EFF08B
:104278002400FFEE3409FE7B017A0079221258618E
:104288007BFF7A28799B125F9490002DE0FEA3E0D3
:10429800FF900173E02FFF900172E03EFEE4FCFD09
:1042A80012573C7BFF7A2779DF125F947BFF7A28CD
:1042B80079B2125F947B017A007922125F947BFFB6
:1042C8007A2779DF125F9478227C007D0190001FA5
:1042D800E0FBA3E0FAA3E0F9121751EF3395E04FA2
:1042E800700C7BFF7A2879C3125F947F00229001BB
:0942F8005CE004F00242577FFF74
:014301002299
:101CF000900150E0146065147003021E23147003F9
:101D0000021E581470030220B514700302212F2400
:101D1000056003022129900145E06401600302216E
:101D20005AC29712558CEF60227BFF7A2879D8121D
:101D30005F947FFE124B0D90015DE0700B7FA0124F
:101D400051FF90015D7401F00220A87BFF7A287991
:101D5000F0125F94E490015DF0021E1A900145E0DC
:101D60006401600990015BE0700302215A90015BFD
:101D7000E0640170287BFF7A29790B125F947B0065
:101D80007A007922125F947BFF7A29792D125F9471
:101D90009001457414F09001507403F02290015B9F
:101DA000E064027060785E7C017D01FB7A0079223C
:101DB00012183A7B007A00792212000E900019EF77
:101DC000F0E0FF245DF582E43401F583E4F0D3EF25
:101DD000940A74809480400B12649A7FFE124B0D1B
:101DE0000220A87BFF7A297930125F947B017A0167
:101DF000795E125F947BFF7A29792D125F949001AE
:101E0000507402F02212649AE490015DF090015B3C
:101E1000F07BFF7A297956125F949001457403F0A4
:101E20000221297BFF7A297984125F94E490015B77
:101E3000F090001B7443F07B017A01795EFD122F54
:101E4000C6900148E0600E7B017A01795E90001B2C
:101E5000E0FD123EB102214E900145E064016003B5
:101E600002215A7BFF7A29798F125F94E490015BFB
:101E7000F0FB7A007922126211900019EF12634E82
:101E800090001AEFF090002274FFF0A37429F0A3E1
:101E90007499F07A00792212455190001CEBF0A35E
:101EA000EAF0A3E9F04A90001B60057443F0800358
:101EB000744DF07BFF7A29799F125F9490001BE0AC
:101EC000FF125D057BFF7A2779DF125F947BFF7A33
:101ED0002979B2125F94900019E0FF125D057BFF33
:101EE0007A2779DF125F9490001AE0FF125D057B7C
:101EF000FF7A2779DF125F94E490015EF090001979
:101F0000E0FF640C60030220A374222FF9E4FB902D
:101F10000022F0A3CBF0A3E9F090001AE0FF9000BC
:101F200025E4F0A3EFF07B017A01795E1256D4909C
:101F3000001AE0245EF582E43401F583E4F07B01CD
:101F40007A01795E125F947BFF7A2779DF125F94C2
:101F5000900019E02422F9E4FAFB7D3A12635690CE
:101F60000019E02F12634E90001AEFF07BFF7A29E0
:101F700079D1125F94900019E0FF125D0590001A6C
:101F8000E0FF125D057BFF7A2779DF125F949000F6
:101F900019E02424F9E4FB900022F0A3CBF0A3E99C
:101FA000F090001AE0FF900025E4F0A3EFF07B0131
:101FB0007A00790E1256D490001AE0240CF582E4CF
:101FC0003400F583E4F0900010E024D0C454F0FF16
:101FD000A3E024D04FFF1262F7900168EFF0900069
:101FE00013E024D0C454F0FFA3E024D04FFF1262CA
:101FF000F7900169EFF0900016E024D0C454F0FF90
:10200000A3E024D04FFF1262F790016AEFF0900036
:1020100019E024D0C454F0FFA3E024D04FFF126293
:10202000F790016BEFF090001CE024D0C454F0FF57
:10203000A3E024D04FFF1262F790016CEFF07BFF1A
:102040007A2979EF125F947B017A00790E125F94FE
:102050007BFF7A2779DF125F947B017A017968121E
:1020600037D3EF64016002800E7B017A0179681238
:1020700036C5EF640160077F5A124B0D80307B013B
:102080007A01795E90001BE0FD122FC6900148E0B6
:10209000600E7B017A01795E90001BE0FD123EB17B
:1020A00002214ED2AC12649A90014574C8F090019E
:1020B000507401F0227B017A01795E12422DEFF417
:1020C000701E7B017A01795E123DC8900145740350
:1020D000F012649AE490015DF0900150F0D29722E2
:1020E0007BFF7A2A7901125F947F04124B0DC2970D
:1020F000D2AC9001457403F012649AE490015DF053
:10210000900150F0900145E06401704EC297D2AC4E
:102110007BFF7A2A7916125F949001457403F012BE
:10212000649AE490015DF08001E4900150F0229007
:102130000145E0640170237BFF7A2A7930125F94B5
:102140007B017A01795E90001BE0FD122FC69001A1
:0A215000457437F09001507404F05C
:01215A002262
:100D5A00021002E86480F8E933E83360110460F0B5
:100D6A00ED33EC337009E8FCE9FDEAFEEBFF2204FF
:100D7A0060DED3EB9FEA9EE99DE8C2E78CF0C2F7FA
:100D8A0095F0400CE8CCF8E9CDF9EACEFAEBCFFBC6
:100D9A00120FCD85D0F05804700320D5B3E8047043
:100DAA00075002B2D502100C92D5EC0460F7E4CCDD
:100DBA00C0E0C398F8603B94186008400DD0E0FB8F
:100DCA00020FE4E4FBFAC9FC8028E830E406E4C92F
:100DDA00FBE4CAFCE830E305E4C9CACBFCE85407E3
:100DEA006010F8C3E913F9EA13FAEB13FBEC13FCEE
:100DFA00D8F130F52FC3E49CFCEF9BFFEE9AFEED91
:100E0A0099FDD0E0FBEF4E4D4C701222DB0302102D
:100E1A0009EC2CFCEF33FFEE33FEED33FDED30E74A
:100E2A00EB020FE4EF2BFFEE3AFEED39FDD0E0FBCB
:100E3A0050130BBB000302100CED13FDEE13FEEF73
:080E4A0013FFEC13FC020FE49E
:100E5200EC4D6011E8497017ED33EC3304600DE49A
:100E6200FCFFFEFD22E933E8330470F8021002129F
:100E72000FCD58046009E4CC2481500628500902A1
:100E8200100C284003021009C0E0EB4A7044B980FC
:100E920006D0E0FB020FF8EF4E701CBD8008EBFF9E
:100EA200EAFEE9FD80EBE98DF0A4FEE5F0020F3BDE
:100EB200E9CDF9EAFEEBFFEF89F0A4FCE5F0CE897B
:100EC200F0A42EFFE435F0CD89F0A42DFEE435F038
:100ED2008067EF4E7005BD80D780C3EF8BF0A4AC66
:100EE200F0EE8BF0A42CFCE435F0F8EF8AF0A42CA1
:100EF200E5F038FCE433CB8DF0A42CFCE5F03BF8B4
:100F0200EE8AF0A42CFCE5F038F8E433CF89F0A4A3
:100F12002CFCE5F038CF3400CE89F0A42FFFE5F0A9
:100F22003EFEE433C98DF0A42EFEE5F039CD8AF001
:100F3200A42FFFE5F03EFEE43DFD33D0E0FB500779
:100F42000BBB000F02100CEC2CFCEF33FFEE33FE58
:060F5200ED33FD020FE487
:100F580075F020800E75F010800575F0087D007E14
:100F6800007F003392D530D5031214F2EC334010D1
:100F7800EF33FFEE33FEED33FDEC33FCD5F0ED221D
:0E0F8800E5F0247EA2D513CC92E7CDCEFF2259
:100F9600EDD2E7CD33EC3392D524814006E4FFFE53
:100FA600FDFC22FCE4CFCECDCC24E0501174FF80B2
:100FB600EDC3CC13CCCD13CDCE13CECF13CF04704F
:070FC600F030D5DE0214F249
:10186D00E50D2484F582E43400F583E0050D229026
:10187D000081300703900084E475F00112158D028C
:10188D0014502000E97F2ED2008018EF540F2490C1
:10189D00D43440D4FF30040BEF24BFB41A005003EE
:1018AD002461FFE50E6002150E0511E511700205AC
:1018BD001030070E900081E475F00112158DEF02C6
:1018CD001496025F567403D2078003E4C207F50D28
:1018DD009000811215A4E4F50EF510F511E50E60DA
:1018ED00077F201218B080F5750FFFC201C200C22C
:1018FD0002C203C205C206C20812187CFF700D3069
:10190D0007057F001218C1AF11AE1022B4255FC2BA
:10191D00D5C20412187CFF24D0B40A00501A75F0F9
:10192D000A780E30D50508B6FF0106C6A426F620A6
:10193D00D5047002D20380D924CFB41A00EF50041D
:10194D00C2E5D204021BB3D20180C6D20080C0D240
:10195D000280BCD2D580BAD20580B47F201218B0D7
:10196D002002077401B50E0040F112186DFF121818
:10197D00B00218EAD208D206809512186DFB121823
:10198D006DFA12186DF94A4B700679B17A1C7BFF0E
:10199D0020022EE50E602A7E008E827583001214C1
:1019AD006960060EEE650F70F0C2D5EBC0E0EAC0BF
:1019BD00E0E9C0E0EE121C14D0E0F9D0E0FAD0E07E
:1019CD00FB121450FF60AAEBC0E0EAC0E0E9C0E0F2
:1019DD001218B0D0E02401F9D0E03400FAD0E0FBC9
:1019ED00E50F0460DCD50FD98087D20280A2121BCF
:1019FD00F660F7E50F7001041210BBA90F600DE53D
:101A0D000F600914F50F121C9EEF60F3EA30E70228
:101A1D00F404C3995079EAF4250F0430E701E40486
:101A2D00F50F800D121BF660C1EA050F250F121080
:101A3D00BBEA9000B0F030E701E4250F04D50F04A8
:101A4D0020050114121C14E4C0E0121C9E9000B07D
:101A5D00E0601320E70714F0121898802204F0D0EC
:101A6D00E014C0E07F00121898E50F600712188F80
:101A7D00150F800B30050312188FD0E00218EAD035
:101A8D00E00480C4121BF6609EE50F041210BB909B
:101A9D0000B0EAF0E50F2005026001042404121CD9
:011AAD001424
:101AAE0074FF04C0E0121C9E121898E50F20050268
:101ABE00600312188FD0E0B50FE87F451218A29080
:101ACE0000B0E07F2B30E7047F2DF404C0E0121845
:101ADE00B0D0E075F00A84C0F0121899D0E0121858
:101AEE00990218EA791080027908C206C2088008A5
:101AFE00D2D5790A8004790AC2D5E50F047002F5B1
:101B0E000FE4FAFDFEFF12186DFC7B082001131284
:101B1E00186DFD7B1030000A12186DFE12186DFF45
:101B2E007B20EC3382D592D55013C3E43000069F50
:101B3E00FFE49EFEE42001039DFDE49CFCE4CBF853
:101B4E00C201EC700CCFCECDCCE824F8F870F38047
:101B5E0017C3EF33FFEE33FEED33FDEC33FCEB3307
:101B6E00FB994002FB0FD8E9EB300105F8D0E0C439
:101B7E0048B201C0E00AEC4D4E4F78207B0070C297
:101B8E00EAB50F0040BCC0E0121C16D0F0D0E02029
:101B9E000104C4C0E0C4B201C0F0121899D0F0D54F
:101BAE00F0EB0218EA1215AD1987531AF2581958AC
:101BBE004C1954421AF64F1AFE441AFE49196D4337
:101BCE001B04551A31461A914519FB471CD1501961
:101BDE005C2D19602E19832B1964231981201CBAD0
:101BEE002A191C480000197BE50FB4FF03750F0678
:101BFE0012186DFC12186DFD12186DFE12186DFF85
:101C0E009000A90210F8790AA2D520031430050914
:101C1E00B910020404B9080104A2D520060250012D
:101C2E00042002689202B50E005034C0E07F2030CE
:101C3E0003197F30A20272067205500F121C6DC27C
:101C4E0002C206C205C2087F30800F300503E9C00C
:101C5E00E01218B0300503D0E0F9D0E0B50ECC306C
:101C6E0005177F30B9100C1218B07F583004077F5B
:101C7E00788003B908031218B03002057F2D0218C0
:101C8E00B07F202008F87F2B2006F322920280CF0F
:101C9E007F00B40700500B24A9F582E43400F583CD
:101CAE00E0FF22286E756C6C2900D20112186D307F
:101CBE0001F8C201780E30D50108F602191C2D501C
:101CCE0043495812186D2403B405004001E4901CDA
:101CDE00CC931218A1743A1218A1D203750E0402F5
:021CEE001AF2E8
:102E6000900029121550E4FFFE7D807C3F900029E0
:102E7000E0F8A3E0F9A3E0FAA3E0FB12103170063A
:102E8000900029022FBA900029E0FCA3E0FDA3E006
:102E9000FEA3E0FF121017FBA3E0FCA3E0FDA3E0FC
:102EA000FEA3E0FF121017FFB40108E4FFFE7D80CF
:102EB0007C3F22EF64046029EB64046024EBB401DE
:102EC00030E4FFFEFDFC90002DE0F8A3E0F9A3E064
:102ED000FAA3E0FB12103160084006E4FFFEFDFC9F
:102EE0002290002D12155CFFFFFFFF90002D022F96
:102EF000BAE4900031F0A3F0FFFEFDFC900029E061
:102F0000F8A3E0F9A3E0FAA3E0FB121031505F90C0
:102F1000002DE0FCA3E0FDA3E0FEA3E0FF120F966E
:102F2000900031EEF0A3EFF0FDCCEECCEC120F5D93
:102F3000C8ECC8C9EDC9CAEECACBEFCB90002DE0F2
:102F4000FCA3E0FDA3E0FEA3E0FF120D5DE4FBFAAD
:102F5000F9F8121031708A900029E0FCA3E0FDA37B
:102F6000E0FEA3E0FF1210AA900029121550900075
:102F700029E0FCA3E0FDA3E0FEA3E0FF1233AE9046
:102F8000002DE0F8A3E0F9A3E0FAA3E0FB120E5253
:102F9000124D2290002D121550900032E030E017B3
:102FA00090002DE0FCA3E0FDA3E0FEA3E0FF1210E3
:102FB000AA90002D12155090002DE0FCA3E0FDA377
:062FC000E0FEA3E0FF2289
:100FCD00E9D2E7C933E833F892D5EDD2E7CD33EC6A
:070FDD0033FC5002B2D522E3
:100FE400EC30E7100FBF000C0EBE00080DBD00046E
:100FF4000BEB6014A2D5EB13FCED92E7FD2274FF1A
:10100400FCFDFEFF22E480F8A2D574FF13FC7D8072
:03101400E480EF86
:10101700ED33EC33601004700FED547F70057402EC
:0A10270092E0227404220422E42265
:1010310074F8CC6480CCC86480C8F58204604FC366
:10104100EB9FF5F0EA9E42F0E99D42F0E89C45F005
:10105100603C501DE5825FFFE582D313CB5BCBF48F
:101061002B5582FB50280ABA002409B900200880B8
:101071001DE5825BFBE582D313CF5FCFF4C3132F52
:101081005582FF50090EBE00050DBD00010CC3EBDA
:101091009FF5F0EA9E42F0E99D42F0E89C45F06040
:0910A10007CC4820E701B3EC2262
:1010AA00ED33EC33600A047003BD8004ECB2E7FC54
:0110BA002213
:1010BB00F920E73624F950037907E4F42402FBE521
:1010CB0082158270021583DBF6E024FB501BE9606E
:1010DB0014E4F0E582158270021583E004F0B40A83
:0D10EB0008E4F0D9EE7401F00A22C2D5220B
:1010F800ED33EC3392D5FA602AB4FF33EDC2E77BC7
:10110800FF60067A11791DE4227A11792620D50428
:101118007A117921224E614E002B494E46002D4905
:101128004E4600E47A08F0A3DAFC7B00740722C07C
:1011380083C082ECC0E0EDC0E0EEC0E0EFC0E0EAC2
:1011480075F010A4CAABF075F04DA42BFBE435F094
:10115800FCEA2410FAEB34C5FBEC34D9FCEDC2E709
:10116800FF75F056A4F42411C5F0F434C58FF0A42B
:101178002AE5F03BE43CF020E7141212CDD0E0FF62
:10118800D0E0FED0E0FDD0E0FC1212008014F404A0
:101198001212CDD0E0FFD0E0FED0E0FDD0E0FC128E
:1011A8000E52D082D083E0FAEDD2E7CD33EC33246F
:1011B80082FBE4C3CF33CFCE33CECD33CD33DBF395
:1011C8007B0775F00A846004F0A31B0AE5F0F0A31E
:1011D8008FF0740AA4FFACF08EF0740AA42CFEAC55
:1011E800F050010C8DF0740AA42CFDE435F0F0A346
:0511F800DBDE7407229C
:104CEA0033DA929E35B16011377FE5FE3921848926
:104CFA003AAEC3FF3C1D955B3D6358473E75FDF0D8
:104D0A003F3172183F800000C2D502100C02100217
:104D1A00BD80FA50F3021009ED33EC330460F17BE5
:104D2A003B7AAA79B8783F120E52ED33EC3392D51A
:104D3A00247B5011A2D570DB500BED448024045023
:104D4A0004A2D580CEEFFBEEFAEDF9ECF8120F963D
:104D5A00EFF582F404FC120F62120D61C082904CCE
:104D6A00EA740912131CED33CC33D0F092D525F036
:0A4D7A00A2D57001C313CC13FD2273
:10337A003E9248DA3ECCCCCD3F2AAAAB40000000B0
:10338A003F8000003F9837F03FB504F33FD744FC35
:10339A003E3172173EB172173F0515913EDE5BD979
:1033AA00D2008002C200EDD2E7F8CD33EC330470CC
:1033BA000BBD800592D502100C02100240FBD314FB
:1033CA0060F2F5F07C3FEE7A00C39496C8948B4085
:1033DA00230AC89469C8941A401A0AC89468C894F7
:1033EA001F40110AC8945AC89425400805F07A006B
:1033FA00CDC2E7CDC0F0900033121550EA2323C0A6
:10340A00E0248AF582E43433F583121540120D6103
:10341A00ECC0E0EDC0E0EEC0E0EFC0E01215249091
