:105BBD00526563696265207472616D612070746FE6
:105BCD003A00200D0A006C6F6E676974756420646D
:0C5BDD0065206C61207472616D613A00FB
:10458A004101450A410146004101520041014700EB
:10459A004101500041014E0041015B0049013C00CC
:1045AA0000000000000000004101510641015803CB
:0645BA00410157F2C109A6
:03000B00025E375B
:105E3700C0E0C083C082900145E014F0A3E004F005
:095E4700C28DD082D083D0E0327C
:105EFA00E58954F04401F589E4F58CF58AD28C22BF
:055FB600C28DD2A922FA
:035FC400C2A9224D
:0B5F5700125CDDEFF47002EEF460F568
:015F6200221C
:0559E3009000B1EFF09F
:1059E8009000B1E0FF125B14EF3395E04F6024E4C0
:1059F8009000B2F0A3F0C39000B3E094E89000B236
:105A0800E0940350DBA3E004F070EB9000B2E004F4
:085A1800F080E39000B1E0FF13
:015A20002263
:105F0A00125FBB125F7F125F63C283D287C297227E
:104B7800E4FDFC7FA8125B4F900159E4F0A3EFF02D
:104B88007D027C007FA8125B4F900155E4F0A3EFF3
:104B9800F07D047C007FA8125B4F900153E4F0A3E2
:104BA800EFF07D067C007FA8125B4F90014CE4F08B
:104BB800A3EFF07D087C007FA8125B4F900149EFBE
:104BC800F07D0A7C007FA8125B4F900148EFF07DD2
:104BD8000C7C007FA8125B4F90014FEFF07D0E7C9C
:104BE800007FA8125B4F90014BEFF07D0B7C007F9C
:0A4BF800A8125B4F90014AEFF02273
:103DEA00125EFA125FB6125C15125C67125F0AD293
:103DFA00AF125D8F125E1D7F6112547C125F8620A6
:103E0A009103122874124B789001457403F02080B4
:103E1A003F7B017A0079001248A890000DEFF0125A
:103E2A005F767B017A00790090000DE0FD1246DC96
:103E3A007B017A00790090000DE0FD900041740149
:103E4A00F01251167B017A01793C125A21125F76DF
:103E5A0012203220B35C7B017A0179141248119046
:103E6A00000DEFF07BFF7A5B79BD125A217B017A54
:103E7A0001791490000DE0FD9000417401F0125197
:103E8A00167BFF7A5B79CF125A217BFF7A5B79D353
:103E9A00125A2190000DE0FF1257D17BFF7A5B790D
:103EAA00CF125A217B017A01791490000DE0FD129C
:083EBA001D1B1250A3023E186B
:08000300D294125FC7C29422DF
:05596500900045EFF089
:10596A00E4A3F0A3F0900045E0FFA2E713F030D7DC
:10597A0004D2958002C295120003900047E004F019
:10598A007006900046E004F0C3900047E094089047
:09599A000046E06480948040CCDA
:0159A30022E1
:0A493D00EBF0A3EAF0A3E9F07F8D90
:05494700900042EFF0BA
:10494C00D2967F037E00125E8E900042E0FF1259D9
:10495C0065E4900043F0A3F0900043E0FCA3E0FD7D
:10496C00C39408EC64809480504F30951690016D80
:10497C00E04480F0ED9406EC648094805005E0FFF8
:10498C00C313F020952090016DE0547FF0D390007C
:10499C0044E09406900043E06480948050089001B9
:1049AC006DE0FFC313F0120003900044E004F070BC
:1049BC00A7900043E004F0809FC29690016DE0FF49
:0149CC0022C8
:105C3F00900020EFF0A3EDF0D2967F037E00125E6E
:105C4F008E900020E0FF125965900021E0FF900038
:085C5F0020F0125965C29622E3
:1058A30090001EE475F0011214CA90001EE475F016
:1058B300011214CA90001EE475F0011214CA90007C
:1058C3001DE0FBA3E0FAA3E0F9121450FF900001DE
:0458D300121469FD45
:0C58D700EF540FC454F0FFED540F4FFFCE
:0158E30022A2
:104A5D0090001DEBF0A3EAF0A3E9F01258C1AD07E9
:104A6D007F86125C3F1258A3AD077F88125C3F9082
:104A7D00001EE475F0011214CA90001EE475F001D9
:104A8D001214CA1258A3AD077F8C125C3F1258A3A3
:104A9D00AD077F84125C3F1258A3AD077F82125C75
:104AAD003F1258A3AD077F80125C3F90001EE47546
:104ABD00F0011214CA90001EE475F0011214CA9090
:104ACD00001EE475F0011214CA90001DE0FBA3E076
:0F4ADD00FAA3E0F9121450540FFD7F8A025C3FD8
:105DC800AE07EEC4540F540FFE6012EF540FFFE4F9
:0D5DD800FDEDC39E5007740A2FFF0D80F4EF
:015DE500229B
:1053DC00E4FFFE90001DEDF090001DE0C39464749A
:1053EC008094804007E0249CF00F80ECEF44301256
:1053FC001496740129F9E43AFA90001DE0C3940A5A
:10540C00748094804007E024F6F00E80ECEE44307B
:10541C00121496740129F9E43AFA90001DE0443014
:03542C00021496D1
:0E232E0090001DEBF0A3EAF0A3E9F0A3EDF0A0
:10233C00E4900022F0A3F0900025F0A3F0A3F0A30A
:10234C00F0900024EDF054F0F0E0FFC4540FF09046
:10235C00002D121526404000007F007E007D807C01
:10236C0041122DFCC004C005C006C007900024E03B
:10237C00FCE4120F62D003D002D001D000120E5236
:10238C00C004C005C006C007900022E0FCA3E0FD1D
:10239C00E4120F5DD003D002D001D000120D6112F7
:1023AC000F96900022EEF0A3EFF0900020E090004A
:1023BC0024F0540FF090002D121526400000007FE1
:1023CC00007E007D807C41122DFCC004C005C0063F
:1023DC00C007900024E0FCE4120F62D003D002D0BE
:1023EC0001D000120E52C004C005C006C0079000F8
:1023FC0022E0FCA3E0FDE4120F5DD003D002D0017B
:10240C00D000120D61120F96900022EEF0A3EFF0A7
:10241C00900021E0900024F054F0F0E0FFC4540F41
:10242C00F090002D1215263F8000007F007E007D6D
:10243C00807C41122DFCC004C005C006C007900072
:10244C0024E0FCE4120F62D003D002D001D00012C1
:10245C000E52C004C005C006C007900022E0FCA3C9
:10246C00E0FDE4120F5DD003D002D001D000120DBC
:10247C0061120F96900022EEF0A3EFF0900021E095
:10248C00900024F0540FF090002D1215260000003F
:10249C00007F007E007D807C41122DFCC004C005B5
:1024AC00C006C007900024E0FCE4120F62D003D0F9
:1024BC0002D001D000120E52C004C005C006C007E5
:1024CC00900022E0FCA3E0FDE4120F5DD003D002EB
:1024DC00D001D000120D61120F96900022EEF0A3E5
:1024EC00EFF0C3EF9410EE9427401074F02FFF74AC
:1024FC00D83EFE900025E004F080E7900025E044F3
:10250C0030FD90001DE0FBA3E0FAA3E0F9ED1214FE
:10251C009690001EE475F0011214CAC3EF94E8EE15
:10252C009403401074182FFF74FC3EFE900026E0BC
:10253C0004F080E7900026E04430FD90001DE0FBA5
:10254C00A3E0FAA3E0F9ED12149690001EE475F0E6
:10255C00011214CAC3EF9464EE94004010749C2FC3
:10256C00FF74FF3EFE900027E004F080E790002708
:10257C00E04430FD90001DE0FBA3E0FAA3E0F9ED90
:10258C0012149690001EE475F0011214CAC3EF9455
:10259C000AEE9400401074F62FFF74FF3EFE90007C
:1025AC0028E004F080E7900028E04430FD90001D06
:1025BC00E0FBA3E0FAA3E0F9ED12149690001EE400
:1025CC0075F0011214CAEF4430FF90001DE0FBA31C
:1025DC00E0FAA3E0F9EF12149690001EE475F001F6
:1025EC001214CA90001DE0FBA3E0FAA3E0F9E40288
:0225FC00149633
:032AAE0090003F56
:102AB10012493DEF54F0C4540F4430FE90003FE002
:102AC100FBA3E0FAA3E0F9EE121496900040E4753E
:102AD100F0011214CAEF540F4430FF90003FE0FBA5
:102AE100A3E0FAA3E0F9EF121496900040E475F028
:102AF100011214CA7F89124947EF54F0C4540F449C
:102B010030FE90003FE0FBA3E0FAA3E0F9EE1214DF
:102B110096900040E475F0011214CAEF540F44304E
:102B2100FF90003FE0FBA3E0FAA3E0F9EF12149657
:102B3100900040E475F0011214CA7F87124947EFF3
:102B410054F0C4540F4430FE90003FE0FBA3E0FA80
:102B5100A3E0F9EE121496900040E475F00112140E
:102B6100CAEF540F4430FF90003FE0FBA3E0FAA30B
:102B7100E0F9EF121496900040E475F0011214CAC6
:102B81007F85124947EF54F0C4540F4430FE900042
:102B91003FE0FBA3E0FAA3E0F9EE121496900040A7
:102BA100E475F0011214CAEF540F4430FF90003F56
:102BB100E0FBA3E0FAA3E0F9EF121496900040E4E1
:102BC10075F0011214CA7F83124947EF54F0C454BF
:102BD1000F4430FE90003FE0FBA3E0FAA3E0F9EEE2
:102BE100121496900040E475F0011214CAEF540FCC
:102BF1004430FF90003FE0FBA3E0FAA3E0F9EF12BD
:102C01001496900040E475F0011214CA7F811249B4
:102C110047EF54F0C4540F4430FE90003FE0FBA353
:102C2100E0FAA3E0F9EE121496900040E475F00189
:102C31001214CAEF540F4430FF90003FE0FBA3E0B1
:102C4100FAA3E0F9EF121496900040E475F0011236
:102C510014CA7F8B124947EF540F4430FF90003F55
:102C6100E0FBA3E0FAA3E0F9EF121496900040E430
:102C710075F0011214CA90003FE0FBA3E0FAA3E053
:052C8100F9E4021496C5
:1041230090002A12493D90002AE0FBA3E0FAA3E0A5
:10413300F9EF12149690002BE475F0011214CA7F64
:104143008912494790002AE0FBA3E0FAA3E0F9EFC4
:1041530012149690002BE475F0011214CA7F871293
:10416300494790002AE0FBA3E0FAA3E0F9EF121419
:104173009690002BE475F0011214CA7F851249470B
:1041830090002AE0FBA3E0FAA3E0F9EF1214969063
:10419300002BE475F0011214CA7F83124947900083
:1041A3002AE0FBA3E0FAA3E0F9EF12149690002BA8
:1041B300E475F0011214CA7F8112494790002AE086
:1041C300FBA3E0FAA3E0F9EF12149690002BE47539
:1041D300F0011214CA90002AE0FBA3E0FAA3E0F96D
:0441E300E402149648
:075F7F00C294C296D29522E4
:105E8E00E4FDFCC3ED9FEC9E50070DBD00010C80A0
:015E9E00F211
:015E9F0022E0
:045E0200AB07AA063A
:105E0600900000C3E5829BE5839A500A7F967E0048
:065E1600125E8EA380ED78
:015E1C002263
:015FC70022B7
:035D4900125D27C1
:105D4C00D20AD293D292E4FFFE209205C20AC293E9
:0C5D5C00220FBF00010EBE04F0BF4CED92
:015D68002218
:035D6900125D27A1
:105D6C00D293D292D20AE4FFFE209205C20AC293C9
:0C5D7C00220FBF00010EBE02F0BF8AED36
:015D880022F8
:065FB000D29300C293220F
:105D2700E4FEEEC39408748094805015EF25E0FFDD
:105D370030D704D2928002C292D293125FB00E8003
:015D4700E17A
:015D48002238
:085EA000ECFD7C00C293C292EC
:0A5EA800D292D29300C292C293225C
:095F6D00C293C292D293D2922297
:10542F00E4FBEBFDC39408748094805038C2933032
:10543F009216900168E04401F0ED94067480948018
:10544F005006E025E0F0D293209217900168E054C7
:10545F00FEF0EBD39406748094805006E025E0F0C4
:0C546F00D2930B80BDC293900168E0FF57
:01547B00220E
:0259A400AA0750
:1059A600AF05A907125EA0AF02125D49AF05125DF1
:1059B60049AF01125D27125D4CAF03125D27125DE0
:1059C6004C125F6D7F0D7E00125E02D293D2927FE3
:0D59D600627E00125E8E7F627E00025E8E99
:025B4F00AB07A2
:105B5100AF05AA07125EA0AF03125D69AF05125D22
:105B610069AF02125D27125D6C125EA8EB04FF1291
:105B71005D27125D4CC29312542F125F6DD293D2E6
:065B810092900168E0FFB4
:015B870022FB
:10532D0090007DEEF0A3EFF0A3EBF0A3EAF0A3E97C
:01533D00F07F
:10533E0090007DE0FCA3E0FD7FA8125B4F90007F04
:10534E00E0FBA3E0FAA3E0F9EF12149690007FE0E1
:10535E00FBA3E0FAA3E0F9121450FF90007EE004E4
:10536E00F0700690007DE004F0900080E475F0018E
:06537E001214CAEF70BA20
:015384002206
:104C020090007DEFF0A3ECF0A3EDF0A3EBF0A3EAAC
:104C1200F0A3E9F0900080E0FBA3E0FAA3E0F91230
:104C22001450603CB40D04E412149690007DE0FF31
:104C3200A3E0FCA3E0FDA3E0FBA3E0FAA3E0F912EA
:104C42001450FB1259A490007FE004F0700690000B
:104C52007EE004F0900081E475F0011214CA80B481
:104C6200900080E0FBA3E0FAA3E0F9E4121496902E
:104C7200007DE0FFA3E0FCA3E0FDA3E0FBA3E0FADC
:0A4C8200A3E0F9121450FB0259A43C
:10463C0053656E736F726573204175746F207920AA
:10464C0073656E736F72312061637469766F732E4C
:10465C000053656E736F722061637469766F20739B
:10466C00656E736F7231202E0044657465637461DE
:10467C00646F2E2053656E736F72204175746F2EAC
:10468C000053656E736F726573206E6F2064657472
:10469C0065637461646F73005665686963756C6FEC
:1046AC00204573706572616E646F2053616C697222
:1046BC002E005665686963756C6F2053616C696573
:1046CC006E646F2E20556E206D6F6D656E746F006D
:075F8600C2B5C2B6C2B7228A
:075F8D00C2B5D2B6C2B72273
:075F9400C2B5C2B6D2B7226C
:075F9B00D2B5C2B6D2B72255
:075FA200C2B5D2B6D2B7224E
:075FA900D2B5D2B6D2B72237
:105DA900E4FF7DF47C01309115EFFB3395E04B70F6
:0E5DB9000DED1D70011CED4C70EC7F0180E8BB
:015DC70022B9
:105EB2007F31125FA23091010F125FA93091020F60
:015EC2000FD0
:015EC30022BC
:10518900125F9430915D125DA9EF3395E0FEEF64F3
:10519900014E7047125F9B209123125F8D7BFF2088
:1051A900910D7A46793C125A21E490014E80227A77
:1051B90046795D125A2190014E74018014125F8D57
:1051C9007BFF2091107A467975125A2190014E740D
:1051D90001F07FFF227A46798D800E7BFF7A46792E
:0F51E900A480067BFF7A4679BE125A217F0022EE
:1050A300125F8620916190000EE07014A3E07010EF
:1050B30030B35404F0125BE990000E7401F08047A2
:1050C30090000EE064017014A3E0701030B3380454
:1050D300F012343C90000E7402F0802B90000EE02E
:1050E30064027023A3E0701F30B31C04F07D667C60
:1050F300007FA8125B4FBF53047F5380027F4E1281
:105103004C8CE490000EF0125F86309105E4900021
:025113000FF09B
:015115002277
:0B48A80090000EEBF0A3EAF0A3E9F093
:1048B300E4900012F0A3740CF0900148E0640170DE
:1048C30073900011F0900013E0FF900011E0C39F7C
:1048D3005053E4FFFEFD30801DED701A0FBF000141
:1048E3000ED3EF9430EE947540EC7D01900013E00D
:1048F300900011F080E0ED6401602A124D149000E5
:104903000EE0FBA3E0FAA3E0F9EF12149690000F78
:10491300E475F0011214CA900012E004F090001143
:10492300E004F080A090000EE0FBA3E0FAA3E0F91E
:09493300E4121496900012E0FF5A
:01493C002258
:0B46DC0090000EEBF0A3EAF0A3E9F061
:1046E700E4FF7E029000021214696403701C9000BC
:1046F7000EE0FBA3E0FAA3E0F9900001121469B4FD
:104707005008D297E4900146F02290000EE0FBA3F8
:10471700E0FAA3E0F9900001121469643C7050902C
:10472700000EE0FBA3E0FAA3E0F98E827583001286
:104737001469FD743C2FF582E43401F583EDF00E26
:104747000F8E82758300121469640370D290000E75
:10475700E0FBA3E0FAA3E0F98E82758300E412146C
:0F476700A8743B2FF582E43401F583E4F0D20906
:014776002220
:0E58E40090003FEBF0A3EAF0A3E9F0A3EDF093
:1058F200E4A3F0900042E0FFA3E0C39F5024900095
:105902003FE0FBA3E0FAA3E0F9121450FF12547C2B
:10591200900040E475F0011214CA900043E004F0D4
:0259220080D132
:015924002260
:0B3EC20090001DEBF0A3EAF0A3E9F074
:103ECD0090003E7403F090002014F0125EB290004A
:103EDD0021EFF0A37453F090014EE090003E60137B
:103EED00E0FF04F074202FF582E43400F583744D67
:103EFD00F08011E0FF04F074202FF582E43400F51A
:103F0D00837443F090003E7404F090001DE0FBA319
:103F1D00E0FAA3E0F9121450FF602190003EE02476
:103F2D0020F582E43400F583EFF090001EE475F087
:103F3D00011214CA90003EE004F080CE90003EE0E5
:103F4D00FF04F074202FF582E43400F583743AF009
:103F5D0090003EE02420F9E43400FA7B01122AAEF1
:103F6D0090003EE0FF242AF582E43400F583743A94
:103F7D00F0742B2FF582E43400F5837403F07B018C
:0B3F8D007A007920EF240CFD0258E4BC
:0E3B4400900014EBF0A3EAF0A3E9F0A3EDF07B
:103B5200A37402F0125EB2900019EFF0A37453F056
:103B6200E4A3F0900017E0900037F0E4A3F07B01AB
:103B720090006504F0A37400F0A37437F07A007922
:103B8200181251F8900014E0F9A3E0FAA3E09000B3
:103B920065C9F0A3EAF0A3E9F07B017A0079181273
:103BA20051F8900037743AF0E4A3F07B019000657D
:103BB20004F0A37400F0A37437F07A00791812515C
:103BC200F87B017A00791812000E900036EFF0248B
:103BD20018F9E43400FA7B01122AAE900036E0FFB5
:103BE2002422F582E43400F583743AF074232FF52D
:103BF20082E43400F5837403F074242FF582E434F4
:103C020000F583E4F074252FF582E43400F583E4B3
:103C1200F07B017A00791812000E900036EFF0FD69
:093C22007B017A0079180258E4D4
:045FC000256C7500D7
:105F1A0090000AE41214A87D007C057FA8024C02B6
:105DE6007B017A0079697F007E0512532D7B017A4B
:0C5DF60000796912354C90006502151A06
:105A5F009000657409F0E4A3F0900066E0FFC39432
:105A6F000A748094805025900065E0C39FFFE494F2
:105A7F0000FE8F82F5831214696430700F8F828E4F
:0C5A8F00831214A8900066E004F080CDA3
:015A9B0022E8
:0B5A9C00900062EBF0A3EAF0A3E9F039
:105AA700125DE690008474FFF0A3745FF0A374C0E6
:105AB700F0A312151A900062E0FBA3E0FAA3E0F945
:105AC7001218FD900062E0FBA3E0FAA3E0F9025A86
:015AD7005F6F
:102C86004552524F523A2056414C4944414E444FC8
:102C960020504C4143412E2E2E20004552524F5279
:102CA6003A204C4F4F50312053494E2050524553F5
:102CB600454E434941205645484943554C415220CB
:102CC600004552524F523A205441524A45544120EF
:102CD600494E56414C49444120005441524A4554BC
:102CE60041204E4F2045532044454C2050415251DF
:102CF6002E20005441524A4554412053494E204605
:102D06004F524D41544F20005441524A45544120A0
:102D16004E4F205245474953545241205041474F48
:102D26002000455843454445205449454D504F20C1
:102D360044452047524143494120004655455241AA
:102D4600204445204C494E454120004143455251BF
:102D56005545205355205449434B4554200047526E
:102D6600414349415320004552524F523A2053495C
:102D76004E20494E475245534F20005449434B4538
:102D860054204E6F2E00613B30333B414345525138
:102D96005545205355205449434B45540A0000617C
:102DA6003B39313B47524143494153202E2E2E2E6B
:102DB6002E200A0000613B38373B4E4F20524547D4
:102DC6004953545241205041474F200A0000574969
:102DD6004547414E442000AA8028072000000000F5
:102DE60000140000AA8018010200AA80180202003E
:062DF600AA801801020092
:095C8F00900061E025E0FFE4FD56
:055C9800900068EDF032
:105C9D001259E3900069EFF0900068E0600AE4FFAC
:085CAD001259E3900069EFF0C9
:015CB50022CC
:0E5AD800900062EBF0A3EAF0A3E9F0A3EDF07A
:105AE600E4A3F0900062E0FBA3E0FAA3E0F99000E3
:105AF60066E0F582758300121469FF6010900065F8
:0D5B0600E0FD125C98900066E004F080D68F
:015B1300226F
:0E581800900062EBF0A3EAF0A3E9F0A3EDF03C
:10582600E4900067F0900065E0FF900067E0FEC33B
:105836009F5024900062E0FBA3E0FAA3E0F98E8279
:10584600758300121469FF900066E0FD125C989063
:075856000067E004F080CEC2
:01585D002228
:105B8800781D7C007D017BFF7A2D79DD7E007F0DFD
:105B980012142AC2877B017A007922124123C29CFF
:105BA8007B017A00791DE4900066F07D0D1258188B
:045BB800D29CD28722
:015BBC0022C6
:0B502900900062EBF0A3EAF0A3E9F0B6
:1050340012000E900066EFF0E4900065F0900066B8
:10504400E0FF900065E0C39F503DE4900067F0905E
:105054000067E0C39464748094805005E004F08099
:10506400EE900062E0FBA3E0FAA3E0F9A3E0F5828E
:10507400758300121469FF1259E3900067EFF090F2
:105084000065E004F080B6E4900067F0900067E00B
:0E509400C39464748094805005E004F080EEB4
:0150A20022EB
:0525FE0090001DEFF04C
:1026030078557C007D017BFF7A2D79EA7E007F0679
:1026130012142A785B7C007D017BFF7A2D79F07E92
:10262300007F0612142AC28790014AE06003022841
:102633002C7B017A007955FD125AD890001DE012C7
:102643001577266D50270D5A274DB626EDDF268DBB
:10265300E026ADE126CDE527AAE6272DE827CEFA29
:10266300276CFE278BFF000028297BFF7A2C7986B5
:1026730012000E900061EFF0E4FDFF125C98125C13
:102683008F7BFF7A2C79860227C77BFF7A2C79A16F
:1026930012000E900061EFF0E4FDFF125C98125CF3
:1026A3008F7BFF7A2C79A10227C77BFF7A2C79C70E
:1026B30012000E900061EFF0E4FDFF125C98125CD3
:1026C3008F7BFF7A2C79C70227C77BFF7A2C79E0AF
:1026D30012000E900061EFF0E4FDFF125C98125CB3
:1026E3008F7BFF7A2C79E00227C77BFF7A2C79F95D
:1026F30012000E900061EFF0E4FDFF125C98125C93
:102703008F7BFF7A2C79F90227C77BFF7A2D790E0D
:1027130012000E900061EFF0E4FDFF125C98125C72
:102723008F7BFF7A2D790E0227C77BFF7A2D7928BD
:1027330012000E900061EFF0E4FDFF125C98125C52
:102743008F7BFF7A2D79280227C77BFF7A2D79416A
:1027530012000E900061EFF0E4FDFF125C98125C32
:102763008F7BFF7A2D7941805B7BFF7A2D79511224
:10277300000E900061EFF0E4FDFF125C98125C8F95
:102783007BFF7A2D7951803C7BFF7A2D796412008F
:102793000E900061EFF0E4FDFF125C98125C8F7BFA
:1027A300FF7A2D7964801D7BFF7A2D796D12000EDF
:1027B300900061EFF0E4FDFF125C98125C8F7BFFE9
:1027C3007A2D796D7D01125AD8805B7B017A00796D
:1027D3001E125A9C782D7C007D017BFF7A2D798116
:1027E3001218049000657401F0A37400F0A3741E22
:1027F300F07B017A00792D1251F87B017A00792D53
:1028030012000EEF04900061F0E4FDFF125C9812D9
:102813005C8F7B017A00792D900061E0FD9000666A
:102823007401F0125818D28722C28790001DE02449
:10283300A66023245B6011047034782D7C007D0135
:102843007BFF7A2D798C801A782D7C007D017BFFAC
:102853007A2D79A5800C782D7C007D017BFF7A2D64
:1028630079BB1218047B017A00792D125029D28783
:012873002242
:0E4EA50090001DEFF0A3EBF0A3EAF0A3E9F0FC
:104EB30078217C007D017BFF7A2D79F67E007F06C9
:104EC30012142AC28790001DE0245070557B017A8A
:104ED300007921E4FD125AD87BFF7A2D79D4120090
:104EE3000E900027EFF090001EE0FBA3E0FAA3E092
:104EF300F912000E900027E02F04F0E4FDFF125C8E
:104F030098900027125C927BFF7A2D79D47D011251
:104F13005AD890001EE0FBA3E0FAA3E0F97D01124A
:044F23005AD8D287FF
:014F27002267
:100026000D0A0A25733E20002563002564000D0A8B
:100036000A2041435455414C2049445F434C4945AD
:100046004E54453D25730D0A0A000D0A0A204449FF
:1000560047495445205355204E5545564F2049444F
:100066005F434C49454E54453D000D0A0A20444124
:10007600544F204D4F444946494341444F2049443B
:100086005F434C49454E54453D25730D0A0A000D04
:100096000A0A2041435455414C20434F445F504186
:1000A600524B3D25730D0A0A000D0A0A20444947A2
:1000B600495445205355204E5545564F20434F44ED
:1000C6005F5041524B3D000D0A0A204441544F20D7
:1000D6004D4F444946494341444F20434F445F50A6
:1000E60041524B3D25730D0A0A000D0A0A20414371
:1000F6005455414C205449454D504F5F475241435A
:1001060049413D25730D0A0A000D0A0A2044494754
:10011600495445205355204E5545564F2054494580
:100126004D504F5F4752414349413D000D0A0A2059
:100136004441544F204D4F444946494341444F2082
:100146005449454D504F5F4752414349413D257300
:100156000D0A0A000D0A0A2041435455414C20530A
:10016600494E5F434F42524F20494E484142494C07
:10017600495441444F3D25730D0A0A000D0A0A20D1
:1001860041435455414C2053494E5F434F42524FD1
:10019600204752415449533D25730D0A0A000D0A62
:1001A6000A2041435455414C2053494E5F434F4228
:1001B600524F2047524154495320592053414C49EC
:1001C600444120454C204D49534D4F204449413D23
:1001D60025730D0A0A000D0A0A2044494749544569
:1001E600205355204E5545564F2053494E5F434F99
:1001F60042524F3D000D0A0A2041435455414C20BE
:10020600444542554720494E484142494C4954418C
:10021600444F3D25730D0A0A000D0A0A2041435436
:1002260055414C20444542554720484142494C4996
:100236005441444F3D25730D0A0A000D0A0A204415
:10024600494749544520454C204E5545564F204573
:10025600535441444F2044452044454255473D00B0
:100266000D0A0A2041435455414C205553455F4CD5
:10027600505220494E484142494C495441444F3D11
:1002860025730D0A0A000D0A0A2041435455414CB4
:10029600205553455F4C505220484142494C4954E1
:1002A60041444F3D25730D0A0A000D0A0A204449B0
:1002B6004749544520454C204E5545564F204553F9
:1002C6005441444F204445205553455F4C50523DC0
:1002D600000D0A0A2050414E54414C4C41204C43DB
:1002E6004420484142494C49544144413D25730DFF
:1002F6000A0A000D0A0A2050414E54414C4C412036
:100306005241535042455252592020484142494C8D
:1003160049544144413D25730D0A0A000D0A0A203D
:1003260044494749544520454C204E5545564F2093
:1003360045535441444F204445204C412050414EA2
:1003460054414C4C41203D000D0A0A20414354556E
:10035600414C20434F4D5041524143494F4E20415D
:1003660043544956412020484142494C495441444E
:10037600413D25730D0A0A000D0A0A2041435455D2
:10038600414C20434F4D5041524143494F4E20412D
:10039600435449564120494E484142494C495441EB
:1003A600444F3D25730D0A0A000D0A0A20414354A5
:1003B60055414C20434F4D5041524143494F4E20E9
:1003C6004143544956412020484142494C495441F1
:1003D600444F3D25730D0A0A000D0A0A2044494779
:1003E60049544520454C204E5545564F20455354BB
:1003F60041444F20444520434F4D504152414349CB
:100406004F4E20414354495641203D000D0A0A20D3
:1004160041435455414C20434F4D5041524143496D
:100426004F4E204143544956412020494E484142AF
:10043600494C495441444F3D25730D0A0A000D0AA3
:100446000A2041435455414C20434F4449474F20CD
:10045600444520424152524153204143544956306B
:100466003D25730D0A0A000D0A0A204143545541E1
:100476004C20434F4449474F205152204143544951
:10048600564F3D25730D0A0A000D0A0A20444947B6
:1004960049544520454C204E5545564F204553540A
:1004A60041444F20444520434F4449474F20515231
:1004B600204F20434F4449474F2044452042415254
:1004C6005241533D000D0A0A20446967697465204C
:1004D600656C206E6F6D6272652064656C20636C5E
:1004E60069656E746520000D0A0A20746578746F5C
:1004F600206772616261646F3D25730D0A0A000D03
:100506000A0A2044696769746520656C206E756DFA
:1005160065726F206465204E697420000D0A0A20FA
:100526004E49543A2025730D0A0A000D0A0A204442
:10053600696769746520656C204E6F6D627265200F
:1005460064656C20506172717565616465726F20B7
:10055600000D0A0A204E6F6D6272653A2025730DF2
:100566000A0A000D0A0A20446967697465206C61ED
:1005760020646972656363696F6E2064656C2065CB
:10058600737461626C6563696D69656E746F200072
:100596000D0A0A20446972656363696F6E3A202505
:1005A600730D0A0A000D0A0A2044696769746520FA
:1005B600656C206D736A312064656C2065737461A7
:1005C600626C6563696D69656E746F20000D0A0A59
:1005D600206D736A313A2025730D0A0A000D0A0A46
:1005E6002044696769746520656C206D736A3220E2
:1005F60064656C2065737461626C6563696D6965B9
:100606006E746F20000D0A0A2044696769746520BC
:10061600656C206D736A332064656C206573746144
:10062600626C6563696D69656E746F20000D0A0AF8
:10063600206D736A333A2025730D0A0A000D0A0AE3
:100646002044696769746520656C206D736A34207F
:1006560064656C2065737461626C6563696D696558
:100666006E746F20000D0A0A206D736A343A2025D5
:10067600730D0A0A000D0A0A204469676974652029
:10068600656C206D736A352064656C2065737461D2
:10069600626C6563696D69656E746F20000D0A0A88
:1006A600206D736A353A2025730D0A0A000D0A0A71
:1006B6002044696769746520656C206D736A36200D
:1006C60064656C2065737461626C6563696D6965E8
:1006D6006E746F20000D0A0A206D736A363A202563
:1006E600730D0A0A000D0A0A2044696769746520B9
:1006F600656C206D736A372064656C206573746160
:10070600626C6563696D69656E746F20000D0A0A17
:10071600206D736A373A2025730D0A0A000D0A20E8
:1007260049445F434C49454E544520202020090941
:10073600092D2D2D20636D642030204964656E746B
:100746006966696361646F722064656C20636C69B5
:10075600656E7465206D6178696D6F203235350080
:100766000D0A20434F445F5041524B202020202049
:10077600200909092D2D2D20636D64203120456C3B
:10078600206E756D65726F2064656C207061727184
:100796007565616465726F206D6178696D6F203271
:1007A6003535000D0A20545F475241434941202008
:1007B600202020200909092D2D2D20636D6420326B
:1007C600205469656D706F2073696E20636F627265
:1007D6006F2030302C20206D6178696D6F203235A6
:1007E60035000D0A2053494E5F434F42524F202099
:1007F6002020090909092D2D2D20636D6420332041
:10080600496E686162696C697461646F3D20302C61
:10081600204772617469733D2031202C2047726134
:1008260074697320792073616C69646120656C203A
:100836006D69736D6F206469613D2032000D0A2079
:100846004445425547202020202020202020090909
:10085600092D2D2D20636D64203420486162696C5A
:1008660069746172203D20312C20496E686162698D
:100876006C69746172203D2030000D0A2055534585
:100886005F4C5052202020202020200909092D2DC0
:100896002D20636D64203520486162696C6974613E
:1008A60072203D20312C20496E686162696C697442
:1008B6006172203D2030000D0A205449504F5F5090
:1008C600414E54414C4C41202020202020092D2D02
:1008D6002D20636D6420362050414E54414C4C41CE
:1008E600204C4344203D302050414E54414C4C4115
:1008F600205241535042455252493D31000D0A2083
:10090600434F4D5041524143494F4E5F4143544935
:10091600564120092D2D2D20636D64203720486116
:1009260062696C69746172203D20312C20496E68C1
:100936006162696C69746172203D2030000D0A2085
:1009460051525F434F445F4241525241532009097D
:10095600092D2D2D20636D64203820486162696C55
:1009660069746172205152203D20312C2048616209
:10097600696C6974617220434F445F42415252412F
:1009860053203D2030000D0A20434C49454E544526
:10099600202020202020200909092D2D2D20636DDF
:1009A600642039204E6F6D6272652064656C206329
:1009B6006C69656E7465000D0A204E49542020202E
:1009C600202020202020202009202020202D2D2D11
:1009D60020636D64203130204E756D65726F206422
:1009E600656C206E6974000D0A204E4F4D5F5041B4
:1009F600525120202020202009202020202D2D2D7E
:100A060020636D64203131204E6F6D627265206403
:100A1600656C20706172717565616465726F000D39
:100A26000A20444952454343494F4E20202020097D
:100A36002020202020202D2D2D20636D6420313292
:100A4600204E6F6D6272652064656C2070617271F4
:100A56007565616465726F000D0A204D534A5F31FA
:100A660020202020202020202009202020202D2D7D
:100A76002D20636D64203133206D736A20646520F8
:100A8600696E666F726D6163696F6E2064656C2056
:100A9600706172717565616465726F000D0A204D33
:100AA600534A5F32202020202020202020092020A9
:100AB60020202D2D2D20636D64203134206D736A26
:100AC60020646520696E666F726D6163696F6E2062
:100AD60064656C20706172717565616465726F0022
:100AE6000D0A204D534A5F3320202020202020204D
:100AF6002009202020202D2D2D20636D64203135E6
:100B0600206D736A20646520696E666F726D61631D
:100B1600696F6E2064656C207061727175656164C1
:100B260065726F000D0A204D534A5F342020202045
:100B360020202020092020202020202D2D2D20635C
:100B46006D64203136206D736A20646520696E6697
:100B56006F726D6163696F6E2064656C207061727F
:100B6600717565616465726F000D0A204D534A5FA9
:100B76003520202020202020200920202020202071
:100B86002D2D2D20636D64203137206D736A20640E
:100B96006520696E666F726D6163696F6E2064654C
:100BA6006C20706172717565616465726F000D0A03
:100BB600204D534A5F362020202020202020092067
:100BC60020202020202D2D2D20636D6420313820FB
:100BD6006D736A20646520696E666F726D61636904
:100BE6006F6E2064656C20706172717565616465F5
:100BF600726F000D0A204D534A5F372020202020B7
:100C06002020202009202020202D2D2D20636D64FA
:100C1600203139206D736A20646520696E666F72B3
:100C26006D6163696F6E2064656C207061727175A9
:100C360065616465726F000D0A2041595544412073
:100C4600202020202020202009202020202D2D2D8E
:100C560020636D64203230204D7565737472612097
:100C66006C6F7320636F6D616E646F73000D0A2085
:100C760053414C49522020202020202020200920AA
:100C86002020202D2D2D20636D64203231205361CC
:100C96006C69722064652070726F6772616D616342
:100CA600696F6E000D0A0A53697374656D6120647D
:100CB600652050726F6772616D6163696F6E205651
:100CC60065726966696361646F720D0A0D0A000DCB
:100CD6000A0A2F3E5573756172696F3A000D0A0A4A
:100CE600206461746F732064656C20627566666546
:100CF600722072782025730D0A0A000D0A0A2064F4
:100D060061746F732064656C206275666665722017
:100D160074782025730D0A0A000D0A0A2F3E5061C9
:100D26007373776F72643A00313233343536000D9F
:100D36000A436F6D616E646F206E6F20657869730C
:100D46007465202725732700200D0A00200D0A0050
:040D5600220D0A0060
:1045C0005400BE2F000000000000000000000000AA
:1045D000000000000000004900B561646D696E00D4
:1045E000000000604200D2300000310000320000C4
:1045F000330000340000350000360000370000387A
:1046000000003900003130003131003132003133E7
:104610000031340031350031360031370031380097
:0946200031390032300032310062
:0B52CB0090003FEBF0A3EAF0A3E9F035
:1052D600E4900045F0900045E0FFC3941674809476
:1052E600805041EF75F003A424D2F9740035F0FA2A
:1052F6007B0178427C007D0112180478427C007D97
:105306000190003FE0FBA3E0FAA3E0F912171BEFC0
:105316003395E04F7006900045E0FF22900045E08F
:0653260004F080B17FFFDE
:01532C00225E
:0B585E0090000EE0FBA3E0FAA3E0F9CD
:0B58690090003FEBF0A3EAF0A3E9F091
:1058740078427C007D017B017A0079B512180478A6
:10588400427C007D0190003FE0FBA3E0FAA3E0F935
:0E58940012171BEF3395E04F7002FF227FFFCB
:0158A20022E3
:065925007B017A00792BE2
:0B592B0090003FEBF0A3EAF0A3E9F0CE
:1059360078427C007D017BFF7A0D794E7E007F04E4
:1059460012142A90004D7401F0A37400F0A374425F
:0F595600F090003FE0FBA3E0FAA3E0F9023C2B46
:1049CD00E0FBA3E0FAA3E02FF9EA3EFAE92401F9AE
:0349DD00E43AFABF
:0B49E00090003FEBF0A3EAF0A3E9F029
:1049EB0078427C007D017BFF7A0D79527E007F043B
:1049FB0012142A78467C007D017BFF7A0D79567E56
:104A0B00007F0412142A90003FE0FBA3E0FAA3E01E
:104A1B00F9121450FFB4200C900040E475F0011211
:104A2B0014CA80E2EF90004DB4220D7401F0A37410
:104A3B0000F0A37446F080167401F0A37400F0A389
:104A4B007442F090003FE0FBA3E0FAA3E0F9123CC4
:014A5B002B2F
:014A5C002237
:105E50009000847401F0A37400F0A374BEF07BFF83
:075E60007A00792602190304
:084FA9007A00792B7B01E4FD85
:0E4FB10090007DEBF0A3EAF0A3E9F0A3EDF091
:104FBF00125F5790007DE0FBA3E0FAA3E0F9EF1238
:104FCF001496900080E0701D90007DE0FBA3E0FA46
:104FDF00A3E0F9121450900084F07BFF7A00792E31
:104FEF0012190380057F2A1259E390007DE0FBA37D
:104FFF00E0FAA3E0F9121450FF7E0090007EE475F2
:10500F00F0011214CA90007DE0FBA3E0FAA3E0F9CF
:09501F00E4121496EF640D709781
:015028002265
:10442000E4FDFC7FA8125B4F7E00900049EEF0A3F4
:10443000EFF090008474FFF0A37400F0A37431F0E7
:10444000A3EEF0A3EFF07B017A00793F1218FD9004
:1044500000847401F0A37400F0A3743FF07BFF7A32
:104460000079341219037BFF7A0079501219037A0C
:1044700000793F124FAD7B017A00793F123D0F90DA
:104480000049EEF0A3EFF0FBE4FDFC7FA81259A475
:10449000E4FDFC7FA8125B4F7E00900049EEF0A384
:1044A000EFF090008474FFF0A37400F0A37431F077
:1044B000A3EEF0A3EFF07B017A00793F1218FD9094
:1044C00000847401F0A37400F0A3743FF07BFF7AC2
:0644D000007970021903DF
:1042A6007D027C007FA8125B4F7E00900049EEF0F5
:1042B600A3EFF090008474FFF0A37400F0A37431B0
:1042C600F0A3EEF0A3EFF07B017A00793F1218FD20
:1042D6009000847401F0A37400F0A3743FF07BFF98
:1042E6007A0079951219037BFF7A0079AF121903C8
:1042F6007B017A00793FE4FD124FB17B017A0079A8
:104306003F123D0F900049EEF0A3EFF0FB7D027CDB
:10431600007FA81259A47D027C007FA8125B4F7E05
:1043260000900049EEF0A3EFF090008474FFF0A334
:104336007400F0A37431F0A3EEF0A3EFF07B017AE2
:1043460000793F1218FD9000847401F0A37400F008
:0D435600A3743FF07BFF7A0079CD021903BC
:104363007D047C007FA8125B4F7E00900049EEF035
:10437300A3EFF090008474FFF0A37400F0A37431F2
:10438300F0A3EEF0A3EFF07B017A00793F1218FD62
:104393009000847401F0A37400F0A3743FF07BFFDA
:1043A3007A0079F01219037BFF7A01790F1219034E
:1043B3007B017A00793FE4FD124FB17B017A0079EA
:1043C3003F123D0F900049EEF0A3EFF0FB7D047C1C
:1043D300007FA81259A47D047C007FA8125B4F7E46
:1043E30000900049EEF0A3EFF090008474FFF0A377
:1043F3007400F0A37431F0A3EEF0A3EFF07B017A25
:1044030000793F1218FD9000847401F0A37400F04A
:0D441300A3743FF07BFF7A01793202190398
:1030AA007D067C007FA8125B4F7E00900049EEF0FF
:1030BA00A3EFF090008474FFF0A37400F0A37431BE
:1030CA00F0A3EEF0A3EFF07B017A00793F1218FD2E
:1030DA00900049E07002A3E0701590008404F0A308
:1030EA007400F0A3743FF07BFF7A01795A8035901F
:1030FA000049E07004A3E06401701590008404F0B4
:10310A00A37400F0A3743FF07BFF7A0179828014E4
:10311A009000847401F0A37400F0A3743FF07BFF65
:10312A007A0179A41219037BFF7A0179DC12190357
:10313A007B017A00793FE4FD124FB17B017A007975
:10314A003F123D0F900049EEF0A3EFF0FB7D067CA5
:10315A00007FA81259A47D067C007FA8125B4F7ECF
:10316A0000900049EEF0A3EFF090008474FFF0A302
:10317A007400F0A37431F0A3EEF0A3EFF07B017AB0
:10318A0000793F1218FD900049E07002A3E0701523
:10319A0090008404F0A37400F0A3743FF07BFF7ADC
:1031AA0001795A8035900049E07004A3E064017007
:1031BA001590008404F0A37400F0A3743FF07BFF21
:1031CA007A01798280149000847401F0A37400F06B
:0D31DA00A3743FF07BFF7A0179A412190362
:0131E70022C5
:103658007D087C007FA8125B4F7E00900049EEF049
:10366800A3EFF090008474FFF0A37400F0A374310A
:10367800F0A3EEF0A3EFF07B017A00793F1218FD7A
:10368800900049E07002A3E0701590008404F0A354
:103698007400F0A3743FF07BFF7A0179FB801490EB
:1036A80000847401F0A37400F0A3743FF07BFF7AE8
:1036B80002791F1219037BFF7A0279411219037BE1
:1036C800017A00793FE4FD124FB17B017A00793F1E
:1036D800123D0F900049EEF0A3EFF0FB7D087C004F
:1036E8007FA81259A47D087C007FA8125B4F7E003A
:1036F800900049EEF0A3EFF090008474FFF0A374FB
:1037080000F0A37431F0A3EEF0A3EFF07B017A0090
:10371800793F1218FD900049E07002A3E0701590FF
:10372800008404F0A37400F0A3743FF07BFF7A01D7
:1037380079FB80149000847401F0A37400F0A374E2
:0B3748003FF07BFF7A02791F1219038B
:013753002253
:103754007D0A7C007FA8125B4F7E00900049EEF04A
:10376400A3EFF090008474FFF0A37400F0A374310D
:10377400F0A3EEF0A3EFF07B017A00793F1218FD7D
:10378400900049E07002A3E0701590008404F0A357
:103794007400F0A3743FF07BFF7A02796680149082
:1037A40000847401F0A37400F0A3743FF07BFF7AEB
:1037B40002798C1219037BFF7A0279B01219037B08
:1037C400017A00793FE4FD124FB17B017A00793F21
:1037D400123D0F900049EEF0A3EFF0FB7D0A7C0050
:1037E4007FA81259A47D0A7C007FA8125B4F7E003B
:1037F400900049EEF0A3EFF090008474FFF0A374FE
:1038040000F0A37431F0A3EEF0A3EFF07B017A0093
:10381400793F1218FD900049E07002A3E070159002
:10382400008404F0A37400F0A3743FF07BFF7A02D9
:10383400796680149000847401F0A37400F0A3747A
:0B3844003FF07BFF7A02798C12190321
:01384F002256
:103850007D0B7C007FA8125B4F7E00900049EEF04C
:10386000A3EFF090008474FFF0A37400F0A3743110
:10387000F0A3EEF0A3EFF07B017A00793F1218FD80
:10388000900049E07002A3E0701590008404F0A35A
:103890007400F0A3743FF07BFF7A0279D780149014
:1038A00000847401F0A37400F0A3743FF07BFF7AEE
:1038B0000279F91219037BFF7A0379221219037B2B
:1038C000017A00793FE4FD124FB17B017A00793F24
:1038D000123D0F900049EEF0A3EFF0FB7D0B7C0052
:1038E0007FA81259A47D0B7C007FA8125B4F7E003D
:1038F000900049EEF0A3EFF090008474FFF0A37401
:1039000000F0A37431F0A3EEF0A3EFF07B017A0096
:10391000793F1218FD900049E07002A3E070159005
:10392000008404F0A37400F0A3743FF07BFF7A02DC
:1039300079D780149000847401F0A37400F0A3740C
:0B3940003FF07BFF7A03794E12190361
:01394B002259
:10394C007D0C7C007FA8125B4F7E00900049EEF04E
:10395C00A3EFF090008474FFF0A37400F0A3743113
:10396C00F0A3EEF0A3EFF07B017A00793F1218FD83
:10397C00900049E07002A3E0701590008404F0A35D
:10398C007400F0A3743FF07BFF7A03797E8014906F
:10399C0000847401F0A37400F0A3743FF07BFF7AF1
:1039AC000379AF1219037BFF7A0379DF1219037BBA
:1039BC00017A00793FE4FD124FB17B017A00793F27
:1039CC00123D0F900049EEF0A3EFF0FB7D0C7C0054
:1039DC007FA81259A47D0C7C007FA8125B4F7E003F
:1039EC00900049EEF0A3EFF090008474FFF0A37404
:1039FC0000F0A37431F0A3EEF0A3EFF07B017A009A
:103A0C00793F1218FD900049E07002A3E070159008
:103A1C00008404F0A37400F0A3743FF07BFF7A04DD
:103A2C00791280149000847401F0A37400F0A374D4
:0B3A3C003FF07BFF7A0379AF12190303
:013A4700225C
:103A48007D0E7C007FA8125B4F7E00900049EEF04F
:103A5800A3EFF090008474FFF0A37400F0A3743116
:103A6800F0A3EEF0A3EFF07B017A00793F1218FD86
:103A7800900049E07002A3E0701590008404F0A360
:103A88007400F0A3743FF07BFF7A047944801490AB
:103A980000847401F0A37400F0A3743FF07BFF7AF4
:103AA80004796D1219037BFF7A04798F1219037B4D
:103AB800017A00793FE4FD124FB17B017A00793F2A
:103AC800123D0F900049EEF0A3EFF0FB7D0E7C0055
:103AD8007FA81259A47D0E7C007FA8125B4F7E0040
:103AE800900049EEF0A3EFF090008474FFF0A37407
:103AF80000F0A37431F0A3EEF0A3EFF07B017A009D
:103B0800793F1218FD900049E07002A3E07015900B
:103B1800008404F0A37400F0A3743FF07BFF7A04E0
:103B2800794480149000847401F0A37400F0A374A5
:0B3B38003FF07BFF7A04796D12190347
:013B4300225F
:1054C4007BFF7A0479CB1219037B017A00793FE4DC
:1054D400FD124FB17B017A00793F7D107C007FA8DB
:1054E400124C027B017A00793F7F107E0012532D0B
:1054F4009000847401F0A37400F0A3743FF07BFF68
:075504007A0479ED0219039E
:10550B007BFF7A0579051219037B017A00793FE459
:10551B00FD124FB17B017A00793F7D407C007FA863
:10552B00124C027B017A00793F7F407E0012532D93
:10553B009000847401F0A37400F0A3743FF07BFF20
:07554B007A05792202190321
:105552007BFF7A0579311219037B017A00793FE4E6
:10556200FD124FB17B017A00793F7D507C007FA80C
:10557200124C027B017A00793F7F507E0012532D3C
:105582009000847401F0A37400F0A3743FF07BFFD9
:075592007A057957021903A5
:105599007BFF7A0579691219037B017A00793FE467
:1055A900FD124FB17B017A00793F7D807C007FA895
:1055B900124C027B017A00793F7F807E0012532DC5
:1055C9009000847401F0A37400F0A3743FF07BFF92
:0755D9007A0579960219031F
:1055E0007BFF7A0579AB1219037B017A00793FE4DE
:1055F000FD124FB17B017A00793F7DB07C007FA81E
:10560000124C027B017A00793F7FB07E0012532D4D
:105610009000847401F0A37400F0A3743FF07BFF4A
:075620007A0579D30219039A
:105627007BFF7A0579E31219037B017A00793FE45E
:10563700FD124FB17B017A00793F7DF17C007FA895
:10564700124C027B017A00793F7FF17E0012532DC5
:105657009000847401F0A37400F0A3743FF07BFF03
:075667007A0579D302190353
:10566E007BFF7A06790B1219037B017A00793FE4EE
:10567E00FD124FB17B017A00793F7D327C017FA80C
:10568E00124C027B017A00793F7F327E0112532D3C
:10569E009000847401F0A37400F0A3743FF07BFFBC
:0756AE007A067933021903AB
:1056B5007BFF7A0679431219037B017A00793FE46F
:1056C500FD124FB17B017A00793F7D737C017FA884
:1056D500124C027B017A00793F7F737E0112532DB4
:1056E5009000847401F0A37400F0A3743FF07BFF75
:0756F5007A06796B0219032C
:1056FC007BFF7A06797B1219037B017A00793FE4F0
:10570C00FD124FB17B017A00793F7DB47C017FA8FB
:10571C00124C027B017A00793F7FB47E0112532D2B
:10572C009000847401F0A37400F0A3743FF07BFF2D
:07573C007A0679A3021903AC
:105743007BFF7A0679B31219037B017A00793FE470
:10575300FD124FB17B017A00793F7DF57C017FA873
:10576300124C027B017A00793F7FF57E0112532DA3
:105773009000847401F0A37400F0A3743FF07BFFE6
:075783007A0679DB0219032D
:10578A007BFF7A0679EB1219037B017A00793FE4F1
:10579A00FD124FB17B017A00793F7D367C027FA8EA
:1057AA00124C027B017A00793F7F367E0212532D1A
:1057BA009000847401F0A37400F0A3743FF07BFF9F
:0757CA007A077913021903AD
:103F98007BFF7A0779231219037BFF7A0779661268
:103FA80019037BFF7A0779A91219037BFF7A07792E
:103FB800E81219037BFF7A0879431219037BFF7A09
:103FC8000879801219037BFF7A0879BD1219037BDF
:103FD800FF7A0979031219037BFF7A0979431219C9
:103FE800037BFF7A09798C1219037BFF7A0979BD63
:103FF8001219037BFF7A0979ED1219037BFF7A0AFC
:1040080079251219037BFF7A0A795E1219037BFF5F
:104018007A0A79A21219037BFF7A0A79E612190340
:104028007BFF7A0B792A1219037BFF7A0B796F12BF
:1040380019037BFF7A0B79B41219037BFF7A0B798A
:10404800F91219037BFF7A0C793D1219037BFF7A69
:064058000C79730219034C
:102874007BFF7A0C79AA1219037BFF7A0C79D512A3
:102884001903125F49124FA912592590000EEBF05B
:10289400A3EAF0A3E9F0900084E4F0A37400F0A3A9
:1028A4007422F07BFF7A0C79E3121903900084E41C
:1028B400F0A37400F0A374A2F07BFF7A0D790112E7
:1028C400190312585EEF70B17BFF7A0D791F12194C
:1028D400037B017A00792B7D01124FB112592590A7
:1028E400000EEBF0A3EAF0A3E9F078B57C007D01DB
:1028F4007BFF7A0D792E12180412585EEF70C9020C
:102904002A86125E50124FA912592590000EEBF040
:10291400A3EAF0A3E9F012000E90000E1249CD9044
:102924000011EBF0A3EAF0A3E9F012000E900011FD
:102934001249CD900014EBF0A3EAF0A3E9F0900063
:1029440011E0FBA3E0FAA3E0F9EA494B6017121483
:1029540050B42F1178177C007D01900011A3A3E0DF
:10296400121804803D900011E0FBA3E0FAA3E0F903
:10297400EA494B602D78177C007D017B017A007950
:10298400BE121804900011E0F9A3E0FAA3E090004D
:1029940065C9F0A3EAF0A3E9F07B017A0079171284
:1029A40051F890000EE0FBA3E0FAA3E0F9EA494BEA
:1029B40070030229061252CBEFB416004003022A18
:1029C4008C9029CCF8282873022A0E022A14022A91
:1029D4001A022A20022A26022A2C022A32022A3821
:1029E400022A3E022A44022A4A022A50022A560293
:1029F4002A5C022A62022A68022A6E022A74022AC5
:102A04007A022A80022A86022AAD1244200229066A
:102A14001242A60229061243630229061230AA02B0
:102A2400290612365802290612375402290612388A
:102A34005002290612394C022906123A4802290684
:102A44001254C402290612550B02290612555202C9
:102A540029061255990229061255E0022906125632
:102A64002702290612566E0229061256B5022906B5
:102A74001256FC02290612574302290612578A02EB
:102A84002906123F9802290690000EE0F9A3E0FA05
:102A9400A3E0900084C9F0A3EAF0A3E9F07BFF7AF5
:092AA4000D79351219030229060F
:012AAD002206
:105F2A002D30732D002D31313131312E0025640091
:0B48110090000EEBF0A3EAF0A3E9F02A
:10481C00900013E4F0A37498F0125FC4E4900012BB
:10482C00F0C286900011F0C2B2900013E0FEA3E03B
:10483C00FF20B35B900011E07055900013E0FEA3D5
:10484C00E0FFEF1F70011EEF4E700590001104F099
:10485C0030B406900011E060E920B433900011E010
:10486C00702D90000EE0FBA3E0FAA3E0F9E5A01296
:10487C001496900012E004F090000FE475F0011211
:10488C0014CA900013E0FEA3E0FF30B4FD80A2D266
:0B489C00B2D286125FB6900012E0FF5F
:0148A70022EE
:0E44D60090003DEBF0A3EAF0A3E9F0A3EDF0B7
:1044E400900046F0D2B2D2B4C286E4900045F0C245
:1044F400B290004112152600004E2030B3499000BE
:1045040045E07043C2B2D2B4900041E0FCA3E0FDA8
:10451400A3E0FEA3E0FFEF24FFFFEE34FFFEED3443
:10452400FFFDEC34FFFC90004112151A900041E0AD
:10453400FCA3E0FDA3E0FEA3E0FFEC4D4E4F70BBF7
:10454400A304F0C28280B4900045E0702920B32611
:1045540090003DE0FBA3E0FAA3E0F9121450F5A0AB
:10456400125EC490003EE475F0011214CA9000403B
:10457400E014F0E070DA75A0FFD2B2D2B4D2867F34
:06458400627E00025E8E63
:102F6200900017EDF0900014EBF0A3EAF0A3E9F063
:102F720090003C7402F090001EF0A37473F0E4A37E
:102F8200F012000E90003CEFF0900014E0F9A3E084
:102F9200FAA3E0900040C9F0A3EAF0A3E9F0A3E4A9
:102FA200F0A3EFF07B017A00791E12405E9000657B
:102FB20074FFF0A3745FF0A3742AF07B017A0079A6
:102FC2001E1251F87F8D124947125DC8EF243090CE
:102FD2000018F07F89124947125DC8EF2430900033
:102FE20019F07F87124947125DC8EF243090001A0A
:102FF200F07F85124947125DC8EF243090001BF024
:103002007F83124947125DC8EF243090001CF0E420
:10301200A3F07B0190006504F0A37400F0A3741880
:10302200F07A00791E1251F890006574FFF0A374D3
:103032005FF0A3742FF07B017A00791E1251F89091
:103042000017E0A3F0E4A3F07B0190006504F0A375
:103052007400F0A37418F07A00791E1251F87B0103
:103062007A00791E12000E90003CEFF0E0241EF56B
:1030720082E43400F5837403F0C2B230B3FD7B0105
:103082007A00791E90003CE004FD1244D6125F766D
:103092007B017A00791E90003CE004FD90004174AF
:0830A20001F0125116025F76E5
:105EC400C2B47F287E00125E8ED2B47F287E000288
:025ED4005E8EE0
:064C8C0090001DEFF0FB9B
:104C9200D2B4C286E4A3F0A312152600003A988B80
:104CA200A0C2B230B34390001EE0703DA3E0FCA36B
:104CB200E0FDA3E0FEA3E0FFEF24FFFFEE34FFFEE2
:104CC200ED34FFFDEC34FFFC90001F12151A90002A
:104CD2001FE0FCA3E0FDA3E0FEA3E0FFEC4D4E4F7E
:104CE20070C190001E04F080BA90001EE0700C208B
:104CF200B30990001DE0F5A0125EC4D2B2D2B4D2C4
:104D02008675A0FF7F627E00125E8E7F627E000249
:024D12005E8EB3
:0A5F6300D2B4D2B2D28675A0FF229C
:105BE9009000107402F0A37469F07B017A007912B5
:105BF9001241237F8B124947900018EFF0A37403D9
:0C5C0900F07B017A0079107D0A0244D67D
:10343C00E4900020F09000107402F0A37444F0901B
:10344C00008474FFF0A3745FF0A37437F0900159FB
:10345C00E0FFA3E0900087CFF0A3EFF07B017A00B0
:10346C00791B1218FD90001F7402F0900020E024CC
:10347C001BF582E43400F583E0FF601790001FE039
:10348C002410F582E43400F583EFF0900020E00482
:10349C00F0801890001FE02410F582E43400F583CE
:1034AC00743BF090001FE004F0800890001FE004D3
:1034BC00F080B890008474FFF0A3745FF0A37437AD
:1034CC00F0900155E0FFA3E0900087CFF0A3EFF060
:1034DC007B017A00791B1218FDE4900020F090001B
:1034EC0020E0241BF582E43400F583E0FF601790A4
:1034FC00001FE02410F582E43400F583EFF0900017
:10350C0020E004F0801890001FE02410F582E434D1
:10351C0000F583743BF090001FE004F080089000ED
:10352C001FE004F080B890001FE0FD2410F582E449
:10353C003400F5837403F07B017A0079100244D6D1
:105385004461746F73204D46207265737075657343
:1053950074613A20004461746F73204D4620456E58
:1053A500766961646F733A20002F2A2D2D2D2D2DDE
:1053B5002D2D2D2D2D2D2D2D2D2D2D2D2D2D2D2D18
:1053C5002D2D2D2D2D2D2D2D2D2D2D2D2D2D2D2D08
:0753D5002D2D2A2F0D0A0007
:065D8900AE07EEC313FE9D
:105D8F00E4FFEFD3940774809480500D000000005F
:095D9F000000000000000F80E983
:015DA80022D8
:105E1D00E4FFEFD3940474809480500D00000000D3
:095E2D000000000000000F80E9F4
:015E36002249
:02547C00AE0779
:10547E00C2AFC290125D8F0000AD06EE5401FE70F9
:10548E0004C2908002D290125D8F7C01ECD39407FF
:10549E00748094805015EDC313FD5401FE7004C248
:1054AE00908002D290125D8F0C80E1D290125D8FAF
:0554BE00125D8FD2AF6A
:0154C30022C6
:0257D100AB0724
:1057D300900149E06401703CEB54F0C4540FFFD3D3
:1057E300940974809480400674372FFF80047430CA
:1057F3002FFF12547CEB540FFFD3940974809480D1
:10580300400674372FFF800474302FFF12547C7FBF
:045813002012547C8F
:01581700226E
:0E51160090003DEBF0A3EAF0A3E9F0A3EDF06A
:10512400900149E06401705C900041E0FF3395E038
:10513400FEEF4E7BFF60067A53798580047A5379BB
:105144009A125A21E4900042F0900040E0FF90004F
:1051540042E0C39F502490003DE0FBA3E0FAA3E0AB
:10516400F9121450FF1257D190003EE475F0011269
:1051740014CA900042E004F080CF7F0D12547C7F6B
:045184000A12547C3B
:015188002204
:0B5A2100900043EBF0A3EAF0A3E9F0D3
:105A2C00E4A3F0900149E064017027900046F090E7
:105A3C000043E0FBA3E0FAA3E0F9A3E0F582758351
:105A4C0000121469FF600B12547C900046E004F0C5
:025A5C0080DDEB
:015A5E002225
:095F76007BFF7A5379AE025A2137
:104D14007EFF125E1D125D8F208005747FFF80046C
:104D2400EE4480FF125D89EE208005547FFF8003EE
:104D34004480FF125D89EE208005547FFF80034488
:104D440080FF125D89EE208005547FFF800344803C
:104D5400FF125D89EE208005547FFF80034480FFAD
:104D6400125D89EE208005547FFF80034480FF128A
:104D74005D89EE208005547FFF80034480FF125D2F
:104D840089EE208005547FFF80034480FFAE071224
:074D94005D8F3080FDAF06CA
:014D9B0022F5
:055FBB00D290D280220B
:0E462900010B00010C00010900010A00C10B89
:03002300024D9CEF
:104D9C00C0E0C083C082C0D075D000C000C006C0C7
:014DAC0007FF
:104DAD00309845C298859908C3E509950AFFE494A2
:104DBD0000FEEF54804E7018E509547F2422F8A6AA
:104DCD0008050974222509F87600900147E004F0E2
:104DDD00E508B4240890015B7402F0800BE508B47B
:104DED003C0690015B7401F030991AC299E50B6590
:104DFD000C6010E50C540124A2F8E6F599050CC2DF
:054E0D000B8002D20B36
:0F4E1200D007D006D000D0D0D082D083D0E032ED
:105C1500D310AF01C3C0D0125C67E4F50BF50CF5EA
:105C250009F50AC29FD29EC29DD29CC298C299D242
:0A5C35000BD2ACD2BCD0D092AF224B
:105C6700D310AF01C3C0D0C299E4F50BF50CC28EB7
:105C7700C2AB43878053890F438920758DF4758B99
:085C8700F4D28ED0D092AF22BE
:105B1400D310AF01C3C0D09000B4EFF0125EE8C35D
:105B2400EF94027480948040047FFF80199000B445
:105B3400E0FFE50B540124A2F8A607050B300B0483
:0B5B4400C20BD2997F00D0D092AF229C
:105CDD00D310AF01C3C0D0125ED6EF70067EFF7F2A
:105CED00FF800EAF0A050AEF547F2422F8E6FF7EEF
:065CFD0000D0D092AF229E
:105ED600D310AF01C3C0D0C3E509950AFFD0D09255
:025EE600AF22E9
:105EE800D310AF01C3C0D0C3E50B950CFFD0D0923F
:025EF800AF22D7
:0E5F4900E4F50BF50CF509F50AC298C2992291
:105CB6004C4956450A006F70656E206261727272B9
:105CC6006572610A00477261626163696F6E205393
:075CD600657269653A2000C8
:0E1D1B0090000EEBF0A3EAF0A3E9F0A3EDF0C8
:101D29006419704490000EE0FBA3E0FAA3E0F912F5
:101D390014506402703290000212146964487028C9
:101D4900900011E07E0024FFF582EE34FFF5831246
:101D590014696403701290000EA3A3E02403F9E44C
:101D69003AFA124A5D025B8890000EE0FBA3E0FAA2
:101D7900A3E0F912145064B67033900146E0C3949D
:101D8900147480948040107FB61225FEC282E490BC
:101D99000146F0C297C283900149E06003022031F5
:101DA900900148E064016003022031803E90000EFA
:101DB900E0FBA3E0FAA3E0F912145064AA70409082
:101DC9000146E0C39414748094805003022031E4E6
:101DD900F0C297D282C283900149E06003022031A8
:101DE900900148E06401600302203190014904F048
:101DF9007BFF7A5C79B6125A21E4900149F022906E
:101E09000011E0FF6413703290000EE0FBA3E0FACA
:101E1900A3E0F912145064027020900001121469B1
:101E2900B44F177E0074FF2FF582EE34FFF583124D
:101E39001469640370047FFE8071900011E0FF64EF
:101E490013704C90000EE0FBA3E0FAA3E0F9121422
:101E5900506402703A90000112146964567030FEA1
:101E690074FF2FF582EE34FFF58312146964037051
:101E79001E7BFF7A5C79BC125A21E4900011F0D2E2
:101E890097900146740AF07FA1124C8C022025908C
:101E99000011E06401701790000EE0FBA3E0FAA3C3
:101EA900E0F912145064A170057F5A0225FE9000D2
:101EB90011E0FF64066003021FB790000EE0FBA368
:101EC900E0FAA3E0F912145064026003021FB7900C
:101ED900000112146964576003021FB7FE74FF2FD3
:101EE900F582EE34FFF58312146964036003021F5F
:101EF900B7900148E06401705F90000EA3A39000C1
:101F090002121469FD7B017A0079121253DC9000E8
:101F1900157420F090000EE0FBA3E0FAA3E0F9901D
:101F29000003121469FD90000EA3A390000412147B
:101F390069900021F07B017A00791612232E7B012A
:101F49007A0079127FB0124EA5125189EF60FA7B9F
:101F5900017A007912023EC290000EE0FBA3E0FA7A
:101F6900A3E0F9900002121469FD7B017A0079124D
:101F79001253DC9000157420F090000EE0FBA3E0F2
:101F8900FAA3E0F9900003121469FD90000EA3A3CF
:101F9900900004121469900021F07B017A007916EF
:101FA90012232E7B017A0079127FB0024EA5900090
:101FB90011E0FF640C705390000EE0FBA3E0FAA35C
:101FC900E0F912145064027041FE74FF2FF582EE9D
:101FD90034FFF5831214696403702F90000EA3A3D4
:101FE900E02401F9E43AFA125F1A7BFF7A5C79CBB3
:101FF900125A2190000EE0FBA3E0FAA3E0F9A3E056
:10200900FD9000417401F002511690000EE0FBA30F
:10201900E0FAA3E0F912145064AB700C9001457416
:0820290037F09001507404F03F
:01203100228C
:1031E8000D0A5665686963756C6F20656E20656C9D
:1031F800206C6F6F700D0A005665686963756C6F97
:10320800206E6F20656E20656C206C6F6F700D0AE4
:103218000D0A007472616D612064656C206C6563D1
:10322800746F7220646174616C6F67696320636F87
:1032380064205152000D0A007472616D612064654A
:103248006C206C6563746F7220646174616C6F6765
:10325800696320636F6420626172726173007472C3
:10326800616D612064656C206C6563746F722064A5
:103278006174616C6F676963206E6F206573746138
:1032880020636F6D706C6574610D0A00636F642054
:1032980062617272617300636F6420515220720A16
:1032A80000436172726F007469706F2064652076E4
:1032B80065686963756C6F3A20006C6F6E67697436
:1032C8007564206465206C61207472616D613A20B8
:1032D8000D0A0066696E206465206C6563747572FA
:1032E80061206465207472616D610D0A0052454564
:1032F8004E564941205452414D412050544F205080
:0B3308004152414C454C4F0D0A200083
:0446370041015C00E1
:105D0300E4FF121450FDC3943074809480400AD38E
:105D1300ED943974809480400A740129F9E43AFAC5
:035D23000F80DF0F
:015D2600225A
:105E7B00E4FF1214506D600A740129F9E43AFA0F29
:025E8B0080F0A5
:015E8D0022F2
:10203200900150E01460651470030221651470036E
:1020420002219A1470030222D41470030223022480
:102052000560030222FC900145E064016003022353
:102062002DC297125189EF60227BFF7A3179E812F3
:102072005A217FFE1225FE90015CE0700B7FA012B8
:102082004C8C90015C7401F00222C77BFF7A32799A
:1020920000125A21E490015CF002215C900145E0BB
:1020A2006401600990015BE0700302232D90015BE3
:1020B200E0640170287BFF7A32791B125A217B007F
:1020C2007A007922125A217BFF7A32793D125A2103
:1020D2009001457414F09001507403F02290015B5A
:1020E200E064027060785D7C017D01FB7A007922F8
:1020F2001218047B007A00792212000E90000EEF73
:10210200F0E0FF245CF582E43401F583E4F0D3EFE0
:10211200940A74809480400B125F497FFE1225FE60
:102122000222C77BFF7A327940125A217B017A015F
:10213200795D125A217BFF7A32793D125A21900140
:10214200507402F022125F49E490015CF090015B4E
:10215200F07BFF7A327966125A219001457403F0BE
:102162000222FC7BFF7A327994125A21E490015BBD
:10217200F09000107443F07B017A01795DFD122F1B
:1021820062900148E0600E7B017A01795D90001057
:10219200E0FD123B44022321C2AC900145E0640100
:1021A200600302232D7BFF7A32799F125A21E49039
:1021B200015BF0FB7A007922125D0390000EEFF0D2
:1021C2002422F9E4FA7D3E125E7B90000FEFF0903C
:1021D200001774FFF0A37432F0A374A9F07A0079A7
:1021E200221241E7900011EBF0A3EAF0A3E9F04AD2
:1021F20090001060057443F08003744DF07BFF7A09
:102202003279AF125A21900010E0FF1257D17BFFB2
:102212007A32793D125A217BFF7A3279C2125A21DF
:1022220090000EE0FF1257D17BFF7A32793D125AAD
:102232002190000FE0FF1257D17BFF7A32793D12D5
:102242005A21E490015DF090000EE0FF640C706B87
:1022520074222FF9E4FB900017F0A3CBF0A3E9F06E
:1022620090000FE0FF90001AE4F0A3EFF07B017AF8
:1022720001795D12526390000FE0245DF582E4342F
:1022820001F583E4F07B017A01795D125A217BFF2B
:102292007A32793D125A217B017A01795D900010E0
:1022A200E0FD122F62900148E0600E7B017A017915
:1022B2005D900010E0FD123B448064D2AC125F4995
:1022C2007FFE1225FE90014574C8F0900150740102
:1022D200F022900145E064017051D2AC7BFF7A326A
:1022E20079DB125A217FFF1225FE9001457403F01B
:1022F200125F49E490015CF08001E4900150F02209
:10230200900145E0640170237BFF7A3279F5125A1D
:10231200217B017A01795D900010E0FD122F62901D
:0B23220001457437F09001507404F086
:01232D00228D
:100D5A00021002E86480F8E933E83360110460F0B5
:100D6A00ED33EC337009E8FCE9FDEAFEEBFF2204FF
:100D7A0060DED3EB9FEA9EE99DE8C2E78CF0C2F7FA
:100D8A0095F0400CE8CCF8E9CDF9EACEFAEBCFFBC6
:100D9A00120FCD85D0F05804700320D5B3E8047043
:100DAA00075002B2D502100C92D5EC0460F7E4CCDD
:100DBA00C0E0C398F8603B94186008400DD0E0FB8F
:100DCA00020FE4E4FBFAC9FC8028E830E406E4C92F
:100DDA00FBE4CAFCE830E305E4C9CACBFCE85407E3
:100DEA006010F8C3E913F9EA13FAEB13FBEC13FCEE
:100DFA00D8F130F52FC3E49CFCEF9BFFEE9AFEED91
:100E0A0099FDD0E0FBEF4E4D4C701222DB0302102D
:100E1A0009EC2CFCEF33FFEE33FEED33FDED30E74A
:100E2A00EB020FE4EF2BFFEE3AFEED39FDD0E0FBCB
:100E3A0050130BBB000302100CED13FDEE13FEEF73
:080E4A0013FFEC13FC020FE49E
:100E5200EC4D6011E8497017ED33EC3304600DE49A
:100E6200FCFFFEFD22E933E8330470F8021002129F
:100E72000FCD58046009E4CC2481500628500902A1
:100E8200100C284003021009C0E0EB4A7044B980FC
:100E920006D0E0FB020FF8EF4E701CBD8008EBFF9E
:100EA200EAFEE9FD80EBE98DF0A4FEE5F0020F3BDE
:100EB200E9CDF9EAFEEBFFEF89F0A4FCE5F0CE897B
:100EC200F0A42EFFE435F0CD89F0A42DFEE435F038
:100ED2008067EF4E7005BD80D780C3EF8BF0A4AC66
:100EE200F0EE8BF0A42CFCE435F0F8EF8AF0A42CA1
:100EF200E5F038FCE433CB8DF0A42CFCE5F03BF8B4
:100F0200EE8AF0A42CFCE5F038F8E433CF89F0A4A3
:100F12002CFCE5F038CF3400CE89F0A42FFFE5F0A9
:100F22003EFEE433C98DF0A42EFEE5F039CD8AF001
:100F3200A42FFFE5F03EFEE43DFD33D0E0FB500779
:100F42000BBB000F02100CEC2CFCEF33FFEE33FE58
:060F5200ED33FD020FE487
:100F580075F020800E75F010800575F0087D007E14
:100F6800007F003392D530D5031214E0EC334010E3
:100F7800EF33FFEE33FEED33FDEC33FCD5F0ED221D
:0E0F8800E5F0247EA2D513CC92E7CDCEFF2259
:100F9600EDD2E7CD33EC3392D524814006E4FFFE53
:100FA600FDFC22FCE4CFCECDCC24E0501174FF80B2
:100FB600EDC3CC13CCCD13CDCE13CECF13CF04704F
:070FC600F030D5DE0214E05B
:10189800E50D2484F582E43400F583E0050D2290FB
:1018A8000081300703900084E475F0011215570297
:1018B80014502000E97F2ED2008018EF540F249096
:1018C800D43440D4FF30040BEF24BFB41A005003C3
:1018D8002461FFE50E6002150E0511E51170020581
:1018E8001030070E900081E475F001121557EF02D1
:1018F80014960259E37403D2078003E4C207F50D76
:1019080090008112156EE4F50EF510F511E50E60E4
:10191800077F201218DB80F5750FFFC201C200C2D5
:1019280002C203C205C206C2081218A7FF700D3012
:1019380007057F001218ECAF11AE1022B4255FC264
:10194800D5C2041218A7FF24D0B40A00501A75F0A3
:101958000A780E30D50508B6FF0106C6A426F6207B
:10196800D5047002D20380D924CFB41A00EF5004F2
:10197800C2E5D204021BDED20180C6D20080C0D2EA
:101988000280BCD2D580BAD20580B47F201218DB81
:101998002002077401B50E0040F1121898FF1218C2
:1019A800DB021915D208D2068095121898FB121876
:1019B80098FA121898F94A4B700679DC7A1C7BFF62
:1019C80020022EE50E602A7E008E82758300121496
:1019D8006960060EEE650F70F0C2D5EBC0E0EAC094
:1019E800E0E9C0E0EE121C3FD0E0F9D0E0FAD0E028
:1019F800FB121450FF60AAEBC0E0EAC0E0E9C0E0C7
:101A08001218DBD0E02401F9D0E03400FAD0E0FB72
:101A1800E50F0460DCD50FD98087D20280A2121CA2
:101A28002160F7E50F7001041210BBA90F600DE5E6
:101A38000F600914F50F121CC9EF60F3EA30E702D2
:101A4800F404C3995079EAF4250F0430E701E4045B
:101A5800F50F800D121C2160C1EA050F250F121029
:101A6800BBEA9000B0F030E701E4250F04D50F047D
:101A780020050114121C3FE4C0E0121CC99000B0FC
:101A8800E0601320E70714F01218C3802204F0D096
:101A9800E014C0E07F001218C3E50F60071218BAFF
:101AA800150F800B3005031218BAD0E0021915D0B3
:101AB800E00480C4121C21609EE50F041210BB9044
:101AC80000B0EAF0E50F2005026001042404121CAE
:011AD8003FCE
:101AD90074FF04C0E0121CC91218C3E50F200502E7
:101AE90060031218BAD0E0B50FE87F451218CD90FF
:101AF90000B0E07F2B30E7047F2DF404C0E012181A
:101B0900DBD0E075F00A84C0F01218C4D0E01218D6
:101B1900C4021915791080027908C206C208800822
:101B2900D2D5790A8004790AC2D5E50F047002F585
:101B39000FE4FAFDFEFF121898FC7B08200113122E
:101B49001898FD7B1030000A121898FE121898FF99
:101B59007B20EC3382D592D55013C3E43000069F25
:101B6900FFE49EFEE42001039DFDE49CFCE4CBF828
:101B7900C201EC700CCFCECDCCE824F8F870F3801C
:101B890017C3EF33FFEE33FEED33FDEC33FCEB33DC
:101B9900FB994002FB0FD8E9EB300105F8D0E0C40E
:101BA90048B201C0E00AEC4D4E4F78207B0070C26C
:101BB900EAB50F0040BCC0E0121C41D0F0D0E020D3
:101BC9000104C4C0E0C4B201C0F01218C4D0F0D5F9
:101BD900F0EB02191512157719B2531B1D58198309
:101BE9004C197F421B214F1B29441B294919984332
:101BF9001B2F551A5C461ABC451A26471CFC50195E
:101C0900872D198B2E19AE2B198F2319AC201CE5A2
:101C19002A194748000019A6E50FB4FF03750F06F6
:101C2900121898FC121898FD121898FE121898FFAD
:101C39009000A90210F8790AA2D5200314300509E9
:101C4900B910020404B9080104A2D5200602500102
:101C5900042002689202B50E005034C0E07F2030A3
:101C690003197F30A20272067205500F121C98C226
:101C790002C206C205C2087F30800F300503E9C0E1
:101C8900E01218DB300503D0E0F9D0E0B50ECC3016
:101C990005177F30B9100C1218DB7F583004077F05
:101CA900788003B908031218DB3002057F2D02186A
:101CB900DB7F202008F87F2B2006F322920280CFB9
:101CC9007F00B40700500B24A9F582E43400F583A2
:101CD900E0FF22286E756C6C2900D2011218983029
:101CE90001F8C201780E30D50108F60219472D50C6
:101CF9004349581218982403B405004001E4901C84
:101D0900F7931218CC743A1218CCD203750E040248
:021D19001B1D90
:102DFC0090002912151AE4FFFE7D807C3F9000297B
:102E0C00E0F8A3E0F9A3E0FAA3E0FB12103170069E
:102E1C00900029022F56900029E0FCA3E0FDA3E0CE
:102E2C00FEA3E0FF121017FBA3E0FCA3E0FDA3E060
:102E3C00FEA3E0FF121017FFB40108E4FFFE7D8033
:102E4C007C3F22EF64046029EB64046024EBB40142
:102E5C0030E4FFFEFDFC90002DE0F8A3E0F9A3E0C8
:102E6C00FAA3E0FB12103160084006E4FFFEFDFC03
:102E7C002290002D121526FFFFFFFF90002D022F30
:102E8C0056E4900031F0A3F0FFFEFDFC900029E029
:102E9C00F8A3E0F9A3E0FAA3E0FB121031505F9025
:102EAC00002DE0FCA3E0FDA3E0FEA3E0FF120F96D3
:102EBC00900031EEF0A3EFF0FDCCEECCEC120F5DF8
:102ECC00C8ECC8C9EDC9CAEECACBEFCB90002DE057
:102EDC00FCA3E0FDA3E0FEA3E0FF120D5DE4FBFA12
:102EEC00F9F8121031708A900029E0FCA3E0FDA3E0
:102EFC00E0FEA3E0FF1210AA90002912151A900010
:102F0C0029E0FCA3E0FDA3E0FEA3E0FF1233479011
:102F1C00002DE0F8A3E0F9A3E0FAA3E0FB120E52B7
:102F2C001247AF90002D12151A900032E030E017C6
:102F3C0090002DE0FCA3E0FDA3E0FEA3E0FF121047
:102F4C00AA90002D12151A90002DE0FCA3E0FDA311
:062F5C00E0FEA3E0FF22ED
:100FCD00E9D2E7C933E833F892D5EDD2E7CD33EC6A
:070FDD0033FC5002B2D522E3
:100FE400EC30E7100FBF000C0EBE00080DBD00046E
:100FF4000BEB6014A2D5EB13FCED92E7FD2274FF1A
:10100400FCFDFEFF22E480F8A2D574FF13FC7D8072
:03101400E480EF86
:10101700ED33EC33601004700FED547F70057402EC
:0A10270092E0227404220422E42265
:1010310074F8CC6480CCC86480C8F58204604FC366
:10104100EB9FF5F0EA9E42F0E99D42F0E89C45F005
:10105100603C501DE5825FFFE582D313CB5BCBF48F
:101061002B5582FB50280ABA002409B900200880B8
:101071001DE5825BFBE582D313CF5FCFF4C3132F52
:101081005582FF50090EBE00050DBD00010CC3EBDA
:101091009FF5F0EA9E42F0E99D42F0E89C45F06040
:0910A10007CC4820E701B3EC2262
:1010AA00ED33EC33600A047003BD8004ECB2E7FC54
:0110BA002213
:1010BB00F920E73624F950037907E4F42402FBE521
:1010CB0082158270021583DBF6E024FB501BE9606E
:1010DB0014E4F0E582158270021583E004F0B40A83
:0D10EB0008E4F0D9EE7401F00A22C2D5220B
:1010F800ED33EC3392D5FA602AB4FF33EDC2E77BC7
:10110800FF60067A11791DE4227A11792620D50428
:101118007A117921224E614E002B494E46002D4905
:101128004E4600E47A08F0A3DAFC7B00740722C07C
:1011380083C082ECC0E0EDC0E0EEC0E0EFC0E0EAC2
:1011480075F010A4CAABF075F04DA42BFBE435F094
:10115800FCEA2410FAEB34C5FBEC34D9FCEDC2E709
:10116800FF75F056A4F42411C5F0F434C58FF0A42B
:101178002AE5F03BE43CF020E7141212CDD0E0FF62
:10118800D0E0FED0E0FDD0E0FC1212008014F404A0
:101198001212CDD0E0FFD0E0FED0E0FDD0E0FC128E
:1011A8000E52D082D083E0FAEDD2E7CD33EC33246F
:1011B80082FBE4C3CF33CFCE33CECD33CD33DBF395
:1011C8007B0775F00A846004F0A31B0AE5F0F0A31E
:1011D8008FF0740AA4FFACF08EF0740AA42CFEAC55
:1011E800F050010C8DF0740AA42CFDE435F0F0A346
:0511F800DBDE7407229C
:1047770033DA929E35B16011377FE5FE392184899E
:104787003AAEC3FF3C1D955B3D6358473E75FDF050
:104797003F3172183F800000C2D502100C02100290
:1047A700BD80FA50F3021009ED33EC330460F17B5E
:1047B7003B7AAA79B8783F120E52ED33EC3392D593
:1047C700247B5011A2D570DB500BED44802404509C
:1047D70004A2D580CEEFFBEEFAEDF9ECF8120F96B6
:1047E700EFF582F404FC120F62120D61C08290474C
:1047F70077740912131CED33CC33D0F092D525F022
:0A480700A2D57001C313CC13FD22EB
:103313003E9248DA3ECCCCCD3F2AAAAB4000000017
:103323003F8000003F9837F03FB504F33FD744FC9C
:103333003E3172173EB172173F0515913EDE5BD9E0
:10334300D2008002C200EDD2E7F8CD33EC33047033
:103353000BBD800592D502100C02100240FBD31462
:1033630060F2F5F07C3FEE7A00C39496C8948B40EC
:10337300230AC89469C8941A401A0AC89468C8945E
:103383001F40110AC8945AC89425400805F07A00D2
:10339300CDC2E7CDC0F090003312151AEA2323C043
:1033A300E02423F582E43433F58312150A120D6108
:1033B300ECC0E0EDC0E0EEC0E0EFC0E01214EE9030
:1033C30000331214FE120D5DD0E0FBD0E0FAD0E022
:1033D300F9D0E0B2E7F812120090003312151A90F8
:1033E3003313740312130D9000331214FE120E5292
:1033F300D0E0600F242FF582E43433F58312150AED
:10340300120D6190003312151AD0E0C3947FFDE4CE
:103413009400FC120F5D7B187A727931783F120E9B
:10342300529000331214FE120D6130000B7BD97AD7
:093433005B79DE783E120E522294
:1011FD0002100CEC5D046005E85904700302100246
:10120D00120FCD580460F6EC4860F2EC7004FDFE50
:10121D00FF22C860DB2481C85009C39860025006C4
:10122D000210099850CAF582E9294B4A7005AB8224
:10123D00020FF875F0007C1A7880C3EF9BEE9AEDE3
:10124D0099400DC3EF9BFFEE9AFEED99FDE842F03C
:10125D00DC23ACF0D0E0FFD0E0FED0E0FDAB82208F
:10126D00E7101BEB60BAEC2CFCEF33FFEE33FEED19
:10127D0033FD020FE4E803F830E705C0F075F00028
:10128D00EF2FFFEE33FEED33FD40B830E7C280AAFD
:10129D003F8000004120000042C80000447A000059
:1012AD00461C400047C35000497424004B189680DB
:1012BD004CBEBC205A0E1BCA6753C21C749DC5AED2
:1012CD00FB60065407601C23231212FBEB5438609D
:1012DD00091212E71212F6120E52ECF8EDF9EEFAAF
:1012ED00EFCB22EB1212F680F1543803241C90122E
:1012FD009DFE93FC0EEE93FD0EEE930ECE93FF220C
:10130D00C0E0EFFBEEFAEDF9ECF8120E52D0E0F57D
:10131D00F0EFFBEEFAEDF9ECF81214EEA3A3A3A394
:10132D00E8C0E0E9C0E0EAC0E0EBC0E0C0F0120EBA
:10133D005212150AA3A3A3A3120D61D0F0D0E0FBA6
:0D134D00D0E0FAD0E0F9D0E0F8D5F0D422DD
:03000000024AECC5
:0C4AEC00787FE4F6D8FD7581AB024B33F7
:10135A00E709F608DFFA8046E709F208DFFA803E75
:10136A0088828C83E709F0A3DFFA8032E309F60862
:10137A00DFFA8078E309F208DFFA807088828C83CA
:10138A00E309F0A3DFFA806489828A83E0A3F6087E
:10139A00DFFA805889828A83E0A3F208DFFA804C58
:1013AA0080D280FA80C680D4806980F2803380102F
:1013BA0080A680EA809A80A880DA80E280CA803398
:1013CA0089828A83ECFAE493A3C8C582C8CCC58310
:1013DA00CCF0A3C8C582C8CCC583CCDFE9DEE780E0
:1013EA000D89828A83E493A3F608DFF9ECFAA9F05F
:1013FA00EDFB2289828A83ECFAE0A3C8C582C8CCB5
:10140A00C583CCF0A3C8C582C8CCC583CCDFEADECD
:10141A00E880DB89828A83E493A3F208DFF980CC2F
:10142A0088F0EF60010E4E60C388F0ED2402B40428
:10143A000050B9F582EB2402B4040050AF232345CF
:06144A0082239013AA7337
:10145000BB010689828A83E0225002E722BBFE029A
:09146000E32289828A83E49322CD
:10146900BB010CE58229F582E5833AF583E0225038
:1014790006E92582F8E622BBFE06E92582F8E22282
:0D148900E58229F582E5833AF583E493229C
:10149600BB010689828A83F0225002F722BBFE0135
:0214A600F3222F
:1014A800F8BB010DE58229F582E5833AF583E8F07A
:1014B800225006E92582C8F622BBFE05E92582C826
:0214C800F2220E
:1014CA00C5F0F8A3E028F0C5F0F8E58215827002AD
:0614DA001583E038F0224A
:0E14E000C3E49FFFE49EFEE49DFDE49CFC221D
:1014EE00E493FC740193FD740293FE740393FF2244
:0C14FE00E0F8A3E0F9A3E0FAA3E0FB2271
:10150A00E493F8740193F9740293FA740393FB2237
:0C151A00ECF0A3EDF0A3EEF0A3EFF02244
:10152600A8828583F0D083D08212153D12153D1214
:10153600153D12153DE473E493A3C583C5F0C58339
:10154600C8C582C8F0A3C583C5F0C583C8C582C80F
:011556002272
:10155700F8E0FBA3A3E0F925F0F0E582158270021D
:071567001583E0FA38F022C1
:09156E00EBF0A3EAF0A3E9F0227E
:10157700D083D082F8E4937012740193700DA3A303
:1015870093F8740193F5828883E473740293686017
:06159700EFA3A3A380DF17
:1051F800900062EBF0A3EAF0A3E9F0900068EBF00E
:10520800A3EAF0A3E9F0900062E0FBA3E475F001E3
:10521800121833A9F0FA12145070EB90006374FF5F
:10522800F5F01214CA900065E0FBA3E475F00112D2
:105238001833A9F0FA121450FF900062E0FBA3E4BF
:1052480075F001121833A9F0FAEF12149670D6907F
:0B5258000068E0FBA3E0FAA3E0F922ED
:10405E0090003DEBF0A3EAF0A3E9F0E4900045F008
:10406E00A3F0D3900044E09400900043E064809469
:10407E0080500302411790003DE0FBA3E0FAA3E05D
:10408E00F9900045E0FEA3E0F5828E83121469607C
:10409E0010900046E004F070DD900045E004F080E2
:1040AE00D5900040E0FBA3E0FAA3E0F912145060B3
:1040BE003E900040A3E475F001121833A9F0FA12F5
:1040CE001450FF90003DE0FBA3E0FAA3E0F990004E
:1040DE0045E475F00112183385F082F583EF121462
:1040EE00A890004374FFF5F01214CA45F070B29018
:1040FE00003DE0FBA3E0FAA3E0F9900045E0FEA34B
:10410E00E0F5828E83E41214A890003DE0FBA3E05C
:05411E00FAA3E0F92204
:10159D00E3F5F009E208B5F06D606B80F3E3F5F06B
:1015AD0009E608B5F060605E80F387F009E608B5DE
:1015BD00F054605280F487F009E208B5F0486046B7
:1015CD0080F488828C8387F009E0A3B5F03860360B
:1015DD0080F488828C8387F009E493A3B5F02760AB
:1015ED002580F388828C83E3F5F009E0A3B5F0162E
:1015FD00601480F388828C83E3F5F009E493A3B53E
:10160D00F004600280F20216C8808580E7808E802B
:10161D00D2803C8015806C807E809B80B5808B80D5
:10162D00A1804F8070803A0216D489828A83ECFAA9
:10163D00E493F5F0A3C8C582C8CCC583CCE493A3CD
:10164D00C8C582C8CCC583CCB5F070606E80E18909
:10165D00828A83E493F5F0A3E208B5F05E605C80C6
:10166D00F289828A83E0F5F0A3E608B5F04D604B70
:10167D0080F389828A83E0F5F0A3E208B5F03C603F
:10168D003A80F389828A83E493F5F0A3E608B5F0F6
:10169D002A602880F2805389828A83ECFAE493F5DC
:1016AD00F0A3C8C582C8CCC583CCE0A3C8C582C889
