:035E8800200A00ED
:1043F9004101450A4101460041015200410147007E
:104409004101500041014E0041015B0049013C005E
:10441900000000000000000041015106410158035D
:06442900410157F2C10938
:03000B00025CF79D
:105CF700C0E0C083C082900145E014F0A3E004F047
:095D0700C28DD082D083D0E032BD
:105DBF00E58954F04401F589E4F58CF58AD28C22FB
:055E7B00C28DD2A92236
:035E8500C2A9228D
:0B5E1C00125B7CEFF47002EEF460F506
:015E27002258
:055923009000B1EFF05F
:105928009000B1E0FF125A55EF3395E04F6024E440
:105938009000B2F0A3F0C39000B3E094E89000B2F6
:10594800E0940350DBA3E004F070EB9000B2E004B5
:08595800F080E39000B1E0FFD4
:015960002224
:105DCF00125E80125E44125E28C283D287C297226F
:104B1D00E4FDFC7FA8125A90900159E4F0A3EFF048
:104B2D007D027C007FA8125A90900155E4F0A3EF0E
:104B3D00F07D047C007FA8125A90900153E4F0A3FD
:104B4D00EFF07D067C007FA8125A9090014CE4F0A6
:104B5D00A3EFF07D087C007FA8125A90900149EFD9
:104B6D00F07D0A7C007FA8125A90900148EFF07DED
:104B7D000C7C007FA8125A9090014FEFF07D0E7CB7
:104B8D00007FA8125A9090014BEFF07D0B7C007FB7
:0A4B9D00A8125A9090014AEFF0228E
:1041D600125DBF125E7B125B2A12599F125DCFD20F
:1041E600AF125C2E125CDD7F6112537D125E4B2096
:1041F600910312268C124B1D9001457403F020800A
:104206003F7B017A0079001247BD90000DEFF01256
:104216005E3B7B017A00790090000DE0FD1245F1CE
:104226007B017A00790090000DE0FD900041740159
:10423600F012502D7B017A01793C125961125E3BD6
:1042460012208420B33D7B017A017914124726900F
:10425600000DEFF0FD7B017A0179149000417401A5
:10426600F012502D90000DE0FF1256D27BFF7A5EC1
:1042760079881259617B017A01791490000DE0FD6D
:09428600121CDD124F4B02420430
:08000300D294125E8BC294221C
:05586600900045EFF089
:10586B00E4A3F0A3F0900045E0FFA2E713F030D7DC
:10587B0004D2958002C295120003900047E004F019
:10588B007006900046E004F0C3900047E094089047
:09589B000046E06480948040CCDA
:0158A40022E1
:0A485200EBF0A3EAF0A3E9F07F8D7C
:05485C00900042EFF0A6
:10486100D2967F037E00125D53900042E0FF125802
:1048710066E4900043F0A3F0900043E0FCA3E0FD68
:10488100C39408EC64809480504F30951690018D4C
:10489100E04480F0ED9406EC648094805005E0FFE4
:1048A100C313F020952090018DE0547FF0D3900048
:1048B10044E09406900043E06480948050089001A5
:1048C1008DE0FFC313F0120003900044E004F07088
:1048D100A7900043E004F0809FC29690018DE0FF15
:0148E10022B4
:105B5400900020EFF0A3EDF0D2967F037E00125D5B
:105B640053900020E0FF125866900021E0FF90005F
:085B740020F0125866C29622CF
:1057A40090001EE475F0011214DC90001EE475F004
:1057B400011214DC90001EE475F0011214DC900058
:1057C4001DE0FBA3E0FAA3E0F9121450FF900001DE
:0457D400121469FD45
:0C57D800EF540FC454F0FFED540F4FFFCE
:0157E40022A2
:104A020090001DEBF0A3EAF0A3E9F01257C2AD0744
:104A12007F86125B541257A4AD077F88125B5490B5
:104A2200001EE475F0011214DC90001EE475F00122
:104A32001214DC1257A4AD077F8C125B541257A4D8
:104A4200AD077F84125B541257A4AD077F82125BBD
:104A5200541257A4AD077F80125B5490001EE47578
:104A6200F0011214DC90001EE475F0011214DC90C7
:104A7200001EE475F0011214DC90001DE0FBA3E0BF
:0F4A8200FAA3E0F9121450540FFD7F8A025B541F
:105C8600AE07EEC4540F540FFE6012EF540FFFE43C
:0D5C9600FDEDC39E5007740A2FFF0D80F432
:015CA30022DE
:1052DD00E4FFFE90001DEDF090001DE0C39464749A
:1052ED008094804007E0249CF00F80ECEF44301256
:1052FD001496740129F9E43AFA90001DE0C3940A5A
:10530D00748094804007E024F6F00E80ECEE44307B
:10531D00121496740129F9E43AFA90001DE0443014
:03532D00021496D1
:0E23BC0090001DEBF0A3EAF0A3E9F0A3EDF012
:1023CA00E4900022F0A3F0900025F0A3F0A3F0A37C
:1023DA00F0900024EDF054F0F0E0FFC4540FF090B8
:1023EA00002D121549404000007F007E007D807C50
:1023FA0041122A9EC004C005C006C007900024E00E
:10240A00FCE4120F62D003D002D001D000120E52A7
:10241A00C004C005C006C007900022E0FCA3E0FD8E
:10242A00E4120F5DD003D002D001D000120D611268
:10243A000F96900022EEF0A3EFF0900020E09000BB
:10244A0024F0540FF090002D121549400000007F2F
:10245A00007E007D807C41122A9EC004C005C00611
:10246A00C007900024E0FCE4120F62D003D002D02F
:10247A0001D000120E52C004C005C006C007900069
:10248A0022E0FCA3E0FDE4120F5DD003D002D001EC
:10249A00D000120D61120F96900022EEF0A3EFF019
:1024AA00900021E0900024F054F0F0E0FFC4540FB3
:1024BA00F090002D1215493F8000007F007E007DBC
:1024CA00807C41122A9EC004C005C006C007900045
:1024DA0024E0FCE4120F62D003D002D001D0001233
:1024EA000E52C004C005C006C007900022E0FCA33B
:1024FA00E0FDE4120F5DD003D002D001D000120D2E
:10250A0061120F96900022EEF0A3EFF0900021E006
:10251A00900024F0540FF090002D1215490000008D
:10252A00007F007E007D807C41122A9EC004C00587
:10253A00C006C007900024E0FCE4120F62D003D06A
:10254A0002D001D000120E52C004C005C006C00756
:10255A00900022E0FCA3E0FDE4120F5DD003D0025C
:10256A00D001D000120D61120F96900022EEF0A356
:10257A00EFF0C3EF9410EE9427401074F02FFF741D
:10258A00D83EFE900025E004F080E7900025E04464
:10259A0030FD90001DE0FBA3E0FAA3E0F9ED121470
:1025AA009690001EE475F0011214DCC3EF94E8EE75
:1025BA009403401074182FFF74FC3EFE900026E02E
:1025CA0004F080E7900026E04430FD90001DE0FB17
:1025DA00A3E0FAA3E0F9ED12149690001EE475F058
:1025EA00011214DCC3EF9464EE94004010749C2F23
:1025FA00FF74FF3EFE900027E004F080E79000277A
:10260A00E04430FD90001DE0FBA3E0FAA3E0F9ED01
:10261A0012149690001EE475F0011214DCC3EF94B4
:10262A000AEE9400401074F62FFF74FF3EFE9000ED
:10263A0028E004F080E7900028E04430FD90001D77
:10264A00E0FBA3E0FAA3E0F9ED12149690001EE471
:10265A0075F0011214DCEF4430FF90001DE0FBA37B
:10266A00E0FAA3E0F9EF12149690001EE475F00167
:10267A001214DC90001DE0FBA3E0FAA3E0F9E402E7
:02268A001496A4
:0328C60090003F40
:1028C900124852EF54F0C4540F4430FE90003FE0D8
:1028D900FBA3E0FAA3E0F9EE121496900040E47528
:1028E900F0011214DCEF540F4430FF90003FE0FB7D
:1028F900A3E0FAA3E0F9EF121496900040E475F012
:10290900011214DC7F8912485CEF54F0C4540F445F
:1029190030FE90003FE0FBA3E0FAA3E0F9EE1214C9
:1029290096900040E475F0011214DCEF540F443026
:10293900FF90003FE0FBA3E0FAA3E0F9EF12149641
:10294900900040E475F0011214DC7F8712485CEFB7
:1029590054F0C4540F4430FE90003FE0FBA3E0FA6A
:10296900A3E0F9EE121496900040E475F0011214F8
:10297900DCEF540F4430FF90003FE0FBA3E0FAA3E3
:10298900E0F9EF121496900040E475F0011214DC9E
:102999007F8512485CEF54F0C4540F4430FE900018
:1029A9003FE0FBA3E0FAA3E0F9EE12149690004091
:1029B900E475F0011214DCEF540F4430FF90003F2E
:1029C900E0FBA3E0FAA3E0F9EF121496900040E4CB
:1029D90075F0011214DC7F8312485CEF54F0C45483
:1029E9000F4430FE90003FE0FBA3E0FAA3E0F9EECC
:1029F900121496900040E475F0011214DCEF540FA4
:102A09004430FF90003FE0FBA3E0FAA3E0F9EF12A6
:102A19001496900040E475F0011214DC7F8112488D
:102A29005CEF54F0C4540F4430FE90003FE0FBA328
:102A3900E0FAA3E0F9EE121496900040E475F00173
:102A49001214DCEF540F4430FF90003FE0FBA3E089
:102A5900FAA3E0F9EF121496900040E475F0011220
:102A690014DC7F8B12485CEF540F4430FF90003F19
:102A7900E0FBA3E0FAA3E0F9EF121496900040E41A
:102A890075F0011214DC90003FE0FBA3E0FAA3E02B
:052A9900F9E4021496AF
:1044AB00900184124852125C86900184E0FBA3E0D9
:1044BB00FAA3E0F9EF121496900185E475F001125E
:1044CB0014DC7F8912485C125C86900184E0FBA3AC
:1044DB00E0FAA3E0F9EF121496900185E475F00170
:1044EB001214DC7F8712485C125C86900184E0FB1F
:1044FB00A3E0FAA3E0F9EF121496900185E475F0AE
:10450B00011214DC7F8512485C125C86900184E0FA
:10451B00FBA3E0FAA3E0F9EF121496900185E47582
:10452B00F0011214DC7F8312485C125C86900184CC
:10453B00E0FBA3E0FAA3E0F9EF121496900185E4F7
:06454B0075F0010214DC12
:103E1E0090002A12485290002AE0FBA3E0FAA3E099
:103E2E00F9EF12149690002BE475F0011214DC7F5A
:103E3E008912485C90002AE0FBA3E0FAA3E0F9EFB8
:103E4E0012149690002BE475F0011214DC7F871289
:103E5E00485C90002AE0FBA3E0FAA3E0F9EF12140D
:103E6E009690002BE475F0011214DC7F8512485CED
:103E7E0090002AE0FBA3E0FAA3E0F9EF121496906B
:103E8E00002BE475F0011214DC7F8312485C900065
:103E9E002AE0FBA3E0FAA3E0F9EF12149690002BB0
:103EAE00E475F0011214DC7F8112485C90002AE068
:103EBE00FBA3E0FAA3E0F9EF12149690002BE47541
:103ECE00F0011214DC90002AE0FBA3E0FAA3E0F963
:043EDE00E402149650
:075E4400C294C296D2952220
:105D5300E4FDFCC3ED9FEC9E50070DBD00010C80DC
:015D6300F24D
:015D6400221C
:045CC200AB07AA067C
:105CC600900000C3E5829BE5839A500A7F967E008A
:065CD600125D53A380EDF6
:015CDC0022A5
:015E8B0022F4
:035BE800125BC687
:105BEB00D20AD293D292E4FFFE209205C20AC2934C
:0C5BFB00220FBF00010EBE04F0BF4CEDF5
:015C0700227A
:035C0800125BC666
:105C0B00D293D292D20AE4FFFE209205C20AC2932B
:0C5C1B00220FBF00010EBE02F0BF8AED98
:015C2700225A
:065E7500D29300C293224B
:105BC600E4FEEEC39408748094805015EF25E0FF40
:105BD60030D704D2928002C292D293125E750E80A2
:015BE600E1DD
:015BE700229B
:085D6500ECFD7C00C293C29228
:0A5D6D00D292D29300C292C2932298
:095E3200C293C292D293D29222D3
:10533000E4FBEBFDC39408748094805038C2933032
:105340009216900188E04401F0ED940674809480F8
:105350005006E025E0F0D293209217900188E054A7
:10536000FEF0EBD39406748094805006E025E0F0C4
:0C537000D2930B80BDC293900188E0FF37
:01537C00220E
:0258A500AA0750
:1058A700AF05A907125D65AF02125BE8AF05125B92
:1058B700E8AF01125BC6125BEBAF03125BC6125B6C
:1058C700EB125E327F0D7E00125CC2D293D2927FC2
:0D58D700627E00125D537F627E00025D5311
:025A9000AB0762
:105A9200AF05AA07125D65AF03125C08AF05125C81
:105AA20008AF02125BC6125C0B125D6DEB04FF12B3
:105AB2005BC6125BEBC293125330125E32D293D2A8
:065AC20092900188E0FF54
:015AC80022BB
:10522E0090007DEEF0A3EFF0A3EBF0A3EAF0A3E97C
:01523E00F07F
:10523F0090007DE0FCA3E0FD7FA8125A9090007FC4
:10524F00E0FBA3E0FAA3E0F9EF12149690007FE0E1
:10525F00FBA3E0FAA3E0F9121450FF90007EE004E4
:10526F00F0700690007DE004F0900080E475F0018E
:06527F001214DCEF70BA0E
:015285002206
:104BA70090007DEFF0A3ECF0A3EDF0A3EBF0A3EA08
:104BB700F0A3E9F0900080E0FBA3E0FAA3E0F9128C
:104BC7001450603CB40D04E412149690007DE0FF8D
:104BD700A3E0FCA3E0FDA3E0FBA3E0FAA3E0F91246
:104BE7001450FB1258A590007FE004F07006900067
:104BF7007EE004F0900081E475F0011214DC80B4CB
:104C0700900080E0FBA3E0FAA3E0F9E41214969089
:104C1700007DE0FFA3E0FCA3E0FDA3E0FBA3E0FA37
:0A4C2700A3E0F9121450FB0258A597
:1059DD00E4FF7B017A00791D1228C690001DE0249A
:1059ED00D064027026A3E024D0C394027480948006
:1059FD004019A3E024D0FF700FA3E024D0C394037B
:0B5A0D0074809480400580001258E473
:015A1800226B
:1058E40090002874FFF0E4A3F0A3F0900029E0FCFA
:1058F400A3E0FDC39450EC9403501A900028E0FBFD
:105904007FA81258A590002AE004F070DE900029C8
:0F591400E004F080D6E4FBFD7C087FA80258A5D4
:1045510053656E736F726573204175746F20792096
:1045610073656E736F72312061637469766F732E38
:104571000053656E736F722061637469766F207387
:10458100656E736F7231202E0044657465637461CA
:10459100646F2E2053656E736F72204175746F2E98
:1045A1000053656E736F726573206E6F206465745E
:1045B10065637461646F73005665686963756C6FD8
:1045C100204573706572616E646F2053616C69720E
:1045D1002E005665686963756C6F2053616C69655F
:1045E1006E646F2E20556E206D6F6D656E746F0059
:075E4B00C2B5C2B6C2B722C6
:075E5200C2B5D2B6C2B722AF
:075E5900C2B5C2B6D2B722A8
:075E6000D2B5C2B6D2B72291
:075E6700C2B5D2B6D2B7228A
:075E6E00D2B5D2B6D2B72273
:105C4800E4FF7DF47C01309115EFFB3395E04B7058
:0E5C58000DED1D70011CED4C70EC7F0180E81D
:015C6600221B
:105D77007F31125E673091010F125E6E3091020F14
:015D87000F0C
:015D880022F8
:104FBE00125E5930915D125C48EF3395E0FEEF645E
:104FCE00014E7047125E60209123125E527BFF20CD
:104FDE00910D7A457951125961E490014E80227AF1
:104FEE0045797212596190014E74018014125E520D
:104FFE007BFF2091107A45798A12596190014E7487
:10500E0001F07FFF227A4579A2800E7BFF7A4579E7
:0F501E00B980067BFF7A4579D31259617F002252
:104F4B00125E4B20916190000EE07014A3E0701084
:104F5B0030B35404F0125AFE90000E7401F08047E7
:104F6B0090000EE064017014A3E0701030B33804AD
:104F7B00F012322090000E7402F0802B90000EE0A5
:104F8B0064027023A3E0701F30B31C04F07D667CB9
:104F9B00007FA8125A90BF53047F5380027F4E129A
:104FAB004C31E490000EF0125E4B309105E4900012
:024FBB000FF0F5
:014FBD0022D1
:0B47BD0090000EEBF0A3EAF0A3E9F07F
:1047C800E4900012F0A3740CF0900148E0640170CA
:1047D80073900011F0900013E0FF900011E0C39F68
:1047E8005053E4FFFEFD30801DED701A0FBF00012D
:1047F8000ED3EF9430EE947540EC7D01900013E0F9
:10480800900011F080E0ED6401602A124CB990002C
:104818000EE0FBA3E0FAA3E0F9EF12149690000F64
:10482800E475F0011214DC900012E004F09000111D
:10483800E004F080A090000EE0FBA3E0FAA3E0F90A
:09484800E4121496900012E0FF46
:014851002244
:0B45F10090000EEBF0A3EAF0A3E9F04D
:1045FC00E4FF7E029000021214696403701C9000A8
:10460C000EE0FBA3E0FAA3E0F9900001121469B4E8
:10461C005008D297E4900146F02290000EE0FBA3E4
:10462C00E0FAA3E0F9900001121469643C70509018
:10463C00000EE0FBA3E0FAA3E0F98E827583001272
:10464C001469FD743C2FF582E43401F583EDF00E12
:10465C000F8E82758300121469640370D290000E61
:10466C00E0FBA3E0FAA3E0F98E82758300E4121458
:0F467C00A8743B2FF582E43401F583E4F0D209F2
:01468B00220C
:0E57E50090003FEBF0A3EAF0A3E9F0A3EDF093
:1057F300E4A3F0900042E0FFA3E0C39F5024900095
:105803003FE0FBA3E0FAA3E0F9121450FF12537D2B
:10581300900040E475F0011214DC900043E004F0C2
:0258230080D132
:015825002260
:0B3BBD0090001DEBF0A3EAF0A3E9F07C
:103BC80090003E7403F090002014F0125D7790008E
:103BD80021EFF0A37453F090014EE090003E601383
:103BE800E0FF04F074202FF582E43400F583744D6F
:103BF800F08011E0FF04F074202FF582E43400F522
:103C0800837443F090003E7404F090001DE0FBA321
:103C1800E0FAA3E0F9121450FF602190003EE0247E
:103C280020F582E43400F583EFF090001EE475F08F
:103C3800011214DC90003EE004F080CE90003EE0DB
:103C4800FF04F074202FF582E43400F583743AF011
:103C580090003EE02420F9E43400FA7B011228C6E3
:103C680090003EE0FF242AF582E43400F583743A9C
:103C7800F0742B2FF582E43400F5837403F07B0194
:0B3C88007A007920EF240CFD0257E5C4
:0E391700900014EBF0A3EAF0A3E9F0A3EDF0AA
:10392500A37402F0125D77900019EFF0A37453F0C1
:10393500E4A3F0900017E0900037F0E4A3F07B01DA
:1039450090005304F0A37400F0A37437F07A007963
:103955001812509B900014E0F9A3E0FAA3E0900040
:1039650053C9F0A3EAF0A3E9F07B017A00791812B4
:10397500509B900037743AF0E4A3F07B019000531C
:1039850004F0A37400F0A37437F07A00791812508C
:103995009B7B017A00791812000E900036EFF02417
:1039A50018F9E43400FA7B011228C6900036E0FFCE
:1039B5002422F582E43400F583743AF074232FF55C
:1039C50082E43400F5837403F074242FF582E43423
:1039D50000F583E4F074252FF582E43400F583E4E3
:1039E500F07B017A00791812000E900036EFF0FD99
:0939F5007B017A0079180257E504
:105DDF0090000AE41214A87D007C057FA8024BA74F
:10381C00613B38353B41434552515545205355206A
:10382C005449434B45540A0000613B38393B4752DD
:10383C004143494153202E2E2E2E2E200A0000618A
:10384C003B39373B4E6F2054494B4554204E4F204B
:10385C005245474953545241444F200A0000613BA2
:10386C0038383B45584345444520484F524152490E
:10387C004F2E2E2E0A0000613B39353B554E204D04
:10388C004F4D454E544F202E2E2E2E200A000061F7
:10389C003B39363B53494E2050524553454E4349D4
:1038AC0041205645484943554C41522E2E2E2E2030
:1038BC000A0000613B39303B4E4F2052454749537B
:1038CC00545241205041474F2E2E2E2E200A0000DC
:1038DC0057494547414E442000613B39323B4752E2
:1038EC00414349415320000A0000613B39383B57A2
:1038FC00494547414E442000AA802807200000007B
:0B390C000000140000AA801801020057
:055CA400900055EDF039
:105CA900125923900056EFF0900055E0600AE4FF86
:085CB900125923900056EFF090
:015CC10022C0
:0E5A1900900050EBF0A3EAF0A3E9F0A3EDF04B
:105A2700E4A3F0900050E0FBA3E0FAA3E0F99000B4
:105A370054E0F582758300121469FF6010900053DB
:0D5A4700E0FD125CA4900054E004F080D655
:015A5400222F
:0E57190090002AEBF0A3EAF0A3E9F0A3EDF074
:10572700E490002FF090002DE0FF90002FE0FEC3E3
:105737009F502490002AE0FBA3E0FAA3E0F98E82B1
:10574700758300121469FF90002EE0FD125CA4908F
:07575700002FE004F080CEFA
:01575E002228
:105AC900781D7C007D017BFF7A3979047E007F0D8A
:105AD90012142AC2877B017A007922123E1EC29CC7
:105AE9007B017A00791DE490002EF07D0D12571983
:045AF900D29CD287E2
:015AFD002286
:0951D0001218277B017A00791DF9
:0B51D900900050EBF0A3EAF0A3E9F017
:1051E40012000E900054EFF0E4900053F09000543D
:1051F400E0FF900053E0FEC39F502E900050E0FB70
:10520400A3E0FAA3E0F98E82758300121469FF12F9
:105214005923E4FFEFC394C87480948050030F8033
:09522400F3900053E004F080C493
:01522D00225E
:1048E200C28790014AE07003D28722C287EF24FC7C
:1048F200603324FD603D24FE60482429605224F97F
:10490200605C24E86011047064781D7C007D017B8A
:10491200FF7A38791C8053781D7C007D017BFF7AF9
:104922003879358045781D7C007D017BFF7A3879A6
:104932004B8037781D7C007D017BFF7A38796A12C3
:1049420051D0781D7C007D017BFF7A387983801AF3
:10495200781D7C007D017BFF7A38799B800C781D65
:0F4962007C007D017BFF7A3879BF1251D0D2875C
:014971002223
:0E2FC90090001DEFF0A3EBF0A3EAF0A3E9F0F7
:102FD70078217C007D017BFF7A3979117E007F069D
:102FE70012142AC28790014AE0706690001DE024FF
:102FF70050705B7B017A007921E4FD125A197BFF3F
:103007007A3879DC12000E90004FEFF090001EE046
:10301700FBA3E0FAA3E0F912000E90004FE02F04A3
:10302700F0E4FDFF125CA490004FE025E0FFE4FD13
:10303700125CA47BFF7A3879DC7D01125A19900063
:103047001EE0FBA3E0FAA3E0F97D01125A19D2872B
:1030570022C28790001DE02450604524B16003021E
:1030670030F478277C007D017BFF7A3879E51218E8
:103077002790001EE0FBA3E0FAA3E0F912000E90F0
:10308700004FEFF024FFFFE434FFFE90001EE0FB4B
:10309700A3E0FAA3E0F98F828E83E41214A8800FCD
:1030A70078277C007D017BFF7A3879F61218279004
:1030B700001EE0F9A3E0FAA3E0900053C9F0A3EAE9
:1030C700F0A3E9F07B017A00792712509B90005317
:1030D70074FFF0A37438F0A374F3F07B017A0079DE
:0F30E7002712509B7B017A0079271251D9D2878B
:0130F60022B7
:100026000D0A0A25733E20002563002564000D0A8B
:100036000A2041435455414C2049445F434C4945AD
:100046004E54453D25730D0A0A000D0A0A204449FF
:1000560047495445205355204E5545564F2049444F
:100066005F434C49454E54453D000D0A0A20444124
:10007600544F204D4F444946494341444F2049443B
:100086005F434C49454E54453D25730D0A0A000D04
:100096000A0A2041435455414C20434F445F504186
:1000A600524B3D25730D0A0A000D0A0A20444947A2
:1000B600495445205355204E5545564F20434F44ED
:1000C6005F5041524B3D000D0A0A204441544F20D7
:1000D6004D4F444946494341444F20434F445F50A6
:1000E60041524B3D25730D0A0A000D0A0A20414371
:1000F6005455414C205449454D504F5F475241435A
:1001060049413D25730D0A0A000D0A0A2044494754
:10011600495445205355204E5545564F2054494580
:100126004D504F5F4752414349413D000D0A0A2059
:100136004441544F204D4F444946494341444F2082
:100146005449454D504F5F4752414349413D257300
:100156000D0A0A000D0A0A2041435455414C20530A
:10016600494E5F434F42524F20494E484142494C07
:10017600495441444F3D25730D0A0A000D0A0A20D1
:1001860041435455414C2053494E5F434F42524FD1
:10019600204752415449533D25730D0A0A000D0A62
:1001A6000A2041435455414C2053494E5F434F4228
:1001B600524F2047524154495320592053414C49EC
:1001C600444120454C204D49534D4F204449413D23
:1001D60025730D0A0A000D0A0A2044494749544569
:1001E600205355204E5545564F2053494E5F434F99
:1001F60042524F3D000D0A0A2041435455414C20BE
:10020600444542554720494E484142494C4954418C
:10021600444F3D25730D0A0A000D0A0A2041435436
:1002260055414C20444542554720484142494C4996
:100236005441444F3D25730D0A0A000D0A0A204415
:10024600494749544520454C204E5545564F204573
:10025600535441444F2044452044454255473D00B0
:100266000D0A0A2041435455414C205553455F4CD5
:10027600505220494E484142494C495441444F3D11
:1002860025730D0A0A000D0A0A2041435455414CB4
:10029600205553455F4C505220484142494C4954E1
:1002A60041444F3D25730D0A0A000D0A0A204449B0
:1002B6004749544520454C204E5545564F204553F9
:1002C6005441444F204445205553455F4C50523DC0
:1002D600000D0A0A2050414E54414C4C41204C43DB
:1002E6004420484142494C49544144413D25730DFF
:1002F6000A0A000D0A0A2050414E54414C4C412036
:100306005241535042455252592020484142494C8D
:1003160049544144413D25730D0A0A000D0A0A203D
:1003260044494749544520454C204E5545564F2093
:1003360045535441444F204445204C412050414EA2
:1003460054414C4C41203D000D0A0A20414354556E
:10035600414C20434F4D5041524143494F4E20415D
:1003660043544956412020484142494C495441444E
:10037600413D25730D0A0A000D0A0A2041435455D2
:10038600414C20434F4D5041524143494F4E20412D
:10039600435449564120494E484142494C495441EB
:1003A600444F3D25730D0A0A000D0A0A20414354A5
:1003B60055414C20434F4D5041524143494F4E20E9
:1003C6004143544956412020484142494C495441F1
:1003D600444F3D25730D0A0A000D0A0A2044494779
:1003E60049544520454C204E5545564F20455354BB
:1003F60041444F20444520434F4D504152414349CB
:100406004F4E20414354495641203D000D0A0A20D3
:1004160041435455414C20434F4D5041524143496D
:100426004F4E204143544956412020494E484142AF
:10043600494C495441444F3D25730D0A0A000D0AA3
:100446000A2041435455414C20434F4449474F20CD
:10045600444520424152524153204143544956306B
:100466003D25730D0A0A000D0A0A204143545541E1
:100476004C20434F4449474F205152204143544951
:10048600564F3D25730D0A0A000D0A0A20444947B6
:1004960049544520454C204E5545564F204553540A
:1004A60041444F20444520434F4449474F20515231
:1004B600204F20434F4449474F2044452042415254
:1004C6005241533D000D0A0A20446967697465204C
:1004D600656C206E6F6D6272652064656C20636C5E
:1004E60069656E746520000D0A0A20746578746F5C
:1004F600206772616261646F3D25730D0A0A000D03
:100506000A0A2044696769746520656C206E756DFA
:1005160065726F206465204E697420000D0A0A20FA
:100526004E49543A2025730D0A0A000D0A0A204442
:10053600696769746520656C204E6F6D627265200F
:1005460064656C20506172717565616465726F20B7
:10055600000D0A0A204E6F6D6272653A2025730DF2
:100566000A0A000D0A0A20446967697465206C61ED
:1005760020646972656363696F6E2064656C2065CB
:10058600737461626C6563696D69656E746F200072
:100596000D0A0A20446972656363696F6E3A202505
:1005A600730D0A0A000D0A0A2044696769746520FA
:1005B600656C206D736A312064656C2065737461A7
:1005C600626C6563696D69656E746F20000D0A0A59
:1005D600206D736A313A2025730D0A0A000D0A0A46
:1005E6002044696769746520656C206D736A3220E2
:1005F60064656C2065737461626C6563696D6965B9
:100606006E746F20000D0A0A2044696769746520BC
:10061600656C206D736A332064656C206573746144
:10062600626C6563696D69656E746F20000D0A0AF8
:10063600206D736A333A2025730D0A0A000D0A0AE3
:100646002044696769746520656C206D736A34207F
:1006560064656C2065737461626C6563696D696558
:100666006E746F20000D0A0A206D736A343A2025D5
:10067600730D0A0A000D0A0A204469676974652029
:10068600656C206D736A352064656C2065737461D2
:10069600626C6563696D69656E746F20000D0A0A88
:1006A600206D736A353A2025730D0A0A000D0A0A71
:1006B6002044696769746520656C206D736A36200D
:1006C60064656C2065737461626C6563696D6965E8
:1006D6006E746F20000D0A0A206D736A363A202563
:1006E600730D0A0A000D0A0A2044696769746520B9
:1006F600656C206D736A372064656C206573746160
:10070600626C6563696D69656E746F20000D0A0A17
:10071600206D736A373A2025730D0A0A000D0A20E8
:1007260049445F434C49454E544520202020090941
:10073600092D2D2D20636D642030204964656E746B
:100746006966696361646F722064656C20636C69B5
:10075600656E7465206D6178696D6F203235350080
:100766000D0A20434F445F5041524B202020202049
:10077600200909092D2D2D20636D64203120456C3B
:10078600206E756D65726F2064656C207061727184
:100796007565616465726F206D6178696D6F203271
:1007A6003535000D0A20545F475241434941202008
:1007B600202020200909092D2D2D20636D6420326B
:1007C600205469656D706F2073696E20636F627265
:1007D6006F2030302C20206D6178696D6F203235A6
:1007E60035000D0A2053494E5F434F42524F202099
:1007F6002020090909092D2D2D20636D6420332041
:10080600496E686162696C697461646F3D20302C61
:10081600204772617469733D2031202C2047726134
:1008260074697320792073616C69646120656C203A
:100836006D69736D6F206469613D2032000D0A2079
:100846004445425547202020202020202020090909
:10085600092D2D2D20636D64203420486162696C5A
:1008660069746172203D20312C20496E686162698D
:100876006C69746172203D2030000D0A2055534585
:100886005F4C5052202020202020200909092D2DC0
:100896002D20636D64203520486162696C6974613E
:1008A60072203D20312C20496E686162696C697442
:1008B6006172203D2030000D0A205449504F5F5090
:1008C600414E54414C4C41202020202020092D2D02
:1008D6002D20636D6420362050414E54414C4C41CE
:1008E600204C4344203D302050414E54414C4C4115
:1008F600205241535042455252493D31000D0A2083
:10090600434F4D5041524143494F4E5F4143544935
:10091600564120092D2D2D20636D64203720486116
:1009260062696C69746172203D20312C20496E68C1
:100936006162696C69746172203D2030000D0A2085
:1009460051525F434F445F4241525241532009097D
:10095600092D2D2D20636D64203820486162696C55
:1009660069746172205152203D20312C2048616209
:10097600696C6974617220434F445F42415252412F
:1009860053203D2030000D0A20434C49454E544526
:10099600202020202020200909092D2D2D20636DDF
:1009A600642039204E6F6D6272652064656C206329
:1009B6006C69656E7465000D0A204E49542020202E
:1009C600202020202020202009202020202D2D2D11
:1009D60020636D64203130204E756D65726F206422
:1009E600656C206E6974000D0A204E4F4D5F5041B4
:1009F600525120202020202009202020202D2D2D7E
:100A060020636D64203131204E6F6D627265206403
:100A1600656C20706172717565616465726F000D39
:100A26000A20444952454343494F4E20202020097D
:100A36002020202020202D2D2D20636D6420313292
:100A4600204E6F6D6272652064656C2070617271F4
:100A56007565616465726F000D0A204D534A5F31FA
:100A660020202020202020202009202020202D2D7D
:100A76002D20636D64203133206D736A20646520F8
:100A8600696E666F726D6163696F6E2064656C2056
:100A9600706172717565616465726F000D0A204D33
:100AA600534A5F32202020202020202020092020A9
:100AB60020202D2D2D20636D64203134206D736A26
:100AC60020646520696E666F726D6163696F6E2062
:100AD60064656C20706172717565616465726F0022
:100AE6000D0A204D534A5F3320202020202020204D
:100AF6002009202020202D2D2D20636D64203135E6
:100B0600206D736A20646520696E666F726D61631D
:100B1600696F6E2064656C207061727175656164C1
:100B260065726F000D0A204D534A5F342020202045
:100B360020202020092020202020202D2D2D20635C
:100B46006D64203136206D736A20646520696E6697
:100B56006F726D6163696F6E2064656C207061727F
:100B6600717565616465726F000D0A204D534A5FA9
:100B76003520202020202020200920202020202071
:100B86002D2D2D20636D64203137206D736A20640E
:100B96006520696E666F726D6163696F6E2064654C
:100BA6006C20706172717565616465726F000D0A03
:100BB600204D534A5F362020202020202020092067
:100BC60020202020202D2D2D20636D6420313820FB
:100BD6006D736A20646520696E666F726D61636904
:100BE6006F6E2064656C20706172717565616465F5
:100BF600726F000D0A204D534A5F372020202020B7
:100C06002020202009202020202D2D2D20636D64FA
:100C1600203139206D736A20646520696E666F72B3
:100C26006D6163696F6E2064656C207061727175A9
:100C360065616465726F000D0A2041595544412073
:100C4600202020202020202009202020202D2D2D8E
:100C560020636D64203230204D7565737472612097
:100C66006C6F7320636F6D616E646F73000D0A2085
:100C760053414C49522020202020202020200920AA
:100C86002020202D2D2D20636D64203231205361CC
:100C96006C69722064652070726F6772616D616342
:100CA600696F6E000D0A0A53697374656D6120647D
:100CB600652050726F6772616D6163696F6E205651
:100CC60065726966696361646F720D0A0D0A000DCB
:100CD6000A0A2F3E5573756172696F3A000D0A0A4A
:100CE600206461746F732064656C20627566666546
:100CF600722072782025730D0A0A000D0A0A2064F4
:100D060061746F732064656C206275666665722017
:100D160074782025730D0A0A000D0A0A2F3E5061C9
:100D26007373776F72643A00313233343536000D9F
:100D36000A436F6D616E646F206E6F20657869730C
:100D46007465202725732700200D0A00200D0A0050
:040D5600220D0A0060
:10442F005400BE2F0000000000000000000000003C
:10443F00000000000000004900B561646D696E0066
:10444F00000000604200D230000031000032000056
:10445F00330000340000350000360000370000380C
:10446F00000039000031300031310031320031337A
:10447F00003134003135003136003137003138002A
:09448F00313900323000323100F5
:0B516E0090003FEBF0A3EAF0A3E9F093
:10517900E4900045F0900045E0FFC39416748094D4
:10518900805041EF75F003A424D2F9740035F0FA88
:105199007B0178427C007D0112182778427C007DD2
:1051A9000190003FE0FBA3E0FAA3E0F912173EEFFC
:1051B9003395E04F7006900045E0FF22900045E0EE
:0651C90004F080B17FFF3D
:0151CF0022BD
:0B575F0090000EE0FBA3E0FAA3E0F9CD
:0B576A0090003FEBF0A3EAF0A3E9F091
:1057750078427C007D017B017A0079B51218277883
:10578500427C007D0190003FE0FBA3E0FAA3E0F935
:0E57950012173EEF3395E04F7002FF227FFFA8
:0157A30022E3
:065826007B017A00792BE2
:0B582C0090003FEBF0A3EAF0A3E9F0CE
:1058370078427C007D017BFF7A0D794E7E007F04E4
:1058470012142A90004D7401F0A37400F0A374425F
:0F585700F090003FE0FBA3E0FAA3E0F90239FE76
:10497200E0FBA3E0FAA3E02FF9EA3EFAE92401F909
:03498200E43AFA1A
:0B49850090003FEBF0A3EAF0A3E9F084
:1049900078427C007D017BFF7A0D79527E007F0496
:1049A00012142A78467C007D017BFF7A0D79567EB1
:1049B000007F0412142A90003FE0FBA3E0FAA3E07A
:1049C000F9121450FFB4200C900040E475F001126D
:1049D00014DC80E2EF90004DB4220D7401F0A3745A
:1049E00000F0A37446F080167401F0A37400F0A3E5
:1049F0007442F090003FE0FBA3E0FAA3E0F9123923
:014A0000FEB7
:014A01002292
:105D28009000847401F0A37400F0A374BEF07BFFAC
:075D38007A0079260218C56C
:084ECB007A00792B7B01E4FD64
:0E4ED30090007DEBF0A3EAF0A3E9F0A3EDF070
:104EE100125E1C90007DE0FBA3E0FAA3E0F9EF1253
:104EF1001496900080E0701D90007DE0FBA3E0FA25
:104F0100A3E0F9121450900084F07BFF7A00792E0F
:104F11001218C580057F2A12592390007DE0FBA35A
:104F2100E0FAA3E0F9121450FF7E0090007EE475D0
:104F3100F0011214DC90007DE0FBA3E0FAA3E0F99C
:094F4100E4121496EF640D709760
:014F4A002244
:10428F00E4FDFC7FA8125A907E00900049EEF0A347
:10429F00EFF090008474FFF0A37400F0A37431F07A
:1042AF00A3EEF0A3EFF07B017A00793F1218BF90D5
:1042BF0000847401F0A37400F0A3743FF07BFF7AC5
:1042CF000079341218C57BFF7A0079501218C57A1D
:1042DF0000793F124ECF7B017A00793F123AE2907C
:1042EF000049EEF0A3EFF0FBE4FDFC7FA81258A508
:1042FF00E4FDFC7FA8125A907E00900049EEF0A3D7
:10430F00EFF090008474FFF0A37400F0A37431F009
:10431F00A3EEF0A3EFF07B017A00793F1218BF9064
:10432F0000847401F0A37400F0A3743FF07BFF7A54
:06433F000079700218C5B0
:103FA1007D027C007FA8125A907E00900049EEF0BD
:103FB100A3EFF090008474FFF0A37400F0A37431B8
:103FC100F0A3EEF0A3EFF07B017A00793F1218BF66
:103FD1009000847401F0A37400F0A3743FF07BFFA0
:103FE1007A0079951218C57BFF7A0079AF1218C54E
:103FF1007B017A00793FE4FD124ED37B017A00798F
:104001003F123AE2900049EEF0A3EFF0FB7D027C13
:10401100007FA81258A57D027C007FA8125A907ECD
:1040210000900049EEF0A3EFF090008474FFF0A33C
:104031007400F0A37431F0A3EEF0A3EFF07B017AEA
:1040410000793F1218BF9000847401F0A37400F04E
:0D405100A3743FF07BFF7A0079CD0218C503
:10405E007D047C007FA8125A907E00900049EEF0FD
:10406E00A3EFF090008474FFF0A37400F0A37431FA
:10407E00F0A3EEF0A3EFF07B017A00793F1218BFA8
:10408E009000847401F0A37400F0A3743FF07BFFE2
:10409E007A0079F01218C57BFF7A01790F1218C5D4
:1040AE007B017A00793FE4FD124ED37B017A0079D1
:1040BE003F123AE2900049EEF0A3EFF0FB7D047C54
:1040CE00007FA81258A57D047C007FA8125A907E0E
:1040DE0000900049EEF0A3EFF090008474FFF0A37F
:1040EE007400F0A37431F0A3EEF0A3EFF07B017A2D
:1040FE0000793F1218BF9000847401F0A37400F091
:0D410E00A3743FF07BFF7A0179320218C5DF
:102E8B007D067C007FA8125A907E00900049EEF0E0
:102E9B00A3EFF090008474FFF0A37400F0A37431DF
:102EAB00F0A3EEF0A3EFF07B017A00793F1218BF8D
:102EBB00900049E07002A3E0701590008404F0A329
:102ECB007400F0A3743FF07BFF7A01795A80359040
:102EDB000049E07004A3E06401701590008404F0D5
:102EEB00A37400F0A3743FF07BFF7A017982801406
:102EFB009000847401F0A37400F0A3743FF07BFF87
:102F0B007A0179A41218C57BFF7A0179DC1218C5F6
:102F1B007B017A00793FE4FD124ED37B017A007975
:102F2B003F123AE2900049EEF0A3EFF0FB7D067CF6
:102F3B00007FA81258A57D067C007FA8125A907EB0
:102F4B0000900049EEF0A3EFF090008474FFF0A323
:102F5B007400F0A37431F0A3EEF0A3EFF07B017AD1
:102F6B0000793F1218BF900049E07002A3E0701582
:102F7B0090008404F0A37400F0A3743FF07BFF7AFD
:102F8B0001795A8035900049E07004A3E064017028
:102F9B001590008404F0A37400F0A3743FF07BFF42
:102FAB007A01798280149000847401F0A37400F08C
:0D2FBB00A3743FF07BFF7A0179A41218C5C2
:012FC80022E6
:103330007D087C007FA8125A907E00900049EEF034
:10334000A3EFF090008474FFF0A37400F0A3743135
:10335000F0A3EEF0A3EFF07B017A00793F1218BFE3
:10336000900049E07002A3E0701590008404F0A37F
:103370007400F0A3743FF07BFF7A0179FB80149016
:1033800000847401F0A37400F0A3743FF07BFF7A13
:1033900002791F1218C57BFF7A0279411218C57B8A
:1033A000017A00793FE4FD124ED37B017A00793F28
:1033B000123AE2900049EEF0A3EFF0FB7D087C00AA
:1033C0007FA81258A57D087C007FA8125A907E0025
:1033D000900049EEF0A3EFF090008474FFF0A37426
:1033E00000F0A37431F0A3EEF0A3EFF07B017A00BC
:1033F000793F1218BF900049E07002A3E070159069
:10340000008404F0A37400F0A3743FF07BFF7A0102
:1034100079FB80149000847401F0A37400F0A3740D
:0B3420003FF07BFF7A02791F1218C5F5
:01342B00227E
:10342C007D0A7C007FA8125A907E00900049EEF035
:10343C00A3EFF090008474FFF0A37400F0A3743138
:10344C00F0A3EEF0A3EFF07B017A00793F1218BFE6
:10345C00900049E07002A3E0701590008404F0A382
:10346C007400F0A3743FF07BFF7A027966801490AD
:10347C0000847401F0A37400F0A3743FF07BFF7A16
:10348C0002798C1218C57BFF7A0279B01218C57BB1
:10349C00017A00793FE4FD124ED37B017A00793F2B
:1034AC00123AE2900049EEF0A3EFF0FB7D0A7C00AB
:1034BC007FA81258A57D0A7C007FA8125A907E0026
:1034CC00900049EEF0A3EFF090008474FFF0A37429
:1034DC0000F0A37431F0A3EEF0A3EFF07B017A00BF
:1034EC00793F1218BF900049E07002A3E07015906C
:1034FC00008404F0A37400F0A3743FF07BFF7A0205
:10350C00796680149000847401F0A37400F0A374A5
:0B351C003FF07BFF7A02798C1218C58B
:013527002281
:103528007D0B7C007FA8125A907E00900049EEF037
:10353800A3EFF090008474FFF0A37400F0A374313B
:10354800F0A3EEF0A3EFF07B017A00793F1218BFE9
:10355800900049E07002A3E0701590008404F0A385
:103568007400F0A3743FF07BFF7A0279D78014903F
:1035780000847401F0A37400F0A3743FF07BFF7A19
:103588000279F91218C57BFF7A0379221218C57BD4
:10359800017A00793FE4FD124ED37B017A00793F2E
:1035A800123AE2900049EEF0A3EFF0FB7D0B7C00AD
:1035B8007FA81258A57D0B7C007FA8125A907E0028
:1035C800900049EEF0A3EFF090008474FFF0A3742C
:1035D80000F0A37431F0A3EEF0A3EFF07B017A00C2
:1035E800793F1218BF900049E07002A3E07015906F
:1035F800008404F0A37400F0A3743FF07BFF7A0208
:1036080079D780149000847401F0A37400F0A37437
:0B3618003FF07BFF7A03794E1218C5CB
:013623002284
:103624007D0C7C007FA8125A907E00900049EEF039
:10363400A3EFF090008474FFF0A37400F0A374313E
:10364400F0A3EEF0A3EFF07B017A00793F1218BFEC
:10365400900049E07002A3E0701590008404F0A388
:103664007400F0A3743FF07BFF7A03797E8014909A
:1036740000847401F0A37400F0A3743FF07BFF7A1C
:103684000379AF1218C57BFF7A0379DF1218C57B63
:10369400017A00793FE4FD124ED37B017A00793F31
:1036A400123AE2900049EEF0A3EFF0FB7D0C7C00AF
:1036B4007FA81258A57D0C7C007FA8125A907E002A
:1036C400900049EEF0A3EFF090008474FFF0A3742F
:1036D40000F0A37431F0A3EEF0A3EFF07B017A00C5
:1036E400793F1218BF900049E07002A3E070159072
:1036F400008404F0A37400F0A3743FF07BFF7A0409
:10370400791280149000847401F0A37400F0A374FF
:0B3714003FF07BFF7A0379AF1218C56D
:01371F002287
:103720007D0E7C007FA8125A907E00900049EEF03A
:10373000A3EFF090008474FFF0A37400F0A3743141
:10374000F0A3EEF0A3EFF07B017A00793F1218BFEF
:10375000900049E07002A3E0701590008404F0A38B
:103760007400F0A3743FF07BFF7A047944801490D6
:1037700000847401F0A37400F0A3743FF07BFF7A1F
:1037800004796D1218C57BFF7A04798F1218C57BF6
:10379000017A00793FE4FD124ED37B017A00793F34
:1037A000123AE2900049EEF0A3EFF0FB7D0E7C00B0
:1037B0007FA81258A57D0E7C007FA8125A907E002B
:1037C000900049EEF0A3EFF090008474FFF0A37432
:1037D00000F0A37431F0A3EEF0A3EFF07B017A00C8
:1037E000793F1218BF900049E07002A3E070159075
:1037F000008404F0A37400F0A3743FF07BFF7A040C
:10380000794480149000847401F0A37400F0A374D0
:0B3810003FF07BFF7A04796D1218C5B1
:01381B00228A
:1053C5007BFF7A0479CB1218C57B017A00793FE41B
:1053D500FD124ED37B017A00793F7D107C007FA8BA
:1053E500124BA77B017A00793F7F107E0012522E67
:1053F5009000847401F0A37400F0A3743FF07BFF68
:075405007A0479ED0218C5DD
:10540C007BFF7A0579051218C57B017A00793FE498
:10541C00FD124ED37B017A00793F7D407C007FA842
:10542C00124BA77B017A00793F7F407E0012522EEF
:10543C009000847401F0A37400F0A3743FF07BFF20
:07544C007A0579220218C560
:105453007BFF7A0579311218C57B017A00793FE425
:10546300FD124ED37B017A00793F7D507C007FA8EB
:10547300124BA77B017A00793F7F507E0012522E98
:105483009000847401F0A37400F0A3743FF07BFFD9
:075493007A0579570218C5E4
:10549A007BFF7A0579691218C57B017A00793FE4A6
:1054AA00FD124ED37B017A00793F7D807C007FA874
:1054BA00124BA77B017A00793F7F807E0012522E21
:1054CA009000847401F0A37400F0A3743FF07BFF92
:0754DA007A0579960218C55E
:1054E1007BFF7A0579AB1218C57B017A00793FE41D
:1054F100FD124ED37B017A00793F7DB07C007FA8FD
:10550100124BA77B017A00793F7FB07E0012522EA9
:105511009000847401F0A37400F0A3743FF07BFF4A
:075521007A0579D30218C5D9
:105528007BFF7A0579E31218C57B017A00793FE49D
:10553800FD124ED37B017A00793F7DF17C007FA874
:10554800124BA77B017A00793F7FF17E0012522E21
:105558009000847401F0A37400F0A3743FF07BFF03
:075568007A0579D30218C592
:10556F007BFF7A06790B1218C57B017A00793FE42D
:10557F00FD124ED37B017A00793F7D327C017FA8EB
:10558F00124BA77B017A00793F7F327E0112522E98
:10559F009000847401F0A37400F0A3743FF07BFFBC
:0755AF007A0679330218C5EA
:1055B6007BFF7A0679431218C57B017A00793FE4AE
:1055C600FD124ED37B017A00793F7D737C017FA863
:1055D600124BA77B017A00793F7F737E0112522E10
:1055E6009000847401F0A37400F0A3743FF07BFF75
:0755F6007A06796B0218C56B
:1055FD007BFF7A06797B1218C57B017A00793FE42F
:10560D00FD124ED37B017A00793F7DB47C017FA8DA
:10561D00124BA77B017A00793F7FB47E0112522E87
:10562D009000847401F0A37400F0A3743FF07BFF2D
:07563D007A0679A30218C5EB
:105644007BFF7A0679B31218C57B017A00793FE4AF
:10565400FD124ED37B017A00793F7DF57C017FA852
:10566400124BA77B017A00793F7FF57E0112522EFF
:105674009000847401F0A37400F0A3743FF07BFFE6
:075684007A0679DB0218C56C
:10568B007BFF7A0679EB1218C57B017A00793FE430
:10569B00FD124ED37B017A00793F7D367C027FA8C9
:1056AB00124BA77B017A00793F7F367E0212522E76
:1056BB009000847401F0A37400F0A3743FF07BFF9F
:0756CB007A0779130218C5EC
:103C93007BFF7A0779231218C57BFF7A07796612AF
:103CA30018C57BFF7A0779A91218C57BFF7A0779B4
:103CB300E81218C57BFF7A0879431218C57BFF7A8F
:103CC3000879801218C57BFF7A0879BD1218C57B65
:103CD300FF7A0979031218C57BFF7A097943121811
:103CE300C57BFF7A09798C1218C57BFF7A0979BDE8
:103CF3001218C57BFF7A0979ED1218C57BFF7A0A82
:103D030079251218C57BFF7A0A795E1218C57BFFE5
:103D13007A0A79A21218C57BFF7A0A79E61218C5C6
:103D23007BFF7A0B792A1218C57BFF7A0B796F1206
:103D330018C57BFF7A0B79B41218C57BFF7A0B7910
:103D4300F91218C57BFF7A0C793D1218C57BFF7AEF
:063D53000C79730218C593
:10268C007BFF7A0C79AA1218C57BFF7A0C79D512CC
:10269C0018C5125E0E124ECB12582690000EEBF09F
:1026AC00A3EAF0A3E9F0900084E4F0A37400F0A393
:1026BC007422F07BFF7A0C79E31218C5900084E445
:1026CC00F0A37400F0A374A2F07BFF7A0D790112D1
:1026DC0018C512575FEF70B17BFF7A0D791F121876
:1026EC00C57B017A00792B7D01124ED312582690AE
:1026FC00000EEBF0A3EAF0A3E9F078B57C007D01C5
:10270C007BFF7A0D792E12182712575FEF70C902D2
:10271C00289E125D28124ECB12582690000EEBF01C
:10272C00A3EAF0A3E9F012000E90000E1249729089
:10273C000011EBF0A3EAF0A3E9F012000E900011E7
:10274C00124972900014EBF0A3EAF0A3E9F09000A8
:10275C0011E0FBA3E0FAA3E0F9EA494B601712146D
:10276C0050B42F1178177C007D01900011A3A3E0C9
:10277C00121827803D900011E0FBA3E0FAA3E0F9CA
:10278C00EA494B602D78177C007D017B017A00793A
:10279C00BE121827900011E0F9A3E0FAA3E0900014
:1027AC0053C9F0A3EAF0A3E9F07B017A0079171280
:1027BC00509B90000EE0FBA3E0FAA3E0F9EA494B32
:1027CC00700302271E12516EEFB41600400302284C
:1027DC00A49027E4F828287302282602282C022823
:1027EC003202283802283E02284402284A02285085
:1027FC0002285602285C02286202286802286E020F
:10280C00287402287A02288002288602288C022842
:10281C009202289802289E0228C512428F02271E77
:10282C00123FA102271E12405E02271E122E8B029F
:10283C00271E12333002271E12342C02271E12358B
:10284C002802271E12362402271E12372002271EAA
:10285C001253C502271E12540C02271E1254530287
:10286C00271E12549A02271E1254E102271E1255DB
:10287C002802271E12556F02271E1255B602271E5C
:10288C001255FD02271E12564402271E12568B02A9
:10289C00271E123C9302271E90000EE0F9A3E0FACB
:1028AC00A3E0900084C9F0A3EAF0A3E9F07BFF7ADF
:0928BC000D79351218C502271E22
:0128C50022F0
:105DEF002D30732D002D31313131312E00256400CE
:0B47260090000EEBF0A3EAF0A3E9F016
:10473100900013E4F0A37498F0125E85E4900012E7
:10474100F0C286900011F0C2B2900013E0FEA3E027
:10475100FF20B35B900011E07055900013E0FEA3C1
:10476100E0FFEF1F70011EEF4E700590001104F085
:1047710030B406900011E060E920B433900011E0FC
:10478100702D90000EE0FBA3E0FAA3E0F9E5A01282
:104791001496900012E004F090000FE475F00112FD
:1047A10014DC900013E0FEA3E0FF30B4FD80A2D240
:0B47B100B2D286125E7B900012E0FF87
:0147BC0022DA
:0E43450090003DEBF0A3EAF0A3E9F0A3EDF049
:10435300900046F0D2B2D2B4C286E4900045F0C2D7
:10436300B290004112154900004E2030B34990002D
:1043730045E07043C2B2D2B4900041E0FCA3E0FD3B
:10438300A3E0FEA3E0FFEF24FFFFEE34FFFEED34D6
:10439300FFFDEC34FFFC90004112153D900041E01D
:1043A300FCA3E0FDA3E0FEA3E0FFEC4D4E4F70BB8A
:1043B300A304F0C28280B4900045E0702920B326A4
:1043C30090003DE0FBA3E0FAA3E0F9121450F5A03E
:1043D300125D8990003EE475F0011214DC900040F8
:1043E300E014F0E070DA75A0FFD2B2D2B4D2867FC7
:0643F300627E00025D5332
:102C0400900017EDF0900014EBF0A3EAF0A3E9F0C4
:102C140090003C7402F090001EF0A37473F0E4A3DF
:102C2400F012000E90003CEFF0900014E0F9A3E0E5
:102C3400FAA3E0900040C9F0A3EAF0A3E9F0A3E40A
:102C4400F0A3EFF07B017A00791E123D59900053F6
:102C540074FFF0A3745DF0A374EFF07B017A007944
:102C64001E12509B7F8D12485C125C86EF243090BC
:102C74000018F07F8912485C125C86EF24309000C3
:102C840019F07F8712485C125C86EF243090001A9A
:102C9400F07F8512485C125C86EF243090001BF0B4
:102CA4007F8312485C125C86EF243090001CF0E4B1
:102CB400A3F07B0190005304F0A37400F0A37418F4
:102CC400F07A00791E12509B90005374FFF0A374A5
:102CD4005DF0A374F4F07B017A00791E12509B908E
:102CE4000017E0A3F0E4A3F07B0190005304F0A3E9
:102CF4007400F0A37418F07A00791E12509B7B01C3
:102D04007A00791E12000E90003CEFF0E0241EF5CC
:102D140082E43400F5837403F0C2B230B3FD7B0166
:102D24007A00791E90003CE004FD124345125E3B9C
:102D34007B017A00791E90003CE004FD9000417410
:082D440001F012502D025E3B6C
:105D8900C2B47F287E00125D53D2B47F287E000200
:025D99005D5358
:064C310090001DEFF0FBF6
:104C3700D2B4C286E4A3F0A312154900003A988BB8
:104C4700A0C2B230B34390001EE0703DA3E0FCA3C6
:104C5700E0FDA3E0FEA3E0FFEF24FFFFEE34FFFE3D
:104C6700ED34FFFDEC34FFFC90001F12153D900062
:104C77001FE0FCA3E0FDA3E0FEA3E0FFEC4D4E4FD9
:104C870070C190001E04F080BA90001EE0700C20E6
:104C9700B30990001DE0F5A0125D89D2B2D2B4D25B
:104CA7008675A0FF7F627E00125D537F627E0002E1
:024CB7005D534B
:0A5E2800D2B4D2B2D28675A0FF22D8
:105AFE009000107402F0A37469F07B017A007912A1
:105B0E00123E1E7F8B12485C900018EFF0A37403B8
:0C5B1E00F07B017A0079107D0A024345FB
:10322000E4900020F09000107402F0A37444F09039
:10323000008474FFF0A3745DF0A374FCF090015956
:10324000E0FFA3E0900087CFF0A3EFF07B017A00CE
:10325000791B1218BF90001F7402F0900020E02428
:103260001BF582E43400F583E0FF601790001FE057
:103270002410F582E43400F583EFF0900020E004A0
:10328000F0801890001FE02410F582E43400F583EC
:10329000743BF090001FE004F0800890001FE004F1
:1032A000F080B890008474FFF0A3745DF0A374FC08
:1032B000F0900155E0FFA3E0900087CFF0A3EFF07E
:1032C0007B017A00791B1218BFE4900020F0900077
:1032D00020E0241BF582E43400F583E0FF601790C2
:1032E000001FE02410F582E43400F583EFF0900035
:1032F00020E004F0801890001FE02410F582E434F0
:1033000000F583743BF090001FE004F0800890000B
:103310001FE004F080B890001FE0FD2410F582E467
:103320003400F5837403F07B017A00791002434581
:105286004461746F73204D46207265737075657343
:1052960074613A20004461746F73204D4620456E58
:1052A600766961646F733A20002F2A2D2D2D2D2DDE
:1052B6002D2D2D2D2D2D2D2D2D2D2D2D2D2D2D2D18
:1052C6002D2D2D2D2D2D2D2D2D2D2D2D2D2D2D2D08
:0752D6002D2D2A2F0D0A0007
:065C2800AE07EEC313FEFF
:105C2E00E4FFEFD3940774809480500D00000000C1
:095C3E000000000000000F80E9E5
:015C4700223A
:105CDD00E4FFEFD3940474809480500D0000000015
:095CED000000000000000F80E936
:015CF600228B
:02537D00AE0779
:10537F00C2AFC290125C2E0000AD06EE5401FE705B
:10538F0004C2908002D290125C2E7C01ECD3940761
:10539F00748094805015EDC313FD5401FE7004C248
:1053AF00908002D290125C2E0C80E1D290125C2E73
:0553BF00125C2ED2AFCC
:0153C40022C6
:0256D200AB0724
:1056D400900149E06401703CEB54F0C4540FFFD3D3
:1056E400940974809480400674372FFF80047430CA
:1056F4002FFF12537DEB540FFFD3940974809480D1
:10570400400674372FFF800474302FFF12537D7FBF
:045714002012537D8F
:01571800226E
:0E502D0090003DEBF0A3EAF0A3E9F0A3EDF054
:10503B00900149E064017057900041E0FF3395E027
:10504B00FEEF4E7BFF60067A52798680047A5279A6
:10505B009B125961E4900042F0900040E0FF9000F9
:10506B0042E0C39F502490003DE0FBA3E0FAA3E095
:10507B00F9121450FF1256D290003EE475F0011253
:0F508B0014DC900042E004F080CF7F0A12537DC6
:01509A0022F3
:0B596100900043EBF0A3EAF0A3E9F094
:10596C00E4A3F0900149E064017027900046F090A8
:10597C000043E0FBA3E0FAA3E0F9A3E0F582758312
:10598C0000121469FF600B12537D900046E004F086
:02599C0080DDAC
:01599E0022E6
:095E3B007BFF7A5279AF02596134
:104CB9007EFF125CDD125C2E208005747FFF80046C
:104CC900EE4480FF125C28EE208005547FFF8003AC
:104CD9004480FF125C28EE208005547FFF80034446
:104CE90080FF125C28EE208005547FFF80034480FA
:104CF900FF125C28EE208005547FFF80034480FF6B
:104D0900125C28EE208005547FFF80034480FF1247
:104D19005C28EE208005547FFF80034480FF125CED
:104D290028EE208005547FFF80034480FFAE0712E0
:074D39005C2E3080FDAF0687
:014D40002250
:055E8000D290D2802247
:0E449800010B00010C00010900010A00C10B1C
:03002300024D414A
:104D4100C0E0C083C082C0D075D000C000C006C022
:014D5100075A
:104D5200309845C298859908C3E509950AFFE494FD
:104D620000FEEF54804E7018E509547F2422F8A605
:104D720008050974222509F87600900147E004F03D
:104D8200E508B4240890015B7402F0800BE508B4D6
:104D92003C0690015B7401F030991AC299E50B65EB
:104DA2000C6010E50C540124A2F8E6F599050CC23A
:054DB2000B8002D20B92
:0F4DB700D007D006D000D0D0D082D083D0E03249
:105B2A00D310AF01C3C0D012599FE4F50BF50CF5A1
:105B3A0009F50AC29FD29EC29DD29CC298C299D22E
:0A5B4A000BD2ACD2BCD0D092AF2237
:07599F00D310AF01C3C0D01B
:1059A6007D007C087FA8125A90C299E4F50BF50C8D
:1059B600C28EC2AB43878053890F438920EF600AAA
:1059C600758DF4758BF4D28E8008758D01758B01FB
:0259D600D28E6F
:0559D800D0D092AF22C7
:105A5500D310AF01C3C0D09000B4EFF0125DADC359
:105A6500EF94027480948040047FFF80199000B405
:105A7500E0FFE50B540124A2F8A607050B300B0443
:0B5A8500C20BD2997F00D0D092AF225C
:105B7C00D310AF01C3C0D0125D9BEF70067EFF7FC8
:105B8C00FF800EAF0A050AEF547F2422F8E6FF7E51
:065B9C0000D0D092AF2200
:105D9B00D310AF01C3C0D0C3E509950AFFD0D09291
:025DAB00AF2225
:105DAD00D310AF01C3C0D0C3E50B950CFFD0D0927B
:025DBD00AF2213
:0E5E0E00E4F50BF50CF509F50AC298C29922CD
:105D10004C4956450A00477261626163696F6E20A3
:085D200053657269653A200029
:0E1CDD0090000EEBF0A3EAF0A3E9F0A3EDF007
:101CEB006419704490000EE0FBA3E0FAA3E0F91234
:101CFB001450640270329000021214696448702808
:101D0B00900011E07E0024FFF582EE34FFF5831284
:101D1B0014696403701290000EA3A3E02403F9E48A
:101D2B003AFA124A02025AC990000EE0FBA3E0FAFB
:101D3B00A3E0F912145064B67033900146E0C394DB
:101D4B00147480948040107FB61248E2C282E490F3
:101D5B000146F0C297C283900149E06003022083E1
:101D6B00900148E064016003022083803E90000EE6
:101D7B00E0FBA3E0FAA3E0F912145064AA704090C0
:101D8B000146E0C39414748094805003022083E4D2
:101D9B00F0C297D282C283900149E0600302208394
:101DAB00900148E06401600302208390014904F034
:101DBB007BFF7A5D7910125961E4900149F0229012
:101DCB000011E06401701790000EE0FBA3E0FAA392
:101DDB00E0F9121450640170057FFF021EEF9000B2
:101DEB0011E06401701790000EE0FBA3E0FAA3E092
:101DFB00F9121450640270057FFE021EEF90001161
:101E0B00E06401701790000EE0FBA3E0FAA3E0F989
:101E1B00121450640470057F04021EEF900011E051
:101E2B006401701790000EE0FBA3E0FAA3E0F91237
:101E3B001450640770057F07021EEF900011E064D9
:101E4B0001701790000EE0FBA3E0FAA3E0F9121467
:101E5B0050640970057F09021EEF900011E06401C8
:101E6B00701690000EE0FBA3E0FAA3E0F9121450F9
:101E7B0064E770047FE7806C900011E0FF640370EF
:101E8B002A90000EE0FBA3E0FAA3E0F99000011208
:101E9B00146964557015FE74FF2FF582EE34FFF54F
:101EAB0083121469640370030259DD900011E0FF83
:101EBB006413703390000EE0FBA3E0FAA3E0F91279
:101ECB00145064027021900001121469B44F187EF3
:101EDB000074FF2FF582EE34FFF58312146964034F
:101EEB0070057FFE0248E2900011E0FF641370580A
:101EFB0090000EE0FBA3E0FAA3E0F9121450640289
:101F0B0070469000011214696456703CEF24FFFF79
:101F1B00E434FFFE8F82F583121469640370298FFA
:101F2B00828E83E41214A8E92402F9E43AFA7FFFC3
:101F3B00122FC9E4900011F0D297900146740AF069
:101F4B007FA1124C31022077900011E0FF640660F4
:101F5B000302200490000EE0FBA3E0FAA3E0F912C9
:101F6B00145064026003022004900001121469648F
:101F7B00576003022004FE74FF2FF582EE34FFF549
:101F8B00831214696403707190000EA3A390000276
:101F9B00121469FD7B017A0079121252DD90001543
:101FAB007420F090000EE0FBA3E0FAA3E0F99000A0
:101FBB0003121469FD90000EA3A390000412146980
:101FCB00900021F07B017A0079161223BC90014816
:101FDB00E064017019124FBEEFF460077FE0124806
:101FEB00E2800B7B017A007912123BBD80007B01F2
:101FFB007A0079127FB0022FC9900011E0FF640CB8
:10200B00705390000EE0FBA3E0FAA3E0F91214501A
:10201B0064027041FE74FF2FF582EE34FFF58312DC
:10202B0014696403702F90000EA3A3E02401F9E45C
:10203B003AFA125DDF7BFF7A5D79161259619000D7
:10204B000EE0FBA3E0FAA3E0F9A3E0FD90004174DE
:10205B0001F002502D90000EE0FBA3E0FAA3E0F993
:10206B0012145064AB70117FFF1248E2900145745B
:08207B0037F09001507404F0ED
:01208300223A
:102D4C000D0A5665686963756C6F20656E20656C3D
:102D5C00206C6F6F700D0A005665686963756C6F37
:102D6C00206E6F20656E20656C206C6F6F700D0A85
:102D7C000D0A007472616D612064656C206C656372
:102D8C00746F7220646174616C6F67696320636F28
:102D9C0064205152000D0A007472616D61206465EB
:102DAC006C206C6563746F7220646174616C6F6706
:102DBC00696320636F642062617272617300747264
:102DCC00616D612064656C206C6563746F72206446
:102DDC006174616C6F676963206E6F2065737461D9
:102DEC0020636F6D706C6574610D0A00636F6420F5
:102DFC0062617272617300636F6420515220720AB7
:102E0C0000436172726F007469706F206465207684
:102E1C0065686963756C6F3A20006C6F6E676974D6
:102E2C007564206465206C61207472616D613A2058
:102E3C000D0A0046656368612064652073616C69E6
:102E4C0064613A20000A0066696E206465206C6536
:102E5C006374757261206465207472616D610D0A12
:102E6C00005245454E564941205452414D41205047
:0F2E7C00544F20504152414C454C4F0D0A2000FD
:0444A60041015C0074
:105BA200E4FF121450FDC3943074809480400AD3F1
:105BB200ED943974809480400A740129F9E43AFA28
:035BC2000F80DF72
:015BC50022BD
:0C5C670090000EEFF02422F9E4FA7D3EDC
:105C7300E4FF1214506D600A740129F9E43AFA0F33
:025C830080F0AF
:015C850022FC
:0B411B00900172EBF0A3EAF0A3E9F0C2
:104126007B017A01797D1244AB90017DE0FF7E0030
:104136007C017D6D1214CAAC06AD07A3E075F01EB6
:10414600A42DFFEC35F0FEA3E07C002FFFEC3EFE35
:10415600E4FD90017512153D900172E0FBA3E0FAB3
:10416600A3E0F990000112146975F01EA4FDACF0ED
:10417600C004C005121450FF7E007C017D6D121430
:10418600CAD0E02FFFD0E03EFE9000021214691C58
:104196002FFFEC3EFEE4FD90017912153D9001756E
:1041A600E0FCA3E0FDA3E0FEA3E0FFA3E0F8A3E0AC
:1041B600F9A3E0FAA3E0FBC31215004008900183BF
:0F41C6007401F08005E4900183F0900183E0FF25
:0141D50022C7
:10208400900150E01460651470030221B7147003CA
:102094000221EC14700302236714700302239024BA
:1020A40005600302238A900145E064016003022372
:1020B400BBC297124FBEEF60227BFF7A2D794C1280
:1020C40059617FFE1248E290015CE0700B7FA01220
:1020D4004C3190015C7401F002235A7BFF7A2D7914
:1020E40064125961E490015CF00221AE900145E074
:1020F4006401600990015BE070030223BB90015B03
:10210400E0640170287BFF7A2D797F1259617B008E
:102114007A0079221259617BFF7A2D79A1125961D3
:102124009001457414F09001507403F02290015B07
:10213400E064027060785D7C017D01FB7A007922A5
:102144001218277B007A00792212000E90000EEFFD
:10215400F0E0FF245CF582E43401F583E4F0D3EF8E
:10216400940A74809480400B125E0E7FFE1248E243
:1021740002235A7BFF7A2D79A41259617B017A01DB
:10218400795D1259617BFF7A2D79A1125961900111
:10219400507402F022125E0EE490015CF090015B38
:1021A400F07BFF7A2D79CA1259619001457403F0CE
:1021B40002238A7BFF7A2D79F8125961E490015B3E
:1021C400F09000107443F07B017A01795DFD122CCC
:1021D40004900148E0600E7B017A01795D90001063
:1021E400E0FD1239170223AF900145E0640160035A
:1021F4000223BB7BFF7A2E7903125961E490015BC1
:10220400F0FB7A007922125BA2125C6790000FEF58
:10221400F090001774FFF0A3742EF0A3740DF07AFD
:10222400007922123EE2900011EBF0A3EAF0A3E958
:10223400F04A90001060057443F08003744DF07B05
:10224400FF7A2E7913125961900010E0FF1256D2D2
:102254007BFF7A2D79A11259617BFF7A2E792612A0
:10226400596190000EE0FF1256D27BFF7A2D79A1BE
:1022740012596190000FE0FF1256D27BFF7A2D793C
:10228400A1125961E490015DF090000EE0FF640C2E
:10229400600302235574222FF9E4FB900017F0A386
:1022A400CBF0A3E9F090000FE0FF90001AE4F0A354
:1022B400EFF07B017A01795D12510690000FE02462
:1022C4005DF582E43401F583E4F07B017A01795D04
:1022D4001259617BFF7A2D79A112596190000FE0A8
:1022E4002422F9E4FAFB7D3A125C73125C679000D5
:1022F4000FEFF090000EE02424FAE4900017F0A30E
:10230400F0A3CAF0A3E4F0A3EFF00B7A017967120B
:1023140051067BFF7A2E793F1259617B017A01794C
:10232400671259617BFF7A2E79511259617B017AC8
:1023340001795D900010E0FD122C04900148E060EA
:102344000E7B017A01795D900010E0FD123917804F
:102354005AD2AC125E0E90014574C8F090015074CC
:1023640001F022900145E06401704CD2AC7BFF7A0D
:102374002E79531259619001457403F0125E0EE4F4
:1023840090015CF08001E4900150F022900145E05E
:10239400640170237BFF7A2E796D1259617B017A77
:1023A40001795D900010E0FD122C04900145743712
:0723B400F09001507404F0E9
:0123BB0022FF
:100D5A00021002E86480F8E933E83360110460F0B5
:100D6A00ED33EC337009E8FCE9FDEAFEEBFF2204FF
:100D7A0060DED3EB9FEA9EE99DE8C2E78CF0C2F7FA
:100D8A0095F0400CE8CCF8E9CDF9EACEFAEBCFFBC6
:100D9A00120FCD85D0F05804700320D5B3E8047043
:100DAA00075002B2D502100C92D5EC0460F7E4CCDD
:100DBA00C0E0C398F8603B94186008400DD0E0FB8F
:100DCA00020FE4E4FBFAC9FC8028E830E406E4C92F
:100DDA00FBE4CAFCE830E305E4C9CACBFCE85407E3
:100DEA006010F8C3E913F9EA13FAEB13FBEC13FCEE
:100DFA00D8F130F52FC3E49CFCEF9BFFEE9AFEED91
:100E0A0099FDD0E0FBEF4E4D4C701222DB0302102D
:100E1A0009EC2CFCEF33FFEE33FEED33FDED30E74A
:100E2A00EB020FE4EF2BFFEE3AFEED39FDD0E0FBCB
:100E3A0050130BBB000302100CED13FDEE13FEEF73
:080E4A0013FFEC13FC020FE49E
:100E5200EC4D6011E8497017ED33EC3304600DE49A
:100E6200FCFFFEFD22E933E8330470F8021002129F
:100E72000FCD58046009E4CC2481500628500902A1
:100E8200100C284003021009C0E0EB4A7044B980FC
:100E920006D0E0FB020FF8EF4E701CBD8008EBFF9E
:100EA200EAFEE9FD80EBE98DF0A4FEE5F0020F3BDE
:100EB200E9CDF9EAFEEBFFEF89F0A4FCE5F0CE897B
:100EC200F0A42EFFE435F0CD89F0A42DFEE435F038
:100ED2008067EF4E7005BD80D780C3EF8BF0A4AC66
:100EE200F0EE8BF0A42CFCE435F0F8EF8AF0A42CA1
:100EF200E5F038FCE433CB8DF0A42CFCE5F03BF8B4
:100F0200EE8AF0A42CFCE5F038F8E433CF89F0A4A3
:100F12002CFCE5F038CF3400CE89F0A42FFFE5F0A9
:100F22003EFEE433C98DF0A42EFEE5F039CD8AF001
:100F3200A42FFFE5F03EFEE43DFD33D0E0FB500779
:100F42000BBB000F02100CEC2CFCEF33FFEE33FE58
:060F5200ED33FD020FE487
:100F580075F020800E75F010800575F0087D007E14
:100F6800007F003392D530D5031214F2EC334010D1
:100F7800EF33FFEE33FEED33FDEC33FCD5F0ED221D
:0E0F8800E5F0247EA2D513CC92E7CDCEFF2259
:100F9600EDD2E7CD33EC3392D524814006E4FFFE53
:100FA600FDFC22FCE4CFCECDCC24E0501174FF80B2
:100FB600EDC3CC13CCCD13CDCE13CECF13CF04704F
:070FC600F030D5DE0214F249
:10185A00E50D2484F582E43400F583E0050D229039
:10186A000081300703900084E475F00112157A02B2
:10187A0014502000E97F2ED2008018EF540F2490D4
:10188A00D43440D4FF30040BEF24BFB41A00500301
:10189A002461FFE50E6002150E0511E511700205BF
:1018AA001030070E900081E475F00112157AEF02EC
:1018BA0014960259237403D2078003E4C207F50D74
:1018CA00900081121591E4F50EF510F511E50E6000
:1018DA00077F2012189D80F5750FFFC201C200C252
:1018EA0002C203C205C206C208121869FF700D308F
:1018FA0007057F001218AEAF11AE1022B4255FC2E1
:10190A00D5C204121869FF24D0B40A00501A75F01F
:10191A000A780E30D50508B6FF0106C6A426F620B9
:10192A00D5047002D20380D924CFB41A00EF500430
:10193A00C2E5D204021BA0D20180C6D20080C0D266
:10194A000280BCD2D580BAD20580B47F2012189DFD
:10195A002002077401B50E0040F112185AFF12183E
:10196A009D0218D7D208D206809512185AFB12186F
:10197A005AFA12185AF94A4B7006799E7A1C7BFF5A
:10198A0020022EE50E602A7E008E827583001214D4
:10199A006960060EEE650F70F0C2D5EBC0E0EAC0D2
:1019AA00E0E9C0E0EE121C01D0E0F9D0E0FAD0E0A4
:1019BA00FB121450FF60AAEBC0E0EAC0E0E9C0E005
:1019CA0012189DD0E02401F9D0E03400FAD0E0FBEF
:1019DA00E50F0460DCD50FD98087D20280A2121BE2
:1019EA00E360F7E50F7001041210BBA90F600DE563
:1019FA000F600914F50F121C8BEF60F3EA30E7024F
:101A0A00F404C3995079EAF4250F0430E701E40499
:101A1A00F50F800D121BE360C1EA050F250F1210A6
:101A2A00BBEA9000B0F030E701E4250F04D50F04BB
:101A3A0020050114121C01E4C0E0121C8B9000B0B6
:101A4A00E0601320E70714F0121885802204F0D012
:101A5A00E014C0E07F00121885E50F600712187CB9
:101A6A00150F800B30050312187CD0E00218D7D06E
:101A7A00E00480C4121BE3609EE50F041210BB90C1
:101A8A0000B0EAF0E50F2005026001042404121CEC
:011A9A00014A
:101A9B0074FF04C0E0121C8B121885E50F200502A1
:101AAB00600312187CD0E0B50FE87F4512188F90B9
:101ABB0000B0E07F2B30E7047F2DF404C0E0121858
:101ACB009DD0E075F00A84C0F0121886D0E0121891
:101ADB00860218D7791080027908C206C2088008DE
:101AEB00D2D5790A8004790AC2D5E50F047002F5C4
:101AFB000FE4FAFDFEFF12185AFC7B0820011312AB
:101B0B00185AFD7B1030000A12185AFE12185AFF91
:101B1B007B20EC3382D592D55013C3E43000069F63
:101B2B00FFE49EFEE42001039DFDE49CFCE4CBF866
:101B3B00C201EC700CCFCECDCCE824F8F870F3805A
:101B4B0017C3EF33FFEE33FEED33FDEC33FCEB331A
:101B5B00FB994002FB0FD8E9EB300105F8D0E0C44C
:101B6B0048B201C0E00AEC4D4E4F78207B0070C2AA
:101B7B00EAB50F0040BCC0E0121C03D0F0D0E0204F
:101B8B000104C4C0E0C4B201C0F0121886D0F0D575
:101B9B00F0EB0218D712159A1974531ADF5819451E
:101BAB004C1941421AE34F1AEB441AEB49195A43A9
:101BBB001AF1551A1E461A7E4519E8471CBE5019D4
:101BCB00492D194D2E19702B195123196E201CA755
:101BDB002A19094800001968E50FB4FF03750F06B1
:101BEB0012185AFC12185AFD12185AFE12185AFFE4
:101BFB009000A90210F8790AA2D520031430050928
:101C0B00B910020404B9080104A2D5200602500140
:101C1B00042002689202B50E005034C0E07F2030E1
:101C2B0003197F30A20272067205500F121C5AC2A2
:101C3B0002C206C205C2087F30800F300503E9C01F
:101C4B00E012189D300503D0E0F9D0E0B50ECC3092
:101C5B0005177F30B9100C12189D7F583004077F81
:101C6B00788003B9080312189D3002057F2D0218E6
:101C7B009D7F202008F87F2B2006F322920280CF35
:101C8B007F00B40700500B24A9F582E43400F583E0
:101C9B00E0FF22286E756C6C2900D20112185A30A5
:101CAB0001F8C201780E30D50108F60219092D5042
:101CBB0043495812185A2403B405004001E4901C00
:101CCB00B99312188E743A12188ED203750E040241
:021CDB001ADF0E
:102A9E0090002912153DE4FFFE7D807C3F900029B9
:102AAE00E0F8A3E0F9A3E0FAA3E0FB121031700600
:102ABE00900029022BF8900029E0FCA3E0FDA3E092
:102ACE00FEA3E0FF121017FBA3E0FCA3E0FDA3E0C2
:102ADE00FEA3E0FF121017FFB40108E4FFFE7D8095
:102AEE007C3F22EF64046029EB64046024EBB401A4
:102AFE0030E4FFFEFDFC90002DE0F8A3E0F9A3E02A
:102B0E00FAA3E0FB12103160084006E4FFFEFDFC64
:102B1E002290002D121549FFFFFFFF90002D022B72
:102B2E00F8E4900031F0A3F0FFFEFDFC900029E0E8
:102B3E00F8A3E0F9A3E0FAA3E0FB121031505F9086
:102B4E00002DE0FCA3E0FDA3E0FEA3E0FF120F9634
:102B5E00900031EEF0A3EFF0FDCCEECCEC120F5D59
:102B6E00C8ECC8C9EDC9CAEECACBEFCB90002DE0B8
:102B7E00FCA3E0FDA3E0FEA3E0FF120D5DE4FBFA73
:102B8E00F9F8121031708A900029E0FCA3E0FDA341
:102B9E00E0FEA3E0FF1210AA90002912153D90004E
:102BAE0029E0FCA3E0FDA3E0FEA3E0FF12312B9091
:102BBE00002DE0F8A3E0F9A3E0FAA3E0FB120E5219
:102BCE001246C490002D12153D900032E030E017F1
:102BDE0090002DE0FCA3E0FDA3E0FEA3E0FF1210A9
:102BEE00AA90002D12153D90002DE0FCA3E0FDA350
:062BFE00E0FEA3E0FF224F
:100FCD00E9D2E7C933E833F892D5EDD2E7CD33EC6A
:070FDD0033FC5002B2D522E3
:100FE400EC30E7100FBF000C0EBE00080DBD00046E
:100FF4000BEB6014A2D5EB13FCED92E7FD2274FF1A
:10100400FCFDFEFF22E480F8A2D574FF13FC7D8072
:03101400E480EF86
:10101700ED33EC33601004700FED547F70057402EC
:0A10270092E0227404220422E42265
:1010310074F8CC6480CCC86480C8F58204604FC366
:10104100EB9FF5F0EA9E42F0E99D42F0E89C45F005
:10105100603C501DE5825FFFE582D313CB5BCBF48F
:101061002B5582FB50280ABA002409B900200880B8
:101071001DE5825BFBE582D313CF5FCFF4C3132F52
:101081005582FF50090EBE00050DBD00010CC3EBDA
:101091009FF5F0EA9E42F0E99D42F0E89C45F06040
:0910A10007CC4820E701B3EC2262
:1010AA00ED33EC33600A047003BD8004ECB2E7FC54
:0110BA002213
:1010BB00F920E73624F950037907E4F42402FBE521
:1010CB0082158270021583DBF6E024FB501BE9606E
:1010DB0014E4F0E582158270021583E004F0B40A83
:0D10EB0008E4F0D9EE7401F00A22C2D5220B
:1010F800ED33EC3392D5FA602AB4FF33EDC2E77BC7
:10110800FF60067A11791DE4227A11792620D50428
:101118007A117921224E614E002B494E46002D4905
:101128004E4600E47A08F0A3DAFC7B00740722C07C
:1011380083C082ECC0E0EDC0E0EEC0E0EFC0E0EAC2
:1011480075F010A4CAABF075F04DA42BFBE435F094
:10115800FCEA2410FAEB34C5FBEC34D9FCEDC2E709
:10116800FF75F056A4F42411C5F0F434C58FF0A42B
:101178002AE5F03BE43CF020E7141212CDD0E0FF62
:10118800D0E0FED0E0FDD0E0FC1212008014F404A0
:101198001212CDD0E0FFD0E0FED0E0FDD0E0FC128E
:1011A8000E52D082D083E0FAEDD2E7CD33EC33246F
:1011B80082FBE4C3CF33CFCE33CECD33CD33DBF395
:1011C8007B0775F00A846004F0A31B0AE5F0F0A31E
:1011D8008FF0740AA4FFACF08EF0740AA42CFEAC55
:1011E800F050010C8DF0740AA42CFDE435F0F0A346
:0511F800DBDE7407229C
:10468C0033DA929E35B16011377FE5FE392184898A
:10469C003AAEC3FF3C1D955B3D6358473E75FDF03C
:1046AC003F3172183F800000C2D502100C0210027C
:1046BC00BD80FA50F3021009ED33EC330460F17B4A
:1046CC003B7AAA79B8783F120E52ED33EC3392D57F
:1046DC00247B5011A2D570DB500BED448024045088
:1046EC0004A2D580CEEFFBEEFAEDF9ECF8120F96A2
:1046FC00EFF582F404FC120F62120D61C082904639
:10470C008C740912131CED33CC33D0F092D525F0F8
:0A471C00A2D57001C313CC13FD22D7
:1030F7003E9248DA3ECCCCCD3F2AAAAB4000000036
:103107003F8000003F9837F03FB504F33FD744FCBA
:103117003E3172173EB172173F0515913EDE5BD9FE
:10312700D2008002C200EDD2E7F8CD33EC33047051
:103137000BBD800592D502100C02100240FBD31480
:1031470060F2F5F07C3FEE7A00C39496C8948B400A
:10315700230AC89469C8941A401A0AC89468C8947C
:103167001F40110AC8945AC89425400805F07A00F0
:10317700CDC2E7CDC0F090003312153DEA2323C03E
:10318700E02407F582E43431F58312152D120D6121
:10319700ECC0E0EDC0E0EEC0E0EFC0E0121511902A
:1031A7000033121521120D5DD0E0FBD0E0FAD0E01C
:1031B700F9D0E0B2E7F812120090003312153D90F3
:1031C70030F7740312130D900033121521120E52AB
:1031D700D0E0600F2413F582E43431F58312152D06
:1031E700120D6190003312153DD0E0C3947FFDE4CA
:1031F7009400FC120F5D7B187A727931783F120EBA
:1032070052900033121521120D6130000B7BD97AD1
:093217005B79DE783E120E5222B2
:1011FD0002100CEC5D046005E85904700302100246
:10120D00120FCD580460F6EC4860F2EC7004FDFE50
:10121D00FF22C860DB2481C85009C39860025006C4
:10122D000210099850CAF582E9294B4A7005AB8224
:10123D00020FF875F0007C1A7880C3EF9BEE9AEDE3
:10124D0099400DC3EF9BFFEE9AFEED99FDE842F03C
:10125D00DC23ACF0D0E0FFD0E0FED0E0FDAB82208F
:10126D00E7101BEB60BAEC2CFCEF33FFEE33FEED19
:10127D0033FD020FE4E803F830E705C0F075F00028
:10128D00EF2FFFEE33FEED33FD40B830E7C280AAFD
:10129D003F8000004120000042C80000447A000059
:1012AD00461C400047C35000497424004B189680DB
:1012BD004CBEBC205A0E1BCA6753C21C749DC5AED2
:1012CD00FB60065407601C23231212FBEB5438609D
:1012DD00091212E71212F6120E52ECF8EDF9EEFAAF
:1012ED00EFCB22EB1212F680F1543803241C90122E
:1012FD009DFE93FC0EEE93FD0EEE930ECE93FF220C
:10130D00C0E0EFFBEEFAEDF9ECF8120E52D0E0F57D
:10131D00F0EFFBEEFAEDF9ECF8121511A3A3A3A370
:10132D00E8C0E0E9C0E0EAC0E0EBC0E0C0F0120EBA
:10133D005212152DA3A3A3A3120D61D0F0D0E0FB83
:0D134D00D0E0FAD0E0F9D0E0F8D5F0D422DD
:03000000024A9120
:0C4A9100787FE4F6D8FD7581AB024AD8AE
:10135A00E709F608DFFA8046E709F208DFFA803E75
:10136A0088828C83E709F0A3DFFA8032E309F60862
:10137A00DFFA8078E309F208DFFA807088828C83CA
:10138A00E309F0A3DFFA806489828A83E0A3F6087E
:10139A00DFFA805889828A83E0A3F208DFFA804C58
:1013AA0080D280FA80C680D4806980F2803380102F
:1013BA0080A680EA809A80A880DA80E280CA803398
:1013CA0089828A83ECFAE493A3C8C582C8CCC58310
:1013DA00CCF0A3C8C582C8CCC583CCDFE9DEE780E0
:1013EA000D89828A83E493A3F608DFF9ECFAA9F05F
:1013FA00EDFB2289828A83ECFAE0A3C8C582C8CCB5
:10140A00C583CCF0A3C8C582C8CCC583CCDFEADECD
:10141A00E880DB89828A83E493A3F208DFF980CC2F
:10142A0088F0EF60010E4E60C388F0ED2402B40428
:10143A000050B9F582EB2402B4040050AF232345CF
:06144A0082239013AA7337
:10145000BB010689828A83E0225002E722BBFE029A
:09146000E32289828A83E49322CD
:10146900BB010CE58229F582E5833AF583E0225038
:1014790006E92582F8E622BBFE06E92582F8E22282
:0D148900E58229F582E5833AF583E493229C
:10149600BB010689828A83F0225002F722BBFE0135
:0214A600F3222F
:1014A800F8BB010DE58229F582E5833AF583E8F07A
:1014B800225006E92582C8F622BBFE05E92582C826
:0214C800F2220E
:1014CA00EF8DF0A4A8F0CF8CF0A428CE8DF0A42E36
:0214DA00FE22F0
:1014DC00C5F0F8A3E028F0C5F0F8E582158270029B
:0614EC001583E038F02238
:0E14F200C3E49FFFE49EFEE49DFDE49CFC220B
:10150000EB9FF5F0EA9E42F0E99D42F0E89C45F041
:0115100022B8
:10151100E493FC740193FD740293FE740393FF2220
:0C152100E0F8A3E0F9A3E0FAA3E0FB224D
:10152D00E493F8740193F9740293FA740393FB2214
:0C153D00ECF0A3EDF0A3EEF0A3EFF02221
:10154900A8828583F0D083D08212156012156012AB
:101559001560121560E473E493A3C583C5F0C583D0
:10156900C8C582C8F0A3C583C5F0C583C8C582C8EC
:01157900224F
:10157A00F8E0FBA3A3E0F925F0F0E58215827002FA
:07158A001583E0FA38F0229E
:09159100EBF0A3EAF0A3E9F0225B
:10159A00D083D082F8E4937012740193700DA3A3E0
:1015AA0093F8740193F5828883E4737402936860F4
:0615BA00EFA3A3A380DFF4
:10509B00900050EBF0A3EAF0A3E9F0900056EBF090
:1050AB00A3EAF0A3E9F0900050E0FBA3E475F00154
:1050BB00121844A9F0FA12145070EB90005174FFBF
:1050CB00F5F01214DC900053E0FBA3E475F0011231
:1050DB001844A9F0FA121450FF900050E0FBA3E41F
:1050EB0075F001121844A9F0FAEF12149670D690CD
:0B50FB000056E0FBA3E0FAA3E0F9225E
:103D590090003DEBF0A3EAF0A3E9F0E4900045F010
:103D6900A3F0D3900044E09400900043E064809471
:103D7900805003023E1290003DE0FBA3E0FAA3E06D
:103D8900F9900045E0FEA3E0F5828E831214696084
:103D990010900046E004F070DD900045E004F080EA
:103DA900D5900040E0FBA3E0FAA3E0F912145060BB
:103DB9003E900040A3E475F001121844A9F0FA12EC
:103DC9001450FF90003DE0FBA3E0FAA3E0F9900056
:103DD90045E475F00112184485F082F583EF121459
:103DE900A890004374FFF5F01214DC45F070B2900E
:103DF900003DE0FBA3E0FAA3E0F9900045E0FEA353
:103E0900E0F5828E83E41214A890003DE0FBA3E064
:053E1900FAA3E0F9220C
:1015C000E3F5F009E208B5F06D606B80F3E3F5F048
:1015D00009E608B5F060605E80F387F009E608B5BB
:1015E000F054605280F487F009E208B5F048604694
:1015F00080F488828C8387F009E0A3B5F0386036E8
:1016000080F488828C8387F009E493A3B5F0276087
:101610002580F388828C83E3F5F009E0A3B5F0160A
:10162000601480F388828C83E3F5F009E493A3B51A
:10163000F004600280F20216EB808580E7808E80E5
:10164000D2803C8015806C807E809B80B5808B80B2
:10165000A1804F8070803A0216F789828A83ECFA63
:10166000E493F5F0A3C8C582C8CCC583CCE493A3AA
:10167000C8C582C8CCC583CCB5F070606E80E189E6
:10168000828A83E493F5F0A3E208B5F05E605C80A3
:10169000F289828A83E0F5F0A3E608B5F04D604B4D
:1016A00080F389828A83E0F5F0A3E208B5F03C601C
