:035CAE00200A00C9
:1042D1004101450A410146004101520041014700A7
:1042E1004101500041014E0041015B0049013C0088
:1042F1000000000000000000410151064101580387
:06430100410157F2C10961
:03000B00025B0A8B
:105B0A00C0E0C083C082900145E014F0A3E004F035
:095B1A00C28DD082D083D0E032AC
:105BE500E58954F04401F589E4F58CF58AD28C22D7
:055CA100C28DD2A92212
:035CAB00C2A92269
:0B5C42001259AEEFF47002EEF460F5B2
:015C4D002234
:055755009000B1EFF02F
:10575A009000B1E0FF125887EF3395E04F6024E4E0
:10576A009000B2F0A3F0C39000B3E094E89000B2C6
:10577A00E0940350DBA3E004F070EB9000B2E00485
:08578A00F080E39000B1E0FFA4
:0157920022F4
:105BF500125CA6125C6A125C4EC283D287C29722DF
:10494F00E4FDFC7FA81258C2900159E4F0A3EFF0E8
:10495F007D027C007FA81258C2900155E4F0A3EFAE
:10496F00F07D047C007FA81258C2900153E4F0A39D
:10497F00EFF07D067C007FA81258C290014CE4F046
:10498F00A3EFF07D087C007FA81258C2900149EF79
:10499F00F07D0A7C007FA81258C2900148EFF07D8D
:1049AF000C7C007FA81258C290014FEFF07D0E7C57
:1049BF00007FA81258C290014BEFF07D0B7C007F57
:0A49CF00A81258C290014AEFF0222E
:1040AE00125BE5125CA112595C1257D1125BF5D26C
:1040BE00AF125A60125AF07F611251AF125C71202A
:1040CE00910312263312494F9001457403F020805C
:1040DE003F7B017A0079001245EF90000DEFF01250
:1040EE005C617B017A00790090000DE0FD124423A3
:1040FE007B017A00790090000DE0FD900041740183
:10410E00F0124E5F7B017A01793C125793125C617B
:10411E0012207320B33D7B017A0179141245589019
:10412E00000DEFF0FD7B017A0179149000417401CE
:10413E00F0124E5F90000DE0FF1255047BFF7A5C8B
:10414E0079AE1257937B017A01791490000DE0FD40
:09415E00121CCC124D7D0240DC64
:08000300D294125CB1C29422F8
:05569800900045EFF059
:10569D00E4A3F0A3F0900045E0FFA2E713F030D7AC
:1056AD0004D2958002C295120003900047E004F0E9
:1056BD007006900046E004F0C3900047E094089017
:0956CD000046E06480948040CCAA
:0156D60022B1
:0A468400EBF0A3EAF0A3E9F07F8D4C
:05468E00900042EFF076
:10469300D2967F037E00125B79900042E0FF1256B0
:1046A30098E4900043F0A3F0900043E0FCA3E0FD06
:1046B300C39408EC64809480504F30951690016D3C
:1046C300E04480F0ED9406EC648094805005E0FFB4
:1046D300C313F020952090016DE0547FF0D3900038
:1046E30044E09406900043E0648094805008900175
:1046F3006DE0FFC313F0120003900044E004F07078
:10470300A7900043E004F0809FC29690016DE0FF04
:014713002283
:10598600900020EFF0A3EDF0D2967F037E00125B2D
:1059960079900020E0FF125698900021E0FF9000D9
:0859A60020F0125698C296226F
:1055D60090001EE475F0011214CA90001EE475F0E6
:1055E600011214CA90001EE475F0011214CA90004C
:1055F6001DE0FBA3E0FAA3E0F9121450FF900001AE
:04560600121469FD14
:0C560A00EF540FC454F0FFED540F4FFF9D
:015616002271
:1048340090001DEBF0A3EAF0A3E9F01255F4AD07E4
:104844007F861259861255D6AD077F8812598690F5
:10485400001EE475F0011214CA90001EE475F00104
:104864001214CA1255D6AD077F8C1259861255D62A
:10487400AD077F841259861255D6AD077F8212592F
:10488400861255D6AD077F8012598690001EE475B6
:10489400F0011214CA90001EE475F0011214CA90BB
:1048A400001EE475F0011214CA90001DE0FBA3E0A1
:0F48B400FAA3E0F9121450540FFD7F8A025986BF
:105A9900AE07EEC4540F540FFE6012EF540FFFE42B
:0D5AA900FDEDC39E5007740A2FFF0D80F421
:015AB60022CD
:10510F00E4FFFE90001DEDF090001DE0C394647469
:10511F008094804007E0249CF00F80ECEF44301225
:10512F001496740129F9E43AFA90001DE0C3940A29
:10513F00748094804007E024F6F00E80ECEE44304B
:10514F00121496740129F9E43AFA90001DE04430E4
:03515F00021496A1
:0E23630090001DEBF0A3EAF0A3E9F0A3EDF06B
:10237100E4900022F0A3F0900025F0A3F0A3F0A3D5
:10238100F0900024EDF054F0F0E0FFC4540FF09011
:10239100002D121526404000007F007E007D807CCC
:1023A10041122A45C004C005C006C007900024E0C0
:1023B100FCE4120F62D003D002D001D000120E5201
:1023C100C004C005C006C007900022E0FCA3E0FDE8
:1023D100E4120F5DD003D002D001D000120D6112C2
:1023E1000F96900022EEF0A3EFF0900020E0900015
:1023F10024F0540FF090002D121526400000007FAC
:10240100007E007D807C41122A45C004C005C006C3
:10241100C007900024E0FCE4120F62D003D002D088
:1024210001D000120E52C004C005C006C0079000C2
:1024310022E0FCA3E0FDE4120F5DD003D002D00145
:10244100D000120D61120F96900022EEF0A3EFF072
:10245100900021E0900024F054F0F0E0FFC4540F0C
:10246100F090002D1215263F8000007F007E007D38
:10247100807C41122A45C004C005C006C0079000F7
:1024810024E0FCE4120F62D003D002D001D000128C
:102491000E52C004C005C006C007900022E0FCA394
:1024A100E0FDE4120F5DD003D002D001D000120D87
:1024B10061120F96900022EEF0A3EFF0900021E060
:1024C100900024F0540FF090002D1215260000000A
:1024D100007F007E007D807C41122A45C004C0053A
:1024E100C006C007900024E0FCE4120F62D003D0C4
:1024F10002D001D000120E52C004C005C006C007B0
:10250100900022E0FCA3E0FDE4120F5DD003D002B5
:10251100D001D000120D61120F96900022EEF0A3AF
:10252100EFF0C3EF9410EE9427401074F02FFF7476
:10253100D83EFE900025E004F080E7900025E044BD
:1025410030FD90001DE0FBA3E0FAA3E0F9ED1214C9
:102551009690001EE475F0011214CAC3EF94E8EEE0
:102561009403401074182FFF74FC3EFE900026E087
:1025710004F080E7900026E04430FD90001DE0FB70
:10258100A3E0FAA3E0F9ED12149690001EE475F0B1
:10259100011214CAC3EF9464EE94004010749C2F8E
:1025A100FF74FF3EFE900027E004F080E7900027D3
:1025B100E04430FD90001DE0FBA3E0FAA3E0F9ED5B
:1025C10012149690001EE475F0011214CAC3EF9420
:1025D1000AEE9400401074F62FFF74FF3EFE900047
:1025E10028E004F080E7900028E04430FD90001DD1
:1025F100E0FBA3E0FAA3E0F9ED12149690001EE4CB
:1026010075F0011214CAEF4430FF90001DE0FBA3E6
:10261100E0FAA3E0F9EF12149690001EE475F001C0
:102621001214CA90001DE0FBA3E0FAA3E0F9E40252
:022631001496FD
:03286D0090003F99
:10287000124684EF54F0C4540F4430FE90003FE001
:10288000FBA3E0FAA3E0F9EE121496900040E47581
:10289000F0011214CAEF540F4430FF90003FE0FBE8
:1028A000A3E0FAA3E0F9EF121496900040E475F06B
:1028B000011214CA7F8912468EEF54F0C4540F449B
:1028C00030FE90003FE0FBA3E0FAA3E0F9EE121423
:1028D00096900040E475F0011214CAEF540F443092
:1028E000FF90003FE0FBA3E0FAA3E0F9EF1214969B
:1028F000900040E475F0011214CA7F8712468EEFF3
:1029000054F0C4540F4430FE90003FE0FBA3E0FAC3
:10291000A3E0F9EE121496900040E475F001121451
:10292000CAEF540F4430FF90003FE0FBA3E0FAA34E
:10293000E0F9EF121496900040E475F0011214CA09
:102940007F8512468EEF54F0C4540F4430FE900041
:102950003FE0FBA3E0FAA3E0F9EE121496900040EA
:10296000E475F0011214CAEF540F4430FF90003F99
:10297000E0FBA3E0FAA3E0F9EF121496900040E424
:1029800075F0011214CA7F8312468EEF54F0C454BE
:102990000F4430FE90003FE0FBA3E0FAA3E0F9EE25
:1029A000121496900040E475F0011214CAEF540F0F
:1029B0004430FF90003FE0FBA3E0FAA3E0F9EF1200
:1029C0001496900040E475F0011214CA7F811246FB
:1029D0008EEF54F0C4540F4430FE90003FE0FBA350
:1029E000E0FAA3E0F9EE121496900040E475F001CD
:1029F0001214CAEF540F4430FF90003FE0FBA3E0F5
:102A0000FAA3E0F9EF121496900040E475F0011279
:102A100014CA7F8B12468EEF540F4430FF90003F54
:102A2000E0FBA3E0FAA3E0F9EF121496900040E473
:102A300075F0011214CA90003FE0FBA3E0FAA3E096
:052A4000F9E402149608
:103DB10090002A12468490002AE0FBA3E0FAA3E0D7
:103DC100F9EF12149690002BE475F0011214CA7FDA
:103DD1008912468E90002AE0FBA3E0FAA3E0F9EFF6
:103DE10012149690002BE475F0011214CA7F871209
:103DF100468E90002AE0FBA3E0FAA3E0F9EF12144B
:103E01009690002BE475F0011214CA7F8512468E3C
:103E110090002AE0FBA3E0FAA3E0F9EF12149690D8
:103E2100002BE475F0011214CA7F8312468E9000B4
:103E31002AE0FBA3E0FAA3E0F9EF12149690002B1D
:103E4100E475F0011214CA7F8112468E90002AE0B7
:103E5100FBA3E0FAA3E0F9EF12149690002BE475AE
:103E6100F0011214CA90002AE0FBA3E0FAA3E0F9E2
:043E7100E4021496BD
:075C6A00C294C296D29522FC
:105B7900E4FDFCC3ED9FEC9E50070DBD00010C80B8
:015B8900F229
:015B8A0022F8
:045AD500AB07AA066B
:105AD900900000C3E5829BE5839A500A7F967E0079
:065AE900125B79A380EDC1
:015AEF002294
:015CB10022D0
:035A1A001259F826
:105A1D00D20AD293D292E4FFFE209205C20AC2931B
:0C5A2D00220FBF00010EBE04F0BF4CEDC4
:015A3900224A
:035A3A001259F806
:105A3D00D293D292D20AE4FFFE209205C20AC293FB
:0C5A4D00220FBF00010EBE02F0BF8AED68
:015A5900222A
:065C9B00D29300C2932227
:1059F800E4FEEEC39408748094805015EF25E0FF10
:105A080030D704D2928002C292D293125C9B0E804D
:015A1800E1AC
:015A1900226A
:085B8B00ECFD7C00C293C29204
:0A5B9300D292D29300C292C2932274
:095C5800C293C292D293D29222AF
:10516200E4FBEBFDC39408748094805038C2933002
:105172009216900168E04401F0ED940674809480E8
:105182005006E025E0F0D293209217900168E05497
:10519200FEF0EBD39406748094805006E025E0F094
:0C51A200D2930B80BDC293900168E0FF27
:0151AE0022DE
:0256D700AA0720
:1056D900AF05A907125B8BAF02125A1AAF05125A0E
:1056E9001AAF011259F8125A1DAF031259F8125A7A
:1056F9001D125C587F0D7E00125AD5D293D2927F2B
:0D570900627E00125B797F627E00025B7998
:0258C200AB0732
:1058C400AF05AA07125B8BAF03125A3AAF05125AFF
:1058D4003AAF021259F8125A3D125B93EB04FF12CD
:1058E40059F8125A1DC293125162125C58D293D2C3
:0658F40092900168E0FF44
:0158FA00228B
:1050600090007DEEF0A3EFF0A3EBF0A3EAF0A3E94C
:01507000F04F
:1050710090007DE0FCA3E0FD7FA81258C290007F64
:10508100E0FBA3E0FAA3E0F9EF12149690007FE0B1
:10509100FBA3E0FAA3E0F9121450FF90007EE004B4
:1050A100F0700690007DE004F0900080E475F0015E
:0650B1001214CAEF70BAF0
:0150B70022D6
:1049D90090007DEFF0A3ECF0A3EDF0A3EBF0A3EAD8
:1049E900F0A3E9F0900080E0FBA3E0FAA3E0F9125C
:1049F9001450603CB40D04E412149690007DE0FF5D
:104A0900A3E0FCA3E0FDA3E0FBA3E0FAA3E0F91215
:104A19001450FB1256D790007FE004F07006900006
:104A29007EE004F0900081E475F0011214CA80B4AC
:104A3900900080E0FBA3E0FAA3E0F9E41214969059
:104A4900007DE0FFA3E0FCA3E0FDA3E0FBA3E0FA07
:0A4A5900A3E0F9121450FB0256D737
:10580F00E4FF7B017A00791D12286D90001DE024C2
:10581F00D064027026A3E024D0C3940274809480D5
:10582F004019A3E024D0FF700FA3E024D0C394034A
:0B583F00748094804005800012571612
:01584A00223B
:1057160090002874FFF0E4A3F0A3F0900029E0FCC9
:10572600A3E0FDC39450EC9403501A900028E0FBCC
:105736007FA81256D790002AE004F070DE90002968
:0F574600E004F080D6E4FBFD7C087FA80256D774
:1043830053656E736F726573204175746F20792066
:1043930073656E736F72312061637469766F732E08
:1043A3000053656E736F722061637469766F207357
:1043B300656E736F7231202E00446574656374619A
:1043C300646F2E2053656E736F72204175746F2E68
:1043D3000053656E736F726573206E6F206465742E
:1043E30065637461646F73005665686963756C6FA8
:1043F300204573706572616E646F2053616C6972DE
:104403002E005665686963756C6F2053616C69652E
:104413006E646F2E20556E206D6F6D656E746F0028
:075C7100C2B5C2B6C2B722A2
:075C7800C2B5D2B6C2B7228B
:075C7F00C2B5C2B6D2B72284
:075C8600D2B5C2B6D2B7226D
:075C8D00C2B5D2B6D2B72266
:075C9400D2B5D2B6D2B7224F
:105A7A00E4FF7DF47C01309115EFFB3395E04B7028
:0E5A8A000DED1D70011CED4C70EC7F0180E8ED
:015A980022EB
:105B9D007F31125C8D3091010F125C943091020FA8
:015BAD000FE8
:015BAE0022D4
:104DF000125C7F30915D125A7AEF3395E0FEEF64DA
:104E0000014E7047125C86209123125C787BFF2054
:104E1000910D7A437983125793E490014E80227A60
:104E20004379A412579390014E74018014125C7858
:104E30007BFF2091107A4379BC12579390014E74F6
:104E400001F07FFF227A4379D4800E7BFF7A437989
:0F4E5000EB80067BFF7A4479051257937F00228F
:104D7D00125C7120916190000EE07014A3E0701030
:104D8D0030B35404F012593090000E7401F0804786
:104D9D0090000EE064017014A3E0701030B338047D
:104DAD00F01231B390000E7402F0802B90000EE0E3
:104DBD0064027023A3E0701F30B31C04F07D667C89
:104DCD00007FA81258C2BF53047F5380027F4E123A
:104DDD004A63E490000EF0125C71309105E490008E
:024DED000FF0C5
:014DEF0022A1
:0B45EF0090000EEBF0A3EAF0A3E9F04F
:1045FA00E4900012F0A3740CF0900148E06401709A
:10460A0073900011F0900013E0FF900011E0C39F37
:10461A005053E4FFFEFD30801DED701A0FBF0001FC
:10462A000ED3EF9430EE947540EC7D01900013E0C8
:10463A00900011F080E0ED6401602A124AEB9000CC
:10464A000EE0FBA3E0FAA3E0F9EF12149690000F34
:10465A00E475F0011214CA900012E004F0900011FF
:10466A00E004F080A090000EE0FBA3E0FAA3E0F9DA
:09467A00E4121496900012E0FF16
:014683002214
:0B44230090000EEBF0A3EAF0A3E9F01C
:10442E00E4FF7E029000021214696403701C900077
:10443E000EE0FBA3E0FAA3E0F9900001121469B4B8
:10444E005008D297E4900146F02290000EE0FBA3B4
:10445E00E0FAA3E0F9900001121469643C705090E8
:10446E00000EE0FBA3E0FAA3E0F98E827583001242
:10447E001469FD743C2FF582E43401F583EDF00EE2
:10448E000F8E82758300121469640370D290000E31
:10449E00E0FBA3E0FAA3E0F98E82758300E4121428
:0F44AE00A8743B2FF582E43401F583E4F0D209C2
:0144BD0022DC
:0E56170090003FEBF0A3EAF0A3E9F0A3EDF062
:10562500E4A3F0900042E0FFA3E0C39F5024900064
:105635003FE0FBA3E0FAA3E0F9121450FF1251AFCB
:10564500900040E475F0011214CA900043E004F0A4
:0256550080D102
:015657002230
:0B3B500090001DEBF0A3EAF0A3E9F0E9
:103B5B0090003E7403F090002014F0125B9D9000D7
:103B6B0021EFF0A37453F090014EE090003E6013F0
:103B7B00E0FF04F074202FF582E43400F583744DDC
:103B8B00F08011E0FF04F074202FF582E43400F58F
:103B9B00837443F090003E7404F090001DE0FBA38F
:103BAB00E0FAA3E0F9121450FF602190003EE024EC
:103BBB0020F582E43400F583EFF090001EE475F0FD
:103BCB00011214CA90003EE004F080CE90003EE05B
:103BDB00FF04F074202FF582E43400F583743AF07F
:103BEB0090003EE02420F9E43400FA7B0112286DAA
:103BFB0090003EE0FF242AF582E43400F583743A0A
:103C0B00F0742B2FF582E43400F5837403F07B0101
:0B3C1B007A007920EF240CFD02561700
:0E38AA00900014EBF0A3EAF0A3E9F0A3EDF018
:1038B800A37402F0125B9D900019EFF0A37453F00B
:1038C800E4A3F0900017E0900037F0E4A3F07B0148
:1038D80090005304F0A37400F0A37437F07A0079D1
:1038E80018124ECD900014E0F9A3E0FAA3E090007E
:1038F80053C9F0A3EAF0A3E9F07B017A0079181222
:103908004ECD900037743AF0E4A3F07B0190005359
:1039180004F0A37400F0A37437F07A007918124EFB
:10392800CD7B017A00791812000E900036EFF02452
:1039380018F9E43400FA7B0112286D900036E0FF94
:103948002422F582E43400F583743AF074232FF5C9
:1039580082E43400F5837403F074242FF582E43490
:1039680000F583E4F074252FF582E43400F583E450
:10397800F07B017A00791812000E900036EFF0FD06
:093988007B017A00791802561740
:105C050090000AE41214A87D007C057FA80249D9FA
:1037AF00613B38353B4143455251554520535520D8
:1037BF005449434B45540A0000613B38393B47524B
:1037CF004143494153202E2E2E2E2E200A000061F8
:1037DF003B39373B4E6F2054494B4554204E4F20B9
:1037EF005245474953545241444F200A0000613B10
:1037FF0038383B45584345444520484F524152497C
:10380F004F2E2E2E0A0000613B39353B554E204D71
:10381F004F4D454E544F202E2E2E2E200A00006164
:10382F003B39363B53494E2050524553454E434941
:10383F0041205645484943554C41522E2E2E2E209D
:10384F000A0000613B39303B4E4F205245474953E8
:10385F00545241205041474F2E2E2E2E200A000049
:10386F0057494547414E442000613B39323B47524F
:10387F00414349415320000A0000613B39383B570F
:10388F00494547414E442000AA80280720000000E8
:0B389F000000140000AA8018010200C5
:055AB700900055EDF028
:105ABC00125755900056EFF0900055E0600AE4FF45
:085ACC00125755900056EFF04F
:015AD40022AF
:0E584B00900050EBF0A3EAF0A3E9F0A3EDF01B
:10585900E4A3F0900050E0FBA3E0FAA3E0F9900084
:1058690054E0F582758300121469FF6010900053AB
:0D587900E0FD125AB7900054E004F080D614
:0158860022FF
:0E554B0090002AEBF0A3EAF0A3E9F0A3EDF044
:10555900E490002FF090002DE0FF90002FE0FEC3B3
:105569009F502490002AE0FBA3E0FAA3E0F98E8281
:10557900758300121469FF90002EE0FD125AB7904E
:07558900002FE004F080CECA
:0155900022F8
:1058FB00781D7C007D017BFF7A3879977E007F0DC8
:10590B0012142AC2877B017A007922123DB1C29C04
:10591B007B017A00791DE490002EF07D0D12554B22
:04592B00D29CD287B1
:01592F002255
:095002001218047B017A00791DEB
:0B500B00900050EBF0A3EAF0A3E9F0E6
:1050160012000E900054EFF0E4900053F09000540C
:10502600E0FF900053E0FEC39F502E900050E0FB3F
:10503600A3E0FAA3E0F98E82758300121469FF12C9
:105046005755E4FFEFC394C87480948050030F80D3
:09505600F3900053E004F080C463
:01505F00222E
:10471400C28790014AE07003D28722C287EF24FC4B
:10472400603324FD603D24FE60482429605224F94E
:10473400605C24E86011047064781D7C007D017B5A
:10474400FF7A3779AF8053781D7C007D017BFF7A37
:104754003779C88045781D7C007D017BFF7A3779E5
:10476400DE8037781D7C007D017BFF7A3779FD126E
:104774005002781D7C007D017BFF7A387916801AFF
:10478400781D7C007D017BFF7A38792E800C781DA2
:0F4794007C007D017BFF7A387952125002D28768
:0147A30022F3
:0E2E310090001DEFF0A3EBF0A3EAF0A3E9F090
:102E3F0078217C007D017BFF7A3879A47E007F06A4
:102E4F0012142AC28790014AE0706690001DE02498
:102E5F0050705B7B017A007921E4FD12584B7BFFA8
:102E6F007A38796F12000E90004FEFF090001EE04D
:102E7F00FBA3E0FAA3E0F912000E90004FE02F043D
:102E8F00F0E4FDFF125AB790004FE025E0FFE4FD9C
:102E9F00125AB77BFF7A38796F7D0112584B900029
:102EAF001EE0FBA3E0FAA3E0F97D0112584BD28795
:102EBF0022C28790001DE02450604524B1600302B8
:102ECF002F5C78277C007D017BFF7A387978121888
:102EDF000490001EE0FBA3E0FAA3E0F912000E90AD
:102EEF00004FEFF024FFFFE434FFFE90001EE0FBE5
:102EFF00A3E0FAA3E0F98F828E83E41214A8800F67
:102F0F0078277C007D017BFF7A387989121804902D
:102F1F00001EE0F9A3E0FAA3E0900053C9F0A3EA82
:102F2F00F0A3E9F07B017A007927124ECD90005380
:102F3F0074FFF0A37438F0A37486F07B017A0079E4
:0F2F4F0027124ECD7B017A00792712500BD287C3
:012F5E002250
:100026000D0A0A25733E20002563002564000D0A8B
:100036000A2041435455414C2049445F434C4945AD
:100046004E54453D25730D0A0A000D0A0A204449FF
:1000560047495445205355204E5545564F2049444F
:100066005F434C49454E54453D000D0A0A20444124
:10007600544F204D4F444946494341444F2049443B
:100086005F434C49454E54453D25730D0A0A000D04
:100096000A0A2041435455414C20434F445F504186
:1000A600524B3D25730D0A0A000D0A0A20444947A2
:1000B600495445205355204E5545564F20434F44ED
:1000C6005F5041524B3D000D0A0A204441544F20D7
:1000D6004D4F444946494341444F20434F445F50A6
:1000E60041524B3D25730D0A0A000D0A0A20414371
:1000F6005455414C205449454D504F5F475241435A
:1001060049413D25730D0A0A000D0A0A2044494754
:10011600495445205355204E5545564F2054494580
:100126004D504F5F4752414349413D000D0A0A2059
:100136004441544F204D4F444946494341444F2082
:100146005449454D504F5F4752414349413D257300
:100156000D0A0A000D0A0A2041435455414C20530A
:10016600494E5F434F42524F20494E484142494C07
:10017600495441444F3D25730D0A0A000D0A0A20D1
:1001860041435455414C2053494E5F434F42524FD1
:10019600204752415449533D25730D0A0A000D0A62
:1001A6000A2041435455414C2053494E5F434F4228
:1001B600524F2047524154495320592053414C49EC
:1001C600444120454C204D49534D4F204449413D23
:1001D60025730D0A0A000D0A0A2044494749544569
:1001E600205355204E5545564F2053494E5F434F99
:1001F60042524F3D000D0A0A2041435455414C20BE
:10020600444542554720494E484142494C4954418C
:10021600444F3D25730D0A0A000D0A0A2041435436
:1002260055414C20444542554720484142494C4996
:100236005441444F3D25730D0A0A000D0A0A204415
:10024600494749544520454C204E5545564F204573
:10025600535441444F2044452044454255473D00B0
:100266000D0A0A2041435455414C205553455F4CD5
:10027600505220494E484142494C495441444F3D11
:1002860025730D0A0A000D0A0A2041435455414CB4
:10029600205553455F4C505220484142494C4954E1
:1002A60041444F3D25730D0A0A000D0A0A204449B0
:1002B6004749544520454C204E5545564F204553F9
:1002C6005441444F204445205553455F4C50523DC0
:1002D600000D0A0A2050414E54414C4C41204C43DB
:1002E6004420484142494C49544144413D25730DFF
:1002F6000A0A000D0A0A2050414E54414C4C412036
:100306005241535042455252592020484142494C8D
:1003160049544144413D25730D0A0A000D0A0A203D
:1003260044494749544520454C204E5545564F2093
:1003360045535441444F204445204C412050414EA2
:1003460054414C4C41203D000D0A0A20414354556E
:10035600414C20434F4D5041524143494F4E20415D
:1003660043544956412020484142494C495441444E
:10037600413D25730D0A0A000D0A0A2041435455D2
:10038600414C20434F4D5041524143494F4E20412D
:10039600435449564120494E484142494C495441EB
:1003A600444F3D25730D0A0A000D0A0A20414354A5
:1003B60055414C20434F4D5041524143494F4E20E9
:1003C6004143544956412020484142494C495441F1
:1003D600444F3D25730D0A0A000D0A0A2044494779
:1003E60049544520454C204E5545564F20455354BB
:1003F60041444F20444520434F4D504152414349CB
:100406004F4E20414354495641203D000D0A0A20D3
:1004160041435455414C20434F4D5041524143496D
:100426004F4E204143544956412020494E484142AF
:10043600494C495441444F3D25730D0A0A000D0AA3
:100446000A2041435455414C20434F4449474F20CD
:10045600444520424152524153204143544956306B
:100466003D25730D0A0A000D0A0A204143545541E1
:100476004C20434F4449474F205152204143544951
:10048600564F3D25730D0A0A000D0A0A20444947B6
:1004960049544520454C204E5545564F204553540A
:1004A60041444F20444520434F4449474F20515231
:1004B600204F20434F4449474F2044452042415254
:1004C6005241533D000D0A0A20446967697465204C
:1004D600656C206E6F6D6272652064656C20636C5E
:1004E60069656E746520000D0A0A20746578746F5C
:1004F600206772616261646F3D25730D0A0A000D03
:100506000A0A2044696769746520656C206E756DFA
:1005160065726F206465204E697420000D0A0A20FA
:100526004E49543A2025730D0A0A000D0A0A204442
:10053600696769746520656C204E6F6D627265200F
:1005460064656C20506172717565616465726F20B7
:10055600000D0A0A204E6F6D6272653A2025730DF2
:100566000A0A000D0A0A20446967697465206C61ED
:1005760020646972656363696F6E2064656C2065CB
:10058600737461626C6563696D69656E746F200072
:100596000D0A0A20446972656363696F6E3A202505
:1005A600730D0A0A000D0A0A2044696769746520FA
:1005B600656C206D736A312064656C2065737461A7
:1005C600626C6563696D69656E746F20000D0A0A59
:1005D600206D736A313A2025730D0A0A000D0A0A46
:1005E6002044696769746520656C206D736A3220E2
:1005F60064656C2065737461626C6563696D6965B9
:100606006E746F20000D0A0A2044696769746520BC
:10061600656C206D736A332064656C206573746144
:10062600626C6563696D69656E746F20000D0A0AF8
:10063600206D736A333A2025730D0A0A000D0A0AE3
:100646002044696769746520656C206D736A34207F
:1006560064656C2065737461626C6563696D696558
:100666006E746F20000D0A0A206D736A343A2025D5
:10067600730D0A0A000D0A0A204469676974652029
:10068600656C206D736A352064656C2065737461D2
:10069600626C6563696D69656E746F20000D0A0A88
:1006A600206D736A353A2025730D0A0A000D0A0A71
:1006B6002044696769746520656C206D736A36200D
:1006C60064656C2065737461626C6563696D6965E8
:1006D6006E746F20000D0A0A206D736A363A202563
:1006E600730D0A0A000D0A0A2044696769746520B9
:1006F600656C206D736A372064656C206573746160
:10070600626C6563696D69656E746F20000D0A0A17
:10071600206D736A373A2025730D0A0A000D0A20E8
:1007260049445F434C49454E544520202020090941
:10073600092D2D2D20636D642030204964656E746B
:100746006966696361646F722064656C20636C69B5
:10075600656E7465206D6178696D6F203235350080
:100766000D0A20434F445F5041524B202020202049
:10077600200909092D2D2D20636D64203120456C3B
:10078600206E756D65726F2064656C207061727184
:100796007565616465726F206D6178696D6F203271
:1007A6003535000D0A20545F475241434941202008
:1007B600202020200909092D2D2D20636D6420326B
:1007C600205469656D706F2073696E20636F627265
:1007D6006F2030302C20206D6178696D6F203235A6
:1007E60035000D0A2053494E5F434F42524F202099
:1007F6002020090909092D2D2D20636D6420332041
:10080600496E686162696C697461646F3D20302C61
:10081600204772617469733D2031202C2047726134
:1008260074697320792073616C69646120656C203A
:100836006D69736D6F206469613D2032000D0A2079
:100846004445425547202020202020202020090909
:10085600092D2D2D20636D64203420486162696C5A
:1008660069746172203D20312C20496E686162698D
:100876006C69746172203D2030000D0A2055534585
:100886005F4C5052202020202020200909092D2DC0
:100896002D20636D64203520486162696C6974613E
:1008A60072203D20312C20496E686162696C697442
:1008B6006172203D2030000D0A205449504F5F5090
:1008C600414E54414C4C41202020202020092D2D02
:1008D6002D20636D6420362050414E54414C4C41CE
:1008E600204C4344203D302050414E54414C4C4115
:1008F600205241535042455252493D31000D0A2083
:10090600434F4D5041524143494F4E5F4143544935
:10091600564120092D2D2D20636D64203720486116
:1009260062696C69746172203D20312C20496E68C1
:100936006162696C69746172203D2030000D0A2085
:1009460051525F434F445F4241525241532009097D
:10095600092D2D2D20636D64203820486162696C55
:1009660069746172205152203D20312C2048616209
:10097600696C6974617220434F445F42415252412F
:1009860053203D2030000D0A20434C49454E544526
:10099600202020202020200909092D2D2D20636DDF
:1009A600642039204E6F6D6272652064656C206329
:1009B6006C69656E7465000D0A204E49542020202E
:1009C600202020202020202009202020202D2D2D11
:1009D60020636D64203130204E756D65726F206422
:1009E600656C206E6974000D0A204E4F4D5F5041B4
:1009F600525120202020202009202020202D2D2D7E
:100A060020636D64203131204E6F6D627265206403
:100A1600656C20706172717565616465726F000D39
:100A26000A20444952454343494F4E20202020097D
:100A36002020202020202D2D2D20636D6420313292
:100A4600204E6F6D6272652064656C2070617271F4
:100A56007565616465726F000D0A204D534A5F31FA
:100A660020202020202020202009202020202D2D7D
:100A76002D20636D64203133206D736A20646520F8
:100A8600696E666F726D6163696F6E2064656C2056
:100A9600706172717565616465726F000D0A204D33
:100AA600534A5F32202020202020202020092020A9
:100AB60020202D2D2D20636D64203134206D736A26
:100AC60020646520696E666F726D6163696F6E2062
:100AD60064656C20706172717565616465726F0022
:100AE6000D0A204D534A5F3320202020202020204D
:100AF6002009202020202D2D2D20636D64203135E6
:100B0600206D736A20646520696E666F726D61631D
:100B1600696F6E2064656C207061727175656164C1
:100B260065726F000D0A204D534A5F342020202045
:100B360020202020092020202020202D2D2D20635C
:100B46006D64203136206D736A20646520696E6697
:100B56006F726D6163696F6E2064656C207061727F
:100B6600717565616465726F000D0A204D534A5FA9
:100B76003520202020202020200920202020202071
:100B86002D2D2D20636D64203137206D736A20640E
:100B96006520696E666F726D6163696F6E2064654C
:100BA6006C20706172717565616465726F000D0A03
:100BB600204D534A5F362020202020202020092067
:100BC60020202020202D2D2D20636D6420313820FB
:100BD6006D736A20646520696E666F726D61636904
:100BE6006F6E2064656C20706172717565616465F5
:100BF600726F000D0A204D534A5F372020202020B7
:100C06002020202009202020202D2D2D20636D64FA
:100C1600203139206D736A20646520696E666F72B3
:100C26006D6163696F6E2064656C207061727175A9
:100C360065616465726F000D0A2041595544412073
:100C4600202020202020202009202020202D2D2D8E
:100C560020636D64203230204D7565737472612097
:100C66006C6F7320636F6D616E646F73000D0A2085
:100C760053414C49522020202020202020200920AA
:100C86002020202D2D2D20636D64203231205361CC
:100C96006C69722064652070726F6772616D616342
:100CA600696F6E000D0A0A53697374656D6120647D
:100CB600652050726F6772616D6163696F6E205651
:100CC60065726966696361646F720D0A0D0A000DCB
:100CD6000A0A2F3E5573756172696F3A000D0A0A4A
:100CE600206461746F732064656C20627566666546
:100CF600722072782025730D0A0A000D0A0A2064F4
:100D060061746F732064656C206275666665722017
:100D160074782025730D0A0A000D0A0A2F3E5061C9
:100D26007373776F72643A00313233343536000D9F
:100D36000A436F6D616E646F206E6F20657869730C
:100D46007465202725732700200D0A00200D0A0050
:040D5600220D0A0060
:104307005400BE2F00000000000000000000000065
:10431700000000000000004900B561646D696E008F
:10432700000000604200D23000003100003200007F
:104337003300003400003500003600003700003835
:1043470000003900003130003131003132003133A3
:104357000031340031350031360031370031380053
:094367003139003230003231001E
:0B4FA00090003FEBF0A3EAF0A3E9F063
:104FAB00E4900045F0900045E0FFC39416748094A4
:104FBB00805041EF75F003A424D2F9740035F0FA58
:104FCB007B0178427C007D0112180478427C007DC5
:104FDB000190003FE0FBA3E0FAA3E0F912171BEFEF
:104FEB003395E04F7006900045E0FF22900045E0BE
:064FFB0004F080B17FFF0D
:01500100228C
:0B55910090000EE0FBA3E0FAA3E0F99D
:0B559C0090003FEBF0A3EAF0A3E9F061
:1055A70078427C007D017B017A0079B51218047876
:1055B700427C007D0190003FE0FBA3E0FAA3E0F905
:0E55C70012171BEF3395E04F7002FF227FFF9B
:0155D50022B3
:065658007B017A00792BB2
:0B565E0090003FEBF0A3EAF0A3E9F09E
:1056690078427C007D017BFF7A0D794E7E007F04B4
:1056790012142A90004D7401F0A37400F0A374422F
:0F568900F090003FE0FBA3E0FAA3E0F9023991B3
:1047A400E0FBA3E0FAA3E02FF9EA3EFAE92401F9D9
:0347B400E43AFAEA
:0B47B70090003FEBF0A3EAF0A3E9F054
:1047C20078427C007D017BFF7A0D79527E007F0466
:1047D20012142A78467C007D017BFF7A0D79567E81
:1047E200007F0412142A90003FE0FBA3E0FAA3E04A
:1047F200F9121450FFB4200C900040E475F001123D
:1048020014CA80E2EF90004DB4220D7401F0A3743B
:1048120000F0A37446F080167401F0A37400F0A3B4
:104822007442F090003FE0FBA3E0FAA3E0F91239F2
:0148320091F4
:014833002262
:105B3B009000847401F0A37400F0A374BEF07BFF9B
:075B4B007A0079260218B46C
:084CFD007A00792B7B01E4FD34
:0E4D050090007DEBF0A3EAF0A3E9F0A3EDF03F
:104D1300125C4290007DE0FBA3E0FAA3E0F9EF12FE
:104D23001496900080E0701D90007DE0FBA3E0FAF4
:104D3300A3E0F9121450900084F07BFF7A00792EDF
:104D43001218B480057F2A12575590007DE0FBA30B
:104D5300E0FAA3E0F9121450FF7E0090007EE475A0
:104D6300F0011214CA90007DE0FBA3E0FAA3E0F97E
:094D7300E4121496EF640D709730
:014D7C002214
:10416700E4FDFC7FA81258C27E00900049EEF0A340
:10417700EFF090008474FFF0A37400F0A37431F0A3
:10418700A3EEF0A3EFF07B017A00793F1218AE900F
:1041970000847401F0A37400F0A3743FF07BFF7AEE
:1041A7000079341218B47BFF7A0079501218B47A68
:1041B70000793F124D017B017A00793F123A7590E1
:1041C7000049EEF0A3EFF0FBE4FDFC7FA81256D701
:1041D700E4FDFC7FA81258C27E00900049EEF0A3D0
:1041E700EFF090008474FFF0A37400F0A37431F033
:1041F700A3EEF0A3EFF07B017A00793F1218AE909F
:1042070000847401F0A37400F0A3743FF07BFF7A7D
:064217000079700218B4EA
:103F34007D027C007FA81258C27E00900049EEF0FA
:103F4400A3EFF090008474FFF0A37400F0A3743125
:103F5400F0A3EEF0A3EFF07B017A00793F1218AEE4
:103F64009000847401F0A37400F0A3743FF07BFF0D
:103F74007A0079951218B47BFF7A0079AF1218B4DD
:103F84007B017A00793FE4FD124D057B017A0079CB
:103F94003F123A75900049EEF0A3EFF0FB7D027CEE
:103FA400007FA81256D77D027C007FA81258C27EDB
:103FB40000900049EEF0A3EFF090008474FFF0A3AA
:103FC4007400F0A37431F0A3EEF0A3EFF07B017A58
:103FD40000793F1218AE9000847401F0A37400F0CD
:0D3FE400A3743FF07BFF7A0079CD0218B482
:103FF1007D047C007FA81258C27E00900049EEF03B
:10400100A3EFF090008474FFF0A37400F0A3743167
:10401100F0A3EEF0A3EFF07B017A00793F1218AE26
:104021009000847401F0A37400F0A3743FF07BFF4F
:104031007A0079F01218B47BFF7A01790F1218B463
:104041007B017A00793FE4FD124D057B017A00790D
:104051003F123A75900049EEF0A3EFF0FB7D047C2E
:10406100007FA81256D77D047C007FA81258C27E1B
:1040710000900049EEF0A3EFF090008474FFF0A3EC
:104081007400F0A37431F0A3EEF0A3EFF07B017A9A
:1040910000793F1218AE9000847401F0A37400F00F
:0D40A100A3743FF07BFF7A0179320218B45E
:102CF3007D067C007FA81258C27E00900049EEF04A
:102D0300A3EFF090008474FFF0A37400F0A3743178
:102D1300F0A3EEF0A3EFF07B017A00793F1218AE37
:102D2300900049E07002A3E0701590008404F0A3C2
:102D33007400F0A3743FF07BFF7A01795A803590D9
:102D43000049E07004A3E06401701590008404F06E
:102D5300A37400F0A3743FF07BFF7A01798280149F
:102D63009000847401F0A37400F0A3743FF07BFF20
:102D73007A0179A41218B47BFF7A0179DC1218B4B2
:102D83007B017A00793FE4FD124D057B017A0079DE
:102D93003F123A75900049EEF0A3EFF0FB7D067CFD
:102DA300007FA81256D77D067C007FA81258C27EEA
:102DB30000900049EEF0A3EFF090008474FFF0A3BD
:102DC3007400F0A37431F0A3EEF0A3EFF07B017A6B
:102DD30000793F1218AE900049E07002A3E070152D
:102DE30090008404F0A37400F0A3743FF07BFF7A97
:102DF30001795A8035900049E07004A3E0640170C2
:102E03001590008404F0A37400F0A3743FF07BFFDB
:102E13007A01798280149000847401F0A37400F025
:0D2E2300A3743FF07BFF7A0179A41218B46C
:012E3000227F
:1032C3007D087C007FA81258C27E00900049EEF072
:1032D300A3EFF090008474FFF0A37400F0A37431A3
:1032E300F0A3EEF0A3EFF07B017A00793F1218AE62
:1032F300900049E07002A3E0701590008404F0A3ED
:103303007400F0A3743FF07BFF7A0179FB80149083
:1033130000847401F0A37400F0A3743FF07BFF7A80
:1033230002791F1218B47BFF7A0279411218B47B19
:10333300017A00793FE4FD124D057B017A00793F64
:10334300123A75900049EEF0A3EFF0FB7D087C0084
:103353007FA81256D77D087C007FA81258C27E0032
:10336300900049EEF0A3EFF090008474FFF0A37493
:1033730000F0A37431F0A3EEF0A3EFF07B017A0029
:10338300793F1218AE900049E07002A3E0701590E7
:10339300008404F0A37400F0A3743FF07BFF7A0170
:1033A30079FB80149000847401F0A37400F0A3747B
:0B33B3003FF07BFF7A02791F1218B474
:0133BE0022EC
:1033BF007D0A7C007FA81258C27E00900049EEF073
:1033CF00A3EFF090008474FFF0A37400F0A37431A6
:1033DF00F0A3EEF0A3EFF07B017A00793F1218AE65
:1033EF00900049E07002A3E0701590008404F0A3F0
:1033FF007400F0A3743FF07BFF7A0279668014901B
:10340F0000847401F0A37400F0A3743FF07BFF7A83
:10341F0002798C1218B47BFF7A0279B01218B47B40
:10342F00017A00793FE4FD124D057B017A00793F67
:10343F00123A75900049EEF0A3EFF0FB7D0A7C0085
:10344F007FA81256D77D0A7C007FA81258C27E0033
:10345F00900049EEF0A3EFF090008474FFF0A37496
:10346F0000F0A37431F0A3EEF0A3EFF07B017A002C
:10347F00793F1218AE900049E07002A3E0701590EA
:10348F00008404F0A37400F0A3743FF07BFF7A0272
:10349F00796680149000847401F0A37400F0A37413
:0B34AF003FF07BFF7A02798C1218B40A
:0134BA0022EF
:1034BB007D0B7C007FA81258C27E00900049EEF075
:1034CB00A3EFF090008474FFF0A37400F0A37431A9
:1034DB00F0A3EEF0A3EFF07B017A00793F1218AE68
:1034EB00900049E07002A3E0701590008404F0A3F3
:1034FB007400F0A3743FF07BFF7A0279D7801490AD
:10350B0000847401F0A37400F0A3743FF07BFF7A86
:10351B000279F91218B47BFF7A0379221218B47B63
:10352B00017A00793FE4FD124D057B017A00793F6A
:10353B00123A75900049EEF0A3EFF0FB7D0B7C0087
:10354B007FA81256D77D0B7C007FA81258C27E0035
:10355B00900049EEF0A3EFF090008474FFF0A37499
:10356B0000F0A37431F0A3EEF0A3EFF07B017A002F
:10357B00793F1218AE900049E07002A3E0701590ED
:10358B00008404F0A37400F0A3743FF07BFF7A0275
:10359B0079D780149000847401F0A37400F0A374A5
:0B35AB003FF07BFF7A03794E1218B44A
:0135B60022F2
:1035B7007D0C7C007FA81258C27E00900049EEF077
:1035C700A3EFF090008474FFF0A37400F0A37431AC
:1035D700F0A3EEF0A3EFF07B017A00793F1218AE6B
:1035E700900049E07002A3E0701590008404F0A3F6
:1035F7007400F0A3743FF07BFF7A03797E80149008
:1036070000847401F0A37400F0A3743FF07BFF7A89
:103617000379AF1218B47BFF7A0379DF1218B47BF2
:10362700017A00793FE4FD124D057B017A00793F6D
:10363700123A75900049EEF0A3EFF0FB7D0C7C0089
:103647007FA81256D77D0C7C007FA81258C27E0037
:10365700900049EEF0A3EFF090008474FFF0A3749C
:1036670000F0A37431F0A3EEF0A3EFF07B017A0032
:10367700793F1218AE900049E07002A3E0701590F0
:10368700008404F0A37400F0A3743FF07BFF7A0476
:10369700791280149000847401F0A37400F0A3746D
:0B36A7003FF07BFF7A0379AF1218B4EC
:0136B20022F5
:1036B3007D0E7C007FA81258C27E00900049EEF078
:1036C300A3EFF090008474FFF0A37400F0A37431AF
:1036D300F0A3EEF0A3EFF07B017A00793F1218AE6E
:1036E300900049E07002A3E0701590008404F0A3F9
:1036F3007400F0A3743FF07BFF7A04794480149044
:1037030000847401F0A37400F0A3743FF07BFF7A8C
:1037130004796D1218B47BFF7A04798F1218B47B85
:10372300017A00793FE4FD124D057B017A00793F70
:10373300123A75900049EEF0A3EFF0FB7D0E7C008A
:103743007FA81256D77D0E7C007FA81258C27E0038
:10375300900049EEF0A3EFF090008474FFF0A3749F
:1037630000F0A37431F0A3EEF0A3EFF07B017A0035
:10377300793F1218AE900049E07002A3E0701590F3
:10378300008404F0A37400F0A3743FF07BFF7A0479
:10379300794480149000847401F0A37400F0A3743E
:0B37A3003FF07BFF7A04796D1218B430
:0137AE0022F8
:1051F7007BFF7A0479CB1218B47B017A00793FE4FC
:10520700FD124D057B017A00793F7D107C007FA858
:105217001249D97B017A00793F7F107E00125060D6
:105227009000847401F0A37400F0A3743FF07BFF37
:075237007A0479ED0218B4BE
:10523E007BFF7A0579051218B47B017A00793FE479
:10524E00FD124D057B017A00793F7D407C007FA8E1
:10525E001249D97B017A00793F7F407E001250605F
:10526E009000847401F0A37400F0A3743FF07BFFF0
:07527E007A0579220218B441
:105285007BFF7A0579311218B47B017A00793FE406
:10529500FD124D057B017A00793F7D507C007FA88A
:1052A5001249D97B017A00793F7F507E0012506008
:1052B5009000847401F0A37400F0A3743FF07BFFA9
:0752C5007A0579570218B4C5
:1052CC007BFF7A0579691218B47B017A00793FE487
:1052DC00FD124D057B017A00793F7D807C007FA813
:1052EC001249D97B017A00793F7F807E0012506091
:1052FC009000847401F0A37400F0A3743FF07BFF62
:07530C007A0579960218B43E
:105313007BFF7A0579AB1218B47B017A00793FE4FD
:10532300FD124D057B017A00793F7DB07C007FA89B
:105333001249D97B017A00793F7FB07E0012506019
:105343009000847401F0A37400F0A3743FF07BFF1A
:075353007A0579D30218B4BA
:10535A007BFF7A0579E31218B47B017A00793FE47E
:10536A00FD124D057B017A00793F7DF17C007FA813
:10537A001249D97B017A00793F7FF17E0012506091
:10538A009000847401F0A37400F0A3743FF07BFFD3
:07539A007A0579D30218B473
:1053A1007BFF7A06790B1218B47B017A00793FE40E
:1053B100FD124D057B017A00793F7D327C017FA88A
:1053C1001249D97B017A00793F7F327E0112506008
:1053D1009000847401F0A37400F0A3743FF07BFF8C
:0753E1007A0679330218B4CB
:1053E8007BFF7A0679431218B47B017A00793FE48F
:1053F800FD124D057B017A00793F7D737C017FA802
:105408001249D97B017A00793F7F737E011250607F
:105418009000847401F0A37400F0A3743FF07BFF44
:075428007A06796B0218B44B
:10542F007BFF7A06797B1218B47B017A00793FE40F
:10543F00FD124D057B017A00793F7DB47C017FA879
:10544F001249D97B017A00793F7FB47E01125060F7
:10545F009000847401F0A37400F0A3743FF07BFFFD
:07546F007A0679A30218B4CC
:105476007BFF7A0679B31218B47B017A00793FE490
:10548600FD124D057B017A00793F7DF57C017FA8F1
:105496001249D97B017A00793F7FF57E011250606F
:1054A6009000847401F0A37400F0A3743FF07BFFB6
:0754B6007A0679DB0218B44D
:1054BD007BFF7A0679EB1218B47B017A00793FE411
:1054CD00FD124D057B017A00793F7D367C027FA868
:1054DD001249D97B017A00793F7F367E02125060E6
:1054ED009000847401F0A37400F0A3743FF07BFF6F
:0754FD007A0779130218B4CD
:103C26007BFF7A0779231218B47BFF7A077966122D
:103C360018B47BFF7A0779A91218B47BFF7A077943
:103C4600E81218B47BFF7A0879431218B47BFF7A1E
:103C56000879801218B47BFF7A0879BD1218B47BF4
:103C6600FF7A0979031218B47BFF7A09794312188F
:103C7600B47BFF7A09798C1218B47BFF7A0979BD77
:103C86001218B47BFF7A0979ED1218B47BFF7A0A11
:103C960079251218B47BFF7A0A795E1218B47BFF75
:103CA6007A0A79A21218B47BFF7A0A79E61218B456
:103CB6007BFF7A0B792A1218B47BFF7A0B796F1285
:103CC60018B47BFF7A0B79B41218B47BFF7A0B79A0
:103CD600F91218B47BFF7A0C793D1218B47BFF7A7F
:063CE6000C79730218B412
:102633007BFF7A0C79AA1218B47BFF7A0C79D51236
:1026430018B4125C34124CFD12565890000EEBF085
:10265300A3EAF0A3E9F0900084E4F0A37400F0A3EC
:102663007422F07BFF7A0C79E31218B4900084E4AF
:10267300F0A37400F0A374A2F07BFF7A0D7901122A
:1026830018B4125591EF70B17BFF7A0D791F1218B0
:10269300B47B017A00792B7D01124D0512565890B7
:1026A300000EEBF0A3EAF0A3E9F078B57C007D011E
:1026B3007BFF7A0D792E121804125591EF70C9021F
:1026C3002845125B3B124CFD12565890000EEBF05E
:1026D300A3EAF0A3E9F012000E90000E1247A490B3
:1026E3000011EBF0A3EAF0A3E9F012000E90001141
:1026F3001247A4900014EBF0A3EAF0A3E9F09000D2
:1027030011E0FBA3E0FAA3E0F9EA494B60171214C6
:1027130050B42F1178177C007D01900011A3A3E022
:10272300121804803D900011E0FBA3E0FAA3E0F946
:10273300EA494B602D78177C007D017B017A007993
:10274300BE121804900011E0F9A3E0FAA3E0900090
:1027530053C9F0A3EAF0A3E9F07B017A00791712D9
:102763004ECD90000EE0FBA3E0FAA3E0F9EA494B5B
:1027730070030226C5124FA0EFB4160040030228CF
:102783004B90278BF82828730227CD0227D30227E3
:10279300D90227DF0227E50227EB0227F10227F7F9
:1027A3000227FD02280302280902280F0228150226
:1027B300281B02282102282702282D022833022859
:1027C3003902283F02284502286C1241670226C5B8
:1027D300123F340226C5123FF10226C5122CF30222
:1027E30026C51232C30226C51233BF0226C51234D0
:1027F300BB0226C51235B70226C51236B30226C55B
:102803001251F70226C512523E0226C51252850204
:1028130026C51252CC0226C51253130226C51253E3
:102823005A0226C51253A10226C51253E80226C531
:1028330012542F0226C51254760226C51254BD0225
:1028430026C5123C260226C590000EE0F9A3E0FA45
:10285300A3E0900084C9F0A3EAF0A3E9F07BFF7A38
:092863000D79351218B40226C5E6
:01286C002249
:105C15002D30732D002D31313131312E00256400A9
:0B45580090000EEBF0A3EAF0A3E9F0E6
:10456300900013E4F0A37498F0125CABE490001293
:10457300F0C286900011F0C2B2900013E0FEA3E0F7
:10458300FF20B35B900011E07055900013E0FEA391
:10459300E0FFEF1F70011EEF4E700590001104F055
:1045A30030B406900011E060E920B433900011E0CC
:1045B300702D90000EE0FBA3E0FAA3E0F9E5A01252
:1045C3001496900012E004F090000FE475F00112CD
:1045D30014CA900013E0FEA3E0FF30B4FD80A2D222
:0B45E300B2D286125CA1900012E0FF33
:0145EE0022AA
:0E421D0090003DEBF0A3EAF0A3E9F0A3EDF072
:10422B00900046F0D2B2D2B4C286E4900045F0C200
:10423B00B290004112152600004E2030B349900079
:10424B0045E07043C2B2D2B4900041E0FCA3E0FD64
:10425B00A3E0FEA3E0FFEF24FFFFEE34FFFEED34FF
:10426B00FFFDEC34FFFC90004112151A900041E069
:10427B00FCA3E0FDA3E0FEA3E0FFEC4D4E4F70BBB3
:10428B00A304F0C28280B4900045E0702920B326CD
:10429B0090003DE0FBA3E0FAA3E0F9121450F5A067
:1042AB00125BAF90003EE475F0011214CA9000400F
:1042BB00E014F0E070DA75A0FFD2B2D2B4D2867FF0
:0642CB00627E00025B7937
:102BAB00900017EDF0900014EBF0A3EAF0A3E9F01E
:102BBB0090003C7402F090001EF0A37473F0E4A339
:102BCB00F012000E90003CEFF0900014E0F9A3E03F
:102BDB00FAA3E0900040C9F0A3EAF0A3E9F0A3E464
:102BEB00F0A3EFF07B017A00791E123CEC900053BE
:102BFB0074FFF0A3745CF0A37415F07B017A007979
:102C0B001E124ECD7F8D12468E125A99EF243090A4
:102C1B000018F07F8912468E125A99EF24309000DB
:102C2B0019F07F8712468E125A99EF243090001AB2
:102C3B00F07F8512468E125A99EF243090001BF0CC
:102C4B007F8312468E125A99EF243090001CF0E4C9
:102C5B00A3F07B0190005304F0A37400F0A374184D
:102C6B00F07A00791E124ECD90005374FFF0A374CE
:102C7B005CF0A3741AF07B017A00791E124ECD9092
:102C8B000017E0A3F0E4A3F07B0190005304F0A342
:102C9B007400F0A37418F07A00791E124ECD7B01EC
:102CAB007A00791E12000E90003CEFF0E0241EF526
:102CBB0082E43400F5837403F0C2B230B3FD7B01C0
:102CCB007A00791E90003CE004FD12421D125C61FB
:102CDB007B017A00791E90003CE004FD900041746A
:082CEB0001F0124E5F025C6172
:105BAF00C2B47F287E00125B79D2B47F287E0002B8
:025BBF005B7910
:064A630090001DEFF0FBC6
:104A6900D2B4C286E4A3F0A312152600003A988BAB
:104A7900A0C2B230B34390001EE0703DA3E0FCA396
:104A8900E0FDA3E0FEA3E0FFEF24FFFFEE34FFFE0D
:104A9900ED34FFFDEC34FFFC90001F12151A900055
:104AA9001FE0FCA3E0FDA3E0FEA3E0FFEC4D4E4FA9
:104AB90070C190001E04F080BA90001EE0700C20B6
:104AC900B30990001DE0F5A0125BAFD2B2D2B4D207
:104AD9008675A0FF7F627E00125B797F627E00028D
:024AE9005B79F7
:0A5C4E00D2B4D2B2D28675A0FF22B4
:105930009000107402F0A37469F07B017A00791270
:10594000123DB17F8B12468E900018EFF0A37403C6
:0C595000F07B017A0079107D0A02421DF4
:1031B300E4900020F09000107402F0A37444F090A7
:1031C300008474FFF0A3745CF0A37422F09001599F
:1031D300E0FFA3E0900087CFF0A3EFF07B017A003C
:1031E300791B1218AE90001F7402F0900020E024A7
:1031F3001BF582E43400F583E0FF601790001FE0C5
:103203002410F582E43400F583EFF0900020E0040D
:10321300F0801890001FE02410F582E43400F58359
:10322300743BF090001FE004F0800890001FE0045E
:10323300F080B890008474FFF0A3745CF0A3742250
:10324300F0900155E0FFA3E0900087CFF0A3EFF0EB
:103253007B017A00791B1218AEE4900020F09000F5
:1032630020E0241BF582E43400F583E0FF6017902F
:10327300001FE02410F582E43400F583EFF09000A2
:1032830020E004F0801890001FE02410F582E4345D
:1032930000F583743BF090001FE004F08008900079
:1032A3001FE004F080B890001FE0FD2410F582E4D5
:1032B3003400F5837403F07B017A00791002421D18
:1050B8004461746F73204D46207265737075657313
:1050C80074613A20004461746F73204D4620456E28
:1050D800766961646F733A20002F2A2D2D2D2D2DAE
:1050E8002D2D2D2D2D2D2D2D2D2D2D2D2D2D2D2DE8
:1050F8002D2D2D2D2D2D2D2D2D2D2D2D2D2D2D2DD8
:075108002D2D2A2F0D0A00D6
:065A5A00AE07EEC313FECF
:105A6000E4FFEFD3940774809480500D0000000091
:095A70000000000000000F80E9B5
:015A7900220A
:105AF000E4FFEFD3940474809480500D0000000004
:095B00000000000000000F80E924
:015B09002279
:0251AF00AE0749
:1051B100C2AFC290125A600000AD06EE5401FE70FB
:1051C10004C2908002D290125A607C01ECD3940701
:1051D100748094805015EDC313FD5401FE7004C218
:1051E100908002D290125A600C80E1D290125A60E3
:0551F100125A60D2AF6C
:0151F6002296
:02550400AB07F3
:10550600900149E06401703CEB54F0C4540FFFD3A2
:10551600940974809480400674372FFF8004743099
:105526002FFF1251AFEB540FFFD394097480948070
:10553600400674372FFF800474302FFF1251AF7F5F
:04554600201251AF2F
:01554A00223E
:0E4E5F0090003DEBF0A3EAF0A3E9F0A3EDF024
:104E6D00900149E064017057900041E0FF3395E0F7
:104E7D00FEEF4E7BFF60067A5079B880047A507948
:104E8D00CD125793E4900042F0900040E0FF900067
:104E9D0042E0C39F502490003DE0FBA3E0FAA3E065
:104EAD00F9121450FF12550490003EE475F00112F2
:0F4EBD0014CA900042E004F080CF7F0A1251AF78
:014ECC0022C3
:0B579300900043EBF0A3EAF0A3E9F064
:10579E00E4A3F0900149E064017027900046F09078
:1057AE000043E0FBA3E0FAA3E0F9A3E0F5827583E2
:1057BE0000121469FF600B1251AF900046E004F026
:0257CE0080DD7C
:0157D00022B6
:095C61007BFF7A5079E1025793B0
:104AEB007EFF125AF0125A60208005747FFF8004FB
:104AFB00EE4480FF125A5AEE208005547FFF80034C
:104B0B004480FF125A5AEE208005547FFF800344E5
:104B1B0080FF125A5AEE208005547FFF8003448099
:104B2B00FF125A5AEE208005547FFF80034480FF0A
:104B3B00125A5AEE208005547FFF80034480FF12E7
:104B4B005A5AEE208005547FFF80034480FF125A8F
:104B5B005AEE208005547FFF80034480FFAE07127E
:074B6B005A603080FDAF0627
:014B72002220
:055CA600D290D2802223
:0E437000010B00010C00010900010A00C10B45
:03002300024B731A
:104B7300C0E0C083C082C0D075D000C000C006C0F2
:014B8300072A
:104B8400309845C298859908C3E509950AFFE494CD
:104B940000FEEF54804E7018E509547F2422F8A6D5
:104BA40008050974222509F87600900147E004F00D
:104BB400E508B4240890015B7402F0800BE508B4A6
:104BC4003C0690015B7401F030991AC299E50B65BB
:104BD4000C6010E50C540124A2F8E6F599050CC20A
:054BE4000B8002D20B62
:0F4BE900D007D006D000D0D0D082D083D0E03219
:10595C00D310AF01C3C0D01257D1E4F50BF50CF541
:10596C0009F50AC29FD29EC29DD29CC298C299D2FE
:0A597C000BD2ACD2BCD0D092AF2207
:0757D100D310AF01C3C0D0EB
:1057D8007D007C087FA81258C2C299E4F50BF50C2D
:1057E800C28EC2AB43878053890F438920EF600A7A
:1057F800758DF4758BF4D28E8008758D01758B01CB
:02580800D28E3E
:05580A00D0D092AF2296
:10588700D310AF01C3C0D09000B4EFF0125BD3C305
:10589700EF94027480948040047FFF80199000B4D5
:1058A700E0FFE50B540124A2F8A607050B300B0413
:0B58B700C20BD2997F00D0D092AF222C
:1059AE00D310AF01C3C0D0125BC1EF70067EFF7F74
:1059BE00FF800EAF0A050AEF547F2422F8E6FF7E21
:0659CE0000D0D092AF22D0
:105BC100D310AF01C3C0D0C3E509950AFFD0D0926D
:025BD100AF2201
:105BD300D310AF01C3C0D0C3E50B950CFFD0D09257
:025BE300AF22EF
:0E5C3400E4F50BF50CF509F50AC298C29922A9
:105B23004C4956450A00477261626163696F6E2092
:085B330053657269653A200018
:0E1CCC0090000EEBF0A3EAF0A3E9F0A3EDF018
:101CDA006419704490000EE0FBA3E0FAA3E0F91245
:101CEA001450640270329000021214696448702819
:101CFA00900011E07E0024FFF582EE34FFF5831296
:101D0A0014696403701290000EA3A3E02403F9E49B
:101D1A003AFA1248340258FB90000EE0FBA3E0FAAC
:101D2A00A3E0F912145064B67033900146E0C394EC
:101D3A00147480948040107FB6124714C282E490D3
:101D4A000146F0C297C283900149E0600302207203
:101D5A00900148E064016003022072803E90000E08
:101D6A00E0FBA3E0FAA3E0F912145064AA704090D1
:101D7A000146E0C39414748094805003022072E4F4
:101D8A00F0C297D282C283900149E06003022072B6
:101D9A00900148E06401600302207290014904F056
:101DAA007BFF7A5B7923125793E4900149F02290E2
:101DBA000011E06401701790000EE0FBA3E0FAA3A3
:101DCA00E0F9121450640170057FFF021EDE9000D4
:101DDA0011E06401701790000EE0FBA3E0FAA3E0A3
:101DEA00F9121450640270057FFE021EDE90001183
:101DFA00E06401701790000EE0FBA3E0FAA3E0F99B
:101E0A00121450640470057F04021EDE900011E073
:101E1A006401701790000EE0FBA3E0FAA3E0F91248
:101E2A001450640770057F07021EDE900011E064FB
:101E3A0001701790000EE0FBA3E0FAA3E0F9121478
:101E4A0050640970057F09021EDE900011E06401EA
:101E5A00701690000EE0FBA3E0FAA3E0F91214500A
:101E6A0064E770047FE7806C900011E0FF64037000
:101E7A002A90000EE0FBA3E0FAA3E0F99000011219
:101E8A00146964557015FE74FF2FF582EE34FFF560
:101E9A00831214696403700302580F900011E0FF63
:101EAA006413703390000EE0FBA3E0FAA3E0F9128A
:101EBA00145064027021900001121469B44F187E04
:101ECA000074FF2FF582EE34FFF583121469640360
:101EDA0070057FFE024714900011E0FF64137058EA
:101EEA0090000EE0FBA3E0FAA3E0F912145064029A
:101EFA0070469000011214696456703CEF24FFFF8B
:101F0A00E434FFFE8F82F583121469640370298F0B
:101F1A00828E83E41214A8E92402F9E43AFA7FFFD4
:101F2A00122E31E4900011F0D297900146740AF013
:101F3A007FA1124A63022066900011E0FF640660E6
:101F4A0003021FF390000EE0FBA3E0FAA3E0F912EC
:101F5A00145064026003021FF390000112146964B2
:101F6A00576003021FF3FE74FF2FF582EE34FFF56C
:101F7A00831214696403707190000EA3A390000287
:101F8A00121469FD7B017A00791212510F90001523
:101F9A007420F090000EE0FBA3E0FAA3E0F99000B1
:101FAA0003121469FD90000EA3A390000412146991
:101FBA00900021F07B017A00791612236390014880
:101FCA00E064017019124DF0EFF460077FE01247E8
:101FDA0014800B7B017A007912123B5080007B013E
:101FEA007A0079127FB0022E31900011E0FF640C62
:101FFA00705390000EE0FBA3E0FAA3E0F91214502C
:10200A0064027041FE74FF2FF582EE34FFF58312ED
:10201A0014696403702F90000EA3A3E02401F9E46D
:10202A003AFA125C057BFF7A5B7929125793900082
:10203A000EE0FBA3E0FAA3E0F9A3E0FD90004174EF
:10204A0001F0024E5F90000EE0FBA3E0FAA3E0F974
:10205A0012145064AB70117FFF124714900145743B
:08206A0037F09001507404F0FE
:01207200224B
:102F5F000D0A5665686963756C6F20656E20656C28
:102F6F00206C6F6F700D0A005665686963756C6F22
:102F7F00206E6F20656E20656C206C6F6F700D0A70
:102F8F000D0A007472616D612064656C206C65635D
:102F9F00746F7220646174616C6F67696320636F13
:102FAF0064205152000D0A007472616D61206465D6
:102FBF006C206C6563746F7220646174616C6F67F1
:102FCF00696320636F64206261727261730074724F
:102FDF00616D612064656C206C6563746F72206431
:102FEF006174616C6F676963206E6F2065737461C4
:102FFF0020636F6D706C6574610D0A00636F6420E0
:10300F0062617272617300636F6420515220720AA1
:10301F0000436172726F007469706F20646520766F
:10302F0065686963756C6F3A20006C6F6E676974C1
:10303F007564206465206C61207472616D613A2043
:10304F000D0A0066696E206465206C656374757285
:10305F0061206465207472616D610D0A00524545EF
:10306F004E564941205452414D412050544F20500B
:0B307F004152414C454C4F0D0A20000F
:04437E0041015C009D
:1059D400E4FF121450FDC3943074809480400AD3C1
:1059E400ED943974809480400A740129F9E43AFAF8
:0359F4000F80DF42
:0159F700228D
:105B6600E4FF1214506D600A740129F9E43AFA0F41
:025B760080F0BD
:015B7800220A
:10207300900150E01460651470030221A6147003EC
:102083000221DB14700302230E147003022337248E
:10209300056003022331900145E0640160030223DC
:1020A30062C297124DF0EF60227BFF7A2F795F12A5
:1020B30057937FFE12471490015CE0700B7FA012D0
:1020C3004A6390015C7401F00223017BFF7A2F794C
:1020D30077125793E490015CF002219D900145E053
:1020E3006401600990015BE0700302236290015B6D
:1020F300E0640170287BFF7A2F79921257937B005B
:102103007A0079221257937BFF7A2F79B41257936F
:102113009001457414F09001507403F02290015B18
:10212300E064027060785D7C017D01FB7A007922B6
:102133001218047B007A00792212000E90000EEF31
:10214300F0E0FF245CF582E43401F583E4F0D3EF9F
:10215300940A74809480400B125C347FFE124714FF
:102163000223017BFF7A2F79B71257937B017A0100
:10217300795D1257937BFF7A2F79B41257939001AD
:10218300507402F022125C34E490015CF090015B25
:10219300F07BFF7A2F79DD1257939001457403F09A
:1021A3000223317BFF7A30790B125793E490015B62
:1021B300F09000107443F07B017A01795DFD122BDE
:1021C300AB900148E0600E7B017A01795D900010CD
:1021D300E0FD1238AA022356900145E06401600332
:1021E3000223627BFF7A307916125793E490015BE6
:1021F300F0FB7A0079221259D490000EEFF02422DA
:10220300F9E4FA7D3E125B6690000FEFF090001741
:1022130074FFF0A37430F0A37420F07A00792212D3
:102223003E75900011EBF0A3EAF0A3E9F04A9000A9
:102233001060057443F08003744DF07BFF7A3079AE
:1022430026125793900010E0FF1255047BFF7A2F5C
:1022530079B41257937BFF7A3079391257939000F0
:102263000EE0FF1255047BFF7A2F79B41257939037
:10227300000FE0FF1255047BFF7A2F79B4125793B6
:10228300E490015DF090000EE0FF640C706B74222B
:102293002FF9E4FB900017F0A3CBF0A3E9F0900033
:1022A3000FE0FF90001AE4F0A3EFF07B017A0179CD
:1022B3005D124F3890000FE0245DF582E43401F5A0
:1022C30083E4F07B017A01795D1257937BFF7A2FC8
:1022D30079B41257937B017A01795D900010E0FD88
:1022E300122BAB900148E0600E7B017A01795D907F
:1022F3000010E0FD1238AA805AD2AC125C3490016F
:102303004574C8F09001507401F022900145E064D7
:1023130001704CD2AC7BFF7A307952125793900103
:10232300457403F0125C34E490015CF08001E490A6
:102333000150F022900145E0640170237BFF7A3065
:10234300796C1257937B017A01795D900010E0FD5F
:0F235300122BAB9001457437F09001507404F0D9
:012362002258
:100D5A00021002E86480F8E933E83360110460F0B5
:100D6A00ED33EC337009E8FCE9FDEAFEEBFF2204FF
:100D7A0060DED3EB9FEA9EE99DE8C2E78CF0C2F7FA
:100D8A0095F0400CE8CCF8E9CDF9EACEFAEBCFFBC6
:100D9A00120FCD85D0F05804700320D5B3E8047043
:100DAA00075002B2D502100C92D5EC0460F7E4CCDD
:100DBA00C0E0C398F8603B94186008400DD0E0FB8F
:100DCA00020FE4E4FBFAC9FC8028E830E406E4C92F
:100DDA00FBE4CAFCE830E305E4C9CACBFCE85407E3
:100DEA006010F8C3E913F9EA13FAEB13FBEC13FCEE
:100DFA00D8F130F52FC3E49CFCEF9BFFEE9AFEED91
:100E0A0099FDD0E0FBEF4E4D4C701222DB0302102D
:100E1A0009EC2CFCEF33FFEE33FEED33FDED30E74A
:100E2A00EB020FE4EF2BFFEE3AFEED39FDD0E0FBCB
:100E3A0050130BBB000302100CED13FDEE13FEEF73
:080E4A0013FFEC13FC020FE49E
:100E5200EC4D6011E8497017ED33EC3304600DE49A
:100E6200FCFFFEFD22E933E8330470F8021002129F
:100E72000FCD58046009E4CC2481500628500902A1
:100E8200100C284003021009C0E0EB4A7044B980FC
:100E920006D0E0FB020FF8EF4E701CBD8008EBFF9E
:100EA200EAFEE9FD80EBE98DF0A4FEE5F0020F3BDE
:100EB200E9CDF9EAFEEBFFEF89F0A4FCE5F0CE897B
:100EC200F0A42EFFE435F0CD89F0A42DFEE435F038
:100ED2008067EF4E7005BD80D780C3EF8BF0A4AC66
:100EE200F0EE8BF0A42CFCE435F0F8EF8AF0A42CA1
:100EF200E5F038FCE433CB8DF0A42CFCE5F03BF8B4
:100F0200EE8AF0A42CFCE5F038F8E433CF89F0A4A3
:100F12002CFCE5F038CF3400CE89F0A42FFFE5F0A9
:100F22003EFEE433C98DF0A42EFEE5F039CD8AF001
:100F3200A42FFFE5F03EFEE43DFD33D0E0FB500779
:100F42000BBB000F02100CEC2CFCEF33FFEE33FE58
:060F5200ED33FD020FE487
:100F580075F020800E75F010800575F0087D007E14
:100F6800007F003392D530D5031214E0EC334010E3
:100F7800EF33FFEE33FEED33FDEC33FCD5F0ED221D
:0E0F8800E5F0247EA2D513CC92E7CDCEFF2259
:100F9600EDD2E7CD33EC3392D524814006E4FFFE53
:100FA600FDFC22FCE4CFCECDCC24E0501174FF80B2
:100FB600EDC3CC13CCCD13CDCE13CECF13CF04704F
:070FC600F030D5DE0214E05B
:10184900E50D2484F582E43400F583E0050D22904A
:101859000081300703900084E475F00112155702E6
:1018690014502000E97F2ED2008018EF540F2490E5
:10187900D43440D4FF30040BEF24BFB41A00500312
:101889002461FFE50E6002150E0511E511700205D0
:101899001030070E900081E475F001121557EF0220
:1018A90014960257557403D2078003E4C207F50D55
:1018B90090008112156EE4F50EF510F511E50E6034
:1018C900077F2012188C80F5750FFFC201C200C274
:1018D90002C203C205C206C208121858FF700D30B1
:1018E90007057F0012189DAF11AE1022B4255FC203
:1018F900D5C204121858FF24D0B40A00501A75F042
:101909000A780E30D50508B6FF0106C6A426F620CA
:10191900D5047002D20380D924CFB41A00EF500441
:10192900C2E5D204021B8FD20180C6D20080C0D288
:101939000280BCD2D580BAD20580B47F2012188C1F
:101949002002077401B50E0040F1121849FF121860
:101959008C0218C6D208D2068095121849FB1218B3
:1019690049FA121849F94A4B7006798D7A1C7BFF9E
:1019790020022EE50E602A7E008E827583001214E5
:101989006960060EEE650F70F0C2D5EBC0E0EAC0E3
:10199900E0E9C0E0EE121BF0D0E0F9D0E0FAD0E0C7
:1019A900FB121450FF60AAEBC0E0EAC0E0E9C0E016
:1019B90012188CD0E02401F9D0E03400FAD0E0FB11
:1019C900E50F0460DCD50FD98087D20280A2121BF3
:1019D900D260F7E50F7001041210BBA90F600DE585
:1019E9000F600914F50F121C7AEF60F3EA30E70271
:1019F900F404C3995079EAF4250F0430E701E404AB
:101A0900F50F800D121BD260C1EA050F250F1210C8
:101A1900BBEA9000B0F030E701E4250F04D50F04CC
:101A290020050114121BF0E4C0E0121C7A9000B0EA
:101A3900E0601320E70714F0121874802204F0D034
:101A4900E014C0E07F00121874E50F600712186BEC
:101A5900150F800B30050312186BD0E00218C6D0A1
:101A6900E00480C4121BD2609EE50F041210BB90E3
:101A790000B0EAF0E50F2005026001042404121BFE
:011A8900F06C
:101A8A0074FF04C0E0121C7A121874E50F200502D4
:101A9A00600312186BD0E0B50FE87F4512187E90EC
:101AAA0000B0E07F2B30E7047F2DF404C0E0121869
:101ABA008CD0E075F00A84C0F0121875D0E01218C4
:101ACA00750218C6791080027908C206C208800811
:101ADA00D2D5790A8004790AC2D5E50F047002F5D5
:101AEA000FE4FAFDFEFF121849FC7B0820011312CD
:101AFA001849FD7B1030000A121849FE121849FFD6
:101B0A007B20EC3382D592D55013C3E43000069F74
:101B1A00FFE49EFEE42001039DFDE49CFCE4CBF877
:101B2A00C201EC700CCFCECDCCE824F8F870F3806B
:101B3A0017C3EF33FFEE33FEED33FDEC33FCEB332B
:101B4A00FB994002FB0FD8E9EB300105F8D0E0C45D
:101B5A0048B201C0E00AEC4D4E4F78207B0070C2BB
:101B6A00EAB50F0040BCC0E0121BF2D0F0D0E02072
:101B7A000104C4C0E0C4B201C0F0121875D0F0D597
:101B8A00F0EB0218C61215771963531ACE58193496
:101B9A004C1930421AD24F1ADA441ADA491949430F
:101BAA001AE0551A0D461A6D4519D7471CAD50193A
:101BBA00382D193C2E195F2B194023195D201C96CC
:101BCA002A18F84800001957E50FB4FF03750F06E5
:101BDA00121849FC121849FD121849FE121849FF39
:101BEA009000A90210F8790AA2D520031430050939
:101BFA00B910020404B9080104A2D5200602500152
:101C0A00042002689202B50E005034C0E07F2030F2
:101C1A0003197F30A20272067205500F121C49C2C4
:101C2A0002C206C205C2087F30800F300503E9C030
:101C3A00E012188C300503D0E0F9D0E0B50ECC30B4
:101C4A0005177F30B9100C12188C7F583004077FA3
:101C5A00788003B9080312188C3002057F2D021808
:101C6A008C7F202008F87F2B2006F322920280CF57
:101C7A007F00B40700500B24A9F582E43400F583F1
:101C8A00E0FF22286E756C6C2900D20112184930C7
:101C9A0001F8C201780E30D50108F60218F82D5065
:101CAA004349581218492403B405004001E4901C22
:101CBA00A89312187D743A12187DD203750E040285
:021CCA001ACE30
:102A450090002912151AE4FFFE7D807C3F90002935
:102A5500E0F8A3E0F9A3E0FAA3E0FB121031700659
:102A6500900029022B9F900029E0FCA3E0FDA3E044
:102A7500FEA3E0FF121017FBA3E0FCA3E0FDA3E01B
:102A8500FEA3E0FF121017FFB40108E4FFFE7D80EE
:102A95007C3F22EF64046029EB64046024EBB401FD
:102AA50030E4FFFEFDFC90002DE0F8A3E0F9A3E083
:102AB500FAA3E0FB12103160084006E4FFFEFDFCBE
:102AC5002290002D121526FFFFFFFF90002D022BEF
:102AD5009FE4900031F0A3F0FFFEFDFC900029E09B
:102AE500F8A3E0F9A3E0FAA3E0FB121031505F90E0
:102AF500002DE0FCA3E0FDA3E0FEA3E0FF120F968E
:102B0500900031EEF0A3EFF0FDCCEECCEC120F5DB2
:102B1500C8ECC8C9EDC9CAEECACBEFCB90002DE011
:102B2500FCA3E0FDA3E0FEA3E0FF120D5DE4FBFACC
:102B3500F9F8121031708A900029E0FCA3E0FDA39A
:102B4500E0FEA3E0FF1210AA90002912151A9000CA
:102B550029E0FCA3E0FDA3E0FEA3E0FF1230BE9058
:102B6500002DE0F8A3E0F9A3E0FAA3E0FB120E5272
:102B75001244F690002D12151A900032E030E0173D
:102B850090002DE0FCA3E0FDA3E0FEA3E0FF121002
:102B9500AA90002D12151A90002DE0FCA3E0FDA3CC
:062BA500E0FEA3E0FF22A8
:100FCD00E9D2E7C933E833F892D5EDD2E7CD33EC6A
:070FDD0033FC5002B2D522E3
:100FE400EC30E7100FBF000C0EBE00080DBD00046E
:100FF4000BEB6014A2D5EB13FCED92E7FD2274FF1A
:10100400FCFDFEFF22E480F8A2D574FF13FC7D8072
:03101400E480EF86
:10101700ED33EC33601004700FED547F70057402EC
:0A10270092E0227404220422E42265
:1010310074F8CC6480CCC86480C8F58204604FC366
:10104100EB9FF5F0EA9E42F0E99D42F0E89C45F005
:10105100603C501DE5825FFFE582D313CB5BCBF48F
:101061002B5582FB50280ABA002409B900200880B8
:101071001DE5825BFBE582D313CF5FCFF4C3132F52
:101081005582FF50090EBE00050DBD00010CC3EBDA
:101091009FF5F0EA9E42F0E99D42F0E89C45F06040
:0910A10007CC4820E701B3EC2262
:1010AA00ED33EC33600A047003BD8004ECB2E7FC54
:0110BA002213
:1010BB00F920E73624F950037907E4F42402FBE521
:1010CB0082158270021583DBF6E024FB501BE9606E
:1010DB0014E4F0E582158270021583E004F0B40A83
:0D10EB0008E4F0D9EE7401F00A22C2D5220B
:1010F800ED33EC3392D5FA602AB4FF33EDC2E77BC7
:10110800FF60067A11791DE4227A11792620D50428
:101118007A117921224E614E002B494E46002D4905
:101128004E4600E47A08F0A3DAFC7B00740722C07C
:1011380083C082ECC0E0EDC0E0EEC0E0EFC0E0EAC2
:1011480075F010A4CAABF075F04DA42BFBE435F094
:10115800FCEA2410FAEB34C5FBEC34D9FCEDC2E709
:10116800FF75F056A4F42411C5F0F434C58FF0A42B
:101178002AE5F03BE43CF020E7141212CDD0E0FF62
:10118800D0E0FED0E0FDD0E0FC1212008014F404A0
:101198001212CDD0E0FFD0E0FED0E0FDD0E0FC128E
:1011A8000E52D082D083E0FAEDD2E7CD33EC33246F
:1011B80082FBE4C3CF33CFCE33CECD33CD33DBF395
:1011C8007B0775F00A846004F0A31B0AE5F0F0A31E
:1011D8008FF0740AA4FFACF08EF0740AA42CFEAC55
:1011E800F050010C8DF0740AA42CFDE435F0F0A346
:0511F800DBDE7407229C
:1044BE0033DA929E35B16011377FE5FE392184895A
:1044CE003AAEC3FF3C1D955B3D6358473E75FDF00C
:1044DE003F3172183F800000C2D502100C0210024C
:1044EE00BD80FA50F3021009ED33EC330460F17B1A
:1044FE003B7AAA79B8783F120E52ED33EC3392D54F
:10450E00247B5011A2D570DB500BED448024045057
:10451E0004A2D580CEEFFBEEFAEDF9ECF8120F9671
:10452E00EFF582F404FC120F62120D61C08290440A
:10453E00BE740912131CED33CC33D0F092D525F096
:0A454E00A2D57001C313CC13FD22A7
:10308A003E9248DA3ECCCCCD3F2AAAAB40000000A3
:10309A003F8000003F9837F03FB504F33FD744FC28
:1030AA003E3172173EB172173F0515913EDE5BD96C
:1030BA00D2008002C200EDD2E7F8CD33EC330470BF
:1030CA000BBD800592D502100C02100240FBD314EE
:1030DA0060F2F5F07C3FEE7A00C39496C8948B4078
:1030EA00230AC89469C8941A401A0AC89468C894EA
:1030FA001F40110AC8945AC89425400805F07A005E
:10310A00CDC2E7CDC0F090003312151AEA2323C0CE
:10311A00E0249AF582E43430F58312150A120D611F
:10312A00ECC0E0EDC0E0EEC0E0EFC0E01214EE90BB
:10313A0000331214FE120D5DD0E0FBD0E0FAD0E0AD
:10314A00F9D0E0B2E7F812120090003312151A9083
:10315A00308A740312130D9000331214FE120E52A9
:10316A00D0E0600F24A6F582E43430F58312150A04
:10317A00120D6190003312151AD0E0C3947FFDE45A
:10318A009400FC120F5D7B187A727931783F120E27
:10319A00529000331214FE120D6130000B7BD97A63
:0931AA005B79DE783E120E522220
:1011FD0002100CEC5D046005E85904700302100246
:10120D00120FCD580460F6EC4860F2EC7004FDFE50
:10121D00FF22C860DB2481C85009C39860025006C4
:10122D000210099850CAF582E9294B4A7005AB8224
:10123D00020FF875F0007C1A7880C3EF9BEE9AEDE3
:10124D0099400DC3EF9BFFEE9AFEED99FDE842F03C
:10125D00DC23ACF0D0E0FFD0E0FED0E0FDAB82208F
:10126D00E7101BEB60BAEC2CFCEF33FFEE33FEED19
:10127D0033FD020FE4E803F830E705C0F075F00028
:10128D00EF2FFFEE33FEED33FD40B830E7C280AAFD
:10129D003F8000004120000042C80000447A000059
:1012AD00461C400047C35000497424004B189680DB
:1012BD004CBEBC205A0E1BCA6753C21C749DC5AED2
:1012CD00FB60065407601C23231212FBEB5438609D
:1012DD00091212E71212F6120E52ECF8EDF9EEFAAF
:1012ED00EFCB22EB1212F680F1543803241C90122E
:1012FD009DFE93FC0EEE93FD0EEE930ECE93FF220C
:10130D00C0E0EFFBEEFAEDF9ECF8120E52D0E0F57D
:10131D00F0EFFBEEFAEDF9ECF81214EEA3A3A3A394
:10132D00E8C0E0E9C0E0EAC0E0EBC0E0C0F0120EBA
:10133D005212150AA3A3A3A3120D61D0F0D0E0FBA6
:0D134D00D0E0FAD0E0F9D0E0F8D5F0D422DD
:030000000248C3F0
:0C48C300787FE4F6D8FD7581AB02490A4D
:10135A00E709F608DFFA8046E709F208DFFA803E75
:10136A0088828C83E709F0A3DFFA8032E309F60862
:10137A00DFFA8078E309F208DFFA807088828C83CA
:10138A00E309F0A3DFFA806489828A83E0A3F6087E
:10139A00DFFA805889828A83E0A3F208DFFA804C58
:1013AA0080D280FA80C680D4806980F2803380102F
:1013BA0080A680EA809A80A880DA80E280CA803398
:1013CA0089828A83ECFAE493A3C8C582C8CCC58310
:1013DA00CCF0A3C8C582C8CCC583CCDFE9DEE780E0
:1013EA000D89828A83E493A3F608DFF9ECFAA9F05F
:1013FA00EDFB2289828A83ECFAE0A3C8C582C8CCB5
:10140A00C583CCF0A3C8C582C8CCC583CCDFEADECD
:10141A00E880DB89828A83E493A3F208DFF980CC2F
:10142A0088F0EF60010E4E60C388F0ED2402B40428
:10143A000050B9F582EB2402B4040050AF232345CF
:06144A0082239013AA7337
:10145000BB010689828A83E0225002E722BBFE029A
:09146000E32289828A83E49322CD
:10146900BB010CE58229F582E5833AF583E0225038
:1014790006E92582F8E622BBFE06E92582F8E22282
:0D148900E58229F582E5833AF583E493229C
:10149600BB010689828A83F0225002F722BBFE0135
:0214A600F3222F
:1014A800F8BB010DE58229F582E5833AF583E8F07A
:1014B800225006E92582C8F622BBFE05E92582C826
:0214C800F2220E
:1014CA00C5F0F8A3E028F0C5F0F8E58215827002AD
:0614DA001583E038F0224A
:0E14E000C3E49FFFE49EFEE49DFDE49CFC221D
:1014EE00E493FC740193FD740293FE740393FF2244
:0C14FE00E0F8A3E0F9A3E0FAA3E0FB2271
:10150A00E493F8740193F9740293FA740393FB2237
:0C151A00ECF0A3EDF0A3EEF0A3EFF02244
:10152600A8828583F0D083D08212153D12153D1214
:10153600153D12153DE473E493A3C583C5F0C58339
:10154600C8C582C8F0A3C583C5F0C583C8C582C80F
:011556002272
:10155700F8E0FBA3A3E0F925F0F0E582158270021D
:071567001583E0FA38F022C1
:09156E00EBF0A3EAF0A3E9F0227E
:10157700D083D082F8E4937012740193700DA3A303
:1015870093F8740193F5828883E473740293686017
:06159700EFA3A3A380DF17
:104ECD00900050EBF0A3EAF0A3E9F0900056EBF060
:104EDD00A3EAF0A3E9F0900050E0FBA3E475F00124
:104EED00121833A9F0FA12145070EB90005174FFA0
:104EFD00F5F01214CA900053E0FBA3E475F0011213
:104F0D001833A9F0FA121450FF900050E0FBA3E4FF
:104F1D0075F001121833A9F0FAEF12149670D690AD
:0B4F2D000056E0FBA3E0FAA3E0F9222D
:103CEC0090003DEBF0A3EAF0A3E9F0E4900045F07E
:103CFC00A3F0D3900044E09400900043E0648094DF
:103D0C00805003023DA590003DE0FBA3E0FAA3E048
:103D1C00F9900045E0FEA3E0F5828E8312146960F1
:103D2C0010900046E004F070DD900045E004F08057
:103D3C00D5900040E0FBA3E0FAA3E0F91214506028
:103D4C003E900040A3E475F001121833A9F0FA126A
:103D5C001450FF90003DE0FBA3E0FAA3E0F99000C3
:103D6C0045E475F00112183385F082F583EF1214D7
:103D7C00A890004374FFF5F01214CA45F070B2908D
:103D8C00003DE0FBA3E0FAA3E0F9900045E0FEA3C0
:103D9C00E0F5828E83E41214A890003DE0FBA3E0D2
:053DAC00FAA3E0F9227A
:10159D00E3F5F009E208B5F06D606B80F3E3F5F06B
:1015AD0009E608B5F060605E80F387F009E608B5DE
:1015BD00F054605280F487F009E208B5F0486046B7
:1015CD0080F488828C8387F009E0A3B5F03860360B
:1015DD0080F488828C8387F009E493A3B5F02760AB
:1015ED002580F388828C83E3F5F009E0A3B5F0162E
:1015FD00601480F388828C83E3F5F009E493A3B53E
:10160D00F004600280F20216C8808580E7808E802B
:10161D00D2803C8015806C807E809B80B5808B80D5
:10162D00A1804F8070803A0216D489828A83ECFAA9
:10163D00E493F5F0A3C8C582C8CCC583CCE493A3CD
:10164D00C8C582C8CCC583CCB5F070606E80E18909
:10165D00828A83E493F5F0A3E208B5F05E605C80C6
:10166D00F289828A83E0F5F0A3E608B5F04D604B70
:10167D0080F389828A83E0F5F0A3E208B5F03C603F
:10168D003A80F389828A83E493F5F0A3E608B5F0F6
:10169D002A602880F2805389828A83ECFAE493F5DC
:1016AD00F0A3C8C582C8CCC583CCE0A3C8C582C889
:1016BD00CCC583CCB5F004600280E27FFFB5F002AB
:1016CD000F2240027F012289828A83ECFAE0F5F035
:1016DD00A3C8C582C8CCC583CCE0A3C8C582C8CC7D
:1016ED00C583CCB5F0D560D380E389828A83ECFACB
:1016FD00E0F5F0A3C8C582C8CCC583CCE493A3C8DC
:10170D00C582C8CCC583CCB5F0B160AF80E288F09E
:10171D00ED2402B4040050A3F582EB2402B40400BE
:0B172D00509923234582239016167369
:10173800E709F60870FA8046E709F20870FA803E71
:1017480088828C83E709F0A370FA807EE309F608A3
:1017580070FA8076E309F20870FA806E88828C83CA
:10176800E309F0A370FA806289828A83E0A3F6080D
:1017780070FA805689828A83E0A3F20870FA804A58
:1017880080D280FA80C680D4806580F28031801053
:1017980080A680EA809A80A880DA80E280CA8031B8
:1017A80089828A83ECFAE493A3C8C582C8CCC5832E
:1017B800CCF0A3C8C582C8CCC583CC70E9800D899C
:1017C800828A83E493A3F60870F9ECFAA9F0EDFB9A
:1017D8002289828A83ECFAE0A3C8C582C8CCC58373
:1017E800CCF0A3C8C582C8CCC583CC70EA80DD899B
:1017F800828A83E493A3F20870F980CE88F0ED24FE
:1018080002B4040050C4F582EB2402B4040050BAB8
:09181800232345822390178873F5
:104F3800900014EBF0A3EAF0A3E9F0E490001CF071
:104F4800A3F090001A74FFF5F012183345F0603C96
:104F5800900017E0FBA3E0FAA3E0F9121450FF90C9
:104F68000014E0FBA3E0FAA3E0F990001CE475F05C
:104F78000112183385F082F583EF1214A8EF60C28E
:104F8800900018E475F0011214CA80B6900014E07D
:084F9800FBA3E0FAA3E0F922FB
