:035DDC00200A009A
:1043F7004101450A41014600410152004101470080
:104407004101500041014E0041015B0049013C0060
:10441700000000000000000041015106410158035F
:06442700410157F2C1093A
:03000B00025C3460
:105C3400C0E0C083C082900145E014F0A3E004F00A
:095C4400C28DD082D083D0E03281
:105D0F00E58954F04401F589E4F58CF58AD28C22AB
:055DCB00C28DD2A922E7
:035DD900C2A9223A
:0B5D6C00125ABCEFF47002EEF460F578
:015D77002209
:05583C009000B1EFF047
:105841009000B1E0FF12596DEF3395E04F6024E411
:105851009000B2F0A3F0C39000B3E094E89000B2DE
:10586100E0940350DBA3E004F070EB9000B2E0049D
:08587100F080E39000B1E0FFBC
:01587900220C
:105D1F00125DD0125D94125D78C283D287C2972232
:104A7500E4FDFC7FA81259A8900159E4F0A3EFF0DA
:104A85007D027C007FA81259A8900155E4F0A3EFA0
:104A9500F07D047C007FA81259A8900153E4F0A38F
:104AA500EFF07D067C007FA81259A890014CE4F038
:104AB500A3EFF07D087C007FA81259A8900149EF6B
:104AC500F07D0A7C007FA81259A8900148EFF07D7F
:104AD5000C7C007FA81259A890014FEFF07D0E7C49
:104AE500007FA81259A890014BEFF07D0B7C007F49
:0A4AF500A81259A890014AEFF02220
:1041D400125D0F125DCB125A42125A94125D1FD215
:1041E400AF125B6E125C1A7F611252D5125D9B2076
:1041F400910312264D124A759001457403F02080F4
:104204003F7B017A00790012471590000DEFF01200
:104214005D8B7B017A00790090000DE0FD12454929
:104224007B017A00790090000DE0FD90004174015B
:10423400F0124F857B017A01793C12587A125D8B1A
:1042440012208D20B33D7B017A01791412467E90B1
:10425400000DEFF0FD7B017A0179149000417401A7
:10426400F0124F8590000DE0FF12562A7BFF7A5D15
:1042740079DC12587A7B017A01791490000DE0FD03
:09428400121D1B124EA30242029E
:08000300D294125DDFC29422C9
:0557BE00900045EFF032
:1057C300E4A3F0A3F0900045E0FFA2E713F030D785
:1057D30004D2958002C295120003900047E004F0C2
:1057E3007006900046E004F0C3900047E0940890F0
:0957F3000046E06480948040CC83
:0157FC00228A
:0A47AA00EBF0A3EAF0A3E9F07F8D25
:0547B400900042EFF04F
:1047B900D2967F037E00125CA3900042E0FF12575D
:1047C900BEE4900043F0A3F0900043E0FCA3E0FDB9
:1047D900C39408EC64809480504F309516900187FB
:1047E900E04480F0ED9406EC648094805005E0FF8D
:1047F900C313F0209520900187E0547FF0D39000F7
:1048090044E09406900043E064809480500890014D
:1048190087E0FFC313F0120003900044E004F07036
:10482900A7900043E004F0809FC296900187E0FFC3
:01483900225C
:105A6C00900020EFF0A3EDF0D2967F037E00125C45
:105A7C00A3900020E0FF1257BE900021E0FF9000A1
:085A8C0020F01257BEC2962261
:1056FC0090001EE475F0011214CA90001EE475F0BF
:10570C00011214CA90001EE475F0011214CA900024
:10571C001DE0FBA3E0FAA3E0F9121450FF90000186
:04572C00121469FDED
:0C573000EF540FC454F0FFED540F4FFF76
:01573C00224A
:10495A0090001DEBF0A3EAF0A3E9F012571AAD0795
:10496A007F86125A6C1256FCAD077F88125A6C90D9
:10497A00001EE475F0011214CA90001EE475F001DD
:10498A001214CA1256FCAD077F8C125A6C1256FCCE
:10499A00AD077F84125A6C1256FCAD077F82125AF9
:1049AA006C1256FCAD077F80125A6C90001EE4759B
:1049BA00F0011214CA90001EE475F0011214CA9094
:1049CA00001EE475F0011214CA90001DE0FBA3E07A
:0F49DA00FAA3E0F9121450540FFD7F8A025A6CB1
:105BA700AE07EEC4540F540FFE6012EF540FFFE41C
:0D5BB700FDEDC39E5007740A2FFF0D80F412
:015BC40022BE
:10523500E4FFFE90001DEDF090001DE0C394647442
:105245008094804007E0249CF00F80ECEF443012FE
:105255001496740129F9E43AFA90001DE0C3940A02
:10526500748094804007E024F6F00E80ECEE443024
:10527500121496740129F9E43AFA90001DE04430BD
:035285000214967A
:0E237D0090001DEBF0A3EAF0A3E9F0A3EDF051
:10238B00E4900022F0A3F0900025F0A3F0A3F0A3BB
:10239B00F0900024EDF054F0F0E0FFC4540FF090F7
:1023AB00002D121526404000007F007E007D807CB2
:1023BB0041122A5FC004C005C006C007900024E08C
:1023CB00FCE4120F62D003D002D001D000120E52E7
:1023DB00C004C005C006C007900022E0FCA3E0FDCE
:1023EB00E4120F5DD003D002D001D000120D6112A8
:1023FB000F96900022EEF0A3EFF0900020E09000FB
:10240B0024F0540FF090002D121526400000007F91
:10241B00007E007D807C41122A5FC004C005C0068F
:10242B00C007900024E0FCE4120F62D003D002D06E
:10243B0001D000120E52C004C005C006C0079000A8
:10244B0022E0FCA3E0FDE4120F5DD003D002D0012B
:10245B00D000120D61120F96900022EEF0A3EFF058
:10246B00900021E0900024F054F0F0E0FFC4540FF2
:10247B00F090002D1215263F8000007F007E007D1E
:10248B00807C41122A5FC004C005C006C0079000C3
:10249B0024E0FCE4120F62D003D002D001D0001272
:1024AB000E52C004C005C006C007900022E0FCA37A
:1024BB00E0FDE4120F5DD003D002D001D000120D6D
:1024CB0061120F96900022EEF0A3EFF0900021E046
:1024DB00900024F0540FF090002D121526000000F0
:1024EB00007F007E007D807C41122A5FC004C00506
:1024FB00C006C007900024E0FCE4120F62D003D0AA
:10250B0002D001D000120E52C004C005C006C00795
:10251B00900022E0FCA3E0FDE4120F5DD003D0029B
:10252B00D001D000120D61120F96900022EEF0A395
:10253B00EFF0C3EF9410EE9427401074F02FFF745C
:10254B00D83EFE900025E004F080E7900025E044A3
:10255B0030FD90001DE0FBA3E0FAA3E0F9ED1214AF
:10256B009690001EE475F0011214CAC3EF94E8EEC6
:10257B009403401074182FFF74FC3EFE900026E06D
:10258B0004F080E7900026E04430FD90001DE0FB56
:10259B00A3E0FAA3E0F9ED12149690001EE475F097
:1025AB00011214CAC3EF9464EE94004010749C2F74
:1025BB00FF74FF3EFE900027E004F080E7900027B9
:1025CB00E04430FD90001DE0FBA3E0FAA3E0F9ED41
:1025DB0012149690001EE475F0011214CAC3EF9406
:1025EB000AEE9400401074F62FFF74FF3EFE90002D
:1025FB0028E004F080E7900028E04430FD90001DB7
:10260B00E0FBA3E0FAA3E0F9ED12149690001EE4B0
:10261B0075F0011214CAEF4430FF90001DE0FBA3CC
:10262B00E0FAA3E0F9EF12149690001EE475F001A6
:10263B001214CA90001DE0FBA3E0FAA3E0F9E40238
:02264B001496E3
:0328870090003F7F
:10288A001247AAEF54F0C4540F4430FE90003FE0C0
:10289A00FBA3E0FAA3E0F9EE121496900040E47567
:1028AA00F0011214CAEF540F4430FF90003FE0FBCE
:1028BA00A3E0FAA3E0F9EF121496900040E475F051
:1028CA00011214CA7F891247B4EF54F0C4540F445A
:1028DA0030FE90003FE0FBA3E0FAA3E0F9EE121409
:1028EA0096900040E475F0011214CAEF540F443078
:1028FA00FF90003FE0FBA3E0FAA3E0F9EF12149681
:10290A00900040E475F0011214CA7F871247B4EFB1
:10291A0054F0C4540F4430FE90003FE0FBA3E0FAA9
:10292A00A3E0F9EE121496900040E475F001121437
:10293A00CAEF540F4430FF90003FE0FBA3E0FAA334
:10294A00E0F9EF121496900040E475F0011214CAEF
:10295A007F851247B4EF54F0C4540F4430FE900000
:10296A003FE0FBA3E0FAA3E0F9EE121496900040D0
:10297A00E475F0011214CAEF540F4430FF90003F7F
:10298A00E0FBA3E0FAA3E0F9EF121496900040E40A
:10299A0075F0011214CA7F831247B4EF54F0C4547D
:1029AA000F4430FE90003FE0FBA3E0FAA3E0F9EE0B
:1029BA00121496900040E475F0011214CAEF540FF5
:1029CA004430FF90003FE0FBA3E0FAA3E0F9EF12E6
:1029DA001496900040E475F0011214CA7F811247E0
:1029EA00B4EF54F0C4540F4430FE90003FE0FBA310
:1029FA00E0FAA3E0F9EE121496900040E475F001B3
:102A0A001214CAEF540F4430FF90003FE0FBA3E0DA
:102A1A00FAA3E0F9EF121496900040E475F001125F
:102A2A0014CA7F8B1247B4EF540F4430FF90003F13
:102A3A00E0FBA3E0FAA3E0F9EF121496900040E459
:102A4A0075F0011214CA90003FE0FBA3E0FAA3E07C
:052A5A00F9E4021496EE
:103ED70090002A1247AA90002AE0FBA3E0FAA3E089
:103EE700F9EF12149690002BE475F0011214CA7FB3
:103EF700891247B490002AE0FBA3E0FAA3E0F9EFA8
:103F070012149690002BE475F0011214CA7F8712E1
:103F170047B490002AE0FBA3E0FAA3E0F9EF1214FC
:103F27009690002BE475F0011214CA7F851247B4EE
:103F370090002AE0FBA3E0FAA3E0F9EF12149690B1
:103F4700002BE475F0011214CA7F831247B4900066
:103F57002AE0FBA3E0FAA3E0F9EF12149690002BF6
:103F6700E475F0011214CA7F811247B490002AE069
:103F7700FBA3E0FAA3E0F9EF12149690002BE47587
:103F8700F0011214CA90002AE0FBA3E0FAA3E0F9BB
:043F9700E402149696
:075D9400C294C296D29522D1
:105CA300E4FDFCC3ED9FEC9E50070DBD00010C808D
:015CB300F2FE
:015CB40022CD
:045BFF00AB07AA0640
:105C0300900000C3E5829BE5839A500A7F967E004D
:065C1300125CA3A380ED6A
:015C19002268
:015DDF0022A1
:035B2800125B0607
:105B2B00D20AD293D292E4FFFE209205C20AC2930C
:0C5B3B00220FBF00010EBE04F0BF4CEDB5
:015B4700223B
:035B4800125B06E7
:105B4B00D293D292D20AE4FFFE209205C20AC293EC
:0C5B5B00220FBF00010EBE02F0BF8AED59
:015B6700221B
:065DC500D29300C29322FC
:105B0600E4FEEEC39408748094805015EF25E0FF00
:105B160030D704D2928002C292D293125DC50E8013
:015B2600E19D
:015B2700225B
:085CB500ECFD7C00C293C292D9
:0A5CBD00D292D29300C292C2932249
:095D8200C293C292D293D2922284
:10528800E4FBEBFDC39408748094805038C29330DB
:10529800921690017DE04401F0ED940674809480AC
:1052A8005006E025E0F0D29320921790017DE0545B
:1052B800FEF0EBD39406748094805006E025E0F06D
:0C52C800D2930B80BDC29390017DE0FFEB
:0152D40022B7
:0257FD00AA07F9
:1057FF00AF05A907125CB5AF02125B28AF05125BAC
:10580F0028AF01125B06125B2BAF03125B06125B14
:10581F002B125D827F0D7E00125BFFD293D2927F9F
:0D582F00627E00125CA37F627E00025CA31B
:0259A800AB074B
:1059AA00AF05AA07125CB5AF03125B48AF05125BDD
:1059BA0048AF02125B06125B4B125CBDEB04FF128E
:1059CA005B06125B2BC293125288125D82D293D26B
:0659DA009290017DE0FF48
:0159E00022A4
:1051860090007DEEF0A3EFF0A3EBF0A3EAF0A3E925
:01519600F028
:1051970090007DE0FCA3E0FD7FA81259A890007F56
:1051A700E0FBA3E0FAA3E0F9EF12149690007FE08A
:1051B700FBA3E0FAA3E0F9121450FF90007EE0048D
:1051C700F0700690007DE004F0900080E475F00137
:0651D7001214CAEF70BAC9
:0151DD0022AF
:104AFF0090007DEFF0A3ECF0A3EDF0A3EBF0A3EAB1
:104B0F00F0A3E9F0900080E0FBA3E0FAA3E0F91234
:104B1F001450603CB40D04E412149690007DE0FF35
:104B2F00A3E0FCA3E0FDA3E0FBA3E0FAA3E0F912EE
:104B3F001450FB1257FD90007FE004F070069000B8
:104B4F007EE004F0900081E475F0011214CA80B485
:104B5F00900080E0FBA3E0FAA3E0F9E41214969032
:104B6F00007DE0FFA3E0FCA3E0FDA3E0FBA3E0FAE0
:0A4B7F00A3E0F9121450FB0257FDE9
:1044A90053656E736F726573204175746F2079203F
:1044B90073656E736F72312061637469766F732EE1
:1044C9000053656E736F722061637469766F207330
:1044D900656E736F7231202E004465746563746173
:1044E900646F2E2053656E736F72204175746F2E41
:1044F9000053656E736F726573206E6F2064657407
:1045090065637461646F73005665686963756C6F80
:10451900204573706572616E646F2053616C6972B6
:104529002E005665686963756C6F2053616C696507
:104539006E646F2E20556E206D6F6D656E746F0001
:075D9B00C2B5C2B6C2B72277
:075DA200C2B5D2B6C2B72260
:075DA900C2B5C2B6D2B72259
:075DB000D2B5C2B6D2B72242
:075DB700C2B5D2B6D2B7223B
:075DBE00D2B5D2B6D2B72224
:105B8800E4FF7DF47C01309115EFFB3395E04B7019
:0E5B98000DED1D70011CED4C70EC7F0180E8DE
:015BA60022DC
:105CC7007F31125DB73091010F125DBE3091020F27
:015CD7000FBD
:015CD80022A9
:104F1600125DA930915D125B88EF3395E0FEEF6478
:104F2600014E7047125DB0209123125DA27BFF20D7
:104F3600910D7A4479A912587AE490014E80227A2A
:104F46004479CA12587A90014E74018014125DA2F7
:104F56007BFF2091107A4479E212587A90014E74C0
:104F660001F07FFF227A4479FA800E7BFF7A457939
:0F4F76001180067BFF7A45792B12587A7F002233
:104EA300125D9B20916190000EE07014A3E07010DE
:104EB30030B35404F0125A1690000E7401F0804778
:104EC30090000EE064017014A3E0701030B3380456
:104ED300F01231CD90000E7402F0802B90000EE0A2
:104EE30064027023A3E0701F30B31C04F07D667C62
:104EF300007FA81259A8BF53047F5380027F4E122C
:104F03004B89E490000EF0125D9B309105E4900014
:024F13000FF09D
:014F15002279
:0B47150090000EEBF0A3EAF0A3E9F027
:10472000E4900012F0A3740CF0900148E064017072
:1047300073900011F0900013E0FF900011E0C39F10
:104740005053E4FFFEFD30801DED701A0FBF0001D5
:104750000ED3EF9430EE947540EC7D01900013E0A1
:10476000900011F080E0ED6401602A124C1190007D
:104770000EE0FBA3E0FAA3E0F9EF12149690000F0D
:10478000E475F0011214CA900012E004F0900011D8
:10479000E004F080A090000EE0FBA3E0FAA3E0F9B3
:0947A000E4121496900012E0FFEF
:0147A90022ED
:0B45490090000EEBF0A3EAF0A3E9F0F5
:10455400E4FF7E029000021214696403701C900050
:104564000EE0FBA3E0FAA3E0F9900001121469B491
:104574005008D297E4900146F02290000EE0FBA38D
:10458400E0FAA3E0F9900001121469643C705090C1
:10459400000EE0FBA3E0FAA3E0F98E82758300121B
:1045A4001469FD743C2FF582E43401F583EDF00EBB
:1045B4000F8E82758300121469640370D290000E0A
:1045C400E0FBA3E0FAA3E0F98E82758300E4121401
:0F45D400A8743B2FF582E43401F583E4F0D2099B
:0145E30022B5
:0E573D0090003FEBF0A3EAF0A3E9F0A3EDF03B
:10574B00E4A3F0900042E0FFA3E0C39F502490003D
:10575B003FE0FBA3E0FAA3E0F9121450FF1252D57D
:10576B00900040E475F0011214CA900043E004F07D
:02577B0080D1DB
:01577D002209
:0B3C760090001DEBF0A3EAF0A3E9F0C2
:103C810090003E7403F090002014F0125CC7900085
:103C910021EFF0A37453F090014EE090003E6013C9
:103CA100E0FF04F074202FF582E43400F583744DB5
:103CB100F08011E0FF04F074202FF582E43400F568
:103CC100837443F090003E7404F090001DE0FBA368
:103CD100E0FAA3E0F9121450FF602190003EE024C5
:103CE10020F582E43400F583EFF090001EE475F0D6
:103CF100011214CA90003EE004F080CE90003EE034
:103D0100FF04F074202FF582E43400F583743AF057
:103D110090003EE02420F9E43400FA7B0112288768
:103D210090003EE0FF242AF582E43400F583743AE2
:103D3100F0742B2FF582E43400F5837403F07B01DA
:0B3D41007A007920EF240CFD02573DB2
:0E39D000900014EBF0A3EAF0A3E9F0A3EDF0F1
:1039DE00A37402F0125CC7900019EFF0A37453F0B9
:1039EE00E4A3F0900017E0900037F0E4A3F07B0121
:1039FE0090005304F0A37400F0A37437F07A0079AA
:103A0E0018124FF3900014E0F9A3E0FAA3E090002F
:103A1E0053C9F0A3EAF0A3E9F07B017A00791812FA
:103A2E004FF3900037743AF0E4A3F07B019000530B
:103A3E0004F0A37400F0A37437F07A007918124FD3
:103A4E00F37B017A00791812000E900036EFF02405
:103A5E0018F9E43400FA7B01122887900036E0FF53
:103A6E002422F582E43400F583743AF074232FF5A2
:103A7E0082E43400F5837403F074242FF582E43469
:103A8E0000F583E4F074252FF582E43400F583E429
:103A9E00F07B017A00791812000E900036EFF0FDDF
:093AAE007B017A00791802573DF2
:045DD500256C7500C4
:105D2F0090000AE41214A87D007C057FA8024AFFA8
:105BE3007B017A0179607F007E051251867B017A01
:0C5BF3000179601232DD90015C02151A8D
:1058B8009001857409F0E4A3F0900186E0FFC39499
:1058C8000A748094805025900185E0C39FFFE4947A
:1058D80000FE8F82F5831214696430700F8F828EF8
:0C58E800831214A8900186E004F080CD2B
:0158F4002291
:0B58F50090017FEBF0A3EAF0A3E9F0C4
:10590000125BE390008474FFF0A3745DF0A374D580
:10591000F0A312151A90017FE0FBA3E0FAA3E0F9CF
:105920001218FD90017FE0FBA3E0FAA3E0F9025812
:01593000B8BE
:1038D500613B30333B4143455251554520535520BB
:1038E5005449434B45540A0000613B39313B47522B
:1038F5004143494153202E2E2E2E2E200A000061D1
:103905003B38373B4E6F2054494B4554204E4F2092
:103915005245474953545241444F200A0000613BE8
:1039250038373B45584345444520484F5241524955
:103935004F2E2E2E0A0000613B38373B554E204D49
:103945004F4D454E544F202E2E2E2E200A0000613D
:103955003B38373B53494E2050524553454E43491A
:1039650041205645484943554C41522E2E2E2E2076
:103975000A0000613B38373B4E4F205245474953BB
:10398500545241205041474F2E2E2E2E200A000022
:1039950057494547414E442000613B39313B475229
:1039A500414349415320000A0000613B39323B57EE
:1039B500494547414E442000AA80280720000000C1
:0B39C5000000140000AA80180102009E
:055BC500900055EDF019
:105BCA0012583C900056EFF0900055E0600AE4FF4E
:085BDA0012583C900056EFF058
:015BE20022A0
:0E593100900050EBF0A3EAF0A3E9F0A3EDF034
:10593F00E4A3F0900050E0FBA3E0FAA3E0F990009D
:10594F0054E0F582758300121469FF6010900053C4
:0D595F00E0FD125BC5900054E004F080D61E
:01596C002218
:0E56710090002AEBF0A3EAF0A3E9F0A3EDF01D
:10567F00E490002FF090002DE0FF90002FE0FEC38C
:10568F009F502490002AE0FBA3E0FAA3E0F98E825A
:10569F00758300121469FF90002EE0FD125BC59018
:0756AF00002FE004F080CEA3
:0156B60022D1
:1059E100781D7C007D017BFF7A3979BD7E007F0DBA
:1059F10012142AC2877B017A007922123ED7C29CF7
:105A01007B017A00791DE490002EF07D0D12567114
:045A1100D29CD287CA
:015A1500226E
:095128001218047B017A00791DC4
:0B513100900050EBF0A3EAF0A3E9F0BF
:10513C0012000E900054EFF0E4900053F0900054E5
:10514C00E0FF900053E0FEC39F502E900050E0FB18
:10515C00A3E0FAA3E0F98E82758300121469FF12A2
:10516C00583CE4FFEFC394C87480948050030F80C4
:09517C00F3900053E004F080C43C
:015185002207
:10483A00C28790014AE07003D28722C287EF24FC24
:10484A00603324FD603D24FE60482429605224F927
:10485A00605C24E86011047064781D7C007D017B33
:10486A00FF7A3879D58053781D7C007D017BFF7AE9
:10487A003879EE8045781D7C007D017BFF7A397995
:10488A00048037781D7C007D017BFF7A39792312F9
:10489A005128781D7C007D017BFF7A39793C801A8A
:1048AA00781D7C007D017BFF7A397954800C781D54
:0F48BA007C007D017BFF7A397978125128D287F3
:0148C90022CC
:0E2E4B0090001DEFF0A3EBF0A3EAF0A3E9F076
:102E590078217C007D017BFF7A3979CA7E007F0663
:102E690012142AC28790014AE0706690001DE0247E
:102E790050705B7B017A007921E4FD1259317BFFA7
:102E89007A39799512000E90004FEFF090001EE00C
:102E9900FBA3E0FAA3E0F912000E90004FE02F0423
:102EA900F0E4FDFF125BC590004FE025E0FFE4FD73
:102EB900125BC57BFF7A3979957D011259319000F2
:102EC9001EE0FBA3E0FAA3E0F97D01125931D28794
:102ED90022C28790001DE02450604524B16003029E
:102EE9002F7678277C007D017BFF7A39799E12182D
:102EF9000490001EE0FBA3E0FAA3E0F912000E9093
:102F0900004FEFF024FFFFE434FFFE90001EE0FBCA
:102F1900A3E0FAA3E0F98F828E83E41214A8800F4C
:102F290078277C007D017BFF7A3979AF12180490EC
:102F3900001EE0F9A3E0FAA3E0900053C9F0A3EA68
:102F4900F0A3E9F07B017A007927124FF39000533F
:102F590074FFF0A37439F0A374ACF07B017A0079A3
:0F2F690027124FF37B017A007927125131D2875B
:012F78002236
:100026000D0A0A25733E20002563002564000D0A8B
:100036000A2041435455414C2049445F434C4945AD
:100046004E54453D25730D0A0A000D0A0A204449FF
:1000560047495445205355204E5545564F2049444F
:100066005F434C49454E54453D000D0A0A20444124
:10007600544F204D4F444946494341444F2049443B
:100086005F434C49454E54453D25730D0A0A000D04
:100096000A0A2041435455414C20434F445F504186
:1000A600524B3D25730D0A0A000D0A0A20444947A2
:1000B600495445205355204E5545564F20434F44ED
:1000C6005F5041524B3D000D0A0A204441544F20D7
:1000D6004D4F444946494341444F20434F445F50A6
:1000E60041524B3D25730D0A0A000D0A0A20414371
:1000F6005455414C205449454D504F5F475241435A
:1001060049413D25730D0A0A000D0A0A2044494754
:10011600495445205355204E5545564F2054494580
:100126004D504F5F4752414349413D000D0A0A2059
:100136004441544F204D4F444946494341444F2082
:100146005449454D504F5F4752414349413D257300
:100156000D0A0A000D0A0A2041435455414C20530A
:10016600494E5F434F42524F20494E484142494C07
:10017600495441444F3D25730D0A0A000D0A0A20D1
:1001860041435455414C2053494E5F434F42524FD1
:10019600204752415449533D25730D0A0A000D0A62
:1001A6000A2041435455414C2053494E5F434F4228
:1001B600524F2047524154495320592053414C49EC
:1001C600444120454C204D49534D4F204449413D23
:1001D60025730D0A0A000D0A0A2044494749544569
:1001E600205355204E5545564F2053494E5F434F99
:1001F60042524F3D000D0A0A2041435455414C20BE
:10020600444542554720494E484142494C4954418C
:10021600444F3D25730D0A0A000D0A0A2041435436
:1002260055414C20444542554720484142494C4996
:100236005441444F3D25730D0A0A000D0A0A204415
:10024600494749544520454C204E5545564F204573
:10025600535441444F2044452044454255473D00B0
:100266000D0A0A2041435455414C205553455F4CD5
:10027600505220494E484142494C495441444F3D11
:1002860025730D0A0A000D0A0A2041435455414CB4
:10029600205553455F4C505220484142494C4954E1
:1002A60041444F3D25730D0A0A000D0A0A204449B0
:1002B6004749544520454C204E5545564F204553F9
:1002C6005441444F204445205553455F4C50523DC0
:1002D600000D0A0A2050414E54414C4C41204C43DB
:1002E6004420484142494C49544144413D25730DFF
:1002F6000A0A000D0A0A2050414E54414C4C412036
:100306005241535042455252592020484142494C8D
:1003160049544144413D25730D0A0A000D0A0A203D
:1003260044494749544520454C204E5545564F2093
:1003360045535441444F204445204C412050414EA2
:1003460054414C4C41203D000D0A0A20414354556E
:10035600414C20434F4D5041524143494F4E20415D
:1003660043544956412020484142494C495441444E
:10037600413D25730D0A0A000D0A0A2041435455D2
:10038600414C20434F4D5041524143494F4E20412D
:10039600435449564120494E484142494C495441EB
:1003A600444F3D25730D0A0A000D0A0A20414354A5
:1003B60055414C20434F4D5041524143494F4E20E9
:1003C6004143544956412020484142494C495441F1
:1003D600444F3D25730D0A0A000D0A0A2044494779
:1003E60049544520454C204E5545564F20455354BB
:1003F60041444F20444520434F4D504152414349CB
:100406004F4E20414354495641203D000D0A0A20D3
:1004160041435455414C20434F4D5041524143496D
:100426004F4E204143544956412020494E484142AF
:10043600494C495441444F3D25730D0A0A000D0AA3
:100446000A2041435455414C20434F4449474F20CD
:10045600444520424152524153204143544956306B
:100466003D25730D0A0A000D0A0A204143545541E1
:100476004C20434F4449474F205152204143544951
:10048600564F3D25730D0A0A000D0A0A20444947B6
:1004960049544520454C204E5545564F204553540A
:1004A60041444F20444520434F4449474F20515231
:1004B600204F20434F4449474F2044452042415254
:1004C6005241533D000D0A0A20446967697465204C
:1004D600656C206E6F6D6272652064656C20636C5E
:1004E60069656E746520000D0A0A20746578746F5C
:1004F600206772616261646F3D25730D0A0A000D03
:100506000A0A2044696769746520656C206E756DFA
:1005160065726F206465204E697420000D0A0A20FA
:100526004E49543A2025730D0A0A000D0A0A204442
:10053600696769746520656C204E6F6D627265200F
:1005460064656C20506172717565616465726F20B7
:10055600000D0A0A204E6F6D6272653A2025730DF2
:100566000A0A000D0A0A20446967697465206C61ED
:1005760020646972656363696F6E2064656C2065CB
:10058600737461626C6563696D69656E746F200072
:100596000D0A0A20446972656363696F6E3A202505
:1005A600730D0A0A000D0A0A2044696769746520FA
:1005B600656C206D736A312064656C2065737461A7
:1005C600626C6563696D69656E746F20000D0A0A59
:1005D600206D736A313A2025730D0A0A000D0A0A46
:1005E6002044696769746520656C206D736A3220E2
:1005F60064656C2065737461626C6563696D6965B9
:100606006E746F20000D0A0A2044696769746520BC
:10061600656C206D736A332064656C206573746144
:10062600626C6563696D69656E746F20000D0A0AF8
:10063600206D736A333A2025730D0A0A000D0A0AE3
:100646002044696769746520656C206D736A34207F
:1006560064656C2065737461626C6563696D696558
:100666006E746F20000D0A0A206D736A343A2025D5
:10067600730D0A0A000D0A0A204469676974652029
:10068600656C206D736A352064656C2065737461D2
:10069600626C6563696D69656E746F20000D0A0A88
:1006A600206D736A353A2025730D0A0A000D0A0A71
:1006B6002044696769746520656C206D736A36200D
:1006C60064656C2065737461626C6563696D6965E8
:1006D6006E746F20000D0A0A206D736A363A202563
:1006E600730D0A0A000D0A0A2044696769746520B9
:1006F600656C206D736A372064656C206573746160
:10070600626C6563696D69656E746F20000D0A0A17
:10071600206D736A373A2025730D0A0A000D0A20E8
:1007260049445F434C49454E544520202020090941
:10073600092D2D2D20636D642030204964656E746B
:100746006966696361646F722064656C20636C69B5
:10075600656E7465206D6178696D6F203235350080
:100766000D0A20434F445F5041524B202020202049
:10077600200909092D2D2D20636D64203120456C3B
:10078600206E756D65726F2064656C207061727184
:100796007565616465726F206D6178696D6F203271
:1007A6003535000D0A20545F475241434941202008
:1007B600202020200909092D2D2D20636D6420326B
:1007C600205469656D706F2073696E20636F627265
:1007D6006F2030302C20206D6178696D6F203235A6
:1007E60035000D0A2053494E5F434F42524F202099
:1007F6002020090909092D2D2D20636D6420332041
:10080600496E686162696C697461646F3D20302C61
:10081600204772617469733D2031202C2047726134
:1008260074697320792073616C69646120656C203A
:100836006D69736D6F206469613D2032000D0A2079
:100846004445425547202020202020202020090909
:10085600092D2D2D20636D64203420486162696C5A
:1008660069746172203D20312C20496E686162698D
:100876006C69746172203D2030000D0A2055534585
:100886005F4C5052202020202020200909092D2DC0
:100896002D20636D64203520486162696C6974613E
:1008A60072203D20312C20496E686162696C697442
:1008B6006172203D2030000D0A205449504F5F5090
:1008C600414E54414C4C41202020202020092D2D02
:1008D6002D20636D6420362050414E54414C4C41CE
:1008E600204C4344203D302050414E54414C4C4115
:1008F600205241535042455252493D31000D0A2083
:10090600434F4D5041524143494F4E5F4143544935
:10091600564120092D2D2D20636D64203720486116
:1009260062696C69746172203D20312C20496E68C1
:100936006162696C69746172203D2030000D0A2085
:1009460051525F434F445F4241525241532009097D
:10095600092D2D2D20636D64203820486162696C55
:1009660069746172205152203D20312C2048616209
:10097600696C6974617220434F445F42415252412F
:1009860053203D2030000D0A20434C49454E544526
:10099600202020202020200909092D2D2D20636DDF
:1009A600642039204E6F6D6272652064656C206329
:1009B6006C69656E7465000D0A204E49542020202E
:1009C600202020202020202009202020202D2D2D11
:1009D60020636D64203130204E756D65726F206422
:1009E600656C206E6974000D0A204E4F4D5F5041B4
:1009F600525120202020202009202020202D2D2D7E
:100A060020636D64203131204E6F6D627265206403
:100A1600656C20706172717565616465726F000D39
:100A26000A20444952454343494F4E20202020097D
:100A36002020202020202D2D2D20636D6420313292
:100A4600204E6F6D6272652064656C2070617271F4
:100A56007565616465726F000D0A204D534A5F31FA
:100A660020202020202020202009202020202D2D7D
:100A76002D20636D64203133206D736A20646520F8
:100A8600696E666F726D6163696F6E2064656C2056
:100A9600706172717565616465726F000D0A204D33
:100AA600534A5F32202020202020202020092020A9
:100AB60020202D2D2D20636D64203134206D736A26
:100AC60020646520696E666F726D6163696F6E2062
:100AD60064656C20706172717565616465726F0022
:100AE6000D0A204D534A5F3320202020202020204D
:100AF6002009202020202D2D2D20636D64203135E6
:100B0600206D736A20646520696E666F726D61631D
:100B1600696F6E2064656C207061727175656164C1
:100B260065726F000D0A204D534A5F342020202045
:100B360020202020092020202020202D2D2D20635C
:100B46006D64203136206D736A20646520696E6697
:100B56006F726D6163696F6E2064656C207061727F
:100B6600717565616465726F000D0A204D534A5FA9
:100B76003520202020202020200920202020202071
:100B86002D2D2D20636D64203137206D736A20640E
:100B96006520696E666F726D6163696F6E2064654C
:100BA6006C20706172717565616465726F000D0A03
:100BB600204D534A5F362020202020202020092067
:100BC60020202020202D2D2D20636D6420313820FB
:100BD6006D736A20646520696E666F726D61636904
:100BE6006F6E2064656C20706172717565616465F5
:100BF600726F000D0A204D534A5F372020202020B7
:100C06002020202009202020202D2D2D20636D64FA
:100C1600203139206D736A20646520696E666F72B3
:100C26006D6163696F6E2064656C207061727175A9
:100C360065616465726F000D0A2041595544412073
:100C4600202020202020202009202020202D2D2D8E
:100C560020636D64203230204D7565737472612097
:100C66006C6F7320636F6D616E646F73000D0A2085
:100C760053414C49522020202020202020200920AA
:100C86002020202D2D2D20636D64203231205361CC
:100C96006C69722064652070726F6772616D616342
:100CA600696F6E000D0A0A53697374656D6120647D
:100CB600652050726F6772616D6163696F6E205651
:100CC60065726966696361646F720D0A0D0A000DCB
:100CD6000A0A2F3E5573756172696F3A000D0A0A4A
:100CE600206461746F732064656C20627566666546
:100CF600722072782025730D0A0A000D0A0A2064F4
:100D060061746F732064656C206275666665722017
:100D160074782025730D0A0A000D0A0A2F3E5061C9
:100D26007373776F72643A00313233343536000D9F
:100D36000A436F6D616E646F206E6F20657869730C
:100D46007465202725732700200D0A00200D0A0050
:040D5600220D0A0060
:10442D005400BE2F0000000000000000000000003E
:10443D00000000000000004900B561646D696E0068
:10444D00000000604200D230000031000032000058
:10445D00330000340000350000360000370000380E
:10446D00000039000031300031310031320031337C
:10447D00003134003135003136003137003138002C
:09448D00313900323000323100F7
:0B50C60090003FEBF0A3EAF0A3E9F03C
:1050D100E4900045F0900045E0FFC394167480947D
:1050E100805041EF75F003A424D2F9740035F0FA31
:1050F1007B0178427C007D0112180478427C007D9E
:105101000190003FE0FBA3E0FAA3E0F912171BEFC7
:105111003395E04F7006900045E0FF22900045E096
:0651210004F080B17FFFE5
:015127002265
:0B56B70090000EE0FBA3E0FAA3E0F976
:0B56C20090003FEBF0A3EAF0A3E9F03A
:1056CD0078427C007D017B017A0079B5121804784F
:1056DD00427C007D0190003FE0FBA3E0FAA3E0F9DE
:0E56ED0012171BEF3395E04F7002FF227FFF74
:0156FB00228C
:06577E007B017A00792B8B
:0B57840090003FEBF0A3EAF0A3E9F077
:10578F0078427C007D017BFF7A0D794E7E007F048D
:10579F0012142A90004D7401F0A37400F0A3744208
:0F57AF00F090003FE0FBA3E0FAA3E0F9023AB765
:1048CA00E0FBA3E0FAA3E02FF9EA3EFAE92401F9B2
:0348DA00E43AFAC3
:0B48DD0090003FEBF0A3EAF0A3E9F02D
:1048E80078427C007D017BFF7A0D79527E007F043F
:1048F80012142A78467C007D017BFF7A0D79567E5A
:10490800007F0412142A90003FE0FBA3E0FAA3E022
:10491800F9121450FFB4200C900040E475F0011215
:1049280014CA80E2EF90004DB4220D7401F0A37414
:1049380000F0A37446F080167401F0A37400F0A38D
:104948007442F090003FE0FBA3E0FAA3E0F9123ACA
:01495800B7A7
:01495900223B
:105C65009000847401F0A37400F0A374BEF07BFF70
:075C75007A007926021903F1
:084E23007A00792B7B01E4FD0C
:0E4E2B0090007DEBF0A3EAF0A3E9F0A3EDF018
:104E3900125D6C90007DE0FBA3E0FAA3E0F9EF12AC
:104E49001496900080E0701D90007DE0FBA3E0FACD
:104E5900A3E0F9121450900084F07BFF7A00792EB8
:104E690012190380057F2A12583C90007DE0FBA3AC
:104E7900E0FAA3E0F9121450FF7E0090007EE47579
:104E8900F0011214CA90007DE0FBA3E0FAA3E0F957
:094E9900E4121496EF640D709709
:014EA20022ED
:10428D00E4FDFC7FA81259A87E00900049EEF0A332
:10429D00EFF090008474FFF0A37400F0A37431F07C
:1042AD00A3EEF0A3EFF07B017A00793F1218FD9099
:1042BD0000847401F0A37400F0A3743FF07BFF7AC7
:1042CD000079341219037BFF7A0079501219037AA1
:1042DD0000793F124E277B017A00793F123B9B906C
:1042ED000049EEF0A3EFF0FBE4FDFC7FA81257FDB3
:1042FD00E4FDFC7FA81259A87E00900049EEF0A3C2
:10430D00EFF090008474FFF0A37400F0A37431F00B
:10431D00A3EEF0A3EFF07B017A00793F1218FD9028
:10432D0000847401F0A37400F0A3743FF07BFF7A56
:06433D0000797002190373
:10405A007D027C007FA81259A87E00900049EEF0EC
:10406A00A3EFF090008474FFF0A37400F0A37431FE
:10407A00F0A3EEF0A3EFF07B017A00793F1218FD6E
:10408A009000847401F0A37400F0A3743FF07BFFE6
:10409A007A0079951219037BFF7A0079AF12190316
:1040AA007B017A00793FE4FD124E2B7B017A00797D
:1040BA003F123B9B900049EEF0A3EFF0FB7D027CA0
:1040CA00007FA81257FD7D027C007FA81259A87EA6
:1040DA0000900049EEF0A3EFF090008474FFF0A383
:1040EA007400F0A37431F0A3EEF0A3EFF07B017A31
:1040FA0000793F1218FD9000847401F0A37400F057
:0D410A00A3743FF07BFF7A0079CD0219030A
:104117007D047C007FA81259A87E00900049EEF02C
:10412700A3EFF090008474FFF0A37400F0A3743140
:10413700F0A3EEF0A3EFF07B017A00793F1218FDB0
:104147009000847401F0A37400F0A3743FF07BFF28
:104157007A0079F01219037BFF7A01790F1219039C
:104167007B017A00793FE4FD124E2B7B017A0079BF
:104177003F123B9B900049EEF0A3EFF0FB7D047CE0
:10418700007FA81257FD7D047C007FA81259A87EE6
:1041970000900049EEF0A3EFF090008474FFF0A3C5
:1041A7007400F0A37431F0A3EEF0A3EFF07B017A73
:1041B70000793F1218FD9000847401F0A37400F099
:0D41C700A3743FF07BFF7A017932021903E7
:102D0D007D067C007FA81259A87E00900049EEF048
:102D1D00A3EFF090008474FFF0A37400F0A374315E
:102D2D00F0A3EEF0A3EFF07B017A00793F1218FDCE
:102D3D00900049E07002A3E0701590008404F0A3A8
:102D4D007400F0A3743FF07BFF7A01795A803590BF
:102D5D000049E07004A3E06401701590008404F054
:102D6D00A37400F0A3743FF07BFF7A017982801485
:102D7D009000847401F0A37400F0A3743FF07BFF06
:102D8D007A0179A41219037BFF7A0179DC121903F8
:102D9D007B017A00793FE4FD124E2B7B017A00799D
:102DAD003F123B9B900049EEF0A3EFF0FB7D067CBC
:102DBD00007FA81257FD7D067C007FA81259A87EC2
:102DCD0000900049EEF0A3EFF090008474FFF0A3A3
:102DDD007400F0A37431F0A3EEF0A3EFF07B017A51
:102DED0000793F1218FD900049E07002A3E07015C4
:102DFD0090008404F0A37400F0A3743FF07BFF7A7D
:102E0D0001795A8035900049E07004A3E0640170A7
:102E1D001590008404F0A37400F0A3743FF07BFFC1
:102E2D007A01798280149000847401F0A37400F00B
:0D2E3D00A3743FF07BFF7A0179A412190302
:012E4A002265
:1033E9007D087C007FA81259A87E00900049EEF064
:1033F900A3EFF090008474FFF0A37400F0A374317C
:10340900F0A3EEF0A3EFF07B017A00793F1218FDEB
:10341900900049E07002A3E0701590008404F0A3C5
:103429007400F0A3743FF07BFF7A0179FB8014905C
:1034390000847401F0A37400F0A3743FF07BFF7A59
:1034490002791F1219037BFF7A0279411219037B52
:10345900017A00793FE4FD124E2B7B017A00793F16
:10346900123B9B900049EEF0A3EFF0FB7D087C0036
:103479007FA81257FD7D087C007FA81259A87E00FD
:10348900900049EEF0A3EFF090008474FFF0A3746C
:1034990000F0A37431F0A3EEF0A3EFF07B017A0002
:1034A900793F1218FD900049E07002A3E070159071
:1034B900008404F0A37400F0A3743FF07BFF7A0149
:1034C90079FB80149000847401F0A37400F0A37454
:0B34D9003FF07BFF7A02791F121903FD
:0134E40022C5
:1034E5007D0A7C007FA81259A87E00900049EEF065
:1034F500A3EFF090008474FFF0A37400F0A374317F
:10350500F0A3EEF0A3EFF07B017A00793F1218FDEE
:10351500900049E07002A3E0701590008404F0A3C8
:103525007400F0A3743FF07BFF7A027966801490F3
:1035350000847401F0A37400F0A3743FF07BFF7A5C
:1035450002798C1219037BFF7A0279B01219037B79
:10355500017A00793FE4FD124E2B7B017A00793F19
:10356500123B9B900049EEF0A3EFF0FB7D0A7C0037
:103575007FA81257FD7D0A7C007FA81259A87E00FE
:10358500900049EEF0A3EFF090008474FFF0A3746F
:1035950000F0A37431F0A3EEF0A3EFF07B017A0005
:1035A500793F1218FD900049E07002A3E070159074
:1035B500008404F0A37400F0A3743FF07BFF7A024B
:1035C500796680149000847401F0A37400F0A374EC
:0B35D5003FF07BFF7A02798C12190393
:0135E00022C8
:1035E1007D0B7C007FA81259A87E00900049EEF067
:1035F100A3EFF090008474FFF0A37400F0A3743182
:10360100F0A3EEF0A3EFF07B017A00793F1218FDF1
:10361100900049E07002A3E0701590008404F0A3CB
:103621007400F0A3743FF07BFF7A0279D780149085
:1036310000847401F0A37400F0A3743FF07BFF7A5F
:103641000279F91219037BFF7A0379221219037B9C
:10365100017A00793FE4FD124E2B7B017A00793F1C
:10366100123B9B900049EEF0A3EFF0FB7D0B7C0039
:103671007FA81257FD7D0B7C007FA81259A87E0000
:10368100900049EEF0A3EFF090008474FFF0A37472
:1036910000F0A37431F0A3EEF0A3EFF07B017A0008
:1036A100793F1218FD900049E07002A3E070159077
:1036B100008404F0A37400F0A3743FF07BFF7A024E
:1036C10079D780149000847401F0A37400F0A3747E
:0B36D1003FF07BFF7A03794E121903D3
:0136DC0022CB
:1036DD007D0C7C007FA81259A87E00900049EEF069
:1036ED00A3EFF090008474FFF0A37400F0A3743185
:1036FD00F0A3EEF0A3EFF07B017A00793F1218FDF5
:10370D00900049E07002A3E0701590008404F0A3CE
:10371D007400F0A3743FF07BFF7A03797E801490E0
:10372D0000847401F0A37400F0A3743FF07BFF7A62
:10373D000379AF1219037BFF7A0379DF1219037B2B
:10374D00017A00793FE4FD124E2B7B017A00793F1F
:10375D00123B9B900049EEF0A3EFF0FB7D0C7C003B
:10376D007FA81257FD7D0C7C007FA81259A87E0002
:10377D00900049EEF0A3EFF090008474FFF0A37475
:10378D0000F0A37431F0A3EEF0A3EFF07B017A000B
:10379D00793F1218FD900049E07002A3E07015907A
:1037AD00008404F0A37400F0A3743FF07BFF7A044F
:1037BD00791280149000847401F0A37400F0A37446
:0B37CD003FF07BFF7A0379AF12190375
:0137D80022CE
:1037D9007D0E7C007FA81259A87E00900049EEF06A
:1037E900A3EFF090008474FFF0A37400F0A3743188
:1037F900F0A3EEF0A3EFF07B017A00793F1218FDF8
:10380900900049E07002A3E0701590008404F0A3D1
:103819007400F0A3743FF07BFF7A0479448014901C
:1038290000847401F0A37400F0A3743FF07BFF7A65
:1038390004796D1219037BFF7A04798F1219037BBE
:10384900017A00793FE4FD124E2B7B017A00793F22
:10385900123B9B900049EEF0A3EFF0FB7D0E7C003C
:103869007FA81257FD7D0E7C007FA81259A87E0003
:10387900900049EEF0A3EFF090008474FFF0A37478
:1038890000F0A37431F0A3EEF0A3EFF07B017A000E
:10389900793F1218FD900049E07002A3E07015907D
:1038A900008404F0A37400F0A3743FF07BFF7A0452
:1038B900794480149000847401F0A37400F0A37417
:0B38C9003FF07BFF7A04796D121903B9
:0138D40022D1
:10531D007BFF7A0479CB1219037B017A00793FE484
:10532D00FD124E2B7B017A00793F7D107C007FA80A
:10533D00124AFF7B017A00793F7F107E0012518661
:10534D009000847401F0A37400F0A3743FF07BFF10
:07535D007A0479ED02190347
:105364007BFF7A0579051219037B017A00793FE402
:10537400FD124E2B7B017A00793F7D407C007FA893
:10538400124AFF7B017A00793F7F407E00125186EA
:105394009000847401F0A37400F0A3743FF07BFFC9
:0753A4007A057922021903CA
:1053AB007BFF7A0579311219037B017A00793FE48F
:1053BB00FD124E2B7B017A00793F7D507C007FA83C
:1053CB00124AFF7B017A00793F7F507E0012518693
:1053DB009000847401F0A37400F0A3743FF07BFF82
:0753EB007A0579570219034E
:1053F2007BFF7A0579691219037B017A00793FE410
:10540200FD124E2B7B017A00793F7D807C007FA8C4
:10541200124AFF7B017A00793F7F807E001251861B
:105422009000847401F0A37400F0A3743FF07BFF3A
:075432007A057996021903C7
:105439007BFF7A0579AB1219037B017A00793FE486
:10544900FD124E2B7B017A00793F7DB07C007FA84D
:10545900124AFF7B017A00793F7FB07E00125186A4
:105469009000847401F0A37400F0A3743FF07BFFF3
:075479007A0579D302190343
:105480007BFF7A0579E31219037B017A00793FE407
:10549000FD124E2B7B017A00793F7DF17C007FA8C5
:1054A000124AFF7B017A00793F7FF17E001251861C
:1054B0009000847401F0A37400F0A3743FF07BFFAC
:0754C0007A0579D3021903FC
:1054C7007BFF7A06790B1219037B017A00793FE497
:1054D700FD124E2B7B017A00793F7D327C017FA83C
:1054E700124AFF7B017A00793F7F327E0112518693
:1054F7009000847401F0A37400F0A3743FF07BFF65
:075507007A06793302190353
:10550E007BFF7A0679431219037B017A00793FE417
:10551E00FD124E2B7B017A00793F7D737C017FA8B3
:10552E00124AFF7B017A00793F7F737E011251860A
:10553E009000847401F0A37400F0A3743FF07BFF1D
:07554E007A06796B021903D4
:105555007BFF7A06797B1219037B017A00793FE498
:10556500FD124E2B7B017A00793F7DB47C017FA82B
:10557500124AFF7B017A00793F7FB47E0112518682
:105585009000847401F0A37400F0A3743FF07BFFD6
:075595007A0679A302190355
:10559C007BFF7A0679B31219037B017A00793FE419
:1055AC00FD124E2B7B017A00793F7DF57C017FA8A3
:1055BC00124AFF7B017A00793F7FF57E01125186FA
:1055CC009000847401F0A37400F0A3743FF07BFF8F
:0755DC007A0679DB021903D6
:1055E3007BFF7A0679EB1219037B017A00793FE49A
:1055F300FD124E2B7B017A00793F7D367C027FA81A
:10560300124AFF7B017A00793F7F367E0212518670
:105613009000847401F0A37400F0A3743FF07BFF47
:075623007A07791302190355
:103D4C007BFF7A0779231219037BFF7A07796612B6
:103D5C0019037BFF7A0779A91219037BFF7A07797C
:103D6C00E81219037BFF7A0879431219037BFF7A57
:103D7C000879801219037BFF7A0879BD1219037B2D
:103D8C00FF7A0979031219037BFF7A097943121917
:103D9C00037BFF7A09798C1219037BFF7A0979BDB1
:103DAC001219037BFF7A0979ED1219037BFF7A0A4A
:103DBC0079251219037BFF7A0A795E1219037BFFAE
:103DCC007A0A79A21219037BFF7A0A79E61219038F
:103DDC007BFF7A0B792A1219037BFF7A0B796F120E
:103DEC0019037BFF7A0B79B41219037BFF7A0B79D9
:103DFC00F91219037BFF7A0C793D1219037BFF7AB8
:063E0C000C79730219039A
:10264D007BFF7A0C79AA1219037BFF7A0C79D512CC
:10265D001903125D5E124E2312577E90000EEBF0A1
:10266D00A3EAF0A3E9F0900084E4F0A37400F0A3D2
:10267D007422F07BFF7A0C79E3121903900084E445
:10268D00F0A37400F0A374A2F07BFF7A0D79011210
:10269D0019031256B7EF70B17BFF7A0D791F12191E
:1026AD00037B017A00792B7D01124E2B12577E9000
:1026BD00000EEBF0A3EAF0A3E9F078B57C007D0104
:1026CD007BFF7A0D792E1218041256B7EF70C902DE
:1026DD00285F125C65124E2312577E90000EEBF0B0
:1026ED00A3EAF0A3E9F012000E90000E1248CA9072
:1026FD000011EBF0A3EAF0A3E9F012000E90001127
:10270D001248CA900014EBF0A3EAF0A3E9F0900090
:10271D0011E0FBA3E0FAA3E0F9EA494B60171214AC
:10272D0050B42F1178177C007D01900011A3A3E008
:10273D00121804803D900011E0FBA3E0FAA3E0F92C
:10274D00EA494B602D78177C007D017B017A007979
:10275D00BE121804900011E0F9A3E0FAA3E0900076
:10276D0053C9F0A3EAF0A3E9F07B017A00791712BF
:10277D004FF390000EE0FBA3E0FAA3E0F9EA494B1A
:10278D0070030226DF1250C6EFB416004003022874
:10279D00659027A5F82828730227E70227ED022761
:1027AD00F30227F90227FF02280502280B02281140
:1027BD0002281702281D02282302282902282F0289
:1027CD00283502283B02284102284702284D0228BD
:1027DD005302285902285F02288612428D0226DFF5
:1027ED0012405A0226DF1241170226DF122D0D026A
:1027FD0026DF1233E90226DF1234E50226DF123519
:10280D00E10226DF1236DD0226DF1237D90226DF7E
:10281D0012531D0226DF1253640226DF1253AB0240
:10282D0026DF1253F20226DF1254390226DF12542C
:10283D00800226DF1254C70226DF12550E0226DF54
:10284D001255550226DF12559C0226DF1255E30262
:10285D0026DF123D4C0226DF90000EE0F9A3E0FAD0
:10286D00A3E0900084C9F0A3EAF0A3E9F07BFF7A1E
:09287D000D79351219030226DF62
:01288600222F
:105D3F002D30732D002D31313131312E002564007E
:0B467E0090000EEBF0A3EAF0A3E9F0BF
:10468900900013E4F0A37498F0125DD9E49000123D
:10469900F0C286900011F0C2B2900013E0FEA3E0D0
:1046A900FF20B35B900011E07055900013E0FEA36A
:1046B900E0FFEF1F70011EEF4E700590001104F02E
:1046C90030B406900011E060E920B433900011E0A5
:1046D900702D90000EE0FBA3E0FAA3E0F9E5A0122B
:1046E9001496900012E004F090000FE475F00112A6
:1046F90014CA900013E0FEA3E0FF30B4FD80A2D2FB
:0B470900B2D286125DCB900012E0FFE0
:014714002282
:0E43430090003DEBF0A3EAF0A3E9F0A3EDF04B
:10435100900046F0D2B2D2B4C286E4900045F0C2D9
:10436100B290004112152600004E2030B349900052
:1043710045E07043C2B2D2B4900041E0FCA3E0FD3D
:10438100A3E0FEA3E0FFEF24FFFFEE34FFFEED34D8
:10439100FFFDEC34FFFC90004112151A900041E042
:1043A100FCA3E0FDA3E0FEA3E0FFEC4D4E4F70BB8C
:1043B100A304F0C28280B4900045E0702920B326A6
:1043C10090003DE0FBA3E0FAA3E0F9121450F5A040
:1043D100125CD990003EE475F0011214CA900040BD
:1043E100E014F0E070DA75A0FFD2B2D2B4D2867FC9
:0643F100627E00025CA3E5
:102BC500900017EDF0900014EBF0A3EAF0A3E9F004
:102BD50090003C7402F090001EF0A37473F0E4A31F
:102BE500F012000E90003CEFF0900014E0F9A3E025
:102BF500FAA3E0900040C9F0A3EAF0A3E9F0A3E44A
:102C0500F0A3EFF07B017A00791E123E129000537B
:102C150074FFF0A3745DF0A3743FF07B017A007933
:102C25001E124FF37F8D1247B4125BA7EF2430902D
:102C35000018F07F891247B4125BA7EF243090008B
:102C450019F07F871247B4125BA7EF243090001A62
:102C5500F07F851247B4125BA7EF243090001BF07C
:102C65007F831247B4125BA7EF243090001CF0E479
:102C7500A3F07B0190005304F0A37400F0A3741833
:102C8500F07A00791E124FF390005374FFF0A3748D
:102C95005DF0A37444F07B017A00791E124FF39026
:102CA5000017E0A3F0E4A3F07B0190005304F0A328
:102CB5007400F0A37418F07A00791E124FF37B01AB
:102CC5007A00791E12000E90003CEFF0E0241EF50C
:102CD50082E43400F5837403F0C2B230B3FD7B01A6
:102CE5007A00791E90003CE004FD124343125D8B8F
:102CF5007B017A00791E90003CE004FD9000417450
:082D050001F0124F85025D8B05
:105CD900C2B47F287E00125CA3D2B47F287E000262
:025CE9005CA3BA
:064B890090001DEFF0FB9F
:104B8F00D2B4C286E4A3F0A312152600003A988B84
:104B9F00A0C2B230B34390001EE0703DA3E0FCA36F
:104BAF00E0FDA3E0FEA3E0FFEF24FFFFEE34FFFEE6
:104BBF00ED34FFFDEC34FFFC90001F12151A90002E
:104BCF001FE0FCA3E0FDA3E0FEA3E0FFEC4D4E4F82
:104BDF0070C190001E04F080BA90001EE0700C208F
:104BEF00B30990001DE0F5A0125CD9D2B2D2B4D2B5
:104BFF008675A0FF7F627E00125CA37F627E00023B
:024C0F005CA3A4
:0A5D7800D2B4D2B2D28675A0FF2289
:105A16009000107402F0A37469F07B017A00791289
:105A2600123ED77F8B1247B4900018EFF0A3740391
:0C5A3600F07B017A0079107D0A024343E6
:1031CD00E4900020F09000107402F0A37444F0908D
:1031DD00008474FFF0A3745DF0A3744CF09001595A
:1031ED00E0FFA3E0900087CFF0A3EFF07B017A0022
:1031FD00791B1218FD90001F7402F0900020E0243E
:10320D001BF582E43400F583E0FF601790001FE0AA
:10321D002410F582E43400F583EFF0900020E004F3
:10322D00F0801890001FE02410F582E43400F5833F
:10323D00743BF090001FE004F0800890001FE00444
:10324D00F080B890008474FFF0A3745DF0A3744C0B
:10325D00F0900155E0FFA3E0900087CFF0A3EFF0D1
:10326D007B017A00791B1218FDE4900020F090008C
:10327D0020E0241BF582E43400F583E0FF60179015
:10328D00001FE02410F582E43400F583EFF0900088
:10329D0020E004F0801890001FE02410F582E43443
:1032AD0000F583743BF090001FE004F0800890005F
:1032BD001FE004F080B890001FE0FD2410F582E4BB
:1032CD003400F5837403F07B017A007910024343D7
:1051DE004461746F73204D462072657370756573EC
:1051EE0074613A20004461746F73204D4620456E01
:1051FE00766961646F733A20002F2A2D2D2D2D2D87
:10520E002D2D2D2D2D2D2D2D2D2D2D2D2D2D2D2DC0
:10521E002D2D2D2D2D2D2D2D2D2D2D2D2D2D2D2DB0
:07522E002D2D2A2F0D0A00AF
:065B6800AE07EEC313FEC0
:105B6E00E4FFEFD3940774809480500D0000000082
:095B7E000000000000000F80E9A6
:015B870022FB
:105C1A00E4FFEFD3940474809480500D00000000D8
:095C2A000000000000000F80E9F9
:015C3300224E
:0252D500AE0722
:1052D700C2AFC290125B6E0000AD06EE5401FE70C5
:1052E70004C2908002D290125B6E7C01ECD39407CB
:1052F700748094805015EDC313FD5401FE7004C2F1
:10530700908002D290125B6E0C80E1D290125B6E9D
:05531700125B6ED2AF35
:01531C00226E
:02562A00AB07CC
:10562C00900149E06401703CEB54F0C4540FFFD37B
:10563C00940974809480400674372FFF8004743072
:10564C002FFF1252D5EB540FFFD394097480948022
:10565C00400674372FFF800474302FFF1252D57F11
:04566C00201252D5E1
:015670002217
:0E4F850090003DEBF0A3EAF0A3E9F0A3EDF0FD
:104F9300900149E064017057900041E0FF3395E0D0
:104FA300FEEF4E7BFF60067A5179DE80047A5179F9
:104FB300F312587AE4900042F0900040E0FF900032
:104FC30042E0C39F502490003DE0FBA3E0FAA3E03E
:104FD300F9121450FF12562A90003EE475F00112A4
:0F4FE30014CA900042E004F080CF7F0A1252D52A
:014FF200229C
:0B587A00900043EBF0A3EAF0A3E9F07C
:10588500E4A3F0900149E064017027900046F09090
:105895000043E0FBA3E0FAA3E0F9A3E0F5827583FA
:1058A50000121469FF600B1252D5900046E004F017
:0258B50080DD94
:0158B70022CE
:095D8B007BFF7A52790702587A75
:104C11007EFF125C1A125B6E208005747FFF800498
:104C2100EE4480FF125B68EE208005547FFF800315
:104C31004480FF125B68EE208005547FFF800344AF
:104C410080FF125B68EE208005547FFF8003448063
:104C5100FF125B68EE208005547FFF80034480FFD4
:104C6100125B68EE208005547FFF80034480FF12B1
:104C71005B68EE208005547FFF80034480FF125B58
:104C810068EE208005547FFF80034480FFAE071249
:074C91005B6E3080FDAF06F1
:014C980022F9
:055DD000D290D28022F8
:0E449600010B00010C00010900010A00C10B1E
:03002300024C99F3
:104C9900C0E0C083C082C0D075D000C000C006C0CB
:014CA9000703
:104CAA00309845C298859908C3E509950AFFE494A6
:104CBA0000FEEF54804E7018E509547F2422F8A6AE
:104CCA0008050974222509F87600900147E004F0E6
:104CDA00E508B4240890015B7402F0800BE508B47F
:104CEA003C0690015B7401F030991AC299E50B6594
:104CFA000C6010E50C540124A2F8E6F599050CC2E3
:054D0A000B8002D20B3A
:0F4D0F00D007D006D000D0D0D082D083D0E032F1
:105A4200D310AF01C3C0D0125A94E4F50BF50CF594
:105A520009F50AC29FD29EC29DD29CC298C299D217
:0A5A62000BD2ACD2BCD0D092AF2220
:105A9400D310AF01C3C0D0C299E4F50BF50CC28E8C
:105AA400C2AB43878053890F438920758DF4758B6E
:085AB400F4D28ED0D092AF2293
:10596D00D310AF01C3C0D09000B4EFF0125CFDC3F3
:10597D00EF94027480948040047FFF80199000B4EE
:10598D00E0FFE50B540124A2F8A607050B300B042C
:0B599D00C20BD2997F00D0D092AF2245
:105ABC00D310AF01C3C0D0125CEBEF70067EFF7F3A
:105ACC00FF800EAF0A050AEF547F2422F8E6FF7E12
:065ADC0000D0D092AF22C1
:105CEB00D310AF01C3C0D0C3E509950AFFD0D09242
:025CFB00AF22D6
:105CFD00D310AF01C3C0D0C3E50B950CFFD0D0922C
:025D0D00AF22C3
:0E5D5E00E4F50BF50CF509F50AC298C299227E
:105C4D004C4956450A00477261626163696F6E2067
:085C5D0053657269653A2000ED
:0E1D1B0090000EEBF0A3EAF0A3E9F0A3EDF0C8
:101D29006419704490000EE0FBA3E0FAA3E0F912F5
:101D390014506402703290000212146964487028C9
:101D4900900011E07E0024FFF582EE34FFF5831246
:101D590014696403701290000EA3A3E02403F9E44C
:101D69003AFA12495A0259E190000EE0FBA3E0FA4F
:101D7900A3E0F912145064B67033900146E0C3949D
:101D8900147480948040107FB612483AC282E4905D
:101D99000146F0C297C283900149E0600302208C9A
:101DA900900148E06401600302208C803E90000E9F
:101DB900E0FBA3E0FAA3E0F912145064AA70409082
:101DC9000146E0C3941474809480500302208CE48B
:101DD900F0C297D282C283900149E0600302208C4D
:101DE900900148E06401600302208C90014904F0ED
:101DF9007BFF7A5C794D12587AE4900149F0229080
:101E09000011E06401701790000EE0FBA3E0FAA353
:101E1900E0F9121450640170057FFF021EF890006A
:101E290011E06401701790000EE0FBA3E0FAA3E053
:101E3900F9121450640270057FFE021EF890001119
:101E4900E06401701790000EE0FBA3E0FAA3E0F94B
:101E5900121450640470057F04021EF8900011E00A
:101E69006401701690000EE0FBA3E0FAA3E0F912FA
:101E79001450640770047F078075900011E06401B5
:101E8900701690000EE0FBA3E0FAA3E0F9121450DB
:101E9900640970047F098057900011E0640170168D
:101EA90090000EE0FBA3E0FAA3E0F912145064E7F6
:101EB90070047FE78039900011E0FF64137033905C
:101EC900000EE0FBA3E0FAA3E0F9121450640270DB
:101ED90021900001121469B44F187E0074FF2FF588
:101EE90082EE34FFF583121469640370057FFE02E4
:101EF900483A900011E0FF6413705890000EE0FB1F
:101F0900A3E0FAA3E0F912145064027046900001AC
:101F19001214696456703CEF24FFFFE434FFFE8F0E
:101F290082F583121469640370298F828E83E41207
:101F390014A8E92402F9E43AFA7FFF122E4BE4903F
:101F49000011F0D297900146740AF07FA1124B89D3
:101F5900022080900011E0FF6406600302200D90CA
:101F6900000EE0FBA3E0FAA3E0F91214506402604A
:101F79000302200D900001121469645760030220C6
:101F89000DFE74FF2FF582EE34FFF5831214696498
:101F990003707190000EA3A3900002121469FD7BD7
:101FA900017A0079121252359000157420F09000D0
:101FB9000EE0FBA3E0FAA3E0F9900003121469FD17
:101FC90090000EA3A3900004121469900021F07BE5
:101FD900017A00791612237D900148E06401701995
:101FE900124F16EFF460077FE012483A800B7B012D
:101FF9007A007912123C7680007B017A0079127F8F
:10200900B0022E4B900011E0FF640C705390000E4B
:10201900E0FBA3E0FAA3E0F912145064027041FE58
:1020290074FF2FF582EE34FFF5831214696403708F
:102039002F90000EA3A3E02401F9E43AFA125D2FD0
:102049007BFF7A5C795312587A90000EE0FBA3E08B
:10205900FAA3E0F9A3E0FD9000417401F0024F8575
:1020690090000EE0FBA3E0FAA3E0F912145064AB70
:1020790070117FFF12483A9001457437F090015072
:032089007404F0EC
:01208C002231
:102F79000D0A5665686963756C6F20656E20656C0E
:102F8900206C6F6F700D0A005665686963756C6F08
:102F9900206E6F20656E20656C206C6F6F700D0A56
:102FA9000D0A007472616D612064656C206C656343
:102FB900746F7220646174616C6F67696320636FF9
:102FC90064205152000D0A007472616D61206465BC
:102FD9006C206C6563746F7220646174616C6F67D7
:102FE900696320636F642062617272617300747235
:102FF900616D612064656C206C6563746F72206417
:103009006174616C6F676963206E6F2065737461A9
:1030190020636F6D706C6574610D0A00636F6420C5
:1030290062617272617300636F6420515220720A87
:1030390000436172726F007469706F206465207655
:1030490065686963756C6F3A20006C6F6E676974A7
:103059007564206465206C61207472616D613A2029
:103069000D0A0066696E206465206C65637475726B
:1030790061206465207472616D610D0A00524545D5
:103089004E564941205452414D412050544F2050F1
:0B3099004152414C454C4F0D0A2000F5
:0444A40041016A0068
:105AE200E4FF121450FDC3943074809480400AD3B2
:105AF200ED943974809480400A740129F9E43AFAE9
:035B02000F80DF32
:015B0500227D
:105C9000E4FF1214506D600A740129F9E43AFA0F16
:025CA00080F092
:015CA20022DF
:10208D00900150E01460651470030221C0147003B8
:10209D000221F51470030223281470030223512426
:1020AD0005600302234B900145E0640160030223A8
:1020BD007CC297124F16EF60227BFF7A2F7979122F
:1020CD00587A7FFE12483A90016AE0700B7FA01299
:1020DD004B8990016A7401F002231B7BFF7A2F79E3
:1020ED009112587AE490016AF00221B7900145E00F
:1020FD006401600990015BE0700302237C90015B39
:10210D00E0640170287BFF7A2F79AC12587A7B003E
:10211D007A00792212587A7BFF7A2F79CE12587A6B
:10212D009001457414F09001507403F02290015BFE
:10213D00E064027060786B7C017D01FB7A0079228E
:10214D001218047B007A00792212000E90000EEF17
:10215D00F0E0FF246AF582E43401F583E4F0D3EF77
:10216D00940A74809480400B125D5E7FFE12483A93
:10217D0002231B7BFF7A2F79D112587A7B017A01CA
:10218D00796B12587A7BFF7A2F79CE12587A90019B
:10219D00507402F022125D5EE490016AF090015BD2
:1021AD00F07BFF7A2F79F712587A9001457403F07E
:1021BD0002234B7BFF7A30792512587AE490015B2C
:1021CD00F09000107443F07B017A01796BFD122BB6
:1021DD00C5900148E0600E7B017A01796B9000108B
:1021ED00E0FD1239D0022370900145E064016003D7
:1021FD0002237C7BFF7A30793012587AE490015BB0
:10220D00F0FB7A007922125AE290000EEFF02422B0
:10221D00F9E4FA7D3E125C9090000FEFF0900017FC
:10222D0074FFF0A37430F0A3743AF07A007922129F
:10223D003F9B900011EBF0A3EAF0A3E9F04A900068
:10224D001060057443F08003744DF07BFF7A307994
:10225D004012587A900010E0FF12562A7BFF7A2F19
:10226D0079CE12587A7BFF7A30795312587A9000D2
:10227D000EE0FF12562A7BFF7A2F79CE12587A90F4
:10228D00000FE0FF12562A7BFF7A2F79CE12587A73
:10229D00E490016BF090000EE0FF640C706B742203
:1022AD002FF9E4FB900017F0A3CBF0A3E9F0900019
:1022BD000FE0FF90001AE4F0A3EFF07B017A0179B3
:1022CD006B12505E90000FE0246BF582E43401F543
:1022DD0083E4F07B017A01796B12587A7BFF7A2FB8
:1022ED0079CE12587A7B017A01796B900010E0FD5E
:1022FD00122BC5900148E0600E7B017A01796B903D
:10230D000010E0FD1239D0805AD2AC125D5E900102
:10231D004574C8F09001507401F022900145E064BD
:10232D0001704CD2AC7BFF7A30796C12587A9001E7
:10233D00457403F0125D5EE490016AF08001E49053
:10234D000150F022900145E0640170237BFF7A304B
:10235D00798612587A7B017A01796B900010E0FD35
:0F236D00122BC59001457437F09001507404F0A5
:01237C00223E
:100D5A00021002E86480F8E933E83360110460F0B5
:100D6A00ED33EC337009E8FCE9FDEAFEEBFF2204FF
:100D7A0060DED3EB9FEA9EE99DE8C2E78CF0C2F7FA
:100D8A0095F0400CE8CCF8E9CDF9EACEFAEBCFFBC6
:100D9A00120FCD85D0F05804700320D5B3E8047043
:100DAA00075002B2D502100C92D5EC0460F7E4CCDD
:100DBA00C0E0C398F8603B94186008400DD0E0FB8F
:100DCA00020FE4E4FBFAC9FC8028E830E406E4C92F
:100DDA00FBE4CAFCE830E305E4C9CACBFCE85407E3
:100DEA006010F8C3E913F9EA13FAEB13FBEC13FCEE
:100DFA00D8F130F52FC3E49CFCEF9BFFEE9AFEED91
:100E0A0099FDD0E0FBEF4E4D4C701222DB0302102D
:100E1A0009EC2CFCEF33FFEE33FEED33FDED30E74A
:100E2A00EB020FE4EF2BFFEE3AFEED39FDD0E0FBCB
:100E3A0050130BBB000302100CED13FDEE13FEEF73
:080E4A0013FFEC13FC020FE49E
:100E5200EC4D6011E8497017ED33EC3304600DE49A
:100E6200FCFFFEFD22E933E8330470F8021002129F
:100E72000FCD58046009E4CC2481500628500902A1
:100E8200100C284003021009C0E0EB4A7044B980FC
:100E920006D0E0FB020FF8EF4E701CBD8008EBFF9E
:100EA200EAFEE9FD80EBE98DF0A4FEE5F0020F3BDE
:100EB200E9CDF9EAFEEBFFEF89F0A4FCE5F0CE897B
:100EC200F0A42EFFE435F0CD89F0A42DFEE435F038
:100ED2008067EF4E7005BD80D780C3EF8BF0A4AC66
:100EE200F0EE8BF0A42CFCE435F0F8EF8AF0A42CA1
:100EF200E5F038FCE433CB8DF0A42CFCE5F03BF8B4
:100F0200EE8AF0A42CFCE5F038F8E433CF89F0A4A3
:100F12002CFCE5F038CF3400CE89F0A42FFFE5F0A9
:100F22003EFEE433C98DF0A42EFEE5F039CD8AF001
:100F3200A42FFFE5F03EFEE43DFD33D0E0FB500779
:100F42000BBB000F02100CEC2CFCEF33FFEE33FE58
:060F5200ED33FD020FE487
:100F580075F020800E75F010800575F0087D007E14
:100F6800007F003392D530D5031214E0EC334010E3
:100F7800EF33FFEE33FEED33FDEC33FCD5F0ED221D
:0E0F8800E5F0247EA2D513CC92E7CDCEFF2259
:100F9600EDD2E7CD33EC3392D524814006E4FFFE53
:100FA600FDFC22FCE4CFCECDCC24E0501174FF80B2
:100FB600EDC3CC13CCCD13CDCE13CECF13CF04704F
:070FC600F030D5DE0214E05B
:10189800E50D2484F582E43400F583E0050D2290FB
:1018A8000081300703900084E475F0011215570297
:1018B80014502000E97F2ED2008018EF540F249096
:1018C800D43440D4FF30040BEF24BFB41A005003C3
:1018D8002461FFE50E6002150E0511E51170020581
:1018E8001030070E900081E475F001121557EF02D1
:1018F800149602583C7403D2078003E4C207F50D1E
:1019080090008112156EE4F50EF510F511E50E60E4
:10191800077F201218DB80F5750FFFC201C200C2D5
:1019280002C203C205C206C2081218A7FF700D3012
:1019380007057F001218ECAF11AE1022B4255FC264
:10194800D5C2041218A7FF24D0B40A00501A75F0A3
:101958000A780E30D50508B6FF0106C6A426F6207B
:10196800D5047002D20380D924CFB41A00EF5004F2
:10197800C2E5D204021BDED20180C6D20080C0D2EA
:101988000280BCD2D580BAD20580B47F201218DB81
:101998002002077401B50E0040F1121898FF1218C2
:1019A800DB021915D208D2068095121898FB121876
:1019B80098FA121898F94A4B700679DC7A1C7BFF62
:1019C80020022EE50E602A7E008E82758300121496
:1019D8006960060EEE650F70F0C2D5EBC0E0EAC094
:1019E800E0E9C0E0EE121C3FD0E0F9D0E0FAD0E028
:1019F800FB121450FF60AAEBC0E0EAC0E0E9C0E0C7
:101A08001218DBD0E02401F9D0E03400FAD0E0FB72
:101A1800E50F0460DCD50FD98087D20280A2121CA2
:101A28002160F7E50F7001041210BBA90F600DE5E6
:101A38000F600914F50F121CC9EF60F3EA30E702D2
:101A4800F404C3995079EAF4250F0430E701E4045B
:101A5800F50F800D121C2160C1EA050F250F121029
:101A6800BBEA9000B0F030E701E4250F04D50F047D
:101A780020050114121C3FE4C0E0121CC99000B0FC
:101A8800E0601320E70714F01218C3802204F0D096
:101A9800E014C0E07F001218C3E50F60071218BAFF
:101AA800150F800B3005031218BAD0E0021915D0B3
:101AB800E00480C4121C21609EE50F041210BB9044
:101AC80000B0EAF0E50F2005026001042404121CAE
:011AD8003FCE
:101AD90074FF04C0E0121CC91218C3E50F200502E7
:101AE90060031218BAD0E0B50FE87F451218CD90FF
:101AF90000B0E07F2B30E7047F2DF404C0E012181A
:101B0900DBD0E075F00A84C0F01218C4D0E01218D6
:101B1900C4021915791080027908C206C208800822
:101B2900D2D5790A8004790AC2D5E50F047002F585
:101B39000FE4FAFDFEFF121898FC7B08200113122E
:101B49001898FD7B1030000A121898FE121898FF99
:101B59007B20EC3382D592D55013C3E43000069F25
:101B6900FFE49EFEE42001039DFDE49CFCE4CBF828
:101B7900C201EC700CCFCECDCCE824F8F870F3801C
:101B890017C3EF33FFEE33FEED33FDEC33FCEB33DC
:101B9900FB994002FB0FD8E9EB300105F8D0E0C40E
:101BA90048B201C0E00AEC4D4E4F78207B0070C26C
:101BB900EAB50F0040BCC0E0121C41D0F0D0E020D3
:101BC9000104C4C0E0C4B201C0F01218C4D0F0D5F9
:101BD900F0EB02191512157719B2531B1D58198309
:101BE9004C197F421B214F1B29441B294919984332
:101BF9001B2F551A5C461ABC451A26471CFC50195E
:101C0900872D198B2E19AE2B198F2319AC201CE5A2
:101C19002A194748000019A6E50FB4FF03750F06F6
:101C2900121898FC121898FD121898FE121898FFAD
:101C39009000A90210F8790AA2D5200314300509E9
:101C4900B910020404B9080104A2D5200602500102
:101C5900042002689202B50E005034C0E07F2030A3
:101C690003197F30A20272067205500F121C98C226
:101C790002C206C205C2087F30800F300503E9C0E1
:101C8900E01218DB300503D0E0F9D0E0B50ECC3016
:101C990005177F30B9100C1218DB7F583004077F05
:101CA900788003B908031218DB3002057F2D02186A
:101CB900DB7F202008F87F2B2006F322920280CFB9
:101CC9007F00B40700500B24A9F582E43400F583A2
:101CD900E0FF22286E756C6C2900D2011218983029
:101CE90001F8C201780E30D50108F60219472D50C6
:101CF9004349581218982403B405004001E4901C84
:101D0900F7931218CC743A1218CCD203750E040248
:021D19001B1D90
:102A5F0090002912151AE4FFFE7D807C3F9000291B
:102A6F00E0F8A3E0F9A3E0FAA3E0FB12103170063F
:102A7F00900029022BB9900029E0FCA3E0FDA3E010
:102A8F00FEA3E0FF121017FBA3E0FCA3E0FDA3E001
:102A9F00FEA3E0FF121017FFB40108E4FFFE7D80D4
:102AAF007C3F22EF64046029EB64046024EBB401E3
:102ABF0030E4FFFEFDFC90002DE0F8A3E0F9A3E069
:102ACF00FAA3E0FB12103160084006E4FFFEFDFCA4
:102ADF002290002D121526FFFFFFFF90002D022BD5
:102AEF00B9E4900031F0A3F0FFFEFDFC900029E067
:102AFF00F8A3E0F9A3E0FAA3E0FB121031505F90C6
:102B0F00002DE0FCA3E0FDA3E0FEA3E0FF120F9673
:102B1F00900031EEF0A3EFF0FDCCEECCEC120F5D98
:102B2F00C8ECC8C9EDC9CAEECACBEFCB90002DE0F7
:102B3F00FCA3E0FDA3E0FEA3E0FF120D5DE4FBFAB2
:102B4F00F9F8121031708A900029E0FCA3E0FDA380
:102B5F00E0FEA3E0FF1210AA90002912151A9000B0
:102B6F0029E0FCA3E0FDA3E0FEA3E0FF1230D89024
:102B7F00002DE0F8A3E0F9A3E0FAA3E0FB120E5258
:102B8F0012461C90002D12151A900032E030E017FB
:102B9F0090002DE0FCA3E0FDA3E0FEA3E0FF1210E8
:102BAF00AA90002D12151A90002DE0FCA3E0FDA3B2
:062BBF00E0FEA3E0FF228E
:100FCD00E9D2E7C933E833F892D5EDD2E7CD33EC6A
:070FDD0033FC5002B2D522E3
:100FE400EC30E7100FBF000C0EBE00080DBD00046E
:100FF4000BEB6014A2D5EB13FCED92E7FD2274FF1A
:10100400FCFDFEFF22E480F8A2D574FF13FC7D8072
:03101400E480EF86
:10101700ED33EC33601004700FED547F70057402EC
:0A10270092E0227404220422E42265
:1010310074F8CC6480CCC86480C8F58204604FC366
:10104100EB9FF5F0EA9E42F0E99D42F0E89C45F005
:10105100603C501DE5825FFFE582D313CB5BCBF48F
:101061002B5582FB50280ABA002409B900200880B8
:101071001DE5825BFBE582D313CF5FCFF4C3132F52
:101081005582FF50090EBE00050DBD00010CC3EBDA
:101091009FF5F0EA9E42F0E99D42F0E89C45F06040
:0910A10007CC4820E701B3EC2262
:1010AA00ED33EC33600A047003BD8004ECB2E7FC54
:0110BA002213
:1010BB00F920E73624F950037907E4F42402FBE521
:1010CB0082158270021583DBF6E024FB501BE9606E
:1010DB0014E4F0E582158270021583E004F0B40A83
:0D10EB0008E4F0D9EE7401F00A22C2D5220B
:1010F800ED33EC3392D5FA602AB4FF33EDC2E77BC7
:10110800FF60067A11791DE4227A11792620D50428
:101118007A117921224E614E002B494E46002D4905
:101128004E4600E47A08F0A3DAFC7B00740722C07C
:1011380083C082ECC0E0EDC0E0EEC0E0EFC0E0EAC2
:1011480075F010A4CAABF075F04DA42BFBE435F094
:10115800FCEA2410FAEB34C5FBEC34D9FCEDC2E709
:10116800FF75F056A4F42411C5F0F434C58FF0A42B
:101178002AE5F03BE43CF020E7141212CDD0E0FF62
:10118800D0E0FED0E0FDD0E0FC1212008014F404A0
:101198001212CDD0E0FFD0E0FED0E0FDD0E0FC128E
:1011A8000E52D082D083E0FAEDD2E7CD33EC33246F
:1011B80082FBE4C3CF33CFCE33CECD33CD33DBF395
:1011C8007B0775F00A846004F0A31B0AE5F0F0A31E
:1011D8008FF0740AA4FFACF08EF0740AA42CFEAC55
:1011E800F050010C8DF0740AA42CFDE435F0F0A346
:0511F800DBDE7407229C
:1045E40033DA929E35B16011377FE5FE3921848933
:1045F4003AAEC3FF3C1D955B3D6358473E75FDF0E5
:104604003F3172183F800000C2D502100C02100224
:10461400BD80FA50F3021009ED33EC330460F17BF2
:104624003B7AAA79B8783F120E52ED33EC3392D527
:10463400247B5011A2D570DB500BED448024045030
:1046440004A2D580CEEFFBEEFAEDF9ECF8120F964A
:10465400EFF582F404FC120F62120D61C0829045E2
:10466400E4740912131CED33CC33D0F092D525F049
:0A467400A2D57001C313CC13FD2280
:1030A4003E9248DA3ECCCCCD3F2AAAAB4000000089
:1030B4003F8000003F9837F03FB504F33FD744FC0E
:1030C4003E3172173EB172173F0515913EDE5BD952
:1030D400D2008002C200EDD2E7F8CD33EC330470A5
:1030E4000BBD800592D502100C02100240FBD314D4
:1030F40060F2F5F07C3FEE7A00C39496C8948B405E
:10310400230AC89469C8941A401A0AC89468C894CF
:103114001F40110AC8945AC89425400805F07A0043
:10312400CDC2E7CDC0F090003312151AEA2323C0B4
:10313400E024B4F582E43430F58312150A120D61EB
:10314400ECC0E0EDC0E0EEC0E0EFC0E01214EE90A1
:1031540000331214FE120D5DD0E0FBD0E0FAD0E093
:10316400F9D0E0B2E7F812120090003312151A9069
:1031740030A4740312130D9000331214FE120E5275
:10318400D0E0600F24C0F582E43430F58312150AD0
:10319400120D6190003312151AD0E0C3947FFDE440
:1031A4009400FC120F5D7B187A727931783F120E0D
:1031B400529000331214FE120D6130000B7BD97A49
:0931C4005B79DE783E120E522206
:1011FD0002100CEC5D046005E85904700302100246
:10120D00120FCD580460F6EC4860F2EC7004FDFE50
:10121D00FF22C860DB2481C85009C39860025006C4
:10122D000210099850CAF582E9294B4A7005AB8224
:10123D00020FF875F0007C1A7880C3EF9BEE9AEDE3
:10124D0099400DC3EF9BFFEE9AFEED99FDE842F03C
:10125D00DC23ACF0D0E0FFD0E0FED0E0FDAB82208F
:10126D00E7101BEB60BAEC2CFCEF33FFEE33FEED19
:10127D0033FD020FE4E803F830E705C0F075F00028
:10128D00EF2FFFEE33FEED33FD40B830E7C280AAFD
:10129D003F8000004120000042C80000447A000059
:1012AD00461C400047C35000497424004B189680DB
:1012BD004CBEBC205A0E1BCA6753C21C749DC5AED2
:1012CD00FB60065407601C23231212FBEB5438609D
:1012DD00091212E71212F6120E52ECF8EDF9EEFAAF
:1012ED00EFCB22EB1212F680F1543803241C90122E
:1012FD009DFE93FC0EEE93FD0EEE930ECE93FF220C
:10130D00C0E0EFFBEEFAEDF9ECF8120E52D0E0F57D
:10131D00F0EFFBEEFAEDF9ECF81214EEA3A3A3A394
:10132D00E8C0E0E9C0E0EAC0E0EBC0E0C0F0120EBA
:10133D005212150AA3A3A3A3120D61D0F0D0E0FBA6
:0D134D00D0E0FAD0E0F9D0E0F8D5F0D422DD
:030000000249E9C9
:0C49E900787FE4F6D8FD7581AB024A30FF
:10135A00E709F608DFFA8046E709F208DFFA803E75
:10136A0088828C83E709F0A3DFFA8032E309F60862
:10137A00DFFA8078E309F208DFFA807088828C83CA
:10138A00E309F0A3DFFA806489828A83E0A3F6087E
:10139A00DFFA805889828A83E0A3F208DFFA804C58
:1013AA0080D280FA80C680D4806980F2803380102F
:1013BA0080A680EA809A80A880DA80E280CA803398
:1013CA0089828A83ECFAE493A3C8C582C8CCC58310
:1013DA00CCF0A3C8C582C8CCC583CCDFE9DEE780E0
:1013EA000D89828A83E493A3F608DFF9ECFAA9F05F
:1013FA00EDFB2289828A83ECFAE0A3C8C582C8CCB5
:10140A00C583CCF0A3C8C582C8CCC583CCDFEADECD
:10141A00E880DB89828A83E493A3F208DFF980CC2F
:10142A0088F0EF60010E4E60C388F0ED2402B40428
:10143A000050B9F582EB2402B4040050AF232345CF
:06144A0082239013AA7337
:10145000BB010689828A83E0225002E722BBFE029A
:09146000E32289828A83E49322CD
:10146900BB010CE58229F582E5833AF583E0225038
:1014790006E92582F8E622BBFE06E92582F8E22282
:0D148900E58229F582E5833AF583E493229C
:10149600BB010689828A83F0225002F722BBFE0135
:0214A600F3222F
:1014A800F8BB010DE58229F582E5833AF583E8F07A
:1014B800225006E92582C8F622BBFE05E92582C826
:0214C800F2220E
:1014CA00C5F0F8A3E028F0C5F0F8E58215827002AD
:0614DA001583E038F0224A
:0E14E000C3E49FFFE49EFEE49DFDE49CFC221D
:1014EE00E493FC740193FD740293FE740393FF2244
:0C14FE00E0F8A3E0F9A3E0FAA3E0FB2271
:10150A00E493F8740193F9740293FA740393FB2237
:0C151A00ECF0A3EDF0A3EEF0A3EFF02244
:10152600A8828583F0D083D08212153D12153D1214
:10153600153D12153DE473E493A3C583C5F0C58339
:10154600C8C582C8F0A3C583C5F0C583C8C582C80F
:011556002272
:10155700F8E0FBA3A3E0F925F0F0E582158270021D
:071567001583E0FA38F022C1
:09156E00EBF0A3EAF0A3E9F0227E
:10157700D083D082F8E4937012740193700DA3A303
:1015870093F8740193F5828883E473740293686017
:06159700EFA3A3A380DF17
:104FF300900050EBF0A3EAF0A3E9F0900056EBF039
:10500300A3EAF0A3E9F0900050E0FBA3E475F001FC
:10501300121833A9F0FA12145070EB90005174FF78
:10502300F5F01214CA900053E0FBA3E475F00112EB
:105033001833A9F0FA121450FF900050E0FBA3E4D8
:1050430075F001121833A9F0FAEF12149670D69086
:0B5053000056E0FBA3E0FAA3E0F92206
:103E120090003DEBF0A3EAF0A3E9F0E4900045F056
:103E2200A3F0D3900044E09400900043E0648094B7
:103E3200805003023ECB90003DE0FBA3E0FAA3E0FA
:103E4200F9900045E0FEA3E0F5828E8312146960CA
:103E520010900046E004F070DD900045E004F08030
:103E6200D5900040E0FBA3E0FAA3E0F91214506001
:103E72003E900040A3E475F001121833A9F0FA1243
:103E82001450FF90003DE0FBA3E0FAA3E0F990009C
:103E920045E475F00112183385F082F583EF1214B0
:103EA200A890004374FFF5F01214CA45F070B29066
:103EB200003DE0FBA3E0FAA3E0F9900045E0FEA399
:103EC200E0F5828E83E41214A890003DE0FBA3E0AB
:053ED200FAA3E0F92253
:10159D00E3F5F009E208B5F06D606B80F3E3F5F06B
:1015AD0009E608B5F060605E80F387F009E608B5DE
:1015BD00F054605280F487F009E208B5F0486046B7
:1015CD0080F488828C8387F009E0A3B5F03860360B
:1015DD0080F488828C8387F009E493A3B5F02760AB
:1015ED002580F388828C83E3F5F009E0A3B5F0162E
:1015FD00601480F388828C83E3F5F009E493A3B53E
:10160D00F004600280F20216C8808580E7808E802B
:10161D00D2803C8015806C807E809B80B5808B80D5
:10162D00A1804F8070803A0216D489828A83ECFAA9
:10163D00E493F5F0A3C8C582C8CCC583CCE493A3CD
:10164D00C8C582C8CCC583CCB5F070606E80E18909
:10165D00828A83E493F5F0A3E208B5F05E605C80C6
:10166D00F289828A83E0F5F0A3E608B5F04D604B70
:10167D0080F389828A83E0F5F0A3E208B5F03C603F
:10168D003A80F389828A83E493F5F0A3E608B5F0F6
:10169D002A602880F2805389828A83ECFAE493F5DC
:1016AD00F0A3C8C582C8CCC583CCE0A3C8C582C889
:1016BD00CCC583CCB5F004600280E27FFFB5F002AB
:1016CD000F2240027F012289828A83ECFAE0F5F035
:1016DD00A3C8C582C8CCC583CCE0A3C8C582C8CC7D
:1016ED00C583CCB5F0D560D380E389828A83ECFACB
:1016FD00E0F5F0A3C8C582C8CCC583CCE493A3C8DC
:10170D00C582C8CCC583CCB5F0B160AF80E288F09E
:10171D00ED2402B4040050A3F582EB2402B40400BE
:0B172D00509923234582239016167369
:10173800E709F60870FA8046E709F20870FA803E71
:1017480088828C83E709F0A370FA807EE309F608A3
:1017580070FA8076E309F20870FA806E88828C83CA
:10176800E309F0A370FA806289828A83E0A3F6080D
:1017780070FA805689828A83E0A3F20870FA804A58
:1017880080D280FA80C680D4806580F28031801053
:1017980080A680EA809A80A880DA80E280CA8031B8
:1017A80089828A83ECFAE493A3C8C582C8CCC5832E
:1017B800CCF0A3C8C582C8CCC583CC70E9800D899C
:1017C800828A83E493A3F60870F9ECFAA9F0EDFB9A
:1017D8002289828A83ECFAE0A3C8C582C8CCC58373
:1017E800CCF0A3C8C582C8CCC583CC70EA80DD899B
:1017F800828A83E493A3F20870F980CE88F0ED24FE
:1018080002B4040050C4F582EB2402B4040050BAB8
:09181800232345822390178873F5
:10505E00900014EBF0A3EAF0A3E9F0E490001CF04A
:10506E00A3F090001A74FFF5F012183345F0603C6F
:10507E00900017E0FBA3E0FAA3E0F9121450FF90A2
:10508E000014E0FBA3E0FAA3E0F990001CE475F035
:10509E000112183385F082F583EF1214A8EF60C267
:1050AE00900018E475F0011214CA80B6900014E056
:0850BE00FBA3E0FAA3E0F922D4
:10000E00E4FFFE121450600C0FEF70010E09E97040
:05001E00F20A80EF2250
:103F9B00900014EBF0A3EAF0A3E9F0A3E0FBA3E09D
