:105B7B00526563696265207472616D612070746F28
:105B8B003A00200D0A006C6F6E67697475642064AF
:0C5B9B0065206C61207472616D613A003D
:104547004101450A4101460041015200410147002E
:104557004101500041014E0041015B0049013C000F
:10456700000000000000000041015106410158030E
:06457700410157F2C109E9
:03000B00025DF59E
:105DF500C0E0C083C082900145E014F0A3E004F048
:095E0500C28DD082D083D0E032BE
:105EB800E58954F04401F589E4F58CF58AD28C2201
:055F7400C28DD2A9223C
:035F8200C2A9228F
:0B5F1500125C9BEFF47002EEF460F5EC
:015F2000225E
:0559A1009000B1EFF0E1
:1059A6009000B1E0FF125AD2EF3395E04F6024E445
:1059B6009000B2F0A3F0C39000B3E094E89000B278
:1059C600E0940350DBA3E004F070EB9000B2E00437
:0859D600F080E39000B1E0FF56
:0159DE0022A6
:105EC800125F79125F3D125F21C283D287C2972287
:104B3600E4FDFC7FA8125B0D900159E4F0A3EFF0B1
:104B46007D027C007FA8125B0D900155E4F0A3EF77
:104B5600F07D047C007FA8125B0D900153E4F0A366
:104B6600EFF07D067C007FA8125B0D90014CE4F00F
:104B7600A3EFF07D087C007FA8125B0D900149EF42
:104B8600F07D0A7C007FA8125B0D900148EFF07D56
:104B96000C7C007FA8125B0D90014FEFF07D0E7C20
:104BA600007FA8125B0D90014BEFF07D0B7C007F20
:0A4BB600A8125B0D90014AEFF022F7
:103DA700125EB8125F74125BD3125C25125EC8D222
:103DB700AF125D4D125DDB7F6112543A125F4420F2
:103DC7009103122850124B369001457403F020805E
:103DD7003F7B017A00790012486690000DEFF012E0
:103DE7005F347B017A00790090000DE0FD1246995F
:103DF7007B017A00790090000DE0FD90004174018D
:103E0700F01250D47B017A01793C1259DF125F34EA
:103E170012203220B35C7B017A0179141247CE90CD
:103E2700000DEFF07BFF7A5B797B1259DF7B017A1C
:103E370001791490000DE0FD9000417401F01250DB
:103E4700D47BFF7A5B798D1259DF7BFF7A5B79919F
:103E57001259DF90000DE0FF12578F7BFF7A5B79D5
:103E67008D1259DF7B017A01791490000DE0FD1264
:083E77001D1B125061023DD534
:08000300D294125F85C2942221
:05592300900045EFF0CB
:10592800E4A3F0A3F0900045E0FFA2E713F030D71E
:1059380004D2958002C295120003900047E004F05B
:105948007006900046E004F0C3900047E094089089
:095958000046E06480948040CC1C
:015961002223
:0A48FB00EBF0A3EAF0A3E9F07F8DD3
:05490500900042EFF0FC
:10490A00D2967F037E00125E4C900042E0FF12595D
:10491A0023E4900043F0A3F0900043E0FCA3E0FD01
:10492A00C39408EC64809480504F30951690016DC2
:10493A00E04480F0ED9406EC648094805005E0FF3A
:10494A00C313F020952090016DE0547FF0D39000BE
:10495A0044E09406900043E06480948050089001FB
:10496A006DE0FFC313F0120003900044E004F070FE
:10497A00A7900043E004F0809FC29690016DE0FF8B
:01498A00220A
:105BFD00900020EFF0A3EDF0D2967F037E00125EB1
:105C0D004C900020E0FF125923900021E0FF9000FE
:085C1D0020F0125923C2962267
:1058610090001EE475F0011214CA90001EE475F058
:10587100011214CA90001EE475F0011214CA9000BE
:105881001DE0FBA3E0FAA3E0F9121450FF90000120
:04589100121469FD87
:0C589500EF540FC454F0FFED540F4FFF10
:0158A10022E4
:104A1B0090001DEBF0A3EAF0A3E9F012587FAD076D
:104A2B007F86125BFD125861AD077F88125BFD908C
:104A3B00001EE475F0011214CA90001EE475F0011B
:104A4B001214CA125861AD077F8C125BFD125861AC
:104A5B00AD077F84125BFD125861AD077F82125B3D
:104A6B00FD125861AD077F80125BFD90001EE4754F
:104A7B00F0011214CA90001EE475F0011214CA90D2
:104A8B00001EE475F0011214CA90001DE0FBA3E0B8
:0F4A9B00FAA3E0F9121450540FFD7F8A025BFD5D
:105D8600AE07EEC4540F540FFE6012EF540FFFE43B
:0D5D9600FDEDC39E5007740A2FFF0D80F431
:015DA30022DD
:10539A00E4FFFE90001DEDF090001DE0C3946474DC
:1053AA008094804007E0249CF00F80ECEF44301298
:1053BA001496740129F9E43AFA90001DE0C3940A9C
:1053CA00748094804007E024F6F00E80ECEE4430BE
:1053DA00121496740129F9E43AFA90001DE0443057
:0353EA0002149614
:0E231D0090001DEBF0A3EAF0A3E9F0A3EDF0B1
:10232B00E4900022F0A3F0900025F0A3F0A3F0A31B
:10233B00F0900024EDF054F0F0E0FFC4540FF09057
:10234B00002D121526404000007F007E007D807C12
:10235B0041122C62C004C005C006C007900024E0E7
:10236B00FCE4120F62D003D002D001D000120E5247
:10237B00C004C005C006C007900022E0FCA3E0FD2E
:10238B00E4120F5DD003D002D001D000120D611208
:10239B000F96900022EEF0A3EFF0900020E090005B
:1023AB0024F0540FF090002D121526400000007FF2
:1023BB00007E007D807C41122C62C004C005C006EB
:1023CB00C007900024E0FCE4120F62D003D002D0CF
:1023DB0001D000120E52C004C005C006C007900009
:1023EB0022E0FCA3E0FDE4120F5DD003D002D0018C
:1023FB00D000120D61120F96900022EEF0A3EFF0B9
:10240B00900021E0900024F054F0F0E0FFC4540F52
:10241B00F090002D1215263F8000007F007E007D7E
:10242B00807C41122C62C004C005C006C00790001E
:10243B0024E0FCE4120F62D003D002D001D00012D2
:10244B000E52C004C005C006C007900022E0FCA3DA
:10245B00E0FDE4120F5DD003D002D001D000120DCD
:10246B0061120F96900022EEF0A3EFF0900021E0A6
:10247B00900024F0540FF090002D12152600000050
:10248B00007F007E007D807C41122C62C004C00561
:10249B00C006C007900024E0FCE4120F62D003D00A
:1024AB0002D001D000120E52C004C005C006C007F6
:1024BB00900022E0FCA3E0FDE4120F5DD003D002FC
:1024CB00D001D000120D61120F96900022EEF0A3F6
:1024DB00EFF0C3EF9410EE9427401074F02FFF74BD
:1024EB00D83EFE900025E004F080E7900025E04404
:1024FB0030FD90001DE0FBA3E0FAA3E0F9ED121410
:10250B009690001EE475F0011214CAC3EF94E8EE26
:10251B009403401074182FFF74FC3EFE900026E0CD
:10252B0004F080E7900026E04430FD90001DE0FBB6
:10253B00A3E0FAA3E0F9ED12149690001EE475F0F7
:10254B00011214CAC3EF9464EE94004010749C2FD4
:10255B00FF74FF3EFE900027E004F080E790002719
:10256B00E04430FD90001DE0FBA3E0FAA3E0F9EDA1
:10257B0012149690001EE475F0011214CAC3EF9466
:10258B000AEE9400401074F62FFF74FF3EFE90008D
:10259B0028E004F080E7900028E04430FD90001D17
:1025AB00E0FBA3E0FAA3E0F9ED12149690001EE411
:1025BB0075F0011214CAEF4430FF90001DE0FBA32D
:1025CB00E0FAA3E0F9EF12149690001EE475F00107
:1025DB001214CA90001DE0FBA3E0FAA3E0F9E40299
:0225EB00149644
:032A8A0090003F7A
:102A8D001248FBEF54F0C4540F4430FE90003FE069
:102A9D00FBA3E0FAA3E0F9EE121496900040E47562
:102AAD00F0011214CAEF540F4430FF90003FE0FBC9
:102ABD00A3E0FAA3E0F9EF121496900040E475F04C
:102ACD00011214CA7F89124905EF54F0C4540F4402
:102ADD0030FE90003FE0FBA3E0FAA3E0F9EE121404
:102AED0096900040E475F0011214CAEF540F443073
:102AFD00FF90003FE0FBA3E0FAA3E0F9EF1214967C
:102B0D00900040E475F0011214CA7F87124905EF59
:102B1D0054F0C4540F4430FE90003FE0FBA3E0FAA4
:102B2D00A3E0F9EE121496900040E475F001121432
:102B3D00CAEF540F4430FF90003FE0FBA3E0FAA32F
:102B4D00E0F9EF121496900040E475F0011214CAEA
:102B5D007F85124905EF54F0C4540F4430FE9000A8
:102B6D003FE0FBA3E0FAA3E0F9EE121496900040CB
:102B7D00E475F0011214CAEF540F4430FF90003F7A
:102B8D00E0FBA3E0FAA3E0F9EF121496900040E405
:102B9D0075F0011214CA7F83124905EF54F0C45425
:102BAD000F4430FE90003FE0FBA3E0FAA3E0F9EE06
:102BBD00121496900040E475F0011214CAEF540FF0
:102BCD004430FF90003FE0FBA3E0FAA3E0F9EF12E1
:102BDD001496900040E475F0011214CA7F811249D9
:102BED0005EF54F0C4540F4430FE90003FE0FBA3BA
:102BFD00E0FAA3E0F9EE121496900040E475F001AE
:102C0D001214CAEF540F4430FF90003FE0FBA3E0D5
:102C1D00FAA3E0F9EF121496900040E475F001125A
:102C2D0014CA7F8B124905EF540F4430FF90003FBB
:102C3D00E0FBA3E0FAA3E0F9EF121496900040E454
:102C4D0075F0011214CA90003FE0FBA3E0FAA3E077
:052C5D00F9E4021496E9
:1040E00090002A1248FB90002AE0FBA3E0FAA3E02C
:1040F000F9EF12149690002BE475F0011214CA7FA8
:104100008912490590002AE0FBA3E0FAA3E0F9EF49
:1041100012149690002BE475F0011214CA7F8712D6
:10412000490590002AE0FBA3E0FAA3E0F9EF12149E
:104130009690002BE475F0011214CA7F8512490590
:1041400090002AE0FBA3E0FAA3E0F9EF12149690A6
:10415000002BE475F0011214CA7F83124905900008
:104160002AE0FBA3E0FAA3E0F9EF12149690002BEB
:10417000E475F0011214CA7F8112490590002AE00B
:10418000FBA3E0FAA3E0F9EF12149690002BE4757C
:10419000F0011214CA90002AE0FBA3E0FAA3E0F9B0
:0441A000E40214968B
:075F3D00C294C296D2952226
:105E4C00E4FDFCC3ED9FEC9E50070DBD00010C80E2
:015E5C00F253
:015E5D002222
:045DC000AB07AA067D
:105DC400900000C3E5829BE5839A500A7F967E008B
:065DD400125E4CA380EDFD
:015DDA0022A6
:015F850022F9
:035D0700125CE546
:105D0A00D20AD293D292E4FFFE209205C20AC2932B
:0C5D1A00220FBF00010EBE04F0BF4CEDD4
:015D2600225A
:035D2700125CE526
:105D2A00D293D292D20AE4FFFE209205C20AC2930B
:0C5D3A00220FBF00010EBE02F0BF8AED78
:015D4600223A
:065F6E00D29300C2932251
:105CE500E4FEEEC39408748094805015EF25E0FF20
:105CF50030D704D2928002C292D293125F6E0E8088
:015D0500E1BC
:015D0600227A
:085E5E00ECFD7C00C293C2922E
:0A5E6600D292D29300C292C293229E
:095F2B00C293C292D293D29222D9
:1053ED00E4FBEBFDC39408748094805038C2933075
:1053FD009216900168E04401F0ED9406748094805B
:10540D005006E025E0F0D293209217900168E05409
:10541D00FEF0EBD39406748094805006E025E0F006
:0C542D00D2930B80BDC293900168E0FF99
:015439002250
:02596200AA0792
:10596400AF05A907125E5EAF02125D07AF05125DB7
:1059740007AF01125CE5125D0AAF03125CE5125D2C
:105984000A125F2B7F0D7E00125DC0D293D2927FEC
:0D599400627E00125E4C7F627E00025E4C5F
:025B0D00AB07E4
:105B0F00AF05AA07125E5EAF03125D27AF05125DE8
:105B1F0027AF02125CE5125D2A125E66EB04FF12DC
:105B2F005CE5125D0AC2931253ED125F2BD293D232
:065B3F0092900168E0FFF6
:015B4500223D
:1052EB0090007DEEF0A3EFF0A3EBF0A3EAF0A3E9BF
:0152FB00F0C2
:1052FC0090007DE0FCA3E0FD7FA8125B0D90007F89
:10530C00E0FBA3E0FAA3E0F9EF12149690007FE023
:10531C00FBA3E0FAA3E0F9121450FF90007EE00426
:10532C00F0700690007DE004F0900080E475F001D0
:06533C001214CAEF70BA62
:015342002248
:104BC00090007DEFF0A3ECF0A3EDF0A3EBF0A3EAEF
:104BD000F0A3E9F0900080E0FBA3E0FAA3E0F91273
:104BE0001450603CB40D04E412149690007DE0FF74
:104BF000A3E0FCA3E0FDA3E0FBA3E0FAA3E0F9122D
:104C00001450FB12596290007FE004F0700690008F
:104C10007EE004F0900081E475F0011214CA80B4C3
:104C2000900080E0FBA3E0FAA3E0F9E41214969070
:104C3000007DE0FFA3E0FCA3E0FDA3E0FBA3E0FA1E
:0A4C4000A3E0F9121450FB025962C0
:1045F90053656E736F726573204175746F207920EE
:1046090073656E736F72312061637469766F732E8F
:104619000053656E736F722061637469766F2073DE
:10462900656E736F7231202E004465746563746121
:10463900646F2E2053656E736F72204175746F2EEF
:104649000053656E736F726573206E6F20646574B5
:1046590065637461646F73005665686963756C6F2F
:10466900204573706572616E646F2053616C697265
:104679002E005665686963756C6F2053616C6965B6
:104689006E646F2E20556E206D6F6D656E746F00B0
:075F4400C2B5C2B6C2B722CC
:075F4B00C2B5D2B6C2B722B5
:075F5200C2B5C2B6D2B722AE
:075F5900D2B5C2B6D2B72297
:075F6000C2B5D2B6D2B72290
:075F6700D2B5D2B6D2B72279
:105D6700E4FF7DF47C01309115EFFB3395E04B7038
:0E5D77000DED1D70011CED4C70EC7F0180E8FD
:015D850022FB
:105E70007F31125F603091010F125F673091020F26
:015E80000F12
:015E810022FE
:10514700125F5230915D125D67EF3395E0FEEF64B9
:10515700014E7047125F59209123125F4B7BFF204E
:10516700910D7A4579F91259DFE490014E80227A40
:1051770046791A1259DF90014E74018014125F4B61
:105187007BFF2091107A4679321259DF90014E74D5
:1051970001F07FFF227A46794A800E7BFF7A4679B3
:0F51A7006180067BFF7A46797B1259DF7F0022F9
:10506100125F4420916190000EE07014A3E0701073
:1050710030B35404F0125BA790000E7401F0804726
:1050810090000EE064017014A3E0701030B3380496
:10509100F01233F990000E7402F0802B90000EE0B4
:1050A10064027023A3E0701F30B31C04F07D667CA2
:1050B100007FA8125B0DBF53047F5380027F4E1205
:1050C1004C4AE490000EF0125F44309105E49000E8
:0250D1000FF0DE
:0150D30022BA
:0B48660090000EEBF0A3EAF0A3E9F0D5
:10487100E4900012F0A3740CF0900148E064017020
:1048810073900011F0900013E0FF900011E0C39FBE
:104891005053E4FFFEFD30801DED701A0FBF000183
:1048A1000ED3EF9430EE947540EC7D01900013E04F
:1048B100900011F080E0ED6401602A124CD290006A
:1048C1000EE0FBA3E0FAA3E0F9EF12149690000FBB
:1048D100E475F0011214CA900012E004F090001186
:1048E100E004F080A090000EE0FBA3E0FAA3E0F961
:0948F100E4121496900012E0FF9D
:0148FA00229B
:0B46990090000EEBF0A3EAF0A3E9F0A4
:1046A400E4FF7E029000021214696403701C9000FF
:1046B4000EE0FBA3E0FAA3E0F9900001121469B440
:1046C4005008D297E4900146F02290000EE0FBA33C
:1046D400E0FAA3E0F9900001121469643C70509070
:1046E400000EE0FBA3E0FAA3E0F98E8275830012CA
:1046F4001469FD743C2FF582E43401F583EDF00E6A
:104704000F8E82758300121469640370D290000EB8
:10471400E0FBA3E0FAA3E0F98E82758300E41214AF
:0F472400A8743B2FF582E43401F583E4F0D20949
:014733002263
:0E58A20090003FEBF0A3EAF0A3E9F0A3EDF0D5
:1058B000E4A3F0900042E0FFA3E0C39F50249000D7
:1058C0003FE0FBA3E0FAA3E0F9121450FF12543AB0
:1058D000900040E475F0011214CA900043E004F017
:0258E00080D175
:0158E20022A3
:0B3E7F0090001DEBF0A3EAF0A3E9F0B7
:103E8A0090003E7403F090002014F0125E709000CF
:103E9A0021EFF0A37453F090014EE090003E6013BE
:103EAA00E0FF04F074202FF582E43400F583744DAA
:103EBA00F08011E0FF04F074202FF582E43400F55D
:103ECA00837443F090003E7404F090001DE0FBA35D
:103EDA00E0FAA3E0F9121450FF602190003EE024BA
:103EEA0020F582E43400F583EFF090001EE475F0CB
:103EFA00011214CA90003EE004F080CE90003EE029
:103F0A00FF04F074202FF582E43400F583743AF04C
:103F1A0090003EE02420F9E43400FA7B01122A8A58
:103F2A0090003EE0FF242AF582E43400F583743AD7
:103F3A00F0742B2FF582E43400F5837403F07B01CF
:0B3F4A007A007920EF240CFD0258A241
:0E3B0100900014EBF0A3EAF0A3E9F0A3EDF0BE
:103B0F00A37402F0125E70900019EFF0A37453F0DB
:103B1F00E4A3F0900017E0900037F0E4A3F07B01EE
:103B2F0090006504F0A37400F0A37437F07A007965
:103B3F00181251B6900014E0F9A3E0FAA3E0900038
:103B4F0065C9F0A3EAF0A3E9F07B017A00791812B6
:103B5F0051B6900037743AF0E4A3F07B0190006502
:103B6F0004F0A37400F0A37437F07A00791812519F
:103B7F00B67B017A00791812000E900036EFF02410
:103B8F0018F9E43400FA7B01122A8A900036E0FF1C
:103B9F002422F582E43400F583743AF074232FF570
:103BAF0082E43400F5837403F074242FF582E43437
:103BBF0000F583E4F074252FF582E43400F583E4F7
:103BCF00F07B017A00791812000E900036EFF0FDAD
:093BDF007B017A0079180258A25A
:045F7E00256C750019
:105ED80090000AE41214A87D007C057FA8024BC03C
:105DA4007B017A0079697F007E051252EB7B017AD0
:0C5DB40000796912350990006502151A8B
:105A1D009000657409F0E4A3F0900066E0FFC39474
:105A2D000A748094805025900065E0C39FFFE49434
:105A3D0000FE8F82F5831214696430700F8F828E91
:0C5A4D00831214A8900066E004F080CDE5
:015A5900222A
:0B5A5A00900062EBF0A3EAF0A3E9F07B
:105A6500125DA490008474FFF0A3745FF0A3747EAC
:105A7500F0A312151A900062E0FBA3E0FAA3E0F987
:105A85001218FD900062E0FBA3E0FAA3E0F9025AC8
:015A95001DF3
:102DC8004552524F523A2056414C4944414E444F85
:102DD80020504C4143412E2E2E20004552524F5236
:102DE8003A204C4F4F50312053494E2050524553B2
:102DF800454E434941205645484943554C41522088
:102E0800004552524F523A205441524A45544120AB
:102E1800494E56414C49444120005441524A455478
:102E280041204E4F2045532044454C20504152519B
:102E38002E20005441524A4554412053494E2046C1
:102E48004F524D41544F20005441524A455441205D
:102E58004E4F205245474953545241205041474F05
:102E68002000455843454445205449454D504F207E
:102E78004445204752414349412000465545524167
:102E8800204445204C494E4541200041434552517C
:102E98005545205355205449434B4554200047522B
:102EA800414349415320004552524F523A20534919
:102EB8004E20494E475245534F20005449434B45F5
:102EC80054204E6F2E00613B30333B4143455251F5
:102ED8005545205355205449434B45540A00006139
:102EE8003B30333B47524143494153200A00005786
:102EF800494547414E442000AA8028072000000089
:102F08000000140000AA8018010200AA801802021A
:072F180000AA80180102006D
:095C4D00900061E025E0FFE4FD98
:055C5600900068EDF074
:105C5B001259A1900069EFF0900068E0600AE4FF30
:085C6B001259A1900069EFF04D
:015C7300220E
:0E5A9600900062EBF0A3EAF0A3E9F0A3EDF0BC
:105AA400E4A3F0900062E0FBA3E0FAA3E0F9900025
:105AB40066E0F582758300121469FF60109000653A
:0D5AC400E0FD125C56900066E004F080D614
:015AD10022B2
:0E57D600900062EBF0A3EAF0A3E9F0A3EDF07F
:1057E400E4900067F0900065E0FF900067E0FEC37E
:1057F4009F5024900062E0FBA3E0FAA3E0F98E82BC
:10580400758300121469FF900066E0FD125C5690E7
:075814000067E004F080CE04
:01581B00226A
:105B4600781D7C007D017BFF7A2F79007E007F0D1A
:105B560012142AC2877B017A0079221240E0C29C85
:105B66007B017A00791DE4900066F07D0D1257D610
:045B7600D29CD28764
:015B7A002208
:0B4FE700900062EBF0A3EAF0A3E9F0F9
:104FF20012000E900066EFF0E4900065F0900066FB
:10500200E0FF900065E0C39F503DE4900067F090A0
:105012000067E0C39464748094805005E004F080DB
:10502200EE900062E0FBA3E0FAA3E0F9A3E0F582D0
:10503200758300121469FF1259A1900067EFF09076
:105042000065E004F080B6E4900067F0900067E04D
:0E505200C39464748094805005E004F080EEF6
:01506000222D
:0525ED0090001DEFF05D
:1025F20078557C007D017BFF7A2F790D7E007F0666
:1026020012142A785B7C007D017BFF7A2F79137E7E
:10261200007F0612142AC28790014AE06003022852
:102622001B7B017A007955FD125A9690001DE0122B
:102632001577265C50273CB626DCDF267CE0269CFC
:10264200E126BCE52799E626FCE7271CE827BDFA28
:10265200275BFE277AFF000028187BFF7A2D79C8B6
:1026620012000E900061EFF0E4FDFF125C56125C66
:102672004D7BFF7A2D79C80227B67BFF7A2D79E34D
:1026820012000E900061EFF0E4FDFF125C56125C46
:102692004D7BFF7A2D79E30227B67BFF7A2E7909EB
:1026A20012000E900061EFF0E4FDFF125C56125C26
:1026B2004D7BFF7A2E79090227B67BFF7A2E79228B
:1026C20012000E900061EFF0E4FDFF125C56125C06
:1026D2004D7BFF7A2E79220227B67BFF7A2E793B39
:1026E20012000E900061EFF0E4FDFF125C56125CE6
:1026F2004D7BFF7A2E793B0227B67BFF7A2E7950EB
:1027020012000E900061EFF0E4FDFF125C56125CC5
:102712004D7BFF7A2E79500227B67BFF7A2E796A9B
:1027220012000E900061EFF0E4FDFF125C56125CA5
:102732004D7BFF7A2E796A0227B67BFF7A2E798348
:1027420012000E900061EFF0E4FDFF125C56125C85
:102752004D7BFF7A2E7983805B7BFF7A2E799312F1
:10276200000E900061EFF0E4FDFF125C56125C4D2A
:102772007BFF7A2E7993803C7BFF7A2E79A612001A
:102782000E900061EFF0E4FDFF125C56125C4D7B8F
:10279200FF7A2E79A6801D7BFF7A2E79AF12000E6A
:1027A200900061EFF0E4FDFF125C56125C4D7BFF7E
:1027B2007A2E79AF7D01125A96805B7B017A00797D
:1027C2001E125A5A782D7C007D017BFF7A2E79C326
:1027D2001218049000657401F0A37400F0A3741E33
:1027E200F07B017A00792D1251B67B017A00792DA6
:1027F20012000EEF04900061F0E4FDFF125C56122D
:102802005C4D7B017A00792D900061E0FD900066BD
:102812007401F01257D6D28722C28790001DE004BD
:102822006011047026782D7C007D017BFF7A2E7961
:10283200CE800C782D7C007D017BFF7A2E79E71209
:0D28420018047B017A00792D124FE7D28730
:01284F002266
:0E4E630090001DEFF0A3EBF0A3EAF0A3E9F03E
:104E710078217C007D017BFF7A2F79197E007F06E6
:104E810012142AC28790001DE0245070557B017ACC
:104E9100007921E4FD125A967BFF7A2E79F71200F0
:104EA1000E900027EFF090001EE0FBA3E0FAA3E0D4
:104EB100F912000E900027E02F04F0E4FDFF125CD0
:104EC10056900027125C507BFF7A2E79F77D0112F4
:104ED1005A9690001EE0FBA3E0FAA3E0F97D0112CF
:044EE1005A96D28784
:014EE50022AA
:100026000D0A0A25733E20002563002564000D0A8B
:100036000A2041435455414C2049445F434C4945AD
:100046004E54453D25730D0A0A000D0A0A204449FF
:1000560047495445205355204E5545564F2049444F
:100066005F434C49454E54453D000D0A0A20444124
:10007600544F204D4F444946494341444F2049443B
:100086005F434C49454E54453D25730D0A0A000D04
:100096000A0A2041435455414C20434F445F504186
:1000A600524B3D25730D0A0A000D0A0A20444947A2
:1000B600495445205355204E5545564F20434F44ED
:1000C6005F5041524B3D000D0A0A204441544F20D7
:1000D6004D4F444946494341444F20434F445F50A6
:1000E60041524B3D25730D0A0A000D0A0A20414371
:1000F6005455414C205449454D504F5F475241435A
:1001060049413D25730D0A0A000D0A0A2044494754
:10011600495445205355204E5545564F2054494580
:100126004D504F5F4752414349413D000D0A0A2059
:100136004441544F204D4F444946494341444F2082
:100146005449454D504F5F4752414349413D257300
:100156000D0A0A000D0A0A2041435455414C20530A
:10016600494E5F434F42524F20494E484142494C07
:10017600495441444F3D25730D0A0A000D0A0A20D1
:1001860041435455414C2053494E5F434F42524FD1
:10019600204752415449533D25730D0A0A000D0A62
:1001A6000A2041435455414C2053494E5F434F4228
:1001B600524F2047524154495320592053414C49EC
:1001C600444120454C204D49534D4F204449413D23
:1001D60025730D0A0A000D0A0A2044494749544569
:1001E600205355204E5545564F2053494E5F434F99
:1001F60042524F3D000D0A0A2041435455414C20BE
:10020600444542554720494E484142494C4954418C
:10021600444F3D25730D0A0A000D0A0A2041435436
:1002260055414C20444542554720484142494C4996
:100236005441444F3D25730D0A0A000D0A0A204415
:10024600494749544520454C204E5545564F204573
:10025600535441444F2044452044454255473D00B0
:100266000D0A0A2041435455414C205553455F4CD5
:10027600505220494E484142494C495441444F3D11
:1002860025730D0A0A000D0A0A2041435455414CB4
:10029600205553455F4C505220484142494C4954E1
:1002A60041444F3D25730D0A0A000D0A0A204449B0
:1002B6004749544520454C204E5545564F204553F9
:1002C6005441444F204445205553455F4C50523DC0
:1002D600000D0A0A2050414E54414C4C41204C43DB
:1002E6004420484142494C49544144413D25730DFF
:1002F6000A0A000D0A0A2050414E54414C4C412036
:100306005241535042455252592020484142494C8D
:1003160049544144413D25730D0A0A000D0A0A203D
:1003260044494749544520454C204E5545564F2093
:1003360045535441444F204445204C412050414EA2
:1003460054414C4C41203D000D0A0A20414354556E
:10035600414C20434F4D5041524143494F4E20415D
:1003660043544956412020484142494C495441444E
:10037600413D25730D0A0A000D0A0A2041435455D2
:10038600414C20434F4D5041524143494F4E20412D
:10039600435449564120494E484142494C495441EB
:1003A600444F3D25730D0A0A000D0A0A20414354A5
:1003B60055414C20434F4D5041524143494F4E20E9
:1003C6004143544956412020484142494C495441F1
:1003D600444F3D25730D0A0A000D0A0A2044494779
:1003E60049544520454C204E5545564F20455354BB
:1003F60041444F20444520434F4D504152414349CB
:100406004F4E20414354495641203D000D0A0A20D3
:1004160041435455414C20434F4D5041524143496D
:100426004F4E204143544956412020494E484142AF
:10043600494C495441444F3D25730D0A0A000D0AA3
:100446000A2041435455414C20434F4449474F20CD
:10045600444520424152524153204143544956306B
:100466003D25730D0A0A000D0A0A204143545541E1
:100476004C20434F4449474F205152204143544951
:10048600564F3D25730D0A0A000D0A0A20444947B6
:1004960049544520454C204E5545564F204553540A
:1004A60041444F20444520434F4449474F20515231
:1004B600204F20434F4449474F2044452042415254
:1004C6005241533D000D0A0A20446967697465204C
:1004D600656C206E6F6D6272652064656C20636C5E
:1004E60069656E746520000D0A0A20746578746F5C
:1004F600206772616261646F3D25730D0A0A000D03
:100506000A0A2044696769746520656C206E756DFA
:1005160065726F206465204E697420000D0A0A20FA
:100526004E49543A2025730D0A0A000D0A0A204442
:10053600696769746520656C204E6F6D627265200F
:1005460064656C20506172717565616465726F20B7
:10055600000D0A0A204E6F6D6272653A2025730DF2
:100566000A0A000D0A0A20446967697465206C61ED
:1005760020646972656363696F6E2064656C2065CB
:10058600737461626C6563696D69656E746F200072
:100596000D0A0A20446972656363696F6E3A202505
:1005A600730D0A0A000D0A0A2044696769746520FA
:1005B600656C206D736A312064656C2065737461A7
:1005C600626C6563696D69656E746F20000D0A0A59
:1005D600206D736A313A2025730D0A0A000D0A0A46
:1005E6002044696769746520656C206D736A3220E2
:1005F60064656C2065737461626C6563696D6965B9
:100606006E746F20000D0A0A2044696769746520BC
:10061600656C206D736A332064656C206573746144
:10062600626C6563696D69656E746F20000D0A0AF8
:10063600206D736A333A2025730D0A0A000D0A0AE3
:100646002044696769746520656C206D736A34207F
:1006560064656C2065737461626C6563696D696558
:100666006E746F20000D0A0A206D736A343A2025D5
:10067600730D0A0A000D0A0A204469676974652029
:10068600656C206D736A352064656C2065737461D2
:10069600626C6563696D69656E746F20000D0A0A88
:1006A600206D736A353A2025730D0A0A000D0A0A71
:1006B6002044696769746520656C206D736A36200D
:1006C60064656C2065737461626C6563696D6965E8
:1006D6006E746F20000D0A0A206D736A363A202563
:1006E600730D0A0A000D0A0A2044696769746520B9
:1006F600656C206D736A372064656C206573746160
:10070600626C6563696D69656E746F20000D0A0A17
:10071600206D736A373A2025730D0A0A000D0A20E8
:1007260049445F434C49454E544520202020090941
:10073600092D2D2D20636D642030204964656E746B
:100746006966696361646F722064656C20636C69B5
:10075600656E7465206D6178696D6F203235350080
:100766000D0A20434F445F5041524B202020202049
:10077600200909092D2D2D20636D64203120456C3B
:10078600206E756D65726F2064656C207061727184
:100796007565616465726F206D6178696D6F203271
:1007A6003535000D0A20545F475241434941202008
:1007B600202020200909092D2D2D20636D6420326B
:1007C600205469656D706F2073696E20636F627265
:1007D6006F2030302C20206D6178696D6F203235A6
:1007E60035000D0A2053494E5F434F42524F202099
:1007F6002020090909092D2D2D20636D6420332041
:10080600496E686162696C697461646F3D20302C61
:10081600204772617469733D2031202C2047726134
:1008260074697320792073616C69646120656C203A
:100836006D69736D6F206469613D2032000D0A2079
:100846004445425547202020202020202020090909
:10085600092D2D2D20636D64203420486162696C5A
:1008660069746172203D20312C20496E686162698D
:100876006C69746172203D2030000D0A2055534585
:100886005F4C5052202020202020200909092D2DC0
:100896002D20636D64203520486162696C6974613E
:1008A60072203D20312C20496E686162696C697442
:1008B6006172203D2030000D0A205449504F5F5090
:1008C600414E54414C4C41202020202020092D2D02
:1008D6002D20636D6420362050414E54414C4C41CE
:1008E600204C4344203D302050414E54414C4C4115
:1008F600205241535042455252493D31000D0A2083
:10090600434F4D5041524143494F4E5F4143544935
:10091600564120092D2D2D20636D64203720486116
:1009260062696C69746172203D20312C20496E68C1
:100936006162696C69746172203D2030000D0A2085
:1009460051525F434F445F4241525241532009097D
:10095600092D2D2D20636D64203820486162696C55
:1009660069746172205152203D20312C2048616209
:10097600696C6974617220434F445F42415252412F
:1009860053203D2030000D0A20434C49454E544526
:10099600202020202020200909092D2D2D20636DDF
:1009A600642039204E6F6D6272652064656C206329
:1009B6006C69656E7465000D0A204E49542020202E
:1009C600202020202020202009202020202D2D2D11
:1009D60020636D64203130204E756D65726F206422
:1009E600656C206E6974000D0A204E4F4D5F5041B4
:1009F600525120202020202009202020202D2D2D7E
:100A060020636D64203131204E6F6D627265206403
:100A1600656C20706172717565616465726F000D39
:100A26000A20444952454343494F4E20202020097D
:100A36002020202020202D2D2D20636D6420313292
:100A4600204E6F6D6272652064656C2070617271F4
:100A56007565616465726F000D0A204D534A5F31FA
:100A660020202020202020202009202020202D2D7D
:100A76002D20636D64203133206D736A20646520F8
:100A8600696E666F726D6163696F6E2064656C2056
:100A9600706172717565616465726F000D0A204D33
:100AA600534A5F32202020202020202020092020A9
:100AB60020202D2D2D20636D64203134206D736A26
:100AC60020646520696E666F726D6163696F6E2062
:100AD60064656C20706172717565616465726F0022
:100AE6000D0A204D534A5F3320202020202020204D
:100AF6002009202020202D2D2D20636D64203135E6
:100B0600206D736A20646520696E666F726D61631D
:100B1600696F6E2064656C207061727175656164C1
:100B260065726F000D0A204D534A5F342020202045
:100B360020202020092020202020202D2D2D20635C
:100B46006D64203136206D736A20646520696E6697
:100B56006F726D6163696F6E2064656C207061727F
:100B6600717565616465726F000D0A204D534A5FA9
:100B76003520202020202020200920202020202071
:100B86002D2D2D20636D64203137206D736A20640E
:100B96006520696E666F726D6163696F6E2064654C
:100BA6006C20706172717565616465726F000D0A03
:100BB600204D534A5F362020202020202020092067
:100BC60020202020202D2D2D20636D6420313820FB
:100BD6006D736A20646520696E666F726D61636904
:100BE6006F6E2064656C20706172717565616465F5
:100BF600726F000D0A204D534A5F372020202020B7
:100C06002020202009202020202D2D2D20636D64FA
:100C1600203139206D736A20646520696E666F72B3
:100C26006D6163696F6E2064656C207061727175A9
:100C360065616465726F000D0A2041595544412073
:100C4600202020202020202009202020202D2D2D8E
:100C560020636D64203230204D7565737472612097
:100C66006C6F7320636F6D616E646F73000D0A2085
:100C760053414C49522020202020202020200920AA
:100C86002020202D2D2D20636D64203231205361CC
:100C96006C69722064652070726F6772616D616342
:100CA600696F6E000D0A0A53697374656D6120647D
:100CB600652050726F6772616D6163696F6E205651
:100CC60065726966696361646F720D0A0D0A000DCB
:100CD6000A0A2F3E5573756172696F3A000D0A0A4A
:100CE600206461746F732064656C20627566666546
:100CF600722072782025730D0A0A000D0A0A2064F4
:100D060061746F732064656C206275666665722017
:100D160074782025730D0A0A000D0A0A2F3E5061C9
:100D26007373776F72643A00313233343536000D9F
:100D36000A436F6D616E646F206E6F20657869730C
:100D46007465202725732700200D0A00200D0A0050
:040D5600220D0A0060
:10457D005400BE2F000000000000000000000000ED
:10458D00000000000000004900B561646D696E0017
:10459D00000000604200D230000031000032000007
:1045AD0033000034000035000036000037000038BD
:1045BD00000039000031300031310031320031332B
:1045CD0000313400313500313600313700313800DB
:0945DD00313900323000323100A6
:0B52890090003FEBF0A3EAF0A3E9F077
:10529400E4900045F0900045E0FFC39416748094B8
:1052A400805041EF75F003A424D2F9740035F0FA6C
:1052B4007B0178427C007D0112180478427C007DD9
:1052C4000190003FE0FBA3E0FAA3E0F912171BEF03
:1052D4003395E04F7006900045E0FF22900045E0D2
:0652E40004F080B17FFF21
:0152EA0022A1
:0B581C0090000EE0FBA3E0FAA3E0F90F
:0B58270090003FEBF0A3EAF0A3E9F0D3
:1058320078427C007D017B017A0079B512180478E8
:10584200427C007D0190003FE0FBA3E0FAA3E0F977
:0E58520012171BEF3395E04F7002FF227FFF0D
:015860002225
:0658E3007B017A00792B25
:0B58E90090003FEBF0A3EAF0A3E9F011
:1058F40078427C007D017BFF7A0D794E7E007F0427
:1059040012142A90004D7401F0A37400F0A37442A1
:0F591400F090003FE0FBA3E0FAA3E0F9023BE8CC
:10498B00E0FBA3E0FAA3E02FF9EA3EFAE92401F9F0
:03499B00E43AFA01
:0B499E0090003FEBF0A3EAF0A3E9F06B
:1049A90078427C007D017BFF7A0D79527E007F047D
:1049B90012142A78467C007D017BFF7A0D79567E98
:1049C900007F0412142A90003FE0FBA3E0FAA3E061
:1049D900F9121450FFB4200C900040E475F0011254
:1049E90014CA80E2EF90004DB4220D7401F0A37453
:1049F90000F0A37446F080167401F0A37400F0A3CC
:104A09007442F090003FE0FBA3E0FAA3E0F9123B07
:014A1900E8B4
:014A1A002279
:105E0E009000847401F0A37400F0A374BEF07BFFC5
:075E1E007A00792602190346
:084F67007A00792B7B01E4FDC7
:0E4F6F0090007DEBF0A3EAF0A3E9F0A3EDF0D3
:104F7D00125F1590007DE0FBA3E0FAA3E0F9EF12BC
:104F8D001496900080E0701D90007DE0FBA3E0FA88
:104F9D00A3E0F9121450900084F07BFF7A00792E73
:104FAD0012190380057F2A1259A190007DE0FBA301
:104FBD00E0FAA3E0F9121450FF7E0090007EE47534
:104FCD00F0011214CA90007DE0FBA3E0FAA3E0F912
:094FDD00E4121496EF640D7097C4
:014FE60022A8
:1043DD00E4FDFC7FA8125B0D7E00900049EEF0A37A
:1043ED00EFF090008474FFF0A37400F0A37431F02B
:1043FD00A3EEF0A3EFF07B017A00793F1218FD9048
:10440D0000847401F0A37400F0A3743FF07BFF7A75
:10441D000079341219037BFF7A0079501219037A4F
:10442D0000793F124F6B7B017A00793F123CCC90A3
:10443D000049EEF0A3EFF0FBE4FDFC7FA8125962FA
:10444D00E4FDFC7FA8125B0D7E00900049EEF0A309
:10445D00EFF090008474FFF0A37400F0A37431F0BA
:10446D00A3EEF0A3EFF07B017A00793F1218FD90D7
:10447D0000847401F0A37400F0A3743FF07BFF7A05
:06448D0000797002190322
:104263007D027C007FA8125B0D7E00900049EEF07A
:10427300A3EFF090008474FFF0A37400F0A37431F3
:10428300F0A3EEF0A3EFF07B017A00793F1218FD63
:104293009000847401F0A37400F0A3743FF07BFFDB
:1042A3007A0079951219037BFF7A0079AF1219030B
:1042B3007B017A00793FE4FD124F6F7B017A00792D
:1042C3003F123CCC900049EEF0A3EFF0FB7D027C63
:1042D300007FA81259627D027C007FA8125B0D7ECD
:1042E30000900049EEF0A3EFF090008474FFF0A378
:1042F3007400F0A37431F0A3EEF0A3EFF07B017A26
:1043030000793F1218FD9000847401F0A37400F04B
:0D431300A3743FF07BFF7A0079CD021903FF
:104320007D047C007FA8125B0D7E00900049EEF0BA
:10433000A3EFF090008474FFF0A37400F0A3743135
:10434000F0A3EEF0A3EFF07B017A00793F1218FDA5
:104350009000847401F0A37400F0A3743FF07BFF1D
:104360007A0079F01219037BFF7A01790F12190391
:104370007B017A00793FE4FD124F6F7B017A00796F
:104380003F123CCC900049EEF0A3EFF0FB7D047CA3
:10439000007FA81259627D047C007FA8125B0D7E0D
:1043A00000900049EEF0A3EFF090008474FFF0A3BA
:1043B0007400F0A37431F0A3EEF0A3EFF07B017A68
:1043C00000793F1218FD9000847401F0A37400F08E
:0D43D000A3743FF07BFF7A017932021903DC
:103067007D067C007FA8125B0D7E00900049EEF084
:10307700A3EFF090008474FFF0A37400F0A3743101
:10308700F0A3EEF0A3EFF07B017A00793F1218FD71
:10309700900049E07002A3E0701590008404F0A34B
:1030A7007400F0A3743FF07BFF7A01795A80359062
:1030B7000049E07004A3E06401701590008404F0F7
:1030C700A37400F0A3743FF07BFF7A017982801428
:1030D7009000847401F0A37400F0A3743FF07BFFA9
:1030E7007A0179A41219037BFF7A0179DC1219039B
:1030F7007B017A00793FE4FD124F6F7B017A0079FB
:103107003F123CCC900049EEF0A3EFF0FB7D067C2C
:10311700007FA81259627D067C007FA8125B0D7E96
:1031270000900049EEF0A3EFF090008474FFF0A345
:103137007400F0A37431F0A3EEF0A3EFF07B017AF3
:1031470000793F1218FD900049E07002A3E0701566
:1031570090008404F0A37400F0A3743FF07BFF7A1F
:1031670001795A8035900049E07004A3E06401704A
:103177001590008404F0A37400F0A3743FF07BFF64
:103187007A01798280149000847401F0A37400F0AE
:0D319700A3743FF07BFF7A0179A4121903A5
:0131A4002208
:103615007D087C007FA8125B0D7E00900049EEF0CE
:10362500A3EFF090008474FFF0A37400F0A374314D
:10363500F0A3EEF0A3EFF07B017A00793F1218FDBD
:10364500900049E07002A3E0701590008404F0A397
:103655007400F0A3743FF07BFF7A0179FB8014902E
:1036650000847401F0A37400F0A3743FF07BFF7A2B
:1036750002791F1219037BFF7A0279411219037B24
:10368500017A00793FE4FD124F6F7B017A00793FA3
:10369500123CCC900049EEF0A3EFF0FB7D087C00D6
:1036A5007FA81259627D087C007FA8125B0D7E0001
:1036B500900049EEF0A3EFF090008474FFF0A3743E
:1036C50000F0A37431F0A3EEF0A3EFF07B017A00D4
:1036D500793F1218FD900049E07002A3E070159043
:1036E500008404F0A37400F0A3743FF07BFF7A011B
:1036F50079FB80149000847401F0A37400F0A37426
:0B3705003FF07BFF7A02791F121903CE
:013710002296
:103711007D0A7C007FA8125B0D7E00900049EEF0CF
:10372100A3EFF090008474FFF0A37400F0A3743150
:10373100F0A3EEF0A3EFF07B017A00793F1218FDC0
:10374100900049E07002A3E0701590008404F0A39A
:103751007400F0A3743FF07BFF7A027966801490C5
:1037610000847401F0A37400F0A3743FF07BFF7A2E
:1037710002798C1219037BFF7A0279B01219037B4B
:10378100017A00793FE4FD124F6F7B017A00793FA6
:10379100123CCC900049EEF0A3EFF0FB7D0A7C00D7
:1037A1007FA81259627D0A7C007FA8125B0D7E0002
:1037B100900049EEF0A3EFF090008474FFF0A37441
:1037C10000F0A37431F0A3EEF0A3EFF07B017A00D7
:1037D100793F1218FD900049E07002A3E070159046
:1037E100008404F0A37400F0A3743FF07BFF7A021D
:1037F100796680149000847401F0A37400F0A374BE
:0B3801003FF07BFF7A02798C12190364
:01380C002299
:10380D007D0B7C007FA8125B0D7E00900049EEF0D1
:10381D00A3EFF090008474FFF0A37400F0A3743153
:10382D00F0A3EEF0A3EFF07B017A00793F1218FDC3
:10383D00900049E07002A3E0701590008404F0A39D
:10384D007400F0A3743FF07BFF7A0279D780149057
:10385D0000847401F0A37400F0A3743FF07BFF7A31
:10386D000279F91219037BFF7A0379221219037B6E
:10387D00017A00793FE4FD124F6F7B017A00793FA9
:10388D00123CCC900049EEF0A3EFF0FB7D0B7C00D9
:10389D007FA81259627D0B7C007FA8125B0D7E0004
:1038AD00900049EEF0A3EFF090008474FFF0A37444
:1038BD0000F0A37431F0A3EEF0A3EFF07B017A00DA
:1038CD00793F1218FD900049E07002A3E070159049
:1038DD00008404F0A37400F0A3743FF07BFF7A0220
:1038ED0079D780149000847401F0A37400F0A37450
:0B38FD003FF07BFF7A03794E121903A5
:01390800229C
:103909007D0C7C007FA8125B0D7E00900049EEF0D3
:10391900A3EFF090008474FFF0A37400F0A3743156
:10392900F0A3EEF0A3EFF07B017A00793F1218FDC6
:10393900900049E07002A3E0701590008404F0A3A0
:103949007400F0A3743FF07BFF7A03797E801490B2
:1039590000847401F0A37400F0A3743FF07BFF7A34
:103969000379AF1219037BFF7A0379DF1219037BFD
:10397900017A00793FE4FD124F6F7B017A00793FAC
:10398900123CCC900049EEF0A3EFF0FB7D0C7C00DB
:103999007FA81259627D0C7C007FA8125B0D7E0006
:1039A900900049EEF0A3EFF090008474FFF0A37447
:1039B90000F0A37431F0A3EEF0A3EFF07B017A00DD
:1039C900793F1218FD900049E07002A3E07015904C
:1039D900008404F0A37400F0A3743FF07BFF7A0421
:1039E900791280149000847401F0A37400F0A37418
:0B39F9003FF07BFF7A0379AF12190347
:013A0400229F
:103A05007D0E7C007FA8125B0D7E00900049EEF0D4
:103A1500A3EFF090008474FFF0A37400F0A3743159
:103A2500F0A3EEF0A3EFF07B017A00793F1218FDC9
:103A3500900049E07002A3E0701590008404F0A3A3
:103A45007400F0A3743FF07BFF7A047944801490EE
:103A550000847401F0A37400F0A3743FF07BFF7A37
:103A650004796D1219037BFF7A04798F1219037B90
:103A7500017A00793FE4FD124F6F7B017A00793FAF
:103A8500123CCC900049EEF0A3EFF0FB7D0E7C00DC
:103A95007FA81259627D0E7C007FA8125B0D7E0007
:103AA500900049EEF0A3EFF090008474FFF0A3744A
:103AB50000F0A37431F0A3EEF0A3EFF07B017A00E0
:103AC500793F1218FD900049E07002A3E07015904F
:103AD500008404F0A37400F0A3743FF07BFF7A0424
:103AE500794480149000847401F0A37400F0A374E9
:0B3AF5003FF07BFF7A04796D1219038B
:013B000022A2
:105482007BFF7A0479CB1219037B017A00793FE41E
:10549200FD124F6F7B017A00793F7D107C007FA85F
:1054A200124BC07B017A00793F7F107E001252EBD3
:1054B2009000847401F0A37400F0A3743FF07BFFAA
:0754C2007A0479ED021903E1
:1054C9007BFF7A0579051219037B017A00793FE49C
:1054D900FD124F6F7B017A00793F7D407C007FA8E8
:1054E900124BC07B017A00793F7F407E001252EB5C
:1054F9009000847401F0A37400F0A3743FF07BFF63
:075509007A05792202190363
:105510007BFF7A0579311219037B017A00793FE428
:10552000FD124F6F7B017A00793F7D507C007FA890
:10553000124BC07B017A00793F7F507E001252EB04
:105540009000847401F0A37400F0A3743FF07BFF1B
:075550007A057957021903E7
:105557007BFF7A0579691219037B017A00793FE4A9
:10556700FD124F6F7B017A00793F7D807C007FA819
:10557700124BC07B017A00793F7F807E001252EB8D
:105587009000847401F0A37400F0A3743FF07BFFD4
:075597007A05799602190361
:10559E007BFF7A0579AB1219037B017A00793FE420
:1055AE00FD124F6F7B017A00793F7DB07C007FA8A2
:1055BE00124BC07B017A00793F7FB07E001252EB16
:1055CE009000847401F0A37400F0A3743FF07BFF8D
:0755DE007A0579D3021903DD
:1055E5007BFF7A0579E31219037B017A00793FE4A1
:1055F500FD124F6F7B017A00793F7DF17C007FA81A
:10560500124BC07B017A00793F7FF17E001252EB8D
:105615009000847401F0A37400F0A3743FF07BFF45
:075625007A0579D302190395
:10562C007BFF7A06790B1219037B017A00793FE430
:10563C00FD124F6F7B017A00793F7D327C017FA890
:10564C00124BC07B017A00793F7F327E011252EB04
:10565C009000847401F0A37400F0A3743FF07BFFFE
:07566C007A067933021903ED
:105673007BFF7A0679431219037B017A00793FE4B1
:10568300FD124F6F7B017A00793F7D737C017FA808
:10569300124BC07B017A00793F7F737E011252EB7C
:1056A3009000847401F0A37400F0A3743FF07BFFB7
:0756B3007A06796B0219036E
:1056BA007BFF7A06797B1219037B017A00793FE432
:1056CA00FD124F6F7B017A00793F7DB47C017FA880
:1056DA00124BC07B017A00793F7FB47E011252EBF4
:1056EA009000847401F0A37400F0A3743FF07BFF70
:0756FA007A0679A3021903EF
:105701007BFF7A0679B31219037B017A00793FE4B2
:10571100FD124F6F7B017A00793F7DF57C017FA8F7
:10572100124BC07B017A00793F7FF57E011252EB6B
:105731009000847401F0A37400F0A3743FF07BFF28
:075741007A0679DB0219036F
:105748007BFF7A0679EB1219037B017A00793FE433
:10575800FD124F6F7B017A00793F7D367C027FA86E
:10576800124BC07B017A00793F7F367E021252EBE2
:105778009000847401F0A37400F0A3743FF07BFFE1
:075788007A077913021903EF
:103F55007BFF7A0779231219037BFF7A07796612AB
:103F650019037BFF7A0779A91219037BFF7A077971
:103F7500E81219037BFF7A0879431219037BFF7A4C
:103F85000879801219037BFF7A0879BD1219037B22
:103F9500FF7A0979031219037BFF7A09794312190C
:103FA500037BFF7A09798C1219037BFF7A0979BDA6
:103FB5001219037BFF7A0979ED1219037BFF7A0A3F
:103FC50079251219037BFF7A0A795E1219037BFFA3
:103FD5007A0A79A21219037BFF7A0A79E612190384
:103FE5007BFF7A0B792A1219037BFF7A0B796F1203
:103FF50019037BFF7A0B79B41219037BFF7A0B79CE
:10400500F91219037BFF7A0C793D1219037BFF7AAC
:064015000C79730219038F
:102850007BFF7A0C79AA1219037BFF7A0C79D512C7
:102860001903125F07124F671258E390000EEBF046
:10287000A3EAF0A3E9F0900084E4F0A37400F0A3CD
:102880007422F07BFF7A0C79E3121903900084E440
:10289000F0A37400F0A374A2F07BFF7A0D7901120B
:1028A000190312581CEF70B17BFF7A0D791F1219B2
:1028B000037B017A00792B7D01124F6F1258E39050
:1028C000000EEBF0A3EAF0A3E9F078B57C007D01FF
:1028D0007BFF7A0D792E12180412581CEF70C90272
:1028E0002A62125E0E124F671258E390000EEBF050
:1028F000A3EAF0A3E9F012000E90000E12498B90AB
:102900000011EBF0A3EAF0A3E9F012000E90001121
:1029100012498B900014EBF0A3EAF0A3E9F09000C9
:1029200011E0FBA3E0FAA3E0F9EA494B60171214A7
:1029300050B42F1178177C007D01900011A3A3E003
:10294000121804803D900011E0FBA3E0FAA3E0F927
:10295000EA494B602D78177C007D017B017A007974
:10296000BE121804900011E0F9A3E0FAA3E0900071
:1029700065C9F0A3EAF0A3E9F07B017A00791712A8
:1029800051B690000EE0FBA3E0FAA3E0F9EA494B50
:1029900070030228E2125289EFB416004003022AA3
:1029A000689029A8F82828730229EA0229F0022948
:1029B000F60229FC022A02022A08022A0E022A141E
:1029C000022A1A022A20022A26022A2C022A32026B
:1029D0002A38022A3E022A44022A4A022A50022A9D
:1029E00056022A5C022A62022A891243DD0228E288
:1029F0001242630228E21243200228E212306702E8
:102A000028E21236150228E21237110228E21238A3
:102A10000D0228E21239090228E2123A050228E2E0
:102A20001254820228E21254C90228E212551002FE
:102A300028E21255570228E212559E0228E212554A
:102A4000E50228E212562C0228E21256730228E20E
:102A50001256BA0228E21257010228E2125748021F
:102A600028E2123F550228E290000EE0F9A3E0FAB6
:102A7000A3E0900084C9F0A3EAF0A3E9F07BFF7A19
:092A80000D79351219030228E258
:012A8900222A
:105EE8002D30732D002D31313131312E00256400D4
:0B47CE0090000EEBF0A3EAF0A3E9F06E
:1047D9009000137401F0A374F4F0125F82E4900066
:1047E90012F0C286900011F0C2B2900013E0FEA34D
:1047F900E0FF20B35B900011E07055900013E0FEDC
:10480900A3E0FFEF1F70011EEF4E70059000110429
:10481900F030B406900011E060E920B43390001143
:10482900E0702D90000EE0FBA3E0FAA3E0F9E5A00B
:10483900121496900012E004F090000FE475F00154
:104849001214CA900013E0FEA3E0FF30B4FD80A269
:0C485900D2B2D286125F74900012E0FF11
:014865002230
:0E44930090003DEBF0A3EAF0A3E9F0A3EDF0FA
:1044A100900046F0D2B2D2B4C286E4900045F0C288
:1044B100B290004112152600004E2030B349900001
:1044C10045E07043C2B2D2B4900041E0FCA3E0FDEC
:1044D100A3E0FEA3E0FFEF24FFFFEE34FFFEED3487
:1044E100FFFDEC34FFFC90004112151A900041E0F1
:1044F100FCA3E0FDA3E0FEA3E0FFEC4D4E4F70BB3B
:10450100A304F0C28280B4900045E0702920B32654
:1045110090003DE0FBA3E0FAA3E0F9121450F5A0EE
:10452100125E8290003EE475F0011214CA900040C0
:10453100E014F0E070DA75A0FFD2B2D2B4D2867F77
:06454100627E00025E4CE8
:102F1F00900017EDF0900014EBF0A3EAF0A3E9F0A6
:102F2F0090003C7402F090001EF0A37473F0E4A3C1
:102F3F00F012000E90003CEFF0900014E0F9A3E0C7
:102F4F00FAA3E0900040C9F0A3EAF0A3E9F0A3E4EC
:102F5F00F0A3EFF07B017A00791E12401B90006501
:102F6F0074FFF0A3745EF0A374E8F07B017A00792C
:102F7F001E1251B67F8D124905125D86EF243090D7
:102F8F000018F07F89124905125D86EF24309000FA
:102F9F0019F07F87124905125D86EF243090001AD1
:102FAF00F07F85124905125D86EF243090001BF0EB
:102FBF007F83124905125D86EF243090001CF0E4E8
:102FCF00A3F07B0190006504F0A37400F0A37418C4
:102FDF00F07A00791E1251B690006574FFF0A37459
:102FEF005EF0A374EDF07B017A00791E1251B6905A
:102FFF000017E0A3F0E4A3F07B0190006504F0A3B9
:10300F007400F0A37418F07A00791E1251B67B0188
:10301F007A00791E12000E90003CEFF0E0241EF5AE
:10302F0082E43400F5837403F0C2B230B3FD7B0148
:10303F007A00791E90003CE004FD124493125F3435
:10304F007B017A00791E90003CE004FD90004174F2
:08305F0001F01250D4025F34AD
:105E8200C2B47F287E00125E4CD2B47F287E00020C
:025E92005E4C64
:064C4A0090001DEFF0FBDD
:104C5000D2B4C286E4A3F0A312152600003A988BC2
:104C6000A0C2B230B34390001EE0703DA3E0FCA3AD
:104C7000E0FDA3E0FEA3E0FFEF24FFFFEE34FFFE24
:104C8000ED34FFFDEC34FFFC90001F12151A90006C
:104C90001FE0FCA3E0FDA3E0FEA3E0FFEC4D4E4FC0
:104CA00070C190001E04F080BA90001EE0700C20CD
:104CB000B30990001DE0F5A0125E82D2B2D2B4D248
:104CC0008675A0FF7F627E00125E4C7F627E0002CE
:024CD0005E4C38
:0A5F2100D2B4D2B2D28675A0FF22DE
:105BA7009000107402F0A37469F07B017A007912F7
:105BB7001240E07F8B124905900018EFF0A37403A1
:0C5BC700F07B017A0079107D0A02449303
:1033F900E4900020F09000107402F0A37444F0905F
:10340900008474FFF0A3745EF0A374F5F090015981
:10341900E0FFA3E0900087CFF0A3EFF07B017A00F3
:10342900791B1218FD90001F7402F0900020E0240F
:103439001BF582E43400F583E0FF601790001FE07C
:103449002410F582E43400F583EFF0900020E004C5
:10345900F0801890001FE02410F582E43400F58311
:10346900743BF090001FE004F0800890001FE00416
:10347900F080B890008474FFF0A3745EF0A374F533
:10348900F0900155E0FFA3E0900087CFF0A3EFF0A3
:103499007B017A00791B1218FDE4900020F090005E
:1034A90020E0241BF582E43400F583E0FF601790E7
:1034B900001FE02410F582E43400F583EFF090005A
:1034C90020E004F0801890001FE02410F582E43415
:1034D90000F583743BF090001FE004F08008900031
:1034E9001FE004F080B890001FE0FD2410F582E48D
:1034F9003400F5837403F07B017A00791002449358
:105343004461746F73204D46207265737075657385
:1053530074613A20004461746F73204D4620456E9A
:10536300766961646F733A20002F2A2D2D2D2D2D20
:105373002D2D2D2D2D2D2D2D2D2D2D2D2D2D2D2D5A
:105383002D2D2D2D2D2D2D2D2D2D2D2D2D2D2D2D4A
:075393002D2D2A2F0D0A0049
:065D4700AE07EEC313FEDF
:105D4D00E4FFEFD3940774809480500D00000000A1
:095D5D000000000000000F80E9C5
:015D6600221A
:105DDB00E4FFEFD3940474809480500D0000000016
:095DEB000000000000000F80E937
:015DF400228C
:02543A00AE07BB
:10543C00C2AFC290125D4D0000AD06EE5401FE707D
:10544C0004C2908002D290125D4D7C01ECD3940783
:10545C00748094805015EDC313FD5401FE7004C28A
:10546C00908002D290125D4D0C80E1D290125D4D75
:05547C00125D4DD2AFEE
:015481002208
:02578F00AB0766
:10579100900149E06401703CEB54F0C4540FFFD315
:1057A100940974809480400674372FFF800474300C
:1057B1002FFF12543AEB540FFFD394097480948055
:1057C100400674372FFF800474302FFF12543A7F44
:0457D1002012543A14
:0157D50022B1
:0E50D40090003DEBF0A3EAF0A3E9F0A3EDF0AD
:1050E200900149E06401705C900041E0FF3395E07B
:1050F200FEEF4E7BFF60067A53794380047A537940
:10510200581259DFE4900042F0900040E0FF900016
:1051120042E0C39F502490003DE0FBA3E0FAA3E0ED
:10512200F9121450FF12578F90003EE475F00112ED
:1051320014CA900042E004F080CF7F0D12543A7FEF
:045142000A12543ABF
:015146002246
:0B59DF00900043EBF0A3EAF0A3E9F016
:1059EA00E4A3F0900149E064017027900046F0902A
:1059FA000043E0FBA3E0FAA3E0F9A3E0F582758394
:105A0A0000121469FF600B12543A900046E004F049
:025A1A0080DD2D
:015A1C002267
:095F34007BFF7A53796C0259DFFE
:104CD2007EFF125DDB125D4D208005747FFF800434
:104CE200EE4480FF125D47EE208005547FFF800373
:104CF2004480FF125D47EE208005547FFF8003440D
:104D020080FF125D47EE208005547FFF80034480C0
:104D1200FF125D47EE208005547FFF80034480FF31
:104D2200125D47EE208005547FFF80034480FF120E
:104D32005D47EE208005547FFF80034480FF125DB3
:104D420047EE208005547FFF80034480FFAE0712A8
:074D52005D4D3080FDAF064E
:014D59002237
:055F7900D290D280224D
:0E45E600010B00010C00010900010A00C10BCD
:03002300024D5A31
:104D5A00C0E0C083C082C0D075D000C000C006C009
:014D6A000741
:104D6B00309845C298859908C3E509950AFFE494E4
:104D7B0000FEEF54804E7018E509547F2422F8A6EC
:104D8B0008050974222509F87600900147E004F024
:104D9B00E508B4240890015B7402F0800BE508B4BD
:104DAB003C0690015B7401F030991AC299E50B65D2
:104DBB000C6010E50C540124A2F8E6F599050CC221
:054DCB000B8002D20B79
:0F4DD000D007D006D000D0D0D082D083D0E03230
:105BD300D310AF01C3C0D0125C25E4F50BF50CF56F
:105BE30009F50AC29FD29EC29DD29CC298C299D285
:0A5BF3000BD2ACD2BCD0D092AF228E
:105C2500D310AF01C3C0D0C299E4F50BF50CC28EF9
:105C3500C2AB43878053890F438920758DF4758BDB
:085C4500F4D28ED0D092AF2200
:105AD200D310AF01C3C0D09000B4EFF0125EA6C3E2
:105AE200EF94027480948040047FFF80199000B488
:105AF200E0FFE50B540124A2F8A607050B300B04C6
:0B5B0200C20BD2997F00D0D092AF22DE
:105C9B00D310AF01C3C0D0125E94EF70067EFF7FAE
:105CAB00FF800EAF0A050AEF547F2422F8E6FF7E31
:065CBB0000D0D092AF22E0
:105E9400D310AF01C3C0D0C3E509950AFFD0D09297
:025EA400AF222B
:105EA600D310AF01C3C0D0C3E50B950CFFD0D09281
:025EB600AF2219
:0E5F0700E4F50BF50CF509F50AC298C29922D3
:105C74004C4956450A006F70656E206261727272FB
:105C84006572610A00477261626163696F6E2053D5
:075C9400657269653A20000A
:0E1D1B0090000EEBF0A3EAF0A3E9F0A3EDF0C8
:101D29006419704490000EE0FBA3E0FAA3E0F912F5
:101D390014506402703290000212146964487028C9
:101D4900900011E07E0024FFF582EE34FFF5831246
:101D590014696403701290000EA3A3E02403F9E44C
:101D69003AFA124A1B025B4690000EE0FBA3E0FA26
:101D7900A3E0F912145064B67033900146E0C3949D
:101D8900147480948040107FB61225EDC282E490CD
:101D99000146F0C297C283900149E06003022031F5
:101DA900900148E064016003022031803E90000EFA
:101DB900E0FBA3E0FAA3E0F912145064AA70409082
:101DC9000146E0C39414748094805003022031E4E6
:101DD900F0C297D282C283900149E06003022031A8
:101DE900900148E06401600302203190014904F048
:101DF9007BFF7A5C79741259DFE4900149F02290F3
:101E09000011E0FF6413703290000EE0FBA3E0FACA
:101E1900A3E0F912145064027020900001121469B1
:101E2900B44F177E0074FF2FF582EE34FFF583124D
:101E39001469640370047FFE8071900011E0FF64EF
:101E490013704C90000EE0FBA3E0FAA3E0F9121422
:101E5900506402703A90000112146964567030FEA1
:101E690074FF2FF582EE34FFF58312146964037051
:101E79001E7BFF7A5C797A1259DFE4900011F0D267
:101E890097900146740AF07FA1124C4A02202590CE
:101E99000011E06401701790000EE0FBA3E0FAA3C3
:101EA900E0F912145064A170057FE70225ED900056
:101EB90011E0FF64066003021FB790000EE0FBA368
:101EC900E0FAA3E0F912145064026003021FB7900C
:101ED900000112146964576003021FB7FE74FF2FD3
:101EE900F582EE34FFF58312146964036003021F5F
:101EF900B7900148E06401705F90000EA3A39000C1
:101F090002121469FD7B017A00791212539A90002A
:101F1900157420F090000EE0FBA3E0FAA3E0F9901D
:101F29000003121469FD90000EA3A390000412147B
:101F390069900021F07B017A00791612231D7B013B
:101F49007A0079127FB0124E63125147EF60FA7B23
:101F5900017A007912023E7F90000EE0FBA3E0FABD
:101F6900A3E0F9900002121469FD7B017A0079124D
:101F790012539A9000157420F090000EE0FBA3E034
:101F8900FAA3E0F9900003121469FD90000EA3A3CF
:101F9900900004121469900021F07B017A007916EF
:101FA90012231D7B017A0079127FB0024E639000E3
:101FB90011E0FF640C705390000EE0FBA3E0FAA35C
:101FC900E0F912145064027041FE74FF2FF582EE9D
:101FD90034FFF5831214696403702F90000EA3A3D4
:101FE900E02401F9E43AFA125ED87BFF7A5C798938
:101FF9001259DF90000EE0FBA3E0FAA3E0F9A3E099
:10200900FD9000417401F00250D490000EE0FBA352
:10201900E0FAA3E0F912145064AB700C9001457416
:0820290037F09001507404F03F
:01203100228C
:1031A5000D0A5665686963756C6F20656E20656CE0
:1031B500206C6F6F700D0A005665686963756C6FDA
:1031C500206E6F20656E20656C206C6F6F700D0A28
:1031D5000D0A007472616D612064656C206C656315
:1031E500746F7220646174616C6F67696320636FCB
:1031F50064205152000D0A007472616D612064658E
:103205006C206C6563746F7220646174616C6F67A8
:10321500696320636F642062617272617300747206
:10322500616D612064656C206C6563746F722064E8
:103235006174616C6F676963206E6F20657374617B
:1032450020636F6D706C6574610D0A00636F642097
:1032550062617272617300636F6420515220720A59
:1032650000436172726F007469706F206465207627
:1032750065686963756C6F3A20006C6F6E67697479
:103285007564206465206C61207472616D613A20FB
:103295000D0A0066696E206465206C65637475723D
:1032A50061206465207472616D610D0A00524545A7
:1032B5004E564941205452414D412050544F2050C3
:0B32C5004152414C454C4F0D0A2000C7
:0445F40041015C0025
:105CC100E4FF121450FDC3943074809480400AD3D1
:105CD100ED943974809480400A740129F9E43AFA08
:035CE1000F80DF52
:015CE400229D
:105E3900E4FF1214506D600A740129F9E43AFA0F6B
:025E490080F0E7
:015E4B002234
:10203200900150E014606514700302215F14700374
:102042000221941470030222C31470030222F124A9
:102052000560030222EB900145E064016003022364
:102062001CC297125147EF60227BFF7A3179A51289
:1020720059DF7FFE1225ED90015CE0700B7FA0120C
:102082004C4A90015C7401F00222B67BFF7A3179EE
:10209200BD1259DFE490015CF0022156900145E047
:1020A2006401600990015BE0700302231C90015BF4
:1020B200E0640170227BFF7A3179D81259DF7B000C
:1020C2007A0079221259DF7BFF7A3179FA1259DFCD
:1020D2009001507403F02290015BE064027060781A
:1020E2005D7C017D01FB7A0079221218047B007A63
:1020F20000792212000E90000EEFF0E0FF245CF552
:1021020082E43401F583E4F0D3EF940A748094807E
:10211200400B125F077FFE1225ED0222B67BFF7A8B
:102122003179FD1259DF7B017A01795D1259DF7B2A
:10213200FF7A3179FA1259DF9001507402F02212BB
:102142005F07E490015CF090015BF07BFF7A3279EB
:10215200231259DF9001457403F00222EB7BFF7AD0
:102162003279511259DFE490015BF0900010744310
:10217200F07B017A01795DFD122F1F900148E0602A
:102182000E7B017A01795D900010E0FD123B0102A5
:102192002310C2AC7BFF7A32795C1259DFE49001E2
:1021A2005BF0FB7A007922125CC190000EEFF02402
:1021B20022F9E4FA7D3E125E3990000FEFF09000B2
:1021C2001774FFF0A37432F0A37466F07A007922D8
:1021D2001241A4900011EBF0A3EAF0A3E9F04A90B7
:1021E200001060057443F08003744DF07BFF7A3277
:1021F200796C1259DF900010E0FF12578F7BFF7A43
:102202003179FA1259DF7BFF7A32797F1259DF90E6
:10221200000EE0FF12578F7BFF7A3179FA1259DFF5
:1022220090000FE0FF12578F7BFF7A3179FA125933
:10223200DFE490015DF090000EE0FF640C706B74BF
:10224200222FF9E4FB900017F0A3CBF0A3E9F09062
:10225200000FE0FF90001AE4F0A3EFF07B017A0197
:10226200795D12522190000FE0245DF582E4340181
:10227200F583E4F07B017A01795D1259DF7BFF7A05
:102282003179FA1259DF7B017A01795D900010E011
:10229200FD122F1F900148E0600E7B017A01795DEB
:1022A200900010E0FD123B018064D2AC125F077F08
:1022B200FE1225ED90014574C8F09001507401F0B2
:1022C20022900145E064017051D2AC7BFF7A3279F1
:1022D200981259DF7FFF1225ED9001457403F01229
:1022E2005F07E490015CF08001E4900150F02290DD
:1022F2000145E0640170237BFF7A3279B21259DF23
:102302007B017A01795D900010E0FD122F1F900190
:0A231200457437F09001507404F098
:01231C00229E
:100D5A00021002E86480F8E933E83360110460F0B5
:100D6A00ED33EC337009E8FCE9FDEAFEEBFF2204FF
:100D7A0060DED3EB9FEA9EE99DE8C2E78CF0C2F7FA
:100D8A0095F0400CE8CCF8E9CDF9EACEFAEBCFFBC6
:100D9A00120FCD85D0F05804700320D5B3E8047043
:100DAA00075002B2D502100C92D5EC0460F7E4CCDD
:100DBA00C0E0C398F8603B94186008400DD0E0FB8F
:100DCA00020FE4E4FBFAC9FC8028E830E406E4C92F
:100DDA00FBE4CAFCE830E305E4C9CACBFCE85407E3
:100DEA006010F8C3E913F9EA13FAEB13FBEC13FCEE
:100DFA00D8F130F52FC3E49CFCEF9BFFEE9AFEED91
:100E0A0099FDD0E0FBEF4E4D4C701222DB0302102D
:100E1A0009EC2CFCEF33FFEE33FEED33FDED30E74A
:100E2A00EB020FE4EF2BFFEE3AFEED39FDD0E0FBCB
:100E3A0050130BBB000302100CED13FDEE13FEEF73
:080E4A0013FFEC13FC020FE49E
:100E5200EC4D6011E8497017ED33EC3304600DE49A
:100E6200FCFFFEFD22E933E8330470F8021002129F
:100E72000FCD58046009E4CC2481500628500902A1
:100E8200100C284003021009C0E0EB4A7044B980FC
:100E920006D0E0FB020FF8EF4E701CBD8008EBFF9E
:100EA200EAFEE9FD80EBE98DF0A4FEE5F0020F3BDE
:100EB200E9CDF9EAFEEBFFEF89F0A4FCE5F0CE897B
:100EC200F0A42EFFE435F0CD89F0A42DFEE435F038
:100ED2008067EF4E7005BD80D780C3EF8BF0A4AC66
:100EE200F0EE8BF0A42CFCE435F0F8EF8AF0A42CA1
:100EF200E5F038FCE433CB8DF0A42CFCE5F03BF8B4
:100F0200EE8AF0A42CFCE5F038F8E433CF89F0A4A3
:100F12002CFCE5F038CF3400CE89F0A42FFFE5F0A9
:100F22003EFEE433C98DF0A42EFEE5F039CD8AF001
:100F3200A42FFFE5F03EFEE43DFD33D0E0FB500779
:100F42000BBB000F02100CEC2CFCEF33FFEE33FE58
:060F5200ED33FD020FE487
:100F580075F020800E75F010800575F0087D007E14
:100F6800007F003392D530D5031214E0EC334010E3
:100F7800EF33FFEE33FEED33FDEC33FCD5F0ED221D
:0E0F8800E5F0247EA2D513CC92E7CDCEFF2259
:100F9600EDD2E7CD33EC3392D524814006E4FFFE53
:100FA600FDFC22FCE4CFCECDCC24E0501174FF80B2
:100FB600EDC3CC13CCCD13CDCE13CECF13CF04704F
:070FC600F030D5DE0214E05B
:10189800E50D2484F582E43400F583E0050D2290FB
:1018A8000081300703900084E475F0011215570297
:1018B80014502000E97F2ED2008018EF540F249096
:1018C800D43440D4FF30040BEF24BFB41A005003C3
:1018D8002461FFE50E6002150E0511E51170020581
:1018E8001030070E900081E475F001121557EF02D1
:1018F80014960259A17403D2078003E4C207F50DB8
:1019080090008112156EE4F50EF510F511E50E60E4
:10191800077F201218DB80F5750FFFC201C200C2D5
:1019280002C203C205C206C2081218A7FF700D3012
:1019380007057F001218ECAF11AE1022B4255FC264
:10194800D5C2041218A7FF24D0B40A00501A75F0A3
:101958000A780E30D50508B6FF0106C6A426F6207B
:10196800D5047002D20380D924CFB41A00EF5004F2
:10197800C2E5D204021BDED20180C6D20080C0D2EA
:101988000280BCD2D580BAD20580B47F201218DB81
:101998002002077401B50E0040F1121898FF1218C2
:1019A800DB021915D208D2068095121898FB121876
:1019B80098FA121898F94A4B700679DC7A1C7BFF62
:1019C80020022EE50E602A7E008E82758300121496
:1019D8006960060EEE650F70F0C2D5EBC0E0EAC094
:1019E800E0E9C0E0EE121C3FD0E0F9D0E0FAD0E028
:1019F800FB121450FF60AAEBC0E0EAC0E0E9C0E0C7
:101A08001218DBD0E02401F9D0E03400FAD0E0FB72
:101A1800E50F0460DCD50FD98087D20280A2121CA2
:101A28002160F7E50F7001041210BBA90F600DE5E6
:101A38000F600914F50F121CC9EF60F3EA30E702D2
:101A4800F404C3995079EAF4250F0430E701E4045B
:101A5800F50F800D121C2160C1EA050F250F121029
:101A6800BBEA9000B0F030E701E4250F04D50F047D
:101A780020050114121C3FE4C0E0121CC99000B0FC
:101A8800E0601320E70714F01218C3802204F0D096
:101A9800E014C0E07F001218C3E50F60071218BAFF
:101AA800150F800B3005031218BAD0E0021915D0B3
:101AB800E00480C4121C21609EE50F041210BB9044
:101AC80000B0EAF0E50F2005026001042404121CAE
:011AD8003FCE
:101AD90074FF04C0E0121CC91218C3E50F200502E7
:101AE90060031218BAD0E0B50FE87F451218CD90FF
:101AF90000B0E07F2B30E7047F2DF404C0E012181A
:101B0900DBD0E075F00A84C0F01218C4D0E01218D6
:101B1900C4021915791080027908C206C208800822
:101B2900D2D5790A8004790AC2D5E50F047002F585
:101B39000FE4FAFDFEFF121898FC7B08200113122E
:101B49001898FD7B1030000A121898FE121898FF99
:101B59007B20EC3382D592D55013C3E43000069F25
:101B6900FFE49EFEE42001039DFDE49CFCE4CBF828
:101B7900C201EC700CCFCECDCCE824F8F870F3801C
:101B890017C3EF33FFEE33FEED33FDEC33FCEB33DC
:101B9900FB994002FB0FD8E9EB300105F8D0E0C40E
:101BA90048B201C0E00AEC4D4E4F78207B0070C26C
:101BB900EAB50F0040BCC0E0121C41D0F0D0E020D3
:101BC9000104C4C0E0C4B201C0F01218C4D0F0D5F9
:101BD900F0EB02191512157719B2531B1D58198309
:101BE9004C197F421B214F1B29441B294919984332
:101BF9001B2F551A5C461ABC451A26471CFC50195E
:101C0900872D198B2E19AE2B198F2319AC201CE5A2
:101C19002A194748000019A6E50FB4FF03750F06F6
:101C2900121898FC121898FD121898FE121898FFAD
:101C39009000A90210F8790AA2D5200314300509E9
:101C4900B910020404B9080104A2D5200602500102
:101C5900042002689202B50E005034C0E07F2030A3
:101C690003197F30A20272067205500F121C98C226
:101C790002C206C205C2087F30800F300503E9C0E1
:101C8900E01218DB300503D0E0F9D0E0B50ECC3016
:101C990005177F30B9100C1218DB7F583004077F05
:101CA900788003B908031218DB3002057F2D02186A
:101CB900DB7F202008F87F2B2006F322920280CFB9
:101CC9007F00B40700500B24A9F582E43400F583A2
:101CD900E0FF22286E756C6C2900D2011218983029
:101CE90001F8C201780E30D50108F60219472D50C6
:101CF9004349581218982403B405004001E4901C84
:101D0900F7931218CC743A1218CCD203750E040248
:021D19001B1D90
:102C620090002912151AE4FFFE7D807C3F90002916
:102C7200E0F8A3E0F9A3E0FAA3E0FB12103170063A
:102C8200900029022DBC900029E0FCA3E0FDA3E006
:102C9200FEA3E0FF121017FBA3E0FCA3E0FDA3E0FC
:102CA200FEA3E0FF121017FFB40108E4FFFE7D80CF
:102CB2007C3F22EF64046029EB64046024EBB401DE
:102CC20030E4FFFEFDFC90002DE0F8A3E0F9A3E064
:102CD200FAA3E0FB12103160084006E4FFFEFDFC9F
:102CE2002290002D121526FFFFFFFF90002D022DCE
:102CF200BCE4900031F0A3F0FFFEFDFC900029E05F
:102D0200F8A3E0F9A3E0FAA3E0FB121031505F90C0
:102D1200002DE0FCA3E0FDA3E0FEA3E0FF120F966E
:102D2200900031EEF0A3EFF0FDCCEECCEC120F5D93
:102D3200C8ECC8C9EDC9CAEECACBEFCB90002DE0F2
:102D4200FCA3E0FDA3E0FEA3E0FF120D5DE4FBFAAD
:102D5200F9F8121031708A900029E0FCA3E0FDA37B
:102D6200E0FEA3E0FF1210AA90002912151A9000AB
:102D720029E0FCA3E0FDA3E0FEA3E0FF12330490F0
:102D8200002DE0F8A3E0F9A3E0FAA3E0FB120E5253
:102D920012476C90002D12151A900032E030E017A5
:102DA20090002DE0FCA3E0FDA3E0FEA3E0FF1210E3
:102DB200AA90002D12151A90002DE0FCA3E0FDA3AD
:062DC200E0FEA3E0FF2289
:100FCD00E9D2E7C933E833F892D5EDD2E7CD33EC6A
:070FDD0033FC5002B2D522E3
:100FE400EC30E7100FBF000C0EBE00080DBD00046E
:100FF4000BEB6014A2D5EB13FCED92E7FD2274FF1A
:10100400FCFDFEFF22E480F8A2D574FF13FC7D8072
:03101400E480EF86
:10101700ED33EC33601004700FED547F70057402EC
:0A10270092E0227404220422E42265
:1010310074F8CC6480CCC86480C8F58204604FC366
:10104100EB9FF5F0EA9E42F0E99D42F0E89C45F005
:10105100603C501DE5825FFFE582D313CB5BCBF48F
:101061002B5582FB50280ABA002409B900200880B8
:101071001DE5825BFBE582D313CF5FCFF4C3132F52
:101081005582FF50090EBE00050DBD00010CC3EBDA
:101091009FF5F0EA9E42F0E99D42F0E89C45F06040
:0910A10007CC4820E701B3EC2262
:1010AA00ED33EC33600A047003BD8004ECB2E7FC54
:0110BA002213
:1010BB00F920E73624F950037907E4F42402FBE521
:1010CB0082158270021583DBF6E024FB501BE9606E
:1010DB0014E4F0E582158270021583E004F0B40A83
:0D10EB0008E4F0D9EE7401F00A22C2D5220B
:1010F800ED33EC3392D5FA602AB4FF33EDC2E77BC7
:10110800FF60067A11791DE4227A11792620D50428
:101118007A117921224E614E002B494E46002D4905
:101128004E4600E47A08F0A3DAFC7B00740722C07C
:1011380083C082ECC0E0EDC0E0EEC0E0EFC0E0EAC2
:1011480075F010A4CAABF075F04DA42BFBE435F094
:10115800FCEA2410FAEB34C5FBEC34D9FCEDC2E709
:10116800FF75F056A4F42411C5F0F434C58FF0A42B
:101178002AE5F03BE43CF020E7141212CDD0E0FF62
:10118800D0E0FED0E0FDD0E0FC1212008014F404A0
:101198001212CDD0E0FFD0E0FED0E0FDD0E0FC128E
:1011A8000E52D082D083E0FAEDD2E7CD33EC33246F
:1011B80082FBE4C3CF33CFCE33CECD33CD33DBF395
:1011C8007B0775F00A846004F0A31B0AE5F0F0A31E
:1011D8008FF0740AA4FFACF08EF0740AA42CFEAC55
:1011E800F050010C8DF0740AA42CFDE435F0F0A346
:0511F800DBDE7407229C
:1047340033DA929E35B16011377FE5FE39218489E1
:104744003AAEC3FF3C1D955B3D6358473E75FDF093
:104754003F3172183F800000C2D502100C021002D3
:10476400BD80FA50F3021009ED33EC330460F17BA1
:104774003B7AAA79B8783F120E52ED33EC3392D5D6
:10478400247B5011A2D570DB500BED4480240450DF
:1047940004A2D580CEEFFBEEFAEDF9ECF8120F96F9
:1047A400EFF582F404FC120F62120D61C08290478F
:1047B40034740912131CED33CC33D0F092D525F0A8
:0A47C400A2D57001C313CC13FD222F
:1032D0003E9248DA3ECCCCCD3F2AAAAB400000005B
:1032E0003F8000003F9837F03FB504F33FD744FCE0
:1032F0003E3172173EB172173F0515913EDE5BD924
:10330000D2008002C200EDD2E7F8CD33EC33047076
:103310000BBD800592D502100C02100240FBD314A5
:1033200060F2F5F07C3FEE7A00C39496C8948B402F
:10333000230AC89469C8941A401A0AC89468C894A1
:103340001F40110AC8945AC89425400805F07A0015
:10335000CDC2E7CDC0F090003312151AEA2323C086
:10336000E024E0F582E43432F58312150A120D618F
:10337000ECC0E0EDC0E0EEC0E0EFC0E01214EE9073
:1033800000331214FE120D5DD0E0FBD0E0FAD0E065
:10339000F9D0E0B2E7F812120090003312151A903B
:1033A00032D0740312130D9000331214FE120E5219
:1033B000D0E0600F24ECF582E43432F58312150A74
:1033C000120D6190003312151AD0E0C3947FFDE412
:1033D0009400FC120F5D7B187A727931783F120EDF
:1033E000529000331214FE120D6130000B7BD97A1B
:0933F0005B79DE783E120E5222D8
:1011FD0002100CEC5D046005E85904700302100246
:10120D00120FCD580460F6EC4860F2EC7004FDFE50
:10121D00FF22C860DB2481C85009C39860025006C4
:10122D000210099850CAF582E9294B4A7005AB8224
:10123D00020FF875F0007C1A7880C3EF9BEE9AEDE3
:10124D0099400DC3EF9BFFEE9AFEED99FDE842F03C
:10125D00DC23ACF0D0E0FFD0E0FED0E0FDAB82208F
:10126D00E7101BEB60BAEC2CFCEF33FFEE33FEED19
:10127D0033FD020FE4E803F830E705C0F075F00028
:10128D00EF2FFFEE33FEED33FD40B830E7C280AAFD
:10129D003F8000004120000042C80000447A000059
:1012AD00461C400047C35000497424004B189680DB
:1012BD004CBEBC205A0E1BCA6753C21C749DC5AED2
:1012CD00FB60065407601C23231212FBEB5438609D
:1012DD00091212E71212F6120E52ECF8EDF9EEFAAF
:1012ED00EFCB22EB1212F680F1543803241C90122E
:1012FD009DFE93FC0EEE93FD0EEE930ECE93FF220C
:10130D00C0E0EFFBEEFAEDF9ECF8120E52D0E0F57D
:10131D00F0EFFBEEFAEDF9ECF81214EEA3A3A3A394
:10132D00E8C0E0E9C0E0EAC0E0EBC0E0C0F0120EBA
:10133D005212150AA3A3A3A3120D61D0F0D0E0FBA6
:0D134D00D0E0FAD0E0F9D0E0F8D5F0D422DD
:03000000024AAA07
:0C4AAA00787FE4F6D8FD7581AB024AF17C
:10135A00E709F608DFFA8046E709F208DFFA803E75
:10136A0088828C83E709F0A3DFFA8032E309F60862
:10137A00DFFA8078E309F208DFFA807088828C83CA
:10138A00E309F0A3DFFA806489828A83E0A3F6087E
:10139A00DFFA805889828A83E0A3F208DFFA804C58
:1013AA0080D280FA80C680D4806980F2803380102F
:1013BA0080A680EA809A80A880DA80E280CA803398
:1013CA0089828A83ECFAE493A3C8C582C8CCC58310
:1013DA00CCF0A3C8C582C8CCC583CCDFE9DEE780E0
:1013EA000D89828A83E493A3F608DFF9ECFAA9F05F
:1013FA00EDFB2289828A83ECFAE0A3C8C582C8CCB5
:10140A00C583CCF0A3C8C582C8CCC583CCDFEADECD
:10141A00E880DB89828A83E493A3F208DFF980CC2F
:10142A0088F0EF60010E4E60C388F0ED2402B40428
:10143A000050B9F582EB2402B4040050AF232345CF
:06144A0082239013AA7337
:10145000BB010689828A83E0225002E722BBFE029A
:09146000E32289828A83E49322CD
:10146900BB010CE58229F582E5833AF583E0225038
:1014790006E92582F8E622BBFE06E92582F8E22282
:0D148900E58229F582E5833AF583E493229C
:10149600BB010689828A83F0225002F722BBFE0135
:0214A600F3222F
:1014A800F8BB010DE58229F582E5833AF583E8F07A
:1014B800225006E92582C8F622BBFE05E92582C826
:0214C800F2220E
:1014CA00C5F0F8A3E028F0C5F0F8E58215827002AD
:0614DA001583E038F0224A
:0E14E000C3E49FFFE49EFEE49DFDE49CFC221D
:1014EE00E493FC740193FD740293FE740393FF2244
:0C14FE00E0F8A3E0F9A3E0FAA3E0FB2271
:10150A00E493F8740193F9740293FA740393FB2237
:0C151A00ECF0A3EDF0A3EEF0A3EFF02244
:10152600A8828583F0D083D08212153D12153D1214
:10153600153D12153DE473E493A3C583C5F0C58339
:10154600C8C582C8F0A3C583C5F0C583C8C582C80F
:011556002272
:10155700F8E0FBA3A3E0F925F0F0E582158270021D
:071567001583E0FA38F022C1
:09156E00EBF0A3EAF0A3E9F0227E
:10157700D083D082F8E4937012740193700DA3A303
:1015870093F8740193F5828883E473740293686017
:06159700EFA3A3A380DF17
:1051B600900062EBF0A3EAF0A3E9F0900068EBF050
:1051C600A3EAF0A3E9F0900062E0FBA3E475F00126
:1051D600121833A9F0FA12145070EB90006374FFA2
:1051E600F5F01214CA900065E0FBA3E475F0011215
:1051F6001833A9F0FA121450FF900062E0FBA3E402
:1052060075F001121833A9F0FAEF12149670D690C1
:0B5216000068E0FBA3E0FAA3E0F9222F
:10401B0090003DEBF0A3EAF0A3E9F0E4900045F04B
:10402B00A3F0D3900044E09400900043E0648094AC
:10403B008050030240D490003DE0FBA3E0FAA3E0E4
:10404B00F9900045E0FEA3E0F5828E8312146960BF
:10405B0010900046E004F070DD900045E004F08025
:10406B00D5900040E0FBA3E0FAA3E0F912145060F6
:10407B003E900040A3E475F001121833A9F0FA1238
:10408B001450FF90003DE0FBA3E0FAA3E0F9900091
:10409B0045E475F00112183385F082F583EF1214A5
:1040AB00A890004374FFF5F01214CA45F070B2905B
:1040BB00003DE0FBA3E0FAA3E0F9900045E0FEA38E
:1040CB00E0F5828E83E41214A890003DE0FBA3E0A0
:0540DB00FAA3E0F92248
:10159D00E3F5F009E208B5F06D606B80F3E3F5F06B
:1015AD0009E608B5F060605E80F387F009E608B5DE
:1015BD00F054605280F487F009E208B5F0486046B7
:1015CD0080F488828C8387F009E0A3B5F03860360B
:1015DD0080F488828C8387F009E493A3B5F02760AB
:1015ED002580F388828C83E3F5F009E0A3B5F0162E
:1015FD00601480F388828C83E3F5F009E493A3B53E
:10160D00F004600280F20216C8808580E7808E802B
:10161D00D2803C8015806C807E809B80B5808B80D5
:10162D00A1804F8070803A0216D489828A83ECFAA9
:10163D00E493F5F0A3C8C582C8CCC583CCE493A3CD
:10164D00C8C582C8CCC583CCB5F070606E80E18909
:10165D00828A83E493F5F0A3E208B5F05E605C80C6
:10166D00F289828A83E0F5F0A3E608B5F04D604B70
:10167D0080F389828A83E0F5F0A3E208B5F03C603F
:10168D003A80F389828A83E493F5F0A3E608B5F0F6
:10169D002A602880F2805389828A83ECFAE493F5DC
:1016AD00F0A3C8C582C8CCC583CCE0A3C8C582C889
:1016BD00CCC583CCB5F004600280E27FFFB5F002AB
:1016CD000F2240027F012289828A83ECFAE0F5F035
:1016DD00A3C8C582C8CCC583CCE0A3C8C582C8CC7D
:1016ED00C583CCB5F0D560D380E389828A83ECFACB
:1016FD00E0F5F0A3C8C582C8CCC583CCE493A3C8DC
