:03626D00200A0004
:10474A004101450A41014600410152004101470029
:10475A004101500041014E0041015B0049013C000A
:10476A000000000000000000410151064101580309
:06477A00410157F2C109E4
:03000B000260DCB4
:1060DC00C0E0C083C082900145E014F0A3E004F05E
:0960EC00C28DD082D083D0E032D5
:1061A400E58954F04401F589E4F58CF58AD28C2212
:05626000C28DD2A9224D
:03626A00C2A922A4
:0B620100125F44EFF47002EEF460F551
:01620C00226F
:055CEB009000B1EFF094
:105CF0009000B1E0FF125E1DEF3395E04F6024E4A9
:105D00009000B2F0A3F0C39000B3E094E89000B22A
:105D1000E0940350DBA3E004F070EB9000B2E004E9
:085D2000F080E39000B1E0FF08
:015D28002258
:1061B40012626512622912620DC283D287C29722CB
:104E8000E4FDFC7FA8125E58900159E4F0A3EFF016
:104E90007D027C007FA8125E58900155E4F0A3EFDC
:104EA000F07D047C007FA8125E58900153E4F0A3CB
:104EB000EFF07D067C007FA8125E5890014CE4F074
:104EC000A3EFF07D087C007FA8125E58900149EFA7
:104ED000F07D0A7C007FA8125E58900148EFF07DBB
:104EE0000C7C007FA8125E5890014FEFF07D0E7C85
:104EF000007FA8125E5890014BEFF07D0B7C007F85
:0A4F0000A8125E5890014AEFF0225B
:104527001261A4126260125EF2125D671261B4D268
:10453700AF1260171260C27F6112574512623020B6
:1045470091031227B8124E809001457403F0208022
:104557003F7B017A007900124BB090000DEFF0120B
:1045670062207B017A00790090000DE0FD1249E49A
:104577007B017A00790090000DE0FD90004C7401FA
:10458700F01253907B017A01793C125D2912622067
:10459700121CF020B33D7B017A017914124B19905C
:1045A700000DEFF0FD7B017A01791490004C740146
:1045B700F012539090000DE0FF125A9A7BFF7A6237
:1045C700796D125D297B017A01791490000DE0FD68
:0945D7001221431252AE024555B7
:08000300D294126270C2942233
:055C2E0090004CEFF0B6
:105C3300E4A3F0A3F090004CE0FFA2E713F030D709
:105C430004D2958002C29512000390004EE004F046
:105C5300700690004DE004F0C390004EE09408906D
:095C6300004DE06480948040CC07
:015C6C002215
:0A4C4500EBF0A3EAF0A3E9F07F8D85
:054C4F00900049EFF0A8
:104C5400D2967F037E00126138900049E0FF125C17
:104C64002EE490004AF0A3F090004AE0FCA3E0FD9B
:104C7400C39408EC64809480504F30951690018161
:104C8400E04480F0ED9406EC648094805005E0FFED
:104C9400C313F0209520900181E0547FF0D390005D
:104CA4004BE0940690004AE06480948050089001A0
:104CB40081E0FFC313F012000390004BE004F07096
:104CC400A790004AE004F0809FC296900181E0FF23
:014CD40022BD
:105F1C00900020EFF0A3EDF0D2967F037E0012618B
:105F2C0038900020E0FF125C2E900021E0FF9000E2
:085F3C0020F0125C2EC2962237
:105B6C0090001EE475F0011214DC90001EE475F038
:105B7C00011214DC90001EE475F0011214DC90008C
:105B8C001DE0FBA3E0FAA3E0F9121450FF90000112
:045B9C00121469FD79
:0C5BA000EF540FC454F0FFED540F4FFF02
:015BAC0022D6
:104D650090001DEBF0A3EAF0A3E9F0125B8AAD0712
:104D75007F86125F1C125B6CAD077F88125F1C90EB
:104D8500001EE475F0011214DC90001EE475F001BC
:104D95001214DC125B6CAD077F8C125F1C125B6C0E
:104DA500AD077F84125F1C125B6CAD077F82125FBB
:104DB5001C125B6CAD077F80125F1C90001EE475B2
:104DC500F0011214DC90001EE475F0011214DC9061
:104DD500001EE475F0011214DC90001DE0FBA3E059
:0F4DE500FAA3E0F9121450540FFD7F8A025F1CED
:10605000AE07EEC4540F540FFE6012EF540FFFE46E
:0D606000FDEDC39E5007740A2FFF0D80F464
:01606D002210
:105FB000E4FEFDFCECC39F500B0DED640A7002FD86
:105FC0000E0C80F0EEC454F054F0FEED540F4EFF72
:015FD00022AE
:1056A500E4FFFE90001DEDF090001DE0C3946474CE
:1056B5008094804007E0249CF00F80ECEF4430128A
:1056C5001496740129F9E43AFA90001DE0C3940A8E
:1056D500748094804007E024F6F00E80ECEE4430B0
:1056E500121496740129F9E43AFA90001DE0443049
:0356F50002149606
:0E24E80090001DEBF0A3EAF0A3E9F0A3EDF0E5
:1024F600E4900022F0A3F0900025F0A3F0A3F0A34F
:10250600F0900024EDF054F0F0E0FFC4540FF0908A
:10251600002D12155C404000007F007E007D807C0F
:1025260041122DB9C004C005C006C007900024E0C2
:10253600FCE4120F62D003D002D001D000120E527A
:10254600C004C005C006C007900022E0FCA3E0FD61
:10255600E4120F5DD003D002D001D000120D61123B
:102566000F96900022EEF0A3EFF0900020E090008E
:1025760024F0540FF090002D12155C400000007FEF
:10258600007E007D807C41122DB9C004C005C006C6
:10259600C007900024E0FCE4120F62D003D002D002
:1025A60001D000120E52C004C005C006C00790003C
:1025B60022E0FCA3E0FDE4120F5DD003D002D001BF
:1025C600D000120D61120F96900022EEF0A3EFF0EC
:1025D600900021E0900024F054F0F0E0FFC4540F86
:1025E600F090002D12155C3F8000007F007E007D7C
:1025F600807C41122DB9C004C005C006C0079000FA
:1026060024E0FCE4120F62D003D002D001D0001205
:102616000E52C004C005C006C007900022E0FCA30D
:10262600E0FDE4120F5DD003D002D001D000120D00
:1026360061120F96900022EEF0A3EFF0900021E0D9
:10264600900024F0540FF090002D12155C0000004D
:10265600007F007E007D807C41122DB9C004C0053C
:10266600C006C007900024E0FCE4120F62D003D03D
:1026760002D001D000120E52C004C005C006C00729
:10268600900022E0FCA3E0FDE4120F5DD003D0022F
:10269600D001D000120D61120F96900022EEF0A329
:1026A600EFF0C3EF9410EE9427401074F02FFF74F0
:1026B600D83EFE900025E004F080E7900025E04437
:1026C60030FD90001DE0FBA3E0FAA3E0F9ED121443
:1026D6009690001EE475F0011214DCC3EF94E8EE48
:1026E6009403401074182FFF74FC3EFE900026E001
:1026F60004F080E7900026E04430FD90001DE0FBEA
:10270600A3E0FAA3E0F9ED12149690001EE475F02A
:10271600011214DCC3EF9464EE94004010749C2FF5
:10272600FF74FF3EFE900027E004F080E79000274C
:10273600E04430FD90001DE0FBA3E0FAA3E0F9EDD4
:1027460012149690001EE475F0011214DCC3EF9487
:102756000AEE9400401074F62FFF74FF3EFE9000C0
:1027660028E004F080E7900028E04430FD90001D4A
:10277600E0FBA3E0FAA3E0F9ED12149690001EE444
:1027860075F0011214DCEF4430FF90001DE0FBA34E
:10279600E0FAA3E0F9EF12149690001EE475F0013A
:1027A6001214DC90001DE0FBA3E0FAA3E0F9E402BA
:0227B600149677
:032BE1009000461B
:102BE400124C45EF54F0C4540F4430FE900046E0BC
:102BF400FBA3E0FAA3E0F9EE121496900047E47503
:102C0400F0011214DCEF540F4430FF900046E0FB57
:102C1400A3E0FAA3E0F9EF121496900047E475F0EC
:102C2400011214DC7F89124C4FEF54F0C4540F444A
:102C340030FE900046E0FBA3E0FAA3E0F9EE1214A4
:102C440096900047E475F0011214DCEF540F443001
:102C5400FF900046E0FBA3E0FAA3E0F9EF1214961C
:102C6400900047E475F0011214DC7F87124C4FEF9B
:102C740054F0C4540F4430FE900046E0FBA3E0FA45
:102C8400A3E0F9EE121496900047E475F0011214D3
:102C9400DCEF540F4430FF900046E0FBA3E0FAA3BE
:102CA400E0F9EF121496900047E475F0011214DC79
:102CB4007F85124C4FEF54F0C4540F4430FE900003
:102CC40046E0FBA3E0FAA3E0F9EE12149690004765
:102CD400E475F0011214DCEF540F4430FF90004609
:102CE400E0FBA3E0FAA3E0F9EF121496900047E4A6
:102CF40075F0011214DC7F83124C4FEF54F0C4546E
:102D04000F4430FE900046E0FBA3E0FAA3E0F9EEA6
:102D1400121496900047E475F0011214DCEF540F7E
:102D24004430FF900046E0FBA3E0FAA3E0F9EF1281
:102D34001496900047E475F0011214DC7F81124C64
:102D44004FEF54F0C4540F4430FE900046E0FBA310
:102D5400E0FAA3E0F9EE121496900047E475F0014E
:102D64001214DCEF540F4430FF900046E0FBA3E064
:102D7400FAA3E0F9EF121496900047E475F00112FB
:102D840014DC7F8B124C4FEF540F4430FF900046FD
:102D9400E0FBA3E0FAA3E0F9EF121496900047E4F5
:102DA40075F0011214DC900046E0FBA3E0FAA3E006
:052DB400F9E402149691
:1047FC00900031124C45126050900031E0FBA3E068
:10480C00FAA3E0F9EF121496900032E475F001125D
:10481C0014DC7F89124C4F126050900031E0FBA3E6
:10482C00E0FAA3E0F9EF121496900032E475F0016F
:10483C001214DC7F87124C4F126050900031E0FB59
:10484C00A3E0FAA3E0F9EF121496900032E475F0AD
:10485C00011214DC7F85124C4F126050900031E035
:10486C00FBA3E0FAA3E0F9EF121496900032E47582
:10487C00F0011214DC7F83124C4F12605090003107
:10488C00E0FBA3E0FAA3E0F9EF121496900032E4F7
:06489C0075F0010214DCBE
:10422A0090002A124C4590002AE0FBA3E0FAA3E092
:10423A00F9EF12149690002BE475F0011214DC7F4A
:10424A0089124C4F90002AE0FBA3E0FAA3E0F9EFB1
:10425A0012149690002BE475F0011214DC7F871279
:10426A004C4F90002AE0FBA3E0FAA3E0F9EF121406
:10427A009690002BE475F0011214DC7F85124C4FE6
:10428A0090002AE0FBA3E0FAA3E0F9EF121496905B
:10429A00002BE475F0011214DC7F83124C4F90005E
:1042AA002AE0FBA3E0FAA3E0F9EF12149690002BA0
:1042BA00E475F0011214DC7F81124C4F90002AE061
:1042CA00FBA3E0FAA3E0F9EF12149690002BE47531
:1042DA00F0011214DC90002AE0FBA3E0FAA3E0F953
:0442EA00E402149640
:07622900C294C296D2952237
:10613800E4FDFCC3ED9FEC9E50070DBD00010C80F3
:01614800F264
:016149002233
:04608C00AB07AA06AE
:10609000900000C3E5829BE5839A500A7F967E00BC
:0660A000126138A380ED3F
:0160A60022D7
:01627000220B
:035FD100125F8ECE
:105FD400D20AD293D292E4FFFE209205C20AC2935F
:0C5FE400220FBF00010EBE04F0BF4CED08
:015FF000228E
:035FF100125F8EAE
:105FF400D293D292D20AE4FFFE209205C20AC2933F
:0C600400220FBF00010EBE02F0BF8AEDAB
:01601000226D
:06625A00D29300C2932262
:105F8E00E4FEEEC39408748094805015EF25E0FF74
:105F9E0030D704D2928002C292D29312625A0E80ED
:015FAE00E111
:015FAF0022CF
:08614A00ECFD7C00C293C2923F
:0A615200D292D29300C292C29322AF
:09621700C293C292D293D29222EA
:1056F800E4FBEBFDC39408748094805038C2933067
:10570800921690017CE04401F0ED94067480948038
:105718005006E025E0F0D29320921790017CE054E7
:10572800FEF0EBD39406748094805006E025E0F0F8
:0C573800D2930B80BDC29390017CE0FF77
:015744002242
:025C6D00AA0784
:105C6F00AF05A90712614AAF02125FD1AF05125FEC
:105C7F00D1AF01125F8E125FD4AF03125F8E125F2E
:105C8F00D41262177F0D7E0012608CD293D2927F56
:0D5C9F00627E001261387F627E0002613873
:025E5800AB0796
:105E5A00AF05AA0712614AAF03125FF1AF05125FDD
:105E6A00F1AF02125F8E125FF4126152EB04FF125D
:105E7A005F8E125FD4C2931256F8126217D293D26F
:065E8A009290017CE0FF94
:015E900022EF
:1055F60090007DEEF0A3EFF0A3EBF0A3EAF0A3E9B1
:01560600F0B3
:1056070090007DE0FCA3E0FD7FA8125E5890007F2C
:10561700E0FBA3E0FAA3E0F9EF12149690007FE015
:10562700FBA3E0FAA3E0F9121450FF90007EE00418
:10563700F0700690007DE004F0900080E475F001C2
:065647001214DCEF70BA42
:01564D00223A
:104F0A0090007DEFF0A3ECF0A3EDF0A3EBF0A3EAA1
:104F1A00F0A3E9F0900080E0FBA3E0FAA3E0F91225
:104F2A001450603CB40D04E412149690007DE0FF26
:104F3A00A3E0FCA3E0FDA3E0FBA3E0FAA3E0F912DF
:104F4A001450FB125C6D90007FE004F07006900034
:104F5A007EE004F0900081E475F0011214DC80B464
:104F6A00900080E0FBA3E0FAA3E0F9E41214969023
:104F7A00007DE0FFA3E0FCA3E0FDA3E0FBA3E0FAD1
:0A4F8A00A3E0F9121450FB025C6D65
:105DA500E4FF7B017A00791D122BE190001DE024B0
:105DB500D064027026A3E024D0C39402748094803A
:105DC5004019A3E024D0FF700FA3E024D0C39403AF
:0B5DD5007480948040058000125CACDC
:015DE00022A0
:105CAC0090002874FFF0E4A3F0A3F0900029E0FC2E
:105CBC00A3E0FDC39450EC9403501A900028E0FB31
:105CCC007FA8125C6D90002AE004F070DE90002931
:0F5CDC00E004F080D6E4FBFD7C087FA8025C6D3D
:1049440053656E736F726573204175746F2079209F
:1049540073656E736F72312061637469766F732E41
:104964000053656E736F722061637469766F207390
:10497400656E736F7231202E0044657465637461D3
:10498400646F2E2053656E736F72204175746F2EA1
:104994000053656E736F726573206E6F2064657467
:1049A40065637461646F73005665686963756C6FE1
:1049B400204573706572616E646F2053616C697217
:1049C4002E005665686963756C6F2053616C696568
:1049D4006E646F2E20556E206D6F6D656E746F0062
:07623000C2B5C2B6C2B722DD
:07623700C2B5D2B6C2B722C6
:07623E00C2B5C2B6D2B722BF
:07624500D2B5C2B6D2B722A8
:07624C00C2B5D2B6D2B722A1
:07625300D2B5D2B6D2B7228A
:10603100E4FF7DF47C01309115EFFB3395E04B706B
:0E6041000DED1D70011CED4C70EC7F0180E830
:01604F00222E
:10615C007F3112624C3091010F1262533091020F59
:01616C000F23
:01616D00220F
:1053210012623E30915D126031EF3395E0FEEF6421
:10533100014E70471262452091231262377BFF2094
:10534100910D7A497944125D29E490014E80227AC7
:10535100497965125D2990014E74018014126237FA
:105361007BFF2091107A49797D125D2990014E745D
:1053710001F07FFF227A497995800E7BFF7A497986
:0F538100AC80067BFF7A4979C6125D297F002236
:1052AE0012623020916190000EE07014A3E0701035
:1052BE0030B35404F0125EC690000E7401F08047B5
:1052CE0090000EE064017014A3E0701030B3380447
:1052DE00F012350E90000E7402F0802B90000EE04E
:1052EE0064027023A3E0701F30B31C04F07D667C53
:1052FE00007FA8125E58BF53047F5380027F4E1268
:10530E004F94E490000EF0126230309105E490005C
:02531E000FF08E
:01532000226A
:0B4BB00090000EEBF0A3EAF0A3E9F088
:104BBB00E4900012F0A3740CF0900148E0640170D3
:104BCB0073900011F0900013E0FF900011E0C39F71
:104BDB005053E4FFFEFD30801DED701A0FBF000136
:104BEB000ED3EF9430EE947540EC7D01900013E002
:104BFB00900011F080E0ED6401602A12501C9000CF
:104C0B000EE0FBA3E0FAA3E0F9EF12149690000F6D
:104C1B00E475F0011214DC900012E004F090001126
:104C2B00E004F080A090000EE0FBA3E0FAA3E0F913
:094C3B00E4121496900012E0FF4F
:014C4400224D
:0B49E40090000EEBF0A3EAF0A3E9F056
:1049EF00E4FF7E029000021214696403701C9000B1
:1049FF000EE0FBA3E0FAA3E0F9900001121469B4F2
:104A0F005008D297E4900146F02290000EE0FBA3ED
:104A1F00E0FAA3E0F9900001121469643C70509021
:104A2F00000EE0FBA3E0FAA3E0F98E82758300127B
:104A3F001469FD743C2FF582E43401F583EDF00E1B
:104A4F000F8E82758300121469640370D290000E6A
:104A5F00E0FBA3E0FAA3E0F98E82758300E4121461
:0F4A6F00A8743B2FF582E43401F583E4F0D209FB
:014A7E002215
:0E5BAD00900046EBF0A3EAF0A3E9F0A3EDF0C0
:105BBB00E4A3F0900049E0FFA3E0C39F50249000C2
:105BCB0046E0FBA3E0FAA3E0F9121450FF1257458D
:105BDB00900047E475F0011214DC90004AE004F0E9
:025BEB0080D167
:015BED002295
:0B3FC90090001DEBF0A3EAF0A3E9F06C
:103FD40090003E7403F090002014F012615C900095
:103FE40021EFF0A37453F090014EE090003E601373
:103FF400E0FF04F074202FF582E43400F583744D5F
:10400400F08011E0FF04F074202FF582E43400F511
:10401400837443F090003E7404F090001DE0FBA311
:10402400E0FAA3E0F9121450FF602190003EE0246E
:1040340020F582E43400F583EFF090001EE475F07F
:10404400011214DC90003EE004F080CE90003EE0CB
:10405400FF04F074202FF582E43400F583743AF001
:1040640090003EE02420F9E43400FA7B01122BE1B5
:1040740090003EE0FF242AF582E43400F583743A8C
:10408400F0742B2FF582E43400F5837403F07B0184
:0B4094007A007920EF240CFD025BADE8
:0E3D230090001FEBF0A3EAF0A3E9F0A3EDF08F
:103D3100A37402F012615C900024EFF0A37453F0BD
:103D4100E4A3F0900022E0900042F0E4A3F07B01B4
:103D510090005304F0A37400F0A37442F07A007948
:103D6100231253FE90001FE0F9A3E0FAA3E09000B4
:103D710053C9F0A3EAF0A3E9F07B017A0079231299
:103D810053FE900042743AF0E4A3F07B019000539B
:103D910004F0A37400F0A37442F07A007923125363
:103DA100FE7B017A00792312000E900041EFF0248E
:103DB10023F9E43400FA7B01122BE1900041E0FF8A
:103DC100242DF582E43400F583743AF0742E2FF536
:103DD10082E43400F5837403F0742F2FF582E43408
:103DE10000F583E4F074302FF582E43400F583E4C8
:103DF100F07B017A00792312000E900041EFF0FD73
:093E01007B017A007923025BAD1C
:1061C40090000AE41214A87D007C057FA8024F0AFF
:1033FC00613B38353B41434552515545205355208F
:10340C005449434B45540A0000613B38393B475201
:10341C004143494153202E2E2E2E2E200A000061AE
:10342C003B39373B4E6F2054494B4554204E4F206F
:10343C005245474953545241444F200A0000613BC6
:10344C0038383B45584345444520484F5241524932
:10345C004F2E2E2E0A0000613B39353B554E204D28
:10346C004F4D454E544F202E2E2E2E200A0000611B
:10347C003B39363B53494E2050524553454E4349F8
:10348C0041205645484943554C41522E2E2E2E2054
:10349C000A0000613B39303B4E4F2052454749539F
:1034AC00545241205041474F2E2E2E2E200A000000
:1034BC00613B39303B444952494A415345204120F4
:1034CC0043414A410A000057494547414E442000B8
:1034DC00613B39323B4752414349415320000A007A
:1034EC0000613B39383B57494547414E442000AABF
:1034FC00802807200000000000140000AA8018019A
:02350C000200BB
:05606E00900055EDF06B
:10607300125CEB900056EFF0900055E0600AE4FFED
:08608300125CEB900056EFF0F7
:01608B0022F2
:0E5DE100900050EBF0A3EAF0A3E9F0A3EDF080
:105DEF00E4A3F0900050E0FBA3E0FAA3E0F99000E9
:105DFF0054E0F582758300121469FF601090005310
:0D5E0F00E0FD12606E900054E004F080D6BB
:015E1C002263
:0E5AE10090002AEBF0A3EAF0A3E9F0A3EDF0A9
:105AEF00E490002FF090002DE0FF90002FE0FEC318
:105AFF009F502490002AE0FBA3E0FAA3E0F98E82E6
:105B0F00758300121469FF90002EE0FD12606E90F5
:075B1F00002FE004F080CE2E
:015B2600225C
:105E9100781D7C007D017BFF7A3479FB7E007F0DCC
:105EA10012142AC2877B017A00792212422AC29CEB
:105EB1007B017A00791DE490002EF07D0D125AE1EC
:045EC100D29CD28716
:015EC50022BA
:0955980012183A7B017A00791F18
:0B55A100900050EBF0A3EAF0A3E9F04B
:1055AC0012000E900054EFF0E4900053F090005471
:1055BC00E0FF900053E0FEC39F502E900050E0FBA4
:1055CC00A3E0FAA3E0F98E82758300121469FF122E
:1055DC005CEBE4FFEFC394C87480948050030F809D
:0955EC00F3900053E004F080C4C8
:0155F5002293
:1048A200C28790014AE07003D28722C287EF24FCBC
:1048B200603724FD604124FE604C24AF6072247A8C
:1048C200605224F9605C24E86011047072781F7CE5
:1048D200007D017BFF7A3379FC8061781F7C007D4B
:1048E200017BFF7A3479158053781F7C007D017B30
:1048F200FF7A34792B8045781F7C007D017BFF7A1B
:1049020034794A125598781F7C007D017BFF7A34F6
:1049120079638028781F7C007D017BFF7A34797B64
:10492200801A781F7C007D017BFF7A34799F800C8E
:10493200781F7C007D017BFF7A3479BC125598D2B6
:0149420087ED
:014943002251
:0E31A50090001DEFF0A3EBF0A3EAF0A3E9F019
:1031B30078217C007D017BFF7A3579087E007F06CC
:1031C30012142AC28790014AE0706690001DE02421
:1031D30050705B7B017A007921E4FD125DE17BFF96
:1031E3007A3479D312000E90004FEFF090001EE076
:1031F300FBA3E0FAA3E0F912000E90004FE02F04C6
:10320300F0E4FDFF12606E90004FE025E0FFE4FD67
:1032130012606E7BFF7A3479D37D01125DE19000F9
:103223001EE0FBA3E0FAA3E0F97D01125DE1D28782
:1032330022C28790001DE02450604524B160030240
:1032430032D078277C007D017BFF7A3479DC121839
:103253003A90001EE0FBA3E0FAA3E0F912000E90FF
:10326300004FEFF024FFFFE434FFFE90001EE0FB6D
:10327300A3E0FAA3E0F98F828E83E41214A8800FEF
:1032830078277C007D017BFF7A3479ED12183A9020
:10329300001EE0F9A3E0FAA3E0900053C9F0A3EA0B
:1032A300F0A3E9F07B017A0079271253FE900053D3
:1032B30074FFF0A37434F0A374EAF07B017A00790D
:0F32C300271253FE7B017A0079271255A1D2877B
:0132D20022D9
:100026000D0A0A25733E20002563002564000D0A8B
:100036000A2041435455414C2049445F434C4945AD
:100046004E54453D25730D0A0A000D0A0A204449FF
:1000560047495445205355204E5545564F2049444F
:100066005F434C49454E54453D000D0A0A20444124
:10007600544F204D4F444946494341444F2049443B
:100086005F434C49454E54453D25730D0A0A000D04
:100096000A0A2041435455414C20434F445F504186
:1000A600524B3D25730D0A0A000D0A0A20444947A2
:1000B600495445205355204E5545564F20434F44ED
:1000C6005F5041524B3D000D0A0A204441544F20D7
:1000D6004D4F444946494341444F20434F445F50A6
:1000E60041524B3D25730D0A0A000D0A0A20414371
:1000F6005455414C205449454D504F5F475241435A
:1001060049413D25730D0A0A000D0A0A2044494754
:10011600495445205355204E5545564F2054494580
:100126004D504F5F4752414349413D000D0A0A2059
:100136004441544F204D4F444946494341444F2082
:100146005449454D504F5F4752414349413D257300
:100156000D0A0A000D0A0A2041435455414C20530A
:10016600494E5F434F42524F20494E484142494C07
:10017600495441444F3D25730D0A0A000D0A0A20D1
:1001860041435455414C2053494E5F434F42524FD1
:10019600204752415449533D25730D0A0A000D0A62
:1001A6000A2041435455414C2053494E5F434F4228
:1001B600524F2047524154495320592053414C49EC
:1001C600444120454C204D49534D4F204449413D23
:1001D60025730D0A0A000D0A0A2044494749544569
:1001E600205355204E5545564F2053494E5F434F99
:1001F60042524F3D000D0A0A2041435455414C20BE
:10020600444542554720494E484142494C4954418C
:10021600444F3D25730D0A0A000D0A0A2041435436
:1002260055414C20444542554720484142494C4996
:100236005441444F3D25730D0A0A000D0A0A204415
:10024600494749544520454C204E5545564F204573
:10025600535441444F2044452044454255473D00B0
:100266000D0A0A2041435455414C205553455F4CD5
:10027600505220494E484142494C495441444F3D11
:1002860025730D0A0A000D0A0A2041435455414CB4
:10029600205553455F4C505220484142494C4954E1
:1002A60041444F3D25730D0A0A000D0A0A204449B0
:1002B6004749544520454C204E5545564F204553F9
:1002C6005441444F204445205553455F4C50523DC0
:1002D600000D0A0A2050414E54414C4C41204C43DB
:1002E6004420484142494C49544144413D25730DFF
:1002F6000A0A000D0A0A2050414E54414C4C412036
:100306005241535042455252592020484142494C8D
:1003160049544144413D25730D0A0A000D0A0A203D
:1003260044494749544520454C204E5545564F2093
:1003360045535441444F204445204C412050414EA2
:1003460054414C4C41203D000D0A0A20414354556E
:10035600414C20434F4D5041524143494F4E20415D
:1003660043544956412020484142494C495441444E
:10037600413D25730D0A0A000D0A0A2041435455D2
:10038600414C20434F4D5041524143494F4E20412D
:10039600435449564120494E484142494C495441EB
:1003A600444F3D25730D0A0A000D0A0A20414354A5
:1003B60055414C20434F4D5041524143494F4E20E9
:1003C6004143544956412020484142494C495441F1
:1003D600444F3D25730D0A0A000D0A0A2044494779
:1003E60049544520454C204E5545564F20455354BB
:1003F60041444F20444520434F4D504152414349CB
:100406004F4E20414354495641203D000D0A0A20D3
:1004160041435455414C20434F4D5041524143496D
:100426004F4E204143544956412020494E484142AF
:10043600494C495441444F3D25730D0A0A000D0AA3
:100446000A2041435455414C20434F4449474F20CD
:10045600444520424152524153204143544956306B
:100466003D25730D0A0A000D0A0A204143545541E1
:100476004C20434F4449474F205152204143544951
:10048600564F3D25730D0A0A000D0A0A20444947B6
:1004960049544520454C204E5545564F204553540A
:1004A60041444F20444520434F4449474F20515231
:1004B600204F20434F4449474F2044452042415254
:1004C6005241533D000D0A0A20446967697465204C
:1004D600656C206E6F6D6272652064656C20636C5E
:1004E60069656E746520000D0A0A20746578746F5C
:1004F600206772616261646F3D25730D0A0A000D03
:100506000A0A2044696769746520656C206E756DFA
:1005160065726F206465204E697420000D0A0A20FA
:100526004E49543A2025730D0A0A000D0A0A204442
:10053600696769746520656C204E6F6D627265200F
:1005460064656C20506172717565616465726F20B7
:10055600000D0A0A204E6F6D6272653A2025730DF2
:100566000A0A000D0A0A20446967697465206C61ED
:1005760020646972656363696F6E2064656C2065CB
:10058600737461626C6563696D69656E746F200072
:100596000D0A0A20446972656363696F6E3A202505
:1005A600730D0A0A000D0A0A2044696769746520FA
:1005B600656C206D736A312064656C2065737461A7
:1005C600626C6563696D69656E746F20000D0A0A59
:1005D600206D736A313A2025730D0A0A000D0A0A46
:1005E6002044696769746520656C206D736A3220E2
:1005F60064656C2065737461626C6563696D6965B9
:100606006E746F20000D0A0A2044696769746520BC
:10061600656C206D736A332064656C206573746144
:10062600626C6563696D69656E746F20000D0A0AF8
:10063600206D736A333A2025730D0A0A000D0A0AE3
:100646002044696769746520656C206D736A34207F
:1006560064656C2065737461626C6563696D696558
:100666006E746F20000D0A0A206D736A343A2025D5
:10067600730D0A0A000D0A0A204469676974652029
:10068600656C206D736A352064656C2065737461D2
:10069600626C6563696D69656E746F20000D0A0A88
:1006A600206D736A353A2025730D0A0A000D0A0A71
:1006B6002044696769746520656C206D736A36200D
:1006C60064656C2065737461626C6563696D6965E8
:1006D6006E746F20000D0A0A206D736A363A202563
:1006E600730D0A0A000D0A0A2044696769746520B9
:1006F600656C206D736A372064656C206573746160
:10070600626C6563696D69656E746F20000D0A0A17
:10071600206D736A373A2025730D0A0A000D0A20E8
:1007260049445F434C49454E544520202020090941
:10073600092D2D2D20636D642030204964656E746B
:100746006966696361646F722064656C20636C69B5
:10075600656E7465206D6178696D6F203235350080
:100766000D0A20434F445F5041524B202020202049
:10077600200909092D2D2D20636D64203120456C3B
:10078600206E756D65726F2064656C207061727184
:100796007565616465726F206D6178696D6F203271
:1007A6003535000D0A20545F475241434941202008
:1007B600202020200909092D2D2D20636D6420326B
:1007C600205469656D706F2073696E20636F627265
:1007D6006F2030302C20206D6178696D6F203235A6
:1007E60035000D0A2053494E5F434F42524F202099
:1007F6002020090909092D2D2D20636D6420332041
:10080600496E686162696C697461646F3D20302C61
:10081600204772617469733D2031202C2047726134
:1008260074697320792073616C69646120656C203A
:100836006D69736D6F206469613D2032000D0A2079
:100846004445425547202020202020202020090909
:10085600092D2D2D20636D64203420486162696C5A
:1008660069746172203D20312C20496E686162698D
:100876006C69746172203D2030000D0A2055534585
:100886005F4C5052202020202020200909092D2DC0
:100896002D20636D64203520486162696C6974613E
:1008A60072203D20312C20496E686162696C697442
:1008B6006172203D2030000D0A205449504F5F5090
:1008C600414E54414C4C41202020202020092D2D02
:1008D6002D20636D6420362050414E54414C4C41CE
:1008E600204C4344203D302050414E54414C4C4115
:1008F600205241535042455252493D31000D0A2083
:10090600434F4D5041524143494F4E5F4143544935
:10091600564120092D2D2D20636D64203720486116
:1009260062696C69746172203D20312C20496E68C1
:100936006162696C69746172203D2030000D0A2085
:1009460051525F434F445F4241525241532009097D
:10095600092D2D2D20636D64203820486162696C55
:1009660069746172205152203D20312C2048616209
:10097600696C6974617220434F445F42415252412F
:1009860053203D2030000D0A20434C49454E544526
:10099600202020202020200909092D2D2D20636DDF
:1009A600642039204E6F6D6272652064656C206329
:1009B6006C69656E7465000D0A204E49542020202E
:1009C600202020202020202009202020202D2D2D11
:1009D60020636D64203130204E756D65726F206422
:1009E600656C206E6974000D0A204E4F4D5F5041B4
:1009F600525120202020202009202020202D2D2D7E
:100A060020636D64203131204E6F6D627265206403
:100A1600656C20706172717565616465726F000D39
:100A26000A20444952454343494F4E20202020097D
:100A36002020202020202D2D2D20636D6420313292
:100A4600204E6F6D6272652064656C2070617271F4
:100A56007565616465726F000D0A204D534A5F31FA
:100A660020202020202020202009202020202D2D7D
:100A76002D20636D64203133206D736A20646520F8
:100A8600696E666F726D6163696F6E2064656C2056
:100A9600706172717565616465726F000D0A204D33
:100AA600534A5F32202020202020202020092020A9
:100AB60020202D2D2D20636D64203134206D736A26
:100AC60020646520696E666F726D6163696F6E2062
:100AD60064656C20706172717565616465726F0022
:100AE6000D0A204D534A5F3320202020202020204D
:100AF6002009202020202D2D2D20636D64203135E6
:100B0600206D736A20646520696E666F726D61631D
:100B1600696F6E2064656C207061727175656164C1
:100B260065726F000D0A204D534A5F342020202045
:100B360020202020092020202020202D2D2D20635C
:100B46006D64203136206D736A20646520696E6697
:100B56006F726D6163696F6E2064656C207061727F
:100B6600717565616465726F000D0A204D534A5FA9
:100B76003520202020202020200920202020202071
:100B86002D2D2D20636D64203137206D736A20640E
:100B96006520696E666F726D6163696F6E2064654C
:100BA6006C20706172717565616465726F000D0A03
:100BB600204D534A5F362020202020202020092067
:100BC60020202020202D2D2D20636D6420313820FB
:100BD6006D736A20646520696E666F726D61636904
:100BE6006F6E2064656C20706172717565616465F5
:100BF600726F000D0A204D534A5F372020202020B7
:100C06002020202009202020202D2D2D20636D64FA
:100C1600203139206D736A20646520696E666F72B3
:100C26006D6163696F6E2064656C207061727175A9
:100C360065616465726F000D0A2041595544412073
:100C4600202020202020202009202020202D2D2D8E
:100C560020636D64203230204D7565737472612097
:100C66006C6F7320636F6D616E646F73000D0A2085
:100C760053414C49522020202020202020200920AA
:100C86002020202D2D2D20636D64203231205361CC
:100C96006C69722064652070726F6772616D616342
:100CA600696F6E000D0A0A53697374656D6120647D
:100CB600652050726F6772616D6163696F6E205651
:100CC60065726966696361646F720D0A0D0A000DCB
:100CD6000A0A2F3E5573756172696F3A000D0A0A4A
:100CE600206461746F732064656C20627566666546
:100CF600722072782025730D0A0A000D0A0A2064F4
:100D060061746F732064656C206275666665722017
:100D160074782025730D0A0A000D0A0A2F3E5061C9
:100D26007373776F72643A00313233343536000D9F
:100D36000A436F6D616E646F206E6F20657869730C
:100D46007465202725732700200D0A00200D0A0050
:040D5600220D0A0060
:104780005400BE2F000000000000000000000000E8
:10479000000000000000004900B561646D696E0012
:1047A000000000604200D230000031000032000002
:1047B00033000034000035000036000037000038B8
:1047C0000000390000313000313100313200313326
:1047D00000313400313500313600313700313800D6
:0947E000313900323000323100A1
:0B55360090003FEBF0A3EAF0A3E9F0C7
:10554100E4900045F0900045E0FFC3941674809408
:10555100805041EF75F003A424D2F9740035F0FABC
:105561007B0178427C007D0112183A78427C007DF3
:105571000190003FE0FBA3E0FAA3E0F9121751EF1D
:105581003395E04F7006900045E0FF22900045E022
:0655910004F080B17FFF71
:0155970022F1
:0B5B270090000EE0FBA3E0FAA3E0F901
:0B5B320090003FEBF0A3EAF0A3E9F0C5
:105B3D0078427C007D017B017A0079B512183A78A4
:105B4D00427C007D0190003FE0FBA3E0FAA3E0F969
:0E5B5D00121751EF3395E04F7002FF227FFFC9
:015B6B002217
:065BEE007B017A00792B17
:0B5BF40090003FEBF0A3EAF0A3E9F003
:105BFF0078427C007D017BFF7A0D794E7E007F0419
:105C0F0012142A90004D7401F0A37400F0A3744293
:0F5C1F00F090003FE0FBA3E0FAA3E0F9023E0A99
:104CD500E0FBA3E0FAA3E02FF9EA3EFAE92401F9A3
:034CE500E43AFAB4
:0B4CE80090003FEBF0A3EAF0A3E9F01E
:104CF30078427C007D017BFF7A0D79527E007F0430
:104D030012142A78467C007D017BFF7A0D79567E4A
:104D1300007F0412142A90003FE0FBA3E0FAA3E013
:104D2300F9121450FFB4200C900040E475F0011206
:104D330014DC80E2EF90004DB4220D7401F0A374F3
:104D430000F0A37446F080167401F0A37400F0A37E
:104D53007442F090003FE0FBA3E0FAA3E0F9123EB7
:014D63000A45
:014D6400222C
:10610D009000847401F0A37400F0A374BEF07BFFC3
:07611D007A0079260218D870
:08522E007A00792B7B01E4FDFD
:0E52360090007DEBF0A3EAF0A3E9F0A3EDF009
:1052440012620190007DE0FBA3E0FAA3E0F9EF1203
:105254001496900080E0701D90007DE0FBA3E0FABE
:10526400A3E0F9121450900084F07BFF7A00792EA9
:105274001218D880057F2A125CEB90007DE0FBA316
:10528400E0FAA3E0F9121450FF7E0090007EE4756A
:10529400F0011214DC90007DE0FBA3E0FAA3E0F936
:0952A400E4121496EF640D7097FA
:0152AD0022DE
:1045E000E4FDFC7FA8125E587E00900049EEF0A327
:1045F000EFF090008474FFF0A37400F0A37431F026
:10460000A3EEF0A3EFF07B017A00793F1218D2906D
:1046100000847401F0A37400F0A3743FF07BFF7A70
:104620000079341218D87BFF7A0079501218D87AA2
:1046300000793F1252327B017A00793F123EEE90B0
:104640000049EEF0A3EFF0FBE4FDFC7FA8125C6DE7
:10465000E4FDFC7FA8125E587E00900049EEF0A3B6
:10466000EFF090008474FFF0A37400F0A37431F0B5
:10467000A3EEF0A3EFF07B017A00793F1218D290FD
:1046800000847401F0A37400F0A3743FF07BFF7A00
:064690000079700218D849
:1043AD007D027C007FA8125E587E00900049EEF0E1
:1043BD00A3EFF090008474FFF0A37400F0A37431A8
:1043CD00F0A3EEF0A3EFF07B017A00793F1218D243
:1043DD009000847401F0A37400F0A3743FF07BFF90
:1043ED007A0079951218D87BFF7A0079AF1218D818
:1043FD007B017A00793FE4FD1252367B017A007918
:10440D003F123EEE900049EEF0A3EFF0FB7D027CF3
:10441D00007FA8125C6D7D027C007FA8125E587E25
:10442D0000900049EEF0A3EFF090008474FFF0A32C
:10443D007400F0A37431F0A3EEF0A3EFF07B017ADA
:10444D0000793F1218D29000847401F0A37400F02B
:0D445D00A3743FF07BFF7A0079CD0218D8E0
:10446A007D047C007FA8125E587E00900049EEF021
:10447A00A3EFF090008474FFF0A37400F0A37431EA
:10448A00F0A3EEF0A3EFF07B017A00793F1218D285
:10449A009000847401F0A37400F0A3743FF07BFFD2
:1044AA007A0079F01218D87BFF7A01790F1218D89E
:1044BA007B017A00793FE4FD1252367B017A00795A
:1044CA003F123EEE900049EEF0A3EFF0FB7D047C34
:1044DA00007FA8125C6D7D047C007FA8125E587E66
:1044EA0000900049EEF0A3EFF090008474FFF0A36F
:1044FA007400F0A37431F0A3EEF0A3EFF07B017A1D
:10450A0000793F1218D29000847401F0A37400F06D
:0D451A00A3743FF07BFF7A0179320218D8BC
:103067007D067C007FA8125E587E00900049EEF036
:10307700A3EFF090008474FFF0A37400F0A3743101
:10308700F0A3EEF0A3EFF07B017A00793F1218D29C
:10309700900049E07002A3E0701590008404F0A34B
:1030A7007400F0A3743FF07BFF7A01795A80359062
:1030B7000049E07004A3E06401701590008404F0F7
:1030C700A37400F0A3743FF07BFF7A017982801428
:1030D7009000847401F0A37400F0A3743FF07BFFA9
:1030E7007A0179A41218D87BFF7A0179DC1218D8F3
:1030F7007B017A00793FE4FD1252367B017A007931
:103107003F123EEE900049EEF0A3EFF0FB7D067C08
:10311700007FA8125C6D7D067C007FA8125E587E3A
:1031270000900049EEF0A3EFF090008474FFF0A345
:103137007400F0A37431F0A3EEF0A3EFF07B017AF3
:1031470000793F1218D2900049E07002A3E0701591
:1031570090008404F0A37400F0A3743FF07BFF7A1F
:1031670001795A8035900049E07004A3E06401704A
:103177001590008404F0A37400F0A3743FF07BFF64
:103187007A01798280149000847401F0A37400F0AE
:0D319700A3743FF07BFF7A0179A41218D8D1
:0131A4002208
:103837007D087C007FA8125E587E00900049EEF05C
:10384700A3EFF090008474FFF0A37400F0A3743129
:10385700F0A3EEF0A3EFF07B017A00793F1218D2C4
:10386700900049E07002A3E0701590008404F0A373
:103877007400F0A3743FF07BFF7A0179FB8014900A
:1038870000847401F0A37400F0A3743FF07BFF7A07
:1038970002791F1218D87BFF7A0279411218D87B58
:1038A700017A00793FE4FD1252367B017A00793FB5
:1038B700123EEE900049EEF0A3EFF0FB7D087C008E
:1038C7007FA8125C6D7D087C007FA8125E587E0081
:1038D700900049EEF0A3EFF090008474FFF0A3741A
:1038E70000F0A37431F0A3EEF0A3EFF07B017A00B0
:1038F700793F1218D2900049E07002A3E07015904A
:10390700008404F0A37400F0A3743FF07BFF7A01F6
:1039170079FB80149000847401F0A37400F0A37401
:0B3927003FF07BFF7A02791F1218D8D6
:013932002272
:103933007D0A7C007FA8125E587E00900049EEF05D
:10394300A3EFF090008474FFF0A37400F0A374312C
:10395300F0A3EEF0A3EFF07B017A00793F1218D2C7
:10396300900049E07002A3E0701590008404F0A376
:103973007400F0A3743FF07BFF7A027966801490A1
:1039830000847401F0A37400F0A3743FF07BFF7A0A
:1039930002798C1218D87BFF7A0279B01218D87B7F
:1039A300017A00793FE4FD1252367B017A00793FB8
:1039B300123EEE900049EEF0A3EFF0FB7D0A7C008F
:1039C3007FA8125C6D7D0A7C007FA8125E587E0082
:1039D300900049EEF0A3EFF090008474FFF0A3741D
:1039E30000F0A37431F0A3EEF0A3EFF07B017A00B3
:1039F300793F1218D2900049E07002A3E07015904D
:103A0300008404F0A37400F0A3743FF07BFF7A02F8
:103A1300796680149000847401F0A37400F0A37499
:0B3A23003FF07BFF7A02798C1218D86C
:013A2E002275
:103A2F007D0B7C007FA8125E587E00900049EEF05F
:103A3F00A3EFF090008474FFF0A37400F0A374312F
:103A4F00F0A3EEF0A3EFF07B017A00793F1218D2CA
:103A5F00900049E07002A3E0701590008404F0A379
:103A6F007400F0A3743FF07BFF7A0279D780149033
:103A7F0000847401F0A37400F0A3743FF07BFF7A0D
:103A8F000279F91218D87BFF7A0379221218D87BA2
:103A9F00017A00793FE4FD1252367B017A00793FBB
:103AAF00123EEE900049EEF0A3EFF0FB7D0B7C0091
:103ABF007FA8125C6D7D0B7C007FA8125E587E0084
:103ACF00900049EEF0A3EFF090008474FFF0A37420
:103ADF0000F0A37431F0A3EEF0A3EFF07B017A00B6
:103AEF00793F1218D2900049E07002A3E070159050
:103AFF00008404F0A37400F0A3743FF07BFF7A02FC
:103B0F0079D780149000847401F0A37400F0A3742B
:0B3B1F003FF07BFF7A03794E1218D8AC
:013B2A002278
:103B2B007D0C7C007FA8125E587E00900049EEF061
:103B3B00A3EFF090008474FFF0A37400F0A3743132
:103B4B00F0A3EEF0A3EFF07B017A00793F1218D2CD
:103B5B00900049E07002A3E0701590008404F0A37C
:103B6B007400F0A3743FF07BFF7A03797E8014908E
:103B7B0000847401F0A37400F0A3743FF07BFF7A10
:103B8B000379AF1218D87BFF7A0379DF1218D87B31
:103B9B00017A00793FE4FD1252367B017A00793FBE
:103BAB00123EEE900049EEF0A3EFF0FB7D0C7C0093
:103BBB007FA8125C6D7D0C7C007FA8125E587E0086
:103BCB00900049EEF0A3EFF090008474FFF0A37423
:103BDB0000F0A37431F0A3EEF0A3EFF07B017A00B9
:103BEB00793F1218D2900049E07002A3E070159053
:103BFB00008404F0A37400F0A3743FF07BFF7A04FD
:103C0B00791280149000847401F0A37400F0A374F3
:0B3C1B003FF07BFF7A0379AF1218D84E
:013C2600227B
:103C27007D0E7C007FA8125E587E00900049EEF062
:103C3700A3EFF090008474FFF0A37400F0A3743135
:103C4700F0A3EEF0A3EFF07B017A00793F1218D2D0
:103C5700900049E07002A3E0701590008404F0A37F
:103C67007400F0A3743FF07BFF7A047944801490CA
:103C770000847401F0A37400F0A3743FF07BFF7A13
:103C870004796D1218D87BFF7A04798F1218D87BC4
:103C9700017A00793FE4FD1252367B017A00793FC1
:103CA700123EEE900049EEF0A3EFF0FB7D0E7C0094
:103CB7007FA8125C6D7D0E7C007FA8125E587E0087
:103CC700900049EEF0A3EFF090008474FFF0A37426
:103CD70000F0A37431F0A3EEF0A3EFF07B017A00BC
:103CE700793F1218D2900049E07002A3E070159056
:103CF700008404F0A37400F0A3743FF07BFF7A0400
:103D0700794480149000847401F0A37400F0A374C4
:0B3D17003FF07BFF7A04796D1218D892
:013D2200227E
:10578D007BFF7A0479CB1218D87B017A00793FE43C
:10579D00FD1252367B017A00793F7D107C007FA887
:1057AD00124F0A7B017A00793F7F107E001255F669
:1057BD009000847401F0A37400F0A3743FF07BFF9C
:0757CD007A0479ED0218D8FF
:1057D4007BFF7A0579051218D87B017A00793FE4BA
:1057E400FD1252367B017A00793F7D407C007FA810
:1057F400124F0A7B017A00793F7F407E001255F6F2
:105804009000847401F0A37400F0A3743FF07BFF54
:075814007A0579220218D881
:10581B007BFF7A0579311218D87B017A00793FE446
:10582B00FD1252367B017A00793F7D507C007FA8B8
:10583B00124F0A7B017A00793F7F507E001255F69A
:10584B009000847401F0A37400F0A3743FF07BFF0D
:07585B007A0579570218D805
:105862007BFF7A0579691218D87B017A00793FE4C7
:10587200FD1252367B017A00793F7D807C007FA841
:10588200124F0A7B017A00793F7F807E001255F623
:105892009000847401F0A37400F0A3743FF07BFFC6
:0758A2007A0579960218D87F
:1058A9007BFF7A0579AB1218D87B017A00793FE43E
:1058B900FD1252367B017A00793F7DB07C007FA8CA
:1058C900124F0A7B017A00793F7FB07E001255F6AC
:1058D9009000847401F0A37400F0A3743FF07BFF7F
:0758E9007A0579D30218D8FB
:1058F0007BFF7A0579E31218D87B017A00793FE4BF
:10590000FD1252367B017A00793F7DF17C007FA841
:10591000124F0A7B017A00793F7FF17E001255F623
:105920009000847401F0A37400F0A3743FF07BFF37
:075930007A0579D30218D8B3
:105937007BFF7A06790B1218D87B017A00793FE44E
:10594700FD1252367B017A00793F7D327C017FA8B8
:10595700124F0A7B017A00793F7F327E011255F69A
:105967009000847401F0A37400F0A3743FF07BFFF0
:075977007A0679330218D80B
:10597E007BFF7A0679431218D87B017A00793FE4CF
:10598E00FD1252367B017A00793F7D737C017FA830
:10599E00124F0A7B017A00793F7F737E011255F612
:1059AE009000847401F0A37400F0A3743FF07BFFA9
:0759BE007A06796B0218D88C
:1059C5007BFF7A06797B1218D87B017A00793FE450
:1059D500FD1252367B017A00793F7DB47C017FA8A8
:1059E500124F0A7B017A00793F7FB47E011255F68A
:1059F5009000847401F0A37400F0A3743FF07BFF62
:075A05007A0679A30218D80C
:105A0C007BFF7A0679B31218D87B017A00793FE4D0
:105A1C00FD1252367B017A00793F7DF57C017FA81F
:105A2C00124F0A7B017A00793F7FF57E011255F601
:105A3C009000847401F0A37400F0A3743FF07BFF1A
:075A4C007A0679DB0218D88D
:105A53007BFF7A0679EB1218D87B017A00793FE451
:105A6300FD1252367B017A00793F7D367C027FA896
:105A7300124F0A7B017A00793F7F367E021255F678
:105A83009000847401F0A37400F0A3743FF07BFFD3
:075A93007A0779130218D80D
:10409F007BFF7A0779231218D87BFF7A077966128C
:1040AF0018D87BFF7A0779A91218D87BFF7A07797E
:1040BF00E81218D87BFF7A0879431218D87BFF7A59
:1040CF000879801218D87BFF7A0879BD1218D87B2F
:1040DF00FF7A0979031218D87BFF7A0979431218EE
:1040EF00D87BFF7A09798C1218D87BFF7A0979BDB2
:1040FF001218D87BFF7A0979ED1218D87BFF7A0A4C
:10410F0079251218D87BFF7A0A795E1218D87BFFAF
:10411F007A0A79A21218D87BFF7A0A79E61218D890
:10412F007BFF7A0B792A1218D87BFF7A0B796F12E3
:10413F0018D87BFF7A0B79B41218D87BFF7A0B79DA
:10414F00F91218D87BFF7A0C793D1218D87BFF7AB9
:06415F000C79730218D870
:1027B8007BFF7A0C79AA1218D87BFF7A0C79D5128C
:1027C80018D81261F312522E125BEE90000EEBF045
:1027D800A3EAF0A3E9F0900084E4F0A37400F0A366
:1027E8007422F07BFF7A0C79E31218D8900084E405
:1027F800F0A37400F0A374A2F07BFF7A0D790112A4
:1028080018D8125B27EF70B17BFF7A0D791F121869
:10281800D87B017A00792B7D01125236125BEE903B
:10282800000EEBF0A3EAF0A3E9F078B57C007D0197
:102838007BFF7A0D792E12183A125B27EF70C902C6
:1028480029CA12610D12522E125BEE90000EEBF0A7
:10285800A3EAF0A3E9F012000E90000E124CD590F6
:102868000011EBF0A3EAF0A3E9F012000E900011BA
:10287800124CD5900014EBF0A3EAF0A3E9F0900015
:1028880011E0FBA3E0FAA3E0F9EA494B6017121440
:1028980050B42F1178177C007D01900011A3A3E09C
:1028A80012183A803D900011E0FBA3E0FAA3E0F98A
:1028B800EA494B602D78177C007D017B017A00790D
:1028C800BE12183A900011E0F9A3E0FAA3E09000D4
:1028D80053C9F0A3EAF0A3E9F07B017A0079171253
:1028E80053FE90000EE0FBA3E0FAA3E0F9EA494B9F
:1028F800700302284A125536EFB416004003022925
:10290800D0902910F8282873022952022958022940
:102918005E02296402296A02297002297602297C4A
:1029280002298202298802298E02299402299A0200
:1029380029A00229A60229AC0229B20229B8022933
:10294800BE0229C40229CA0229F11245E002284A16
:102958001243AD02284A12446A02284A123067021A
:10296800284A12383702284A12393302284A123ABA
:102978002F02284A123B2B02284A123C2702284AD7
:1029880012578D02284A1257D402284A12581B029D
:10299800284A12586202284A1258A902284A12588C
:1029A800F002284A12593702284A12597E02284A48
:1029B8001259C502284A125A0C02284A125A5302BE
:1029C800284A12409F02284A90000EE0F9A3E0FA34
:1029D800A3E0900084C9F0A3EAF0A3E9F07BFF7AB2
:0929E8000D79351218D802284AB5
:0129F10022C3
:1061D4002D30732D002D31313131312E00256400E5
:0B4B190090000EEBF0A3EAF0A3E9F01F
:104B2400900013E4F0A37498F012626AE490001207
:104B3400F0C286900011F0C2B2900013E0FEA3E030
:104B4400FF20B35B900011E07055900013E0FEA3CA
:104B5400E0FFEF1F70011EEF4E700590001104F08E
:104B640030B406900011E060E920B433900011E005
:104B7400702D90000EE0FBA3E0FAA3E0F9E5A0128B
:104B84001496900012E004F090000FE475F0011206
:104B940014DC900013E0FEA3E0FF30B4FD80A2D249
:0B4BA400B2D286126260900012E0FFA7
:014BAF0022E3
:0E469600900048EBF0A3EAF0A3E9F0A3EDF0EA
:1046A400900051F0D2B2D2B4C286E4900050F0C26D
:1046B400B290004C12155C00004E2030B3499000BB
:1046C40050E07043C2B2D2B490004CE0FCA3E0FDD1
:1046D400A3E0FEA3E0FFEF24FFFFEE34FFFEED3482
:1046E400FFFDEC34FFFC90004C12155090004CE0A0
:1046F400FCA3E0FDA3E0FEA3E0FFEC4D4E4F70BB36
:10470400A304F0C28280B4900050E0702920B32644
:10471400900048E0FBA3E0FAA3E0F9121450F5A0DE
:1047240012616E900049E475F0011214DC90004BA4
:10473400E014F0E070DA75A0FFD2B2D2B4D2867F72
:06474400627E00026138F4
:102F1F00900022EDF090001FEBF0A3EAF0A3E9F090
:102F2F009000477402F0900029F0A37473F0E4A3AB
:102F3F00F012000E900047EFF090001FE0F9A3E0B1
:102F4F00FAA3E090004BC9F0A3EAF0A3E9F0A3E4E1
:102F5F00F0A3EFF07B017A007929124165900053BD
:102F6F0074FFF0A37461F0A374D4F07B017A00793D
:102F7F00291253FE7F8D124C4F126050EF24309068
:102F8F000023F07F89124C4F126050EF24309000D5
:102F9F0024F07F87124C4F126050EF2430900025A1
:102FAF00F07F85124C4F126050EF2430900026F0C6
:102FBF007F83124C4F126050EF2430900027F0E4C3
:102FCF00A3F07B0190005304F0A37400F0A37423CB
:102FDF00F07A0079291253FE90005374FFF0A37416
:102FEF0061F0A374D9F07B017A0079291253FE9016
:102FFF000022E0A3F0E4A3F07B0190005304F0A3C0
:10300F007400F0A37423F07A0079291253FE7B0128
:10301F007A00792912000E900047EFF0E02429F58D
:10302F0082E43400F5837403F0C2B230B3FD7B0148
:10303F007A007929900047E004FD1246961262202B
:10304F007B017A007929900047E004FD90004C74D1
:08305F0001F0125390026220FF
:10616E00C2B47F287E00126138D2B47F287E00022E
:02617E00613886
:064F940090001FEFF0FB8E
:104F9A00D2B4C286E4A3F0A312155C00003A988B3F
:104FAA00A0C2B230B343900020E0703DA3E0FCA35E
:104FBA00E0FDA3E0FEA3E0FFEF24FFFFEE34FFFED7
:104FCA00ED34FFFDEC34FFFC9000211215509000E7
:104FDA0021E0FCA3E0FDA3E0FEA3E0FFEC4D4E4F71
:104FEA0070C190002004F080BA900020E0700C207C
:104FFA00B30990001FE0F5A012616ED2B2D2B4D20A
:10500A008675A0FF7F627E001261387F627E000291
:02501A006138FB
:0A620D00D2B4D2B2D28675A0FF22EF
:105EC6009000107402F0A37469F07B017A007912D5
:105ED60012422A7F8B124C4F900018EFF0A37403E6
:0C5EE600F07B017A0079107D0A024696DC
:10350E00E4900020F09000107402F0A37444F09048
:10351E00008474FFF0A37461F0A374E1F09001597C
:10352E00E0FFA3E0900087CFF0A3EFF07B017A00DD
:10353E00791B1218D290001F7402F0900020E02424
:10354E001BF582E43400F583E0FF601790001FE066
:10355E002410F582E43400F583EFF0900020E004AF
:10356E00F0801890001FE02410F582E43400F583FB
:10357E00743BF090001FE004F0800890001FE00400
:10358E00F080B890008474FFF0A37461F0A374E12E
:10359E00F0900155E0FFA3E0900087CFF0A3EFF08D
:1035AE007B017A00791B1218D2E4900020F0900073
:1035BE0020E0241BF582E43400F583E0FF601790D1
:1035CE00001FE02410F582E43400F583EFF0900044
:1035DE0020E004F0801890001FE02410F582E434FF
:1035EE0000F583743BF090001FE004F0800890001B
:1035FE001FE004F080B890001FE0FD2410F582E477
:10360E003400F5837403F07B017A0079100246963C
:10564E004461746F73204D46207265737075657377
:10565E0074613A20004461746F73204D4620456E8C
:10566E00766961646F733A20002F2A2D2D2D2D2D12
:10567E002D2D2D2D2D2D2D2D2D2D2D2D2D2D2D2D4C
:10568E002D2D2D2D2D2D2D2D2D2D2D2D2D2D2D2D3C
:07569E002D2D2A2F0D0A003B
:06601100AE07EEC313FE12
:10601700E4FFEFD3940774809480500D00000000D4
:096027000000000000000F80E9F8
:01603000224D
:1060C200E4FFEFD3940474809480500D000000002C
:0960D2000000000000000F80E94D
:0160DB0022A2
:02574500AE07AD
:10574700C2AFC2901260170000AD06EE5401FE70A2
:1057570004C2908002D2901260177C01ECD39407A8
:10576700748094805015EDC313FD5401FE7004C27C
:10577700908002D2901260170C80E1D290126017CD
:05578700126017D2AF13
:01578C0022FA
:025A9A00AB0758
:105A9C00900149E06401703CEB54F0C4540FFFD307
:105AAC00940974809480400674372FFF80047430FE
:105ABC002FFF125745EB540FFFD394097480948039
:105ACC00400674372FFF800474302FFF1257457F28
:045ADC0020125745F8
:015AE00022A3
:0654D1009000311215509D
:1054D700900031E0FCA3E0FDA3E0FEA3E0FF781815
:1054E700121511AB07900031E0FCA3E0FDA3E0FE2D
:1054F700A3E0FF7810121511A3EFF0900031E0FC44
:10550700A3E0FDA3E0FEA3E0FF7808121511A907A9
:10551700900031A3A3A3E0FAAF03125A9A90003583
:0F552700E0FF125A9AAF01125A9AAF02025A9A33
:0E539000900048EBF0A3EAF0A3E9F0A3EDF0E3
:10539E00900149E06401705790004CE0FF3395E0B6
:1053AE00FEEF4E7BFF60067A56794E80047A567970
:1053BE0063125D29E490004DF090004BE0FF9000E9
:1053CE004DE0C39F5024900048E0FBA3E0FAA3E019
:1053DE00F9121450FF125A9A900049E475F0011216
:0F53EE0014DC90004DE004F080CF7F0A12574589
:0153FD00228D
:0B5D290090004EEBF0A3EAF0A3E9F0BD
:105D3400E4A3F0900149E064017027900051F090D1
:105D4400004EE0FBA3E0FAA3E0F9A3E0F58275833B
:105D540000121469FF600B125745900051E004F0E3
:025D640080DDE0
:015D6600221A
:096220007BFF7A567977025D29B3
:10501C007EFF1260C2126017208005747FFF80042F
:10502C00EE4480FF126011EE208005547FFF800358
:10503C004480FF126011EE208005547FFF800344F2
:10504C0080FF126011EE208005547FFF80034480A6
:10505C00FF126011EE208005547FFF80034480FF17
:10506C00126011EE208005547FFF80034480FF12F4
:10507C006011EE208005547FFF80034480FF126096
:10508C0011EE208005547FFF80034480FFAE071291
:07509C0060173080FDAF0634
:0150A30022EA
:05626500D290D280225E
:0E47E900010B00010C00010900010A00C10BC8
:030023000250A4E4
:1050A400C0E0C083C082C0D075D000C000C006C0BC
:0150B40007F4
:1050B500309845C298859908C3E509950AFFE49497
:1050C50000FEEF54804E7018E509547F2422F8A69F
:1050D50008050974222509F87600900147E004F0D7
:1050E500E508B4240890015B7402F0800BE508B470
:1050F5003C0690015B7401F030991AC299E50B6585
:105105000C6010E50C540124A2F8E6F599050CC2D3
:055115000B8002D20B2B
:0F511A00D007D006D000D0D0D082D083D0E032E2
:105EF200D310AF01C3C0D0125D67E4F50BF50CF50A
:105F020009F50AC29FD29EC29DD29CC298C299D262
:0A5F12000BD2ACD2BCD0D092AF226B
:075D6700D310AF01C3C0D04F
:105D6E007D007C087FA8125E58C299E4F50BF50CF5
:105D7E00C28EC2AB43878053890F438920EF600ADE
:105D8E00758DF4758BF4D28E8008758D01758B012F
:025D9E00D28EA3
:055DA000D0D092AF22FB
:105E1D00D310AF01C3C0D09000B4EFF0126192C3A4
:105E2D00EF94027480948040047FFF80199000B439
:105E3D00E0FFE50B540124A2F8A607050B300B0477
:0B5E4D00C20BD2997F00D0D092AF2290
:105F4400D310AF01C3C0D0126180EF70067EFF7F13
:105F5400FF800EAF0A050AEF547F2422F8E6FF7E85
:065F640000D0D092AF2234
:10618000D310AF01C3C0D0C3E509950AFFD0D092A8
:02619000AF223C
:10619200D310AF01C3C0D0C3E50B950CFFD0D09292
:0261A200AF222A
:0E61F300E4F50BF50CF509F50AC298C29922E5
:1060F5004C4956450A00477261626163696F6E20BB
:0861050053657269653A200040
:0E21430090000EEBF0A3EAF0A3E9F0A3EDF09C
:102151006419704490000EE0FBA3E0FAA3E0F912C9
:10216100145064027032900002121469644870289D
:10217100900011E07E0024FFF582EE34FFF583121A
:1021810014696403701290000EA3A3E02403F9E420
:102191003AFA124D65025E9190000EE0FBA3E0FA5F
:1021A100A3E0F912145064B67033900146E0C39471
:1021B100147480948040107FB61248A2C282E490C9
:1021C1000146F0C297C283900149E060030224E70F
:1021D100900148E0640160030224E7803E90000E14
:1021E100E0FBA3E0FAA3E0F912145064AA70409056
:1021F1000146E0C394147480948050030224E7E400
:10220100F0C297D282C283900149E060030224E7C1
:10221100900148E0640160030224E790014904F061
:102221007BFF7A6079F5125D29E4900149F02290F3
:102231000011E06401701790000EE0FBA3E0FAA327
:10224100E0F9121450640170057FFF0223559000DC
:1022510011E06401701790000EE0FBA3E0FAA3E027
:10226100F9121450640270057FFE0223559000118B
:10227100E06401701790000EE0FBA3E0FAA3E0F91F
:10228100121450640470057F04022355900011E07C
:102291006401701790000EE0FBA3E0FAA3E0F912CD
:1022A1001450640770057F07022355900011E06404
:1022B10001701790000EE0FBA3E0FAA3E0F91214FD
:1022C10050640970057F09022355900011E06401F3
:1022D100701690000EE0FBA3E0FAA3E0F91214508F
:1022E10064E770047FE7806C900011E0FF64037085
:1022F1002A90000EE0FBA3E0FAA3E0F9900001129E
:10230100146964557015FE74FF2FF582EE34FFF5E4
:102311008312146964037003025DA5900011E0FF4C
:102321006413703390000EE0FBA3E0FAA3E0F9120E
:10233100145064027021900001121469B44F187E88
:102341000074FF2FF582EE34FFF5831214696403E4
:1023510070057FFE0248A2900011E0FF64137056E1
:1023610090000EE0FBA3E0FAA3E0F912145064021E
:1023710070449000011214696456703AEF24FFFF13
:10238100E434FFFE8F82F583121469640370278F92
:10239100828E83E41214A8E92402F9E43AFA7FFF59
:1023A1001231A5E4900011F0900146740AF07FA16A
:1023B100124F940224DB900011E0FF6406600302D7
:1023C100246890000EE0FBA3E0FAA3E0F912145098
:1023D100640260030224689000011214696457606A
:1023E10003022468FE74FF2FF582EE34FFF5831299
:1023F10014696403707190000EA3A390000212147B
:1024010069FD7B017A0079121256A590001574209E
:10241100F090000EE0FBA3E0FAA3E0F990000312B4
:102421001469FD90000EA3A390000412146990009A
:1024310021F07B017A0079161224E8900148E064CA
:10244100017019125321EFF460077FE01248A28056
:102451000B7B017A007912123FC980007B017A005F
:1024610079127FB00231A5900011E0FF640C705326
:1024710090000EE0FBA3E0FAA3E0F912145064020D
:102481007041FE74FF2FF582EE34FFF5831214695B
:102491006403702F90000EA3A3E02401F9E43AFA3B
:1024A1001261C47BFF7A6079FB125D2990000EE016
:1024B100FBA3E0FAA3E0F9A3E0FD90004C7401F066
:1024C10002539090000EE0FBA3E0FAA3E0F912148E
:1024D1005064AB70117FFF1248A29001457437F030
:0624E1009001507404F0AC
:0124E70022D2
:1029F200466563686120696E6963696F3A20000AFF
:102A02000046656368612066696E3A2000456C2065
:102A12007469636B6574206E6F2065732064656CE6
:102A2200206469612000484F52412041484F524181
:102A32003A2000484F52412044454C205449434BD0
:102A420045543A2000444553505545532044454C83
:102A520020484F524152494F2050524F4752414D08
:102A620041444F0D0A00454E20484F524152494FB2
:102A72002050524F4752414D41444F0D0A000D0A1A
:102A82005665686963756C6F20656E20656C206C95
:102A92006F6F700D0A005665686963756C6F206E02
:102AA2006F20656E20656C206C6F6F700D0A0D0AC9
:102AB200007472616D612064656C206C6563746F73
:102AC2007220646174616C6F67696320636F642054
:102AD2005152000D0A007472616D612064656C20B0
:102AE2006C6563746F7220646174616C6F67696393
:102AF20020636F6420626172726173007472616D2F
:102B0200612064656C206C6563746F72206461740B
:102B1200616C6F676963206E6F20657374612063F7
:102B22006F6D706C6574610D0A00636F6420626181
:102B32007272617300636F6420515220720A004303
:102B42006172726F007469706F20646520766568C7
:102B52006963756C6F3A20006C6F6E676974756497
:102B6200206465206C61207472616D6120746963F8
:102B72006B65743A200A006C6F6E67697475642025
:102B82006465206C61207472616D612066656368A2
:102B9200613A200A004665636861206465207361BA
:102BA2006C6964613A200066696E206465206C6518
:102BB2006374757261206465207472616D610D0ABF
:102BC200005245454E564941205452414D412050F4
:0F2BD200544F20504152414C454C4F0D0A2000AA
:0447F70041015C0020
:105F6A00E4FF121450FDC3943074809480400AD325
:105F7A00ED943974809480400A740129F9E43AFA5C
:035F8A000F80DFA6
:015F8D0022F1
:0860A700F02422F9E4FA7D3E29
:1060AF00E4FF1214506D600A740129F9E43AFA0FF3
:0260BF0080F06F
:0160C10022BC
:0B372E0090001FEBF0A3EAF0A3E9F00D
:103739007B017A00792A1247FC90002AE0FF7E007B
:103749007C017D6D1214CAAC06AD07A3E075F01EAD
:10375900A42DFFEC35F0FEA3E07C002FFFEC3EFE2C
:10376900E4FD90002212155090001FE0FBA3E0FA3F
:10377900A3E0F990000112146975F01EA4FDACF0E4
:10378900C004C005121450FF7E007C017D6D121427
:10379900CAD0E02FFFD0E03EFE9000021214691C4F
:1037A9002FFFEC3EFEE4FD9000261215507BFF7AB8
:1037B9002979F2125D29900022E0FCA3E0FDA3E043
:1037C900FEA3E0FF1254D17BFF7A2A7901125D2909
:1037D9007BFF7A2A7903125D29900026E0FCA3E099
:1037E900FDA3E0FEA3E0FF1254D17BFF7A2A790101
:1037F900125D29900022E0FCA3E0FDA3E0FEA3E016
:10380900FFA3E0F8A3E0F9A3E0FAA3E0FBC31215D4
:1038190000700790003004F0800E7BFF7A2A790F40
:0D382900125D29E4900030F0900030E0FFC7
:01383600226F
:0B361E0090001FEBF0A3EAF0A3E9F01E
:103629007BFF7A2A7928125D297F85124C4F125A1D
:103639009A7F83124C4F125A9A7BFF7A2A79011288
:103649005D297F85124C4FEF3395E0FE7C007D3C70
:103659001214CAC006C0077F83124C4FEFFD339581
:10366900E0FCD0E02DFED0E03C900023F0A3CEF0AA
:103679007BFF7A2A7935125D2990001FE0FBA3E0D0
:10368900FAA3E0F9900003121469FF125FB0125A0D
:103699009A90001FE0FBA3E0FAA3E0F9900004125E
:1036A9001469FF125FB0125A9A7BFF7A2A790112C4
:1036B9005D2990001FE0FBA3E0FAA3E0F990000365
:1036C900121469FF125FB0EF75F03CA4FFAEF0C0B1
:1036D90006C00790001FE0FBA3E0FAA3E0F9900001
:1036E90004121469FF125FB0EFFDD0E02DFFD0E0A6
:1036F9003400FED3900024E09F900023E09E7BFFDE
:10370900400E7A2A7947125D29E4900022F0800D53
:103719007A2A7968125D299000227401F0900022BA
:04372900E0FF7E003F
:01372D002279
:101CF000900150E0146065147003021E23147003F9
:101D0000021E581470030220B61470030221172417
:101D1000056003022111900145E064016003022186
:101D200042C297125321EF60227BFF7A2A798012F8
:101D30005D297FFE1248A290015CE0700B7FA0122B
:101D40004F9490015C7401F00220A97BFF7A2A79FC
:101D500098125D29E490015CF0021E1A900145E0A2
:101D60006401600990015BE0700302214290015B15
:101D7000E0640170287BFF7A2A79B3125D297B0029
:101D80007A007922125D297BFF7A2A79D5125D29A2
:101D90009001457414F09001507403F02290015B9F
:101DA000E064027060785D7C017D01FB7A0079223D
:101DB00012183A7B007A00792212000E900019EF77
:101DC000F0E0FF245CF582E43401F583E4F0D3EF26
:101DD000940A74809480400B1261F37FFE1248A233
:101DE0000220A97BFF7A2A79D8125D297B017A012A
:101DF000795D125D297BFF7A2A79D5125D299001E0
:101E0000507402F0221261F3E490015CF090015BE7
:101E1000F07BFF7A2A79FE125D299001457403F068
:101E20000221117BFF7A2B792C125D29E490015B52
:101E3000F090001B7443F07B017A01795DFD122F55
:101E40001F900148E0600E7B017A01795D90001BD4
:101E5000E0FD123D23022136900145E0640160035C
:101E60000221427BFF7A2B7937125D29E490015BD6
:101E7000F0FB7A007922125F6A900019EF1260A7D6
:101E800090001AEFF090002274FFF0A3742BF0A3DF
:101E90007441F07A0079221242EE90001CEBF0A31C
:101EA000EAF0A3E9F04A90001B60057443F0800358
:101EB000744DF07BFF7A2B7947125D2990001BE06F
:101EC000FF125A9A7BFF7A2A7901125D297BFF7AE9
:101ED0002B795A125D29900019E0FF125A9A7BFF64
:101EE0007A2A7901125D2990001AE0FF125A9A7B32
:101EF000FF7A2A7901125D29E490015DF0900019C2
:101F0000E0FF640C60030220A474222FF9E4FB902C
:101F10000022F0A3CBF0A3E9F090001AE0FF9000BC
:101F200025E4F0A3EFF07B017A01795D125469900A
:101F3000001AE0245DF582E43401F583E4F07B01CE
:101F40007A01795D125D297BFF7A2A7901125D2978
:101F5000900019E02422F9E4FAFB7D3A1260AF9078
:101F60000019E02F1260A790001AEFF07BFF7A2B88
:101F70007979125D29900019E0FF125A9A90001A9F
:101F8000E0FF125A9A7BFF7A2A7901125D299000AC
:101F900019E02424F9E4FB900022F0A3CBF0A3E99C
:101FA000F090001AE0FF900025E4F0A3EFF07B0131
:101FB0007A00790E12546990001AE0240CF582E43C
:101FC0003400F583E4F0900010E024D0C454F0FF16
:101FD000A3E024D04FFF126050900171EFF0900009
:101FE00013E024D0C454F0FFA3E024D04FFF1260CC
:101FF00050900172EFF0900016E024D0C454F0FF2E
:10200000A3E024D04FFF126050900173EFF09000D6
:1020100019E024D0C454F0FFA3E024D04FFF126095
:1020200050900174EFF090001CE024D0C454F0FFF5
:10203000A3E024D04FFF126050900175EFF07BFFBA
:102040007A2B7997125D297B017A00790E125D292E
:102050007BFF7A2A7901125D297B017A017971125D
:10206000372EEF64016002800F7B017A01797112D3
:10207000361EEF64014E60077F5A1248A280307B03
:10208000017A01795D90001BE0FD122F1F9001483D
:10209000E0600E7B017A01795D90001BE0FD123D4E
:1020A00023022136D2AC1261F390014574C8F0903E
:1020B00001507401F0229000227401F0A37401F029
:1020C000A3745DF07B017A0179671242EE90001CE7
:1020D000EBF0A3EAF0A3E9F04A7011D29778677C9D
:1020E000017D017B017A01795D12183A900145E08A
:1020F0006401704EC297D2AC7BFF7A2B79A9125D36
:10210000299001457403F01261F3E490015CF080C2
:1021100001E4900150F022900145E0640170237BBE
:10212000FF7A2B79C3125D297B017A01795D9000DA
:102130001BE0FD122F1F9001457437F09001507481
:0221400004F0A9
:01214200227A
:100D5A00021002E86480F8E933E83360110460F0B5
:100D6A00ED33EC337009E8FCE9FDEAFEEBFF2204FF
:100D7A0060DED3EB9FEA9EE99DE8C2E78CF0C2F7FA
:100D8A0095F0400CE8CCF8E9CDF9EACEFAEBCFFBC6
:100D9A00120FCD85D0F05804700320D5B3E8047043
:100DAA00075002B2D502100C92D5EC0460F7E4CCDD
:100DBA00C0E0C398F8603B94186008400DD0E0FB8F
:100DCA00020FE4E4FBFAC9FC8028E830E406E4C92F
:100DDA00FBE4CAFCE830E305E4C9CACBFCE85407E3
:100DEA006010F8C3E913F9EA13FAEB13FBEC13FCEE
:100DFA00D8F130F52FC3E49CFCEF9BFFEE9AFEED91
:100E0A0099FDD0E0FBEF4E4D4C701222DB0302102D
:100E1A0009EC2CFCEF33FFEE33FEED33FDED30E74A
:100E2A00EB020FE4EF2BFFEE3AFEED39FDD0E0FBCB
:100E3A0050130BBB000302100CED13FDEE13FEEF73
:080E4A0013FFEC13FC020FE49E
:100E5200EC4D6011E8497017ED33EC3304600DE49A
:100E6200FCFFFEFD22E933E8330470F8021002129F
:100E72000FCD58046009E4CC2481500628500902A1
:100E8200100C284003021009C0E0EB4A7044B980FC
:100E920006D0E0FB020FF8EF4E701CBD8008EBFF9E
:100EA200EAFEE9FD80EBE98DF0A4FEE5F0020F3BDE
:100EB200E9CDF9EAFEEBFFEF89F0A4FCE5F0CE897B
:100EC200F0A42EFFE435F0CD89F0A42DFEE435F038
:100ED2008067EF4E7005BD80D780C3EF8BF0A4AC66
:100EE200F0EE8BF0A42CFCE435F0F8EF8AF0A42CA1
:100EF200E5F038FCE433CB8DF0A42CFCE5F03BF8B4
:100F0200EE8AF0A42CFCE5F038F8E433CF89F0A4A3
:100F12002CFCE5F038CF3400CE89F0A42FFFE5F0A9
:100F22003EFEE433C98DF0A42EFEE5F039CD8AF001
:100F3200A42FFFE5F03EFEE43DFD33D0E0FB500779
:100F42000BBB000F02100CEC2CFCEF33FFEE33FE58
:060F5200ED33FD020FE487
:100F580075F020800E75F010800575F0087D007E14
:100F6800007F003392D530D5031214F2EC334010D1
:100F7800EF33FFEE33FEED33FDEC33FCD5F0ED221D
:0E0F8800E5F0247EA2D513CC92E7CDCEFF2259
:100F9600EDD2E7CD33EC3392D524814006E4FFFE53
:100FA600FDFC22FCE4CFCECDCC24E0501174FF80B2
:100FB600EDC3CC13CCCD13CDCE13CECF13CF04704F
:070FC600F030D5DE0214F249
:10186D00E50D2484F582E43400F583E0050D229026
:10187D000081300703900084E475F00112158D028C
:10188D0014502000E97F2ED2008018EF540F2490C1
:10189D00D43440D4FF30040BEF24BFB41A005003EE
:1018AD002461FFE50E6002150E0511E511700205AC
:1018BD001030070E900081E475F00112158DEF02C6
:1018CD001496025CEB7403D2078003E4C207F50D96
:1018DD009000811215A4E4F50EF510F511E50E60DA
:1018ED00077F201218B080F5750FFFC201C200C22C
:1018FD0002C203C205C206C20812187CFF700D3069
:10190D0007057F001218C1AF11AE1022B4255FC2BA
:10191D00D5C20412187CFF24D0B40A00501A75F0F9
:10192D000A780E30D50508B6FF0106C6A426F620A6
:10193D00D5047002D20380D924CFB41A00EF50041D
:10194D00C2E5D204021BB3D20180C6D20080C0D240
:10195D000280BCD2D580BAD20580B47F201218B0D7
:10196D002002077401B50E0040F112186DFF121818
:10197D00B00218EAD208D206809512186DFB121823
:10198D006DFA12186DF94A4B700679B17A1C7BFF0E
:10199D0020022EE50E602A7E008E827583001214C1
:1019AD006960060EEE650F70F0C2D5EBC0E0EAC0BF
:1019BD00E0E9C0E0EE121C14D0E0F9D0E0FAD0E07E
:1019CD00FB121450FF60AAEBC0E0EAC0E0E9C0E0F2
:1019DD001218B0D0E02401F9D0E03400FAD0E0FBC9
:1019ED00E50F0460DCD50FD98087D20280A2121BCF
:1019FD00F660F7E50F7001041210BBA90F600DE53D
:101A0D000F600914F50F121C9EEF60F3EA30E70228
:101A1D00F404C3995079EAF4250F0430E701E40486
:101A2D00F50F800D121BF660C1EA050F250F121080
:101A3D00BBEA9000B0F030E701E4250F04D50F04A8
:101A4D0020050114121C14E4C0E0121C9E9000B07D
:101A5D00E0601320E70714F0121898802204F0D0EC
:101A6D00E014C0E07F00121898E50F600712188F80
:101A7D00150F800B30050312188FD0E00218EAD035
:101A8D00E00480C4121BF6609EE50F041210BB909B
:101A9D0000B0EAF0E50F2005026001042404121CD9
:011AAD001424
:101AAE0074FF04C0E0121C9E121898E50F20050268
:101ABE00600312188FD0E0B50FE87F451218A29080
:101ACE0000B0E07F2B30E7047F2DF404C0E0121845
:101ADE00B0D0E075F00A84C0F0121899D0E0121858
:101AEE00990218EA791080027908C206C2088008A5
:101AFE00D2D5790A8004790AC2D5E50F047002F5B1
:101B0E000FE4FAFDFEFF12186DFC7B082001131284
:101B1E00186DFD7B1030000A12186DFE12186DFF45
:101B2E007B20EC3382D592D55013C3E43000069F50
:101B3E00FFE49EFEE42001039DFDE49CFCE4CBF853
:101B4E00C201EC700CCFCECDCCE824F8F870F38047
:101B5E0017C3EF33FFEE33FEED33FDEC33FCEB3307
:101B6E00FB994002FB0FD8E9EB300105F8D0E0C439
:101B7E0048B201C0E00AEC4D4E4F78207B0070C297
:101B8E00EAB50F0040BCC0E0121C16D0F0D0E02029
:101B9E000104C4C0E0C4B201C0F0121899D0F0D54F
:101BAE00F0EB0218EA1215AD1987531AF2581958AC
:101BBE004C1954421AF64F1AFE441AFE49196D4337
:101BCE001B04551A31461A914519FB471CD1501961
:101BDE005C2D19602E19832B1964231981201CBAD0
:101BEE002A191C480000197BE50FB4FF03750F0678
:101BFE0012186DFC12186DFD12186DFE12186DFF85
:101C0E009000A90210F8790AA2D520031430050914
:101C1E00B910020404B9080104A2D520060250012D
:101C2E00042002689202B50E005034C0E07F2030CE
:101C3E0003197F30A20272067205500F121C6DC27C
:101C4E0002C206C205C2087F30800F300503E9C00C
:101C5E00E01218B0300503D0E0F9D0E0B50ECC306C
:101C6E0005177F30B9100C1218B07F583004077F5B
:101C7E00788003B908031218B03002057F2D0218C0
:101C8E00B07F202008F87F2B2006F322920280CF0F
:101C9E007F00B40700500B24A9F582E43400F583CD
:101CAE00E0FF22286E756C6C2900D20112186D307F
:101CBE0001F8C201780E30D50108F602191C2D501C
:101CCE0043495812186D2403B405004001E4901CDA
:101CDE00CC931218A1743A1218A1D203750E0402F5
:021CEE001AF2E8
:102DB900900029121550E4FFFE7D807C3F90002988
:102DC900E0F8A3E0F9A3E0FAA3E0FB1210317006E2
:102DD900900029022F13900029E0FCA3E0FDA3E055
:102DE900FEA3E0FF121017FBA3E0FCA3E0FDA3E0A4
:102DF900FEA3E0FF121017FFB40108E4FFFE7D8077
:102E09007C3F22EF64046029EB64046024EBB40185
:102E190030E4FFFEFDFC90002DE0F8A3E0F9A3E00B
:102E2900FAA3E0FB12103160084006E4FFFEFDFC46
:102E39002290002D12155CFFFFFFFF90002D022F3D
:102E490013E4900031F0A3F0FFFEFDFC900029E0AF
:102E5900F8A3E0F9A3E0FAA3E0FB121031505F9068
:102E6900002DE0FCA3E0FDA3E0FEA3E0FF120F9616
:102E7900900031EEF0A3EFF0FDCCEECCEC120F5D3B
:102E8900C8ECC8C9EDC9CAEECACBEFCB90002DE09A
:102E9900FCA3E0FDA3E0FEA3E0FF120D5DE4FBFA55
:102EA900F9F8121031708A900029E0FCA3E0FDA323
:102EB900E0FEA3E0FF1210AA90002912155090001D
:102EC90029E0FCA3E0FDA3E0FEA3E0FF1233079095
:102ED900002DE0F8A3E0F9A3E0FAA3E0FB120E52FB
:102EE900124AB790002D121550900032E030E017C9
:102EF90090002DE0FCA3E0FDA3E0FEA3E0FF12108B
:102F0900AA90002D12155090002DE0FCA3E0FDA31E
:062F1900E0FEA3E0FF2230
:100FCD00E9D2E7C933E833F892D5EDD2E7CD33EC6A
:070FDD0033FC5002B2D522E3
:100FE400EC30E7100FBF000C0EBE00080DBD00046E
:100FF4000BEB6014A2D5EB13FCED92E7FD2274FF1A
:10100400FCFDFEFF22E480F8A2D574FF13FC7D8072
:03101400E480EF86
:10101700ED33EC33601004700FED547F70057402EC
:0A10270092E0227404220422E42265
:1010310074F8CC6480CCC86480C8F58204604FC366
:10104100EB9FF5F0EA9E42F0E99D42F0E89C45F005
:10105100603C501DE5825FFFE582D313CB5BCBF48F
:101061002B5582FB50280ABA002409B900200880B8
:101071001DE5825BFBE582D313CF5FCFF4C3132F52
:101081005582FF50090EBE00050DBD00010CC3EBDA
:101091009FF5F0EA9E42F0E99D42F0E89C45F06040
:0910A10007CC4820E701B3EC2262
:1010AA00ED33EC33600A047003BD8004ECB2E7FC54
:0110BA002213
:1010BB00F920E73624F950037907E4F42402FBE521
:1010CB0082158270021583DBF6E024FB501BE9606E
:1010DB0014E4F0E582158270021583E004F0B40A83
:0D10EB0008E4F0D9EE7401F00A22C2D5220B
:1010F800ED33EC3392D5FA602AB4FF33EDC2E77BC7
:10110800FF60067A11791DE4227A11792620D50428
:101118007A117921224E614E002B494E46002D4905
:101128004E4600E47A08F0A3DAFC7B00740722C07C
:1011380083C082ECC0E0EDC0E0EEC0E0EFC0E0EAC2
:1011480075F010A4CAABF075F04DA42BFBE435F094
:10115800FCEA2410FAEB34C5FBEC34D9FCEDC2E709
:10116800FF75F056A4F42411C5F0F434C58FF0A42B
:101178002AE5F03BE43CF020E7141212CDD0E0FF62
:10118800D0E0FED0E0FDD0E0FC1212008014F404A0
:101198001212CDD0E0FFD0E0FED0E0FDD0E0FC128E
:1011A8000E52D082D083E0FAEDD2E7CD33EC33246F
:1011B80082FBE4C3CF33CFCE33CECD33CD33DBF395
:1011C8007B0775F00A846004F0A31B0AE5F0F0A31E
:1011D8008FF0740AA4FFACF08EF0740AA42CFEAC55
:1011E800F050010C8DF0740AA42CFDE435F0F0A346
:0511F800DBDE7407229C
:104A7F0033DA929E35B16011377FE5FE3921848993
:104A8F003AAEC3FF3C1D955B3D6358473E75FDF045
:104A9F003F3172183F800000C2D502100C02100285
:104AAF00BD80FA50F3021009ED33EC330460F17B53
:104ABF003B7AAA79B8783F120E52ED33EC3392D588
:104ACF00247B5011A2D570DB500BED448024045091
:104ADF0004A2D580CEEFFBEEFAEDF9ECF8120F96AB
:104AEF00EFF582F404FC120F62120D61C082904A3E
:104AFF007F740912131CED33CC33D0F092D525F00F
:0A4B0F00A2D57001C313CC13FD22E0
:1032D3003E9248DA3ECCCCCD3F2AAAAB4000000058
:1032E3003F8000003F9837F03FB504F33FD744FCDD
:1032F3003E3172173EB172173F0515913EDE5BD921
:10330300D2008002C200EDD2E7F8CD33EC33047073
:103313000BBD800592D502100C02100240FBD314A2
:1033230060F2F5F07C3FEE7A00C39496C8948B402C
:10333300230AC89469C8941A401A0AC89468C8949E
:103343001F40110AC8945AC89425400805F07A0012
:10335300CDC2E7CDC0F0900033121550EA2323C04D
:10336300E024E3F582E43432F583121540120D6153
:10337300ECC0E0EDC0E0EEC0E0EFC0E01215249039
:103383000033121534120D5DD0E0FBD0E0FAD0E02B
:10339300F9D0E0B2E7F81212009000331215509002
:1033A30032D3740312130D900033121534120E52DC
:1033B300D0E0600F24EFF582E43432F58312154038
:1033C300120D61900033121550D0E0C3947FFDE4D9
:1033D3009400FC120F5D7B187A727931783F120EDC
:1033E30052900033121534120D6130000B7BD97AE1
:0933F3005B79DE783E120E5222D5
:1011FD0002100CEC5D046005E85904700302100246
:10120D00120FCD580460F6EC4860F2EC7004FDFE50
:10121D00FF22C860DB2481C85009C39860025006C4
:10122D000210099850CAF582E9294B4A7005AB8224
:10123D00020FF875F0007C1A7880C3EF9BEE9AEDE3
:10124D0099400DC3EF9BFFEE9AFEED99FDE842F03C
:10125D00DC23ACF0D0E0FFD0E0FED0E0FDAB82208F
:10126D00E7101BEB60BAEC2CFCEF33FFEE33FEED19
:10127D0033FD020FE4E803F830E705C0F075F00028
:10128D00EF2FFFEE33FEED33FD40B830E7C280AAFD
:10129D003F8000004120000042C80000447A000059
:1012AD00461C400047C35000497424004B189680DB
:1012BD004CBEBC205A0E1BCA6753C21C749DC5AED2
:1012CD00FB60065407601C23231212FBEB5438609D
:1012DD00091212E71212F6120E52ECF8EDF9EEFAAF
:1012ED00EFCB22EB1212F680F1543803241C90122E
:1012FD009DFE93FC0EEE93FD0EEE930ECE93FF220C
:10130D00C0E0EFFBEEFAEDF9ECF8120E52D0E0F57D
:10131D00F0EFFBEEFAEDF9ECF8121524A3A3A3A35D
:10132D00E8C0E0E9C0E0EAC0E0EBC0E0C0F0120EBA
:10133D0052121540A3A3A3A3120D61D0F0D0E0FB70
:0D134D00D0E0FAD0E0F9D0E0F8D5F0D422DD
:03000000024DF4BA
:0C4DF400787FE4F6D8FD7581AB024E3BE1
:10135A00E709F608DFFA8046E709F208DFFA803E75
:10136A0088828C83E709F0A3DFFA8032E309F60862
:10137A00DFFA8078E309F208DFFA807088828C83CA
:10138A00E309F0A3DFFA806489828A83E0A3F6087E
:10139A00DFFA805889828A83E0A3F208DFFA804C58
:1013AA0080D280FA80C680D4806980F2803380102F
:1013BA0080A680EA809A80A880DA80E280CA803398
:1013CA0089828A83ECFAE493A3C8C582C8CCC58310
:1013DA00CCF0A3C8C582C8CCC583CCDFE9DEE780E0
:1013EA000D89828A83E493A3F608DFF9ECFAA9F05F
:1013FA00EDFB2289828A83ECFAE0A3C8C582C8CCB5
:10140A00C583CCF0A3C8C582C8CCC583CCDFEADECD
