:03650900200A0065
:1049AA004101450A410146004101520041014700C7
:1049BA004101500041014E0041015B0049013C00A8
:1049CA0000000000000000004101510641015803A7
:0649DA00410157F2C10982
:03000B0002637815
:10637800C0E0C083C082900145E014F0A3E004F0BF
:09638800C28DD082D083D0E03236
:10644000E58954F04401F589E4F58CF58AD28C2273
:0564FC00C28DD2A922AF
:03650600C2A92205
:0B649D001261E0EFF47002EEF460F515
:0164A80022D1
:055F4B009000B1EFF031
:105F50009000B1E0FF1260B9EF3395E04F6024E4A8
:105F60009000B2F0A3F0C39000B3E094E89000B2C8
:105F7000E0940350DBA3E004F070EB9000B2E00487
:085F8000F080E39000B1E0FFA6
:015F880022F6
:106450001265011264C51264A9C283D287C2972251
:1050E000E4FDFC7FA81260F4900159E4F0A3EFF016
:1050F0007D027C007FA81260F4900155E4F0A3EFDC
:10510000F07D047C007FA81260F4900153E4F0A3CA
:10511000EFF07D067C007FA81260F490014CE4F073
:10512000A3EFF07D087C007FA81260F4900149EFA6
:10513000F07D0A7C007FA81260F4900148EFF07DBA
:105140000C7C007FA81260F490014FEFF07D0E7C84
:10515000007FA81260F490014BEFF07D0B7C007F84
:0A516000A81260F490014AEFF0225B
:104784001264401264FC12618E125FC7126450D22C
:10479400AF1262B312635E7F611259A51264CC201A
:1047A4009103122A5A1250E0126041900145740399
:1047B400F020803F7B017A007900124E1090000DAA
:1047C400EFF01264BC7B017A00790090000DE0FDEB
:1047D400124C447B017A00790090000DE0FD9000BA
:1047E4004C7401F01255F07B017A01793C125F8917
:1047F4001264BC121CF020B33D7B017A01791412BF
:104804004D7990000DEFF0FD7B017A017914900051
:104814004C7401F01255F090000DE0FF125CFA7B2D
:10482400FF7A657909125F897B017A017914900016
:0C4834000DE0FD12216712550E0247B581
:08000300D29412650CC2942294
:055E8E0090004CEFF054
:105E9300E4A3F0A3F090004CE0FFA2E713F030D7A7
:105EA30004D2958002C29512000390004EE004F0E4
:105EB300700690004DE004F0C390004EE09408900B
:095EC300004DE06480948040CCA5
:015ECC0022B3
:0A4EA500EBF0A3EAF0A3E9F07F8D23
:054EAF00900049EFF046
:104EB400D2967F037E001263D4900049E0FF125E15
:104EC4008EE490004AF0A3F090004AE0FCA3E0FDD9
:104ED400C39408EC64809480504F30951690017808
:104EE400E04480F0ED9406EC648094805005E0FF8B
:104EF400C313F0209520900178E0547FF0D3900004
:104F04004BE0940690004AE064809480500890013D
:104F140078E0FFC313F012000390004BE004F0703C
:104F2400A790004AE004F0809FC296900178E0FFC9
:014F3400225A
:1061B800900020EFF0A3EDF0D2967F037E001263EB
:1061C800D4900020E0FF125E8E900021E0FF900046
:0861D80020F0125E8EC2962237
:105DCC0090001EE475F0011214DC90001EE475F0D6
:105DDC00011214DC90001EE475F0011214DC90002A
:105DEC001DE0FBA3E0FAA3E0F9121450FF900001B0
:045DFC00121469FD17
:0C5E0000EF540FC454F0FFED540F4FFF9F
:015E0C002273
:104FC50090001DEBF0A3EAF0A3E9F0125DEAAD074E
:104FD5007F861261B8125DCCAD077F881261B890EB
:104FE500001EE475F0011214DC90001EE475F0015A
:104FF5001214DC125DCCAD077F8C1261B8125DCC4A
:10500500AD077F841261B8125DCCAD077F82126156
:10501500B8125DCCAD077F801261B890001EE475B3
:10502500F0011214DC90001EE475F0011214DC90FE
:10503500001EE475F0011214DC90001DE0FBA3E0F6
:0F504500FAA3E0F9121450540FFD7F8A0261B8EC
:1062EC00AE07EEC4540F540FFE6012EF540FFFE4D0
:0D62FC00FDEDC39E5007740A2FFF0D80F4C6
:016309002271
:10624C00E4FEFDFCECC39F500B0DED640A7002FDE7
:10625C000E0C80F0EEC454F054F0FEED540F4EFFD3
:01626C00220F
:10590500E4FFFE90001DEDF090001DE0C39464746B
:105915008094804007E0249CF00F80ECEF44301227
:105925001496740129F9E43AFA90001DE0C3940A2B
:10593500748094804007E024F6F00E80ECEE44304D
:10594500121496740129F9E43AFA90001DE04430E6
:03595500021496A3
:0E250C0090001DEBF0A3EAF0A3E9F0A3EDF0C0
:10251A00E4900022F0A3F0900025F0A3F0A3F0A32A
:10252A00F0900024EDF054F0F0E0FFC4540FF09066
:10253A00002D12155C404000007F007E007D807CEB
:10254A0041122E6CC004C005C006C007900024E0EA
:10255A00FCE4120F62D003D002D001D000120E5256
:10256A00C004C005C006C007900022E0FCA3E0FD3D
:10257A00E4120F5DD003D002D001D000120D611217
:10258A000F96900022EEF0A3EFF0900020E090006A
:10259A0024F0540FF090002D12155C400000007FCB
:1025AA00007E007D807C41122E6CC004C005C006EE
:1025BA00C007900024E0FCE4120F62D003D002D0DE
:1025CA0001D000120E52C004C005C006C007900018
:1025DA0022E0FCA3E0FDE4120F5DD003D002D0019B
:1025EA00D000120D61120F96900022EEF0A3EFF0C8
:1025FA00900021E0900024F054F0F0E0FFC4540F62
:10260A00F090002D12155C3F8000007F007E007D57
:10261A00807C41122E6CC004C005C006C007900021
:10262A0024E0FCE4120F62D003D002D001D00012E1
:10263A000E52C004C005C006C007900022E0FCA3E9
:10264A00E0FDE4120F5DD003D002D001D000120DDC
:10265A0061120F96900022EEF0A3EFF0900021E0B5
:10266A00900024F0540FF090002D12155C00000029
:10267A00007F007E007D807C41122E6CC004C00564
:10268A00C006C007900024E0FCE4120F62D003D019
:10269A0002D001D000120E52C004C005C006C00705
:1026AA00900022E0FCA3E0FDE4120F5DD003D0020B
:1026BA00D001D000120D61120F96900022EEF0A305
:1026CA00EFF0C3EF9410EE9427401074F02FFF74CC
:1026DA00D83EFE900025E004F080E7900025E04413
:1026EA0030FD90001DE0FBA3E0FAA3E0F9ED12141F
:1026FA009690001EE475F0011214DCC3EF94E8EE24
:10270A009403401074182FFF74FC3EFE900026E0DC
:10271A0004F080E7900026E04430FD90001DE0FBC5
:10272A00A3E0FAA3E0F9ED12149690001EE475F006
:10273A00011214DCC3EF9464EE94004010749C2FD1
:10274A00FF74FF3EFE900027E004F080E790002728
:10275A00E04430FD90001DE0FBA3E0FAA3E0F9EDB0
:10276A0012149690001EE475F0011214DCC3EF9463
:10277A000AEE9400401074F62FFF74FF3EFE90009C
:10278A0028E004F080E7900028E04430FD90001D26
:10279A00E0FBA3E0FAA3E0F9ED12149690001EE420
:1027AA0075F0011214DCEF4430FF90001DE0FBA32A
:1027BA00E0FAA3E0F9EF12149690001EE475F00116
:1027CA001214DC90001DE0FBA3E0FAA3E0F9E40296
:0227DA00149653
:032C940090004667
:102C9700124EA5EF54F0C4540F4430FE900046E0A6
:102CA700FBA3E0FAA3E0F9EE121496900047E4754F
:102CB700F0011214DCEF540F4430FF900046E0FBA4
:102CC700A3E0FAA3E0F9EF121496900047E475F039
:102CD700011214DC7F89124EAFEF54F0C4540F4435
:102CE70030FE900046E0FBA3E0FAA3E0F9EE1214F1
:102CF70096900047E475F0011214DCEF540F44304E
:102D0700FF900046E0FBA3E0FAA3E0F9EF12149668
:102D1700900047E475F0011214DC7F87124EAFEF85
:102D270054F0C4540F4430FE900046E0FBA3E0FA91
:102D3700A3E0F9EE121496900047E475F00112141F
:102D4700DCEF540F4430FF900046E0FBA3E0FAA30A
:102D5700E0F9EF121496900047E475F0011214DCC5
:102D67007F85124EAFEF54F0C4540F4430FE9000ED
:102D770046E0FBA3E0FAA3E0F9EE121496900047B1
:102D8700E475F0011214DCEF540F4430FF90004655
:102D9700E0FBA3E0FAA3E0F9EF121496900047E4F2
:102DA70075F0011214DC7F83124EAFEF54F0C45458
:102DB7000F4430FE900046E0FBA3E0FAA3E0F9EEF3
:102DC700121496900047E475F0011214DCEF540FCB
:102DD7004430FF900046E0FBA3E0FAA3E0F9EF12CE
:102DE7001496900047E475F0011214DC7F81124EAF
:102DF700AFEF54F0C4540F4430FE900046E0FBA3FD
:102E0700E0FAA3E0F9EE121496900047E475F0019A
:102E17001214DCEF540F4430FF900046E0FBA3E0B0
:102E2700FAA3E0F9EF121496900047E475F0011247
:102E370014DC7F8B124EAFEF540F4430FF900046E7
:102E4700E0FBA3E0FAA3E0F9EF121496900047E441
:102E570075F0011214DC900046E0FBA3E0FAA3E052
:052E6700F9E4021496DD
:104A5C00900031124EA51262EC900031E0FBA3E005
:104A6C00FAA3E0F9EF121496900032E475F00112FB
:104A7C0014DC7F89124EAF1262EC900031E0FBA384
:104A8C00E0FAA3E0F9EF121496900032E475F0010D
:104A9C001214DC7F87124EAF1262EC900031E0FBF7
:104AAC00A3E0FAA3E0F9EF121496900032E475F04B
:104ABC00011214DC7F85124EAF1262EC900031E0D3
:104ACC00FBA3E0FAA3E0F9EF121496900032E47520
:104ADC00F0011214DC7F83124EAF1262EC900031A5
:104AEC00E0FBA3E0FAA3E0F9EF121496900032E495
:064AFC0075F0010214DC5C
:1044870090002A124EA590002AE0FBA3E0FAA3E0D1
:10449700F9EF12149690002BE475F0011214DC7FEB
:1044A70089124EAF90002AE0FBA3E0FAA3E0F9EFF0
:1044B70012149690002BE475F0011214DC7F87121A
:1044C7004EAF90002AE0FBA3E0FAA3E0F9EF121445
:1044D7009690002BE475F0011214DC7F85124EAF25
:1044E70090002AE0FBA3E0FAA3E0F9EF12149690FC
:1044F700002BE475F0011214DC7F83124EAF90009D
:104507002AE0FBA3E0FAA3E0F9EF12149690002B40
:10451700E475F0011214DC7F81124EAF90002AE09F
:10452700FBA3E0FAA3E0F9EF12149690002BE475D1
:10453700F0011214DC90002AE0FBA3E0FAA3E0F9F3
:04454700E4021496E0
:0764C500C294C296D2952299
:1063D400E4FDFCC3ED9FEC9E50070DBD00010C8055
:0163E400F2C6
:0163E5002295
:04632800AB07AA060F
:10632C00900000C3E5829BE5839A500A7F967E001D
:06633C001263D4A380ED02
:016342002238
:01650C00226C
:03626D0012622A90
:10627000D20AD293D292E4FFFE209205C20AC293C0
:0C628000220FBF00010EBE04F0BF4CED69
:01628C0022EF
:03628D0012622A70
:10629000D293D292D20AE4FFFE209205C20AC293A0
:0C62A000220FBF00010EBE02F0BF8AED0D
:0162AC0022CF
:0664F600D29300C29322C4
:10622A00E4FEEEC39408748094805015EF25E0FFD5
:10623A0030D704D2928002C292D2931264F60E80B0
:01624A00E172
:01624B002230
:0863E600ECFD7C00C293C292A1
:0A63EE00D292D29300C292C2932211
:0964B300C293C292D293D292224C
:10595800E4FBEBFDC39408748094805038C2933004
:105968009216900173E04401F0ED940674809480DF
:105978005006E025E0F0D293209217900173E0548E
:10598800FEF0EBD39406748094805006E025E0F096
:0C599800D2930B80BDC293900173E0FF1E
:0159A40022E0
:025ECD00AA0722
:105ECF00AF05A9071263E6AF0212626DAF0512624A
:105EDF006DAF0112622A126270AF0312622A126250
:105EEF00701264B37F0D7E00126328D293D2927F1B
:0D5EFF00627E001263D47F627E000263D4D5
:0260F400AB07F8
:1060F600AF05AA071263E6AF0312628DAF051262FF
:106106008DAF0212622A1262901263EEEB04FF1246
:10611600622A126270C2931259581264B3D293D291
:0661260092900173E0FFFE
:01612C002250
:1058560090007DEEF0A3EFF0A3EBF0A3EAF0A3E94E
:01586600F051
:1058670090007DE0FCA3E0FD7FA81260F490007F2C
:10587700E0FBA3E0FAA3E0F9EF12149690007FE0B3
:10588700FBA3E0FAA3E0F9121450FF90007EE004B6
:10589700F0700690007DE004F0900080E475F00160
:0658A7001214DCEF70BAE0
:0158AD0022D8
:10516A0090007DEFF0A3ECF0A3EDF0A3EBF0A3EA3F
:10517A00F0A3E9F0900080E0FBA3E0FAA3E0F912C3
:10518A001450603CB40D04E412149690007DE0FFC4
:10519A00A3E0FCA3E0FDA3E0FBA3E0FAA3E0F9127D
:1051AA001450FB125ECD90007FE004F07006900070
:1051BA007EE004F0900081E475F0011214DC80B402
:1051CA00900080E0FBA3E0FAA3E0F9E412149690C1
:1051DA00007DE0FFA3E0FCA3E0FDA3E0FBA3E0FA6F
:0A51EA00A3E0F9121450FB025ECDA1
:10600500E4FF7B017A00791D122C9490001DE02499
:10601500D064027026A3E024D0C3940274809480D7
:106025004019A3E024D0FF700FA3E024D0C394034C
:0B6035007480948040058000125F0C16
:01604000223D
:105F0C0090002874FFF0E4A3F0A3F0900029E0FCCB
:105F1C00A3E0FDC39450EC9403501A900028E0FBCE
:105F2C007FA8125ECD90002AE004F070DE9000296C
:0F5F3C00E004F080D6E4FBFD7C087FA8025ECD78
:10604100E4FB7D997C027FA8125ECD90000E740462
:10605100F0A3E4F090000EE0FCA3E0FDC394FFEC9C
:1060610094055017E4FB7FA8125ECD90000FE00469
:0B607100F070E190000EE004F080D918
:01607C002201
:104BA40053656E736F726573204175746F2079203D
:104BB40073656E736F72312061637469766F732EDF
:104BC4000053656E736F722061637469766F20732E
:104BD400656E736F7231202E004465746563746171
:104BE400646F2E2053656E736F72204175746F2E3F
:104BF4000053656E736F726573206E6F2064657405
:104C040065637461646F73005665686963756C6F7E
:104C1400204573706572616E646F2053616C6972B4
:104C24002E005665686963756C6F2053616C696505
:104C34006E646F2E20556E206D6F6D656E746F00FF
:0764CC00C2B5C2B6C2B7223F
:0764D300C2B5D2B6C2B72228
:0764DA00C2B5C2B6D2B72221
:0764E100D2B5C2B6D2B7220A
:0764E800C2B5D2B6D2B72203
:0764EF00D2B5D2B6D2B722EC
:1062CD00E4FF7DF47C01309115EFFB3395E04B70CD
:0E62DD000DED1D70011CED4C70EC7F0180E892
:0162EB002290
:1063F8007F311264E83091010F1264EF3091020F7F
:016408000F84
:016409002270
:105581001264DA30915D1262CDEF3395E0FEEF6483
:10559100014E70471264E12091231264D37BFF20F6
:1055A100910D7A4B79A4125F89E490014E80227AA1
:1055B1004B79C5125F8990014E740180141264D336
:1055C1007BFF2091107A4B79DD125F8990014E7437
:1055D10001F07FFF227A4B79F5800E7BFF7A4C79BF
:0F55E1000C80067BFF7A4C7926125F897F0022AF
:10550E001264CC20916190000EE07014A3E0701034
:10551E0030B35404F012616290000E7401F08047B3
:10552E0090000EE064017014A3E0701030B33804E4
:10553E00F01235C190000E7402F0802B90000EE038
:10554E0064027023A3E0701F30B31C04F07D667CF0
:10555E00007FA81260F4BF53047F5380027F4E1267
:10556E0051F4E490000EF01264CC309105E49000FA
:02557E000FF02C
:015580002208
:0B4E100090000EEBF0A3EAF0A3E9F025
:104E1B00E4900012F0A3740CF0900148E064017070
:104E2B0073900011F0900013E0FF900011E0C39F0E
:104E3B005053E4FFFEFD30801DED701A0FBF0001D3
:104E4B000ED3EF9430EE947540EC7D01900013E09F
:104E5B00900011F080E0ED6401602A12527C90000A
:104E6B000EE0FBA3E0FAA3E0F9EF12149690000F0B
:104E7B00E475F0011214DC900012E004F0900011C4
:104E8B00E004F080A090000EE0FBA3E0FAA3E0F9B1
:094E9B00E4121496900012E0FFED
:014EA40022EB
:0B4C440090000EEBF0A3EAF0A3E9F0F3
:104C4F00E4FF7E029000021214696403701C90004E
:104C5F000EE0FBA3E0FAA3E0F9900001121469B48F
:104C6F005008D297E4900146F02290000EE0FBA38B
:104C7F00E0FAA3E0F9900001121469643C705090BF
:104C8F00000EE0FBA3E0FAA3E0F98E827583001219
:104C9F001469FD743C2FF582E43401F583EDF00EB9
:104CAF000F8E82758300121469640370D290000E08
:104CBF00E0FBA3E0FAA3E0F98E82758300E41214FF
:0F4CCF00A8743B2FF582E43401F583E4F0D20999
:014CDE0022B3
:0E5E0D00900046EBF0A3EAF0A3E9F0A3EDF05D
:105E1B00E4A3F0900049E0FFA3E0C39F502490005F
:105E2B0046E0FBA3E0FAA3E0F9121450FF1259A5C8
:105E3B00900047E475F0011214DC90004AE004F086
:025E4B0080D104
:015E4D002232
:0B41570090001DEBF0A3EAF0A3E9F0DC
:1041620090003E7403F090002014F01263F8900067
:1041720021EFF0A37453F090014EE090003E6013E3
:10418200E0FF04F074202FF582E43400F583744DCF
:10419200F08011E0FF04F074202FF582E43400F582
:1041A200837443F090003E7404F090001DE0FBA382
:1041B200E0FAA3E0F9121450FF602190003EE024DF
:1041C20020F582E43400F583EFF090001EE475F0F0
:1041D200011214DC90003EE004F080CE90003EE03C
:1041E200FF04F074202FF582E43400F583743AF072
:1041F20090003EE02420F9E43400FA7B01122C9472
:1042020090003EE0FF242AF582E43400F583743AFC
:10421200F0742B2FF582E43400F5837403F07B01F4
:0B4222007A007920EF240CFD025E0DF5
:0E3DD40090001FEBF0A3EAF0A3E9F0A3EDF0DE
:103DE200A37402F01263F8900024EFF0A37453F06E
:103DF200E4A3F0900022E0900042F0E4A3F07B0103
:103E020090005304F0A37400F0A37442F07A007996
:103E12002312565E90001FE0F9A3E0FAA3E090009F
:103E220053C9F0A3EAF0A3E9F07B017A00792312E7
:103E3200565E900042743AF0E4A3F07B0190005386
:103E420004F0A37400F0A37442F07A0079231256AE
:103E52005E7B017A00792312000E900041EFF0247C
:103E620023F9E43400FA7B01122C94900041E0FF24
:103E7200242DF582E43400F583743AF0742E2FF584
:103E820082E43400F5837403F0742F2FF582E43456
:103E920000F583E4F074302FF582E43400F583E416
:103EA200F07B017A00792312000E900041EFF0FDC1
:093EB2007B017A007923025E0D08
:1064600090000AE41214A87D007C057FA802516AFE
:1034AF00613B38353B4143455251554520535520DB
:1034BF005449434B45540A0000613B38393B47524E
:1034CF004143494153202E2E2E2E2E200A000061FB
:1034DF003B39373B4E6F2054494B4554204E4F20BC
:1034EF005245474953545241444F200A0000613B13
:1034FF0038383B45584345444520484F524152497F
:10350F004F2E2E2E0A0000613B39353B554E204D74
:10351F004F4D454E544F202E2E2E2E200A00006167
:10352F003B39363B53494E2050524553454E434944
:10353F0041205645484943554C41522E2E2E2E20A0
:10354F000A0000613B39303B4E4F205245474953EB
:10355F00545241205041474F2E2E2E2E200A00004C
:10356F00613B39303B444952494A41534520412040
:10357F0043414A410A000057494547414E44200004
:10358F00613B39323B4752414349415320000A00C6
:10359F0000613B39383B57494547414E442000AA0B
:1035AF00802807200000000000140000AA801801E6
:0235BF00020008
:05630A00900055EDF0CC
:10630F00125F4B900056EFF0900055E0600AE4FFEB
:08631F00125F4B900056EFF0F5
:016327002253
:0E607D00900050EBF0A3EAF0A3E9F0A3EDF0E1
:10608B00E4A3F0900050E0FBA3E0FAA3E0F990004A
:10609B0054E0F582758300121469FF601090005371
:0D60AB00E0FD12630A900054E004F080D67E
:0160B80022C5
:0E5D410090002AEBF0A3EAF0A3E9F0A3EDF046
:105D4F00E490002FF090002DE0FF90002FE0FEC3B5
:105D5F009F502490002AE0FBA3E0FAA3E0F98E8283
:105D6F00758300121469FF90002EE0FD12630A90F4
:075D7F00002FE004F080CECC
:015D860022FA
:10612D00781D7C007D017BFF7A3579AE7E007F0D79
:10613D0012142AC2877B017A007922124487C29CED
:10614D007B017A00791DE490002EF07D0D125D41EA
:04615D00D29CD28777
:01616100221B
:0957F80012183A7B017A00791FB6
:0B580100900050EBF0A3EAF0A3E9F0E8
:10580C0012000E900054EFF0E4900053F09000540E
:10581C00E0FF900053E0FEC39F502E900050E0FB41
:10582C00A3E0FAA3E0F98E82758300121469FF12CB
:10583C005F4BE4FFEFC394C87480948050030F80D7
:09584C00F3900053E004F080C465
:015855002230
:104B0200C28790014AE07003D28722C287EF24FC59
:104B1200603724FD604124FE604C24AF6072247A29
:104B2200605224F9605C24E86011047072781F7C82
:104B3200007D017BFF7A3479AF8061781F7C007D34
:104B4200017BFF7A3479C88053781F7C007D017B1A
:104B5200FF7A3479DE8045781F7C007D017BFF7A05
:104B62003479FD1257F8781F7C007D017BFF7A357E
:104B720079168028781F7C007D017BFF7A35792E9B
:104B8200801A781F7C007D017BFF7A357952800C78
:104B9200781F7C007D017BFF7A35796F1257F8D23E
:014BA200878B
:014BA30022EF
:0E32580090001DEFF0A3EBF0A3EAF0A3E9F065
:1032660078217C007D017BFF7A3579BB7E007F0665
:1032760012142AC28790014AE0706690001DE0246D
:1032860050705B7B017A007921E4FD12607D7BFF43
:103296007A35798612000E90004FEFF090001EE00E
:1032A600FBA3E0FAA3E0F912000E90004FE02F0412
:1032B600F0E4FDFF12630A90004FE025E0FFE4FD15
:1032C60012630A7BFF7A3579867D0112607D900054
:1032D6001EE0FBA3E0FAA3E0F97D0112607DD28730
:1032E60022C28790001DE02450604524B16003028D
:1032F600338378277C007D017BFF7A35798F12181E
:103306003A90001EE0FBA3E0FAA3E0F912000E904B
:10331600004FEFF024FFFFE434FFFE90001EE0FBB9
:10332600A3E0FAA3E0F98F828E83E41214A8800F3B
:1033360078277C007D017BFF7A3579A012183A90B8
:10334600001EE0F9A3E0FAA3E0900053C9F0A3EA57
:10335600F0A3E9F07B017A00792712565E900053BC
:1033660074FFF0A37435F0A3749DF07B017A0079A5
:0F3376002712565E7B017A007927125801D28701
:013385002225
:100026000D0A0A25733E20002563002564000D0A8B
:100036000A2041435455414C2049445F434C4945AD
:100046004E54453D25730D0A0A000D0A0A204449FF
:1000560047495445205355204E5545564F2049444F
:100066005F434C49454E54453D000D0A0A20444124
:10007600544F204D4F444946494341444F2049443B
:100086005F434C49454E54453D25730D0A0A000D04
:100096000A0A2041435455414C20434F445F504186
:1000A600524B3D25730D0A0A000D0A0A20444947A2
:1000B600495445205355204E5545564F20434F44ED
:1000C6005F5041524B3D000D0A0A204441544F20D7
:1000D6004D4F444946494341444F20434F445F50A6
:1000E60041524B3D25730D0A0A000D0A0A20414371
:1000F6005455414C205449454D504F5F475241435A
:1001060049413D25730D0A0A000D0A0A2044494754
:10011600495445205355204E5545564F2054494580
:100126004D504F5F4752414349413D000D0A0A2059
:100136004441544F204D4F444946494341444F2082
:100146005449454D504F5F4752414349413D257300
:100156000D0A0A000D0A0A2041435455414C20530A
:10016600494E5F434F42524F20494E484142494C07
:10017600495441444F3D25730D0A0A000D0A0A20D1
:1001860041435455414C2053494E5F434F42524FD1
:10019600204752415449533D25730D0A0A000D0A62
:1001A6000A2041435455414C2053494E5F434F4228
:1001B600524F2047524154495320592053414C49EC
:1001C600444120454C204D49534D4F204449413D23
:1001D60025730D0A0A000D0A0A2044494749544569
:1001E600205355204E5545564F2053494E5F434F99
:1001F60042524F3D000D0A0A2041435455414C20BE
:10020600444542554720494E484142494C4954418C
:10021600444F3D25730D0A0A000D0A0A2041435436
:1002260055414C20444542554720484142494C4996
:100236005441444F3D25730D0A0A000D0A0A204415
:10024600494749544520454C204E5545564F204573
:10025600535441444F2044452044454255473D00B0
:100266000D0A0A2041435455414C205553455F4CD5
:10027600505220494E484142494C495441444F3D11
:1002860025730D0A0A000D0A0A2041435455414CB4
:10029600205553455F4C505220484142494C4954E1
:1002A60041444F3D25730D0A0A000D0A0A204449B0
:1002B6004749544520454C204E5545564F204553F9
:1002C6005441444F204445205553455F4C50523DC0
:1002D600000D0A0A2050414E54414C4C41204C43DB
:1002E6004420484142494C49544144413D25730DFF
:1002F6000A0A000D0A0A2050414E54414C4C412036
:100306005241535042455252592020484142494C8D
:1003160049544144413D25730D0A0A000D0A0A203D
:1003260044494749544520454C204E5545564F2093
:1003360045535441444F204445204C412050414EA2
:1003460054414C4C41203D000D0A0A20414354556E
:10035600414C20434F4D5041524143494F4E20415D
:1003660043544956412020484142494C495441444E
:10037600413D25730D0A0A000D0A0A2041435455D2
:10038600414C20434F4D5041524143494F4E20412D
:10039600435449564120494E484142494C495441EB
:1003A600444F3D25730D0A0A000D0A0A20414354A5
:1003B60055414C20434F4D5041524143494F4E20E9
:1003C6004143544956412020484142494C495441F1
:1003D600444F3D25730D0A0A000D0A0A2044494779
:1003E60049544520454C204E5545564F20455354BB
:1003F60041444F20444520434F4D504152414349CB
:100406004F4E20414354495641203D000D0A0A20D3
:1004160041435455414C20434F4D5041524143496D
:100426004F4E204143544956412020494E484142AF
:10043600494C495441444F3D25730D0A0A000D0AA3
:100446000A2041435455414C20434F4449474F20CD
:10045600444520424152524153204143544956306B
:100466003D25730D0A0A000D0A0A204143545541E1
:100476004C20434F4449474F205152204143544951
:10048600564F3D25730D0A0A000D0A0A20444947B6
:1004960049544520454C204E5545564F204553540A
:1004A60041444F20444520434F4449474F20515231
:1004B600204F20434F4449474F2044452042415254
:1004C6005241533D000D0A0A20446967697465204C
:1004D600656C206E6F6D6272652064656C20636C5E
:1004E60069656E746520000D0A0A20746578746F5C
:1004F600206772616261646F3D25730D0A0A000D03
:100506000A0A2044696769746520656C206E756DFA
:1005160065726F206465204E697420000D0A0A20FA
:100526004E49543A2025730D0A0A000D0A0A204442
:10053600696769746520656C204E6F6D627265200F
:1005460064656C20506172717565616465726F20B7
:10055600000D0A0A204E6F6D6272653A2025730DF2
:100566000A0A000D0A0A20446967697465206C61ED
:1005760020646972656363696F6E2064656C2065CB
:10058600737461626C6563696D69656E746F200072
:100596000D0A0A20446972656363696F6E3A202505
:1005A600730D0A0A000D0A0A2044696769746520FA
:1005B600656C206D736A312064656C2065737461A7
:1005C600626C6563696D69656E746F20000D0A0A59
:1005D600206D736A313A2025730D0A0A000D0A0A46
:1005E6002044696769746520656C206D736A3220E2
:1005F60064656C2065737461626C6563696D6965B9
:100606006E746F20000D0A0A2044696769746520BC
:10061600656C206D736A332064656C206573746144
:10062600626C6563696D69656E746F20000D0A0AF8
:10063600206D736A333A2025730D0A0A000D0A0AE3
:100646002044696769746520656C206D736A34207F
:1006560064656C2065737461626C6563696D696558
:100666006E746F20000D0A0A206D736A343A2025D5
:10067600730D0A0A000D0A0A204469676974652029
:10068600656C206D736A352064656C2065737461D2
:10069600626C6563696D69656E746F20000D0A0A88
:1006A600206D736A353A2025730D0A0A000D0A0A71
:1006B6002044696769746520656C206D736A36200D
:1006C60064656C2065737461626C6563696D6965E8
:1006D6006E746F20000D0A0A206D736A363A202563
:1006E600730D0A0A000D0A0A2044696769746520B9
:1006F600656C206D736A372064656C206573746160
:10070600626C6563696D69656E746F20000D0A0A17
:10071600206D736A373A2025730D0A0A000D0A20E8
:1007260049445F434C49454E544520202020090941
:10073600092D2D2D20636D642030204964656E746B
:100746006966696361646F722064656C20636C69B5
:10075600656E7465206D6178696D6F203235350080
:100766000D0A20434F445F5041524B202020202049
:10077600200909092D2D2D20636D64203120456C3B
:10078600206E756D65726F2064656C207061727184
:100796007565616465726F206D6178696D6F203271
:1007A6003535000D0A20545F475241434941202008
:1007B600202020200909092D2D2D20636D6420326B
:1007C600205469656D706F2073696E20636F627265
:1007D6006F2030302C20206D6178696D6F203235A6
:1007E60035000D0A2053494E5F434F42524F202099
:1007F6002020090909092D2D2D20636D6420332041
:10080600496E686162696C697461646F3D20302C61
:10081600204772617469733D2031202C2047726134
:1008260074697320792073616C69646120656C203A
:100836006D69736D6F206469613D2032000D0A2079
:100846004445425547202020202020202020090909
:10085600092D2D2D20636D64203420486162696C5A
:1008660069746172203D20312C20496E686162698D
:100876006C69746172203D2030000D0A2055534585
:100886005F4C5052202020202020200909092D2DC0
:100896002D20636D64203520486162696C6974613E
:1008A60072203D20312C20496E686162696C697442
:1008B6006172203D2030000D0A205449504F5F5090
:1008C600414E54414C4C41202020202020092D2D02
:1008D6002D20636D6420362050414E54414C4C41CE
:1008E600204C4344203D302050414E54414C4C4115
:1008F600205241535042455252493D31000D0A2083
:10090600434F4D5041524143494F4E5F4143544935
:10091600564120092D2D2D20636D64203720486116
:1009260062696C69746172203D20312C20496E68C1
:100936006162696C69746172203D2030000D0A2085
:1009460051525F434F445F4241525241532009097D
:10095600092D2D2D20636D64203820486162696C55
:1009660069746172205152203D20312C2048616209
:10097600696C6974617220434F445F42415252412F
:1009860053203D2030000D0A20434C49454E544526
:10099600202020202020200909092D2D2D20636DDF
:1009A600642039204E6F6D6272652064656C206329
:1009B6006C69656E7465000D0A204E49542020202E
:1009C600202020202020202009202020202D2D2D11
:1009D60020636D64203130204E756D65726F206422
:1009E600656C206E6974000D0A204E4F4D5F5041B4
:1009F600525120202020202009202020202D2D2D7E
:100A060020636D64203131204E6F6D627265206403
:100A1600656C20706172717565616465726F000D39
:100A26000A20444952454343494F4E20202020097D
:100A36002020202020202D2D2D20636D6420313292
:100A4600204E6F6D6272652064656C2070617271F4
:100A56007565616465726F000D0A204D534A5F31FA
:100A660020202020202020202009202020202D2D7D
:100A76002D20636D64203133206D736A20646520F8
:100A8600696E666F726D6163696F6E2064656C2056
:100A9600706172717565616465726F000D0A204D33
:100AA600534A5F32202020202020202020092020A9
:100AB60020202D2D2D20636D64203134206D736A26
:100AC60020646520696E666F726D6163696F6E2062
:100AD60064656C20706172717565616465726F0022
:100AE6000D0A204D534A5F3320202020202020204D
:100AF6002009202020202D2D2D20636D64203135E6
:100B0600206D736A20646520696E666F726D61631D
:100B1600696F6E2064656C207061727175656164C1
:100B260065726F000D0A204D534A5F342020202045
:100B360020202020092020202020202D2D2D20635C
:100B46006D64203136206D736A20646520696E6697
:100B56006F726D6163696F6E2064656C207061727F
:100B6600717565616465726F000D0A204D534A5FA9
:100B76003520202020202020200920202020202071
:100B86002D2D2D20636D64203137206D736A20640E
:100B96006520696E666F726D6163696F6E2064654C
:100BA6006C20706172717565616465726F000D0A03
:100BB600204D534A5F362020202020202020092067
:100BC60020202020202D2D2D20636D6420313820FB
:100BD6006D736A20646520696E666F726D61636904
:100BE6006F6E2064656C20706172717565616465F5
:100BF600726F000D0A204D534A5F372020202020B7
:100C06002020202009202020202D2D2D20636D64FA
:100C1600203139206D736A20646520696E666F72B3
:100C26006D6163696F6E2064656C207061727175A9
:100C360065616465726F000D0A2041595544412073
:100C4600202020202020202009202020202D2D2D8E
:100C560020636D64203230204D7565737472612097
:100C66006C6F7320636F6D616E646F73000D0A2085
:100C760053414C49522020202020202020200920AA
:100C86002020202D2D2D20636D64203231205361CC
:100C96006C69722064652070726F6772616D616342
:100CA600696F6E000D0A0A53697374656D6120647D
:100CB600652050726F6772616D6163696F6E205651
:100CC60065726966696361646F720D0A0D0A000DCB
:100CD6000A0A2F3E5573756172696F3A000D0A0A4A
:100CE600206461746F732064656C20627566666546
:100CF600722072782025730D0A0A000D0A0A2064F4
:100D060061746F732064656C206275666665722017
:100D160074782025730D0A0A000D0A0A2F3E5061C9
:100D26007373776F72643A00313233343536000D9F
:100D36000A436F6D616E646F206E6F20657869730C
:100D46007465202725732700200D0A00200D0A0050
:040D5600220D0A0060
:1049E0005400BE2F00000000000000000000000086
:1049F000000000000000004900B561646D696E00B0
:104A0000000000604200D23000003100003200009F
:104A10003300003400003500003600003700003855
:104A200000003900003130003131003132003133C3
:104A30000031340031350031360031370031380073
:094A40003139003230003231003E
:0B57960090003FEBF0A3EAF0A3E9F065
:1057A100E4900045F0900045E0FFC39416748094A6
:1057B100805041EF75F003A424D2F9740035F0FA5A
:1057C1007B0178427C007D0112183A78427C007D91
:1057D1000190003FE0FBA3E0FAA3E0F9121751EFBB
:1057E1003395E04F7006900045E0FF22900045E0C0
:0657F10004F080B17FFF0F
:0157F700228F
:0B5D870090000EE0FBA3E0FAA3E0F99F
:0B5D920090003FEBF0A3EAF0A3E9F063
:105D9D0078427C007D017B017A0079B512183A7842
:105DAD00427C007D0190003FE0FBA3E0FAA3E0F907
:0E5DBD00121751EF3395E04F7002FF227FFF67
:015DCB0022B5
:065E4E007B017A00792BB4
:0B5E540090003FEBF0A3EAF0A3E9F0A0
:105E5F0078427C007D017BFF7A0D794E7E007F04B6
:105E6F0012142A90004D7401F0A37400F0A3744231
:0F5E7F00F090003FE0FBA3E0FAA3E0F9023EBB86
:104F3500E0FBA3E0FAA3E02FF9EA3EFAE92401F940
:034F4500E43AFA51
:0B4F480090003FEBF0A3EAF0A3E9F0BB
:104F530078427C007D017BFF7A0D79527E007F04CD
:104F630012142A78467C007D017BFF7A0D79567EE8
:104F7300007F0412142A90003FE0FBA3E0FAA3E0B1
:104F8300F9121450FFB4200C900040E475F00112A4
:104F930014DC80E2EF90004DB4220D7401F0A37491
:104FA30000F0A37446F080167401F0A37400F0A31C
:104FB3007442F090003FE0FBA3E0FAA3E0F9123E55
:014FC300BB32
:014FC40022CA
:1063A9009000847401F0A37400F0A374BEF07BFF25
:0763B9007A0079260218D8D2
:08548E007A00792B7B01E4FD9B
:0E54960090007DEBF0A3EAF0A3E9F0A3EDF0A7
:1054A40012649D90007DE0FBA3E0FAA3E0F9EF1203
:1054B4001496900080E0701D90007DE0FBA3E0FA5C
:1054C400A3E0F9121450900084F07BFF7A00792E47
:1054D4001218D880057F2A125F4B90007DE0FBA351
:1054E400E0FAA3E0F9121450FF7E0090007EE47508
:1054F400F0011214DC90007DE0FBA3E0FAA3E0F9D4
:09550400E4121496EF640D709797
:01550D00227B
:10484000E4FDFC7FA81260F47E00900049EEF0A326
:10485000EFF090008474FFF0A37400F0A37431F0C3
:10486000A3EEF0A3EFF07B017A00793F1218D2900B
:1048700000847401F0A37400F0A3743FF07BFF7A0E
:104880000079341218D87BFF7A0079501218D87A40
:1048900000793F1254927B017A00793F12407C905C
:1048A0000049EEF0A3EFF0FBE4FDFC7FA8125ECD23
:1048B000E4FDFC7FA81260F47E00900049EEF0A3B6
:1048C000EFF090008474FFF0A37400F0A37431F053
:1048D000A3EEF0A3EFF07B017A00793F1218D2909B
:1048E00000847401F0A37400F0A3743FF07BFF7A9E
:0648F0000079700218D8E7
:10460A007D027C007FA81260F47E00900049EEF0E3
:10461A00A3EFF090008474FFF0A37400F0A3743148
:10462A00F0A3EEF0A3EFF07B017A00793F1218D2E3
:10463A009000847401F0A37400F0A3743FF07BFF30
:10464A007A0079951218D87BFF7A0079AF1218D8B8
:10465A007B017A00793FE4FD1254967B017A007956
:10466A003F12407C900049EEF0A3EFF0FB7D027C04
:10467A00007FA8125ECD7D027C007FA81260F47EC6
:10468A0000900049EEF0A3EFF090008474FFF0A3CD
:10469A007400F0A37431F0A3EEF0A3EFF07B017A7B
:1046AA0000793F1218D29000847401F0A37400F0CC
:0D46BA00A3743FF07BFF7A0079CD0218D881
:1046C7007D047C007FA81260F47E00900049EEF024
:1046D700A3EFF090008474FFF0A37400F0A374318B
:1046E700F0A3EEF0A3EFF07B017A00793F1218D226
:1046F7009000847401F0A37400F0A3743FF07BFF73
:104707007A0079F01218D87BFF7A01790F1218D83E
:104717007B017A00793FE4FD1254967B017A007998
:104727003F12407C900049EEF0A3EFF0FB7D047C44
:10473700007FA8125ECD7D047C007FA81260F47E06
:1047470000900049EEF0A3EFF090008474FFF0A30F
:104757007400F0A37431F0A3EEF0A3EFF07B017ABD
:1047670000793F1218D29000847401F0A37400F00E
:0D477700A3743FF07BFF7A0179320218D85D
:10311A007D067C007FA81260F47E00900049EEF0E4
:10312A00A3EFF090008474FFF0A37400F0A374314D
:10313A00F0A3EEF0A3EFF07B017A00793F1218D2E8
:10314A00900049E07002A3E0701590008404F0A397
:10315A007400F0A3743FF07BFF7A01795A803590AE
:10316A000049E07004A3E06401701590008404F043
:10317A00A37400F0A3743FF07BFF7A017982801474
:10318A009000847401F0A37400F0A3743FF07BFFF5
:10319A007A0179A41218D87BFF7A0179DC1218D83F
:1031AA007B017A00793FE4FD1254967B017A00791B
:1031BA003F12407C900049EEF0A3EFF0FB7D067CC5
:1031CA00007FA8125ECD7D067C007FA81260F47E87
:1031DA0000900049EEF0A3EFF090008474FFF0A392
:1031EA007400F0A37431F0A3EEF0A3EFF07B017A40
:1031FA0000793F1218D2900049E07002A3E07015DE
:10320A0090008404F0A37400F0A3743FF07BFF7A6B
:10321A0001795A8035900049E07004A3E064017096
:10322A001590008404F0A37400F0A3743FF07BFFB0
:10323A007A01798280149000847401F0A37400F0FA
:0D324A00A3743FF07BFF7A0179A41218D81D
:013257002254
:1038E8007D087C007FA81260F47E00900049EEF00D
:1038F800A3EFF090008474FFF0A37400F0A3743178
:10390800F0A3EEF0A3EFF07B017A00793F1218D212
:10391800900049E07002A3E0701590008404F0A3C1
:103928007400F0A3743FF07BFF7A0179FB80149058
:1039380000847401F0A37400F0A3743FF07BFF7A55
:1039480002791F1218D87BFF7A0279411218D87BA6
:10395800017A00793FE4FD1254967B017A00793FA1
:1039680012407C900049EEF0A3EFF0FB7D087C004C
:103978007FA8125ECD7D087C007FA81260F47E00CF
:10398800900049EEF0A3EFF090008474FFF0A37468
:1039980000F0A37431F0A3EEF0A3EFF07B017A00FE
:1039A800793F1218D2900049E07002A3E070159098
:1039B800008404F0A37400F0A3743FF07BFF7A0145
:1039C80079FB80149000847401F0A37400F0A37450
:0B39D8003FF07BFF7A02791F1218D825
:0139E30022C1
:1039E4007D0A7C007FA81260F47E00900049EEF00E
:1039F400A3EFF090008474FFF0A37400F0A374317B
:103A0400F0A3EEF0A3EFF07B017A00793F1218D215
:103A1400900049E07002A3E0701590008404F0A3C4
:103A24007400F0A3743FF07BFF7A027966801490EF
:103A340000847401F0A37400F0A3743FF07BFF7A58
:103A440002798C1218D87BFF7A0279B01218D87BCD
:103A5400017A00793FE4FD1254967B017A00793FA4
:103A640012407C900049EEF0A3EFF0FB7D0A7C004D
:103A74007FA8125ECD7D0A7C007FA81260F47E00D0
:103A8400900049EEF0A3EFF090008474FFF0A3746B
:103A940000F0A37431F0A3EEF0A3EFF07B017A0001
:103AA400793F1218D2900049E07002A3E07015909B
:103AB400008404F0A37400F0A3743FF07BFF7A0247
:103AC400796680149000847401F0A37400F0A374E8
:0B3AD4003FF07BFF7A02798C1218D8BB
:013ADF0022C4
:103AE0007D0B7C007FA81260F47E00900049EEF010
:103AF000A3EFF090008474FFF0A37400F0A374317E
:103B0000F0A3EEF0A3EFF07B017A00793F1218D218
:103B1000900049E07002A3E0701590008404F0A3C7
:103B20007400F0A3743FF07BFF7A0279D780149081
:103B300000847401F0A37400F0A3743FF07BFF7A5B
:103B40000279F91218D87BFF7A0379221218D87BF0
:103B5000017A00793FE4FD1254967B017A00793FA7
:103B600012407C900049EEF0A3EFF0FB7D0B7C004F
:103B70007FA8125ECD7D0B7C007FA81260F47E00D2
:103B8000900049EEF0A3EFF090008474FFF0A3746E
:103B900000F0A37431F0A3EEF0A3EFF07B017A0004
:103BA000793F1218D2900049E07002A3E07015909E
:103BB000008404F0A37400F0A3743FF07BFF7A024A
:103BC00079D780149000847401F0A37400F0A3747A
:0B3BD0003FF07BFF7A03794E1218D8FB
:013BDB0022C7
:103BDC007D0C7C007FA81260F47E00900049EEF012
:103BEC00A3EFF090008474FFF0A37400F0A3743181
:103BFC00F0A3EEF0A3EFF07B017A00793F1218D21C
:103C0C00900049E07002A3E0701590008404F0A3CA
:103C1C007400F0A3743FF07BFF7A03797E801490DC
:103C2C0000847401F0A37400F0A3743FF07BFF7A5E
:103C3C000379AF1218D87BFF7A0379DF1218D87B7F
:103C4C00017A00793FE4FD1254967B017A00793FAA
:103C5C0012407C900049EEF0A3EFF0FB7D0C7C0051
:103C6C007FA8125ECD7D0C7C007FA81260F47E00D4
:103C7C00900049EEF0A3EFF090008474FFF0A37471
:103C8C0000F0A37431F0A3EEF0A3EFF07B017A0007
:103C9C00793F1218D2900049E07002A3E0701590A1
:103CAC00008404F0A37400F0A3743FF07BFF7A044B
:103CBC00791280149000847401F0A37400F0A37442
:0B3CCC003FF07BFF7A0379AF1218D89D
:013CD70022CA
:103CD8007D0E7C007FA81260F47E00900049EEF013
:103CE800A3EFF090008474FFF0A37400F0A3743184
:103CF800F0A3EEF0A3EFF07B017A00793F1218D21F
:103D0800900049E07002A3E0701590008404F0A3CD
:103D18007400F0A3743FF07BFF7A04794480149018
:103D280000847401F0A37400F0A3743FF07BFF7A61
:103D380004796D1218D87BFF7A04798F1218D87B12
:103D4800017A00793FE4FD1254967B017A00793FAD
:103D580012407C900049EEF0A3EFF0FB7D0E7C0052
:103D68007FA8125ECD7D0E7C007FA81260F47E00D5
:103D7800900049EEF0A3EFF090008474FFF0A37474
:103D880000F0A37431F0A3EEF0A3EFF07B017A000A
:103D9800793F1218D2900049E07002A3E0701590A4
:103DA800008404F0A37400F0A3743FF07BFF7A044E
:103DB800794480149000847401F0A37400F0A37413
:0B3DC8003FF07BFF7A04796D1218D8E1
:013DD30022CD
:1059ED007BFF7A0479CB1218D87B017A00793FE4DA
:1059FD00FD1254967B017A00793F7D107C007FA8C3
:105A0D0012516A7B017A00793F7F107E0012585641
:105A1D009000847401F0A37400F0A3743FF07BFF39
:075A2D007A0479ED0218D89C
:105A34007BFF7A0579051218D87B017A00793FE457
:105A4400FD1254967B017A00793F7D407C007FA84B
:105A540012516A7B017A00793F7F407E00125856CA
:105A64009000847401F0A37400F0A3743FF07BFFF2
:075A74007A0579220218D81F
:105A7B007BFF7A0579311218D87B017A00793FE4E4
:105A8B00FD1254967B017A00793F7D507C007FA8F4
:105A9B0012516A7B017A00793F7F507E0012585673
:105AAB009000847401F0A37400F0A3743FF07BFFAB
:075ABB007A0579570218D8A3
:105AC2007BFF7A0579691218D87B017A00793FE465
:105AD200FD1254967B017A00793F7D807C007FA87D
:105AE20012516A7B017A00793F7F807E00125856FC
:105AF2009000847401F0A37400F0A3743FF07BFF64
:075B02007A0579960218D81C
:105B09007BFF7A0579AB1218D87B017A00793FE4DB
:105B1900FD1254967B017A00793F7DB07C007FA805
:105B290012516A7B017A00793F7FB07E0012585684
:105B39009000847401F0A37400F0A3743FF07BFF1C
:075B49007A0579D30218D898
:105B50007BFF7A0579E31218D87B017A00793FE45C
:105B6000FD1254967B017A00793F7DF17C007FA87D
:105B700012516A7B017A00793F7FF17E00125856FC
:105B80009000847401F0A37400F0A3743FF07BFFD5
:075B90007A0579D30218D851
:105B97007BFF7A06790B1218D87B017A00793FE4EC
:105BA700FD1254967B017A00793F7D327C017FA8F4
:105BB70012516A7B017A00793F7F327E0112585673
:105BC7009000847401F0A37400F0A3743FF07BFF8E
:075BD7007A0679330218D8A9
:105BDE007BFF7A0679431218D87B017A00793FE46D
:105BEE00FD1254967B017A00793F7D737C017FA86C
:105BFE0012516A7B017A00793F7F737E01125856EB
:105C0E009000847401F0A37400F0A3743FF07BFF46
:075C1E007A06796B0218D829
:105C25007BFF7A06797B1218D87B017A00793FE4ED
:105C3500FD1254967B017A00793F7DB47C017FA8E3
:105C450012516A7B017A00793F7FB47E0112585662
:105C55009000847401F0A37400F0A3743FF07BFFFF
:075C65007A0679A30218D8AA
:105C6C007BFF7A0679B31218D87B017A00793FE46E
:105C7C00FD1254967B017A00793F7DF57C017FA85B
:105C8C0012516A7B017A00793F7FF57E01125856DA
:105C9C009000847401F0A37400F0A3743FF07BFFB8
:075CAC007A0679DB0218D82B
:105CB3007BFF7A0679EB1218D87B017A00793FE4EF
:105CC300FD1254967B017A00793F7D367C027FA8D2
:105CD30012516A7B017A00793F7F367E0212585651
:105CE3009000847401F0A37400F0A3743FF07BFF71
:075CF3007A0779130218D8AB
:1042FC007BFF7A0779231218D87BFF7A077966122D
:10430C0018D87BFF7A0779A91218D87BFF7A07791E
:10431C00E81218D87BFF7A0879431218D87BFF7AF9
:10432C000879801218D87BFF7A0879BD1218D87BCF
:10433C00FF7A0979031218D87BFF7A09794312188E
:10434C00D87BFF7A09798C1218D87BFF7A0979BD52
:10435C001218D87BFF7A0979ED1218D87BFF7A0AEC
:10436C0079251218D87BFF7A0A795E1218D87BFF50
:10437C007A0A79A21218D87BFF7A0A79E61218D831
:10438C007BFF7A0B792A1218D87BFF7A0B796F1284
:10439C0018D87BFF7A0B79B41218D87BFF7A0B797B
:1043AC00F91218D87BFF7A0C793D1218D87BFF7A5A
:0643BC000C79730218D811
:102A5A007BFF7A0C79AA1218D87BFF7A0C79D512E7
:102A6A0018D812648F12548E125E4E90000EEBF03C
:102A7A00A3EAF0A3E9F0900084E4F0A37400F0A3C1
:102A8A007422F07BFF7A0C79E31218D8900084E460
:102A9A00F0A37400F0A374A2F07BFF7A0D790112FF
:102AAA0018D8125D87EF70B17BFF7A0D791F121863
:102ABA00D87B017A00792B7D01125496125E4E90D2
:102ACA00000EEBF0A3EAF0A3E9F078B57C007D01F3
:102ADA007BFF7A0D792E12183A125D87EF70C902C0
:102AEA002C6C1263A912548E125E4E90000EEBF0FB
:102AFA00A3EAF0A3E9F012000E90000E124F3590EF
:102B0A000011EBF0A3EAF0A3E9F012000E90001115
:102B1A00124F35900014EBF0A3EAF0A3E9F090000D
:102B2A0011E0FBA3E0FAA3E0F9EA494B601712149B
:102B3A0050B42F1178177C007D01900011A3A3E0F7
:102B4A0012183A803D900011E0FBA3E0FAA3E0F9E5
:102B5A00EA494B602D78177C007D017B017A007968
:102B6A00BE12183A900011E0F9A3E0FAA3E090002F
:102B7A0053C9F0A3EAF0A3E9F07B017A00791712AE
:102B8A00565E90000EE0FBA3E0FAA3E0F9EA494B97
:102B9A007003022AEC125796EFB416004003022C77
:102BAA0072902BB2F8282873022BF4022BFA022C0B
:102BBA0000022C06022C0C022C12022C18022C1ECB
:102BCA00022C24022C2A022C30022C36022C3C0223
:102BDA002C42022C48022C4E022C54022C5A022C53
:102BEA0060022C66022C6C022C93124840022AECDA
:102BFA0012460A022AEC1246C7022AEC12311A02BB
:102C0A002AEC1238E8022AEC1239E4022AEC123AC7
:102C1A00E0022AEC123BDC022AEC123CD8022AEC33
:102C2A001259ED022AEC125A34022AEC125A7B0289
:102C3A002AEC125AC2022AEC125B09022AEC125B33
:102C4A0050022AEC125B97022AEC125BDE022AEC93
:102C5A00125C25022AEC125C6C022AEC125CB302AA
:102C6A002AEC1242FC022AEC90000EE0F9A3E0FAE8
:102C7A00A3E0900084C9F0A3EAF0A3E9F07BFF7A0D
:092C8A000D79351218D8022AEC6C
:012C9300221E
:106470002D30732D002D31313131312E0025640046
:0B4D790090000EEBF0A3EAF0A3E9F0BD
:104D8400900013E4F0A37498F0126506E490001206
:104D9400F0C286900011F0C2B2900013E0FEA3E0CE
:104DA400FF20B35B900011E07055900013E0FEA368
:104DB400E0FFEF1F70011EEF4E700590001104F02C
:104DC40030B406900011E060E920B433900011E0A3
:104DD400702D90000EE0FBA3E0FAA3E0F9E5A01229
:104DE4001496900012E004F090000FE475F00112A4
:104DF40014DC900013E0FEA3E0FF30B4FD80A2D2E7
:0B4E0400B2D2861264FC900012E0FFA6
:014E0F002280
:0E48F600900048EBF0A3EAF0A3E9F0A3EDF088
:10490400900051F0D2B2D2B4C286E4900050F0C20A
:10491400B290004C12155C00004E2030B349900058
:1049240050E07043C2B2D2B490004CE0FCA3E0FD6E
:10493400A3E0FEA3E0FFEF24FFFFEE34FFFEED341F
:10494400FFFDEC34FFFC90004C12155090004CE03D
:10495400FCA3E0FDA3E0FEA3E0FFEC4D4E4F70BBD3
:10496400A304F0C28280B4900050E0702920B326E2
:10497400900048E0FBA3E0FAA3E0F9121450F5A07C
:1049840012640A900049E475F0011214DC90004BA3
:10499400E014F0E070DA75A0FFD2B2D2B4D2867F10
:0649A400627E000263D4F4
:102FD200900022EDF090001FEBF0A3EAF0A3E9F0DD
:102FE2009000477402F0900029F0A37473F0E4A3F8
:102FF200F012000E900047EFF090001FE0F9A3E0FE
:10300200FAA3E090004BC9F0A3EAF0A3E9F0A3E42D
:10301200F0A3EFF07B017A0079291243C2900053AA
:1030220074FFF0A37464F0A37470F07B017A0079EA
:103032002912565E7F8D124EAF1262ECEF24309051
:103042000023F07F89124EAF1262ECEF2430900021
:1030520024F07F87124EAF1262ECEF2430900025ED
:10306200F07F85124EAF1262ECEF2430900026F012
:103072007F83124EAF1262ECEF2430900027F0E40F
:10308200A3F07B0190005304F0A37400F0A3742317
:10309200F07A00792912565E90005374FFF0A374FF
:1030A20064F0A37475F07B017A00792912565E9060
:1030B2000022E0A3F0E4A3F07B0190005304F0A30C
:1030C2007400F0A37423F07A00792912565E7B0112
:1030D2007A00792912000E900047EFF0E02429F5DA
:1030E20082E43400F5837403F0C2B230B3FD7B0195
:1030F2007A007929900047E004FD1248F61264BC78
:103102007B017A007929900047E004FD90004C741D
:0831120001F01255F00264BC4B
:10640A00C2B47F287E001263D4D2B47F287E0002F1
:02641A0063D449
:0651F40090001FEFF0FB2C
:1051FA00D2B4C286E4A3F0A312155C00003A988BDD
:10520A00A0C2B230B343900020E0703DA3E0FCA3FB
:10521A00E0FDA3E0FEA3E0FFEF24FFFFEE34FFFE74
:10522A00ED34FFFDEC34FFFC900021121550900084
:10523A0021E0FCA3E0FDA3E0FEA3E0FFEC4D4E4F0E
:10524A0070C190002004F080BA900020E0700C2019
:10525A00B30990001FE0F5A012640AD2B2D2B4D208
:10526A008675A0FF7F627E001263D47F627E000291
:02527A0063D4FB
:0A64A900D2B4D2B2D28675A0FF2251
:106162009000107402F0A37469F07B017A00791236
:106172001244877F8B124EAF900018EFF0A3740386
:0C618200F07B017A0079107D0A0248F6DB
:1035C100E4900020F09000107402F0A37444F09095
:1035D100008474FFF0A37464F0A3747DF09001592A
:1035E100E0FFA3E0900087CFF0A3EFF07B017A002A
:1035F100791B1218D290001F7402F0900020E02471
:103601001BF582E43400F583E0FF601790001FE0B2
:103611002410F582E43400F583EFF0900020E004FB
:10362100F0801890001FE02410F582E43400F58347
:10363100743BF090001FE004F0800890001FE0044C
:10364100F080B890008474FFF0A37464F0A3747DDB
:10365100F0900155E0FFA3E0900087CFF0A3EFF0D9
:103661007B017A00791B1218D2E4900020F09000BF
:1036710020E0241BF582E43400F583E0FF6017901D
:10368100001FE02410F582E43400F583EFF0900090
:1036910020E004F0801890001FE02410F582E4344B
:1036A10000F583743BF090001FE004F08008900067
:1036B1001FE004F080B890001FE0FD2410F582E4C3
:1036C1003400F5837403F07B017A0079100248F627
:1058AE004461746F73204D46207265737075657315
:1058BE0074613A20004461746F73204D4620456E2A
:1058CE00766961646F733A20002F2A2D2D2D2D2DB0
:1058DE002D2D2D2D2D2D2D2D2D2D2D2D2D2D2D2DEA
:1058EE002D2D2D2D2D2D2D2D2D2D2D2D2D2D2D2DDA
:0758FE002D2D2A2F0D0A00D9
:0662AD00AE07EEC313FE74
:1062B300E4FFEFD3940774809480500D0000000036
:0962C3000000000000000F80E95A
:0162CC0022AF
:10635E00E4FFEFD3940474809480500D000000008D
:09636E000000000000000F80E9AE
:016377002203
:0259A500AE074B
:1059A700C2AFC2901262B30000AD06EE5401FE70A2
:1059B70004C2908002D2901262B37C01ECD39407A8
:1059C700748094805015EDC313FD5401FE7004C21A
:1059D700908002D2901262B30C80E1D2901262B32F
:0559E7001262B3D2AF13
:0159EC002298
:025CFA00AB07F6
:105CFC00900149E06401703CEB54F0C4540FFFD3A5
:105D0C00940974809480400674372FFF800474309B
:105D1C002FFF1259A5EB540FFFD394097480948074
:105D2C00400674372FFF800474302FFF1259A57F63
:045D3C00201259A533
:015D40002240
:065731009000311215503A
:10573700900031E0FCA3E0FDA3E0FEA3E0FF7818B2
:10574700121511AB07900031E0FCA3E0FDA3E0FECA
:10575700A3E0FF7810121511A3EFF0900031E0FCE1
:10576700A3E0FDA3E0FEA3E0FF7808121511A90747
:10577700900031A3A3A3E0FAAF03125CFA900035BF
:0F578700E0FF125CFAAF01125CFAAF02025CFAAB
:0E55F000900048EBF0A3EAF0A3E9F0A3EDF081
:1055FE00900149E06401705790004CE0FF3395E054
:10560E00FEEF4E7BFF60067A5879AE80047A5879A9
:10561E00C3125F89E490004DF090004BE0FF9000C4
:10562E004DE0C39F5024900048E0FBA3E0FAA3E0B6
:10563E00F9121450FF125CFA900049E475F0011251
:0F564E0014DC90004DE004F080CF7F0A1259A5C4
:01565D00222A
:0B5F890090004EEBF0A3EAF0A3E9F05B
:105F9400E4A3F0900149E064017027900051F0906F
:105FA400004EE0FBA3E0FAA3E0F9A3E0F5827583D9
:105FB40000121469FF600B1259A5900051E004F01F
:025FC40080DD7E
:015FC60022B8
:0964BC007BFF7A5879D7025F8951
:10527C007EFF12635E1262B3208005747FFF800490
:10528C00EE4480FF1262ADEE208005547FFF800358
:10529C004480FF1262ADEE208005547FFF800344F2
:1052AC0080FF1262ADEE208005547FFF80034480A6
:1052BC00FF1262ADEE208005547FFF80034480FF17
:1052CC001262ADEE208005547FFF80034480FF12F4
:1052DC0062ADEE208005547FFF80034480FF126294
:1052EC00ADEE208005547FFF80034480FFAE071293
:0752FC0062B33080FDAF0634
:015303002287
:05650100D290D28022BF
:0E4A4900010B00010C00010900010A00C10B65
:0300230002530481
:10530400C0E0C083C082C0D075D000C000C006C059
:015314000791
:10531500309845C298859908C3E509950AFFE49434
:1053250000FEEF54804E7018E509547F2422F8A63C
:1053350008050974222509F87600900147E004F074
:10534500E508B4240890015B7402F0800BE508B40D
:105355003C0690015B7401F030991AC299E50B6522
:105365000C6010E50C540124A2F8E6F599050CC271
:055375000B8002D20BC9
:0F537A00D007D006D000D0D0D082D083D0E03280
:10618E00D310AF01C3C0D0125FC7E4F50BF50CF509
:10619E0009F50AC29FD29EC29DD29CC298C299D2C4
:0A61AE000BD2ACD2BCD0D092AF22CD
:075FC700D310AF01C3C0D0ED
:105FCE007D007C087FA81260F4C299E4F50BF50CF5
:105FDE00C28EC2AB43878053890F438920EF600A7C
:105FEE00758DF4758BF4D28E8008758D01758B01CD
:025FFE00D28E41
:05600000D0D092AF2298
:1060B900D310AF01C3C0D09000B4EFF012642EC367
:1060C900EF94027480948040047FFF80199000B49B
:1060D900E0FFE50B540124A2F8A607050B300B04D9
:0B60E900C20BD2997F00D0D092AF22F2
:1061E000D310AF01C3C0D012641CEF70067EFF7FD6
:1061F000FF800EAF0A050AEF547F2422F8E6FF7EE7
:0662000000D0D092AF2295
:10641C00D310AF01C3C0D0C3E509950AFFD0D09209
:02642C00AF229D
:10642E00D310AF01C3C0D0C3E50B950CFFD0D092F3
:02643E00AF228B
:0E648F00E4F50BF50CF509F50AC298C2992246
:106391004C4956450A00477261626163696F6E201C
:0863A10053657269653A2000A2
:0E21670090000EEBF0A3EAF0A3E9F0A3EDF078
:102175006419704490000EE0FBA3E0FAA3E0F912A5
:102185001450640270329000021214696448702879
:10219500900011E07E0024FFF582EE34FFF58312F6
:1021A50014696403701290000EA3A3E02403F9E4FC
:1021B5003AFA124FC502612D90000EE0FBA3E0FA3A
:1021C500A3E0F912145064B67033900146E0C3944D
:1021D500147480948040107FB6124B02C282E49042
:1021E5000146F0C297C283900149E0600302250BC6
:1021F500900148E06401600302250B803E90000ECB
:10220500E0FBA3E0FAA3E0F912145064AA70409031
:102215000146E0C3941474809480500302250BE4B6
:10222500F0C297D282C283900149E0600302250B78
:10223500900148E06401600302250B90014904F018
:102245007BFF7A637991125F89E4900149F02290CE
:102255000011E06401701790000EE0FBA3E0FAA303
:10226500E0F9121450640170057FFF022379900094
:1022750011E06401701790000EE0FBA3E0FAA3E003
:10228500F9121450640270057FFE02237990001143
:10229500E06401701790000EE0FBA3E0FAA3E0F9FB
:1022A500121450640470057F04022379900011E034
:1022B5006401701790000EE0FBA3E0FAA3E0F912A9
:1022C5001450640770057F07022379900011E064BC
:1022D50001701790000EE0FBA3E0FAA3E0F91214D9
:1022E50050640970057F09022379900011E06401AB
:1022F500701690000EE0FBA3E0FAA3E0F91214506B
:1023050064E770047FE7806C900011E0FF64037060
:102315002A90000EE0FBA3E0FAA3E0F99000011279
:10232500146964557015FE74FF2FF582EE34FFF5C0
:102335008312146964037003026005900011E0FFC5
:102345006413703390000EE0FBA3E0FAA3E0F912EA
:10235500145064027021900001121469B44F187E64
:102365000074FF2FF582EE34FFF5831214696403C0
:1023750070057FFE024B02900011E0FF641370565A
:1023850090000EE0FBA3E0FAA3E0F91214506402FA
:1023950070449000011214696456703AEF24FFFFEF
:1023A500E434FFFE8F82F583121469640370278F6E
:1023B500828E83E41214A8E92402F9E43AFA7FFF35
:1023C500123258E4900011F0900146740AF07FA192
:1023D5001251F40224FF900011E0FF64066003022D
:1023E500248C90000EE0FBA3E0FAA3E0F912145050
:1023F5006402600302248C90000112146964576022
:102405000302248CFE74FF2FF582EE34FFF5831250
:1024150014696403707190000EA3A3900002121456
:1024250069FD7B017A007912125905900015742017
:10243500F090000EE0FBA3E0FAA3E0F99000031290
:102445001469FD90000EA3A3900004121469900076
:1024550021F07B017A00791612250C900148E06481
:10246500017019125581EFF460077FE0124B02806D
:102475000B7B017A00791212415780007B017A00AB
:1024850079127FB0023258900011E0FF640C70534E
:1024950090000EE0FBA3E0FAA3E0F91214506402E9
:1024A5007041FE74FF2FF582EE34FFF58312146937
:1024B5006403702F90000EA3A3E02401F9E43AFA17
:1024C5001264607BFF7A637997125F8990000EE052
:1024D500FBA3E0FAA3E0F9A3E0FD90004C7401F042
:1024E5000255F090000EE0FBA3E0FAA3E0F9121408
:1024F5005064AB70117FFF124B029001457437F0A9
:062505009001507404F087
:01250B0022AD
:1027DC00466563686120696E6963696F3A20000A17
:1027EC000046656368612066696E3A2000456C207E
:1027FC007469636B6574206E6F2065732064656CFF
:10280C00206469612000484F52412041484F524199
:10281C003A2000484F52412044454C205449434BE8
:10282C0045543A2000444553505545532044454C9B
:10283C0020484F524152494F2050524F4752414D20
:10284C0041444F0D0A00454E20484F524152494FCA
:10285C002050524F4752414D41444F0D0A005345B1
:10286C0054207469636B65745F6D656D6F7269611B
:10287C00206772616261646F3A2000536574204E68
:10288C00756D65726F206465207469636B65742067
:10289C006772616261646F733A200061646472658F
:1028AC0073207469636B657420656570726F6D3A23
:1028BC0020007469636B65745F6D656D6F7269611F
:1028CC003A20006F6B206573746120656E206D6516
:1028DC006D6F7269612020000D0A56656869637519
:1028EC006C6F20656E20656C206C6F6F700D0A002C
:1028FC005665686963756C6F206E6F20656E206518
:10290C006C206C6F6F700D0A0D0A007472616D6132
:10291C002064656C206C6563746F722064617461F3
:10292C006C6F67696320636F64205152000D0A005D
:10293C007472616D612064656C206C6563746F7278
:10294C0020646174616C6F67696320636F642062DB
:10295C006172726173007472616D612064656C20C8
:10296C006C6563746F7220646174616C6F6769630A
:10297C00206E6F206573746120636F6D706C65746D
:10298C00610D0A00636F642062617272617300638F
:10299C006F6420515220720A00436172726F00748E
:1029AC0069706F206465207665686963756C6F3A31
:1029BC0020006C6F6E6769747564206465206C61AF
:1029CC00207472616D61207469636B65743A200ABE
:1029DC00006C6F6E6769747564206465206C61208F
:1029EC007472616D612066656368613A200A004605
:1029FC00656368612064652073616C6964613A2069
:102A0C000079612073616C696F20656C2074696357
:102A1C006B657420200066696E206465206C6563AC
:102A2C0074757261206465207472616D610D0A00A9
:102A3C005245454E564941205452414D4120505427
:0E2A4C004F20504152414C454C4F0D0A200086
:044A570041015D00BC
:10620600E4FF121450FDC3943074809480400AD386
:10621600ED943974809480400A740129F9E43AFABD
:036226000F80DF07
:016229002252
:08634300F02422F9E4FA7D3E8A
:10634B00E4FF1214506D600A740129F9E43AFA0F54
:02635B0080F0D0
:01635D00221D
:0B37DF0090001FEBF0A3EAF0A3E9F05C
:1037EA007B017A00792A124A5C90002AE0FF7E0067
:1037FA007C017D6D1214CAAC06AD07A3E075F01EFC
:10380A00A42DFFEC35F0FEA3E07C002FFFEC3EFE7A
:10381A00E4FD90002212155090001FE0FBA3E0FA8D
:10382A00A3E0F990000112146975F01EA4FDACF032
:10383A00C004C005121450FF7E007C017D6D121475
:10384A00CAD0E02FFFD0E03EFE9000021214691C9D
:10385A002FFFEC3EFEE4FD9000261215507BFF7A06
:10386A002779DC125F89900022E0FCA3E0FDA3E047
:10387A00FEA3E0FF1257317BFF7A2779EB125F89AB
:10388A007BFF7A2779ED125F89900026E0FCA3E09E
:10389A00FDA3E0FEA3E0FF1257317BFF7A2779EB05
:1038AA00125F89900022E0FCA3E0FDA3E0FEA3E002
:1038BA00FFA3E0F8A3E0F9A3E0FAA3E0FBC3121523
:1038CA0000700790003004F0800E7BFF7A2779F9A8
:0D38DA00125F89E4900030F0900030E0FFB4
:0138E70022BE
:0B36D10090001FEBF0A3EAF0A3E9F06B
:1036DC007BFF7A287912125F897F85124EAF125CBC
:1036EC00FA7F83124EAF125CFA7BFF7A2779EB12CA
:1036FC005F897F85124EAFEF3395E0FE7C007D3CF9
:10370C001214CAC006C0077F83124EAFEFFD33956B
:10371C00E0FCD0E02DFED0E03C900023F0A3CEF0F6
:10372C007BFF7A28791F125F8990001FE0FBA3E0D2
:10373C00FAA3E0F9900003121469FF12624C125CB8
:10374C00FA90001FE0FBA3E0FAA3E0F9900004124A
:10375C001469FF12624C125CFA7BFF7A2779EB1228
:10376C005F8990001FE0FBA3E0FAA3E0F99000034F
:10377C00121469FF12624CEF75F03CA4FFAEF0C05E
:10378C0006C00790001FE0FBA3E0FAA3E0F990004D
:10379C0004121469FF12624CEFFDD0E02DFFD0E053
:1037AC003400FED3900024E09F900023E09E7BFF2A
:1037BC00400E7A287931125F89E4900022F0800D56
:1037CC007A287952125F899000227401F0900022BD
:0237DC00E0FF0C
:0137DE0022C8
:0B3F9F0090001FEBF0A3EAF0A3E9F094
:103FAA007D997C027FA81260F4900022EFF0D394EE
:103FBA0019748094804003024048900053E4F0A3AF
:103FCA00F0A3740DF090001FE0FBA3E0FAA3E0F960
:103FDA0012565E900022E075F00FA42400FDE5F071
:103FEA003404FC90001FE0FBA3E0FAA3E0F97FA8E9
:103FFA0012516A7BFF7A28796A125F8990001FE062
:10400A00FBA3E0FAA3E0F9125F897BFF7A2779EB39
:10401A00125F89900022E004F0E0FB7D997C027F28
:10402A00A8125ECD7BFF7A287987125F89900022D9
:10403A00E0FF125CFA7BFF7A2779EB025F89E49052
:10404A000022F0E075F00FA42400FDE5F03404FC32
:10405A0090001FE0FBA3E0FAA3E0F97FA812516ADF
:10406A00900022E004F0E0FB7D997C027FA8125EBA
:01407A00CD78
:01407B002222
:0B422D0090001FEBF0A3EAF0A3E9F003
:104238007D997C027FA81260F490002CEFF0D39453
:10424800197480948040030242F9E490015CF09074
:10425800002CE0FF90015CE0F9C39F40030242F9A3
:10426800E975F00FA4FFAEF090002DEEF0A3EFF08B
:104278002400FFEE3404FE7B017A0079221258569E
:104288007BFF7A2879A7125F8990002EE02400FF2F
:1042980090002DE03404FEE4FCFD1257317BFF7AD8
:1042A8002779EB125F897BFF7A2879BE125F897BB9
:1042B800017A007922125F897BFF7A2779EB125FF6
:1042C8008978227C007D0190001FE0FBA3E0FAA31F
:1042D800E0F9121751EF3395E04F700C7BFF7A2805
:1042E80079CF125F897F002290015CE004F00242DE
:0342F800577FFFEE
:0142FB0022A0
:101CF000900150E0146065147003021E2F147003ED
:101D0000021E641470030220C114700302213B24DC
:101D1000056003022135900145E064016003022162
:101D200066C297125581EF60227BFF7A2879E41210
:101D30005F897FFE124B0290015DE0700B7FA01265
:101D400051F490015D7401F00220B47BFF7A287990
:101D5000FC125F89E490015DF0021E26900145E0CF
:101D60006401600990015BE0700302216690015BF1
:101D7000E0640170287BFF7A297917125F897B0064
:101D80007A007922125F897BFF7A297939125F897B
:101D90009001457414F09001507403F02290015B9F
:101DA000E06402706C785E7C017D01FB7A00792230
:101DB00012183A7B007A00792212000E900019EF77
:101DC000F0E0FF245DF582E43401F583E4F0745E15
:101DD0002FF582E43401F583E4F0D3EF940A7480A4
:101DE0009480400B12648F7FFE124B020220B47B62
:101DF000FF7A29793C125F897B017A01795E125F53
:101E0000897BFF7A297939125F899001507402F039
:101E10002212648FE490015DF090015BF07BFF7A09
:101E2000297962125F899001457403F00221357BA4
:101E3000FF7A297990125F89E490015BF090001B92
:101E40007443F07B017A01795EFD122FD290014834
:101E5000E0600E7B017A01795E90001BE0FD123D8F
:101E6000D402215A900145E0640160030221667B9F
:101E7000FF7A29799B125F89E490015BF0FB7A007D
:101E80007922126206900019EF12634390001AEF54
:101E9000F090002274FFF0A37429F0A374A5F07AE7
:101EA00000792212454B90001CEBF0A3EAF0A3E965
:101EB000F04A90001B60057443F08003744DF07B82
:101EC000FF7A2979AB125F8990001BE0FF125CFA60
:101ED0007BFF7A2779EB125F897BFF7A2979BE1223
:101EE0005F89900019E0FF125CFA7BFF7A2779EB9B
:101EF000125F8990001AE0FF125CFA7BFF7A277963
:101F0000EB125F89E490015EF0900019E0FF640C31
:101F100060030220AF74222FF9E4FB900022F0A3AB
:101F2000CBF0A3E9F090001AE0FF900025E4F0A3C5
:101F3000EFF07B017A01795E1256C990001AE02415
:101F40005EF582E43401F583E4F07B017A01795E89
:101F5000125F897BFF7A2779EB125F89900019E085
:101F60002422F9E4FAFB7D3A12634B900019E02F2A
:101F700012634390001AEFF07BFF7A2979DD125F3C
:101F800089900019E0FF125CFA90001AE0FF125CE1
:101F9000FA7BFF7A2779EB125F89900019E02424FD
:101FA000F9E4FB900022F0A3CBF0A3E9F090001A33
:101FB000E0FF900025E4F0A3EFF07B017A00790EBA
:101FC0001256C990001AE0240CF582E43400F5831F
:101FD000E4F0900010E024D0C454F0FFA3E024D03B
:101FE0004FFF1262EC900168EFF0900013E024D0F4
:101FF000C454F0FFA3E024D04FFF1262EC900169BB
:10200000EFF0900016E024D0C454F0FFA3E024D0F9
:102010004FFF1262EC90016AEFF0900019E024D0BB
:10202000C454F0FFA3E024D04FFF1262EC90016B88
:10203000EFF090001CE024D0C454F0FFA3E024D0C3
:102040004FFF1262EC90016CEFF07BFF7A2979FB75
:10205000125F897B017A00790E125F897BFF7A27F4
:1020600079EB125F897B017A0179681237DFEF64BF
:10207000016002800E7B017A0179681236D1EF642B
:102080000160077F5A124B0280307B017A01795E32
:1020900090001BE0FD122FD2900148E0600E7B0102
:1020A0007A01795E90001BE0FD123DD402215AD2E4
:1020B000AC12648F90014574C8F09001507401F027
:1020C000227B017A01795E12422DEFF4701E7B01B2
:1020D0007A01795E123F9F9001457414F012648F6B
:1020E000E490015DF0900150F0D297227BFF7A2AB4
:1020F000790D125F897F04124B02C297D2AC900116
:10210000457414F012648FE490015DF0900150F07A
:10211000900145E06401704EC297D2AC7BFF7A2AF1
:102120007922125F899001457403F012648FE49064
:10213000015DF08001E4900150F022900145E064DF
:102140000170237BFF7A2A793C125F897B017A0137
:10215000795E90001BE0FD122FD29001457437F09C
:062160009001507404F030
:012166002256
:100D5A00021002E86480F8E933E83360110460F0B5
:100D6A00ED33EC337009E8FCE9FDEAFEEBFF2204FF
:100D7A0060DED3EB9FEA9EE99DE8C2E78CF0C2F7FA
:100D8A0095F0400CE8CCF8E9CDF9EACEFAEBCFFBC6
:100D9A00120FCD85D0F05804700320D5B3E8047043
:100DAA00075002B2D502100C92D5EC0460F7E4CCDD
:100DBA00C0E0C398F8603B94186008400DD0E0FB8F
:100DCA00020FE4E4FBFAC9FC8028E830E406E4C92F
:100DDA00FBE4CAFCE830E305E4C9CACBFCE85407E3
:100DEA006010F8C3E913F9EA13FAEB13FBEC13FCEE
:100DFA00D8F130F52FC3E49CFCEF9BFFEE9AFEED91
:100E0A0099FDD0E0FBEF4E4D4C701222DB0302102D
:100E1A0009EC2CFCEF33FFEE33FEED33FDED30E74A
:100E2A00EB020FE4EF2BFFEE3AFEED39FDD0E0FBCB
:100E3A0050130BBB000302100CED13FDEE13FEEF73
:080E4A0013FFEC13FC020FE49E
:100E5200EC4D6011E8497017ED33EC3304600DE49A
:100E6200FCFFFEFD22E933E8330470F8021002129F
:100E72000FCD58046009E4CC2481500628500902A1
:100E8200100C284003021009C0E0EB4A7044B980FC
:100E920006D0E0FB020FF8EF4E701CBD8008EBFF9E
:100EA200EAFEE9FD80EBE98DF0A4FEE5F0020F3BDE
:100EB200E9CDF9EAFEEBFFEF89F0A4FCE5F0CE897B
:100EC200F0A42EFFE435F0CD89F0A42DFEE435F038
:100ED2008067EF4E7005BD80D780C3EF8BF0A4AC66
:100EE200F0EE8BF0A42CFCE435F0F8EF8AF0A42CA1
:100EF200E5F038FCE433CB8DF0A42CFCE5F03BF8B4
:100F0200EE8AF0A42CFCE5F038F8E433CF89F0A4A3
:100F12002CFCE5F038CF3400CE89F0A42FFFE5F0A9
:100F22003EFEE433C98DF0A42EFEE5F039CD8AF001
:100F3200A42FFFE5F03EFEE43DFD33D0E0FB500779
:100F42000BBB000F02100CEC2CFCEF33FFEE33FE58
:060F5200ED33FD020FE487
:100F580075F020800E75F010800575F0087D007E14
:100F6800007F003392D530D5031214F2EC334010D1
:100F7800EF33FFEE33FEED33FDEC33FCD5F0ED221D
:0E0F8800E5F0247EA2D513CC92E7CDCEFF2259
:100F9600EDD2E7CD33EC3392D524814006E4FFFE53
:100FA600FDFC22FCE4CFCECDCC24E0501174FF80B2
:100FB600EDC3CC13CCCD13CDCE13CECF13CF04704F
:070FC600F030D5DE0214F249
:10186D00E50D2484F582E43400F583E0050D229026
:10187D000081300703900084E475F00112158D028C
:10188D0014502000E97F2ED2008018EF540F2490C1
:10189D00D43440D4FF30040BEF24BFB41A005003EE
:1018AD002461FFE50E6002150E0511E511700205AC
:1018BD001030070E900081E475F00112158DEF02C6
:1018CD001496025F4B7403D2078003E4C207F50D33
:1018DD009000811215A4E4F50EF510F511E50E60DA
:1018ED00077F201218B080F5750FFFC201C200C22C
:1018FD0002C203C205C206C20812187CFF700D3069
:10190D0007057F001218C1AF11AE1022B4255FC2BA
:10191D00D5C20412187CFF24D0B40A00501A75F0F9
:10192D000A780E30D50508B6FF0106C6A426F620A6
:10193D00D5047002D20380D924CFB41A00EF50041D
:10194D00C2E5D204021BB3D20180C6D20080C0D240
:10195D000280BCD2D580BAD20580B47F201218B0D7
:10196D002002077401B50E0040F112186DFF121818
:10197D00B00218EAD208D206809512186DFB121823
:10198D006DFA12186DF94A4B700679B17A1C7BFF0E
:10199D0020022EE50E602A7E008E827583001214C1
:1019AD006960060EEE650F70F0C2D5EBC0E0EAC0BF
:1019BD00E0E9C0E0EE121C14D0E0F9D0E0FAD0E07E
:1019CD00FB121450FF60AAEBC0E0EAC0E0E9C0E0F2
:1019DD001218B0D0E02401F9D0E03400FAD0E0FBC9
:1019ED00E50F0460DCD50FD98087D20280A2121BCF
:1019FD00F660F7E50F7001041210BBA90F600DE53D
:101A0D000F600914F50F121C9EEF60F3EA30E70228
:101A1D00F404C3995079EAF4250F0430E701E40486
:101A2D00F50F800D121BF660C1EA050F250F121080
:101A3D00BBEA9000B0F030E701E4250F04D50F04A8
:101A4D0020050114121C14E4C0E0121C9E9000B07D
:101A5D00E0601320E70714F0121898802204F0D0EC
:101A6D00E014C0E07F00121898E50F600712188F80
:101A7D00150F800B30050312188FD0E00218EAD035
:101A8D00E00480C4121BF6609EE50F041210BB909B
:101A9D0000B0EAF0E50F2005026001042404121CD9
:011AAD001424
:101AAE0074FF04C0E0121C9E121898E50F20050268
:101ABE00600312188FD0E0B50FE87F451218A29080
:101ACE0000B0E07F2B30E7047F2DF404C0E0121845
:101ADE00B0D0E075F00A84C0F0121899D0E0121858
:101AEE00990218EA791080027908C206C2088008A5
:101AFE00D2D5790A8004790AC2D5E50F047002F5B1
:101B0E000FE4FAFDFEFF12186DFC7B082001131284
:101B1E00186DFD7B1030000A12186DFE12186DFF45
:101B2E007B20EC3382D592D55013C3E43000069F50
:101B3E00FFE49EFEE42001039DFDE49CFCE4CBF853
:101B4E00C201EC700CCFCECDCCE824F8F870F38047
:101B5E0017C3EF33FFEE33FEED33FDEC33FCEB3307
:101B6E00FB994002FB0FD8E9EB300105F8D0E0C439
:101B7E0048B201C0E00AEC4D4E4F78207B0070C297
:101B8E00EAB50F0040BCC0E0121C16D0F0D0E02029
:101B9E000104C4C0E0C4B201C0F0121899D0F0D54F
:101BAE00F0EB0218EA1215AD1987531AF2581958AC
:101BBE004C1954421AF64F1AFE441AFE49196D4337
:101BCE001B04551A31461A914519FB471CD1501961
:101BDE005C2D19602E19832B1964231981201CBAD0
:101BEE002A191C480000197BE50FB4FF03750F0678
:101BFE0012186DFC12186DFD12186DFE12186DFF85
:101C0E009000A90210F8790AA2D520031430050914
:101C1E00B910020404B9080104A2D520060250012D
:101C2E00042002689202B50E005034C0E07F2030CE
:101C3E0003197F30A20272067205500F121C6DC27C
:101C4E0002C206C205C2087F30800F300503E9C00C
:101C5E00E01218B0300503D0E0F9D0E0B50ECC306C
:101C6E0005177F30B9100C1218B07F583004077F5B
:101C7E00788003B908031218B03002057F2D0218C0
:101C8E00B07F202008F87F2B2006F322920280CF0F
:101C9E007F00B40700500B24A9F582E43400F583CD
:101CAE00E0FF22286E756C6C2900D20112186D307F
:101CBE0001F8C201780E30D50108F602191C2D501C
:101CCE0043495812186D2403B405004001E4901CDA
:101CDE00CC931218A1743A1218A1D203750E0402F5
:021CEE001AF2E8
:102E6C00900029121550E4FFFE7D807C3F900029D4
:102E7C00E0F8A3E0F9A3E0FAA3E0FB12103170062E
:102E8C00900029022FC6900029E0FCA3E0FDA3E0EE
:102E9C00FEA3E0FF121017FBA3E0FCA3E0FDA3E0F0
:102EAC00FEA3E0FF121017FFB40108E4FFFE7D80C3
:102EBC007C3F22EF64046029EB64046024EBB401D2
:102ECC0030E4FFFEFDFC90002DE0F8A3E0F9A3E058
:102EDC00FAA3E0FB12103160084006E4FFFEFDFC93
:102EEC002290002D12155CFFFFFFFF90002D022F8A
:102EFC00C6E4900031F0A3F0FFFEFDFC900029E049
:102F0C00F8A3E0F9A3E0FAA3E0FB121031505F90B4
:102F1C00002DE0FCA3E0FDA3E0FEA3E0FF120F9662
:102F2C00900031EEF0A3EFF0FDCCEECCEC120F5D87
:102F3C00C8ECC8C9EDC9CAEECACBEFCB90002DE0E6
:102F4C00FCA3E0FDA3E0FEA3E0FF120D5DE4FBFAA1
:102F5C00F9F8121031708A900029E0FCA3E0FDA36F
:102F6C00E0FEA3E0FF1210AA900029121550900069
:102F7C0029E0FCA3E0FDA3E0FEA3E0FF1233BA902E
:102F8C00002DE0F8A3E0F9A3E0FAA3E0FB120E5247
:102F9C00124D1790002D121550900032E030E017B2
:102FAC0090002DE0FCA3E0FDA3E0FEA3E0FF1210D7
:102FBC00AA90002D12155090002DE0FCA3E0FDA36B
:062FCC00E0FEA3E0FF227D
:100FCD00E9D2E7C933E833F892D5EDD2E7CD33EC6A
:070FDD0033FC5002B2D522E3
:100FE400EC30E7100FBF000C0EBE00080DBD00046E
:100FF4000BEB6014A2D5EB13FCED92E7FD2274FF1A
:10100400FCFDFEFF22E480F8A2D574FF13FC7D8072
:03101400E480EF86
:10101700ED33EC33601004700FED547F70057402EC
:0A10270092E0227404220422E42265
:1010310074F8CC6480CCC86480C8F58204604FC366
:10104100EB9FF5F0EA9E42F0E99D42F0E89C45F005
:10105100603C501DE5825FFFE582D313CB5BCBF48F
:101061002B5582FB50280ABA002409B900200880B8
:101071001DE5825BFBE582D313CF5FCFF4C3132F52
:101081005582FF50090EBE00050DBD00010CC3EBDA
:101091009FF5F0EA9E42F0E99D42F0E89C45F06040
:0910A10007CC4820E701B3EC2262
:1010AA00ED33EC33600A047003BD8004ECB2E7FC54
:0110BA002213
:1010BB00F920E73624F950037907E4F42402FBE521
:1010CB0082158270021583DBF6E024FB501BE9606E
:1010DB0014E4F0E582158270021583E004F0B40A83
:0D10EB0008E4F0D9EE7401F00A22C2D5220B
:1010F800ED33EC3392D5FA602AB4FF33EDC2E77BC7
:10110800FF60067A11791DE4227A11792620D50428
:101118007A117921224E614E002B494E46002D4905
:101128004E4600E47A08F0A3DAFC7B00740722C07C
:1011380083C082ECC0E0EDC0E0EEC0E0EFC0E0EAC2
:1011480075F010A4CAABF075F04DA42BFBE435F094
:10115800FCEA2410FAEB34C5FBEC34D9FCEDC2E709
:10116800FF75F056A4F42411C5F0F434C58FF0A42B
:101178002AE5F03BE43CF020E7141212CDD0E0FF62
:10118800D0E0FED0E0FDD0E0FC1212008014F404A0
:101198001212CDD0E0FFD0E0FED0E0FDD0E0FC128E
:1011A8000E52D082D083E0FAEDD2E7CD33EC33246F
:1011B80082FBE4C3CF33CFCE33CECD33CD33DBF395
:1011C8007B0775F00A846004F0A31B0AE5F0F0A31E
:1011D8008FF0740AA4FFACF08EF0740AA42CFEAC55
:1011E800F050010C8DF0740AA42CFDE435F0F0A346
:0511F800DBDE7407229C
:104CDF0033DA929E35B16011377FE5FE3921848931
:104CEF003AAEC3FF3C1D955B3D6358473E75FDF0E3
:104CFF003F3172183F800000C2D502100C02100223
:104D0F00BD80FA50F3021009ED33EC330460F17BF0
:104D1F003B7AAA79B8783F120E52ED33EC3392D525
:104D2F00247B5011A2D570DB500BED44802404502E
:104D3F0004A2D580CEEFFBEEFAEDF9ECF8120F9648
:104D4F00EFF582F404FC120F62120D61C082904CD9
:104D5F00DF740912131CED33CC33D0F092D525F04C
:0A4D6F00A2D57001C313CC13FD227E
:103386003E9248DA3ECCCCCD3F2AAAAB40000000A4
:103396003F8000003F9837F03FB504F33FD744FC29
:1033A6003E3172173EB172173F0515913EDE5BD96D
:1033B600D2008002C200EDD2E7F8CD33EC330470C0
:1033C6000BBD800592D502100C02100240FBD314EF
:1033D60060F2F5F07C3FEE7A00C39496C8948B4079
:1033E600230AC89469C8941A401A0AC89468C894EB
:1033F6001F40110AC8945AC89425400805F07A005F
:10340600CDC2E7CDC0F0900033121550EA2323C099
:10341600E02496F582E43433F583121540120D61EB
:10342600ECC0E0EDC0E0EEC0E0EFC0E01215249085
