:03609D00200A00D6
:1045FE004101450A41014600410152004101470077
:10460E004101500041014E0041015B0049013C0057
:10461E000000000000000000410151064101580356
:06462E00410157F2C10931
:03000B00025F0C85
:105F0C00C0E0C083C082900145E014F0A3E004F02F
:095F1C00C28DD082D083D0E032A6
:105FD400E58954F04401F589E4F58CF58AD28C22E4
:05609000C28DD2A9221F
:03609A00C2A92276
:0B603100125D93EFF47002EEF460F5D6
:01603C002241
:055B3A009000B1EFF046
:105B3F009000B1E0FF125C6CEF3395E04F6024E40E
:105B4F009000B2F0A3F0C39000B3E094E89000B2DD
:105B5F00E0940350DBA3E004F070EB9000B2E0049C
:085B6F00F080E39000B1E0FFBB
:015B7700220B
:105FE40012609512605912603DC283D287C2972213
:104D3400E4FDFC7FA8125CA7900159E4F0A3EFF016
:104D44007D027C007FA8125CA7900155E4F0A3EFDC
:104D5400F07D047C007FA8125CA7900153E4F0A3CB
:104D6400EFF07D067C007FA8125CA790014CE4F074
:104D7400A3EFF07D087C007FA8125CA7900149EFA7
:104D8400F07D0A7C007FA8125CA7900148EFF07DBB
:104D94000C7C007FA8125CA790014FEFF07D0E7C85
:104DA400007FA8125CA790014BEFF07D0B7C007F85
:0A4DB400A8125CA790014AEFF0225C
:1043DB00125FD4126090125D41125BB6125FE4D291
:1043EB00AF125E45125EF27F61125594126060202F
:1043FB009103122762124D349001457403F0208013
:10440B003F7B017A007900124A6490000DEFF012A5
:10441B0060507B017A00790090000DE0FD12489806
:10442B007B017A00790090000DE0FD90004C740147
:10443B00F01252447B017A01793C125B7812605086
:10444B00121CDD20B33D7B017A0179141249CD900A
:10445B00000DEFF0FD7B017A01791490004C740193
:10446B00F012524490000DE0FF1258E97BFF7A6086
:10447B00799D125B787B017A01791490000DE0FD38
:09448B001220EB125162024409F7
:08000300D2941260A0C2942205
:055A7D0090004CEFF069
:105A8200E4A3F0A3F090004CE0FFA2E713F030D7BC
:105A920004D2958002C29512000390004EE004F0F9
:105AA200700690004DE004F0C390004EE094089020
:095AB200004DE06480948040CCBA
:015ABB0022C8
:0A4AF900EBF0A3EAF0A3E9F07F8DD3
:054B0300900049EFF0F5
:104B0800D2967F037E00125F68900049E0FF125A38
:104B18007DE490004AF0A3F090004AE0FCA3E0FD99
:104B2800C39408EC64809480504F309516900177B8
:104B3800E04480F0ED9406EC648094805005E0FF3A
:104B4800C313F0209520900177E0547FF0D39000B4
:104B58004BE0940690004AE06480948050089001ED
:104B680077E0FFC313F012000390004BE004F070ED
:104B7800A790004AE004F0809FC296900177E0FF7A
:014B8800220A
:105D6B00900020EFF0A3EDF0D2967F037E00125F40
:105D7B0068900020E0FF125A7D900021E0FF900018
:085D8B0020F0125A7DC296229D
:1059BB0090001EE475F0011214DC90001EE475F0EB
:1059CB00011214DC90001EE475F0011214DC90003F
:1059DB001DE0FBA3E0FAA3E0F9121450FF900001C5
:0459EB00121469FD2C
:0C59EF00EF540FC454F0FFED540F4FFFB5
:0159FB002289
:104C190090001DEBF0A3EAF0A3E9F01259D9AD0712
:104C29007F86125D6B1259BBAD077F88125D6B9051
:104C3900001EE475F0011214DC90001EE475F00109
:104C49001214DC1259BBAD077F8C125D6B1259BB74
:104C5900AD077F84125D6B1259BBAD077F82125D70
:104C69006B1259BBAD077F80125D6B90001EE47516
:104C7900F0011214DC90001EE475F0011214DC90AE
:104C8900001EE475F0011214DC90001DE0FBA3E0A6
:0F4C9900FAA3E0F9121450540FFD7F8A025D6BED
:105E7E00AE07EEC4540F540FFE6012EF540FFFE442
:0D5E8E00FDEDC39E5007740A2FFF0D80F438
:015E9B0022E4
:1054F400E4FFFE90001DEDF090001DE0C394647481
:105504008094804007E0249CF00F80ECEF4430123C
:105514001496740129F9E43AFA90001DE0C3940A40
:10552400748094804007E024F6F00E80ECEE443062
:10553400121496740129F9E43AFA90001DE04430FB
:03554400021496B8
:0E24920090001DEBF0A3EAF0A3E9F0A3EDF03B
:1024A000E4900022F0A3F0900025F0A3F0A3F0A3A5
:1024B000F0900024EDF054F0F0E0FFC4540FF090E1
:1024C000002D121549404000007F007E007D807C79
:1024D00041122D11C004C005C006C007900024E0C1
:1024E000FCE4120F62D003D002D001D000120E52D1
:1024F000C004C005C006C007900022E0FCA3E0FDB8
:10250000E4120F5DD003D002D001D000120D611291
:102510000F96900022EEF0A3EFF0900020E09000E4
:1025200024F0540FF090002D121549400000007F58
:10253000007E007D807C41122D11C004C005C006C4
:10254000C007900024E0FCE4120F62D003D002D058
:1025500001D000120E52C004C005C006C007900092
:1025600022E0FCA3E0FDE4120F5DD003D002D00115
:10257000D000120D61120F96900022EEF0A3EFF042
:10258000900021E0900024F054F0F0E0FFC4540FDC
:10259000F090002D1215493F8000007F007E007DE5
:1025A000807C41122D11C004C005C006C0079000F8
:1025B00024E0FCE4120F62D003D002D001D000125C
:1025C0000E52C004C005C006C007900022E0FCA364
:1025D000E0FDE4120F5DD003D002D001D000120D57
:1025E00061120F96900022EEF0A3EFF0900021E030
:1025F000900024F0540FF090002D121549000000B7
:10260000007F007E007D807C41122D11C004C0053A
:10261000C006C007900024E0FCE4120F62D003D093
:1026200002D001D000120E52C004C005C006C0077F
:10263000900022E0FCA3E0FDE4120F5DD003D00285
:10264000D001D000120D61120F96900022EEF0A37F
:10265000EFF0C3EF9410EE9427401074F02FFF7446
:10266000D83EFE900025E004F080E7900025E0448D
:1026700030FD90001DE0FBA3E0FAA3E0F9ED121499
:102680009690001EE475F0011214DCC3EF94E8EE9E
:102690009403401074182FFF74FC3EFE900026E057
:1026A00004F080E7900026E04430FD90001DE0FB40
:1026B000A3E0FAA3E0F9ED12149690001EE475F081
:1026C000011214DCC3EF9464EE94004010749C2F4C
:1026D000FF74FF3EFE900027E004F080E7900027A3
:1026E000E04430FD90001DE0FBA3E0FAA3E0F9ED2B
:1026F00012149690001EE475F0011214DCC3EF94DE
:102700000AEE9400401074F62FFF74FF3EFE900016
:1027100028E004F080E7900028E04430FD90001DA0
:10272000E0FBA3E0FAA3E0F9ED12149690001EE49A
:1027300075F0011214DCEF4430FF90001DE0FBA3A4
:10274000E0FAA3E0F9EF12149690001EE475F00190
:102750001214DC90001DE0FBA3E0FAA3E0F9E40210
:022760001496CD
:03299C0090004662
:10299F00124AF9EF54F0C4540F4430FE900046E051
:1029AF00FBA3E0FAA3E0F9EE121496900047E4754A
:1029BF00F0011214DCEF540F4430FF900046E0FB9F
:1029CF00A3E0FAA3E0F9EF121496900047E475F034
:1029DF00011214DC7F89124B03EF54F0C4540F44DF
:1029EF0030FE900046E0FBA3E0FAA3E0F9EE1214EC
:1029FF0096900047E475F0011214DCEF540F443049
:102A0F00FF900046E0FBA3E0FAA3E0F9EF12149663
:102A1F00900047E475F0011214DC7F87124B03EF2F
:102A2F0054F0C4540F4430FE900046E0FBA3E0FA8C
:102A3F00A3E0F9EE121496900047E475F00112141A
:102A4F00DCEF540F4430FF900046E0FBA3E0FAA305
:102A5F00E0F9EF121496900047E475F0011214DCC0
:102A6F007F85124B03EF54F0C4540F4430FE900097
:102A7F0046E0FBA3E0FAA3E0F9EE121496900047AC
:102A8F00E475F0011214DCEF540F4430FF90004650
:102A9F00E0FBA3E0FAA3E0F9EF121496900047E4ED
:102AAF0075F0011214DC7F83124B03EF54F0C45402
:102ABF000F4430FE900046E0FBA3E0FAA3E0F9EEEE
:102ACF00121496900047E475F0011214DCEF540FC6
:102ADF004430FF900046E0FBA3E0FAA3E0F9EF12C9
:102AEF001496900047E475F0011214DC7F81124BAD
:102AFF0003EF54F0C4540F4430FE900046E0FBA3A4
:102B0F00E0FAA3E0F9EE121496900047E475F00195
:102B1F001214DCEF540F4430FF900046E0FBA3E0AB
:102B2F00FAA3E0F9EF121496900047E475F0011242
:102B3F0014DC7F8B124B03EF540F4430FF90004691
:102B4F00E0FBA3E0FAA3E0F9EF121496900047E43C
:102B5F0075F0011214DC900046E0FBA3E0FAA3E04D
:052B6F00F9E4021496D8
:1046B000900031124AF9125E7E900031E0FBA3E0D7
:1046C000FAA3E0F9EF121496900032E475F00112AB
:1046D00014DC7F89124B03125E7E900031E0FBA355
:1046E000E0FAA3E0F9EF121496900032E475F001BD
:1046F0001214DC7F87124B03125E7E900031E0FBC8
:10470000A3E0FAA3E0F9EF121496900032E475F0FA
:10471000011214DC7F85124B03125E7E900031E0A3
:10472000FBA3E0FAA3E0F9EF121496900032E475CF
:10473000F0011214DC7F83124B03125E7E90003175
:10474000E0FBA3E0FAA3E0F9EF121496900032E444
:0647500075F0010214DC0B
:103F690090002A124AF990002AE0FBA3E0FAA3E0A4
:103F7900F9EF12149690002BE475F0011214DC7F0E
:103F890089124B0390002AE0FBA3E0FAA3E0F9EFC2
:103F990012149690002BE475F0011214DC7F87123D
:103FA9004B0390002AE0FBA3E0FAA3E0F9EF121417
:103FB9009690002BE475F0011214DC7F85124B03F7
:103FC90090002AE0FBA3E0FAA3E0F9EF121496901F
:103FD900002BE475F0011214DC7F83124B0390006F
:103FE9002AE0FBA3E0FAA3E0F9EF12149690002B64
:103FF900E475F0011214DC7F81124B0390002AE072
:10400900FBA3E0FAA3E0F9EF12149690002BE475F4
:10401900F0011214DC90002AE0FBA3E0FAA3E0F916
:04402900E402149603
:07605900C294C296D2952209
:105F6800E4FDFCC3ED9FEC9E50070DBD00010C80C5
:015F7800F236
:015F79002205
:045ED700AB07AA0665
:105EDB00900000C3E5829BE5839A500A7F967E0073
:065EEB00125F68A380EDC8
:015EF100228E
:0160A00022DD
:035DFF00125DDD55
:105E0200D20AD293D292E4FFFE209205C20AC29332
:0C5E1200220FBF00010EBE04F0BF4CEDDB
:015E1E002261
:035E1F00125DDD34
:105E2200D293D292D20AE4FFFE209205C20AC29312
:0C5E3200220FBF00010EBE02F0BF8AED7F
:015E3E002241
:06608A00D29300C2932234
:105DDD00E4FEEEC39408748094805015EF25E0FF27
:105DED0030D704D2928002C292D29312608A0E8072
:015DFD00E1C4
:015DFE002282
:085F7A00ECFD7C00C293C29211
:0A5F8200D292D29300C292C2932281
:09604700C293C292D293D29222BC
:10554700E4FBEBFDC39408748094805038C2933019
:105557009216900172E04401F0ED940674809480F5
:105567005006E025E0F0D293209217900172E054A4
:10557700FEF0EBD39406748094805006E025E0F0AB
:0C558700D2930B80BDC293900172E0FF34
:0155930022F5
:025ABC00AA0737
:105ABE00AF05A907125F7AAF02125DFFAF05125D47
:105ACE00FFAF01125DDD125E02AF03125DDD125EED
:105ADE00021260477F0D7E00125ED7D293D2927F64
:0D5AEE00627E00125F687F627E00025F68CA
:025CA700AB0749
:105CA900AF05AA07125F7AAF03125E1FAF05125E36
:105CB9001FAF02125DDD125E22125F82EB04FF123A
:105CC9005DDD125E02C293125547126047D293D22C
:065CD90092900172E0FF51
:015CDF0022A2
:1054450090007DEEF0A3EFF0A3EBF0A3EAF0A3E963
:01545500F066
:1054560090007DE0FCA3E0FD7FA8125CA790007F92
:10546600E0FBA3E0FAA3E0F9EF12149690007FE0C8
:10547600FBA3E0FAA3E0F9121450FF90007EE004CB
:10548600F0700690007DE004F0900080E475F00175
:065496001214DCEF70BAF5
:01549C0022ED
:104DBE0090007DEFF0A3ECF0A3EDF0A3EBF0A3EAEF
:104DCE00F0A3E9F0900080E0FBA3E0FAA3E0F91273
:104DDE001450603CB40D04E412149690007DE0FF74
:104DEE00A3E0FCA3E0FDA3E0FBA3E0FAA3E0F9122D
:104DFE001450FB125ABC90007FE004F07006900035
:104E0E007EE004F0900081E475F0011214DC80B4B1
:104E1E00900080E0FBA3E0FAA3E0F9E41214969070
:104E2E00007DE0FFA3E0FCA3E0FDA3E0FBA3E0FA1E
:0A4E3E00A3E0F9121450FB025ABC65
:105BF400E4FF7B017A00791D12299C90001DE024AA
:105C0400D064027026A3E024D0C3940274809480EC
:105C14004019A3E024D0FF700FA3E024D0C3940361
:0B5C24007480948040058000125AFB41
:015C2F002252
:105AFB0090002874FFF0E4A3F0A3F0900029E0FCE1
:105B0B00A3E0FDC39450EC9403501A900028E0FBE3
:105B1B007FA8125ABC90002AE004F070DE90002996
:0F5B2B00E004F080D6E4FBFD7C087FA8025ABCA2
:1047F80053656E736F726573204175746F207920ED
:1048080073656E736F72312061637469766F732E8E
:104818000053656E736F722061637469766F2073DD
:10482800656E736F7231202E004465746563746120
:10483800646F2E2053656E736F72204175746F2EEE
:104848000053656E736F726573206E6F20646574B4
:1048580065637461646F73005665686963756C6F2E
:10486800204573706572616E646F2053616C697264
:104878002E005665686963756C6F2053616C6965B5
:104888006E646F2E20556E206D6F6D656E746F00AF
:07606000C2B5C2B6C2B722AF
:07606700C2B5D2B6C2B72298
:07606E00C2B5C2B6D2B72291
:07607500D2B5C2B6D2B7227A
:07607C00C2B5D2B6D2B72273
:07608300D2B5D2B6D2B7225C
:105E5F00E4FF7DF47C01309115EFFB3395E04B703F
:0E5E6F000DED1D70011CED4C70EC7F0180E804
:015E7D002202
:105F8C007F3112607C3091010F1260833091020FCF
:015F9C000FF5
:015F9D0022E1
:1051D50012606E30915D125E5FEF3395E0FEEF6415
:1051E500014E70471260752091231260677BFF2086
:1051F500910D7A4779F8125B78E490014E80227A16
:10520500487919125B7890014E7401801412606719
:105215007BFF2091107A487931125B7890014E74AA
:1052250001F07FFF227A487949800E7BFF7A487921
:0F5235006080067BFF7A48797A125B787F0022CF
:1051620012606020916190000EE07014A3E0701054
:1051720030B35404F0125D1590000E7401F08047B4
:1051820090000EE064017014A3E0701030B3380494
:10519200F012346690000E7402F0802B90000EE044
:1051A20064027023A3E0701F30B31C04F07D667CA0
:1051B200007FA8125CA7BF53047F5380027F4E1268
:1051C2004E48E490000EF0126060309105E49000C9
:0251D2000FF0DC
:0151D40022B8
:0B4A640090000EEBF0A3EAF0A3E9F0D5
:104A6F00E4900012F0A3740CF0900148E064017020
:104A7F0073900011F0900013E0FF900011E0C39FBE
:104A8F005053E4FFFEFD30801DED701A0FBF000183
:104A9F000ED3EF9430EE947540EC7D01900013E04F
:104AAF00900011F080E0ED6401602A124ED090006A
:104ABF000EE0FBA3E0FAA3E0F9EF12149690000FBB
:104ACF00E475F0011214DC900012E004F090001174
:104ADF00E004F080A090000EE0FBA3E0FAA3E0F961
:094AEF00E4121496900012E0FF9D
:014AF800229B
:0B48980090000EEBF0A3EAF0A3E9F0A3
:1048A300E4FF7E029000021214696403701C9000FE
:1048B3000EE0FBA3E0FAA3E0F9900001121469B43F
:1048C3005008D297E4900146F02290000EE0FBA33B
:1048D300E0FAA3E0F9900001121469643C7050906F
:1048E300000EE0FBA3E0FAA3E0F98E8275830012C9
:1048F3001469FD743C2FF582E43401F583EDF00E69
:104903000F8E82758300121469640370D290000EB7
:10491300E0FBA3E0FAA3E0F98E82758300E41214AE
:0F492300A8743B2FF582E43401F583E4F0D20948
:014932002262
:0E59FC00900046EBF0A3EAF0A3E9F0A3EDF073
:105A0A00E4A3F0900049E0FFA3E0C39F5024900074
:105A1A0046E0FBA3E0FAA3E0F9121450FF125594F2
:105A2A00900047E475F0011214DC90004AE004F09B
:025A3A0080D119
:015A3C002247
:0B3D080090001DEBF0A3EAF0A3E9F02F
:103D130090003E7403F090002014F0125F8C90002A
:103D230021EFF0A37453F090014EE090003E601336
:103D3300E0FF04F074202FF582E43400F583744D22
:103D4300F08011E0FF04F074202FF582E43400F5D5
:103D5300837443F090003E7404F090001DE0FBA3D5
:103D6300E0FAA3E0F9121450FF602190003EE02432
:103D730020F582E43400F583EFF090001EE475F043
:103D8300011214DC90003EE004F080CE90003EE08F
:103D9300FF04F074202FF582E43400F583743AF0C5
:103DA30090003EE02420F9E43400FA7B0112299CC0
:103DB30090003EE0FF242AF582E43400F583743A50
:103DC300F0742B2FF582E43400F5837403F07B0148
:0B3DD3007A007920EF240CFD0259FC5F
:0E3A620090001FEBF0A3EAF0A3E9F0A3EDF053
:103A7000A37402F0125F8C900024EFF0A37453F053
:103A8000E4A3F0900022E0900042F0E4A3F07B0178
:103A900090005304F0A37400F0A37442F07A00790C
:103AA000231252B290001FE0F9A3E0FAA3E09000C5
:103AB00053C9F0A3EAF0A3E9F07B017A007923125D
:103AC00052B2900042743AF0E4A3F07B01900053AC
:103AD00004F0A37400F0A37442F07A007923125228
:103AE000B27B017A00792312000E900041EFF0249E
:103AF00023F9E43400FA7B0112299C900041E0FF95
:103B0000242DF582E43400F583743AF0742E2FF5F9
:103B100082E43400F5837403F0742F2FF582E434CB
:103B200000F583E4F074302FF582E43400F583E48B
:103B3000F07B017A00792312000E900041EFF0FD36
:093B40007B017A0079230259FC93
:105FF40090000AE41214A87D007C057FA8024DBE1F
:10335400613B38353B414345525155452053552037
:103364005449434B45540A0000613B38393B4752AA
:103374004143494153202E2E2E2E2E200A00006157
:103384003B39373B4E6F2054494B4554204E4F2018
:103394005245474953545241444F200A0000613B6F
:1033A40038383B45584345444520484F52415249DB
:1033B4004F2E2E2E0A0000613B39353B554E204DD1
:1033C4004F4D454E544F202E2E2E2E200A000061C4
:1033D4003B39363B53494E2050524553454E4349A1
:1033E40041205645484943554C41522E2E2E2E20FD
:1033F4000A0000613B39303B4E4F20524547495348
:10340400545241205041474F2E2E2E2E200A0000A8
:10341400613B39303B444952494A4153452041209C
:1034240043414A410A000057494547414E44200060
:10343400613B39323B4752414349415320000A0022
:1034440000613B39383B57494547414E442000AA67
:10345400802807200000000000140000AA80180142
:02346400020064
:055E9C00900055EDF03F
:105EA100125B3A900056EFF0900055E0600AE4FF73
:085EB100125B3A900056EFF07D
:015EB90022C6
:0E5C3000900050EBF0A3EAF0A3E9F0A3EDF032
:105C3E00E4A3F0900050E0FBA3E0FAA3E0F990009B
:105C4E0054E0F582758300121469FF6010900053C2
:0D5C5E00E0FD125E9C900054E004F080D642
:015C6B002216
:0E59300090002AEBF0A3EAF0A3E9F0A3EDF05B
:10593E00E490002FF090002DE0FF90002FE0FEC3CA
:10594E009F502490002AE0FBA3E0FAA3E0F98E8298
:10595E00758300121469FF90002EE0FD125E9C907C
:07596E00002FE004F080CEE1
:01597500220F
:105CE000781D7C007D017BFF7A3479537E007F0D27
:105CF00012142AC2877B017A007922123F69C29C62
:105D00007B017A00791DE490002EF07D0D12593050
:045D1000D29CD287C8
:015D1400226C
:0953E7001218277B017A00791FDE
:0B53F000900050EBF0A3EAF0A3E9F0FE
:1053FB0012000E900054EFF0E4900053F090005424
:10540B00E0FF900053E0FEC39F502E900050E0FB56
:10541B00A3E0FAA3E0F98E82758300121469FF12E0
:10542B005B3AE4FFEFC394C87480948050030F8001
:09543B00F3900053E004F080C47A
:015444002245
:10475600C28790014AE07003D28722C287EF24FC09
:10476600603724FD604124FE604C24AF6072247AD9
:10477600605224F9605C24E86011047072781F7C32
:10478600007D017BFF7A3379548061781F7C007D40
:10479600017BFF7A33796D8053781F7C007D017B26
:1047A600FF7A3379838045781F7C007D017BFF7A11
:1047B6003379A21253E7781F7C007D017BFF7A33A1
:1047C60079BB8028781F7C007D017BFF7A3379D303
:1047D600801A781F7C007D017BFF7A3379F7800C85
:1047E600781F7C007D017BFF7A3479141253E7D25F
:0147F600873B
:0147F700229F
:0E30FD0090001DEFF0A3EBF0A3EAF0A3E9F0C2
:10310B0078217C007D017BFF7A3479607E007F061D
:10311B0012142AC28790014AE0706690001DE024C9
:10312B0050705B7B017A007921E4FD125C307BFFF0
:10313B007A34792B12000E90004FEFF090001EE0C6
:10314B00FBA3E0FAA3E0F912000E90004FE02F046E
:10315B00F0E4FDFF125E9C90004FE025E0FFE4FDE4
:10316B00125E9C7BFF7A34792B7D01125C309000D0
:10317B001EE0FBA3E0FAA3E0F97D01125C30D287DD
:10318B0022C28790001DE02450604524B1600302E9
:10319B00322878277C007D017BFF7A347934121832
:1031AB002790001EE0FBA3E0FAA3E0F912000E90BB
:1031BB00004FEFF024FFFFE434FFFE90001EE0FB16
:1031CB00A3E0FAA3E0F98F828E83E41214A8800F98
:1031DB0078277C007D017BFF7A3479451218279084
:1031EB00001EE0F9A3E0FAA3E0900053C9F0A3EAB4
:1031FB00F0A3E9F07B017A0079271252B2900053C9
:10320B0074FFF0A37434F0A37442F07B017A00795D
:0F321B00271252B27B017A0079271253F0D28723
:01322A002281
:100026000D0A0A25733E20002563002564000D0A8B
:100036000A2041435455414C2049445F434C4945AD
:100046004E54453D25730D0A0A000D0A0A204449FF
:1000560047495445205355204E5545564F2049444F
:100066005F434C49454E54453D000D0A0A20444124
:10007600544F204D4F444946494341444F2049443B
:100086005F434C49454E54453D25730D0A0A000D04
:100096000A0A2041435455414C20434F445F504186
:1000A600524B3D25730D0A0A000D0A0A20444947A2
:1000B600495445205355204E5545564F20434F44ED
:1000C6005F5041524B3D000D0A0A204441544F20D7
:1000D6004D4F444946494341444F20434F445F50A6
:1000E60041524B3D25730D0A0A000D0A0A20414371
:1000F6005455414C205449454D504F5F475241435A
:1001060049413D25730D0A0A000D0A0A2044494754
:10011600495445205355204E5545564F2054494580
:100126004D504F5F4752414349413D000D0A0A2059
:100136004441544F204D4F444946494341444F2082
:100146005449454D504F5F4752414349413D257300
:100156000D0A0A000D0A0A2041435455414C20530A
:10016600494E5F434F42524F20494E484142494C07
:10017600495441444F3D25730D0A0A000D0A0A20D1
:1001860041435455414C2053494E5F434F42524FD1
:10019600204752415449533D25730D0A0A000D0A62
:1001A6000A2041435455414C2053494E5F434F4228
:1001B600524F2047524154495320592053414C49EC
:1001C600444120454C204D49534D4F204449413D23
:1001D60025730D0A0A000D0A0A2044494749544569
:1001E600205355204E5545564F2053494E5F434F99
:1001F60042524F3D000D0A0A2041435455414C20BE
:10020600444542554720494E484142494C4954418C
:10021600444F3D25730D0A0A000D0A0A2041435436
:1002260055414C20444542554720484142494C4996
:100236005441444F3D25730D0A0A000D0A0A204415
:10024600494749544520454C204E5545564F204573
:10025600535441444F2044452044454255473D00B0
:100266000D0A0A2041435455414C205553455F4CD5
:10027600505220494E484142494C495441444F3D11
:1002860025730D0A0A000D0A0A2041435455414CB4
:10029600205553455F4C505220484142494C4954E1
:1002A60041444F3D25730D0A0A000D0A0A204449B0
:1002B6004749544520454C204E5545564F204553F9
:1002C6005441444F204445205553455F4C50523DC0
:1002D600000D0A0A2050414E54414C4C41204C43DB
:1002E6004420484142494C49544144413D25730DFF
:1002F6000A0A000D0A0A2050414E54414C4C412036
:100306005241535042455252592020484142494C8D
:1003160049544144413D25730D0A0A000D0A0A203D
:1003260044494749544520454C204E5545564F2093
:1003360045535441444F204445204C412050414EA2
:1003460054414C4C41203D000D0A0A20414354556E
:10035600414C20434F4D5041524143494F4E20415D
:1003660043544956412020484142494C495441444E
:10037600413D25730D0A0A000D0A0A2041435455D2
:10038600414C20434F4D5041524143494F4E20412D
:10039600435449564120494E484142494C495441EB
:1003A600444F3D25730D0A0A000D0A0A20414354A5
:1003B60055414C20434F4D5041524143494F4E20E9
:1003C6004143544956412020484142494C495441F1
:1003D600444F3D25730D0A0A000D0A0A2044494779
:1003E60049544520454C204E5545564F20455354BB
:1003F60041444F20444520434F4D504152414349CB
:100406004F4E20414354495641203D000D0A0A20D3
:1004160041435455414C20434F4D5041524143496D
:100426004F4E204143544956412020494E484142AF
:10043600494C495441444F3D25730D0A0A000D0AA3
:100446000A2041435455414C20434F4449474F20CD
:10045600444520424152524153204143544956306B
:100466003D25730D0A0A000D0A0A204143545541E1
:100476004C20434F4449474F205152204143544951
:10048600564F3D25730D0A0A000D0A0A20444947B6
:1004960049544520454C204E5545564F204553540A
:1004A60041444F20444520434F4449474F20515231
:1004B600204F20434F4449474F2044452042415254
:1004C6005241533D000D0A0A20446967697465204C
:1004D600656C206E6F6D6272652064656C20636C5E
:1004E60069656E746520000D0A0A20746578746F5C
:1004F600206772616261646F3D25730D0A0A000D03
:100506000A0A2044696769746520656C206E756DFA
:1005160065726F206465204E697420000D0A0A20FA
:100526004E49543A2025730D0A0A000D0A0A204442
:10053600696769746520656C204E6F6D627265200F
:1005460064656C20506172717565616465726F20B7
:10055600000D0A0A204E6F6D6272653A2025730DF2
:100566000A0A000D0A0A20446967697465206C61ED
:1005760020646972656363696F6E2064656C2065CB
:10058600737461626C6563696D69656E746F200072
:100596000D0A0A20446972656363696F6E3A202505
:1005A600730D0A0A000D0A0A2044696769746520FA
:1005B600656C206D736A312064656C2065737461A7
:1005C600626C6563696D69656E746F20000D0A0A59
:1005D600206D736A313A2025730D0A0A000D0A0A46
:1005E6002044696769746520656C206D736A3220E2
:1005F60064656C2065737461626C6563696D6965B9
:100606006E746F20000D0A0A2044696769746520BC
:10061600656C206D736A332064656C206573746144
:10062600626C6563696D69656E746F20000D0A0AF8
:10063600206D736A333A2025730D0A0A000D0A0AE3
:100646002044696769746520656C206D736A34207F
:1006560064656C2065737461626C6563696D696558
:100666006E746F20000D0A0A206D736A343A2025D5
:10067600730D0A0A000D0A0A204469676974652029
:10068600656C206D736A352064656C2065737461D2
:10069600626C6563696D69656E746F20000D0A0A88
:1006A600206D736A353A2025730D0A0A000D0A0A71
:1006B6002044696769746520656C206D736A36200D
:1006C60064656C2065737461626C6563696D6965E8
:1006D6006E746F20000D0A0A206D736A363A202563
:1006E600730D0A0A000D0A0A2044696769746520B9
:1006F600656C206D736A372064656C206573746160
:10070600626C6563696D69656E746F20000D0A0A17
:10071600206D736A373A2025730D0A0A000D0A20E8
:1007260049445F434C49454E544520202020090941
:10073600092D2D2D20636D642030204964656E746B
:100746006966696361646F722064656C20636C69B5
:10075600656E7465206D6178696D6F203235350080
:100766000D0A20434F445F5041524B202020202049
:10077600200909092D2D2D20636D64203120456C3B
:10078600206E756D65726F2064656C207061727184
:100796007565616465726F206D6178696D6F203271
:1007A6003535000D0A20545F475241434941202008
:1007B600202020200909092D2D2D20636D6420326B
:1007C600205469656D706F2073696E20636F627265
:1007D6006F2030302C20206D6178696D6F203235A6
:1007E60035000D0A2053494E5F434F42524F202099
:1007F6002020090909092D2D2D20636D6420332041
:10080600496E686162696C697461646F3D20302C61
:10081600204772617469733D2031202C2047726134
:1008260074697320792073616C69646120656C203A
:100836006D69736D6F206469613D2032000D0A2079
:100846004445425547202020202020202020090909
:10085600092D2D2D20636D64203420486162696C5A
:1008660069746172203D20312C20496E686162698D
:100876006C69746172203D2030000D0A2055534585
:100886005F4C5052202020202020200909092D2DC0
:100896002D20636D64203520486162696C6974613E
:1008A60072203D20312C20496E686162696C697442
:1008B6006172203D2030000D0A205449504F5F5090
:1008C600414E54414C4C41202020202020092D2D02
:1008D6002D20636D6420362050414E54414C4C41CE
:1008E600204C4344203D302050414E54414C4C4115
:1008F600205241535042455252493D31000D0A2083
:10090600434F4D5041524143494F4E5F4143544935
:10091600564120092D2D2D20636D64203720486116
:1009260062696C69746172203D20312C20496E68C1
:100936006162696C69746172203D2030000D0A2085
:1009460051525F434F445F4241525241532009097D
:10095600092D2D2D20636D64203820486162696C55
:1009660069746172205152203D20312C2048616209
:10097600696C6974617220434F445F42415252412F
:1009860053203D2030000D0A20434C49454E544526
:10099600202020202020200909092D2D2D20636DDF
:1009A600642039204E6F6D6272652064656C206329
:1009B6006C69656E7465000D0A204E49542020202E
:1009C600202020202020202009202020202D2D2D11
:1009D60020636D64203130204E756D65726F206422
:1009E600656C206E6974000D0A204E4F4D5F5041B4
:1009F600525120202020202009202020202D2D2D7E
:100A060020636D64203131204E6F6D627265206403
:100A1600656C20706172717565616465726F000D39
:100A26000A20444952454343494F4E20202020097D
:100A36002020202020202D2D2D20636D6420313292
:100A4600204E6F6D6272652064656C2070617271F4
:100A56007565616465726F000D0A204D534A5F31FA
:100A660020202020202020202009202020202D2D7D
:100A76002D20636D64203133206D736A20646520F8
:100A8600696E666F726D6163696F6E2064656C2056
:100A9600706172717565616465726F000D0A204D33
:100AA600534A5F32202020202020202020092020A9
:100AB60020202D2D2D20636D64203134206D736A26
:100AC60020646520696E666F726D6163696F6E2062
:100AD60064656C20706172717565616465726F0022
:100AE6000D0A204D534A5F3320202020202020204D
:100AF6002009202020202D2D2D20636D64203135E6
:100B0600206D736A20646520696E666F726D61631D
:100B1600696F6E2064656C207061727175656164C1
:100B260065726F000D0A204D534A5F342020202045
:100B360020202020092020202020202D2D2D20635C
:100B46006D64203136206D736A20646520696E6697
:100B56006F726D6163696F6E2064656C207061727F
:100B6600717565616465726F000D0A204D534A5FA9
:100B76003520202020202020200920202020202071
:100B86002D2D2D20636D64203137206D736A20640E
:100B96006520696E666F726D6163696F6E2064654C
:100BA6006C20706172717565616465726F000D0A03
:100BB600204D534A5F362020202020202020092067
:100BC60020202020202D2D2D20636D6420313820FB
:100BD6006D736A20646520696E666F726D61636904
:100BE6006F6E2064656C20706172717565616465F5
:100BF600726F000D0A204D534A5F372020202020B7
:100C06002020202009202020202D2D2D20636D64FA
:100C1600203139206D736A20646520696E666F72B3
:100C26006D6163696F6E2064656C207061727175A9
:100C360065616465726F000D0A2041595544412073
:100C4600202020202020202009202020202D2D2D8E
:100C560020636D64203230204D7565737472612097
:100C66006C6F7320636F6D616E646F73000D0A2085
:100C760053414C49522020202020202020200920AA
:100C86002020202D2D2D20636D64203231205361CC
:100C96006C69722064652070726F6772616D616342
:100CA600696F6E000D0A0A53697374656D6120647D
:100CB600652050726F6772616D6163696F6E205651
:100CC60065726966696361646F720D0A0D0A000DCB
:100CD6000A0A2F3E5573756172696F3A000D0A0A4A
:100CE600206461746F732064656C20627566666546
:100CF600722072782025730D0A0A000D0A0A2064F4
:100D060061746F732064656C206275666665722017
:100D160074782025730D0A0A000D0A0A2F3E5061C9
:100D26007373776F72643A00313233343536000D9F
:100D36000A436F6D616E646F206E6F20657869730C
:100D46007465202725732700200D0A00200D0A0050
:040D5600220D0A0060
:104634005400BE2F00000000000000000000000035
:10464400000000000000004900B561646D696E005F
:10465400000000604200D23000003100003200004F
:104664003300003400003500003600003700003805
:104674000000390000313000313100313200313373
:104684000031340031350031360031370031380023
:09469400313900323000323100EE
:0B53850090003FEBF0A3EAF0A3E9F07A
:10539000E4900045F0900045E0FFC39416748094BB
:1053A000805041EF75F003A424D2F9740035F0FA6F
:1053B0007B0178427C007D0112182778427C007DB9
:1053C0000190003FE0FBA3E0FAA3E0F912173EEFE3
:1053D0003395E04F7006900045E0FF22900045E0D5
:0653E00004F080B17FFF24
:0153E60022A4
:0B59760090000EE0FBA3E0FAA3E0F9B4
:0B59810090003FEBF0A3EAF0A3E9F078
:10598C0078427C007D017B017A0079B5121827786A
:10599C00427C007D0190003FE0FBA3E0FAA3E0F91C
:0E59AC0012173EEF3395E04F7002FF227FFF8F
:0159BA0022CA
:065A3D007B017A00792BC9
:0B5A430090003FEBF0A3EAF0A3E9F0B5
:105A4E0078427C007D017BFF7A0D794E7E007F04CB
:105A5E0012142A90004D7401F0A37400F0A3744246
:0F5A6E00F090003FE0FBA3E0FAA3E0F9023B4910
:104B8900E0FBA3E0FAA3E02FF9EA3EFAE92401F9F0
:034B9900E43AFA01
:0B4B9C0090003FEBF0A3EAF0A3E9F06B
:104BA70078427C007D017BFF7A0D79527E007F047D
:104BB70012142A78467C007D017BFF7A0D79567E98
:104BC700007F0412142A90003FE0FBA3E0FAA3E061
:104BD700F9121450FFB4200C900040E475F0011254
:104BE70014DC80E2EF90004DB4220D7401F0A37441
:104BF70000F0A37446F080167401F0A37400F0A3CC
:104C07007442F090003FE0FBA3E0FAA3E0F9123B07
:014C17004953
:014C18002279
:105F3D009000847401F0A37400F0A374BEF07BFF95
:075F4D007A0079260218C555
:0850E2007A00792B7B01E4FD4B
:0E50EA0090007DEBF0A3EAF0A3E9F0A3EDF057
:1050F80012603190007DE0FBA3E0FAA3E0F9EF1223
:105108001496900080E0701D90007DE0FBA3E0FA0B
:10511800A3E0F9121450900084F07BFF7A00792EF6
:105128001218C580057F2A125B3A90007DE0FBA328
:10513800E0FAA3E0F9121450FF7E0090007EE475B7
:10514800F0011214DC90007DE0FBA3E0FAA3E0F983
:09515800E4121496EF640D709747
:01516100222B
:10449400E4FDFC7FA8125CA77E00900049EEF0A327
:1044A400EFF090008474FFF0A37400F0A37431F073
:1044B400A3EEF0A3EFF07B017A00793F1218BF90CE
:1044C40000847401F0A37400F0A3743FF07BFF7ABE
:1044D4000079341218C57BFF7A0079501218C57A16
:1044E40000793F1250E67B017A00793F123C2D900F
:1044F4000049EEF0A3EFF0FBE4FDFC7FA8125ABCE8
:10450400E4FDFC7FA8125CA77E00900049EEF0A3B6
:10451400EFF090008474FFF0A37400F0A37431F002
:10452400A3EEF0A3EFF07B017A00793F1218BF905D
:1045340000847401F0A37400F0A3743FF07BFF7A4D
:064544000079700218C5A9
:1040EC007D027C007FA8125CA77E00900049EEF058
:1040FC00A3EFF090008474FFF0A37400F0A374316C
:10410C00F0A3EEF0A3EFF07B017A00793F1218BF19
:10411C009000847401F0A37400F0A3743FF07BFF53
:10412C007A0079951218C57BFF7A0079AF1218C501
:10413C007B017A00793FE4FD1250EA7B017A007929
:10414C003F123C2D900049EEF0A3EFF0FB7D027C7A
:10415C00007FA8125ABC7D027C007FA8125CA77E4F
:10416C0000900049EEF0A3EFF090008474FFF0A3F0
:10417C007400F0A37431F0A3EEF0A3EFF07B017A9E
:10418C0000793F1218BF9000847401F0A37400F002
:0D419C00A3743FF07BFF7A0079CD0218C5B7
:1041A9007D047C007FA8125CA77E00900049EEF098
:1041B900A3EFF090008474FFF0A37400F0A37431AE
:1041C900F0A3EEF0A3EFF07B017A00793F1218BF5C
:1041D9009000847401F0A37400F0A3743FF07BFF96
:1041E9007A0079F01218C57BFF7A01790F1218C588
:1041F9007B017A00793FE4FD1250EA7B017A00796C
:104209003F123C2D900049EEF0A3EFF0FB7D047CBA
:10421900007FA8125ABC7D047C007FA8125CA77E8F
:1042290000900049EEF0A3EFF090008474FFF0A332
:104239007400F0A37431F0A3EEF0A3EFF07B017AE0
:1042490000793F1218BF9000847401F0A37400F044
:0D425900A3743FF07BFF7A0179320218C593
:102FBF007D067C007FA8125CA77E00900049EEF092
:102FCF00A3EFF090008474FFF0A37400F0A37431AA
:102FDF00F0A3EEF0A3EFF07B017A00793F1218BF58
:102FEF00900049E07002A3E0701590008404F0A3F4
:102FFF007400F0A3743FF07BFF7A01795A8035900B
:10300F000049E07004A3E06401701590008404F09F
:10301F00A37400F0A3743FF07BFF7A0179828014D0
:10302F009000847401F0A37400F0A3743FF07BFF51
:10303F007A0179A41218C57BFF7A0179DC1218C5C1
:10304F007B017A00793FE4FD1250EA7B017A007927
:10305F003F123C2D900049EEF0A3EFF0FB7D067C74
:10306F00007FA8125ABC7D067C007FA8125CA77E49
:10307F0000900049EEF0A3EFF090008474FFF0A3EE
:10308F007400F0A37431F0A3EEF0A3EFF07B017A9C
:10309F0000793F1218BF900049E07002A3E070154D
:1030AF0090008404F0A37400F0A3743FF07BFF7AC8
:1030BF0001795A8035900049E07004A3E0640170F3
:1030CF001590008404F0A37400F0A3743FF07BFF0D
:1030DF007A01798280149000847401F0A37400F057
:0D30EF00A3743FF07BFF7A0179A41218C58D
:0130FC0022B1
:103576007D087C007FA8125CA77E00900049EEF0D3
:10358600A3EFF090008474FFF0A37400F0A37431ED
:10359600F0A3EEF0A3EFF07B017A00793F1218BF9B
:1035A600900049E07002A3E0701590008404F0A337
:1035B6007400F0A3743FF07BFF7A0179FB801490CE
:1035C60000847401F0A37400F0A3743FF07BFF7ACB
:1035D60002791F1218C57BFF7A0279411218C57B42
:1035E600017A00793FE4FD1250EA7B017A00793FC7
:1035F600123C2D900049EEF0A3EFF0FB7D087C0015
:103606007FA8125ABC7D087C007FA8125CA77E00AA
:10361600900049EEF0A3EFF090008474FFF0A374DD
:1036260000F0A37431F0A3EEF0A3EFF07B017A0073
:10363600793F1218BF900049E07002A3E070159020
:10364600008404F0A37400F0A3743FF07BFF7A01BA
:1036560079FB80149000847401F0A37400F0A374C5
:0B3666003FF07BFF7A02791F1218C5AD
:013671002236
:103672007D0A7C007FA8125CA77E00900049EEF0D4
:10368200A3EFF090008474FFF0A37400F0A37431F0
:10369200F0A3EEF0A3EFF07B017A00793F1218BF9E
:1036A200900049E07002A3E0701590008404F0A33A
:1036B2007400F0A3743FF07BFF7A02796680149065
:1036C20000847401F0A37400F0A3743FF07BFF7ACE
:1036D20002798C1218C57BFF7A0279B01218C57B69
:1036E200017A00793FE4FD1250EA7B017A00793FCA
:1036F200123C2D900049EEF0A3EFF0FB7D0A7C0016
:103702007FA8125ABC7D0A7C007FA8125CA77E00AB
:10371200900049EEF0A3EFF090008474FFF0A374E0
:1037220000F0A37431F0A3EEF0A3EFF07B017A0076
:10373200793F1218BF900049E07002A3E070159023
:10374200008404F0A37400F0A3743FF07BFF7A02BC
:10375200796680149000847401F0A37400F0A3745D
:0B3762003FF07BFF7A02798C1218C543
:01376D002239
:10376E007D0B7C007FA8125CA77E00900049EEF0D6
:10377E00A3EFF090008474FFF0A37400F0A37431F3
:10378E00F0A3EEF0A3EFF07B017A00793F1218BFA1
:10379E00900049E07002A3E0701590008404F0A33D
:1037AE007400F0A3743FF07BFF7A0279D7801490F7
:1037BE0000847401F0A37400F0A3743FF07BFF7AD1
:1037CE000279F91218C57BFF7A0379221218C57B8C
:1037DE00017A00793FE4FD1250EA7B017A00793FCD
:1037EE00123C2D900049EEF0A3EFF0FB7D0B7C0018
:1037FE007FA8125ABC7D0B7C007FA8125CA77E00AE
:10380E00900049EEF0A3EFF090008474FFF0A374E3
:10381E0000F0A37431F0A3EEF0A3EFF07B017A0079
:10382E00793F1218BF900049E07002A3E070159026
:10383E00008404F0A37400F0A3743FF07BFF7A02BF
:10384E0079D780149000847401F0A37400F0A374EF
:0B385E003FF07BFF7A03794E1218C583
:01386900223C
:10386A007D0C7C007FA8125CA77E00900049EEF0D8
:10387A00A3EFF090008474FFF0A37400F0A37431F6
:10388A00F0A3EEF0A3EFF07B017A00793F1218BFA4
:10389A00900049E07002A3E0701590008404F0A340
:1038AA007400F0A3743FF07BFF7A03797E80149052
:1038BA0000847401F0A37400F0A3743FF07BFF7AD4
:1038CA000379AF1218C57BFF7A0379DF1218C57B1B
:1038DA00017A00793FE4FD1250EA7B017A00793FD0
:1038EA00123C2D900049EEF0A3EFF0FB7D0C7C001A
:1038FA007FA8125ABC7D0C7C007FA8125CA77E00B0
:10390A00900049EEF0A3EFF090008474FFF0A374E6
:10391A0000F0A37431F0A3EEF0A3EFF07B017A007C
:10392A00793F1218BF900049E07002A3E070159029
:10393A00008404F0A37400F0A3743FF07BFF7A04C0
:10394A00791280149000847401F0A37400F0A374B7
:0B395A003FF07BFF7A0379AF1218C525
:01396500223F
:103966007D0E7C007FA8125CA77E00900049EEF0D9
:10397600A3EFF090008474FFF0A37400F0A37431F9
:10398600F0A3EEF0A3EFF07B017A00793F1218BFA7
:10399600900049E07002A3E0701590008404F0A343
:1039A6007400F0A3743FF07BFF7A0479448014908E
:1039B60000847401F0A37400F0A3743FF07BFF7AD7
:1039C60004796D1218C57BFF7A04798F1218C57BAE
:1039D600017A00793FE4FD1250EA7B017A00793FD3
:1039E600123C2D900049EEF0A3EFF0FB7D0E7C001B
:1039F6007FA8125ABC7D0E7C007FA8125CA77E00B1
:103A0600900049EEF0A3EFF090008474FFF0A374E9
:103A160000F0A37431F0A3EEF0A3EFF07B017A007F
:103A2600793F1218BF900049E07002A3E07015902C
:103A3600008404F0A37400F0A3743FF07BFF7A04C3
:103A4600794480149000847401F0A37400F0A37488
:0B3A56003FF07BFF7A04796D1218C569
:013A61002242
:1055DC007BFF7A0479CB1218C57B017A00793FE402
:1055EC00FD1250EA7B017A00793F7D107C007FA888
:1055FC00124DBE7B017A00793F7F107E001254451C
:10560C009000847401F0A37400F0A3743FF07BFF4E
:07561C007A0479ED0218C5C4
:105623007BFF7A0579051218C57B017A00793FE47F
:10563300FD1250EA7B017A00793F7D407C007FA810
:10564300124DBE7B017A00793F7F407E00125445A4
:105653009000847401F0A37400F0A3743FF07BFF07
:075663007A0579220218C547
:10566A007BFF7A0579311218C57B017A00793FE40C
:10567A00FD1250EA7B017A00793F7D507C007FA8B9
:10568A00124DBE7B017A00793F7F507E001254454D
:10569A009000847401F0A37400F0A3743FF07BFFC0
:0756AA007A0579570218C5CB
:1056B1007BFF7A0579691218C57B017A00793FE48D
:1056C100FD1250EA7B017A00793F7D807C007FA842
:1056D100124DBE7B017A00793F7F807E00125445D6
:1056E1009000847401F0A37400F0A3743FF07BFF79
:0756F1007A0579960218C545
:1056F8007BFF7A0579AB1218C57B017A00793FE404
:10570800FD1250EA7B017A00793F7DB07C007FA8CA
:10571800124DBE7B017A00793F7FB07E001254455E
:105728009000847401F0A37400F0A3743FF07BFF31
:075738007A0579D30218C5C0
:10573F007BFF7A0579E31218C57B017A00793FE484
:10574F00FD1250EA7B017A00793F7DF17C007FA842
:10575F00124DBE7B017A00793F7FF17E00125445D6
:10576F009000847401F0A37400F0A3743FF07BFFEA
:07577F007A0579D30218C579
:105786007BFF7A06790B1218C57B017A00793FE414
:10579600FD1250EA7B017A00793F7D327C017FA8B9
:1057A600124DBE7B017A00793F7F327E011254454D
:1057B6009000847401F0A37400F0A3743FF07BFFA3
:0757C6007A0679330218C5D1
:1057CD007BFF7A0679431218C57B017A00793FE495
:1057DD00FD1250EA7B017A00793F7D737C017FA831
:1057ED00124DBE7B017A00793F7F737E01125445C5
:1057FD009000847401F0A37400F0A3743FF07BFF5C
:07580D007A06796B0218C551
:105814007BFF7A06797B1218C57B017A00793FE415
:10582400FD1250EA7B017A00793F7DB47C017FA8A8
:10583400124DBE7B017A00793F7FB47E011254453C
:105844009000847401F0A37400F0A3743FF07BFF14
:075854007A0679A30218C5D2
:10585B007BFF7A0679B31218C57B017A00793FE496
:10586B00FD1250EA7B017A00793F7DF57C017FA820
:10587B00124DBE7B017A00793F7FF57E01125445B4
:10588B009000847401F0A37400F0A3743FF07BFFCD
:07589B007A0679DB0218C553
:1058A2007BFF7A0679EB1218C57B017A00793FE417
:1058B200FD1250EA7B017A00793F7D367C027FA897
:1058C200124DBE7B017A00793F7F367E021254452B
:1058D2009000847401F0A37400F0A3743FF07BFF86
:0758E2007A0779130218C5D3
:103DDE007BFF7A0779231218C57BFF7A0779661263
:103DEE0018C57BFF7A0779A91218C57BFF7A077968
:103DFE00E81218C57BFF7A0879431218C57BFF7A43
:103E0E000879801218C57BFF7A0879BD1218C57B18
:103E1E00FF7A0979031218C57BFF7A0979431218C4
:103E2E00C57BFF7A09798C1218C57BFF7A0979BD9B
:103E3E001218C57BFF7A0979ED1218C57BFF7A0A35
:103E4E0079251218C57BFF7A0A795E1218C57BFF99
:103E5E007A0A79A21218C57BFF7A0A79E61218C57A
:103E6E007BFF7A0B792A1218C57BFF7A0B796F12BA
:103E7E0018C57BFF7A0B79B41218C57BFF7A0B79C4
:103E8E00F91218C57BFF7A0C793D1218C57BFF7AA3
:063E9E000C79730218C547
:102762007BFF7A0C79AA1218C57BFF7A0C79D512F5
:1027720018C51260231250E2125A3D90000EEBF07F
:10278200A3EAF0A3E9F0900084E4F0A37400F0A3BC
:102792007422F07BFF7A0C79E31218C5900084E46E
:1027A200F0A37400F0A374A2F07BFF7A0D790112FA
:1027B20018C5125976EF70B17BFF7A0D791F121886
:1027C200C57B017A00792B7D011250EA125A3D90A5
:1027D200000EEBF0A3EAF0A3E9F078B57C007D01EE
:1027E2007BFF7A0D792E121827125976EF70C902E3
:1027F2002974125F3D1250E2125A3D90000EEBF026
:10280200A3EAF0A3E9F012000E90000E124B899099
:102812000011EBF0A3EAF0A3E9F012000E90001110
:10282200124B89900014EBF0A3EAF0A3E9F09000B8
:1028320011E0FBA3E0FAA3E0F9EA494B6017121496
:1028420050B42F1178177C007D01900011A3A3E0F2
:10285200121827803D900011E0FBA3E0FAA3E0F9F3
:10286200EA494B602D78177C007D017B017A007963
:10287200BE121827900011E0F9A3E0FAA3E090003D
:1028820053C9F0A3EAF0A3E9F07B017A00791712A9
:1028920052B290000EE0FBA3E0FAA3E0F9EA494B42
:1028A20070030227F4125385EFB416004003022985
:1028B2007A9028BAF82828730228FC0229020229F1
:1028C2000802290E02291402291A022920022926A5
:1028D20002292C02293202293802293E0229440205
:1028E200294A02295002295602295C022962022938
:1028F2006802296E02297402299B1244940227F469
:102902001240EC0227F41241A90227F4122FBF024F
:1029120027F41235760227F41236720227F41237A0
:102922006E0227F412386A0227F41239660227F47B
:102932001255DC0227F41256230227F412566A02B9
:1029420027F41256B10227F41256F80227F412574E
:102952003F0227F41257860227F41257CD0227F4BA
:102962001258140227F412585B0227F41258A202DA
:1029720027F4123DDE0227F490000EE0F9A3E0FAFC
:10298200A3E0900084C9F0A3EAF0A3E9F07BFF7A08
:092992000D79351218C50227F475
:01299B002219
:106004002D30732D002D31313131312E00256400B6
:0B49CD0090000EEBF0A3EAF0A3E9F06D
:1049D800900013E4F0A37498F012609AE490001227
:1049E800F0C286900011F0C2B2900013E0FEA3E07E
:1049F800FF20B35B900011E07055900013E0FEA318
:104A0800E0FFEF1F70011EEF4E700590001104F0DB
:104A180030B406900011E060E920B433900011E052
:104A2800702D90000EE0FBA3E0FAA3E0F9E5A012D8
:104A38001496900012E004F090000FE475F0011253
:104A480014DC900013E0FEA3E0FF30B4FD80A2D296
:0B4A5800B2D286126090900012E0FFC6
:014A63002230
:0E454A00900048EBF0A3EAF0A3E9F0A3EDF037
:10455800900051F0D2B2D2B4C286E4900050F0C2BA
:10456800B290004C12154900004E2030B34990001B
:1045780050E07043C2B2D2B490004CE0FCA3E0FD1E
:10458800A3E0FEA3E0FFEF24FFFFEE34FFFEED34CF
:10459800FFFDEC34FFFC90004C12153D90004CE000
:1045A800FCA3E0FDA3E0FEA3E0FFEC4D4E4F70BB83
:1045B800A304F0C28280B4900050E0702920B32692
:1045C800900048E0FBA3E0FAA3E0F9121450F5A02C
:1045D800125F9E900049E475F0011214DC90004BC4
:1045E800E014F0E070DA75A0FFD2B2D2B4D2867FC0
:0645F800627E00025F6814
:102E7700900022EDF090001FEBF0A3EAF0A3E9F039
:102E87009000477402F0900029F0A37473F0E4A354
:102E9700F012000E900047EFF090001FE0F9A3E05A
:102EA700FAA3E090004BC9F0A3EAF0A3E9F0A3E48A
:102EB700F0A3EFF07B017A007929123EA49000532A
:102EC70074FFF0A37460F0A37404F07B017A0079B7
:102ED700291252B27F8D124B03125E7EEF2430907F
:102EE7000023F07F89124B03125E7EEF243090009F
:102EF70024F07F87124B03125E7EEF24309000256B
:102F0700F07F85124B03125E7EEF2430900026F08F
:102F17007F83124B03125E7EEF2430900027F0E48C
:102F2700A3F07B0190005304F0A37400F0A3742373
:102F3700F07A0079291252B290005374FFF0A3740B
:102F470060F0A37409F07B017A0079291252B290DC
:102F57000022E0A3F0E4A3F07B0190005304F0A368
:102F67007400F0A37423F07A0079291252B27B011E
:102F77007A00792912000E900047EFF0E02429F536
:102F870082E43400F5837403F0C2B230B3FD7B01F1
:102F97007A007929900047E004FD12454A126050F3
:102FA7007B017A007929900047E004FD90004C747A
:082FB70001F0125244026050C7
:105F9E00C2B47F287E00125F68D2B47F287E0002D2
:025FAE005F682A
:064E480090001FEFF0FBDB
:104E4E00D2B4C286E4A3F0A312154900003A988B9F
:104E5E00A0C2B230B343900020E0703DA3E0FCA3AB
:104E6E00E0FDA3E0FEA3E0FFEF24FFFFEE34FFFE24
:104E7E00ED34FFFDEC34FFFC90002112153D900047
:104E8E0021E0FCA3E0FDA3E0FEA3E0FFEC4D4E4FBE
:104E9E0070C190002004F080BA900020E0700C20C9
:104EAE00B30990001FE0F5A0125F9ED2B2D2B4D229
:104EBE008675A0FF7F627E00125F687F627E0002B1
:024ECE005F681B
:0A603D00D2B4D2B2D28675A0FF22C1
:105D15009000107402F0A37469F07B017A00791287
:105D2500123F697F8B124B03900018EFF0A37403A9
:0C5D3500F07B017A0079107D0A02454ADB
:10346600E4900020F09000107402F0A37444F090F1
:10347600008474FFF0A37460F0A37411F0900159F6
:10348600E0FFA3E0900087CFF0A3EFF07B017A0086
:10349600791B1218BF90001F7402F0900020E024E0
:1034A6001BF582E43400F583E0FF601790001FE00F
:1034B6002410F582E43400F583EFF0900020E00458
:1034C600F0801890001FE02410F582E43400F583A4
:1034D600743BF090001FE004F0800890001FE004A9
:1034E600F080B890008474FFF0A37460F0A37411A8
:1034F600F0900155E0FFA3E0900087CFF0A3EFF036
:103506007B017A00791B1218BFE4900020F090002E
:1035160020E0241BF582E43400F583E0FF60179079
:10352600001FE02410F582E43400F583EFF09000EC
:1035360020E004F0801890001FE02410F582E434A7
:1035460000F583743BF090001FE004F080089000C3
:103556001FE004F080B890001FE0FD2410F582E41F
:103566003400F5837403F07B017A00791002454A32
:10549D004461746F73204D4620726573707565732A
:1054AD0074613A20004461746F73204D4620456E3F
:1054BD00766961646F733A20002F2A2D2D2D2D2DC5
:1054CD002D2D2D2D2D2D2D2D2D2D2D2D2D2D2D2DFF
:1054DD002D2D2D2D2D2D2D2D2D2D2D2D2D2D2D2DEF
:0754ED002D2D2A2F0D0A00EE
:065E3F00AE07EEC313FEE6
:105E4500E4FFEFD3940774809480500D00000000A8
:095E55000000000000000F80E9CC
:015E5E002221
:105EF200E4FFEFD3940474809480500D00000000FE
:095F02000000000000000F80E91E
:015F0B002273
:02559400AE0760
:10559600C2AFC290125E450000AD06EE5401FE7029
:1055A60004C2908002D290125E457C01ECD394072F
:1055B600748094805015EDC313FD5401FE7004C22F
:1055C600908002D290125E450C80E1D290125E4528
:0555D600125E45D2AF9A
:0155DB0022AD
:0258E900AB070B
:1058EB00900149E06401703CEB54F0C4540FFFD3BA
:1058FB00940974809480400674372FFF80047430B1
:10590B002FFF125594EB540FFFD39409748094809E
:10591B00400674372FFF800474302FFF1255947F8D
:04592B00201255945D
:01592F002255
:0E524400900048EBF0A3EAF0A3E9F0A3EDF030
:10525200900149E06401705790004CE0FF3395E003
:10526200FEEF4E7BFF60067A54799D80047A547972
:10527200B2125B78E490004DF090004BE0FF90009A
:105282004DE0C39F5024900048E0FBA3E0FAA3E066
:10529200F9121450FF1258E9900049E475F0011216
:0F52A20014DC90004DE004F080CF7F0A12559489
:0152B10022DA
:0B5B780090004EEBF0A3EAF0A3E9F070
:105B8300E4A3F0900149E064017027900051F09084
:105B9300004EE0FBA3E0FAA3E0F9A3E0F5827583EE
:105BA30000121469FF600B125594900051E004F049
:025BB30080DD93
:015BB50022CD
:096050007BFF7A5479C6025B78EB
:104ED0007EFF125EF2125E45208005747FFF800423
:104EE000EE4480FF125E3FEE208005547FFF80037A
:104EF0004480FF125E3FEE208005547FFF80034414
:104F000080FF125E3FEE208005547FFF80034480C7
:104F1000FF125E3FEE208005547FFF80034480FF38
:104F2000125E3FEE208005547FFF80034480FF1215
:104F30005E3FEE208005547FFF80034480FF125EB9
:104F40003FEE208005547FFF80034480FFAE0712B0
:074F50005E453080FDAF0655
:014F57002237
:05609500D290D2802230
:0E469D00010B00010C00010900010A00C10B15
:03002300024F5831
:104F5800C0E0C083C082C0D075D000C000C006C009
:014F68000741
:104F6900309845C298859908C3E509950AFFE494E4
:104F790000FEEF54804E7018E509547F2422F8A6EC
:104F890008050974222509F87600900147E004F024
:104F9900E508B4240890015B7402F0800BE508B4BD
:104FA9003C0690015B7401F030991AC299E50B65D2
:104FB9000C6010E50C540124A2F8E6F599050CC221
:054FC9000B8002D20B79
:0F4FCE00D007D006D000D0D0D082D083D0E03230
:105D4100D310AF01C3C0D0125BB6E4F50BF50CF56F
:105D510009F50AC29FD29EC29DD29CC298C299D215
:0A5D61000BD2ACD2BCD0D092AF221E
:075BB600D310AF01C3C0D002
:105BBD007D007C087FA8125CA7C299E4F50BF50C5B
:105BCD00C28EC2AB43878053890F438920EF600A91
:105BDD00758DF4758BF4D28E8008758D01758B01E2
:025BED00D28E56
:055BEF00D0D092AF22AE
:105C6C00D310AF01C3C0D09000B4EFF0125FC2C329
:105C7C00EF94027480948040047FFF80199000B4EC
:105C8C00E0FFE50B540124A2F8A607050B300B042A
:0B5C9C00C20BD2997F00D0D092AF2243
:105D9300D310AF01C3C0D0125FB0EF70067EFF7F98
:105DA300FF800EAF0A050AEF547F2422F8E6FF7E38
:065DB30000D0D092AF22E7
:105FB000D310AF01C3C0D0C3E509950AFFD0D0927A
:025FC000AF220E
:105FC200D310AF01C3C0D0C3E50B950CFFD0D09264
:025FD200AF22FC
:0E602300E4F50BF50CF509F50AC298C29922B6
:105F25004C4956450A00477261626163696F6E208C
:085F350053657269653A200012
:0E20EB0090000EEBF0A3EAF0A3E9F0A3EDF0F5
:1020F9006419704490000EE0FBA3E0FAA3E0F91222
:1021090014506402703290000212146964487028F5
:10211900900011E07E0024FFF582EE34FFF5831272
:1021290014696403701290000EA3A3E02403F9E478
:102139003AFA124C19025CE090000EE0FBA3E0FAB7
:10214900A3E0F912145064B67033900146E0C394C9
:10215900147480948040107FB6124756C282E4906E
:102169000146F0C297C283900149E06003022491BD
:10217900900148E064016003022491803E90000EC2
:10218900E0FBA3E0FAA3E0F912145064AA704090AE
:102199000146E0C39414748094805003022491E4AE
:1021A900F0C297D282C283900149E0600302249170
:1021B900900148E06401600302249190014904F010
:1021C9007BFF7A5F7925125B78E4900149F02290D0
:1021D9000011E06401701790000EE0FBA3E0FAA380
:1021E900E0F9121450640170057FFF0222FD90008E
:1021F90011E06401701790000EE0FBA3E0FAA3E080
:10220900F9121450640270057FFE0222FD9000113C
:10221900E06401701790000EE0FBA3E0FAA3E0F977
:10222900121450640470057F040222FD900011E02D
:102239006401701790000EE0FBA3E0FAA3E0F91225
:102249001450640770057F070222FD900011E064B5
:1022590001701790000EE0FBA3E0FAA3E0F9121455
:1022690050640970057F090222FD900011E06401A4
:10227900701690000EE0FBA3E0FAA3E0F9121450E7
:1022890064E770047FE7806C900011E0FF640370DD
:102299002A90000EE0FBA3E0FAA3E0F990000112F6
:1022A900146964557015FE74FF2FF582EE34FFF53D
:1022B9008312146964037003025BF4900011E0FF58
:1022C9006413703390000EE0FBA3E0FAA3E0F91267
:1022D900145064027021900001121469B44F187EE1
:1022E9000074FF2FF582EE34FFF58312146964033D
:1022F90070057FFE024756900011E0FF6413705885
:1023090090000EE0FBA3E0FAA3E0F9121450640276
:1023190070469000011214696456703CEF24FFFF67
:10232900E434FFFE8F82F583121469640370298FE8
:10233900828E83E41214A8E92402F9E43AFA7FFFB1
:102349001230FDE4900011F0D297900146740AF022
:102359007FA1124E48022485900011E0FF640660B7
:102369000302241290000EE0FBA3E0FAA3E0F912A5
:10237900145064026003022412900001121469646B
:10238900576003022412FE74FF2FF582EE34FFF525
:10239900831214696403707190000EA3A390000264
:1023A900121469FD7B017A0079121254F490001518
:1023B9007420F090000EE0FBA3E0FAA3E0F990008E
:1023C90003121469FD90000EA3A39000041214696E
:1023D900900021F07B017A0079161224929001482D
:1023E900E0640170191251D5EFF460077FE01247DC
:1023F90056800B7B017A007912123D0880007B011F
:102409007A0079127FB00230FD900011E0FF640C70
:10241900705390000EE0FBA3E0FAA3E0F912145008
:1024290064027041FE74FF2FF582EE34FFF58312CA
:1024390014696403702F90000EA3A3E02401F9E44A
:102449003AFA125FF47BFF7A5F792B125B7890007E
:102459000EE0FBA3E0FAA3E0F9A3E0FD90004C74C1
:1024690001F002524490000EE0FBA3E0FAA3E0F968
:1024790012145064AB70117FFF12475690014574D6
:0824890037F09001507404F0DB
:012491002228
:102B7400484F52412041484F52413A20000D0A002B
:102B8400484F52412050524F4752414D41444120F9
:102B940044455344453A2000454E20484F52415243
:102BA400494F2050524F4752414D41444F0D0A0066
:102BB400444553505545532044454C20484F5241B9
:102BC40052494F2050524F4752414D41444F0D0AF4
:102BD400000D0A5665686963756C6F20656E206523
:102BE4006C206C6F6F700D0A005665686963756CB4
:102BF4006F206E6F20656E20656C206C6F6F700D9A
:102C04000A0D0A007472616D612064656C206C6544
:102C140063746F7220646174616C6F6769632063AD
:102C24006F64205152007472616D612064656C2080
:102C34006C6563746F7220646174616C6F6769633F
:102C440020636F6420626172726173007472616DDB
:102C5400612064656C206C6563746F7220646174B8
:102C6400616C6F676963206E6F20657374612063A4
:102C74006F6D706C6574610D0A00636F642062612E
:102C84007272617300636F6420515220720A0043B0
:102C94006172726F007469706F2064652076656874
:102CA4006963756C6F3A20006C6F6E676974756444
:102CB400206465206C61207472616D613A200D0A94
:102CC4000046656368612064652073616C696461B2
:102CD4003A20000A0066696E206465206C6563749E
:102CE400757261206465207472616D610D0A005211
:102CF40045454E564941205452414D412050544F70
:0D2D040020504152414C454C4F0D0A20001B
:0446AB0041015C006D
:105DB900E4FF121450FDC3943074809480400AD3D8
:105DC900ED943974809480400A740129F9E43AFA0F
:035DD9000F80DF59
:015DDC0022A4
:0A5EBA00900019E02422F9E4FAFB3D
:105EC400E4FF1214506D600A740129F9E43AFA0FE0
:025ED40080F05C
:015ED60022A9
:0B42660090001FEBF0A3EAF0A3E9F0CA
:104271007B017A00792A1246B090002AE0FF7E0085
:104281007C017D6D1214CAAC06AD07A3E075F01E6A
:10429100A42DFFEC35F0FEA3E07C002FFFEC3EFEE9
:1042A100E4FD90002212153D90001FE0FBA3E0FA0F
:1042B100A3E0F990000112146975F01EA4FDACF0A1
:1042C100C004C005121450FF7E007C017D6D1214E4
:1042D100CAD0E02FFFD0E03EFE9000021214691C0C
:1042E1002FFFEC3EFEE4FD90002612153D900022CA
:1042F100E0FCA3E0FDA3E0FEA3E0FFA3E0F8A3E060
:10430100F9A3E0FAA3E0FBC31215004008900030C6
:0F4311007401F08005E4900030F0900030E0FF80
:01432000227A
:0B43210090001FEBF0A3EAF0A3E9F00E
:10432C007BFF7A2B7974125B787F85124B031258C2
:10433C00E97F83124B031258E97BFF7A2B798112A8
:10434C005B787F85124B03EF3395E0FE7C007D3C60
:10435C001214CAC006C0077F83124B03EFFD3395BE
:10436C00E0FCD0E02DFED0E03C900023F0A3CEF09A
:10437C007BFF7A2B7984125B7890001FE0FBA3E023
:10438C00FAA3E0F990000312146975F03CA4FF90B5
:10439C0000041214697C002FFFEC35F0FED3900062
:1043AC0024E09F900023E09E7BFF500F7A2B799C9A
:1043BC00125B789000227401F0800C7A2B79B41285
:0E43CC005B78E4900022F0900022E0FF7E007B
:0143DA0022C0
:101CDD00900150E0146065147003021E101470031F
:101CED00021E451470030220921470030220BF24BB
:101CFD000560030220B9900145E0640160030220F4
:101D0D00EAC2971251D5EF60227BFF7A2B79D5125B
:101D1D005B787FFE12475690015CE0700B7FA0123E
:101D2D004E4890015C7401F00220857BFF7A2B797F
:101D3D00ED125B78E490015CF0021E07900145E026
:101D4D006401600990015BE070030220EA90015B81
:101D5D00E0640170287BFF7A2C7908125B787B0098
:101D6D007A007922125B787BFF7A2B7981125B786E
:101D7D009001457414F09001507403F02290015BB2
:101D8D00E064027060785D7C017D01FB7A00792250
:101D9D001218277B007A00792212000E900019EF9D
:101DAD00F0E0FF245CF582E43401F583E4F0D3EF39
:101DBD00940A74809480400B1260237FFE12475664
:101DCD000220857BFF7A2C792A125B787B017A01C0
:101DDD00795D125B787BFF7A2B7981125B789001AC
:101DED00507402F022126023E490015CF090015BCC
:101DFD00F07BFF7A2C7950125B789001457403F0DB
:101E0D000220B97BFF7A2C797E125B78E490015B1E
:101E1D00F090001B7443F07B017A01795DFD122E69
:101E2D0077900148E0600E7B017A01795D90001B8F
:101E3D00E0FD123A620220DE900145E0640160038C
:101E4D000220EA7BFF7A2C7989125B78E490015BA2
:101E5D00F0FB7A007922125DB9900019EFF024227F
:101E6D00F9E4FA7D3E125EC490001AEFF090002264
:101E7D0074FFF0A3742CF0A37493F07A00792212FE
:101E8D00402D90001CEBF0A3EAF0A3E9F04A90007E
:101E9D001B60057443F08003744DF07BFF7A2C7941
:101EAD0099125B7890001BE0FF1258E97BFF7A2BAB
:101EBD007981125B787BFF7A2C79AC125B7890007C
:101ECD0019E0FF1258E97BFF7A2B7981125B78902C
:101EDD00001AE0FF1258E97BFF7A2B7981125B78AB
:101EED00E490015DF0900019E0FF640C60030220A6
:101EFD008074222FF9E4FB900022F0A3CBF0A3E92C
:101F0D00F090001AE0FF900025E4F0A3EFF07B01C4
:101F1D007A01795D12531D90001AE0245DF582E47B
:101F2D003401F583E4F07B017A01795D125B787BF6
:101F3D00FF7A2B7981125B787D3A125EBA90001987
:101F4D00E02FFFF01258E97D3E125EBA90001AEFB5
:101F5D00F01258E97BFF7A2B7981125B789000198A
:101F6D00E02424F9E4FB900022F0A3CBF0A3E9F0E8
:101F7D0090001AE0FF900025E4F0A3EFF07B017ACA
:101F8D0000790E12531D90001AE0240CF582E434F2
:101F9D0000F583E4F0900010E024D0C454F0FFA3CA
:101FAD00E024D04FFF125E7E900167EFF09000139A
:101FBD00E024D0C454F0FFA3E024D04FFF125E7E86
:101FCD00900168EFF0900016E024D0C454F0FFA308
:101FDD00E024D04FFF125E7E900169EFF090001962
:101FED00E024D0C454F0FFA3E024D04FFF125E7E56
:101FFD0090016AEFF090001CE024D0C454F0FFA3D0
:10200D00E024D04FFF125E7E90016BEFF07BFF7AE4
:10201D002C79C5125B787B017A00790E125B787B87
:10202D00FF7A2C79D7125B787B017A01796712429E
:10203D0066EF640160057F5A1247567B017A01797C
:10204D0067124321EF64014E60057F5A1247567B9C
:10205D00017A01795D90001BE0FD122E7790014809
:10206D00E0600E7B017A01795D90001BE0FD123A74
:10207D0062805ED2AC12602390014574C8F090016D
:10208D00507401F022D297900145E06401704EC268
:10209D0097D2AC7BFF7A2C79D9125B78900145747D
:1020AD0003F0126023E490015CF08001E490015094
:1020BD00F022900145E0640170237BFF7A2C79F3C7
:1020CD00125B787B017A01795D90001BE0FD122E89
:0D20DD00779001457437F09001507404F0C5
:0120EA0022D3
:100D5A00021002E86480F8E933E83360110460F0B5
:100D6A00ED33EC337009E8FCE9FDEAFEEBFF2204FF
:100D7A0060DED3EB9FEA9EE99DE8C2E78CF0C2F7FA
:100D8A0095F0400CE8CCF8E9CDF9EACEFAEBCFFBC6
:100D9A00120FCD85D0F05804700320D5B3E8047043
:100DAA00075002B2D502100C92D5EC0460F7E4CCDD
:100DBA00C0E0C398F8603B94186008400DD0E0FB8F
:100DCA00020FE4E4FBFAC9FC8028E830E406E4C92F
:100DDA00FBE4CAFCE830E305E4C9CACBFCE85407E3
:100DEA006010F8C3E913F9EA13FAEB13FBEC13FCEE
:100DFA00D8F130F52FC3E49CFCEF9BFFEE9AFEED91
:100E0A0099FDD0E0FBEF4E4D4C701222DB0302102D
:100E1A0009EC2CFCEF33FFEE33FEED33FDED30E74A
:100E2A00EB020FE4EF2BFFEE3AFEED39FDD0E0FBCB
:100E3A0050130BBB000302100CED13FDEE13FEEF73
:080E4A0013FFEC13FC020FE49E
:100E5200EC4D6011E8497017ED33EC3304600DE49A
:100E6200FCFFFEFD22E933E8330470F8021002129F
:100E72000FCD58046009E4CC2481500628500902A1
:100E8200100C284003021009C0E0EB4A7044B980FC
:100E920006D0E0FB020FF8EF4E701CBD8008EBFF9E
:100EA200EAFEE9FD80EBE98DF0A4FEE5F0020F3BDE
:100EB200E9CDF9EAFEEBFFEF89F0A4FCE5F0CE897B
:100EC200F0A42EFFE435F0CD89F0A42DFEE435F038
:100ED2008067EF4E7005BD80D780C3EF8BF0A4AC66
:100EE200F0EE8BF0A42CFCE435F0F8EF8AF0A42CA1
:100EF200E5F038FCE433CB8DF0A42CFCE5F03BF8B4
:100F0200EE8AF0A42CFCE5F038F8E433CF89F0A4A3
:100F12002CFCE5F038CF3400CE89F0A42FFFE5F0A9
:100F22003EFEE433C98DF0A42EFEE5F039CD8AF001
:100F3200A42FFFE5F03EFEE43DFD33D0E0FB500779
:100F42000BBB000F02100CEC2CFCEF33FFEE33FE58
:060F5200ED33FD020FE487
:100F580075F020800E75F010800575F0087D007E14
:100F6800007F003392D530D5031214F2EC334010D1
:100F7800EF33FFEE33FEED33FDEC33FCD5F0ED221D
:0E0F8800E5F0247EA2D513CC92E7CDCEFF2259
:100F9600EDD2E7CD33EC3392D524814006E4FFFE53
:100FA600FDFC22FCE4CFCECDCC24E0501174FF80B2
:100FB600EDC3CC13CCCD13CDCE13CECF13CF04704F
:070FC600F030D5DE0214F249
:10185A00E50D2484F582E43400F583E0050D229039
:10186A000081300703900084E475F00112157A02B2
:10187A0014502000E97F2ED2008018EF540F2490D4
:10188A00D43440D4FF30040BEF24BFB41A00500301
:10189A002461FFE50E6002150E0511E511700205BF
:1018AA001030070E900081E475F00112157AEF02EC
:1018BA001496025B3A7403D2078003E4C207F50D5B
:1018CA00900081121591E4F50EF510F511E50E6000
:1018DA00077F2012189D80F5750FFFC201C200C252
:1018EA0002C203C205C206C208121869FF700D308F
:1018FA0007057F001218AEAF11AE1022B4255FC2E1
:10190A00D5C204121869FF24D0B40A00501A75F01F
:10191A000A780E30D50508B6FF0106C6A426F620B9
:10192A00D5047002D20380D924CFB41A00EF500430
:10193A00C2E5D204021BA0D20180C6D20080C0D266
:10194A000280BCD2D580BAD20580B47F2012189DFD
:10195A002002077401B50E0040F112185AFF12183E
:10196A009D0218D7D208D206809512185AFB12186F
:10197A005AFA12185AF94A4B7006799E7A1C7BFF5A
:10198A0020022EE50E602A7E008E827583001214D4
:10199A006960060EEE650F70F0C2D5EBC0E0EAC0D2
:1019AA00E0E9C0E0EE121C01D0E0F9D0E0FAD0E0A4
:1019BA00FB121450FF60AAEBC0E0EAC0E0E9C0E005
:1019CA0012189DD0E02401F9D0E03400FAD0E0FBEF
:1019DA00E50F0460DCD50FD98087D20280A2121BE2
:1019EA00E360F7E50F7001041210BBA90F600DE563
:1019FA000F600914F50F121C8BEF60F3EA30E7024F
:101A0A00F404C3995079EAF4250F0430E701E40499
:101A1A00F50F800D121BE360C1EA050F250F1210A6
:101A2A00BBEA9000B0F030E701E4250F04D50F04BB
:101A3A0020050114121C01E4C0E0121C8B9000B0B6
:101A4A00E0601320E70714F0121885802204F0D012
:101A5A00E014C0E07F00121885E50F600712187CB9
:101A6A00150F800B30050312187CD0E00218D7D06E
:101A7A00E00480C4121BE3609EE50F041210BB90C1
:101A8A0000B0EAF0E50F2005026001042404121CEC
:011A9A00014A
:101A9B0074FF04C0E0121C8B121885E50F200502A1
:101AAB00600312187CD0E0B50FE87F4512188F90B9
:101ABB0000B0E07F2B30E7047F2DF404C0E0121858
:101ACB009DD0E075F00A84C0F0121886D0E0121891
:101ADB00860218D7791080027908C206C2088008DE
:101AEB00D2D5790A8004790AC2D5E50F047002F5C4
:101AFB000FE4FAFDFEFF12185AFC7B0820011312AB
:101B0B00185AFD7B1030000A12185AFE12185AFF91
:101B1B007B20EC3382D592D55013C3E43000069F63
:101B2B00FFE49EFEE42001039DFDE49CFCE4CBF866
:101B3B00C201EC700CCFCECDCCE824F8F870F3805A
:101B4B0017C3EF33FFEE33FEED33FDEC33FCEB331A
:101B5B00FB994002FB0FD8E9EB300105F8D0E0C44C
:101B6B0048B201C0E00AEC4D4E4F78207B0070C2AA
:101B7B00EAB50F0040BCC0E0121C03D0F0D0E0204F
:101B8B000104C4C0E0C4B201C0F0121886D0F0D575
:101B9B00F0EB0218D712159A1974531ADF5819451E
:101BAB004C1941421AE34F1AEB441AEB49195A43A9
:101BBB001AF1551A1E461A7E4519E8471CBE5019D4
:101BCB00492D194D2E19702B195123196E201CA755
:101BDB002A19094800001968E50FB4FF03750F06B1
:101BEB0012185AFC12185AFD12185AFE12185AFFE4
:101BFB009000A90210F8790AA2D520031430050928
:101C0B00B910020404B9080104A2D5200602500140
:101C1B00042002689202B50E005034C0E07F2030E1
:101C2B0003197F30A20272067205500F121C5AC2A2
:101C3B0002C206C205C2087F30800F300503E9C01F
:101C4B00E012189D300503D0E0F9D0E0B50ECC3092
:101C5B0005177F30B9100C12189D7F583004077F81
:101C6B00788003B9080312189D3002057F2D0218E6
:101C7B009D7F202008F87F2B2006F322920280CF35
:101C8B007F00B40700500B24A9F582E43400F583E0
:101C9B00E0FF22286E756C6C2900D20112185A30A5
:101CAB0001F8C201780E30D50108F60219092D5042
:101CBB0043495812185A2403B405004001E4901C00
:101CCB00B99312188E743A12188ED203750E040241
:021CDB001ADF0E
:102D110090002912153DE4FFFE7D807C3F90002943
:102D2100E0F8A3E0F9A3E0FAA3E0FB12103170068A
:102D3100900029022E6B900029E0FCA3E0FDA3E0A6
:102D4100FEA3E0FF121017FBA3E0FCA3E0FDA3E04C
:102D5100FEA3E0FF121017FFB40108E4FFFE7D801F
:102D61007C3F22EF64046029EB64046024EBB4012E
:102D710030E4FFFEFDFC90002DE0F8A3E0F9A3E0B4
:102D8100FAA3E0FB12103160084006E4FFFEFDFCEF
:102D91002290002D121549FFFFFFFF90002D022EFA
:102DA1006BE4900031F0A3F0FFFEFDFC900029E000
:102DB100F8A3E0F9A3E0FAA3E0FB121031505F9011
:102DC100002DE0FCA3E0FDA3E0FEA3E0FF120F96BF
:102DD100900031EEF0A3EFF0FDCCEECCEC120F5DE4
:102DE100C8ECC8C9EDC9CAEECACBEFCB90002DE043
:102DF100FCA3E0FDA3E0FEA3E0FF120D5DE4FBFAFE
:102E0100F9F8121031708A900029E0FCA3E0FDA3CB
:102E1100E0FEA3E0FF1210AA90002912153D9000D8
:102E210029E0FCA3E0FDA3E0FEA3E0FF12325F90E6
:102E3100002DE0F8A3E0F9A3E0FAA3E0FB120E52A3
:102E410012496B90002D12153D900032E030E017D1
:102E510090002DE0FCA3E0FDA3E0FEA3E0FF121033
:102E6100AA90002D12153D90002DE0FCA3E0FDA3DA
:062E7100E0FEA3E0FF22D9
:100FCD00E9D2E7C933E833F892D5EDD2E7CD33EC6A
:070FDD0033FC5002B2D522E3
:100FE400EC30E7100FBF000C0EBE00080DBD00046E
:100FF4000BEB6014A2D5EB13FCED92E7FD2274FF1A
:10100400FCFDFEFF22E480F8A2D574FF13FC7D8072
:03101400E480EF86
:10101700ED33EC33601004700FED547F70057402EC
:0A10270092E0227404220422E42265
:1010310074F8CC6480CCC86480C8F58204604FC366
:10104100EB9FF5F0EA9E42F0E99D42F0E89C45F005
:10105100603C501DE5825FFFE582D313CB5BCBF48F
:101061002B5582FB50280ABA002409B900200880B8
:101071001DE5825BFBE582D313CF5FCFF4C3132F52
:101081005582FF50090EBE00050DBD00010CC3EBDA
:101091009FF5F0EA9E42F0E99D42F0E89C45F06040
:0910A10007CC4820E701B3EC2262
:1010AA00ED33EC33600A047003BD8004ECB2E7FC54
:0110BA002213
:1010BB00F920E73624F950037907E4F42402FBE521
:1010CB0082158270021583DBF6E024FB501BE9606E
:1010DB0014E4F0E582158270021583E004F0B40A83
:0D10EB0008E4F0D9EE7401F00A22C2D5220B
:1010F800ED33EC3392D5FA602AB4FF33EDC2E77BC7
:10110800FF60067A11791DE4227A11792620D50428
:101118007A117921224E614E002B494E46002D4905
:101128004E4600E47A08F0A3DAFC7B00740722C07C
:1011380083C082ECC0E0EDC0E0EEC0E0EFC0E0EAC2
:1011480075F010A4CAABF075F04DA42BFBE435F094
:10115800FCEA2410FAEB34C5FBEC34D9FCEDC2E709
:10116800FF75F056A4F42411C5F0F434C58FF0A42B
:101178002AE5F03BE43CF020E7141212CDD0E0FF62
:10118800D0E0FED0E0FDD0E0FC1212008014F404A0
:101198001212CDD0E0FFD0E0FED0E0FDD0E0FC128E
:1011A8000E52D082D083E0FAEDD2E7CD33EC33246F
:1011B80082FBE4C3CF33CFCE33CECD33CD33DBF395
:1011C8007B0775F00A846004F0A31B0AE5F0F0A31E
:1011D8008FF0740AA4FFACF08EF0740AA42CFEAC55
:1011E800F050010C8DF0740AA42CFDE435F0F0A346
:0511F800DBDE7407229C
:1049330033DA929E35B16011377FE5FE39218489E0
:104943003AAEC3FF3C1D955B3D6358473E75FDF092
:104953003F3172183F800000C2D502100C021002D2
:10496300BD80FA50F3021009ED33EC330460F17BA0
:104973003B7AAA79B8783F120E52ED33EC3392D5D5
:10498300247B5011A2D570DB500BED4480240450DE
:1049930004A2D580CEEFFBEEFAEDF9ECF8120F96F8
:1049A300EFF582F404FC120F62120D61C08290498C
:1049B30033740912131CED33CC33D0F092D525F0A8
:0A49C300A2D57001C313CC13FD222E
:10322B003E9248DA3ECCCCCD3F2AAAAB4000000000
:10323B003F8000003F9837F03FB504F33FD744FC85
:10324B003E3172173EB172173F0515913EDE5BD9C9
:10325B00D2008002C200EDD2E7F8CD33EC3304701C
:10326B000BBD800592D502100C02100240FBD3144B
:10327B0060F2F5F07C3FEE7A00C39496C8948B40D5
:10328B00230AC89469C8941A401A0AC89468C89447
:10329B001F40110AC8945AC89425400805F07A00BB
:1032AB00CDC2E7CDC0F090003312153DEA2323C009
:1032BB00E0243BF582E43432F58312152D120D61B7
:1032CB00ECC0E0EDC0E0EEC0E0EFC0E012151190F5
:1032DB000033121521120D5DD0E0FBD0E0FAD0E0E7
:1032EB00F9D0E0B2E7F812120090003312153D90BE
:1032FB00322B740312130D900033121521120E5240
:10330B00D0E0600F2447F582E43432F58312152D9B
:10331B00120D6190003312153DD0E0C3947FFDE494
:10332B009400FC120F5D7B187A727931783F120E84
:10333B0052900033121521120D6130000B7BD97A9C
:09334B005B79DE783E120E52227D
:1011FD0002100CEC5D046005E85904700302100246
:10120D00120FCD580460F6EC4860F2EC7004FDFE50
:10121D00FF22C860DB2481C85009C39860025006C4
:10122D000210099850CAF582E9294B4A7005AB8224
:10123D00020FF875F0007C1A7880C3EF9BEE9AEDE3
:10124D0099400DC3EF9BFFEE9AFEED99FDE842F03C
:10125D00DC23ACF0D0E0FFD0E0FED0E0FDAB82208F
:10126D00E7101BEB60BAEC2CFCEF33FFEE33FEED19
:10127D0033FD020FE4E803F830E705C0F075F00028
:10128D00EF2FFFEE33FEED33FD40B830E7C280AAFD
:10129D003F8000004120000042C80000447A000059
:1012AD00461C400047C35000497424004B189680DB
:1012BD004CBEBC205A0E1BCA6753C21C749DC5AED2
:1012CD00FB60065407601C23231212FBEB5438609D
:1012DD00091212E71212F6120E52ECF8EDF9EEFAAF
:1012ED00EFCB22EB1212F680F1543803241C90122E
:1012FD009DFE93FC0EEE93FD0EEE930ECE93FF220C
:10130D00C0E0EFFBEEFAEDF9ECF8120E52D0E0F57D
:10131D00F0EFFBEEFAEDF9ECF8121511A3A3A3A370
:10132D00E8C0E0E9C0E0EAC0E0EBC0E0C0F0120EBA
:10133D005212152DA3A3A3A3120D61D0F0D0E0FB83
:0D134D00D0E0FAD0E0F9D0E0F8D5F0D422DD
:03000000024CA807
:0C4CA800787FE4F6D8FD7581AB024CEF7C
:10135A00E709F608DFFA8046E709F208DFFA803E75
:10136A0088828C83E709F0A3DFFA8032E309F60862
:10137A00DFFA8078E309F208DFFA807088828C83CA
:10138A00E309F0A3DFFA806489828A83E0A3F6087E
:10139A00DFFA805889828A83E0A3F208DFFA804C58
:1013AA0080D280FA80C680D4806980F2803380102F
:1013BA0080A680EA809A80A880DA80E280CA803398
:1013CA0089828A83ECFAE493A3C8C582C8CCC58310
:1013DA00CCF0A3C8C582C8CCC583CCDFE9DEE780E0
:1013EA000D89828A83E493A3F608DFF9ECFAA9F05F
:1013FA00EDFB2289828A83ECFAE0A3C8C582C8CCB5
:10140A00C583CCF0A3C8C582C8CCC583CCDFEADECD
:10141A00E880DB89828A83E493A3F208DFF980CC2F
:10142A0088F0EF60010E4E60C388F0ED2402B40428
:10143A000050B9F582EB2402B4040050AF232345CF
:06144A0082239013AA7337
:10145000BB010689828A83E0225002E722BBFE029A
:09146000E32289828A83E49322CD
:10146900BB010CE58229F582E5833AF583E0225038
:1014790006E92582F8E622BBFE06E92582F8E22282
:0D148900E58229F582E5833AF583E493229C
:10149600BB010689828A83F0225002F722BBFE0135
:0214A600F3222F
:1014A800F8BB010DE58229F582E5833AF583E8F07A
:1014B800225006E92582C8F622BBFE05E92582C826
:0214C800F2220E
:1014CA00EF8DF0A4A8F0CF8CF0A428CE8DF0A42E36
:0214DA00FE22F0
:1014DC00C5F0F8A3E028F0C5F0F8E582158270029B
:0614EC001583E038F02238
:0E14F200C3E49FFFE49EFEE49DFDE49CFC220B
:10150000EB9FF5F0EA9E42F0E99D42F0E89C45F041
:0115100022B8
:10151100E493FC740193FD740293FE740393FF2220
:0C152100E0F8A3E0F9A3E0FAA3E0FB224D
:10152D00E493F8740193F9740293FA740393FB2214
:0C153D00ECF0A3EDF0A3EEF0A3EFF02221
:10154900A8828583F0D083D08212156012156012AB
:101559001560121560E473E493A3C583C5F0C583D0
:10156900C8C582C8F0A3C583C5F0C583C8C582C8EC
:01157900224F
:10157A00F8E0FBA3A3E0F925F0F0E58215827002FA
:07158A001583E0FA38F0229E
:09159100EBF0A3EAF0A3E9F0225B
:10159A00D083D082F8E4937012740193700DA3A3E0
:1015AA0093F8740193F5828883E4737402936860F4
:0615BA00EFA3A3A380DFF4
